{
  "_format": "hh-sol-artifact-1",
  "contractName": "RangeProtocolFactory",
  "sourceName": "contracts/RangeProtocolFactory.sol",
  "abi": [
    {
      "inputs": [
        {
          "internalType": "address",
          "name": "_uniswapV3Factory",
          "type": "address"
        }
      ],
      "stateMutability": "nonpayable",
      "type": "constructor"
    },
    {
      "anonymous": false,
      "inputs": [
        {
          "indexed": true,
          "internalType": "address",
          "name": "previousManager",
          "type": "address"
        },
        {
          "indexed": true,
          "internalType": "address",
          "name": "newManager",
          "type": "address"
        }
      ],
      "name": "OwnershipTransferred",
      "type": "event"
    },
    {
      "anonymous": false,
      "inputs": [
        {
          "indexed": true,
          "internalType": "address",
          "name": "uniPool",
          "type": "address"
        },
        {
          "indexed": true,
          "internalType": "address",
          "name": "manager",
          "type": "address"
        },
        {
          "indexed": true,
          "internalType": "address",
          "name": "vault",
          "type": "address"
        }
      ],
      "name": "VaultCreated",
      "type": "event"
    },
    {
      "inputs": [
        {
          "internalType": "uint256",
          "name": "",
          "type": "uint256"
        }
      ],
      "name": "allVaults",
      "outputs": [
        {
          "internalType": "address",
          "name": "",
          "type": "address"
        }
      ],
      "stateMutability": "view",
      "type": "function"
    },
    {
      "inputs": [
        {
          "internalType": "address",
          "name": "tokenA",
          "type": "address"
        },
        {
          "internalType": "address",
          "name": "tokenB",
          "type": "address"
        },
        {
          "internalType": "uint24",
          "name": "fee",
          "type": "uint24"
        },
        {
          "internalType": "address",
          "name": "treasury",
          "type": "address"
        },
        {
          "internalType": "address",
          "name": "manager",
          "type": "address"
        },
        {
          "internalType": "uint16",
          "name": "managerFee",
          "type": "uint16"
        },
        {
          "internalType": "int24",
          "name": "lowerTick",
          "type": "int24"
        },
        {
          "internalType": "int24",
          "name": "upperTick",
          "type": "int24"
        },
        {
          "internalType": "string",
          "name": "name",
          "type": "string"
        },
        {
          "internalType": "string",
          "name": "symbol",
          "type": "string"
        }
      ],
      "name": "createVault",
      "outputs": [],
      "stateMutability": "nonpayable",
      "type": "function"
    },
    {
      "inputs": [],
      "name": "factory",
      "outputs": [
        {
          "internalType": "address",
          "name": "",
          "type": "address"
        }
      ],
      "stateMutability": "view",
      "type": "function"
    },
    {
      "inputs": [],
      "name": "manager",
      "outputs": [
        {
          "internalType": "address",
          "name": "",
          "type": "address"
        }
      ],
      "stateMutability": "view",
      "type": "function"
    },
    {
      "inputs": [],
      "name": "renounceOwnership",
      "outputs": [],
      "stateMutability": "nonpayable",
      "type": "function"
    },
    {
      "inputs": [
        {
          "internalType": "address",
          "name": "newOwner",
          "type": "address"
        }
      ],
      "name": "transferOwnership",
      "outputs": [],
      "stateMutability": "nonpayable",
      "type": "function"
    },
    {
      "inputs": [
        {
          "internalType": "address",
          "name": "",
          "type": "address"
        },
        {
          "internalType": "address",
          "name": "",
          "type": "address"
        },
        {
          "internalType": "uint24",
          "name": "",
          "type": "uint24"
        }
      ],
      "name": "vaults",
      "outputs": [
        {
          "internalType": "address",
          "name": "",
          "type": "address"
        }
      ],
      "stateMutability": "view",
      "type": "function"
    }
  ],
  "bytecode": "0x60a060405234801561001057600080fd5b50604051615bf0380380615bf083398101604081905261002f916100dc565b33806100a75760405162461bcd60e51b815260206004820152603660248201527f4f776e61626c653a3a636f6e7374727563746f723a206d616e6167657220636160448201527f6e6e6f742062652061207a65726f206164647265737300000000000000000000606482015260840160405180910390fd5b600080546001600160a01b0319166001600160a01b039290921691909117905560601b6001600160601b03191660805261010a565b6000602082840312156100ed578081fd5b81516001600160a01b0381168114610103578182fd5b9392505050565b60805160601c615aba6101366000396000818161011e015281816101c901526105c60152615aba6000f3fe60806040523480156200001157600080fd5b5060043610620000765760003560e01c806310e1e918146200007b578063284c8acd1462000094578063481c6a7514620000ed578063715018a614620000f75780639094a91e1462000101578063c45a01551462000118578063f2fde38b1462000140575b600080fd5b620000926200008c36600462000a2c565b62000157565b005b620000d1620000a5366004620009df565b60026020908152600093845260408085208252928452828420905282529020546001600160a01b031681565b6040516001600160a01b03909116815260200160405180910390f35b620000d1620002f9565b6200009262000308565b620000d16200011236600462000b49565b62000375565b620000d17f000000000000000000000000000000000000000000000000000000000000000081565b62000092620001513660046200099a565b620003a0565b3362000162620002f9565b6001600160a01b031614620001945760405162461bcd60e51b81526004016200018b9062000c82565b60405180910390fd5b604051630b4c774160e11b81526001600160a01b038b811660048301528a8116602483015262ffffff8a1660448301526000917f000000000000000000000000000000000000000000000000000000000000000090911690631698ee829060640160206040518083038186803b1580156200020e57600080fd5b505afa15801562000223573d6000803e3d6000fd5b505050506040513d601f19601f82011682018060405250810190620002499190620009c0565b90506001600160a01b038116620002885760405162461bcd60e51b81526020600482015260026024820152614e4560f01b60448201526064016200018b565b60006200029f828d8d8d8d8d8d8d8d8d8d62000487565b9050806001600160a01b0316886001600160a01b0316836001600160a01b03167f897c133dfbfe1f6239e98b4ffd7e4f6c86a62350a131a7a37790419f58af02f960405160405180910390a4505050505050505050505050565b6000546001600160a01b031690565b3362000313620002f9565b6001600160a01b0316146200033c5760405162461bcd60e51b81526004016200018b9062000c82565b600080546040516001600160a01b039091169060008051602062005a65833981519152908390a3600080546001600160a01b0319169055565b600181815481106200038657600080fd5b6000918252602090912001546001600160a01b0316905081565b33620003ab620002f9565b6001600160a01b031614620003d45760405162461bcd60e51b81526004016200018b9062000c82565b6001600160a01b0381166200043d5760405162461bcd60e51b815260206004820152602860248201527f4f776e61626c653a206e6577206d616e6167657220697320746865207a65726f604482015267206164647265737360c01b60648201526084016200018b565b600080546040516001600160a01b038085169392169160008051602062005a6583398151915291a3600080546001600160a01b0319166001600160a01b0392909216919091179055565b6000896001600160a01b03168b6001600160a01b03161415620004a957600080fd5b6000808b6001600160a01b03168d6001600160a01b031610620004ce578b8d620004d1565b8c8c5b90925090506001600160a01b038216620004ea57600080fd5b60006001600160a01b031660026000846001600160a01b03166001600160a01b031681526020019081526020016000206000836001600160a01b03166001600160a01b0316815260200190815260200160002060008d62ffffff1662ffffff16815260200190815260200160002060009054906101000a90046001600160a01b03166001600160a01b031614620005a95760405162461bcd60e51b8152602060048201526002602482015261564560f01b60448201526064016200018b565b6040516322afcccb60e01b815262ffffff8c1660048201526000907f00000000000000000000000000000000000000000000000000000000000000006001600160a01b0316906322afcccb9060240160206040518083038186803b1580156200061157600080fd5b505afa15801562000626573d6000803e3d6000fd5b505050506040513d601f19601f820116820180604052508101906200064c919062000b2a565b90508060020b6000141580156200066857508660020b8860020b125b80156200068157506200067c818962000cf7565b60020b155b80156200069a575062000695818862000cf7565b60020b155b620006cd5760405162461bcd60e51b8152602060048201526002602482015261545360f01b60448201526064016200018b565b82828d8c8989604051602001620006ea9695949392919062000b90565b604051602081830303815290604052805190602001208f89898e8e8e8c8c6040516200071690620008b8565b6200072998979695949392919062000c0a565b8190604051809103906000f59050801580156200074a573d6000803e3d6000fd5b5093508360026000856001600160a01b03166001600160a01b031681526020019081526020016000206000846001600160a01b03166001600160a01b0316815260200190815260200160002060008e62ffffff1662ffffff16815260200190815260200160002060006101000a8154816001600160a01b0302191690836001600160a01b031602179055508360026000846001600160a01b03166001600160a01b031681526020019081526020016000206000856001600160a01b03166001600160a01b0316815260200190815260200160002060008e62ffffff1662ffffff16815260200190815260200160002060006101000a8154816001600160a01b0302191690836001600160a01b031602179055506001849080600181540180825580915050600190039060005260206000200160009091909190916101000a8154816001600160a01b0302191690836001600160a01b031602179055505050509b9a5050505050505050505050565b614cff8062000d6683390190565b8035620008d38162000d3c565b919050565b8035620008d38162000d55565b600082601f830112620008f6578081fd5b81356001600160401b038082111562000913576200091362000d26565b604051601f8301601f19908116603f011681019082821181831017156200093e576200093e62000d26565b8160405283815286602085880101111562000957578485fd5b8360208701602083013792830160200193909352509392505050565b803561ffff81168114620008d357600080fd5b803562ffffff81168114620008d357600080fd5b600060208284031215620009ac578081fd5b8135620009b98162000d3c565b9392505050565b600060208284031215620009d2578081fd5b8151620009b98162000d3c565b600080600060608486031215620009f4578182fd5b833562000a018162000d3c565b9250602084013562000a138162000d3c565b915062000a236040850162000986565b90509250925092565b6000806000806000806000806000806101408b8d03121562000a4c578586fd5b62000a578b620008c6565b995062000a6760208c01620008c6565b985062000a7760408c0162000986565b975062000a8760608c01620008c6565b965062000a9760808c01620008c6565b955062000aa760a08c0162000973565b945062000ab760c08c01620008d8565b935062000ac760e08c01620008d8565b92506101008b01356001600160401b038082111562000ae4578384fd5b62000af28e838f01620008e5565b93506101208d013591508082111562000b09578283fd5b5062000b188d828e01620008e5565b9150509295989b9194979a5092959850565b60006020828403121562000b3c578081fd5b8151620009b98162000d55565b60006020828403121562000b5b578081fd5b5035919050565b6000815180845262000b7c81602086016020860162000cc4565b601f01601f19169290920160200192915050565b6001600160601b0319606088811b8216835287811b821660148401526001600160e81b031960e888901b16602884015285901b16602b820152825160009062000be181603f85016020880162000cc4565b83519083019062000bfa81603f84016020880162000cc4565b01603f0198975050505050505050565b6001600160a01b038981168252600289810b602084015288900b604083015286811660608301528516608082015261ffff841660a082015261010060c0820181905260009062000c5d8382018662000b62565b905082810360e084015262000c73818562000b62565b9b9a5050505050505050505050565b60208082526022908201527f4f776e61626c653a2063616c6c6572206973206e6f7420746865206d616e616760408201526132b960f11b606082015260800190565b60005b8381101562000ce157818101518382015260200162000cc7565b8381111562000cf1576000848401525b50505050565b60008260020b8062000d1757634e487b7160e01b82526012600452602482fd5b808360020b0791505092915050565b634e487b7160e01b600052604160045260246000fd5b6001600160a01b038116811462000d5257600080fd5b50565b8060020b811462000d5257600080fdfe60e06040523480156200001157600080fd5b5060405162004cff38038062004cff833981016040819052620000349162000530565b8181856001600160a01b038116620000b95760405162461bcd60e51b815260206004820152603660248201527f4f776e61626c653a3a636f6e7374727563746f723a206d616e6167657220636160448201527f6e6e6f742062652061207a65726f20616464726573730000000000000000000060648201526084015b60405180910390fd5b600080546001600160a01b0319166001600160a01b03929092169190911790558151620000ee90600490602085019062000383565b5080516200010490600590602084019062000383565b50506001600655506103e861ffff841611156200014a5760405162461bcd60e51b815260206004820152600360248201526246454560e81b6044820152606401620000b0565b60088054606087901b6001600160601b03191660c0526001600160b01b031916600160a01b61ffff861681026001600160a01b0319908116929092176001600160a01b03888116919091179093556007805465ffffffffffff60a01b191660028c810b62ffffff90811690940262ffffff60b81b191691909117600160b81b918c900b939093160291909117909116918a16918217905560408051630dfe168160e01b81529051630dfe168191600480820192602092909190829003018186803b1580156200021857600080fd5b505afa1580156200022d573d6000803e3d6000fd5b505050506040513d601f19601f820116820180604052508101906200025391906200050c565b60601b6001600160601b0319166080526007546040805163d21220a760e01b815290516001600160a01b039092169163d21220a791600480820192602092909190829003018186803b158015620002a957600080fd5b505afa158015620002be573d6000803e3d6000fd5b505050506040513d601f19601f82011682018060405250810190620002e491906200050c565b60601b6001600160601b03191660a052600d8054600160ff1990911617905560408051600289810b825288900b60208201527f8e3ac6cc9b82795b40740ca4e954df8f6655fe35e80cdc6fb33d50c3423fcd16910160405180910390a1604051600181527fd9279952b347fd14af9b788aff1029c0d3b1299b7dcce164fc602a1b958c48809060200160405180910390a1505050505050505062000662565b82805462000391906200060f565b90600052602060002090601f016020900481019282620003b5576000855562000400565b82601f10620003d057805160ff191683800117855562000400565b8280016001018555821562000400579182015b8281111562000400578251825591602001919060010190620003e3565b506200040e92915062000412565b5090565b5b808211156200040e576000815560010162000413565b80516001600160a01b03811681146200044157600080fd5b919050565b8051600281900b81146200044157600080fd5b600082601f8301126200046a578081fd5b81516001600160401b03808211156200048757620004876200064c565b604051601f8301601f19908116603f01168101908282118183101715620004b257620004b26200064c565b81604052838152602092508683858801011115620004ce578485fd5b8491505b83821015620004f15785820183015181830184015290820190620004d2565b838211156200050257848385830101525b9695505050505050565b6000602082840312156200051e578081fd5b620005298262000429565b9392505050565b600080600080600080600080610100898b0312156200054d578384fd5b620005588962000429565b97506200056860208a0162000446565b96506200057860408a0162000446565b95506200058860608a0162000429565b94506200059860808a0162000429565b935060a089015161ffff81168114620005af578384fd5b60c08a01519093506001600160401b0380821115620005cc578384fd5b620005da8c838d0162000459565b935060e08b0151915080821115620005f0578283fd5b50620005ff8b828c0162000459565b9150509295985092959890939650565b600181811c908216806200062457607f821691505b602082108114156200064657634e487b7160e01b600052602260045260246000fd5b50919050565b634e487b7160e01b600052604160045260246000fd5b60805160601c60a05160601c60c05160601c6145ca62000735600039600081816103790152818161151b01526115750152600081816104dd01528181610e6f015281816110b301528181611553015281816116880152818161189201528181611b4701528181611c21015281816122b6015281816125f8015261288a01526000818161026d01528181610e2f01528181611078015281816114f90152818161164e0152818161185001528181611a7001528181611be7015281816121ff0152818161255801526127d601526145ca6000f3fe608060405234801561001057600080fd5b506004361061020f5760003560e01c8063065756db1461021457806306fdde0314610230578063095ea7b3146102455780630dfe168114610268578063129f55021461029c5780631322d954146102a557806316f0115b146102c257806318160ddd146102d5578063195cd92c146102dd57806323b872dd146102f057806324ea6a1914610303578063313ce5671461031857806339509351146103275780634043f5ca1461033a57806342fb9d4414610347578063481c6a75146103505780635265019b1461035857806361d027b31461037457806367b9a2861461039b57806370a08231146103a3578063715018a6146103cc57806371908a03146103d4578063727dd228146103dc5780639403c1ae146103fd57806394bf804d14610405578063956abea81461041857806395d89b41146104215780639894f21a146104295780639b1344ac1461044b5780639c7632fc1461045f578063a457c2d714610474578063a9059cbb14610487578063b670ed7d1461049a578063bb9744ce146104ad578063c2cda7eb146104b5578063cc32d176146104bd578063cc95353e146104c5578063d21220a7146104d8578063d3487997146104ff578063dd62ed3e14610512578063df28408a1461054b578063f2fde38b14610553578063fa461e3314610566578063fcd3533c14610579578063fd87f9aa1461058c575b600080fd5b61021d600b5481565b6040519081526020015b60405180910390f35b61023861059f565b604051610227919061423c565b610258610253366004613e39565b610631565b6040519015158152602001610227565b61028f7f000000000000000000000000000000000000000000000000000000000000000081565b60405161022791906141d8565b61021d600a5481565b6102ad610647565b60408051928352602083019190915201610227565b60075461028f906001600160a01b031681565b60035461021d565b6102ad6102eb366004613e80565b6106f0565b6102586102fe366004613df9565b61081c565b610316610311366004613ec1565b6108cf565b005b60405160128152602001610227565b610258610335366004613e39565b6109de565b600d546102589060ff1681565b61021d600c5481565b61028f610a15565b6103616103e881565b60405161ffff9091168152602001610227565b61028f7f000000000000000000000000000000000000000000000000000000000000000081565b610316610a24565b61021d6103b1366004613da5565b6001600160a01b031660009081526001602052604090205490565b610316610c10565b6102ad610c77565b6007546103f090600160b81b900460020b81565b604051610227919061422e565b610316610e06565b6102ad610413366004614177565b610e9c565b61021d60095481565b610238611224565b61043c61043736600461419b565b611233565b6040516102279392919061431c565b6007546103f090600160a01b900460020b81565b60085461036190600160a01b900461ffff1681565b610258610482366004613e39565b611385565b610258610495366004613e39565b611420565b6102ad6104a8366004613da5565b61142d565b6103166114d4565b61031661159a565b61036160fa81565b60085461028f906001600160a01b031681565b61028f7f000000000000000000000000000000000000000000000000000000000000000081565b61031661050d366004613f4b565b6115fb565b61021d610520366004613dc1565b6001600160a01b03918216600090815260026020908152604080832093909416825291909152205490565b61021d6116b5565b610316610561366004613da5565b61171b565b610316610574366004613f4b565b6117fa565b6102ad610587366004614177565b6118b9565b6102ad61059a366004613ee3565b611c9d565b6060600480546105ae9061440e565b80601f01602080910402602001604051908101604052809291908181526020018280546105da9061440e565b80156106275780601f106105fc57610100808354040283529160200191610627565b820191906000526020600020905b81548152906001019060200180831161060a57829003601f168201915b5050505050905090565b600061063e338484611f6f565b50600192915050565b600080600080600760009054906101000a90046001600160a01b03166001600160a01b0316633850c7bd6040518163ffffffff1660e01b815260040160e06040518083038186803b15801561069b57600080fd5b505afa1580156106af573d6000803e3d6000fd5b505050506040513d601f19601f820116820180604052508101906106d391906140c9565b5050505050915091506106e68282612094565b9350935050509091565b600080336106fc610a15565b6001600160a01b03161461072b5760405162461bcd60e51b81526004016107229061426f565b60405180910390fd5b600754604051630251596160e31b81523060048201528615156024820152604481018690526001600160a01b03858116606483015260a06084830152600060a48301529091169063128acb089060c4016040805180830381600087803b15801561079457600080fd5b505af11580156107a8573d6000803e3d6000fd5b505050506040513d601f19601f820116820180604052508101906107cc9190613f28565b6040805188151581526020810184905290810182905291935091507fbf511038cfa32cfb7971e976074c0e6aeda010e6afcbb38d87b4f910305014949060600160405180910390a1935093915050565b6000610829848484612388565b6001600160a01b0384166000908152600260209081526040808320338452909152902054828110156108ae5760405162461bcd60e51b815260206004820152602860248201527f45524332303a207472616e7366657220616d6f756e74206578636565647320616044820152676c6c6f77616e636560c01b6064820152608401610722565b6108c285336108bd86856143cb565b611f6f565b60019150505b9392505050565b336108d8610a15565b6001600160a01b0316146108fe5760405162461bcd60e51b81526004016107229061426f565b6103e8600183900b131561093a5760405162461bcd60e51b815260206004820152600360248201526246454560e81b6044820152606401610722565b60008260010b12610960576008805461ffff60a01b1916600160a01b61ffff8516021790555b6001600160a01b0381161561098b57600880546001600160a01b0319166001600160a01b0383161790555b60085460408051600160a01b830461ffff1681526001600160a01b0390921660208301527f02ad1d89af887cf4c74a2ec40d38a38311767043c332bf5dae1a66b62bd2bc98910160405180910390a15050565b3360008181526002602090815260408083206001600160a01b0387168452909152812054909161063e9185906108bd908690614358565b6000546001600160a01b031690565b33610a2d610a15565b6001600160a01b031614610a535760405162461bcd60e51b81526004016107229061426f565b6007546000906001600160a01b031663514ea4bf610a6f6116b5565b6040518263ffffffff1660e01b8152600401610a8d91815260200190565b60a06040518083038186803b158015610aa557600080fd5b505afa158015610ab9573d6000803e3d6000fd5b505050506040513d601f19601f82011682018060405250810190610add9190614073565b5050505090506000816001600160801b03161115610bad57600754600160a01b8104600290810b91600160b81b9004900b6000808080610b1e86868961254e565b93509350935093507f6d7e1841bf97c0b736eafb2779459ba1e0af2305cead28a8e97533589ceb2f658787878787604051610b5d9594939291906142e8565b60405180910390a1610b6f8282612945565b610b798282612a14565b6040805183815260208101839052929450909250600080516020614575833981519152910160405180910390a15050505050505b60078054600160b81b8104600290810b900b62ffffff16600160a01b0262ffffff60a01b19909116179055600d805460ff1916905560405160008051602061455583398151915290610c059060001515815260200190565b60405180910390a150565b33610c19610a15565b6001600160a01b031614610c3f5760405162461bcd60e51b81526004016107229061426f565b600080546040516001600160a01b0390911690600080516020614515833981519152908390a3600080546001600160a01b0319169055565b6000806000600760009054906101000a90046001600160a01b03166001600160a01b0316633850c7bd6040518163ffffffff1660e01b815260040160e06040518083038186803b158015610cca57600080fd5b505afa158015610cde573d6000803e3d6000fd5b505050506040513d601f19601f82011682018060405250810190610d0291906140c9565b50506007549395506000945084938493508392508291506001600160a01b031663514ea4bf610d2f6116b5565b6040518263ffffffff1660e01b8152600401610d4d91815260200190565b60a06040518083038186803b158015610d6557600080fd5b505afa158015610d79573d6000803e3d6000fd5b505050506040513d601f19601f82011682018060405250810190610d9d9190614073565b94509450945094509450816001600160801b0316610dbe6001868989612a9c565b610dc89190614358565b9750806001600160801b0316610de16000858989612a9c565b610deb9190614358565b9650610df78888612a14565b90999098509650505050505050565b600b8054600c8054600093849055929055908115610e5857600854610e58906001600160a01b037f00000000000000000000000000000000000000000000000000000000000000008116911684612e98565b8015610e9857600854610e98906001600160a01b037f00000000000000000000000000000000000000000000000000000000000000008116911683612e98565b5050565b60008060026006541415610ec25760405162461bcd60e51b8152600401610722906142b1565b600260065583610ef95760405162461bcd60e51b815260206004820152600260248201526104d360f41b6044820152606401610722565b6000610f0460035490565b600d5460075460408051633850c7bd60e01b8152905193945060ff909216926000926001600160a01b0390921691633850c7bd9160048083019260e0929190829003018186803b158015610f5757600080fd5b505afa158015610f6b573d6000803e3d6000fd5b505050506040513d601f19601f82011682018060405250810190610f8f91906140c9565b50505050505090506000831115610fd057600080610fab610647565b91509150610fba828a87612f00565b9650610fc7818a87612f00565b95505050611065565b81156110275761101d81610ff5600760149054906101000a900460020b60020b612f57565b60075461100f90600160b81b9004600290810b900b612f57565b6110188b613369565b6133d2565b9095509350611065565b60405162461bcd60e51b8152602060048201526013602482015272139bdd08185b1b1bddd959081d1bc81b5a5b9d606a1b6044820152606401610722565b84156110a0576110a06001600160a01b037f00000000000000000000000000000000000000000000000000000000000000001633308861346e565b83156110db576110db6001600160a01b037f00000000000000000000000000000000000000000000000000000000000000001633308761346e565b6110e586886134a6565b81156111ce57600061112d8261110c600760149054906101000a900460020b60020b612f57565b60075461112690600160b81b9004600290810b900b612f57565b8989613573565b600754604051633c8a7d8d60e01b81529192506001600160a01b03811691633c8a7d8d91611179913091600160a01b8104600290810b92600160b81b909204900b9087906004016141ec565b6040805180830381600087803b15801561119257600080fd5b505af11580156111a6573d6000803e3d6000fd5b505050506040513d601f19601f820116820180604052508101906111ca9190613f28565b5050505b856001600160a01b03167f5a3358a3d27a5373c0df2604662088d37894d56b7cfd27f315770440f4e0d91988878760405161120b9392919061431c565b60405180910390a2505060016006555090939092509050565b6060600580546105ae9061440e565b60008060008061124260035490565b9050801561126157611255818787613635565b9195509350915061137d565b60075460408051633850c7bd60e01b815290516000926001600160a01b031691633850c7bd9160048083019260e0929190829003018186803b1580156112a657600080fd5b505afa1580156112ba573d6000803e3d6000fd5b505050506040513d601f19601f820116820180604052508101906112de91906140c9565b5050505050509050600061132882611307600760149054906101000a900460020b60020b612f57565b60075461132190600160b81b9004600290810b900b612f57565b8b8b613573565b9050806001600160801b0316935061137582611355600760149054906101000a900460020b60020b612f57565b60075461136f90600160b81b9004600290810b900b612f57565b846133d2565b909650945050505b509250925092565b3360009081526002602090815260408083206001600160a01b0386168452909152812054828110156114075760405162461bcd60e51b815260206004820152602560248201527f45524332303a2064656372656173656420616c6c6f77616e63652062656c6f77604482015264207a65726f60d81b6064820152608401610722565b61141633856108bd86856143cb565b5060019392505050565b600061063e338484612388565b6000806000600760009054906101000a90046001600160a01b03166001600160a01b0316633850c7bd6040518163ffffffff1660e01b815260040160e06040518083038186803b15801561148057600080fd5b505afa158015611494573d6000803e3d6000fd5b505050506040513d601f19601f820116820180604052508101906114b891906140c9565b50505050509150506114ca8482612094565b9250925050915091565b60098054600a8054600093849055929055908115611540576115406001600160a01b037f0000000000000000000000000000000000000000000000000000000000000000167f000000000000000000000000000000000000000000000000000000000000000084612e98565b8015610e9857610e986001600160a01b037f0000000000000000000000000000000000000000000000000000000000000000167f000000000000000000000000000000000000000000000000000000000000000083612e98565b336115a3610a15565b6001600160a01b0316146115c95760405162461bcd60e51b81526004016107229061426f565b600d805460ff81161560ff19909116811790915560405181815260008051602061455583398151915290602001610c05565b6007546001600160a01b0316331461163b5760405162461bcd60e51b815260206004820152600360248201526226a1a160e91b6044820152606401610722565b8315611675576116756001600160a01b037f0000000000000000000000000000000000000000000000000000000000000000163386612e98565b82156116af576116af6001600160a01b037f0000000000000000000000000000000000000000000000000000000000000000163385612e98565b50505050565b6007546040516001600160601b03193060601b166020820152600160a01b8204600290810b810b60e890811b6034840152600160b81b909304810b900b90911b6037820152600090603a0160405160208183030381529060405280519060200120905090565b33611724610a15565b6001600160a01b03161461174a5760405162461bcd60e51b81526004016107229061426f565b6001600160a01b0381166117b15760405162461bcd60e51b815260206004820152602860248201527f4f776e61626c653a206e6577206d616e6167657220697320746865207a65726f604482015267206164647265737360c01b6064820152608401610722565b600080546040516001600160a01b038085169392169160008051602061451583398151915291a3600080546001600160a01b0319166001600160a01b0392909216919091179055565b6007546001600160a01b0316331461183a5760405162461bcd60e51b815260206004820152600360248201526229a1a160e91b6044820152606401610722565b600084131561187c576118776001600160a01b037f0000000000000000000000000000000000000000000000000000000000000000163386612e98565b6116af565b60008313156116af576116af6001600160a01b037f0000000000000000000000000000000000000000000000000000000000000000163385612e98565b600080600260065414156118df5760405162461bcd60e51b8152600401610722906142b1565b6002600655836119165760405162461bcd60e51b8152602060048201526002602482015261042360f41b6044820152606401610722565b600061192160035490565b905061192d338661378e565b6007546000906001600160a01b031663514ea4bf6119496116b5565b6040518263ffffffff1660e01b815260040161196791815260200190565b60a06040518083038186803b15801561197f57600080fd5b505afa158015611993573d6000803e3d6000fd5b505050506040513d601f19601f820116820180604052508101906119b79190614073565b5050600d54929350505060ff1615611ba85760006119df87836001600160801b0316856138cb565b905060006119ec82613369565b600754909150600090819081908190611a1b90600160a01b8104600290810b91600160b81b9004900b8761254e565b9350935093509350611a2d8282612945565b611a378282612a14565b6040805183815260208101839052929450909250600080516020614575833981519152910160405180910390a1611b2f600954600b54867f00000000000000000000000000000000000000000000000000000000000000006001600160a01b03166370a08231306040518263ffffffff1660e01b8152600401611aba91906141d8565b60206040518083038186803b158015611ad257600080fd5b505afa158015611ae6573d6000803e3d6000fd5b505050506040513d601f19601f82011682018060405250810190611b0a919061415f565b611b1491906143cb565b611b1e91906143cb565b611b2891906143cb565b8d8a6138cb565b611b399085614358565b9950611b91600a54600c54857f00000000000000000000000000000000000000000000000000000000000000006001600160a01b03166370a08231306040518263ffffffff1660e01b8152600401611aba91906141d8565b611b9b9084614358565b9850505050505050611bd4565b600080611bb3610647565b91509150611bc28289866138cb565b9550611bcf8189866138cb565b945050505b8315611c0e57611c0e6001600160a01b037f0000000000000000000000000000000000000000000000000000000000000000168686612e98565b8215611c4857611c486001600160a01b037f0000000000000000000000000000000000000000000000000000000000000000168685612e98565b846001600160a01b03167f4c60206a5c1de41f3376d1d60f0949d96cb682033c90b1c2d9d9a62d4c4120c0878686604051611c859392919061431c565b60405180910390a25050600160065590939092509050565b60008033611ca9610a15565b6001600160a01b031614611ccf5760405162461bcd60e51b81526004016107229061426f565b60075460408051633850c7bd60e01b815290516000926001600160a01b031691633850c7bd9160048083019260e0929190829003018186803b158015611d1457600080fd5b505afa158015611d28573d6000803e3d6000fd5b505050506040513d601f19601f82011682018060405250810190611d4c91906140c9565b50505050505090506000611d7282611d668a60020b612f57565b6111268a60020b612f57565b90506001600160801b03811615611f2a57600754604051633c8a7d8d60e01b815260009182916001600160a01b0390911690633c8a7d8d90611dbe9030908e908e9089906004016141ec565b6040805180830381600087803b158015611dd757600080fd5b505af1158015611deb573d6000803e3d6000fd5b505050506040513d601f19601f82011682018060405250810190611e0f9190613f28565b9092509050611e1e82896143cb565b9550611e2a81886143cb565b94508960020b600760149054906101000a900460020b60020b141580611e62575060075460028a810b600160b81b909204810b900b14155b15611ee8576007805465ffffffffffff60a01b1916600160a01b60028d810b62ffffff8181169390930262ffffff60b81b191693909317600160b81b918e900b92831691909102179092556040805191825260208201929092527f8e3ac6cc9b82795b40740ca4e954df8f6655fe35e80cdc6fb33d50c3423fcd16910160405180910390a15b7ffa715a0b1bc7287b5d3581c11478041b0455aad0c17361fc1e55fffbdd4b6c4f838b8b8585604051611f1f9594939291906142e8565b60405180910390a150505b600d5460ff16611f6457600d805460ff19166001179055604051600081526000805160206145558339815191529060200160405180910390a15b505094509492505050565b6001600160a01b038316611fd15760405162461bcd60e51b8152602060048201526024808201527f45524332303a20617070726f76652066726f6d20746865207a65726f206164646044820152637265737360e01b6064820152608401610722565b6001600160a01b0382166120325760405162461bcd60e51b815260206004820152602260248201527f45524332303a20617070726f766520746f20746865207a65726f206164647265604482015261737360f01b6064820152608401610722565b6001600160a01b0383811660008181526002602090815260408083209487168084529482529182902085905590518481527f8c5be1e5ebec7d5bd14f71427d1e84f3dd0314c0f7b2291e5b200ac8c7c3b92591015b60405180910390a3505050565b6007546000908190819081908190819081906001600160a01b031663514ea4bf6120bc6116b5565b6040518263ffffffff1660e01b81526004016120da91815260200190565b60a06040518083038186803b1580156120f257600080fd5b505afa158015612106573d6000803e3d6000fd5b505050506040513d601f19601f8201168201806040525081019061212a9190614073565b94509450945094509450600080866001600160801b03166000146121e2576121878b612167600760149054906101000a900460020b60020b612f57565b60075461218190600160b81b9004600290810b900b612f57565b8a6133d2565b90995097506001600160801b0384166121a36001888d8b612a9c565b6121ad9190614358565b9150826001600160801b03166121c66000878d8b612a9c565b6121d09190614358565b90506121dc8282612a14565b90925090505b600954600b546040516370a0823160e01b81526001600160a01b037f000000000000000000000000000000000000000000000000000000000000000016906370a08231906122349030906004016141d8565b60206040518083038186803b15801561224c57600080fd5b505afa158015612260573d6000803e3d6000fd5b505050506040513d601f19601f82011682018060405250810190612284919061415f565b61228e9085614358565b61229891906143cb565b6122a291906143cb565b6122ac908a614358565b9850600a54600c547f00000000000000000000000000000000000000000000000000000000000000006001600160a01b03166370a08231306040518263ffffffff1660e01b815260040161230091906141d8565b60206040518083038186803b15801561231857600080fd5b505afa15801561232c573d6000803e3d6000fd5b505050506040513d601f19601f82011682018060405250810190612350919061415f565b61235a9084614358565b61236491906143cb565b61236e91906143cb565b6123789089614358565b9750505050505050509250929050565b6001600160a01b0383166123ec5760405162461bcd60e51b815260206004820152602560248201527f45524332303a207472616e736665722066726f6d20746865207a65726f206164604482015264647265737360d81b6064820152608401610722565b6001600160a01b03821661244e5760405162461bcd60e51b815260206004820152602360248201527f45524332303a207472616e7366657220746f20746865207a65726f206164647260448201526265737360e81b6064820152608401610722565b6001600160a01b038316600090815260016020526040902054818110156124c65760405162461bcd60e51b815260206004820152602660248201527f45524332303a207472616e7366657220616d6f756e7420657863656564732062604482015265616c616e636560d01b6064820152608401610722565b6124d082826143cb565b6001600160a01b038086166000908152600160205260408082209390935590851681529081208054849290612506908490614358565b92505081905550826001600160a01b0316846001600160a01b03166000805160206145358339815191528460405161254091815260200190565b60405180910390a350505050565b60008060008060007f00000000000000000000000000000000000000000000000000000000000000006001600160a01b03166370a08231306040518263ffffffff1660e01b81526004016125a291906141d8565b60206040518083038186803b1580156125ba57600080fd5b505afa1580156125ce573d6000803e3d6000fd5b505050506040513d601f19601f820116820180604052508101906125f2919061415f565b905060007f00000000000000000000000000000000000000000000000000000000000000006001600160a01b03166370a08231306040518263ffffffff1660e01b815260040161264291906141d8565b60206040518083038186803b15801561265a57600080fd5b505afa15801561266e573d6000803e3d6000fd5b505050506040513d601f19601f82011682018060405250810190612692919061415f565b60075460405163a34123a760e01b815260028c810b60048301528b900b60248201526001600160801b038a1660448201529192506001600160a01b03169063a34123a7906064016040805180830381600087803b1580156126f257600080fd5b505af1158015612706573d6000803e3d6000fd5b505050506040513d601f19601f8201168201806040525081019061272a9190613f28565b6007546040516309e3d67b60e31b815230600482015260028d810b60248301528c900b60448201526001600160801b036064820181905260848201529298509096506001600160a01b031690634f1eb3d89060a4016040805180830381600087803b15801561279857600080fd5b505af11580156127ac573d6000803e3d6000fd5b505050506040513d601f19601f820116820180604052508101906127d09190614041565b505085827f00000000000000000000000000000000000000000000000000000000000000006001600160a01b03166370a08231306040518263ffffffff1660e01b815260040161282091906141d8565b60206040518083038186803b15801561283857600080fd5b505afa15801561284c573d6000803e3d6000fd5b505050506040513d601f19601f82011682018060405250810190612870919061415f565b61287a91906143cb565b61288491906143cb565b935084817f00000000000000000000000000000000000000000000000000000000000000006001600160a01b03166370a08231306040518263ffffffff1660e01b81526004016128d491906141d8565b60206040518083038186803b1580156128ec57600080fd5b505afa158015612900573d6000803e3d6000fd5b505050506040513d601f19601f82011682018060405250810190612924919061415f565b61292e91906143cb565b61293891906143cb565b9250505093509350935093565b61271061295360fa84614384565b61295d9190614370565b6009600082825461296e9190614358565b90915550612710905061298260fa83614384565b61298c9190614370565b600a600082825461299d9190614358565b9091555050600854600160a01b900461ffff166127106129bd8285614384565b6129c79190614370565b600b60008282546129d89190614358565b9091555061271090506129ef61ffff831684614384565b6129f99190614370565b600c6000828254612a0a9190614358565b9091555050505050565b6008546000908190600160a01b900461ffff1681612710612a368360fa614332565b612a449061ffff1688614384565b612a4e9190614370565b90506000612710612a608460fa614332565b612a6e9061ffff1688614384565b612a789190614370565b9050612a8482886143cb565b9450612a9081876143cb565b93505050509250929050565b6000806000808715612c6157600760009054906101000a90046001600160a01b03166001600160a01b031663f30583996040518163ffffffff1660e01b815260040160206040518083038186803b158015612af657600080fd5b505afa158015612b0a573d6000803e3d6000fd5b505050506040513d601f19601f82011682018060405250810190612b2e919061415f565b60075460405163f30dba9360e01b81529192506001600160a01b0381169163f30dba9391612b6a91600160a01b90910460020b9060040161422e565b6101006040518083038186803b158015612b8357600080fd5b505afa158015612b97573d6000803e3d6000fd5b505050506040513d601f19601f82011682018060405250810190612bbb9190613f9b565b505060075460405163f30dba9360e01b81529499506001600160a01b038116965063f30dba939550612c0094600160b81b90910460020b9350600401915061422e9050565b6101006040518083038186803b158015612c1957600080fd5b505afa158015612c2d573d6000803e3d6000fd5b505050506040513d601f19601f82011682018060405250810190612c519190613f9b565b50939750612e1495505050505050565b600760009054906101000a90046001600160a01b03166001600160a01b031663461413196040518163ffffffff1660e01b815260040160206040518083038186803b158015612caf57600080fd5b505afa158015612cc3573d6000803e3d6000fd5b505050506040513d601f19601f82011682018060405250810190612ce7919061415f565b60075460405163f30dba9360e01b81529192506001600160a01b0381169163f30dba9391612d2391600160a01b90910460020b9060040161422e565b6101006040518083038186803b158015612d3c57600080fd5b505afa158015612d50573d6000803e3d6000fd5b505050506040513d601f19601f82011682018060405250810190612d749190613f9b565b505060075460405163f30dba9360e01b81529399506001600160a01b038116965063f30dba939550612db89450600160b81b900460020b92600401915061422e9050565b6101006040518083038186803b158015612dd157600080fd5b505afa158015612de5573d6000803e3d6000fd5b505050506040513d601f19601f82011682018060405250810190612e099190613f9b565b509297505050505050505b6000600760149054906101000a900460020b60020b8760020b12612e39575082612e3e565b508281035b6000600760179054906101000a900460020b60020b8860020b1215612e64575082612e69565b508282035b818303819003612e896001600160801b0389168b8303600160801b6138cb565b9b9a5050505050505050505050565b6040516001600160a01b038316602482015260448101829052612efb90849063a9059cbb60e01b906064015b60408051601f198184030181529190526020810180516001600160e01b03166001600160e01b03199093169290921790915261397a565b505050565b6000612f0d8484846138cb565b905060008280612f2d57634e487b7160e01b600052601260045260246000fd5b84860911156108c8576000198110612f4457600080fd5b80612f4e81614449565b95945050505050565b60008060008360020b12612f6e578260020b612f7b565b8260020b612f7b90614499565b9050612f8a620d89e719614478565b60020b811115612fc05760405162461bcd60e51b81526020600482015260016024820152601560fa1b6044820152606401610722565b600060018216612fd457600160801b612fe6565b6ffffcb933bd6fad37aa2d162d1a5940015b6001600160881b03169050600282161561301b576080613016826ffff97272373d413259a46990580e213a614384565b901c90505b6004821615613045576080613040826ffff2e50f5f656932ef12357cf3c7fdcc614384565b901c90505b600882161561306f57608061306a826fffe5caca7e10e4e61c3624eaa0941cd0614384565b901c90505b6010821615613099576080613094826fffcb9843d60f6159c9db58835c926644614384565b901c90505b60208216156130c35760806130be826fff973b41fa98c081472e6896dfb254c0614384565b901c90505b60408216156130ed5760806130e8826fff2ea16466c96a3843ec78b326b52861614384565b901c90505b6080821615613117576080613112826ffe5dee046a99a2a811c461f1969c3053614384565b901c90505b61010082161561314257608061313d826ffcbe86c7900a88aedcffc83b479aa3a4614384565b901c90505b61020082161561316d576080613168826ff987a7253ac413176f2b074cf7815e54614384565b901c90505b610400821615613198576080613193826ff3392b0822b70005940c7a398e4b70f3614384565b901c90505b6108008216156131c35760806131be826fe7159475a2c29b7443b29c7fa6e889d9614384565b901c90505b6110008216156131ee5760806131e9826fd097f3bdfd2022b8845ad8f792aa5825614384565b901c90505b612000821615613219576080613214826fa9f746462d870fdf8a65dc1f90e061e5614384565b901c90505b61400082161561324457608061323f826f70d869a156d2a1b890bb3df62baf32f7614384565b901c90505b61800082161561326f57608061326a826f31be135f97d08fd981231505542fcfa6614384565b901c90505b6201000082161561329b576080613296826f09aa508b5b7a84e1c677de54f3e99bc9614384565b901c90505b620200008216156132c65760806132c1826e5d6af8dedb81196699c329225ee604614384565b901c90505b620400008216156132f05760806132eb826d2216e584f5fa1ea926041bedfe98614384565b901c90505b62080000821615613318576080613313826b048a170391f7dc42444e8fa2614384565b901c90505b60008460020b13156133335761333081600019614370565b90505b613341600160201b82614464565b1561334d576001613350565b60005b6133619060ff16602083901c614358565b949350505050565b6000600160801b82106133ce5760405162461bcd60e51b815260206004820152602760248201527f53616665436173743a2076616c756520646f65736e27742066697420696e20316044820152663238206269747360c81b6064820152608401610722565b5090565b600080836001600160a01b0316856001600160a01b031611156133f3579293925b846001600160a01b0316866001600160a01b03161161341e57613417858585613a4c565b9150613465565b836001600160a01b0316866001600160a01b0316101561345757613443868585613a4c565b9150613450858785613ab6565b9050613465565b613462858585613ab6565b90505b94509492505050565b6040516001600160a01b03808516602483015283166044820152606481018290526116af9085906323b872dd60e01b90608401612ec4565b6001600160a01b0382166134fc5760405162461bcd60e51b815260206004820152601f60248201527f45524332303a206d696e7420746f20746865207a65726f2061646472657373006044820152606401610722565b806003600082825461350e9190614358565b90915550506001600160a01b0382166000908152600160205260408120805483929061353b908490614358565b90915550506040518181526001600160a01b038316906000906000805160206145358339815191529060200160405180910390a35050565b6000836001600160a01b0316856001600160a01b03161115613593579293925b846001600160a01b0316866001600160a01b0316116135be576135b7858585613b00565b9050612f4e565b836001600160a01b0316866001600160a01b031610156136205760006135e5878686613b00565b905060006135f4878986613b6a565b9050806001600160801b0316826001600160801b0316106136155780613617565b815b92505050612f4e565b61362b858584613b6a565b9695505050505050565b6000806000806000613645610647565b915091508160001480156136595750600081115b15613670576136698689836138cb565b9250613769565b8015801561367e5750600082115b1561368e576136698789846138cb565b8115801561369a575080155b156136f25760405162461bcd60e51b815260206004820152602260248201527f746f6b656e3020616e6420746f6b656e3120616d6f756e747320617265207a65604482015261726f60f01b6064820152608401610722565b60006136ff888a856138cb565b9050600061370e888b856138cb565b90506000821180156137205750600081115b6137555760405162461bcd60e51b815260206004820152600660248201526506d696e7420360d41b6044820152606401610722565b8082106137625780613764565b815b945050505b61377483838a612f00565b945061378183828a612f00565b9350505093509350939050565b6001600160a01b0382166137ee5760405162461bcd60e51b815260206004820152602160248201527f45524332303a206275726e2066726f6d20746865207a65726f206164647265736044820152607360f81b6064820152608401610722565b6001600160a01b038216600090815260016020526040902054818110156138625760405162461bcd60e51b815260206004820152602260248201527f45524332303a206275726e20616d6f756e7420657863656564732062616c616e604482015261636560f01b6064820152608401610722565b61386c82826143cb565b6001600160a01b0384166000908152600160205260408120919091556003805484929061389a9084906143cb565b90915550506040518281526000906001600160a01b0385169060008051602061453583398151915290602001612087565b60008080600019858709858702925082811083820303915050806000141561390557600084116138fa57600080fd5b5082900490506108c8565b80841161391157600080fd5b60008486880960026001871981018816978890046003810283188082028403028082028403028082028403028082028403028082028403029081029092039091026000889003889004909101858311909403939093029303949094049190911702949350505050565b60006139cf826040518060400160405280602081526020017f5361666545524332303a206c6f772d6c6576656c2063616c6c206661696c6564815250856001600160a01b0316613ba09092919063ffffffff16565b805190915015612efb57808060200190518101906139ed9190613e64565b612efb5760405162461bcd60e51b815260206004820152602a60248201527f5361666545524332303a204552433230206f7065726174696f6e20646964206e6044820152691bdd081cdd58d8d9595960b21b6064820152608401610722565b6000826001600160a01b0316846001600160a01b03161115613a6c579192915b6001600160a01b038416613aac600160601b600160e01b03606085901b16613a9487876143a3565b6001600160a01b0316866001600160a01b03166138cb565b6133619190614370565b6000826001600160a01b0316846001600160a01b03161115613ad6579192915b6133616001600160801b038316613aed86866143a3565b6001600160a01b0316600160601b6138cb565b6000826001600160a01b0316846001600160a01b03161115613b20579192915b6000613b43856001600160a01b0316856001600160a01b0316600160601b6138cb565b9050612f4e613b658483613b5789896143a3565b6001600160a01b03166138cb565b613baf565b6000826001600160a01b0316846001600160a01b03161115613b8a579192915b613361613b6583600160601b613b5788886143a3565b60606133618484600085613bca565b806001600160801b0381168114613bc557600080fd5b919050565b606082471015613c2b5760405162461bcd60e51b815260206004820152602660248201527f416464726573733a20696e73756666696369656e742062616c616e636520666f6044820152651c8818d85b1b60d21b6064820152608401610722565b843b613c795760405162461bcd60e51b815260206004820152601d60248201527f416464726573733a2063616c6c20746f206e6f6e2d636f6e74726163740000006044820152606401610722565b600080866001600160a01b03168587604051613c9591906141bc565b60006040518083038185875af1925050503d8060008114613cd2576040519150601f19603f3d011682016040523d82523d6000602084013e613cd7565b606091505b5091509150613ce7828286613cf2565b979650505050505050565b60608315613d015750816108c8565b825115613d115782518084602001fd5b8160405162461bcd60e51b8152600401610722919061423c565b8051613bc5816144f7565b60008083601f840112613d47578182fd5b5081356001600160401b03811115613d5d578182fd5b602083019150836020828501011115613d7557600080fd5b9250929050565b80516001600160801b0381168114613bc557600080fd5b805161ffff81168114613bc557600080fd5b600060208284031215613db6578081fd5b81356108c8816144df565b60008060408385031215613dd3578081fd5b8235613dde816144df565b91506020830135613dee816144df565b809150509250929050565b600080600060608486031215613e0d578081fd5b8335613e18816144df565b92506020840135613e28816144df565b929592945050506040919091013590565b60008060408385031215613e4b578182fd5b8235613e56816144df565b946020939093013593505050565b600060208284031215613e75578081fd5b81516108c8816144f7565b600080600060608486031215613e94578283fd5b8335613e9f816144f7565b9250602084013591506040840135613eb6816144df565b809150509250925092565b60008060408385031215613ed3578182fd5b82358060010b8114613dde578283fd5b60008060008060808587031215613ef8578081fd5b8435613f0381614505565b93506020850135613f1381614505565b93969395505050506040820135916060013590565b60008060408385031215613f3a578182fd5b505080516020909101519092909150565b60008060008060608587031215613f60578182fd5b843593506020850135925060408501356001600160401b03811115613f83578283fd5b613f8f87828801613d36565b95989497509550505050565b600080600080600080600080610100898b031215613fb7578586fd5b613fc089613d7c565b9750602089015180600f0b8114613fd5578687fd5b80975050604089015195506060890151945060808901518060060b8114613ffa578485fd5b60a08a015190945061400b816144df565b60c08a015190935063ffffffff81168114614024578283fd5b915061403260e08a01613d2b565b90509295985092959890939650565b60008060408385031215614053578182fd5b61405c83613d7c565b915061406a60208401613d7c565b90509250929050565b600080600080600060a0868803121561408a578283fd5b61409386613d7c565b945060208601519350604086015192506140af60608701613d7c565b91506140bd60808701613d7c565b90509295509295909350565b600080600080600080600060e0888a0312156140e3578081fd5b87516140ee816144df565b60208901519097506140ff81614505565b955061410d60408901613d93565b945061411b60608901613d93565b935061412960808901613d93565b925060a088015160ff8116811461413e578182fd5b60c089015190925061414f816144f7565b8091505092959891949750929550565b600060208284031215614170578081fd5b5051919050565b60008060408385031215614189578182fd5b823591506020830135613dee816144df565b600080604083850312156141ad578182fd5b50508035926020909101359150565b600082516141ce8184602087016143e2565b9190910192915050565b6001600160a01b0391909116815260200190565b6001600160a01b03949094168452600292830b6020850152910b60408301526001600160801b0316606082015260a06080820181905260009082015260c00190565b60029190910b815260200190565b602081526000825180602084015261425b8160408501602087016143e2565b601f01601f19169190910160400192915050565b60208082526022908201527f4f776e61626c653a2063616c6c6572206973206e6f7420746865206d616e616760408201526132b960f11b606082015260800190565b6020808252601f908201527f5265656e7472616e637947756172643a207265656e7472616e742063616c6c00604082015260600190565b6001600160801b03959095168552600293840b60208601529190920b60408401526060830191909152608082015260a00190565b9283526020830191909152604082015260600190565b600061ffff80831681851680830382111561434f5761434f6144b3565b01949350505050565b6000821982111561436b5761436b6144b3565b500190565b60008261437f5761437f6144c9565b500490565b600081600019048311821515161561439e5761439e6144b3565b500290565b60006001600160a01b03838116908316818110156143c3576143c36144b3565b039392505050565b6000828210156143dd576143dd6144b3565b500390565b60005b838110156143fd5781810151838201526020016143e5565b838111156116af5750506000910152565b600181811c9082168061442257607f821691505b6020821081141561444357634e487b7160e01b600052602260045260246000fd5b50919050565b600060001982141561445d5761445d6144b3565b5060010190565b600082614473576144736144c9565b500690565b60008160020b627fffff19811415614492576144926144b3565b9003919050565b6000600160ff1b8214156144af576144af6144b3565b0390565b634e487b7160e01b600052601160045260246000fd5b634e487b7160e01b600052601260045260246000fd5b6001600160a01b03811681146144f457600080fd5b50565b80151581146144f457600080fd5b8060020b81146144f457600080fdfe8be0079c531659141344cd1fd0a4f28419497f9722a3daafe3b4186f6b6457e0ddf252ad1be2c89b69c2b068fc378daa952ba7f163c4a11628f55a4df523b3efd9279952b347fd14af9b788aff1029c0d3b1299b7dcce164fc602a1b958c4880c28ad1de9c0c32e5394ba60323e44d8d9536312236a47231772e448a3e49de42a26469706673582212204d4da4ad929efcb6eacb10bc3da808b387a84d3922b23b710115868f2bd7351864736f6c634300080400338be0079c531659141344cd1fd0a4f28419497f9722a3daafe3b4186f6b6457e0a2646970667358221220feff627accad52f8b8bf744ca93b9f266bfbc975e90374b8d6c1d5c58b18fa1464736f6c63430008040033",
  "linkReferences": {},
  "deployedLinkReferences": {}
}