{
  "_format": "hh-sol-artifact-1",
  "contractName": "RangeProtocolVault",
  "sourceName": "contracts/RangeProtocolVault.sol",
  "abi": [
    {
      "inputs": [],
      "stateMutability": "nonpayable",
      "type": "constructor"
    },
    {
      "inputs": [],
      "name": "InvalidBurnAmount",
      "type": "error"
    },
    {
      "inputs": [],
      "name": "InvalidManagingFee",
      "type": "error"
    },
    {
      "inputs": [],
      "name": "InvalidMintAmount",
      "type": "error"
    },
    {
      "inputs": [],
      "name": "InvalidPerformanceFee",
      "type": "error"
    },
    {
      "inputs": [],
      "name": "InvalidTicksSpacing",
      "type": "error"
    },
    {
      "inputs": [],
      "name": "LiquidityAlreadyAdded",
      "type": "error"
    },
    {
      "inputs": [],
      "name": "MintNotAllowed",
      "type": "error"
    },
    {
      "inputs": [],
      "name": "MintNotStarted",
      "type": "error"
    },
    {
      "inputs": [],
      "name": "NotAllowedToUpdateTicks",
      "type": "error"
    },
    {
      "inputs": [],
      "name": "OnlyFactoryAllowed",
      "type": "error"
    },
    {
      "inputs": [],
      "name": "OnlyPoolAllowed",
      "type": "error"
    },
    {
      "inputs": [],
      "name": "TicksOutOfRange",
      "type": "error"
    },
    {
      "inputs": [],
      "name": "ZeroManagerAddress",
      "type": "error"
    },
    {
      "inputs": [],
      "name": "ZeroMintAmount",
      "type": "error"
    },
    {
      "inputs": [],
      "name": "ZeroUnderlyingBalance",
      "type": "error"
    },
    {
      "anonymous": false,
      "inputs": [
        {
          "indexed": false,
          "internalType": "address",
          "name": "previousAdmin",
          "type": "address"
        },
        {
          "indexed": false,
          "internalType": "address",
          "name": "newAdmin",
          "type": "address"
        }
      ],
      "name": "AdminChanged",
      "type": "event"
    },
    {
      "anonymous": false,
      "inputs": [
        {
          "indexed": true,
          "internalType": "address",
          "name": "owner",
          "type": "address"
        },
        {
          "indexed": true,
          "internalType": "address",
          "name": "spender",
          "type": "address"
        },
        {
          "indexed": false,
          "internalType": "uint256",
          "name": "value",
          "type": "uint256"
        }
      ],
      "name": "Approval",
      "type": "event"
    },
    {
      "anonymous": false,
      "inputs": [
        {
          "indexed": true,
          "internalType": "address",
          "name": "beacon",
          "type": "address"
        }
      ],
      "name": "BeaconUpgraded",
      "type": "event"
    },
    {
      "anonymous": false,
      "inputs": [
        {
          "indexed": true,
          "internalType": "address",
          "name": "receiver",
          "type": "address"
        },
        {
          "indexed": false,
          "internalType": "uint256",
          "name": "burnAmount",
          "type": "uint256"
        },
        {
          "indexed": false,
          "internalType": "uint256",
          "name": "amount0Out",
          "type": "uint256"
        },
        {
          "indexed": false,
          "internalType": "uint256",
          "name": "amount1Out",
          "type": "uint256"
        }
      ],
      "name": "Burned",
      "type": "event"
    },
    {
      "anonymous": false,
      "inputs": [
        {
          "indexed": false,
          "internalType": "uint256",
          "name": "feesEarned0",
          "type": "uint256"
        },
        {
          "indexed": false,
          "internalType": "uint256",
          "name": "feesEarned1",
          "type": "uint256"
        }
      ],
      "name": "FeesEarned",
      "type": "event"
    },
    {
      "anonymous": false,
      "inputs": [
        {
          "indexed": false,
          "internalType": "uint16",
          "name": "managingFee",
          "type": "uint16"
        },
        {
          "indexed": false,
          "internalType": "uint16",
          "name": "performanceFee",
          "type": "uint16"
        }
      ],
      "name": "FeesUpdated",
      "type": "event"
    },
    {
      "anonymous": false,
      "inputs": [
        {
          "indexed": false,
          "internalType": "bool",
          "name": "inThePosition",
          "type": "bool"
        }
      ],
      "name": "InThePositionStatusSet",
      "type": "event"
    },
    {
      "anonymous": false,
      "inputs": [
        {
          "indexed": false,
          "internalType": "uint8",
          "name": "version",
          "type": "uint8"
        }
      ],
      "name": "Initialized",
      "type": "event"
    },
    {
      "anonymous": false,
      "inputs": [
        {
          "indexed": false,
          "internalType": "uint256",
          "name": "liquidityMinted",
          "type": "uint256"
        },
        {
          "indexed": false,
          "internalType": "int24",
          "name": "tickBottom",
          "type": "int24"
        },
        {
          "indexed": false,
          "internalType": "int24",
          "name": "tickTop",
          "type": "int24"
        },
        {
          "indexed": false,
          "internalType": "uint256",
          "name": "amount0In",
          "type": "uint256"
        },
        {
          "indexed": false,
          "internalType": "uint256",
          "name": "amount1In",
          "type": "uint256"
        }
      ],
      "name": "LiquidityAdded",
      "type": "event"
    },
    {
      "anonymous": false,
      "inputs": [
        {
          "indexed": false,
          "internalType": "uint256",
          "name": "liquidityRemoved",
          "type": "uint256"
        },
        {
          "indexed": false,
          "internalType": "int24",
          "name": "tickBottom",
          "type": "int24"
        },
        {
          "indexed": false,
          "internalType": "int24",
          "name": "tickTop",
          "type": "int24"
        },
        {
          "indexed": false,
          "internalType": "uint256",
          "name": "amount0Out",
          "type": "uint256"
        },
        {
          "indexed": false,
          "internalType": "uint256",
          "name": "amount1Out",
          "type": "uint256"
        }
      ],
      "name": "LiquidityRemoved",
      "type": "event"
    },
    {
      "anonymous": false,
      "inputs": [],
      "name": "MintStarted",
      "type": "event"
    },
    {
      "anonymous": false,
      "inputs": [
        {
          "indexed": true,
          "internalType": "address",
          "name": "receiver",
          "type": "address"
        },
        {
          "indexed": false,
          "internalType": "uint256",
          "name": "mintAmount",
          "type": "uint256"
        },
        {
          "indexed": false,
          "internalType": "uint256",
          "name": "amount0In",
          "type": "uint256"
        },
        {
          "indexed": false,
          "internalType": "uint256",
          "name": "amount1In",
          "type": "uint256"
        }
      ],
      "name": "Minted",
      "type": "event"
    },
    {
      "anonymous": false,
      "inputs": [
        {
          "indexed": true,
          "internalType": "address",
          "name": "previousManager",
          "type": "address"
        },
        {
          "indexed": true,
          "internalType": "address",
          "name": "newManager",
          "type": "address"
        }
      ],
      "name": "OwnershipTransferred",
      "type": "event"
    },
    {
      "anonymous": false,
      "inputs": [
        {
          "indexed": false,
          "internalType": "address",
          "name": "account",
          "type": "address"
        }
      ],
      "name": "Paused",
      "type": "event"
    },
    {
      "anonymous": false,
      "inputs": [
        {
          "indexed": false,
          "internalType": "bool",
          "name": "zeroForOne",
          "type": "bool"
        },
        {
          "indexed": false,
          "internalType": "int256",
          "name": "amount0",
          "type": "int256"
        },
        {
          "indexed": false,
          "internalType": "int256",
          "name": "amount1",
          "type": "int256"
        }
      ],
      "name": "Swapped",
      "type": "event"
    },
    {
      "anonymous": false,
      "inputs": [
        {
          "indexed": false,
          "internalType": "int24",
          "name": "bottomTick",
          "type": "int24"
        },
        {
          "indexed": false,
          "internalType": "int24",
          "name": "topTick",
          "type": "int24"
        }
      ],
      "name": "TicksSet",
      "type": "event"
    },
    {
      "anonymous": false,
      "inputs": [
        {
          "indexed": true,
          "internalType": "address",
          "name": "from",
          "type": "address"
        },
        {
          "indexed": true,
          "internalType": "address",
          "name": "to",
          "type": "address"
        },
        {
          "indexed": false,
          "internalType": "uint256",
          "name": "value",
          "type": "uint256"
        }
      ],
      "name": "Transfer",
      "type": "event"
    },
    {
      "anonymous": false,
      "inputs": [
        {
          "indexed": false,
          "internalType": "address",
          "name": "account",
          "type": "address"
        }
      ],
      "name": "Unpaused",
      "type": "event"
    },
    {
      "anonymous": false,
      "inputs": [
        {
          "indexed": true,
          "internalType": "address",
          "name": "implementation",
          "type": "address"
        }
      ],
      "name": "Upgraded",
      "type": "event"
    },
    {
      "inputs": [
        {
          "internalType": "int24",
          "name": "newBottomTick",
          "type": "int24"
        },
        {
          "internalType": "int24",
          "name": "newTopTick",
          "type": "int24"
        },
        {
          "internalType": "uint256",
          "name": "amount0",
          "type": "uint256"
        },
        {
          "internalType": "uint256",
          "name": "amount1",
          "type": "uint256"
        }
      ],
      "name": "addLiquidity",
      "outputs": [
        {
          "internalType": "uint256",
          "name": "remainingAmount0",
          "type": "uint256"
        },
        {
          "internalType": "uint256",
          "name": "remainingAmount1",
          "type": "uint256"
        }
      ],
      "stateMutability": "nonpayable",
      "type": "function"
    },
    {
      "inputs": [
        {
          "internalType": "uint256",
          "name": "amount0Owed",
          "type": "uint256"
        },
        {
          "internalType": "uint256",
          "name": "amount1Owed",
          "type": "uint256"
        },
        {
          "internalType": "bytes",
          "name": "",
          "type": "bytes"
        }
      ],
      "name": "algebraMintCallback",
      "outputs": [],
      "stateMutability": "nonpayable",
      "type": "function"
    },
    {
      "inputs": [
        {
          "internalType": "int256",
          "name": "amount0Delta",
          "type": "int256"
        },
        {
          "internalType": "int256",
          "name": "amount1Delta",
          "type": "int256"
        },
        {
          "internalType": "bytes",
          "name": "",
          "type": "bytes"
        }
      ],
      "name": "algebraSwapCallback",
      "outputs": [],
      "stateMutability": "nonpayable",
      "type": "function"
    },
    {
      "inputs": [
        {
          "internalType": "address",
          "name": "owner",
          "type": "address"
        },
        {
          "internalType": "address",
          "name": "spender",
          "type": "address"
        }
      ],
      "name": "allowance",
      "outputs": [
        {
          "internalType": "uint256",
          "name": "",
          "type": "uint256"
        }
      ],
      "stateMutability": "view",
      "type": "function"
    },
    {
      "inputs": [
        {
          "internalType": "address",
          "name": "spender",
          "type": "address"
        },
        {
          "internalType": "uint256",
          "name": "amount",
          "type": "uint256"
        }
      ],
      "name": "approve",
      "outputs": [
        {
          "internalType": "bool",
          "name": "",
          "type": "bool"
        }
      ],
      "stateMutability": "nonpayable",
      "type": "function"
    },
    {
      "inputs": [
        {
          "internalType": "address",
          "name": "account",
          "type": "address"
        }
      ],
      "name": "balanceOf",
      "outputs": [
        {
          "internalType": "uint256",
          "name": "",
          "type": "uint256"
        }
      ],
      "stateMutability": "view",
      "type": "function"
    },
    {
      "inputs": [],
      "name": "bottomTick",
      "outputs": [
        {
          "internalType": "int24",
          "name": "",
          "type": "int24"
        }
      ],
      "stateMutability": "view",
      "type": "function"
    },
    {
      "inputs": [
        {
          "internalType": "uint256",
          "name": "burnAmount",
          "type": "uint256"
        }
      ],
      "name": "burn",
      "outputs": [
        {
          "internalType": "uint256",
          "name": "amount0",
          "type": "uint256"
        },
        {
          "internalType": "uint256",
          "name": "amount1",
          "type": "uint256"
        }
      ],
      "stateMutability": "nonpayable",
      "type": "function"
    },
    {
      "inputs": [],
      "name": "collectManager",
      "outputs": [],
      "stateMutability": "nonpayable",
      "type": "function"
    },
    {
      "inputs": [],
      "name": "decimals",
      "outputs": [
        {
          "internalType": "uint8",
          "name": "",
          "type": "uint8"
        }
      ],
      "stateMutability": "view",
      "type": "function"
    },
    {
      "inputs": [
        {
          "internalType": "address",
          "name": "spender",
          "type": "address"
        },
        {
          "internalType": "uint256",
          "name": "subtractedValue",
          "type": "uint256"
        }
      ],
      "name": "decreaseAllowance",
      "outputs": [
        {
          "internalType": "bool",
          "name": "",
          "type": "bool"
        }
      ],
      "stateMutability": "nonpayable",
      "type": "function"
    },
    {
      "inputs": [],
      "name": "factory",
      "outputs": [
        {
          "internalType": "address",
          "name": "",
          "type": "address"
        }
      ],
      "stateMutability": "view",
      "type": "function"
    },
    {
      "inputs": [],
      "name": "getCurrentFees",
      "outputs": [
        {
          "internalType": "uint256",
          "name": "fee0",
          "type": "uint256"
        },
        {
          "internalType": "uint256",
          "name": "fee1",
          "type": "uint256"
        }
      ],
      "stateMutability": "view",
      "type": "function"
    },
    {
      "inputs": [
        {
          "internalType": "uint256",
          "name": "amount0Max",
          "type": "uint256"
        },
        {
          "internalType": "uint256",
          "name": "amount1Max",
          "type": "uint256"
        }
      ],
      "name": "getMintAmounts",
      "outputs": [
        {
          "internalType": "uint256",
          "name": "amount0",
          "type": "uint256"
        },
        {
          "internalType": "uint256",
          "name": "amount1",
          "type": "uint256"
        },
        {
          "internalType": "uint256",
          "name": "mintAmount",
          "type": "uint256"
        }
      ],
      "stateMutability": "view",
      "type": "function"
    },
    {
      "inputs": [],
      "name": "getPositionID",
      "outputs": [
        {
          "internalType": "bytes32",
          "name": "positionID",
          "type": "bytes32"
        }
      ],
      "stateMutability": "view",
      "type": "function"
    },
    {
      "inputs": [],
      "name": "getUnderlyingBalances",
      "outputs": [
        {
          "internalType": "uint256",
          "name": "amount0Current",
          "type": "uint256"
        },
        {
          "internalType": "uint256",
          "name": "amount1Current",
          "type": "uint256"
        }
      ],
      "stateMutability": "view",
      "type": "function"
    },
    {
      "inputs": [
        {
          "internalType": "uint160",
          "name": "sqrtRatioX96",
          "type": "uint160"
        }
      ],
      "name": "getUnderlyingBalancesAtPrice",
      "outputs": [
        {
          "internalType": "uint256",
          "name": "amount0Current",
          "type": "uint256"
        },
        {
          "internalType": "uint256",
          "name": "amount1Current",
          "type": "uint256"
        }
      ],
      "stateMutability": "view",
      "type": "function"
    },
    {
      "inputs": [
        {
          "internalType": "uint256",
          "name": "shares",
          "type": "uint256"
        }
      ],
      "name": "getUnderlyingBalancesByShare",
      "outputs": [
        {
          "internalType": "uint256",
          "name": "amount0",
          "type": "uint256"
        },
        {
          "internalType": "uint256",
          "name": "amount1",
          "type": "uint256"
        }
      ],
      "stateMutability": "view",
      "type": "function"
    },
    {
      "inputs": [
        {
          "internalType": "uint256",
          "name": "fromIdx",
          "type": "uint256"
        },
        {
          "internalType": "uint256",
          "name": "toIdx",
          "type": "uint256"
        }
      ],
      "name": "getUserVaults",
      "outputs": [
        {
          "components": [
            {
              "internalType": "address",
              "name": "user",
              "type": "address"
            },
            {
              "internalType": "uint256",
              "name": "token0",
              "type": "uint256"
            },
            {
              "internalType": "uint256",
              "name": "token1",
              "type": "uint256"
            }
          ],
          "internalType": "struct IRangeProtocolVault.UserVaultInfo[]",
          "name": "",
          "type": "tuple[]"
        }
      ],
      "stateMutability": "view",
      "type": "function"
    },
    {
      "inputs": [],
      "name": "inThePosition",
      "outputs": [
        {
          "internalType": "bool",
          "name": "",
          "type": "bool"
        }
      ],
      "stateMutability": "view",
      "type": "function"
    },
    {
      "inputs": [
        {
          "internalType": "address",
          "name": "spender",
          "type": "address"
        },
        {
          "internalType": "uint256",
          "name": "addedValue",
          "type": "uint256"
        }
      ],
      "name": "increaseAllowance",
      "outputs": [
        {
          "internalType": "bool",
          "name": "",
          "type": "bool"
        }
      ],
      "stateMutability": "nonpayable",
      "type": "function"
    },
    {
      "inputs": [
        {
          "internalType": "address",
          "name": "_pool",
          "type": "address"
        },
        {
          "internalType": "int24",
          "name": "_tickSpacing",
          "type": "int24"
        },
        {
          "internalType": "bytes",
          "name": "data",
          "type": "bytes"
        }
      ],
      "name": "initialize",
      "outputs": [],
      "stateMutability": "nonpayable",
      "type": "function"
    },
    {
      "inputs": [],
      "name": "manager",
      "outputs": [
        {
          "internalType": "address",
          "name": "",
          "type": "address"
        }
      ],
      "stateMutability": "view",
      "type": "function"
    },
    {
      "inputs": [],
      "name": "managerBalance0",
      "outputs": [
        {
          "internalType": "uint256",
          "name": "",
          "type": "uint256"
        }
      ],
      "stateMutability": "view",
      "type": "function"
    },
    {
      "inputs": [],
      "name": "managerBalance1",
      "outputs": [
        {
          "internalType": "uint256",
          "name": "",
          "type": "uint256"
        }
      ],
      "stateMutability": "view",
      "type": "function"
    },
    {
      "inputs": [],
      "name": "managingFee",
      "outputs": [
        {
          "internalType": "uint16",
          "name": "",
          "type": "uint16"
        }
      ],
      "stateMutability": "view",
      "type": "function"
    },
    {
      "inputs": [
        {
          "internalType": "uint256",
          "name": "mintAmount",
          "type": "uint256"
        }
      ],
      "name": "mint",
      "outputs": [
        {
          "internalType": "uint256",
          "name": "amount0",
          "type": "uint256"
        },
        {
          "internalType": "uint256",
          "name": "amount1",
          "type": "uint256"
        }
      ],
      "stateMutability": "nonpayable",
      "type": "function"
    },
    {
      "inputs": [],
      "name": "mintStarted",
      "outputs": [
        {
          "internalType": "bool",
          "name": "",
          "type": "bool"
        }
      ],
      "stateMutability": "view",
      "type": "function"
    },
    {
      "inputs": [],
      "name": "name",
      "outputs": [
        {
          "internalType": "string",
          "name": "",
          "type": "string"
        }
      ],
      "stateMutability": "view",
      "type": "function"
    },
    {
      "inputs": [],
      "name": "pause",
      "outputs": [],
      "stateMutability": "nonpayable",
      "type": "function"
    },
    {
      "inputs": [],
      "name": "paused",
      "outputs": [
        {
          "internalType": "bool",
          "name": "",
          "type": "bool"
        }
      ],
      "stateMutability": "view",
      "type": "function"
    },
    {
      "inputs": [],
      "name": "performanceFee",
      "outputs": [
        {
          "internalType": "uint16",
          "name": "",
          "type": "uint16"
        }
      ],
      "stateMutability": "view",
      "type": "function"
    },
    {
      "inputs": [],
      "name": "pool",
      "outputs": [
        {
          "internalType": "contract IAlgebraPool",
          "name": "",
          "type": "address"
        }
      ],
      "stateMutability": "view",
      "type": "function"
    },
    {
      "inputs": [],
      "name": "proxiableUUID",
      "outputs": [
        {
          "internalType": "bytes32",
          "name": "",
          "type": "bytes32"
        }
      ],
      "stateMutability": "view",
      "type": "function"
    },
    {
      "inputs": [],
      "name": "pullFeeFromPool",
      "outputs": [],
      "stateMutability": "nonpayable",
      "type": "function"
    },
    {
      "inputs": [],
      "name": "removeLiquidity",
      "outputs": [],
      "stateMutability": "nonpayable",
      "type": "function"
    },
    {
      "inputs": [],
      "name": "renounceOwnership",
      "outputs": [],
      "stateMutability": "nonpayable",
      "type": "function"
    },
    {
      "inputs": [
        {
          "internalType": "bool",
          "name": "zeroForOne",
          "type": "bool"
        },
        {
          "internalType": "int256",
          "name": "swapAmount",
          "type": "int256"
        },
        {
          "internalType": "uint160",
          "name": "sqrtPriceLimitX96",
          "type": "uint160"
        }
      ],
      "name": "swap",
      "outputs": [
        {
          "internalType": "int256",
          "name": "amount0",
          "type": "int256"
        },
        {
          "internalType": "int256",
          "name": "amount1",
          "type": "int256"
        }
      ],
      "stateMutability": "nonpayable",
      "type": "function"
    },
    {
      "inputs": [],
      "name": "symbol",
      "outputs": [
        {
          "internalType": "string",
          "name": "",
          "type": "string"
        }
      ],
      "stateMutability": "view",
      "type": "function"
    },
    {
      "inputs": [],
      "name": "tickSpacing",
      "outputs": [
        {
          "internalType": "int24",
          "name": "",
          "type": "int24"
        }
      ],
      "stateMutability": "view",
      "type": "function"
    },
    {
      "inputs": [],
      "name": "token0",
      "outputs": [
        {
          "internalType": "contract IERC20Upgradeable",
          "name": "",
          "type": "address"
        }
      ],
      "stateMutability": "view",
      "type": "function"
    },
    {
      "inputs": [],
      "name": "token1",
      "outputs": [
        {
          "internalType": "contract IERC20Upgradeable",
          "name": "",
          "type": "address"
        }
      ],
      "stateMutability": "view",
      "type": "function"
    },
    {
      "inputs": [],
      "name": "topTick",
      "outputs": [
        {
          "internalType": "int24",
          "name": "",
          "type": "int24"
        }
      ],
      "stateMutability": "view",
      "type": "function"
    },
    {
      "inputs": [],
      "name": "totalSupply",
      "outputs": [
        {
          "internalType": "uint256",
          "name": "",
          "type": "uint256"
        }
      ],
      "stateMutability": "view",
      "type": "function"
    },
    {
      "inputs": [
        {
          "internalType": "address",
          "name": "to",
          "type": "address"
        },
        {
          "internalType": "uint256",
          "name": "amount",
          "type": "uint256"
        }
      ],
      "name": "transfer",
      "outputs": [
        {
          "internalType": "bool",
          "name": "",
          "type": "bool"
        }
      ],
      "stateMutability": "nonpayable",
      "type": "function"
    },
    {
      "inputs": [
        {
          "internalType": "address",
          "name": "from",
          "type": "address"
        },
        {
          "internalType": "address",
          "name": "to",
          "type": "address"
        },
        {
          "internalType": "uint256",
          "name": "amount",
          "type": "uint256"
        }
      ],
      "name": "transferFrom",
      "outputs": [
        {
          "internalType": "bool",
          "name": "",
          "type": "bool"
        }
      ],
      "stateMutability": "nonpayable",
      "type": "function"
    },
    {
      "inputs": [
        {
          "internalType": "address",
          "name": "newManager",
          "type": "address"
        }
      ],
      "name": "transferOwnership",
      "outputs": [],
      "stateMutability": "nonpayable",
      "type": "function"
    },
    {
      "inputs": [],
      "name": "unpause",
      "outputs": [],
      "stateMutability": "nonpayable",
      "type": "function"
    },
    {
      "inputs": [
        {
          "internalType": "uint16",
          "name": "newManagingFee",
          "type": "uint16"
        },
        {
          "internalType": "uint16",
          "name": "newPerformanceFee",
          "type": "uint16"
        }
      ],
      "name": "updateFees",
      "outputs": [],
      "stateMutability": "nonpayable",
      "type": "function"
    },
    {
      "inputs": [
        {
          "internalType": "int24",
          "name": "_bottomTick",
          "type": "int24"
        },
        {
          "internalType": "int24",
          "name": "_topTick",
          "type": "int24"
        }
      ],
      "name": "updateTicks",
      "outputs": [],
      "stateMutability": "nonpayable",
      "type": "function"
    },
    {
      "inputs": [
        {
          "internalType": "address",
          "name": "newImplementation",
          "type": "address"
        }
      ],
      "name": "upgradeTo",
      "outputs": [],
      "stateMutability": "nonpayable",
      "type": "function"
    },
    {
      "inputs": [
        {
          "internalType": "address",
          "name": "newImplementation",
          "type": "address"
        },
        {
          "internalType": "bytes",
          "name": "data",
          "type": "bytes"
        }
      ],
      "name": "upgradeToAndCall",
      "outputs": [],
      "stateMutability": "payable",
      "type": "function"
    },
    {
      "inputs": [],
      "name": "userCount",
      "outputs": [
        {
          "internalType": "uint256",
          "name": "",
          "type": "uint256"
        }
      ],
      "stateMutability": "view",
      "type": "function"
    },
    {
      "inputs": [
        {
          "internalType": "address",
          "name": "",
          "type": "address"
        }
      ],
      "name": "userVaults",
      "outputs": [
        {
          "internalType": "bool",
          "name": "exists",
          "type": "bool"
        },
        {
          "internalType": "uint256",
          "name": "token0",
          "type": "uint256"
        },
        {
          "internalType": "uint256",
          "name": "token1",
          "type": "uint256"
        }
      ],
      "stateMutability": "view",
      "type": "function"
    },
    {
      "inputs": [
        {
          "internalType": "uint256",
          "name": "",
          "type": "uint256"
        }
      ],
      "name": "users",
      "outputs": [
        {
          "internalType": "address",
          "name": "",
          "type": "address"
        }
      ],
      "stateMutability": "view",
      "type": "function"
    }
  ],
  "bytecode": "0x60a06040523060601b6080523480156200001857600080fd5b506200002362000029565b620000eb565b600054610100900460ff1615620000965760405162461bcd60e51b815260206004820152602760248201527f496e697469616c697a61626c653a20636f6e747261637420697320696e697469604482015266616c697a696e6760c81b606482015260840160405180910390fd5b60005460ff9081161015620000e9576000805460ff191660ff9081179091556040519081527f7f26b83ff96e1f2b6a682f133852f6798a09c465da95921460cefb38474024989060200160405180910390a15b565b60805160601c615f746200012660003960008181610cff01528181610d480152818161164d0152818161168d01526117a60152615f746000f3fe6080604052600436106102e05760003560e01c80635c975abb11610186578063a9059cbb116100d7578063d7e458b511610085578063d7e458b51461092a578063dd62ed3e1461093f578063df28408a1461095f578063f173c7f514610974578063f2fde38b14610994578063f3d2350e146109b4578063fd87f9aa146109d457600080fd5b8063a9059cbb14610837578063a9722cf314610857578063b670ed7d14610879578063c45a015514610899578063c653089f146108ba578063d0c93a7c146108e7578063d21220a71461090957600080fd5b80638456cb59116101345780638456cb591461075a578063877887821461076f5780639403c1ae1461079257806395d89b41146107a75780639894f21a146107bc578063a0712d68146107f7578063a457c2d71461081757600080fd5b80635c975abb1461068a578063601b48a4146106a357806367524847146106d957806367b9a286146106fb57806370a0823114610710578063715018a61461073057806371908a031461074557600080fd5b8063313ce567116102405780634043f5ca116101ee5780634043f5ca146105cb57806342966c68146105ed57806342fb9d441461060d578063481c6a75146106245780634f1ef286146106425780634fa62c5f1461065557806352d1902d1461067557600080fd5b8063313ce567146104fa5780633659cfe614610516578063365b98b21461053657806339509351146105565780633d048c27146105765780633dd657c5146105965780633f4ba83a146105b657600080fd5b80631322d9541161029d5780631322d954146103d357806316f0115b146103fd57806318160ddd14610425578063195cd92c1461043a57806323b872dd1461045a5780632958d0311461047a5780632c8958f6146104d857600080fd5b806301913182146102e5578063065756db1461031857806306fdde031461033d57806307973ccf1461035f578063095ea7b3146103755780630dfe1681146103a5575b600080fd5b3480156102f157600080fd5b5061015f546103009060020b81565b60405160029190910b81526020015b60405180910390f35b34801561032457600080fd5b5061032f6101635481565b60405190815260200161030f565b34801561034957600080fd5b506103526109f4565b60405161030f9190615af5565b34801561036b57600080fd5b506101665461032f565b34801561038157600080fd5b5061039561039036600461562d565b610a86565b604051901515815260200161030f565b3480156103b157600080fd5b50610160546103c6906001600160a01b031681565b60405161030f9190615a25565b3480156103df57600080fd5b506103e8610a9e565b6040805192835260208301919091520161030f565b34801561040957600080fd5b5061015f546103c690600160581b90046001600160a01b031681565b34801561043157600080fd5b5060fd5461032f565b34801561044657600080fd5b506103e8610455366004615674565b610b4a565b34801561046657600080fd5b5061039561047536600461554b565b610c4f565b34801561048657600080fd5b506104bb610495366004615468565b6101656020526000908152604090208054600182015460029092015460ff909116919083565b60408051931515845260208401929092529082015260600161030f565b3480156104e457600080fd5b506104f86104f3366004615762565b610c75565b005b34801561050657600080fd5b506040516012815260200161030f565b34801561052257600080fd5b506104f8610531366004615468565b610cf4565b34801561054257600080fd5b506103c661055136600461599c565b610dc6565b34801561056257600080fd5b5061039561057136600461562d565b610df1565b34801561058257600080fd5b506104f86105913660046155d8565b610e13565b3480156105a257600080fd5b506104f86105b1366004615762565b611140565b3480156105c257600080fd5b506104f86111ae565b3480156105d757600080fd5b5061015f5461039590600160301b900460ff1681565b3480156105f957600080fd5b506103e861060836600461599c565b6111c0565b34801561061957600080fd5b5061032f6101645481565b34801561063057600080fd5b5060c9546001600160a01b03166103c6565b6104f861065036600461558b565b611642565b34801561066157600080fd5b506104f86106703660046156cd565b6116fc565b34801561068157600080fd5b5061032f611799565b34801561069657600080fd5b5061012d5460ff16610395565b3480156106af57600080fd5b50610162546106c690600160a01b900461ffff1681565b60405161ffff909116815260200161030f565b3480156106e557600080fd5b5061015f54610300906301000000900460020b81565b34801561070757600080fd5b506104f8611847565b34801561071c57600080fd5b5061032f61072b366004615468565b6119f6565b34801561073c57600080fd5b506104f8611a11565b34801561075157600080fd5b506103e8611a23565b34801561076657600080fd5b506104f8611bc6565b34801561077b57600080fd5b50610162546106c690600160b01b900461ffff1681565b34801561079e57600080fd5b506104f8611bd6565b3480156107b357600080fd5b50610352611c50565b3480156107c857600080fd5b506107dc6107d73660046159b4565b611c5f565b6040805193845260208401929092529082015260600161030f565b34801561080357600080fd5b506103e861081236600461599c565b611ded565b34801561082357600080fd5b5061039561083236600461562d565b6121de565b34801561084357600080fd5b5061039561085236600461562d565b612264565b34801561086357600080fd5b5061015f5461039590600160381b900460ff1681565b34801561088557600080fd5b506103e8610894366004615468565b612272565b3480156108a557600080fd5b50610162546103c6906001600160a01b031681565b3480156108c657600080fd5b506108da6108d53660046159b4565b61231c565b60405161030f9190615a85565b3480156108f357600080fd5b5061015f5461030090600160401b900460020b81565b34801561091557600080fd5b50610161546103c6906001600160a01b031681565b34801561093657600080fd5b506104f86124f9565b34801561094b57600080fd5b5061032f61095a366004615513565b612509565b34801561096b57600080fd5b5061032f612534565b34801561098057600080fd5b506103e861098f36600461599c565b61255f565b3480156109a057600080fd5b506104f86109af366004615468565b6125cb565b3480156109c057600080fd5b506104f86109cf36600461596f565b612643565b3480156109e057600080fd5b506103e86109ef3660046156fa565b612655565b606060fe8054610a0390615d4c565b80601f0160208091040260200160405190810160405280929190818152602001828054610a2f90615d4c565b8015610a7c5780601f10610a5157610100808354040283529160200191610a7c565b820191906000526020600020905b815481529060010190602001808311610a5f57829003601f168201915b5050505050905090565b600033610a94818585612903565b5060019392505050565b60008060008061015f600b9054906101000a90046001600160a01b03166001600160a01b031663e76c01e46040518163ffffffff1660e01b81526004016101006040518083038186803b158015610af457600080fd5b505afa158015610b08573d6000803e3d6000fd5b505050506040513d601f19601f82011682018060405250810190610b2c91906158e8565b50505050505091509150610b408282612a27565b9350935050509091565b600080610b55612d05565b61015f54604051630251596160e31b81523060048201528615156024820152604481018690526001600160a01b03858116606483015260a06084830152600060a4830152600160581b9092049091169063128acb089060c4016040805180830381600087803b158015610bc757600080fd5b505af1158015610bdb573d6000803e3d6000fd5b505050506040513d601f19601f82011682018060405250810190610bff919061573f565b6040805188151581526020810184905290810182905291935091507fbf511038cfa32cfb7971e976074c0e6aeda010e6afcbb38d87b4f910305014949060600160405180910390a1935093915050565b600033610c5d858285612d6a565b610c68858585612dde565b60019150505b9392505050565b61015f54600160581b90046001600160a01b03163314610ca757604051620b7d9960e41b815260040160405180910390fd5b6000841315610ccd5761016054610cc8906001600160a01b03163386612f82565b610cee565b6000831315610cee5761016154610cee906001600160a01b03163385612f82565b50505050565b306001600160a01b037f0000000000000000000000000000000000000000000000000000000000000000161415610d465760405162461bcd60e51b8152600401610d3d90615b28565b60405180910390fd5b7f00000000000000000000000000000000000000000000000000000000000000006001600160a01b0316610d78612fea565b6001600160a01b031614610d9e5760405162461bcd60e51b8152600401610d3d90615b74565b610da781613006565b60408051600080825260208201909252610dc391839190613032565b50565b6101668181548110610dd757600080fd5b6000918252602090912001546001600160a01b0316905081565b600033610a94818585610e048383612509565b610e0e9190615c96565b612903565b600054610100900460ff1615808015610e335750600054600160ff909116105b80610e4d5750303b158015610e4d575060005460ff166001145b610eb05760405162461bcd60e51b815260206004820152602e60248201527f496e697469616c697a61626c653a20636f6e747261637420697320616c72656160448201526d191e481a5b9a5d1a585b1a5e995960921b6064820152608401610d3d565b6000805460ff191660011790558015610ed3576000805461ff0019166101001790555b600080600084806020019051810190610eec91906154a0565b919450925090506001600160a01b038316610f1a57604051636ba0d85d60e11b815260040160405180910390fd5b610f226131ac565b610f2a6131d3565b610f32613202565b610f3c8282613231565b610f44613262565b610f4d83613291565b8661015f600b6101000a8154816001600160a01b0302191690836001600160a01b0316021790555061015f600b9054906101000a90046001600160a01b03166001600160a01b0316630dfe16816040518163ffffffff1660e01b815260040160206040518083038186803b158015610fc457600080fd5b505afa158015610fd8573d6000803e3d6000fd5b505050506040513d601f19601f82011682018060405250810190610ffc9190615484565b61016080546001600160a01b0319166001600160a01b0392831617905561015f546040805163d21220a760e01b81529051600160581b9092049092169163d21220a7916004808301926020929190829003018186803b15801561105e57600080fd5b505afa158015611072573d6000803e3d6000fd5b505050506040513d601f19601f820116820180604052508101906110969190615484565b61016180546001600160a01b03929092166001600160a01b031992831617905561015f8054600289900b62ffffff16600160401b0262ffffff60401b199091161790556101628054909116331790556110f260006103e86132e3565b5050508015610cee576000805461ff0019169055604051600181527f7f26b83ff96e1f2b6a682f133852f6798a09c465da95921460cefb38474024989060200160405180910390a150505050565b61015f54600160581b90046001600160a01b0316331461117257604051620b7d9960e41b815260040160405180910390fd5b83156111905761016054611190906001600160a01b03163386612f82565b8215610cee5761016154610cee906001600160a01b03163385612f82565b6111b6612d05565b6111be6133c2565b565b6000806111cb61340f565b6111d3613469565b826111f1576040516302075cc160e41b815260040160405180910390fd5b60006111fc60fd5490565b90506000611209336119f6565b905061121533866134b0565b61015f54600160301b900460ff16156114d55761015f54600090600160581b90046001600160a01b031663514ea4bf61124c612534565b6040518263ffffffff1660e01b815260040161126a91815260200190565b60c06040518083038186803b15801561128257600080fd5b505afa158015611296573d6000803e3d6000fd5b505050506040513d601f19601f820116820180604052508101906112ba9190615883565b5050505050905060006112d787836001600160801b0316866135de565b905060006112e48261368d565b90506000806000806112f5856136fa565b93509350935093506113078282613ab0565b6113118282613b21565b6040805183815260208101839052929450909250600080516020615f1f833981519152910160405180910390a1610160546040516370a0823160e01b815260009186916001600160a01b03909116906370a0823190611374903090600401615a25565b60206040518083038186803b15801561138c57600080fd5b505afa1580156113a0573d6000803e3d6000fd5b505050506040513d601f19601f820116820180604052508101906113c491906156b5565b6113ce9190615d09565b610161546040516370a0823160e01b815291925060009186916001600160a01b0316906370a0823190611405903090600401615a25565b60206040518083038186803b15801561141d57600080fd5b505afa158015611431573d6000803e3d6000fd5b505050506040513d601f19601f8201168201806040525081019061145591906156b5565b61145f9190615d09565b90506101635482111561147d576101635461147a9083615d09565b91505b6101645481111561149957610164546114969082615d09565b90505b6114a4828f8d6135de565b6114ae9087615c96565b9c506114bb818f8d6135de565b6114c59086615c96565b9b50505050505050505050611501565b6000806114e0610a9e565b915091506114ef8288866135de565b95506114fc8188866135de565b945050505b61150b8484613b8c565b6115158484613ba8565b90945092508315611584578061152b8682615d09565b33600090815261016560205260409020600101546115499190615cc2565b6115539190615cae565b336000818152610165602052604090206001019190915561016054611584916001600160a01b039091169086612f82565b82156115ee57806115958682615d09565b33600090815261016560205260409020600201546115b39190615cc2565b6115bd9190615cae565b3360008181526101656020526040902060020191909155610161546115ee916001600160a01b039091169085612f82565b604080518681526020810186905290810184905233907f4c60206a5c1de41f3376d1d60f0949d96cb682033c90b1c2d9d9a62d4c4120c09060600160405180910390a2505061163d6001606555565b915091565b306001600160a01b037f000000000000000000000000000000000000000000000000000000000000000016141561168b5760405162461bcd60e51b8152600401610d3d90615b28565b7f00000000000000000000000000000000000000000000000000000000000000006001600160a01b03166116bd612fea565b6001600160a01b0316146116e35760405162461bcd60e51b8152600401610d3d90615b74565b6116ec82613006565b6116f882826001613032565b5050565b611704612d05565b60fd5415158061171e575061015f54600160301b900460ff165b1561173c57604051632a2c70bb60e11b815260040160405180910390fd5b6117468282613bd1565b61015f54600160381b900460ff166116f85761015f805460ff60381b1916600160381b1790556040517f452a344f03203071e1daf66e007976c85cb2380deabf1c91f3c4fb1fca41204990600090a15050565b6000306001600160a01b037f000000000000000000000000000000000000000000000000000000000000000016146118345760405162461bcd60e51b815260206004820152603860248201527f555550535570677261646561626c653a206d757374206e6f742062652063616c6044820152771b1959081d1a1c9bdd59da0819195b1959d85d1958d85b1b60421b6064820152608401610d3d565b50600080516020615e9883398151915290565b61184f612d05565b61015f54600090600160581b90046001600160a01b031663514ea4bf611873612534565b6040518263ffffffff1660e01b815260040161189191815260200190565b60c06040518083038186803b1580156118a957600080fd5b505afa1580156118bd573d6000803e3d6000fd5b505050506040513d601f19601f820116820180604052508101906118e19190615883565b505050505090506000816001600160801b031611156119aa5761015f54600281810b9163010000009004900b600080808061191b876136fa565b93509350935093507f6d7e1841bf97c0b736eafb2779459ba1e0af2305cead28a8e97533589ceb2f65878787878760405161195a959493929190615c0b565b60405180910390a161196c8282613ab0565b6119768282613b21565b6040805183815260208101839052929450909250600080516020615f1f833981519152910160405180910390a15050505050505b61015f805462ffffff63010000008204600290810b900b1666ff000000ffffff1990911617905560405160008152600080516020615eff8339815191529060200160405180910390a150565b6001600160a01b0316600090815260fb602052604090205490565b611a19612d05565b6111be6000613291565b600080600061015f600b9054906101000a90046001600160a01b03166001600160a01b031663e76c01e46040518163ffffffff1660e01b81526004016101006040518083038186803b158015611a7857600080fd5b505afa158015611a8c573d6000803e3d6000fd5b505050506040513d601f19601f82011682018060405250810190611ab091906158e8565b505050505050915050600080600080600061015f600b9054906101000a90046001600160a01b03166001600160a01b031663514ea4bf611aee612534565b6040518263ffffffff1660e01b8152600401611b0c91815260200190565b60c06040518083038186803b158015611b2457600080fd5b505afa158015611b38573d6000803e3d6000fd5b505050506040513d601f19601f82011682018060405250810190611b5c9190615883565b9550955095509550509450816001600160801b0316611b7e6001868989613c7c565b611b889190615c96565b9750806001600160801b0316611ba16000858989613c7c565b611bab9190615c96565b9650611bb78888613b21565b90999098509650505050505050565b611bce612d05565b6111be61407e565b611bde612d05565b61016380546101648054600093849055929055908115611c2157611c21611c0d60c9546001600160a01b031690565b610160546001600160a01b03169084612f82565b80156116f8576116f8611c3c60c9546001600160a01b031690565b610161546001600160a01b03169083612f82565b606060ff8054610a0390615d4c565b600080600061015f60079054906101000a900460ff16611c9257604051630314872760e11b815260040160405180910390fd5b6000611c9d60fd5490565b90508015611cbc57611cb08187876140bc565b91955093509150611de5565b600061015f600b9054906101000a90046001600160a01b03166001600160a01b031663e76c01e46040518163ffffffff1660e01b81526004016101006040518083038186803b158015611d0e57600080fd5b505afa158015611d22573d6000803e3d6000fd5b505050506040513d601f19601f82011682018060405250810190611d4691906158e8565b5050505050505090506000611d9382611d7161015f60009054906101000a900460020b60020b6141bf565b61015f54611d8c9063010000009004600290810b900b6141bf565b8b8b6145d2565b61015f546001600160801b0382169550909150611ddd908390611dbc90600290810b900b6141bf565b61015f54611dd79063010000009004600290810b900b6141bf565b84614696565b909650945050505b509250925092565b600080611df861340f565b611e00613469565b61015f54600160381b900460ff16611e2b57604051630314872760e11b815260040160405180910390fd5b82611e495760405163199f5a0360e31b815260040160405180910390fd5b6000611e5460fd5490565b61015f54604080516339db007960e21b81529051929350600160301b820460ff1692600092600160581b90046001600160a01b03169163e76c01e491600480830192610100929190829003018186803b158015611eb057600080fd5b505afa158015611ec4573d6000803e3d6000fd5b505050506040513d601f19601f82011682018060405250810190611ee891906158e8565b5050505050505090506000831115611f2a57600080611f05610a9e565b91509150611f14828987614732565b9650611f21818987614732565b95505050611f96565b8115611f7d5761015f54611f73908290611f4a90600290810b900b6141bf565b61015f54611f659063010000009004600290810b900b6141bf565b611f6e8a61368d565b614696565b9095509350611f96565b60405163344fa43b60e01b815260040160405180910390fd5b336000908152610165602052604090205460ff1661200d5733600081815261016560205260408120805460ff19166001908117909155610166805491820181559091527fa5a4c57b7184ec73d55be4993773cb4eef681bc86a28d0285cd66efb50676a970180546001600160a01b03191690911790555b841561205457336000908152610165602052604081206001018054879290612036908490615c96565b909155505061016054612054906001600160a01b0316333088614780565b831561209b5733600090815261016560205260408120600201805486929061207d908490615c96565b90915550506101615461209b906001600160a01b0316333087614780565b6120a533876147b8565b811561218e5761015f546000906120ea9083906120c890600290810b900b6141bf565b61015f546120e39063010000009004600290810b900b6141bf565b89896145d2565b61015f546040516302abf8a760e61b81529192506001600160a01b03600160581b8204169163aafe29c0916121379130918291600282810b9263010000009004900b908890600401615a39565b606060405180830381600087803b15801561215157600080fd5b505af1158015612165573d6000803e3d6000fd5b505050506040513d601f19601f8201168201806040525081019061218991906159d5565b505050505b604080518781526020810187905290810185905233907f5a3358a3d27a5373c0df2604662088d37894d56b7cfd27f315770440f4e0d9199060600160405180910390a250505061163d6001606555565b600033816121ec8286612509565b90508381101561224c5760405162461bcd60e51b815260206004820152602560248201527f45524332303a2064656372656173656420616c6c6f77616e63652062656c6f77604482015264207a65726f60d81b6064820152608401610d3d565b6122598286868403612903565b506001949350505050565b600033610a94818585612dde565b600080600061015f600b9054906101000a90046001600160a01b03166001600160a01b031663e76c01e46040518163ffffffff1660e01b81526004016101006040518083038186803b1580156122c757600080fd5b505afa1580156122db573d6000803e3d6000fd5b505050506040513d601f19601f820116820180604052508101906122ff91906158e8565b5050505050509150506123128482612a27565b9250925050915091565b60608215801561232a575081155b15612336576101665491505b60006123428484615d09565b6001600160401b0381111561236757634e487b7160e01b600052604160045260246000fd5b6040519080825280602002602001820160405280156123c557816020015b6123b2604051806060016040528060006001600160a01b0316815260200160008152602001600081525090565b8152602001906001900390816123855790505b5090506000845b848110156124ef576000610165600061016684815481106123fd57634e487b7160e01b600052603260045260246000fd5b60009182526020808320909101546001600160a01b031683528281019390935260409182019020815160608082018452825460ff1615158252600183015494820194909452600290910154818301528151928301909152610166805491935082918590811061247c57634e487b7160e01b600052603260045260246000fd5b600091825260209182902001546001600160a01b03168252838101519082015260408084015191015284846124b081615d87565b9550815181106124d057634e487b7160e01b600052603260045260246000fd5b60200260200101819052505080806124e790615d87565b9150506123cc565b5090949350505050565b612501612d05565b6111be614873565b6001600160a01b03918216600090815260fc6020908152604080832093909416825291909152205490565b61015f5430601890811b62ffffff600284810b82169290921790921b6301000000909304900b161790565b600080600061256d60fd5490565b905080156125c557600080612580610a9e565b9092509050826125908388615cc2565b61259a9190615cae565b9450826125a78288615cc2565b6125b19190615cae565b93506125bd8585613ba8565b909550935050505b50915091565b6125d3612d05565b6001600160a01b03811661263a5760405162461bcd60e51b815260206004820152602860248201527f4f776e61626c653a206e6577206d616e6167657220697320746865207a65726f604482015267206164647265737360c01b6064820152608401610d3d565b610dc381613291565b61264b612d05565b6116f882826132e3565b600080612660612d05565b61015f54600160301b900460ff161561268c57604051630fd02b6d60e41b815260040160405180910390fd5b600061015f600b9054906101000a90046001600160a01b03166001600160a01b031663e76c01e46040518163ffffffff1660e01b81526004016101006040518083038186803b1580156126de57600080fd5b505afa1580156126f2573d6000803e3d6000fd5b505050506040513d601f19601f8201168201806040525081019061271691906158e8565b505050505050509050600061273d826127318a60020b6141bf565b6120e38a60020b6141bf565b90506001600160801b038116156128f85761015f546040516302abf8a760e61b81526000918291600160581b9091046001600160a01b03169063aafe29c09061279290309081908f908f908a90600401615a39565b606060405180830381600087803b1580156127ac57600080fd5b505af11580156127c0573d6000803e3d6000fd5b505050506040513d601f19601f820116820180604052508101906127e491906159d5565b50915091506127f38a8a613bd1565b7ffa715a0b1bc7287b5d3581c11478041b0455aad0c17361fc1e55fffbdd4b6c4f838b8b858560405161282a959493929190615c0b565b60405180910390a161283c8289615d09565b95506128488188615d09565b61015f805460028c810b62ffffff90811663010000000265ffffffffffff19909316918f900b16171790556040519095507f8e3ac6cc9b82795b40740ca4e954df8f6655fe35e80cdc6fb33d50c3423fcd16906128b7908c908c90600292830b8152910b602082015260400190565b60405180910390a161015f805460ff60301b1916600160301b17905560405160018152600080516020615eff8339815191529060200160405180910390a150505b505094509492505050565b6001600160a01b0383166129655760405162461bcd60e51b8152602060048201526024808201527f45524332303a20617070726f76652066726f6d20746865207a65726f206164646044820152637265737360e01b6064820152608401610d3d565b6001600160a01b0382166129c65760405162461bcd60e51b815260206004820152602260248201527f45524332303a20617070726f766520746f20746865207a65726f206164647265604482015261737360f01b6064820152608401610d3d565b6001600160a01b03838116600081815260fc602090815260408083209487168084529482529182902085905590518481527f8c5be1e5ebec7d5bd14f71427d1e84f3dd0314c0f7b2291e5b200ac8c7c3b925910160405180910390a3505050565b600080600080600080600061015f600b9054906101000a90046001600160a01b03166001600160a01b031663514ea4bf612a5f612534565b6040518263ffffffff1660e01b8152600401612a7d91815260200190565b60c06040518083038186803b158015612a9557600080fd5b505afa158015612aa9573d6000803e3d6000fd5b505050506040513d601f19601f82011682018060405250810190612acd9190615883565b9550955095509550509450600080866001600160801b0316600014612b825761015f54612b27908c90612b0690600290810b900b6141bf565b61015f54612b219063010000009004600290810b900b6141bf565b8a614696565b90995097506001600160801b038416612b436001888d8b613c7c565b612b4d9190615c96565b9150826001600160801b0316612b666000878d8b613c7c565b612b709190615c96565b9050612b7c8282613b21565b90925090505b610160546040516370a0823160e01b81526000916001600160a01b0316906370a0823190612bb4903090600401615a25565b60206040518083038186803b158015612bcc57600080fd5b505afa158015612be0573d6000803e3d6000fd5b505050506040513d601f19601f82011682018060405250810190612c0491906156b5565b612c0e9084615c96565b610161546040516370a0823160e01b81529192506000916001600160a01b03909116906370a0823190612c45903090600401615a25565b60206040518083038186803b158015612c5d57600080fd5b505afa158015612c71573d6000803e3d6000fd5b505050506040513d601f19601f82011682018060405250810190612c9591906156b5565b612c9f9084615c96565b9050610163548211612cb15781612cbf565b61016354612cbf9083615d09565b612cc9908c615c96565b9a50610164548111612cdb5780612ce9565b61016454612ce99082615d09565b612cf3908b615c96565b99505050505050505050509250929050565b60c9546001600160a01b031633146111be5760405162461bcd60e51b815260206004820152602260248201527f4f776e61626c653a2063616c6c6572206973206e6f7420746865206d616e616760448201526132b960f11b6064820152608401610d3d565b6000612d768484612509565b90506000198114610cee5781811015612dd15760405162461bcd60e51b815260206004820152601d60248201527f45524332303a20696e73756666696369656e7420616c6c6f77616e63650000006044820152606401610d3d565b610cee8484848403612903565b6001600160a01b038316612e425760405162461bcd60e51b815260206004820152602560248201527f45524332303a207472616e736665722066726f6d20746865207a65726f206164604482015264647265737360d81b6064820152608401610d3d565b6001600160a01b038216612ea45760405162461bcd60e51b815260206004820152602360248201527f45524332303a207472616e7366657220746f20746865207a65726f206164647260448201526265737360e81b6064820152608401610d3d565b612eaf8383836148c4565b6001600160a01b038316600090815260fb602052604090205481811015612f275760405162461bcd60e51b815260206004820152602660248201527f45524332303a207472616e7366657220616d6f756e7420657863656564732062604482015265616c616e636560d01b6064820152608401610d3d565b6001600160a01b03808516600081815260fb60205260408082208686039055928616808252908390208054860190559151600080516020615edf83398151915290612f759086815260200190565b60405180910390a3610cee565b6040516001600160a01b038316602482015260448101829052612fe590849063a9059cbb60e01b906064015b60408051601f198184030181529190526020810180516001600160e01b03166001600160e01b031990931692909217909152614b1e565b505050565b600080516020615e98833981519152546001600160a01b031690565b610162546001600160a01b03163314610dc357604051631b1319e560e01b815260040160405180910390fd5b7f4910fdfa16fed3260ed0e7147f7cc6da11a60208b5b9406d12a635614ffd91435460ff161561306557612fe583614bf0565b826001600160a01b03166352d1902d6040518163ffffffff1660e01b815260040160206040518083038186803b15801561309e57600080fd5b505afa9250505080156130ce575060408051601f3d908101601f191682019092526130cb918101906156b5565b60015b6131315760405162461bcd60e51b815260206004820152602e60248201527f45524331393637557067726164653a206e657720696d706c656d656e7461746960448201526d6f6e206973206e6f74205555505360901b6064820152608401610d3d565b600080516020615e9883398151915281146131a05760405162461bcd60e51b815260206004820152602960248201527f45524331393637557067726164653a20756e737570706f727465642070726f786044820152681a58589b195555525160ba1b6064820152608401610d3d565b50612fe5838383614c8c565b600054610100900460ff166111be5760405162461bcd60e51b8152600401610d3d90615bc0565b600054610100900460ff166131fa5760405162461bcd60e51b8152600401610d3d90615bc0565b6111be614cb1565b600054610100900460ff166132295760405162461bcd60e51b8152600401610d3d90615bc0565b6111be614cd8565b600054610100900460ff166132585760405162461bcd60e51b8152600401610d3d90615bc0565b6116f88282614d08565b600054610100900460ff166132895760405162461bcd60e51b8152600401610d3d90615bc0565b6111be614d56565b60c980546001600160a01b038381166001600160a01b0319831681179093556040519116919082907f8be0079c531659141344cd1fd0a4f28419497f9722a3daafe3b4186f6b6457e090600090a35050565b606461ffff83161115613309576040516313f90f0b60e31b815260040160405180910390fd5b6107d061ffff8216111561333057604051630f14508d60e41b815260040160405180910390fd5b61015f54600160301b900460ff161561334b5761334b614873565b610162805463ffffffff60a01b1916600160a01b61ffff85811691820261ffff60b01b191692909217600160b01b928516928302179092556040805192835260208301919091527f2ac80c14c28700f7b5e36f947d572149fe2e3947bac32c3a8c098f3e03722c1191015b60405180910390a15050565b6133ca614d8a565b61012d805460ff191690557f5db9ee0a495bf2e6ff9c91a7834c1ba4fdd244a5e8aa4e537bd38aeae4b073aa335b6040516134059190615a25565b60405180910390a1565b600260655414156134625760405162461bcd60e51b815260206004820152601f60248201527f5265656e7472616e637947756172643a207265656e7472616e742063616c6c006044820152606401610d3d565b6002606555565b61012d5460ff16156111be5760405162461bcd60e51b815260206004820152601060248201526f14185d5cd8589b194e881c185d5cd95960821b6044820152606401610d3d565b6001600160a01b0382166135105760405162461bcd60e51b815260206004820152602160248201527f45524332303a206275726e2066726f6d20746865207a65726f206164647265736044820152607360f81b6064820152608401610d3d565b61351c826000836148c4565b6001600160a01b038216600090815260fb6020526040902054818110156135905760405162461bcd60e51b815260206004820152602260248201527f45524332303a206275726e20616d6f756e7420657863656564732062616c616e604482015261636560f01b6064820152608401610d3d565b6001600160a01b038316600081815260fb60209081526040808320868603905560fd8054879003905551858152919291600080516020615edf833981519152910160405180910390a3505050565b600080806000198587098587029250828110838203039150508060001415613618576000841161360d57600080fd5b508290049050610c6e565b80841161362457600080fd5b60008486880960026001871981018816978890046003810283188082028403028082028403028082028403028082028403028082028403029081029092039091026000889003889004909101858311909403939093029303949094049190911702949350505050565b60006001600160801b038211156136f65760405162461bcd60e51b815260206004820152602760248201527f53616665436173743a2076616c756520646f65736e27742066697420696e20316044820152663238206269747360c81b6064820152608401610d3d565b5090565b61015f54610160546040516370a0823160e01b8152600092839283928392600281810b936301000000909204900b9184916001600160a01b0316906370a0823190613749903090600401615a25565b60206040518083038186803b15801561376157600080fd5b505afa158015613775573d6000803e3d6000fd5b505050506040513d601f19601f8201168201806040525081019061379991906156b5565b610161546040516370a0823160e01b81529192506000916001600160a01b03909116906370a08231906137d0903090600401615a25565b60206040518083038186803b1580156137e857600080fd5b505afa1580156137fc573d6000803e3d6000fd5b505050506040513d601f19601f8201168201806040525081019061382091906156b5565b61015f5460405163a34123a760e01b8152600287810b600483015286900b60248201526001600160801b038c166044820152919250600160581b90046001600160a01b03169063a34123a7906064016040805180830381600087803b15801561388857600080fd5b505af115801561389c573d6000803e3d6000fd5b505050506040513d601f19601f820116820180604052508101906138c0919061573f565b61015f546040516309e3d67b60e31b8152306004820152600288810b602483015287900b60448201526001600160801b03606482018190526084820152929a50909850600160581b90046001600160a01b031690634f1eb3d89060a4016040805180830381600087803b15801561393657600080fd5b505af115801561394a573d6000803e3d6000fd5b505050506040513d601f19601f8201168201806040525081019061396e9190615851565b5050610160546040516370a0823160e01b8152899184916001600160a01b03909116906370a08231906139a5903090600401615a25565b60206040518083038186803b1580156139bd57600080fd5b505afa1580156139d1573d6000803e3d6000fd5b505050506040513d601f19601f820116820180604052508101906139f591906156b5565b6139ff9190615d09565b613a099190615d09565b610161546040516370a0823160e01b8152919750889183916001600160a01b0316906370a0823190613a3f903090600401615a25565b60206040518083038186803b158015613a5757600080fd5b505afa158015613a6b573d6000803e3d6000fd5b505050506040513d601f19601f82011682018060405250810190613a8f91906156b5565b613a999190615d09565b613aa39190615d09565b9450505050509193509193565b61016254600160b01b900461ffff16612710613acc8285615cc2565b613ad69190615cae565b6101636000828254613ae89190615c96565b909155506127109050613afb8284615cc2565b613b059190615cae565b6101646000828254613b179190615c96565b9091555050505050565b610162546000908190600160b01b900461ffff1681612710613b438388615cc2565b613b4d9190615cae565b90506000612710613b5e8488615cc2565b613b689190615cae565b9050613b748288615d09565b9450613b808187615d09565b93505050509250929050565b61016254600160a01b900461ffff16612710613acc8285615cc2565b610162546000908190600160a01b900461ffff1681612710613b438388615cc2565b6001606555565b613bdb8282614dd4565b61015f805460ff60301b19600284810b62ffffff90811663010000000265ffffffffffff199094169187900b16179190911716600160301b179055604051600080516020615eff83398151915290613c399060011515815260200190565b60405180910390a160408051600284810b825283900b60208201527f8e3ac6cc9b82795b40740ca4e954df8f6655fe35e80cdc6fb33d50c3423fcd1691016133b6565b6000806000808715613e475761015f600b9054906101000a90046001600160a01b03166001600160a01b0316636378ae446040518163ffffffff1660e01b815260040160206040518083038186803b158015613cd757600080fd5b505afa158015613ceb573d6000803e3d6000fd5b505050506040513d601f19601f82011682018060405250810190613d0f91906156b5565b61015f5460405163f30dba9360e01b8152600282810b900b6004820152919250600160581b90046001600160a01b03169063f30dba93906024016101006040518083038186803b158015613d6257600080fd5b505afa158015613d76573d6000803e3d6000fd5b505050506040513d601f19601f82011682018060405250810190613d9a91906157b2565b505061015f5460405163f30dba9360e01b81529499506001600160a01b03600160581b820416965063f30dba939550613de694630100000090910460020b93506004019150615ae79050565b6101006040518083038186803b158015613dff57600080fd5b505afa158015613e13573d6000803e3d6000fd5b505050506040513d601f19601f82011682018060405250810190613e3791906157b2565b5093975061400095505050505050565b61015f600b9054906101000a90046001600160a01b03166001600160a01b031663ecdecf426040518163ffffffff1660e01b815260040160206040518083038186803b158015613e9657600080fd5b505afa158015613eaa573d6000803e3d6000fd5b505050506040513d601f19601f82011682018060405250810190613ece91906156b5565b61015f5460405163f30dba9360e01b8152600282810b900b6004820152919250600160581b90046001600160a01b03169063f30dba93906024016101006040518083038186803b158015613f2157600080fd5b505afa158015613f35573d6000803e3d6000fd5b505050506040513d601f19601f82011682018060405250810190613f5991906157b2565b505061015f5460405163f30dba9360e01b81529399506001600160a01b03600160581b820416965063f30dba939550613fa494506301000000900460020b926004019150615ae79050565b6101006040518083038186803b158015613fbd57600080fd5b505afa158015613fd1573d6000803e3d6000fd5b505050506040513d601f19601f82011682018060405250810190613ff591906157b2565b509297505050505050505b61015f54600090600290810b810b9088900b1261401e575082614023565b508281035b600061015f60039054906101000a900460020b60020b8860020b121561404a57508261404f565b508282035b81830381900361406f6001600160801b0389168b8303600160801b6135de565b9b9a5050505050505050505050565b614086613469565b61012d805460ff191660011790557f62e78cea01bee320cd4e420270b5ea74000d11b0c9f74754ebdbfc544b05a2586133f83390565b60008060008060006140cc610a9e565b915091508160001480156140e05750600081115b156140f7576140f08689836135de565b925061419a565b801580156141055750600082115b15614115576140f08789846135de565b81158015614121575080155b1561413f5760405163f912977760e01b815260040160405180910390fd5b600061414c888a856135de565b9050600061415b888b856135de565b9050811580614168575080155b1561418657604051630856e64360e21b815260040160405180910390fd5b8082106141935780614195565b815b945050505b6141a583838a614732565b94506141b283828a614732565b9350505093509350939050565b60008060008360020b126141d6578260020b6141e3565b8260020b6141e390615df9565b90506141f2620d89e719615dd8565b60020b8111156142285760405162461bcd60e51b81526020600482015260016024820152601560fa1b6044820152606401610d3d565b60006001821661423c57600160801b61424e565b6ffffcb933bd6fad37aa2d162d1a5940015b6001600160881b03169050600282161561428357608061427e826ffff97272373d413259a46990580e213a615cc2565b901c90505b60048216156142ad5760806142a8826ffff2e50f5f656932ef12357cf3c7fdcc615cc2565b901c90505b60088216156142d75760806142d2826fffe5caca7e10e4e61c3624eaa0941cd0615cc2565b901c90505b60108216156143015760806142fc826fffcb9843d60f6159c9db58835c926644615cc2565b901c90505b602082161561432b576080614326826fff973b41fa98c081472e6896dfb254c0615cc2565b901c90505b6040821615614355576080614350826fff2ea16466c96a3843ec78b326b52861615cc2565b901c90505b608082161561437f57608061437a826ffe5dee046a99a2a811c461f1969c3053615cc2565b901c90505b6101008216156143aa5760806143a5826ffcbe86c7900a88aedcffc83b479aa3a4615cc2565b901c90505b6102008216156143d55760806143d0826ff987a7253ac413176f2b074cf7815e54615cc2565b901c90505b6104008216156144005760806143fb826ff3392b0822b70005940c7a398e4b70f3615cc2565b901c90505b61080082161561442b576080614426826fe7159475a2c29b7443b29c7fa6e889d9615cc2565b901c90505b611000821615614456576080614451826fd097f3bdfd2022b8845ad8f792aa5825615cc2565b901c90505b61200082161561448157608061447c826fa9f746462d870fdf8a65dc1f90e061e5615cc2565b901c90505b6140008216156144ac5760806144a7826f70d869a156d2a1b890bb3df62baf32f7615cc2565b901c90505b6180008216156144d75760806144d2826f31be135f97d08fd981231505542fcfa6615cc2565b901c90505b620100008216156145035760806144fe826f09aa508b5b7a84e1c677de54f3e99bc9615cc2565b901c90505b6202000082161561452e576080614529826e5d6af8dedb81196699c329225ee604615cc2565b901c90505b62040000821615614558576080614553826d2216e584f5fa1ea926041bedfe98615cc2565b901c90505b6208000082161561458057608061457b826b048a170391f7dc42444e8fa2615cc2565b901c90505b60008460020b131561459b5761459881600019615cae565b90505b6145aa64010000000082615dc4565b156145b65760016145b9565b60005b6145ca9060ff16602083901c615c96565b949350505050565b6000836001600160a01b0316856001600160a01b031611156145f2579293925b846001600160a01b0316866001600160a01b03161161461d57614616858585614e89565b905061468d565b836001600160a01b0316866001600160a01b0316101561467f576000614644878686614e89565b90506000614653878986614ef3565b9050806001600160801b0316826001600160801b0316106146745780614676565b815b9250505061468d565b61468a858584614ef3565b90505b95945050505050565b600080836001600160a01b0316856001600160a01b031611156146b7579293925b846001600160a01b0316866001600160a01b0316116146e2576146db858585614f29565b9150614729565b836001600160a01b0316866001600160a01b0316101561471b57614707868585614f29565b9150614714858785614f93565b9050614729565b614726858585614f93565b90505b94509492505050565b600061473f8484846135de565b90506000828061475f57634e487b7160e01b600052601260045260246000fd5b8486091115610c6e57600019811061477657600080fd5b8061468d81615d87565b6040516001600160a01b0380851660248301528316604482015260648101829052610cee9085906323b872dd60e01b90608401612fae565b6001600160a01b03821661480e5760405162461bcd60e51b815260206004820152601f60248201527f45524332303a206d696e7420746f20746865207a65726f2061646472657373006044820152606401610d3d565b61481a600083836148c4565b8060fd600082825461482c9190615c96565b90915550506001600160a01b038216600081815260fb6020908152604080832080548601905551848152600080516020615edf833981519152910160405180910390a35050565b60008061488060006136fa565b9350935050506148908282613ab0565b61489a8282613b21565b6040805183815260208101839052929450909250600080516020615f1f83398151915291016133b6565b6001600160a01b03831615806148e157506001600160a01b038216155b156148eb57505050565b6001600160a01b0382166000908152610165602052604090205460ff16614974576001600160a01b038216600081815261016560205260408120805460ff19166001908117909155610166805491820181559091527fa5a4c57b7184ec73d55be4993773cb4eef681bc86a28d0285cd66efb50676a970180546001600160a01b03191690911790555b600061497f846119f6565b905060008161498e8482615d09565b6001600160a01b038716600090815261016560205260409020600101546149b59190615cc2565b6149bf9190615cae565b6001600160a01b038616600090815261016560205260409020600101546149e69190615d09565b90506000826149f58582615d09565b6001600160a01b03881660009081526101656020526040902060020154614a1c9190615cc2565b614a269190615cae565b6001600160a01b03871660009081526101656020526040902060020154614a4d9190615d09565b6001600160a01b03871660009081526101656020526040812060010180549293508492909190614a7e908490615d09565b90915550506001600160a01b0386166000908152610165602052604081206002018054839290614aaf908490615d09565b90915550506001600160a01b0385166000908152610165602052604081206001018054849290614ae0908490615c96565b90915550506001600160a01b0385166000908152610165602052604081206002018054839290614b11908490615c96565b9091555050505050505050565b6000614b73826040518060400160405280602081526020017f5361666545524332303a206c6f772d6c6576656c2063616c6c206661696c6564815250856001600160a01b0316614fdd9092919063ffffffff16565b805190915015612fe55780806020019051810190614b919190615658565b612fe55760405162461bcd60e51b815260206004820152602a60248201527f5361666545524332303a204552433230206f7065726174696f6e20646964206e6044820152691bdd081cdd58d8d9595960b21b6064820152608401610d3d565b6001600160a01b0381163b614c5d5760405162461bcd60e51b815260206004820152602d60248201527f455243313936373a206e657720696d706c656d656e746174696f6e206973206e60448201526c1bdd08184818dbdb9d1c9858dd609a1b6064820152608401610d3d565b600080516020615e9883398151915280546001600160a01b0319166001600160a01b0392909216919091179055565b614c9583614fec565b600082511180614ca25750805b15612fe557610cee838361502c565b600054610100900460ff16613bca5760405162461bcd60e51b8152600401610d3d90615bc0565b600054610100900460ff16614cff5760405162461bcd60e51b8152600401610d3d90615bc0565b6111be33613291565b600054610100900460ff16614d2f5760405162461bcd60e51b8152600401610d3d90615bc0565b8151614d429060fe9060208501906152c2565b508051612fe59060ff9060208401906152c2565b600054610100900460ff16614d7d5760405162461bcd60e51b8152600401610d3d90615bc0565b61012d805460ff19169055565b61012d5460ff166111be5760405162461bcd60e51b815260206004820152601460248201527314185d5cd8589b194e881b9bdd081c185d5cd95960621b6044820152606401610d3d565b620d89e719600283900b1280614dfb5750614df2620d89e719615dd8565b60020b8160020b135b15614e195760405163137b639d60e21b815260040160405180910390fd5b8060020b8260020b121580614e47575061015f54614e4190600160401b900460020b83615da2565b60020b15155b80614e6b575061015f54614e6590600160401b900460020b82615da2565b60020b15155b156116f857604051633981390b60e11b815260040160405180910390fd5b6000826001600160a01b0316846001600160a01b03161115614ea9579192915b6000614ecc856001600160a01b0316856001600160a01b0316600160601b6135de565b905061468d614eee8483614ee08989615ce1565b6001600160a01b03166135de565b615117565b6000826001600160a01b0316846001600160a01b03161115614f13579192915b6145ca614eee83600160601b614ee08888615ce1565b6000826001600160a01b0316846001600160a01b03161115614f49579192915b6001600160a01b038416614f89600160601b600160e01b03606085901b16614f718787615ce1565b6001600160a01b0316866001600160a01b03166135de565b6145ca9190615cae565b6000826001600160a01b0316846001600160a01b03161115614fb3579192915b6145ca6001600160801b038316614fca8686615ce1565b6001600160a01b0316600160601b6135de565b60606145ca8484600085615132565b614ff581614bf0565b6040516001600160a01b038216907fbc7cd75a20ee27fd9adebab32041f755214dbc6bffa90cc0225b39da2e5c2d3b90600090a250565b60606001600160a01b0383163b6150945760405162461bcd60e51b815260206004820152602660248201527f416464726573733a2064656c65676174652063616c6c20746f206e6f6e2d636f6044820152651b9d1c9858dd60d21b6064820152608401610d3d565b600080846001600160a01b0316846040516150af9190615a09565b600060405180830381855af49150503d80600081146150ea576040519150601f19603f3d011682016040523d82523d6000602084013e6150ef565b606091505b509150915061468d8282604051806060016040528060278152602001615eb86027913961520d565b806001600160801b038116811461512d57600080fd5b919050565b6060824710156151935760405162461bcd60e51b815260206004820152602660248201527f416464726573733a20696e73756666696369656e742062616c616e636520666f6044820152651c8818d85b1b60d21b6064820152608401610d3d565b600080866001600160a01b031685876040516151af9190615a09565b60006040518083038185875af1925050503d80600081146151ec576040519150601f19603f3d011682016040523d82523d6000602084013e6151f1565b606091505b509150915061520287838387615226565b979650505050505050565b6060831561521c575081610c6e565b610c6e8383615298565b6060831561529257825161528b576001600160a01b0385163b61528b5760405162461bcd60e51b815260206004820152601d60248201527f416464726573733a2063616c6c20746f206e6f6e2d636f6e74726163740000006044820152606401610d3d565b50816145ca565b6145ca83835b8151156152a85781518083602001fd5b8060405162461bcd60e51b8152600401610d3d9190615af5565b8280546152ce90615d4c565b90600052602060002090601f0160209004810192826152f05760008555615336565b82601f1061530957805160ff1916838001178555615336565b82800160010185558215615336579182015b8281111561533657825182559160200191906001019061531b565b506136f69291505b808211156136f6576000815560010161533e565b60008083601f840112615363578182fd5b5081356001600160401b03811115615379578182fd5b60208301915083602082850101111561539157600080fd5b9250929050565b600082601f8301126153a8578081fd5b81356153bb6153b682615c6f565b615c3f565b8181528460208386010111156153cf578283fd5b816020850160208301379081016020019190915292915050565b600082601f8301126153f9578081fd5b81516154076153b682615c6f565b81815284602083860101111561541b578283fd5b6145ca826020830160208701615d20565b80516001600160801b038116811461512d57600080fd5b805163ffffffff8116811461512d57600080fd5b805160ff8116811461512d57600080fd5b600060208284031215615479578081fd5b8135610c6e81615e55565b600060208284031215615495578081fd5b8151610c6e81615e55565b6000806000606084860312156154b4578182fd5b83516154bf81615e55565b60208501519093506001600160401b03808211156154db578384fd5b6154e7878388016153e9565b935060408601519150808211156154fc578283fd5b50615509868287016153e9565b9150509250925092565b60008060408385031215615525578182fd5b823561553081615e55565b9150602083013561554081615e55565b809150509250929050565b60008060006060848603121561555f578283fd5b833561556a81615e55565b9250602084013561557a81615e55565b929592945050506040919091013590565b6000806040838503121561559d578182fd5b82356155a881615e55565b915060208301356001600160401b038111156155c2578182fd5b6155ce85828601615398565b9150509250929050565b6000806000606084860312156155ec578081fd5b83356155f781615e55565b9250602084013561560781615e78565b915060408401356001600160401b03811115615621578182fd5b61550986828701615398565b6000806040838503121561563f578182fd5b823561564a81615e55565b946020939093013593505050565b600060208284031215615669578081fd5b8151610c6e81615e6a565b600080600060608486031215615688578081fd5b833561569381615e6a565b92506020840135915060408401356156aa81615e55565b809150509250925092565b6000602082840312156156c6578081fd5b5051919050565b600080604083850312156156df578182fd5b82356156ea81615e78565b9150602083013561554081615e78565b6000806000806080858703121561570f578182fd5b843561571a81615e78565b9350602085013561572a81615e78565b93969395505050506040820135916060013590565b60008060408385031215615751578182fd5b505080516020909101519092909150565b60008060008060608587031215615777578182fd5b843593506020850135925060408501356001600160401b0381111561579a578283fd5b6157a687828801615352565b95989497509550505050565b600080600080600080600080610100898b0312156157ce578586fd5b6157d78961542c565b9750602089015180600f0b81146157ec578687fd5b80975050604089015195506060890151945060808901518060060b8114615811578485fd5b60a08a015190945061582281615e55565b925061583060c08a01615443565b915060e089015161584081615e6a565b809150509295985092959890939650565b60008060408385031215615863578182fd5b61586c8361542c565b915061587a6020840161542c565b90509250929050565b60008060008060008060c0878903121561589b578384fd5b6158a48761542c565b95506158b260208801615443565b945060408701519350606087015192506158ce6080880161542c565b91506158dc60a0880161542c565b90509295509295509295565b600080600080600080600080610100898b031215615904578182fd5b885161590f81615e55565b60208a015190985061592081615e78565b60408a015190975061593181615e87565b60608a015190965061594281615e87565b60808a015190955061595381615e87565b935061596160a08a01615457565b925061583060c08a01615457565b60008060408385031215615981578182fd5b823561598c81615e87565b9150602083013561554081615e87565b6000602082840312156159ad578081fd5b5035919050565b600080604083850312156159c6578182fd5b50508035926020909101359150565b6000806000606084860312156159e9578081fd5b8351925060208401519150615a006040850161542c565b90509250925092565b60008251615a1b818460208701615d20565b9190910192915050565b6001600160a01b0391909116815260200190565b6001600160a01b039586168152939094166020840152600291820b6040840152900b60608201526001600160801b03909116608082015260c060a0820181905260009082015260e00190565b602080825282518282018190526000919060409081850190868401855b82811015615ada57815180516001600160a01b0316855286810151878601528501518585015260609093019290850190600101615aa2565b5091979650505050505050565b60029190910b815260200190565b6020815260008251806020840152615b14816040850160208701615d20565b601f01601f19169190910160400192915050565b6020808252602c908201527f46756e6374696f6e206d7573742062652063616c6c6564207468726f7567682060408201526b19195b1959d85d1958d85b1b60a21b606082015260800190565b6020808252602c908201527f46756e6374696f6e206d7573742062652063616c6c6564207468726f7567682060408201526b6163746976652070726f787960a01b606082015260800190565b6020808252602b908201527f496e697469616c697a61626c653a20636f6e7472616374206973206e6f74206960408201526a6e697469616c697a696e6760a81b606082015260800190565b6001600160801b03959095168552600293840b60208601529190920b60408401526060830191909152608082015260a00190565b604051601f8201601f191681016001600160401b0381118282101715615c6757615c67615e3f565b604052919050565b60006001600160401b03821115615c8857615c88615e3f565b50601f01601f191660200190565b60008219821115615ca957615ca9615e13565b500190565b600082615cbd57615cbd615e29565b500490565b6000816000190483118215151615615cdc57615cdc615e13565b500290565b60006001600160a01b0383811690831681811015615d0157615d01615e13565b039392505050565b600082821015615d1b57615d1b615e13565b500390565b60005b83811015615d3b578181015183820152602001615d23565b83811115610cee5750506000910152565b600181811c90821680615d6057607f821691505b60208210811415615d8157634e487b7160e01b600052602260045260246000fd5b50919050565b6000600019821415615d9b57615d9b615e13565b5060010190565b60008260020b80615db557615db5615e29565b808360020b0791505092915050565b600082615dd357615dd3615e29565b500690565b60008160020b627fffff19811415615df257615df2615e13565b9003919050565b6000600160ff1b821415615e0f57615e0f615e13565b0390565b634e487b7160e01b600052601160045260246000fd5b634e487b7160e01b600052601260045260246000fd5b634e487b7160e01b600052604160045260246000fd5b6001600160a01b0381168114610dc357600080fd5b8015158114610dc357600080fd5b8060020b8114610dc357600080fd5b61ffff81168114610dc357600080fdfe360894a13ba1a3210667c828492db98dca3e2076cc3735a920a3ca505d382bbc416464726573733a206c6f772d6c6576656c2064656c65676174652063616c6c206661696c6564ddf252ad1be2c89b69c2b068fc378daa952ba7f163c4a11628f55a4df523b3efd9279952b347fd14af9b788aff1029c0d3b1299b7dcce164fc602a1b958c4880c28ad1de9c0c32e5394ba60323e44d8d9536312236a47231772e448a3e49de42a2646970667358221220e4019f6a4bbd00fd1f0e85ad5f7dac23e39321660b3b1d94074ec7eb8646434064736f6c63430008040033",
  "linkReferences": {},
  "deployedLinkReferences": {}
}