{
  "_format": "hh-sol-artifact-1",
  "contractName": "RangeProtocolVault",
  "sourceName": "contracts/RangeProtocolVault.sol",
  "abi": [
    {
      "inputs": [],
      "stateMutability": "nonpayable",
      "type": "constructor"
    },
    {
      "inputs": [],
      "name": "InvalidBurnAmount",
      "type": "error"
    },
    {
      "inputs": [],
      "name": "InvalidManagingFee",
      "type": "error"
    },
    {
      "inputs": [],
      "name": "InvalidMintAmount",
      "type": "error"
    },
    {
      "inputs": [],
      "name": "InvalidPerformanceFee",
      "type": "error"
    },
    {
      "inputs": [],
      "name": "InvalidTicksSpacing",
      "type": "error"
    },
    {
      "inputs": [],
      "name": "MintNotAllowed",
      "type": "error"
    },
    {
      "inputs": [],
      "name": "MintNotStarted",
      "type": "error"
    },
    {
      "inputs": [],
      "name": "NotAllowedToUpdateTicks",
      "type": "error"
    },
    {
      "inputs": [],
      "name": "OnlyFactoryAllowed",
      "type": "error"
    },
    {
      "inputs": [],
      "name": "OnlyPoolAllowed",
      "type": "error"
    },
    {
      "inputs": [],
      "name": "TicksOutOfRange",
      "type": "error"
    },
    {
      "inputs": [],
      "name": "ZeroMintAmount",
      "type": "error"
    },
    {
      "inputs": [],
      "name": "ZeroUnderlyingBalance",
      "type": "error"
    },
    {
      "anonymous": false,
      "inputs": [
        {
          "indexed": false,
          "internalType": "address",
          "name": "previousAdmin",
          "type": "address"
        },
        {
          "indexed": false,
          "internalType": "address",
          "name": "newAdmin",
          "type": "address"
        }
      ],
      "name": "AdminChanged",
      "type": "event"
    },
    {
      "anonymous": false,
      "inputs": [
        {
          "indexed": true,
          "internalType": "address",
          "name": "owner",
          "type": "address"
        },
        {
          "indexed": true,
          "internalType": "address",
          "name": "spender",
          "type": "address"
        },
        {
          "indexed": false,
          "internalType": "uint256",
          "name": "value",
          "type": "uint256"
        }
      ],
      "name": "Approval",
      "type": "event"
    },
    {
      "anonymous": false,
      "inputs": [
        {
          "indexed": true,
          "internalType": "address",
          "name": "beacon",
          "type": "address"
        }
      ],
      "name": "BeaconUpgraded",
      "type": "event"
    },
    {
      "anonymous": false,
      "inputs": [
        {
          "indexed": true,
          "internalType": "address",
          "name": "receiver",
          "type": "address"
        },
        {
          "indexed": false,
          "internalType": "uint256",
          "name": "burnAmount",
          "type": "uint256"
        },
        {
          "indexed": false,
          "internalType": "uint256",
          "name": "amount0Out",
          "type": "uint256"
        },
        {
          "indexed": false,
          "internalType": "uint256",
          "name": "amount1Out",
          "type": "uint256"
        }
      ],
      "name": "Burned",
      "type": "event"
    },
    {
      "anonymous": false,
      "inputs": [
        {
          "indexed": false,
          "internalType": "uint256",
          "name": "feesEarned0",
          "type": "uint256"
        },
        {
          "indexed": false,
          "internalType": "uint256",
          "name": "feesEarned1",
          "type": "uint256"
        }
      ],
      "name": "FeesEarned",
      "type": "event"
    },
    {
      "anonymous": false,
      "inputs": [
        {
          "indexed": false,
          "internalType": "uint16",
          "name": "managingFee",
          "type": "uint16"
        },
        {
          "indexed": false,
          "internalType": "uint16",
          "name": "performanceFee",
          "type": "uint16"
        }
      ],
      "name": "FeesUpdated",
      "type": "event"
    },
    {
      "anonymous": false,
      "inputs": [
        {
          "indexed": false,
          "internalType": "bool",
          "name": "inThePosition",
          "type": "bool"
        }
      ],
      "name": "InThePositionStatusSet",
      "type": "event"
    },
    {
      "anonymous": false,
      "inputs": [
        {
          "indexed": false,
          "internalType": "uint8",
          "name": "version",
          "type": "uint8"
        }
      ],
      "name": "Initialized",
      "type": "event"
    },
    {
      "anonymous": false,
      "inputs": [
        {
          "indexed": false,
          "internalType": "uint256",
          "name": "liquidityMinted",
          "type": "uint256"
        },
        {
          "indexed": false,
          "internalType": "int24",
          "name": "tickBottom",
          "type": "int24"
        },
        {
          "indexed": false,
          "internalType": "int24",
          "name": "tickTop",
          "type": "int24"
        },
        {
          "indexed": false,
          "internalType": "uint256",
          "name": "amount0In",
          "type": "uint256"
        },
        {
          "indexed": false,
          "internalType": "uint256",
          "name": "amount1In",
          "type": "uint256"
        }
      ],
      "name": "LiquidityAdded",
      "type": "event"
    },
    {
      "anonymous": false,
      "inputs": [
        {
          "indexed": false,
          "internalType": "uint256",
          "name": "liquidityRemoved",
          "type": "uint256"
        },
        {
          "indexed": false,
          "internalType": "int24",
          "name": "tickBottom",
          "type": "int24"
        },
        {
          "indexed": false,
          "internalType": "int24",
          "name": "tickTop",
          "type": "int24"
        },
        {
          "indexed": false,
          "internalType": "uint256",
          "name": "amount0Out",
          "type": "uint256"
        },
        {
          "indexed": false,
          "internalType": "uint256",
          "name": "amount1Out",
          "type": "uint256"
        }
      ],
      "name": "LiquidityRemoved",
      "type": "event"
    },
    {
      "anonymous": false,
      "inputs": [],
      "name": "MintStarted",
      "type": "event"
    },
    {
      "anonymous": false,
      "inputs": [
        {
          "indexed": true,
          "internalType": "address",
          "name": "receiver",
          "type": "address"
        },
        {
          "indexed": false,
          "internalType": "uint256",
          "name": "mintAmount",
          "type": "uint256"
        },
        {
          "indexed": false,
          "internalType": "uint256",
          "name": "amount0In",
          "type": "uint256"
        },
        {
          "indexed": false,
          "internalType": "uint256",
          "name": "amount1In",
          "type": "uint256"
        }
      ],
      "name": "Minted",
      "type": "event"
    },
    {
      "anonymous": false,
      "inputs": [
        {
          "indexed": true,
          "internalType": "address",
          "name": "previousManager",
          "type": "address"
        },
        {
          "indexed": true,
          "internalType": "address",
          "name": "newManager",
          "type": "address"
        }
      ],
      "name": "OwnershipTransferred",
      "type": "event"
    },
    {
      "anonymous": false,
      "inputs": [
        {
          "indexed": false,
          "internalType": "address",
          "name": "account",
          "type": "address"
        }
      ],
      "name": "Paused",
      "type": "event"
    },
    {
      "anonymous": false,
      "inputs": [
        {
          "indexed": false,
          "internalType": "bool",
          "name": "zeroForOne",
          "type": "bool"
        },
        {
          "indexed": false,
          "internalType": "int256",
          "name": "amount0",
          "type": "int256"
        },
        {
          "indexed": false,
          "internalType": "int256",
          "name": "amount1",
          "type": "int256"
        }
      ],
      "name": "Swapped",
      "type": "event"
    },
    {
      "anonymous": false,
      "inputs": [
        {
          "indexed": false,
          "internalType": "int24",
          "name": "bottomTick",
          "type": "int24"
        },
        {
          "indexed": false,
          "internalType": "int24",
          "name": "topTick",
          "type": "int24"
        }
      ],
      "name": "TicksSet",
      "type": "event"
    },
    {
      "anonymous": false,
      "inputs": [
        {
          "indexed": true,
          "internalType": "address",
          "name": "from",
          "type": "address"
        },
        {
          "indexed": true,
          "internalType": "address",
          "name": "to",
          "type": "address"
        },
        {
          "indexed": false,
          "internalType": "uint256",
          "name": "value",
          "type": "uint256"
        }
      ],
      "name": "Transfer",
      "type": "event"
    },
    {
      "anonymous": false,
      "inputs": [
        {
          "indexed": false,
          "internalType": "address",
          "name": "account",
          "type": "address"
        }
      ],
      "name": "Unpaused",
      "type": "event"
    },
    {
      "anonymous": false,
      "inputs": [
        {
          "indexed": true,
          "internalType": "address",
          "name": "implementation",
          "type": "address"
        }
      ],
      "name": "Upgraded",
      "type": "event"
    },
    {
      "inputs": [],
      "name": "MAX_MANAGING_FEE_BPS",
      "outputs": [
        {
          "internalType": "uint16",
          "name": "",
          "type": "uint16"
        }
      ],
      "stateMutability": "view",
      "type": "function"
    },
    {
      "inputs": [],
      "name": "MAX_PERFORMANCE_FEE_BPS",
      "outputs": [
        {
          "internalType": "uint16",
          "name": "",
          "type": "uint16"
        }
      ],
      "stateMutability": "view",
      "type": "function"
    },
    {
      "inputs": [
        {
          "internalType": "int24",
          "name": "newBottomTick",
          "type": "int24"
        },
        {
          "internalType": "int24",
          "name": "newTopTick",
          "type": "int24"
        },
        {
          "internalType": "uint256",
          "name": "amount0",
          "type": "uint256"
        },
        {
          "internalType": "uint256",
          "name": "amount1",
          "type": "uint256"
        }
      ],
      "name": "addLiquidity",
      "outputs": [
        {
          "internalType": "uint256",
          "name": "remainingAmount0",
          "type": "uint256"
        },
        {
          "internalType": "uint256",
          "name": "remainingAmount1",
          "type": "uint256"
        }
      ],
      "stateMutability": "nonpayable",
      "type": "function"
    },
    {
      "inputs": [
        {
          "internalType": "uint256",
          "name": "amount0Owed",
          "type": "uint256"
        },
        {
          "internalType": "uint256",
          "name": "amount1Owed",
          "type": "uint256"
        },
        {
          "internalType": "bytes",
          "name": "",
          "type": "bytes"
        }
      ],
      "name": "algebraMintCallback",
      "outputs": [],
      "stateMutability": "nonpayable",
      "type": "function"
    },
    {
      "inputs": [
        {
          "internalType": "int256",
          "name": "amount0Delta",
          "type": "int256"
        },
        {
          "internalType": "int256",
          "name": "amount1Delta",
          "type": "int256"
        },
        {
          "internalType": "bytes",
          "name": "",
          "type": "bytes"
        }
      ],
      "name": "algebraSwapCallback",
      "outputs": [],
      "stateMutability": "nonpayable",
      "type": "function"
    },
    {
      "inputs": [
        {
          "internalType": "address",
          "name": "owner",
          "type": "address"
        },
        {
          "internalType": "address",
          "name": "spender",
          "type": "address"
        }
      ],
      "name": "allowance",
      "outputs": [
        {
          "internalType": "uint256",
          "name": "",
          "type": "uint256"
        }
      ],
      "stateMutability": "view",
      "type": "function"
    },
    {
      "inputs": [
        {
          "internalType": "address",
          "name": "spender",
          "type": "address"
        },
        {
          "internalType": "uint256",
          "name": "amount",
          "type": "uint256"
        }
      ],
      "name": "approve",
      "outputs": [
        {
          "internalType": "bool",
          "name": "",
          "type": "bool"
        }
      ],
      "stateMutability": "nonpayable",
      "type": "function"
    },
    {
      "inputs": [
        {
          "internalType": "address",
          "name": "account",
          "type": "address"
        }
      ],
      "name": "balanceOf",
      "outputs": [
        {
          "internalType": "uint256",
          "name": "",
          "type": "uint256"
        }
      ],
      "stateMutability": "view",
      "type": "function"
    },
    {
      "inputs": [],
      "name": "bottomTick",
      "outputs": [
        {
          "internalType": "int24",
          "name": "",
          "type": "int24"
        }
      ],
      "stateMutability": "view",
      "type": "function"
    },
    {
      "inputs": [
        {
          "internalType": "uint256",
          "name": "burnAmount",
          "type": "uint256"
        }
      ],
      "name": "burn",
      "outputs": [
        {
          "internalType": "uint256",
          "name": "amount0",
          "type": "uint256"
        },
        {
          "internalType": "uint256",
          "name": "amount1",
          "type": "uint256"
        }
      ],
      "stateMutability": "nonpayable",
      "type": "function"
    },
    {
      "inputs": [],
      "name": "collectManager",
      "outputs": [],
      "stateMutability": "nonpayable",
      "type": "function"
    },
    {
      "inputs": [],
      "name": "decimals",
      "outputs": [
        {
          "internalType": "uint8",
          "name": "",
          "type": "uint8"
        }
      ],
      "stateMutability": "view",
      "type": "function"
    },
    {
      "inputs": [
        {
          "internalType": "address",
          "name": "spender",
          "type": "address"
        },
        {
          "internalType": "uint256",
          "name": "subtractedValue",
          "type": "uint256"
        }
      ],
      "name": "decreaseAllowance",
      "outputs": [
        {
          "internalType": "bool",
          "name": "",
          "type": "bool"
        }
      ],
      "stateMutability": "nonpayable",
      "type": "function"
    },
    {
      "inputs": [],
      "name": "factory",
      "outputs": [
        {
          "internalType": "address",
          "name": "",
          "type": "address"
        }
      ],
      "stateMutability": "view",
      "type": "function"
    },
    {
      "inputs": [],
      "name": "getCurrentFees",
      "outputs": [
        {
          "internalType": "uint256",
          "name": "fee0",
          "type": "uint256"
        },
        {
          "internalType": "uint256",
          "name": "fee1",
          "type": "uint256"
        }
      ],
      "stateMutability": "view",
      "type": "function"
    },
    {
      "inputs": [
        {
          "internalType": "uint256",
          "name": "amount0Max",
          "type": "uint256"
        },
        {
          "internalType": "uint256",
          "name": "amount1Max",
          "type": "uint256"
        }
      ],
      "name": "getMintAmounts",
      "outputs": [
        {
          "internalType": "uint256",
          "name": "amount0",
          "type": "uint256"
        },
        {
          "internalType": "uint256",
          "name": "amount1",
          "type": "uint256"
        },
        {
          "internalType": "uint256",
          "name": "mintAmount",
          "type": "uint256"
        }
      ],
      "stateMutability": "view",
      "type": "function"
    },
    {
      "inputs": [],
      "name": "getPositionID",
      "outputs": [
        {
          "internalType": "bytes32",
          "name": "positionID",
          "type": "bytes32"
        }
      ],
      "stateMutability": "view",
      "type": "function"
    },
    {
      "inputs": [],
      "name": "getUnderlyingBalances",
      "outputs": [
        {
          "internalType": "uint256",
          "name": "amount0Current",
          "type": "uint256"
        },
        {
          "internalType": "uint256",
          "name": "amount1Current",
          "type": "uint256"
        }
      ],
      "stateMutability": "view",
      "type": "function"
    },
    {
      "inputs": [
        {
          "internalType": "uint160",
          "name": "sqrtRatioX96",
          "type": "uint160"
        }
      ],
      "name": "getUnderlyingBalancesAtPrice",
      "outputs": [
        {
          "internalType": "uint256",
          "name": "amount0Current",
          "type": "uint256"
        },
        {
          "internalType": "uint256",
          "name": "amount1Current",
          "type": "uint256"
        }
      ],
      "stateMutability": "view",
      "type": "function"
    },
    {
      "inputs": [
        {
          "internalType": "uint256",
          "name": "fromIdx",
          "type": "uint256"
        },
        {
          "internalType": "uint256",
          "name": "toIdx",
          "type": "uint256"
        }
      ],
      "name": "getUserVaults",
      "outputs": [
        {
          "components": [
            {
              "internalType": "address",
              "name": "user",
              "type": "address"
            },
            {
              "internalType": "uint256",
              "name": "token0",
              "type": "uint256"
            },
            {
              "internalType": "uint256",
              "name": "token1",
              "type": "uint256"
            }
          ],
          "internalType": "struct IRangeProtocolVault.UserVaultInfo[]",
          "name": "",
          "type": "tuple[]"
        }
      ],
      "stateMutability": "view",
      "type": "function"
    },
    {
      "inputs": [],
      "name": "inThePosition",
      "outputs": [
        {
          "internalType": "bool",
          "name": "",
          "type": "bool"
        }
      ],
      "stateMutability": "view",
      "type": "function"
    },
    {
      "inputs": [
        {
          "internalType": "address",
          "name": "spender",
          "type": "address"
        },
        {
          "internalType": "uint256",
          "name": "addedValue",
          "type": "uint256"
        }
      ],
      "name": "increaseAllowance",
      "outputs": [
        {
          "internalType": "bool",
          "name": "",
          "type": "bool"
        }
      ],
      "stateMutability": "nonpayable",
      "type": "function"
    },
    {
      "inputs": [
        {
          "internalType": "address",
          "name": "_pool",
          "type": "address"
        },
        {
          "internalType": "int24",
          "name": "_tickSpacing",
          "type": "int24"
        },
        {
          "internalType": "bytes",
          "name": "data",
          "type": "bytes"
        }
      ],
      "name": "initialize",
      "outputs": [],
      "stateMutability": "nonpayable",
      "type": "function"
    },
    {
      "inputs": [],
      "name": "manager",
      "outputs": [
        {
          "internalType": "address",
          "name": "",
          "type": "address"
        }
      ],
      "stateMutability": "view",
      "type": "function"
    },
    {
      "inputs": [],
      "name": "managerBalance0",
      "outputs": [
        {
          "internalType": "uint256",
          "name": "",
          "type": "uint256"
        }
      ],
      "stateMutability": "view",
      "type": "function"
    },
    {
      "inputs": [],
      "name": "managerBalance1",
      "outputs": [
        {
          "internalType": "uint256",
          "name": "",
          "type": "uint256"
        }
      ],
      "stateMutability": "view",
      "type": "function"
    },
    {
      "inputs": [],
      "name": "managingFee",
      "outputs": [
        {
          "internalType": "uint16",
          "name": "",
          "type": "uint16"
        }
      ],
      "stateMutability": "view",
      "type": "function"
    },
    {
      "inputs": [
        {
          "internalType": "uint256",
          "name": "mintAmount",
          "type": "uint256"
        }
      ],
      "name": "mint",
      "outputs": [
        {
          "internalType": "uint256",
          "name": "amount0",
          "type": "uint256"
        },
        {
          "internalType": "uint256",
          "name": "amount1",
          "type": "uint256"
        }
      ],
      "stateMutability": "nonpayable",
      "type": "function"
    },
    {
      "inputs": [],
      "name": "mintStarted",
      "outputs": [
        {
          "internalType": "bool",
          "name": "",
          "type": "bool"
        }
      ],
      "stateMutability": "view",
      "type": "function"
    },
    {
      "inputs": [],
      "name": "name",
      "outputs": [
        {
          "internalType": "string",
          "name": "",
          "type": "string"
        }
      ],
      "stateMutability": "view",
      "type": "function"
    },
    {
      "inputs": [],
      "name": "pause",
      "outputs": [],
      "stateMutability": "nonpayable",
      "type": "function"
    },
    {
      "inputs": [],
      "name": "paused",
      "outputs": [
        {
          "internalType": "bool",
          "name": "",
          "type": "bool"
        }
      ],
      "stateMutability": "view",
      "type": "function"
    },
    {
      "inputs": [],
      "name": "performanceFee",
      "outputs": [
        {
          "internalType": "uint16",
          "name": "",
          "type": "uint16"
        }
      ],
      "stateMutability": "view",
      "type": "function"
    },
    {
      "inputs": [],
      "name": "pool",
      "outputs": [
        {
          "internalType": "contract IAlgebraPool",
          "name": "",
          "type": "address"
        }
      ],
      "stateMutability": "view",
      "type": "function"
    },
    {
      "inputs": [],
      "name": "proxiableUUID",
      "outputs": [
        {
          "internalType": "bytes32",
          "name": "",
          "type": "bytes32"
        }
      ],
      "stateMutability": "view",
      "type": "function"
    },
    {
      "inputs": [],
      "name": "pullFeeFromPool",
      "outputs": [],
      "stateMutability": "nonpayable",
      "type": "function"
    },
    {
      "inputs": [],
      "name": "removeLiquidity",
      "outputs": [],
      "stateMutability": "nonpayable",
      "type": "function"
    },
    {
      "inputs": [],
      "name": "renounceOwnership",
      "outputs": [],
      "stateMutability": "nonpayable",
      "type": "function"
    },
    {
      "inputs": [
        {
          "internalType": "bool",
          "name": "zeroForOne",
          "type": "bool"
        },
        {
          "internalType": "int256",
          "name": "swapAmount",
          "type": "int256"
        },
        {
          "internalType": "uint160",
          "name": "sqrtPriceLimitX96",
          "type": "uint160"
        }
      ],
      "name": "swap",
      "outputs": [
        {
          "internalType": "int256",
          "name": "amount0",
          "type": "int256"
        },
        {
          "internalType": "int256",
          "name": "amount1",
          "type": "int256"
        }
      ],
      "stateMutability": "nonpayable",
      "type": "function"
    },
    {
      "inputs": [],
      "name": "symbol",
      "outputs": [
        {
          "internalType": "string",
          "name": "",
          "type": "string"
        }
      ],
      "stateMutability": "view",
      "type": "function"
    },
    {
      "inputs": [],
      "name": "tickSpacing",
      "outputs": [
        {
          "internalType": "int24",
          "name": "",
          "type": "int24"
        }
      ],
      "stateMutability": "view",
      "type": "function"
    },
    {
      "inputs": [],
      "name": "token0",
      "outputs": [
        {
          "internalType": "contract IERC20Upgradeable",
          "name": "",
          "type": "address"
        }
      ],
      "stateMutability": "view",
      "type": "function"
    },
    {
      "inputs": [],
      "name": "token1",
      "outputs": [
        {
          "internalType": "contract IERC20Upgradeable",
          "name": "",
          "type": "address"
        }
      ],
      "stateMutability": "view",
      "type": "function"
    },
    {
      "inputs": [],
      "name": "topTick",
      "outputs": [
        {
          "internalType": "int24",
          "name": "",
          "type": "int24"
        }
      ],
      "stateMutability": "view",
      "type": "function"
    },
    {
      "inputs": [],
      "name": "totalSupply",
      "outputs": [
        {
          "internalType": "uint256",
          "name": "",
          "type": "uint256"
        }
      ],
      "stateMutability": "view",
      "type": "function"
    },
    {
      "inputs": [
        {
          "internalType": "address",
          "name": "to",
          "type": "address"
        },
        {
          "internalType": "uint256",
          "name": "amount",
          "type": "uint256"
        }
      ],
      "name": "transfer",
      "outputs": [
        {
          "internalType": "bool",
          "name": "",
          "type": "bool"
        }
      ],
      "stateMutability": "nonpayable",
      "type": "function"
    },
    {
      "inputs": [
        {
          "internalType": "address",
          "name": "from",
          "type": "address"
        },
        {
          "internalType": "address",
          "name": "to",
          "type": "address"
        },
        {
          "internalType": "uint256",
          "name": "amount",
          "type": "uint256"
        }
      ],
      "name": "transferFrom",
      "outputs": [
        {
          "internalType": "bool",
          "name": "",
          "type": "bool"
        }
      ],
      "stateMutability": "nonpayable",
      "type": "function"
    },
    {
      "inputs": [
        {
          "internalType": "address",
          "name": "newManager",
          "type": "address"
        }
      ],
      "name": "transferOwnership",
      "outputs": [],
      "stateMutability": "nonpayable",
      "type": "function"
    },
    {
      "inputs": [],
      "name": "unpause",
      "outputs": [],
      "stateMutability": "nonpayable",
      "type": "function"
    },
    {
      "inputs": [
        {
          "internalType": "uint16",
          "name": "newManagingFee",
          "type": "uint16"
        },
        {
          "internalType": "uint16",
          "name": "newPerformanceFee",
          "type": "uint16"
        }
      ],
      "name": "updateFees",
      "outputs": [],
      "stateMutability": "nonpayable",
      "type": "function"
    },
    {
      "inputs": [
        {
          "internalType": "int24",
          "name": "_bottomTick",
          "type": "int24"
        },
        {
          "internalType": "int24",
          "name": "_topTick",
          "type": "int24"
        }
      ],
      "name": "updateTicks",
      "outputs": [],
      "stateMutability": "nonpayable",
      "type": "function"
    },
    {
      "inputs": [
        {
          "internalType": "address",
          "name": "newImplementation",
          "type": "address"
        }
      ],
      "name": "upgradeTo",
      "outputs": [],
      "stateMutability": "nonpayable",
      "type": "function"
    },
    {
      "inputs": [
        {
          "internalType": "address",
          "name": "newImplementation",
          "type": "address"
        },
        {
          "internalType": "bytes",
          "name": "data",
          "type": "bytes"
        }
      ],
      "name": "upgradeToAndCall",
      "outputs": [],
      "stateMutability": "payable",
      "type": "function"
    },
    {
      "inputs": [],
      "name": "userCount",
      "outputs": [
        {
          "internalType": "uint256",
          "name": "",
          "type": "uint256"
        }
      ],
      "stateMutability": "view",
      "type": "function"
    },
    {
      "inputs": [
        {
          "internalType": "address",
          "name": "",
          "type": "address"
        }
      ],
      "name": "userVaults",
      "outputs": [
        {
          "internalType": "bool",
          "name": "exists",
          "type": "bool"
        },
        {
          "internalType": "uint256",
          "name": "token0",
          "type": "uint256"
        },
        {
          "internalType": "uint256",
          "name": "token1",
          "type": "uint256"
        }
      ],
      "stateMutability": "view",
      "type": "function"
    },
    {
      "inputs": [
        {
          "internalType": "uint256",
          "name": "",
          "type": "uint256"
        }
      ],
      "name": "users",
      "outputs": [
        {
          "internalType": "address",
          "name": "",
          "type": "address"
        }
      ],
      "stateMutability": "view",
      "type": "function"
    }
  ],
  "bytecode": "0x60a06040523060601b6080523480156200001857600080fd5b506200002362000029565b620000eb565b600054610100900460ff1615620000965760405162461bcd60e51b815260206004820152602760248201527f496e697469616c697a61626c653a20636f6e747261637420697320696e697469604482015266616c697a696e6760c81b606482015260840160405180910390fd5b60005460ff9081161015620000e9576000805460ff191660ff9081179091556040519081527f7f26b83ff96e1f2b6a682f133852f6798a09c465da95921460cefb38474024989060200160405180910390a15b565b60805160601c615cf46200012660003960008181610db401528181610dfd015281816116d601528181611716015261184a0152615cf46000f3fe60806040526004361061036b5760003560e01c8063601b48a4116101c6578063a9059cbb116100f7578063d7e458b511610095578063f2fde38b1161006f578063f2fde38b14610a36578063f3d2350e14610a56578063f8c2e29b14610a76578063fd87f9aa14610a8b57600080fd5b8063d7e458b5146109ec578063dd62ed3e14610a01578063df28408a14610a2157600080fd5b8063c45a0155116100d1578063c45a01551461095b578063c653089f1461097c578063d0c93a7c146109a9578063d21220a7146109cb57600080fd5b8063a9059cbb146108f9578063a9722cf314610919578063b670ed7d1461093b57600080fd5b80638456cb591161016457806395d89b411161013e57806395d89b41146108695780639894f21a1461087e578063a0712d68146108b9578063a457c2d7146108d957600080fd5b80638456cb591461081c57806387788782146108315780639403c1ae1461085457600080fd5b806370889165116101a057806370889165146107a657806370a08231146107bc578063715018a6146107f257806371908a031461080757600080fd5b8063601b48a414610739578063675248471461076f57806367b9a2861461079157600080fd5b80633659cfe6116102a057806342966c681161023e5780634f1ef286116102185780634f1ef286146106d85780634fa62c5f146106eb57806352d1902d1461070b5780635c975abb1461072057600080fd5b806342966c681461068357806342fb9d44146106a3578063481c6a75146106ba57600080fd5b80633d048c271161027a5780633d048c271461060c5780633dd657c51461062c5780633f4ba83a1461064c5780634043f5ca1461066157600080fd5b80633659cfe6146105ac578063365b98b2146105cc57806339509351146105ec57600080fd5b806316f0115b1161030d57806323b872dd116102e757806323b872dd146104f05780632958d031146105105780632c8958f61461056e578063313ce5671461059057600080fd5b806316f0115b1461049357806318160ddd146104bb578063195cd92c146104d057600080fd5b806307973ccf1161034957806307973ccf146103ea578063095ea7b3146104005780630dfe1681146104305780631322d9541461046957600080fd5b80630191318214610370578063065756db146103a357806306fdde03146103c8575b600080fd5b34801561037c57600080fd5b5061015f5461038b9060020b81565b60405160029190910b81526020015b60405180910390f35b3480156103af57600080fd5b506103ba6101635481565b60405190815260200161039a565b3480156103d457600080fd5b506103dd610aab565b60405161039a9190615907565b3480156103f657600080fd5b50610166546103ba565b34801561040c57600080fd5b5061042061041b366004615445565b610b3d565b604051901515815260200161039a565b34801561043c57600080fd5b5061016054610451906001600160a01b031681565b6040516001600160a01b03909116815260200161039a565b34801561047557600080fd5b5061047e610b55565b6040805192835260208301919091520161039a565b34801561049f57600080fd5b5061015f5461045190600160581b90046001600160a01b031681565b3480156104c757600080fd5b5060fd546103ba565b3480156104dc57600080fd5b5061047e6104eb36600461548c565b610bff565b3480156104fc57600080fd5b5061042061050b366004615361565b610d04565b34801561051c57600080fd5b5061055161052b36600461527d565b6101656020526000908152604090208054600182015460029092015460ff909116919083565b60408051931515845260208401929092529082015260600161039a565b34801561057a57600080fd5b5061058e61058936600461557a565b610d2a565b005b34801561059c57600080fd5b506040516012815260200161039a565b3480156105b857600080fd5b5061058e6105c736600461527d565b610da9565b3480156105d857600080fd5b506104516105e73660046157c2565b610e92565b3480156105f857600080fd5b50610420610607366004615445565b610ebd565b34801561061857600080fd5b5061058e6106273660046153ef565b610edf565b34801561063857600080fd5b5061058e61064736600461557a565b611244565b34801561065857600080fd5b5061058e6112b2565b34801561066d57600080fd5b5061015f5461042090600160301b900460ff1681565b34801561068f57600080fd5b5061047e61069e3660046157c2565b6112c4565b3480156106af57600080fd5b506103ba6101645481565b3480156106c657600080fd5b5060c9546001600160a01b0316610451565b61058e6106e63660046153a1565b6116cb565b3480156106f757600080fd5b5061058e6107063660046154e5565b61179c565b34801561071757600080fd5b506103ba61183d565b34801561072c57600080fd5b5061012d5460ff16610420565b34801561074557600080fd5b506101625461075c90600160a01b900461ffff1681565b60405161ffff909116815260200161039a565b34801561077b57600080fd5b5061015f5461038b906301000000900460020b81565b34801561079d57600080fd5b5061058e6118f0565b3480156107b257600080fd5b5061075c6103e881565b3480156107c857600080fd5b506103ba6107d736600461527d565b6001600160a01b0316600090815260fb602052604090205490565b3480156107fe57600080fd5b5061058e611ae3565b34801561081357600080fd5b5061047e611af5565b34801561082857600080fd5b5061058e611c96565b34801561083d57600080fd5b506101625461075c90600160b01b900461ffff1681565b34801561086057600080fd5b5061058e611ca6565b34801561087557600080fd5b506103dd611d20565b34801561088a57600080fd5b5061089e6108993660046157da565b611d2f565b6040805193845260208401929092529082015260600161039a565b3480156108c557600080fd5b5061047e6108d43660046157c2565b611ebb565b3480156108e557600080fd5b506104206108f4366004615445565b6122aa565b34801561090557600080fd5b50610420610914366004615445565b612330565b34801561092557600080fd5b5061015f5461042090600160381b900460ff1681565b34801561094757600080fd5b5061047e61095636600461527d565b61233e565b34801561096757600080fd5b5061016254610451906001600160a01b031681565b34801561098857600080fd5b5061099c6109973660046157da565b6123e6565b60405161039a9190615897565b3480156109b557600080fd5b5061015f5461038b90600160401b900460020b81565b3480156109d757600080fd5b5061016154610451906001600160a01b031681565b3480156109f857600080fd5b5061058e6125c4565b348015610a0d57600080fd5b506103ba610a1c366004615329565b612637565b348015610a2d57600080fd5b506103ba612662565b348015610a4257600080fd5b5061058e610a5136600461527d565b61268d565b348015610a6257600080fd5b5061058e610a71366004615795565b612705565b348015610a8257600080fd5b5061075c606481565b348015610a9757600080fd5b5061047e610aa6366004615512565b6127c9565b606060fe8054610aba90615b2c565b80601f0160208091040260200160405190810160405280929190818152602001828054610ae690615b2c565b8015610b335780601f10610b0857610100808354040283529160200191610b33565b820191906000526020600020905b815481529060010190602001808311610b1657829003601f168201915b5050505050905090565b600033610b4b818585612ac2565b5060019392505050565b60008060008061015f600b9054906101000a90046001600160a01b03166001600160a01b031663e76c01e46040518163ffffffff1660e01b815260040160e06040518083038186803b158015610baa57600080fd5b505afa158015610bbe573d6000803e3d6000fd5b505050506040513d601f19601f82011682018060405250810190610be29190615701565b505050505091509150610bf58282612be6565b9350935050509091565b600080610c0a612e92565b61015f54604051630251596160e31b81523060048201528615156024820152604481018690526001600160a01b03858116606483015260a06084830152600060a4830152600160581b9092049091169063128acb089060c4016040805180830381600087803b158015610c7c57600080fd5b505af1158015610c90573d6000803e3d6000fd5b505050506040513d601f19601f82011682018060405250810190610cb49190615557565b6040805188151581526020810184905290810182905291935091507fbf511038cfa32cfb7971e976074c0e6aeda010e6afcbb38d87b4f910305014949060600160405180910390a1935093915050565b600033610d12858285612ef7565b610d1d858585612f6b565b60019150505b9392505050565b61015f54600160581b90046001600160a01b03163314610d5c57604051620b7d9960e41b815260040160405180910390fd5b6000841315610d825761016054610d7d906001600160a01b03163386613116565b610da3565b6000831315610da35761016154610da3906001600160a01b03163385613116565b50505050565b306001600160a01b037f0000000000000000000000000000000000000000000000000000000000000000161415610dfb5760405162461bcd60e51b8152600401610df29061593a565b60405180910390fd5b7f00000000000000000000000000000000000000000000000000000000000000006001600160a01b0316610e44600080516020615c78833981519152546001600160a01b031690565b6001600160a01b031614610e6a5760405162461bcd60e51b8152600401610df290615986565b610e738161317e565b60408051600080825260208201909252610e8f918391906131aa565b50565b6101668181548110610ea357600080fd5b6000918252602090912001546001600160a01b0316905081565b600033610b4b818585610ed08383612637565b610eda9190615a76565b612ac2565b600054610100900460ff1615808015610eff5750600054600160ff909116105b80610f195750303b158015610f19575060005460ff166001145b610f7c5760405162461bcd60e51b815260206004820152602e60248201527f496e697469616c697a61626c653a20636f6e747261637420697320616c72656160448201526d191e481a5b9a5d1a585b1a5e995960921b6064820152608401610df2565b6000805460ff191660011790558015610f9f576000805461ff0019166101001790555b600080600084806020019051810190610fb891906152b5565b925092509250610fc6613324565b610fce61334b565b610fd661337a565b610fe082826133a9565b610fe86133da565b610ff183613409565b8661015f600b6101000a8154816001600160a01b0302191690836001600160a01b0316021790555061015f600b9054906101000a90046001600160a01b03166001600160a01b0316630dfe16816040518163ffffffff1660e01b815260040160206040518083038186803b15801561106857600080fd5b505afa15801561107c573d6000803e3d6000fd5b505050506040513d601f19601f820116820180604052508101906110a09190615299565b61016080546001600160a01b0319166001600160a01b0392831617905561015f546040805163d21220a760e01b81529051600160581b9092049092169163d21220a7916004808301926020929190829003018186803b15801561110257600080fd5b505afa158015611116573d6000803e3d6000fd5b505050506040513d601f19601f8201168201806040525081019061113a9190615299565b61016180546001600160a01b0319166001600160a01b039290921691909117905561015f80546affffff00000000000000001916600160401b62ffffff60028a900b16021790556101628054600163ffff000160a01b0319163361ffff60b01b191617607d60b11b1761ffff60a01b191690819055604080516000815261ffff600160b01b9093049290921660208301527f2ac80c14c28700f7b5e36f947d572149fe2e3947bac32c3a8c098f3e03722c11910160405180910390a15050508015610da3576000805461ff0019169055604051600181527f7f26b83ff96e1f2b6a682f133852f6798a09c465da95921460cefb38474024989060200160405180910390a150505050565b61015f54600160581b90046001600160a01b0316331461127657604051620b7d9960e41b815260040160405180910390fd5b83156112945761016054611294906001600160a01b03163386613116565b8215610da35761016154610da3906001600160a01b03163385613116565b6112ba612e92565b6112c261345b565b565b6000806112cf6134ae565b6112d7613508565b826112f5576040516302075cc160e41b815260040160405180910390fd5b600061130060fd5490565b33600081815260fb602052604090205491925061131d908661354f565b61015f54600160301b900460ff16156115595761015f54600090600160581b90046001600160a01b031663514ea4bf611354612662565b6040518263ffffffff1660e01b815260040161137291815260200190565b60c06040518083038186803b15801561138a57600080fd5b505afa15801561139e573d6000803e3d6000fd5b505050506040513d601f19601f820116820180604052508101906113c2919061569c565b5050505050905060006113df87836001600160801b031686613683565b905060006113ec82613732565b90506000806000806113fd8561379f565b935093509350935061140f8282613b41565b6114198282613bb2565b60408051838152602081018390529294509092507fc28ad1de9c0c32e5394ba60323e44d8d9536312236a47231772e448a3e49de42910160405180910390a161016354610160546040516370a0823160e01b81523060048201526114fb929187916001600160a01b03909116906370a08231906024015b60206040518083038186803b1580156114a857600080fd5b505afa1580156114bc573d6000803e3d6000fd5b505050506040513d601f19601f820116820180604052508101906114e091906154cd565b6114ea9190615ae9565b6114f49190615ae9565b8d8b613683565b6115059085615a76565b61016454610161546040516370a0823160e01b8152306004820152929d506115419286916001600160a01b0316906370a0823190602401611490565b61154b9084615a76565b995050505050505050611585565b600080611564610b55565b91509150611573828886613683565b9550611580818886613683565b945050505b61158f8484613c1d565b60008061159c8686613c39565b9092509050851561160b57826115b28882615ae9565b33600090815261016560205260409020600101546115d09190615aa2565b6115da9190615a8e565b33600081815261016560205260409020600101919091556101605461160b916001600160a01b039091169084613116565b8415611675578261161c8882615ae9565b336000908152610165602052604090206002015461163a9190615aa2565b6116449190615a8e565b336000818152610165602052604090206002019190915561016154611675916001600160a01b039091169083613116565b604080518881526020810184905290810182905233907f4c60206a5c1de41f3376d1d60f0949d96cb682033c90b1c2d9d9a62d4c4120c09060600160405180910390a2505050506116c66001606555565b915091565b306001600160a01b037f00000000000000000000000000000000000000000000000000000000000000001614156117145760405162461bcd60e51b8152600401610df29061593a565b7f00000000000000000000000000000000000000000000000000000000000000006001600160a01b031661175d600080516020615c78833981519152546001600160a01b031690565b6001600160a01b0316146117835760405162461bcd60e51b8152600401610df290615986565b61178c8261317e565b611798828260016131aa565b5050565b6117a4612e92565b60fd541515806117be575061015f54600160301b900460ff165b156117dc57604051632a2c70bb60e11b815260040160405180910390fd5b6117e68282613c62565b61015f54600160381b900460ff166117985761015f805467ff000000000000001916600160381b1790556040517f452a344f03203071e1daf66e007976c85cb2380deabf1c91f3c4fb1fca41204990600090a15050565b6000306001600160a01b037f000000000000000000000000000000000000000000000000000000000000000016146118dd5760405162461bcd60e51b815260206004820152603860248201527f555550535570677261646561626c653a206d757374206e6f742062652063616c60448201527f6c6564207468726f7567682064656c656761746563616c6c00000000000000006064820152608401610df2565b50600080516020615c7883398151915290565b6118f8612e92565b61015f54600090600160581b90046001600160a01b031663514ea4bf61191c612662565b6040518263ffffffff1660e01b815260040161193a91815260200190565b60c06040518083038186803b15801561195257600080fd5b505afa158015611966573d6000803e3d6000fd5b505050506040513d601f19601f8201168201806040525081019061198a919061569c565b505050505090506000816001600160801b03161115611a855761015f54600281810b9163010000009004900b60008080806119c48761379f565b604080516001600160801b038d16815260028c810b60208301528b900b818301526060810186905260808101859052905194985092965090945092507f6d7e1841bf97c0b736eafb2779459ba1e0af2305cead28a8e97533589ceb2f65919081900360a00190a1611a358282613b41565b611a3f8282613bb2565b60408051838152602081018390529294509092507fc28ad1de9c0c32e5394ba60323e44d8d9536312236a47231772e448a3e49de42910160405180910390a15050505050505b61015f805462ffffff63010000008204600290810b900b1666ff000000ffffff19909116179055604051600081527fd9279952b347fd14af9b788aff1029c0d3b1299b7dcce164fc602a1b958c48809060200160405180910390a150565b611aeb612e92565b6112c26000613409565b600080600061015f600b9054906101000a90046001600160a01b03166001600160a01b031663e76c01e46040518163ffffffff1660e01b815260040160e06040518083038186803b158015611b4957600080fd5b505afa158015611b5d573d6000803e3d6000fd5b505050506040513d601f19601f82011682018060405250810190611b819190615701565b5050505050915050600080600080600061015f600b9054906101000a90046001600160a01b03166001600160a01b031663514ea4bf611bbe612662565b6040518263ffffffff1660e01b8152600401611bdc91815260200190565b60c06040518083038186803b158015611bf457600080fd5b505afa158015611c08573d6000803e3d6000fd5b505050506040513d601f19601f82011682018060405250810190611c2c919061569c565b9550955095509550509450816001600160801b0316611c4e6001868989613d22565b611c589190615a76565b9750806001600160801b0316611c716000858989613d22565b611c7b9190615a76565b9650611c878888613bb2565b90999098509650505050505050565b611c9e612e92565b6112c2614124565b611cae612e92565b61016380546101648054600093849055929055908115611cf157611cf1611cdd60c9546001600160a01b031690565b610160546001600160a01b03169084613116565b801561179857611798611d0c60c9546001600160a01b031690565b610161546001600160a01b03169083613116565b606060ff8054610aba90615b2c565b600080600061015f60079054906101000a900460ff16611d6257604051630314872760e11b815260040160405180910390fd5b6000611d6d60fd5490565b90508015611d8c57611d80818787614162565b91955093509150611eb3565b600061015f600b9054906101000a90046001600160a01b03166001600160a01b031663e76c01e46040518163ffffffff1660e01b815260040160e06040518083038186803b158015611ddd57600080fd5b505afa158015611df1573d6000803e3d6000fd5b505050506040513d601f19601f82011682018060405250810190611e159190615701565b50505050505090506000611e6182611e3f61015f60009054906101000a900460020b60020b614265565b61015f54611e5a9063010000009004600290810b900b614265565b8b8b614682565b61015f546001600160801b0382169550909150611eab908390611e8a90600290810b900b614265565b61015f54611ea59063010000009004600290810b900b614265565b84614746565b909650945050505b509250925092565b600080611ec66134ae565b611ece613508565b61015f54600160381b900460ff16611ef957604051630314872760e11b815260040160405180910390fd5b82611f175760405163199f5a0360e31b815260040160405180910390fd5b6000611f2260fd5490565b61015f54604080516339db007960e21b81529051929350600160301b820460ff1692600092600160581b90046001600160a01b03169163e76c01e49160048083019260e0929190829003018186803b158015611f7d57600080fd5b505afa158015611f91573d6000803e3d6000fd5b505050506040513d601f19601f82011682018060405250810190611fb59190615701565b50505050505090506000831115611ff657600080611fd1610b55565b91509150611fe08289876147e2565b9650611fed8189876147e2565b95505050612062565b81156120495761015f5461203f90829061201690600290810b900b614265565b61015f546120319063010000009004600290810b900b614265565b61203a8a613732565b614746565b9095509350612062565b60405163344fa43b60e01b815260040160405180910390fd5b336000908152610165602052604090205460ff166120d95733600081815261016560205260408120805460ff19166001908117909155610166805491820181559091527fa5a4c57b7184ec73d55be4993773cb4eef681bc86a28d0285cd66efb50676a970180546001600160a01b03191690911790555b841561212057336000908152610165602052604081206001018054879290612102908490615a76565b909155505061016054612120906001600160a01b0316333088614830565b831561216757336000908152610165602052604081206002018054869290612149908490615a76565b909155505061016154612167906001600160a01b0316333087614830565b6121713387614868565b811561225a5761015f546000906121b690839061219490600290810b900b614265565b61015f546121af9063010000009004600290810b900b614265565b8989614682565b61015f546040516302abf8a760e61b81529192506001600160a01b03600160581b8204169163aafe29c0916122039130918291600282810b9263010000009004900b90889060040161584b565b606060405180830381600087803b15801561221d57600080fd5b505af1158015612231573d6000803e3d6000fd5b505050506040513d601f19601f8201168201806040525081019061225591906157fb565b505050505b604080518781526020810187905290810185905233907f5a3358a3d27a5373c0df2604662088d37894d56b7cfd27f315770440f4e0d9199060600160405180910390a25050506116c66001606555565b600033816122b88286612637565b9050838110156123185760405162461bcd60e51b815260206004820152602560248201527f45524332303a2064656372656173656420616c6c6f77616e63652062656c6f77604482015264207a65726f60d81b6064820152608401610df2565b6123258286868403612ac2565b506001949350505050565b600033610b4b818585612f6b565b600080600061015f600b9054906101000a90046001600160a01b03166001600160a01b031663e76c01e46040518163ffffffff1660e01b815260040160e06040518083038186803b15801561239257600080fd5b505afa1580156123a6573d6000803e3d6000fd5b505050506040513d601f19601f820116820180604052508101906123ca9190615701565b50505050509150506123dc8482612be6565b9250925050915091565b6060821580156123f4575081155b15612400576101665491505b600061240c8484615ae9565b67ffffffffffffffff81111561243257634e487b7160e01b600052604160045260246000fd5b60405190808252806020026020018201604052801561249057816020015b61247d604051806060016040528060006001600160a01b0316815260200160008152602001600081525090565b8152602001906001900390816124505790505b5090506000845b848110156125ba576000610165600061016684815481106124c857634e487b7160e01b600052603260045260246000fd5b60009182526020808320909101546001600160a01b031683528281019390935260409182019020815160608082018452825460ff1615158252600183015494820194909452600290910154818301528151928301909152610166805491935082918590811061254757634e487b7160e01b600052603260045260246000fd5b600091825260209182902001546001600160a01b031682528381015190820152604080840151910152848461257b81615b67565b95508151811061259b57634e487b7160e01b600052603260045260246000fd5b60200260200101819052505080806125b290615b67565b915050612497565b5090949350505050565b6125cc612e92565b6000806125d9600061379f565b9350935050506125e98282613b41565b6125f38282613bb2565b60408051838152602081018390529294509092507fc28ad1de9c0c32e5394ba60323e44d8d9536312236a47231772e448a3e49de4291015b60405180910390a15050565b6001600160a01b03918216600090815260fc6020908152604080832093909416825291909152205490565b61015f5430601890811b62ffffff600284810b82169290921790921b6301000000909304900b161790565b612695612e92565b6001600160a01b0381166126fc5760405162461bcd60e51b815260206004820152602860248201527f4f776e61626c653a206e6577206d616e6167657220697320746865207a65726f604482015267206164647265737360c01b6064820152608401610df2565b610e8f81613409565b61270d612e92565b606461ffff83161115612733576040516313f90f0b60e31b815260040160405180910390fd5b6103e861ffff8216111561275a57604051630f14508d60e41b815260040160405180910390fd5b610162805463ffffffff60a01b1916600160a01b61ffff85811691820261ffff60b01b191692909217600160b01b928516928302179092556040805192835260208301919091527f2ac80c14c28700f7b5e36f947d572149fe2e3947bac32c3a8c098f3e03722c11910161262b565b6000806127d4612e92565b6127de8686614929565b600061015f600b9054906101000a90046001600160a01b03166001600160a01b031663e76c01e46040518163ffffffff1660e01b815260040160e06040518083038186803b15801561282f57600080fd5b505afa158015612843573d6000803e3d6000fd5b505050506040513d601f19601f820116820180604052508101906128679190615701565b5050505050509050600061288d826128818a60020b614265565b6121af8a60020b614265565b90506001600160801b03811615612a595761015f546040516302abf8a760e61b81526000918291600160581b9091046001600160a01b03169063aafe29c0906128e290309081908f908f908a9060040161584b565b606060405180830381600087803b1580156128fc57600080fd5b505af1158015612910573d6000803e3d6000fd5b505050506040513d601f19601f8201168201806040525081019061293491906157fb565b5090925090506129448289615ae9565b95506129508188615ae9565b61015f5490955060028b810b91810b900b141580612981575061015f5460028a810b6301000000909204810b900b14155b156129fb5761015f805460028b810b62ffffff90811663010000000265ffffffffffff19909316918e900b16171790556040517f8e3ac6cc9b82795b40740ca4e954df8f6655fe35e80cdc6fb33d50c3423fcd16906129f2908c908c90600292830b8152910b602082015260400190565b60405180910390a15b604080516001600160801b038516815260028c810b60208301528b900b81830152606081018490526080810183905290517ffa715a0b1bc7287b5d3581c11478041b0455aad0c17361fc1e55fffbdd4b6c4f9181900360a00190a150505b61015f54600160301b900460ff16612ab75761015f805466ff0000000000001916600160301b179055604051600181527fd9279952b347fd14af9b788aff1029c0d3b1299b7dcce164fc602a1b958c48809060200160405180910390a15b505094509492505050565b6001600160a01b038316612b245760405162461bcd60e51b8152602060048201526024808201527f45524332303a20617070726f76652066726f6d20746865207a65726f206164646044820152637265737360e01b6064820152608401610df2565b6001600160a01b038216612b855760405162461bcd60e51b815260206004820152602260248201527f45524332303a20617070726f766520746f20746865207a65726f206164647265604482015261737360f01b6064820152608401610df2565b6001600160a01b03838116600081815260fc602090815260408083209487168084529482529182902085905590518481527f8c5be1e5ebec7d5bd14f71427d1e84f3dd0314c0f7b2291e5b200ac8c7c3b925910160405180910390a3505050565b600080600080600080600061015f600b9054906101000a90046001600160a01b03166001600160a01b031663514ea4bf612c1e612662565b6040518263ffffffff1660e01b8152600401612c3c91815260200190565b60c06040518083038186803b158015612c5457600080fd5b505afa158015612c68573d6000803e3d6000fd5b505050506040513d601f19601f82011682018060405250810190612c8c919061569c565b9550955095509550509450600080866001600160801b0316600014612d415761015f54612ce6908c90612cc590600290810b900b614265565b61015f54612ce09063010000009004600290810b900b614265565b8a614746565b90995097506001600160801b038416612d026001888d8b613d22565b612d0c9190615a76565b9150826001600160801b0316612d256000878d8b613d22565b612d2f9190615a76565b9050612d3b8282613bb2565b90925090505b61016354610160546040516370a0823160e01b81523060048201526001600160a01b03909116906370a082319060240160206040518083038186803b158015612d8957600080fd5b505afa158015612d9d573d6000803e3d6000fd5b505050506040513d601f19601f82011682018060405250810190612dc191906154cd565b612dcb9084615a76565b612dd59190615ae9565b612ddf908a615a76565b61016454610161546040516370a0823160e01b8152306004820152929b5090916001600160a01b03909116906370a082319060240160206040518083038186803b158015612e2c57600080fd5b505afa158015612e40573d6000803e3d6000fd5b505050506040513d601f19601f82011682018060405250810190612e6491906154cd565b612e6e9083615a76565b612e789190615ae9565b612e829089615a76565b9750505050505050509250929050565b60c9546001600160a01b031633146112c25760405162461bcd60e51b815260206004820152602260248201527f4f776e61626c653a2063616c6c6572206973206e6f7420746865206d616e616760448201526132b960f11b6064820152608401610df2565b6000612f038484612637565b90506000198114610da35781811015612f5e5760405162461bcd60e51b815260206004820152601d60248201527f45524332303a20696e73756666696369656e7420616c6c6f77616e63650000006044820152606401610df2565b610da38484848403612ac2565b6001600160a01b038316612fcf5760405162461bcd60e51b815260206004820152602560248201527f45524332303a207472616e736665722066726f6d20746865207a65726f206164604482015264647265737360d81b6064820152608401610df2565b6001600160a01b0382166130315760405162461bcd60e51b815260206004820152602360248201527f45524332303a207472616e7366657220746f20746865207a65726f206164647260448201526265737360e81b6064820152608401610df2565b6001600160a01b038316600090815260fb6020526040902054818110156130a95760405162461bcd60e51b815260206004820152602660248201527f45524332303a207472616e7366657220616d6f756e7420657863656564732062604482015265616c616e636560d01b6064820152608401610df2565b6001600160a01b03808516600081815260fb602052604080822086860390559286168082529083902080548601905591517fddf252ad1be2c89b69c2b068fc378daa952ba7f163c4a11628f55a4df523b3ef906131099086815260200190565b60405180910390a3610da3565b6040516001600160a01b03831660248201526044810182905261317990849063a9059cbb60e01b906064015b60408051601f198184030181529190526020810180516001600160e01b03166001600160e01b0319909316929092179091526149de565b505050565b610162546001600160a01b03163314610e8f57604051631b1319e560e01b815260040160405180910390fd5b7f4910fdfa16fed3260ed0e7147f7cc6da11a60208b5b9406d12a635614ffd91435460ff16156131dd5761317983614ab0565b826001600160a01b03166352d1902d6040518163ffffffff1660e01b815260040160206040518083038186803b15801561321657600080fd5b505afa925050508015613246575060408051601f3d908101601f19168201909252613243918101906154cd565b60015b6132a95760405162461bcd60e51b815260206004820152602e60248201527f45524331393637557067726164653a206e657720696d706c656d656e7461746960448201526d6f6e206973206e6f74205555505360901b6064820152608401610df2565b600080516020615c7883398151915281146133185760405162461bcd60e51b815260206004820152602960248201527f45524331393637557067726164653a20756e737570706f727465642070726f786044820152681a58589b195555525160ba1b6064820152608401610df2565b50613179838383614b4c565b600054610100900460ff166112c25760405162461bcd60e51b8152600401610df2906159d2565b600054610100900460ff166133725760405162461bcd60e51b8152600401610df2906159d2565b6112c2614b71565b600054610100900460ff166133a15760405162461bcd60e51b8152600401610df2906159d2565b6112c2614b98565b600054610100900460ff166133d05760405162461bcd60e51b8152600401610df2906159d2565b6117988282614bc8565b600054610100900460ff166134015760405162461bcd60e51b8152600401610df2906159d2565b6112c2614c16565b60c980546001600160a01b038381166001600160a01b0319831681179093556040519116919082907f8be0079c531659141344cd1fd0a4f28419497f9722a3daafe3b4186f6b6457e090600090a35050565b613463614c4a565b61012d805460ff191690557f5db9ee0a495bf2e6ff9c91a7834c1ba4fdd244a5e8aa4e537bd38aeae4b073aa335b6040516001600160a01b03909116815260200160405180910390a1565b600260655414156135015760405162461bcd60e51b815260206004820152601f60248201527f5265656e7472616e637947756172643a207265656e7472616e742063616c6c006044820152606401610df2565b6002606555565b61012d5460ff16156112c25760405162461bcd60e51b815260206004820152601060248201526f14185d5cd8589b194e881c185d5cd95960821b6044820152606401610df2565b6001600160a01b0382166135af5760405162461bcd60e51b815260206004820152602160248201527f45524332303a206275726e2066726f6d20746865207a65726f206164647265736044820152607360f81b6064820152608401610df2565b6001600160a01b038216600090815260fb6020526040902054818110156136235760405162461bcd60e51b815260206004820152602260248201527f45524332303a206275726e20616d6f756e7420657863656564732062616c616e604482015261636560f01b6064820152608401610df2565b6001600160a01b038316600081815260fb60209081526040808320868603905560fd80548790039055518581529192917fddf252ad1be2c89b69c2b068fc378daa952ba7f163c4a11628f55a4df523b3ef910160405180910390a3505050565b6000808060001985870985870292508281108382030391505080600014156136bd57600084116136b257600080fd5b508290049050610d23565b8084116136c957600080fd5b60008486880960026001871981018816978890046003810283188082028403028082028403028082028403028082028403028082028403029081029092039091026000889003889004909101858311909403939093029303949094049190911702949350505050565b60006001600160801b0382111561379b5760405162461bcd60e51b815260206004820152602760248201527f53616665436173743a2076616c756520646f65736e27742066697420696e20316044820152663238206269747360c81b6064820152608401610df2565b5090565b61015f54610160546040516370a0823160e01b8152306004820152600092839283928392600281810b936301000000909204900b9184916001600160a01b0316906370a082319060240160206040518083038186803b15801561380157600080fd5b505afa158015613815573d6000803e3d6000fd5b505050506040513d601f19601f8201168201806040525081019061383991906154cd565b610161546040516370a0823160e01b81523060048201529192506000916001600160a01b03909116906370a082319060240160206040518083038186803b15801561388357600080fd5b505afa158015613897573d6000803e3d6000fd5b505050506040513d601f19601f820116820180604052508101906138bb91906154cd565b61015f5460405163a34123a760e01b8152600287810b600483015286900b60248201526001600160801b038c166044820152919250600160581b90046001600160a01b03169063a34123a7906064016040805180830381600087803b15801561392357600080fd5b505af1158015613937573d6000803e3d6000fd5b505050506040513d601f19601f8201168201806040525081019061395b9190615557565b61015f546040516309e3d67b60e31b8152306004820152600288810b602483015287900b60448201526001600160801b03606482018190526084820152929a50909850600160581b90046001600160a01b031690634f1eb3d89060a4016040805180830381600087803b1580156139d157600080fd5b505af11580156139e5573d6000803e3d6000fd5b505050506040513d601f19601f82011682018060405250810190613a09919061566a565b5050610160546040516370a0823160e01b8152306004820152899184916001600160a01b03909116906370a082319060240160206040518083038186803b158015613a5357600080fd5b505afa158015613a67573d6000803e3d6000fd5b505050506040513d601f19601f82011682018060405250810190613a8b91906154cd565b613a959190615ae9565b613a9f9190615ae9565b610161546040516370a0823160e01b8152306004820152919750889183916001600160a01b0316906370a082319060240160206040518083038186803b158015613ae857600080fd5b505afa158015613afc573d6000803e3d6000fd5b505050506040513d601f19601f82011682018060405250810190613b2091906154cd565b613b2a9190615ae9565b613b349190615ae9565b9450505050509193509193565b61016254600160b01b900461ffff16612710613b5d8285615aa2565b613b679190615a8e565b6101636000828254613b799190615a76565b909155506127109050613b8c8284615aa2565b613b969190615a8e565b6101646000828254613ba89190615a76565b9091555050505050565b610162546000908190600160b01b900461ffff1681612710613bd48388615aa2565b613bde9190615a8e565b90506000612710613bef8488615aa2565b613bf99190615a8e565b9050613c058288615ae9565b9450613c118187615ae9565b93505050509250929050565b61016254600160a01b900461ffff16612710613b5d8285615aa2565b610162546000908190600160a01b900461ffff1681612710613bd48388615aa2565b6001606555565b613c6c8282614929565b61015f805466ff00000000000019600284810b62ffffff90811663010000000265ffffffffffff199094169187900b16179190911716600160301b1790556040517fd9279952b347fd14af9b788aff1029c0d3b1299b7dcce164fc602a1b958c488090613cdf9060011515815260200190565b60405180910390a160408051600284810b825283900b60208201527f8e3ac6cc9b82795b40740ca4e954df8f6655fe35e80cdc6fb33d50c3423fcd16910161262b565b6000806000808715613eed5761015f600b9054906101000a90046001600160a01b03166001600160a01b0316636378ae446040518163ffffffff1660e01b815260040160206040518083038186803b158015613d7d57600080fd5b505afa158015613d91573d6000803e3d6000fd5b505050506040513d601f19601f82011682018060405250810190613db591906154cd565b61015f5460405163f30dba9360e01b8152600282810b900b6004820152919250600160581b90046001600160a01b03169063f30dba93906024016101006040518083038186803b158015613e0857600080fd5b505afa158015613e1c573d6000803e3d6000fd5b505050506040513d601f19601f82011682018060405250810190613e4091906155cb565b505061015f5460405163f30dba9360e01b81529499506001600160a01b03600160581b820416965063f30dba939550613e8c94630100000090910460020b935060040191506158f99050565b6101006040518083038186803b158015613ea557600080fd5b505afa158015613eb9573d6000803e3d6000fd5b505050506040513d601f19601f82011682018060405250810190613edd91906155cb565b509397506140a695505050505050565b61015f600b9054906101000a90046001600160a01b03166001600160a01b031663ecdecf426040518163ffffffff1660e01b815260040160206040518083038186803b158015613f3c57600080fd5b505afa158015613f50573d6000803e3d6000fd5b505050506040513d601f19601f82011682018060405250810190613f7491906154cd565b61015f5460405163f30dba9360e01b8152600282810b900b6004820152919250600160581b90046001600160a01b03169063f30dba93906024016101006040518083038186803b158015613fc757600080fd5b505afa158015613fdb573d6000803e3d6000fd5b505050506040513d601f19601f82011682018060405250810190613fff91906155cb565b505061015f5460405163f30dba9360e01b81529399506001600160a01b03600160581b820416965063f30dba93955061404a94506301000000900460020b9260040191506158f99050565b6101006040518083038186803b15801561406357600080fd5b505afa158015614077573d6000803e3d6000fd5b505050506040513d601f19601f8201168201806040525081019061409b91906155cb565b509297505050505050505b61015f54600090600290810b810b9088900b126140c45750826140c9565b508281035b600061015f60039054906101000a900460020b60020b8860020b12156140f05750826140f5565b508282035b8183038190036141156001600160801b0389168b8303600160801b613683565b9b9a5050505050505050505050565b61412c613508565b61012d805460ff191660011790557f62e78cea01bee320cd4e420270b5ea74000d11b0c9f74754ebdbfc544b05a2586134913390565b6000806000806000614172610b55565b915091508160001480156141865750600081115b1561419d57614196868983613683565b9250614240565b801580156141ab5750600082115b156141bb57614196878984613683565b811580156141c7575080155b156141e55760405163f912977760e01b815260040160405180910390fd5b60006141f2888a85613683565b90506000614201888b85613683565b905081158061420e575080155b1561422c57604051630856e64360e21b815260040160405180910390fd5b808210614239578061423b565b815b945050505b61424b83838a6147e2565b945061425883828a6147e2565b9350505093509350939050565b60008060008360020b1261427c578260020b614289565b8260020b61428990615bd9565b9050614298620d89e719615bb8565b60020b8111156142ce5760405162461bcd60e51b81526020600482015260016024820152601560fa1b6044820152606401610df2565b6000600182166142e257600160801b6142f4565b6ffffcb933bd6fad37aa2d162d1a5940015b70ffffffffffffffffffffffffffffffffff169050600282161561433357608061432e826ffff97272373d413259a46990580e213a615aa2565b901c90505b600482161561435d576080614358826ffff2e50f5f656932ef12357cf3c7fdcc615aa2565b901c90505b6008821615614387576080614382826fffe5caca7e10e4e61c3624eaa0941cd0615aa2565b901c90505b60108216156143b15760806143ac826fffcb9843d60f6159c9db58835c926644615aa2565b901c90505b60208216156143db5760806143d6826fff973b41fa98c081472e6896dfb254c0615aa2565b901c90505b6040821615614405576080614400826fff2ea16466c96a3843ec78b326b52861615aa2565b901c90505b608082161561442f57608061442a826ffe5dee046a99a2a811c461f1969c3053615aa2565b901c90505b61010082161561445a576080614455826ffcbe86c7900a88aedcffc83b479aa3a4615aa2565b901c90505b610200821615614485576080614480826ff987a7253ac413176f2b074cf7815e54615aa2565b901c90505b6104008216156144b05760806144ab826ff3392b0822b70005940c7a398e4b70f3615aa2565b901c90505b6108008216156144db5760806144d6826fe7159475a2c29b7443b29c7fa6e889d9615aa2565b901c90505b611000821615614506576080614501826fd097f3bdfd2022b8845ad8f792aa5825615aa2565b901c90505b61200082161561453157608061452c826fa9f746462d870fdf8a65dc1f90e061e5615aa2565b901c90505b61400082161561455c576080614557826f70d869a156d2a1b890bb3df62baf32f7615aa2565b901c90505b618000821615614587576080614582826f31be135f97d08fd981231505542fcfa6615aa2565b901c90505b620100008216156145b35760806145ae826f09aa508b5b7a84e1c677de54f3e99bc9615aa2565b901c90505b620200008216156145de5760806145d9826e5d6af8dedb81196699c329225ee604615aa2565b901c90505b62040000821615614608576080614603826d2216e584f5fa1ea926041bedfe98615aa2565b901c90505b6208000082161561463057608061462b826b048a170391f7dc42444e8fa2615aa2565b901c90505b60008460020b131561464b5761464881600019615a8e565b90505b61465a64010000000082615ba4565b15614666576001614669565b60005b61467a9060ff16602083901c615a76565b949350505050565b6000836001600160a01b0316856001600160a01b031611156146a2579293925b846001600160a01b0316866001600160a01b0316116146cd576146c6858585614c94565b905061473d565b836001600160a01b0316866001600160a01b0316101561472f5760006146f4878686614c94565b90506000614703878986614cfe565b9050806001600160801b0316826001600160801b0316106147245780614726565b815b9250505061473d565b61473a858584614cfe565b90505b95945050505050565b600080836001600160a01b0316856001600160a01b03161115614767579293925b846001600160a01b0316866001600160a01b0316116147925761478b858585614d34565b91506147d9565b836001600160a01b0316866001600160a01b031610156147cb576147b7868585614d34565b91506147c4858785614da7565b90506147d9565b6147d6858585614da7565b90505b94509492505050565b60006147ef848484613683565b90506000828061480f57634e487b7160e01b600052601260045260246000fd5b8486091115610d2357600019811061482657600080fd5b8061473d81615b67565b6040516001600160a01b0380851660248301528316604482015260648101829052610da39085906323b872dd60e01b90608401613142565b6001600160a01b0382166148be5760405162461bcd60e51b815260206004820152601f60248201527f45524332303a206d696e7420746f20746865207a65726f2061646472657373006044820152606401610df2565b8060fd60008282546148d09190615a76565b90915550506001600160a01b038216600081815260fb60209081526040808320805486019055518481527fddf252ad1be2c89b69c2b068fc378daa952ba7f163c4a11628f55a4df523b3ef910160405180910390a35050565b620d89e719600283900b12806149505750614947620d89e719615bb8565b60020b8160020b135b1561496e5760405163137b639d60e21b815260040160405180910390fd5b8060020b8260020b12158061499c575061015f5461499690600160401b900460020b83615b82565b60020b15155b806149c0575061015f546149ba90600160401b900460020b82615b82565b60020b15155b1561179857604051633981390b60e11b815260040160405180910390fd5b6000614a33826040518060400160405280602081526020017f5361666545524332303a206c6f772d6c6576656c2063616c6c206661696c6564815250856001600160a01b0316614df19092919063ffffffff16565b8051909150156131795780806020019051810190614a519190615470565b6131795760405162461bcd60e51b815260206004820152602a60248201527f5361666545524332303a204552433230206f7065726174696f6e20646964206e6044820152691bdd081cdd58d8d9595960b21b6064820152608401610df2565b6001600160a01b0381163b614b1d5760405162461bcd60e51b815260206004820152602d60248201527f455243313936373a206e657720696d706c656d656e746174696f6e206973206e60448201526c1bdd08184818dbdb9d1c9858dd609a1b6064820152608401610df2565b600080516020615c7883398151915280546001600160a01b0319166001600160a01b0392909216919091179055565b614b5583614e00565b600082511180614b625750805b1561317957610da38383614e40565b600054610100900460ff16613c5b5760405162461bcd60e51b8152600401610df2906159d2565b600054610100900460ff16614bbf5760405162461bcd60e51b8152600401610df2906159d2565b6112c233613409565b600054610100900460ff16614bef5760405162461bcd60e51b8152600401610df2906159d2565b8151614c029060fe9060208501906150d6565b5080516131799060ff9060208401906150d6565b600054610100900460ff16614c3d5760405162461bcd60e51b8152600401610df2906159d2565b61012d805460ff19169055565b61012d5460ff166112c25760405162461bcd60e51b815260206004820152601460248201527314185d5cd8589b194e881b9bdd081c185d5cd95960621b6044820152606401610df2565b6000826001600160a01b0316846001600160a01b03161115614cb4579192915b6000614cd7856001600160a01b0316856001600160a01b0316600160601b613683565b905061473d614cf98483614ceb8989615ac1565b6001600160a01b0316613683565b614f2b565b6000826001600160a01b0316846001600160a01b03161115614d1e579192915b61467a614cf983600160601b614ceb8888615ac1565b6000826001600160a01b0316846001600160a01b03161115614d54579192915b6001600160a01b038416614d9d6fffffffffffffffffffffffffffffffff60601b606085901b16614d858787615ac1565b6001600160a01b0316866001600160a01b0316613683565b61467a9190615a8e565b6000826001600160a01b0316846001600160a01b03161115614dc7579192915b61467a6001600160801b038316614dde8686615ac1565b6001600160a01b0316600160601b613683565b606061467a8484600085614f46565b614e0981614ab0565b6040516001600160a01b038216907fbc7cd75a20ee27fd9adebab32041f755214dbc6bffa90cc0225b39da2e5c2d3b90600090a250565b60606001600160a01b0383163b614ea85760405162461bcd60e51b815260206004820152602660248201527f416464726573733a2064656c65676174652063616c6c20746f206e6f6e2d636f6044820152651b9d1c9858dd60d21b6064820152608401610df2565b600080846001600160a01b031684604051614ec3919061582f565b600060405180830381855af49150503d8060008114614efe576040519150601f19603f3d011682016040523d82523d6000602084013e614f03565b606091505b509150915061473d8282604051806060016040528060278152602001615c9860279139615021565b806001600160801b0381168114614f4157600080fd5b919050565b606082471015614fa75760405162461bcd60e51b815260206004820152602660248201527f416464726573733a20696e73756666696369656e742062616c616e636520666f6044820152651c8818d85b1b60d21b6064820152608401610df2565b600080866001600160a01b03168587604051614fc3919061582f565b60006040518083038185875af1925050503d8060008114615000576040519150601f19603f3d011682016040523d82523d6000602084013e615005565b606091505b50915091506150168783838761503a565b979650505050505050565b60608315615030575081610d23565b610d2383836150ac565b606083156150a657825161509f576001600160a01b0385163b61509f5760405162461bcd60e51b815260206004820152601d60248201527f416464726573733a2063616c6c20746f206e6f6e2d636f6e74726163740000006044820152606401610df2565b508161467a565b61467a83835b8151156150bc5781518083602001fd5b8060405162461bcd60e51b8152600401610df29190615907565b8280546150e290615b2c565b90600052602060002090601f016020900481019282615104576000855561514a565b82601f1061511d57805160ff191683800117855561514a565b8280016001018555821561514a579182015b8281111561514a57825182559160200191906001019061512f565b5061379b9291505b8082111561379b5760008155600101615152565b60008083601f840112615177578182fd5b50813567ffffffffffffffff81111561518e578182fd5b6020830191508360208285010111156151a657600080fd5b9250929050565b600082601f8301126151bd578081fd5b81356151d06151cb82615a4e565b615a1d565b8181528460208386010111156151e4578283fd5b816020850160208301379081016020019190915292915050565b600082601f83011261520e578081fd5b815161521c6151cb82615a4e565b818152846020838601011115615230578283fd5b61467a826020830160208701615b00565b80516001600160801b0381168114614f4157600080fd5b805163ffffffff81168114614f4157600080fd5b805160ff81168114614f4157600080fd5b60006020828403121561528e578081fd5b8135610d2381615c35565b6000602082840312156152aa578081fd5b8151610d2381615c35565b6000806000606084860312156152c9578182fd5b83516152d481615c35565b602085015190935067ffffffffffffffff808211156152f1578384fd5b6152fd878388016151fe565b93506040860151915080821115615312578283fd5b5061531f868287016151fe565b9150509250925092565b6000806040838503121561533b578182fd5b823561534681615c35565b9150602083013561535681615c35565b809150509250929050565b600080600060608486031215615375578283fd5b833561538081615c35565b9250602084013561539081615c35565b929592945050506040919091013590565b600080604083850312156153b3578182fd5b82356153be81615c35565b9150602083013567ffffffffffffffff8111156153d9578182fd5b6153e5858286016151ad565b9150509250929050565b600080600060608486031215615403578081fd5b833561540e81615c35565b9250602084013561541e81615c58565b9150604084013567ffffffffffffffff811115615439578182fd5b61531f868287016151ad565b60008060408385031215615457578182fd5b823561546281615c35565b946020939093013593505050565b600060208284031215615481578081fd5b8151610d2381615c4a565b6000806000606084860312156154a0578081fd5b83356154ab81615c4a565b92506020840135915060408401356154c281615c35565b809150509250925092565b6000602082840312156154de578081fd5b5051919050565b600080604083850312156154f7578182fd5b823561550281615c58565b9150602083013561535681615c58565b60008060008060808587031215615527578182fd5b843561553281615c58565b9350602085013561554281615c58565b93969395505050506040820135916060013590565b60008060408385031215615569578182fd5b505080516020909101519092909150565b6000806000806060858703121561558f578182fd5b8435935060208501359250604085013567ffffffffffffffff8111156155b3578283fd5b6155bf87828801615166565b95989497509550505050565b600080600080600080600080610100898b0312156155e7578586fd5b6155f089615241565b9750602089015180600f0b8114615605578687fd5b80975050604089015195506060890151945060808901518060060b811461562a578485fd5b60a08a015190945061563b81615c35565b925061564960c08a01615258565b915060e089015161565981615c4a565b809150509295985092959890939650565b6000806040838503121561567c578182fd5b61568583615241565b915061569360208401615241565b90509250929050565b60008060008060008060c087890312156156b4578384fd5b6156bd87615241565b95506156cb60208801615258565b945060408701519350606087015192506156e760808801615241565b91506156f560a08801615241565b90509295509295509295565b600080600080600080600060e0888a03121561571b578081fd5b875161572681615c35565b602089015190975061573781615c58565b604089015190965061574881615c67565b606089015190955061575981615c67565b93506157676080890161526c565b925061577560a0890161526c565b915060c088015161578581615c4a565b8091505092959891949750929550565b600080604083850312156157a7578182fd5b82356157b281615c67565b9150602083013561535681615c67565b6000602082840312156157d3578081fd5b5035919050565b600080604083850312156157ec578182fd5b50508035926020909101359150565b60008060006060848603121561580f578081fd5b835192506020840151915061582660408501615241565b90509250925092565b60008251615841818460208701615b00565b9190910192915050565b6001600160a01b039586168152939094166020840152600291820b6040840152900b60608201526001600160801b03909116608082015260c060a0820181905260009082015260e00190565b602080825282518282018190526000919060409081850190868401855b828110156158ec57815180516001600160a01b03168552868101518786015285015185850152606090930192908501906001016158b4565b5091979650505050505050565b60029190910b815260200190565b6020815260008251806020840152615926816040850160208701615b00565b601f01601f19169190910160400192915050565b6020808252602c908201527f46756e6374696f6e206d7573742062652063616c6c6564207468726f7567682060408201526b19195b1959d85d1958d85b1b60a21b606082015260800190565b6020808252602c908201527f46756e6374696f6e206d7573742062652063616c6c6564207468726f7567682060408201526b6163746976652070726f787960a01b606082015260800190565b6020808252602b908201527f496e697469616c697a61626c653a20636f6e7472616374206973206e6f74206960408201526a6e697469616c697a696e6760a81b606082015260800190565b604051601f8201601f1916810167ffffffffffffffff81118282101715615a4657615a46615c1f565b604052919050565b600067ffffffffffffffff821115615a6857615a68615c1f565b50601f01601f191660200190565b60008219821115615a8957615a89615bf3565b500190565b600082615a9d57615a9d615c09565b500490565b6000816000190483118215151615615abc57615abc615bf3565b500290565b60006001600160a01b0383811690831681811015615ae157615ae1615bf3565b039392505050565b600082821015615afb57615afb615bf3565b500390565b60005b83811015615b1b578181015183820152602001615b03565b83811115610da35750506000910152565b600181811c90821680615b4057607f821691505b60208210811415615b6157634e487b7160e01b600052602260045260246000fd5b50919050565b6000600019821415615b7b57615b7b615bf3565b5060010190565b60008260020b80615b9557615b95615c09565b808360020b0791505092915050565b600082615bb357615bb3615c09565b500690565b60008160020b627fffff19811415615bd257615bd2615bf3565b9003919050565b6000600160ff1b821415615bef57615bef615bf3565b0390565b634e487b7160e01b600052601160045260246000fd5b634e487b7160e01b600052601260045260246000fd5b634e487b7160e01b600052604160045260246000fd5b6001600160a01b0381168114610e8f57600080fd5b8015158114610e8f57600080fd5b8060020b8114610e8f57600080fd5b61ffff81168114610e8f57600080fdfe360894a13ba1a3210667c828492db98dca3e2076cc3735a920a3ca505d382bbc416464726573733a206c6f772d6c6576656c2064656c65676174652063616c6c206661696c6564a2646970667358221220a764ee64dcdb8471937c8164c10de55aca33484de7d2cd31282b1be5f89b9fb264736f6c63430008040033",
  "linkReferences": {},
  "deployedLinkReferences": {}
}