{
  "_format": "hh-sol-artifact-1",
  "contractName": "RangeProtocolVault",
  "sourceName": "contracts/RangeProtocolVault.sol",
  "abi": [
    {
      "inputs": [],
      "stateMutability": "nonpayable",
      "type": "constructor"
    },
    {
      "inputs": [],
      "name": "InvalidBurnAmount",
      "type": "error"
    },
    {
      "inputs": [],
      "name": "InvalidManagingFee",
      "type": "error"
    },
    {
      "inputs": [],
      "name": "InvalidMintAmount",
      "type": "error"
    },
    {
      "inputs": [],
      "name": "InvalidPerformanceFee",
      "type": "error"
    },
    {
      "inputs": [],
      "name": "InvalidTicksSpacing",
      "type": "error"
    },
    {
      "inputs": [],
      "name": "MintNotAllowed",
      "type": "error"
    },
    {
      "inputs": [],
      "name": "MintNotStarted",
      "type": "error"
    },
    {
      "inputs": [],
      "name": "NotAllowedToUpdateTicks",
      "type": "error"
    },
    {
      "inputs": [],
      "name": "OnlyFactoryAllowed",
      "type": "error"
    },
    {
      "inputs": [],
      "name": "OnlyPoolAllowed",
      "type": "error"
    },
    {
      "inputs": [],
      "name": "TicksOutOfRange",
      "type": "error"
    },
    {
      "inputs": [],
      "name": "ZeroMintAmount",
      "type": "error"
    },
    {
      "inputs": [],
      "name": "ZeroUnderlyingBalance",
      "type": "error"
    },
    {
      "anonymous": false,
      "inputs": [
        {
          "indexed": false,
          "internalType": "address",
          "name": "previousAdmin",
          "type": "address"
        },
        {
          "indexed": false,
          "internalType": "address",
          "name": "newAdmin",
          "type": "address"
        }
      ],
      "name": "AdminChanged",
      "type": "event"
    },
    {
      "anonymous": false,
      "inputs": [
        {
          "indexed": true,
          "internalType": "address",
          "name": "owner",
          "type": "address"
        },
        {
          "indexed": true,
          "internalType": "address",
          "name": "spender",
          "type": "address"
        },
        {
          "indexed": false,
          "internalType": "uint256",
          "name": "value",
          "type": "uint256"
        }
      ],
      "name": "Approval",
      "type": "event"
    },
    {
      "anonymous": false,
      "inputs": [
        {
          "indexed": true,
          "internalType": "address",
          "name": "beacon",
          "type": "address"
        }
      ],
      "name": "BeaconUpgraded",
      "type": "event"
    },
    {
      "anonymous": false,
      "inputs": [
        {
          "indexed": true,
          "internalType": "address",
          "name": "receiver",
          "type": "address"
        },
        {
          "indexed": false,
          "internalType": "uint256",
          "name": "burnAmount",
          "type": "uint256"
        },
        {
          "indexed": false,
          "internalType": "uint256",
          "name": "amount0Out",
          "type": "uint256"
        },
        {
          "indexed": false,
          "internalType": "uint256",
          "name": "amount1Out",
          "type": "uint256"
        }
      ],
      "name": "Burned",
      "type": "event"
    },
    {
      "anonymous": false,
      "inputs": [
        {
          "indexed": false,
          "internalType": "uint256",
          "name": "feesEarned0",
          "type": "uint256"
        },
        {
          "indexed": false,
          "internalType": "uint256",
          "name": "feesEarned1",
          "type": "uint256"
        }
      ],
      "name": "FeesEarned",
      "type": "event"
    },
    {
      "anonymous": false,
      "inputs": [
        {
          "indexed": false,
          "internalType": "uint16",
          "name": "managingFee",
          "type": "uint16"
        },
        {
          "indexed": false,
          "internalType": "uint16",
          "name": "performanceFee",
          "type": "uint16"
        }
      ],
      "name": "FeesUpdated",
      "type": "event"
    },
    {
      "anonymous": false,
      "inputs": [
        {
          "indexed": false,
          "internalType": "bool",
          "name": "inThePosition",
          "type": "bool"
        }
      ],
      "name": "InThePositionStatusSet",
      "type": "event"
    },
    {
      "anonymous": false,
      "inputs": [
        {
          "indexed": false,
          "internalType": "uint8",
          "name": "version",
          "type": "uint8"
        }
      ],
      "name": "Initialized",
      "type": "event"
    },
    {
      "anonymous": false,
      "inputs": [
        {
          "indexed": false,
          "internalType": "uint256",
          "name": "liquidityMinted",
          "type": "uint256"
        },
        {
          "indexed": false,
          "internalType": "int24",
          "name": "tickLower",
          "type": "int24"
        },
        {
          "indexed": false,
          "internalType": "int24",
          "name": "tickUpper",
          "type": "int24"
        },
        {
          "indexed": false,
          "internalType": "uint256",
          "name": "amount0In",
          "type": "uint256"
        },
        {
          "indexed": false,
          "internalType": "uint256",
          "name": "amount1In",
          "type": "uint256"
        }
      ],
      "name": "LiquidityAdded",
      "type": "event"
    },
    {
      "anonymous": false,
      "inputs": [
        {
          "indexed": false,
          "internalType": "uint256",
          "name": "liquidityRemoved",
          "type": "uint256"
        },
        {
          "indexed": false,
          "internalType": "int24",
          "name": "tickLower",
          "type": "int24"
        },
        {
          "indexed": false,
          "internalType": "int24",
          "name": "tickUpper",
          "type": "int24"
        },
        {
          "indexed": false,
          "internalType": "uint256",
          "name": "amount0Out",
          "type": "uint256"
        },
        {
          "indexed": false,
          "internalType": "uint256",
          "name": "amount1Out",
          "type": "uint256"
        }
      ],
      "name": "LiquidityRemoved",
      "type": "event"
    },
    {
      "anonymous": false,
      "inputs": [],
      "name": "MintStarted",
      "type": "event"
    },
    {
      "anonymous": false,
      "inputs": [
        {
          "indexed": true,
          "internalType": "address",
          "name": "receiver",
          "type": "address"
        },
        {
          "indexed": false,
          "internalType": "uint256",
          "name": "mintAmount",
          "type": "uint256"
        },
        {
          "indexed": false,
          "internalType": "uint256",
          "name": "amount0In",
          "type": "uint256"
        },
        {
          "indexed": false,
          "internalType": "uint256",
          "name": "amount1In",
          "type": "uint256"
        }
      ],
      "name": "Minted",
      "type": "event"
    },
    {
      "anonymous": false,
      "inputs": [
        {
          "indexed": true,
          "internalType": "address",
          "name": "previousManager",
          "type": "address"
        },
        {
          "indexed": true,
          "internalType": "address",
          "name": "newManager",
          "type": "address"
        }
      ],
      "name": "OwnershipTransferred",
      "type": "event"
    },
    {
      "anonymous": false,
      "inputs": [
        {
          "indexed": false,
          "internalType": "address",
          "name": "account",
          "type": "address"
        }
      ],
      "name": "Paused",
      "type": "event"
    },
    {
      "anonymous": false,
      "inputs": [
        {
          "indexed": false,
          "internalType": "bool",
          "name": "zeroForOne",
          "type": "bool"
        },
        {
          "indexed": false,
          "internalType": "int256",
          "name": "amount0",
          "type": "int256"
        },
        {
          "indexed": false,
          "internalType": "int256",
          "name": "amount1",
          "type": "int256"
        }
      ],
      "name": "Swapped",
      "type": "event"
    },
    {
      "anonymous": false,
      "inputs": [
        {
          "indexed": false,
          "internalType": "int24",
          "name": "lowerTick",
          "type": "int24"
        },
        {
          "indexed": false,
          "internalType": "int24",
          "name": "upperTick",
          "type": "int24"
        }
      ],
      "name": "TicksSet",
      "type": "event"
    },
    {
      "anonymous": false,
      "inputs": [
        {
          "indexed": true,
          "internalType": "address",
          "name": "from",
          "type": "address"
        },
        {
          "indexed": true,
          "internalType": "address",
          "name": "to",
          "type": "address"
        },
        {
          "indexed": false,
          "internalType": "uint256",
          "name": "value",
          "type": "uint256"
        }
      ],
      "name": "Transfer",
      "type": "event"
    },
    {
      "anonymous": false,
      "inputs": [
        {
          "indexed": false,
          "internalType": "address",
          "name": "account",
          "type": "address"
        }
      ],
      "name": "Unpaused",
      "type": "event"
    },
    {
      "anonymous": false,
      "inputs": [
        {
          "indexed": true,
          "internalType": "address",
          "name": "implementation",
          "type": "address"
        }
      ],
      "name": "Upgraded",
      "type": "event"
    },
    {
      "inputs": [],
      "name": "MAX_MANAGING_FEE_BPS",
      "outputs": [
        {
          "internalType": "uint16",
          "name": "",
          "type": "uint16"
        }
      ],
      "stateMutability": "view",
      "type": "function"
    },
    {
      "inputs": [],
      "name": "MAX_PERFORMANCE_FEE_BPS",
      "outputs": [
        {
          "internalType": "uint16",
          "name": "",
          "type": "uint16"
        }
      ],
      "stateMutability": "view",
      "type": "function"
    },
    {
      "inputs": [
        {
          "internalType": "int24",
          "name": "newLowerTick",
          "type": "int24"
        },
        {
          "internalType": "int24",
          "name": "newUpperTick",
          "type": "int24"
        },
        {
          "internalType": "uint256",
          "name": "amount0",
          "type": "uint256"
        },
        {
          "internalType": "uint256",
          "name": "amount1",
          "type": "uint256"
        }
      ],
      "name": "addLiquidity",
      "outputs": [
        {
          "internalType": "uint256",
          "name": "remainingAmount0",
          "type": "uint256"
        },
        {
          "internalType": "uint256",
          "name": "remainingAmount1",
          "type": "uint256"
        }
      ],
      "stateMutability": "nonpayable",
      "type": "function"
    },
    {
      "inputs": [
        {
          "internalType": "address",
          "name": "owner",
          "type": "address"
        },
        {
          "internalType": "address",
          "name": "spender",
          "type": "address"
        }
      ],
      "name": "allowance",
      "outputs": [
        {
          "internalType": "uint256",
          "name": "",
          "type": "uint256"
        }
      ],
      "stateMutability": "view",
      "type": "function"
    },
    {
      "inputs": [
        {
          "internalType": "address",
          "name": "spender",
          "type": "address"
        },
        {
          "internalType": "uint256",
          "name": "amount",
          "type": "uint256"
        }
      ],
      "name": "approve",
      "outputs": [
        {
          "internalType": "bool",
          "name": "",
          "type": "bool"
        }
      ],
      "stateMutability": "nonpayable",
      "type": "function"
    },
    {
      "inputs": [
        {
          "internalType": "address",
          "name": "account",
          "type": "address"
        }
      ],
      "name": "balanceOf",
      "outputs": [
        {
          "internalType": "uint256",
          "name": "",
          "type": "uint256"
        }
      ],
      "stateMutability": "view",
      "type": "function"
    },
    {
      "inputs": [
        {
          "internalType": "uint256",
          "name": "burnAmount",
          "type": "uint256"
        }
      ],
      "name": "burn",
      "outputs": [
        {
          "internalType": "uint256",
          "name": "amount0",
          "type": "uint256"
        },
        {
          "internalType": "uint256",
          "name": "amount1",
          "type": "uint256"
        }
      ],
      "stateMutability": "nonpayable",
      "type": "function"
    },
    {
      "inputs": [],
      "name": "collectManager",
      "outputs": [],
      "stateMutability": "nonpayable",
      "type": "function"
    },
    {
      "inputs": [],
      "name": "decimals",
      "outputs": [
        {
          "internalType": "uint8",
          "name": "",
          "type": "uint8"
        }
      ],
      "stateMutability": "view",
      "type": "function"
    },
    {
      "inputs": [
        {
          "internalType": "address",
          "name": "spender",
          "type": "address"
        },
        {
          "internalType": "uint256",
          "name": "subtractedValue",
          "type": "uint256"
        }
      ],
      "name": "decreaseAllowance",
      "outputs": [
        {
          "internalType": "bool",
          "name": "",
          "type": "bool"
        }
      ],
      "stateMutability": "nonpayable",
      "type": "function"
    },
    {
      "inputs": [],
      "name": "factory",
      "outputs": [
        {
          "internalType": "address",
          "name": "",
          "type": "address"
        }
      ],
      "stateMutability": "view",
      "type": "function"
    },
    {
      "inputs": [],
      "name": "getCurrentFees",
      "outputs": [
        {
          "internalType": "uint256",
          "name": "fee0",
          "type": "uint256"
        },
        {
          "internalType": "uint256",
          "name": "fee1",
          "type": "uint256"
        }
      ],
      "stateMutability": "view",
      "type": "function"
    },
    {
      "inputs": [
        {
          "internalType": "uint256",
          "name": "amount0Max",
          "type": "uint256"
        },
        {
          "internalType": "uint256",
          "name": "amount1Max",
          "type": "uint256"
        }
      ],
      "name": "getMintAmounts",
      "outputs": [
        {
          "internalType": "uint256",
          "name": "amount0",
          "type": "uint256"
        },
        {
          "internalType": "uint256",
          "name": "amount1",
          "type": "uint256"
        },
        {
          "internalType": "uint256",
          "name": "mintAmount",
          "type": "uint256"
        }
      ],
      "stateMutability": "view",
      "type": "function"
    },
    {
      "inputs": [],
      "name": "getPositionID",
      "outputs": [
        {
          "internalType": "bytes32",
          "name": "positionID",
          "type": "bytes32"
        }
      ],
      "stateMutability": "view",
      "type": "function"
    },
    {
      "inputs": [],
      "name": "getUnderlyingBalances",
      "outputs": [
        {
          "internalType": "uint256",
          "name": "amount0Current",
          "type": "uint256"
        },
        {
          "internalType": "uint256",
          "name": "amount1Current",
          "type": "uint256"
        }
      ],
      "stateMutability": "view",
      "type": "function"
    },
    {
      "inputs": [
        {
          "internalType": "uint160",
          "name": "sqrtRatioX96",
          "type": "uint160"
        }
      ],
      "name": "getUnderlyingBalancesAtPrice",
      "outputs": [
        {
          "internalType": "uint256",
          "name": "amount0Current",
          "type": "uint256"
        },
        {
          "internalType": "uint256",
          "name": "amount1Current",
          "type": "uint256"
        }
      ],
      "stateMutability": "view",
      "type": "function"
    },
    {
      "inputs": [
        {
          "internalType": "uint256",
          "name": "fromIdx",
          "type": "uint256"
        },
        {
          "internalType": "uint256",
          "name": "toIdx",
          "type": "uint256"
        }
      ],
      "name": "getUserVaults",
      "outputs": [
        {
          "components": [
            {
              "internalType": "address",
              "name": "user",
              "type": "address"
            },
            {
              "internalType": "uint256",
              "name": "token0",
              "type": "uint256"
            },
            {
              "internalType": "uint256",
              "name": "token1",
              "type": "uint256"
            }
          ],
          "internalType": "struct IRangeProtocolVault.UserVaultInfo[]",
          "name": "",
          "type": "tuple[]"
        }
      ],
      "stateMutability": "view",
      "type": "function"
    },
    {
      "inputs": [],
      "name": "inThePosition",
      "outputs": [
        {
          "internalType": "bool",
          "name": "",
          "type": "bool"
        }
      ],
      "stateMutability": "view",
      "type": "function"
    },
    {
      "inputs": [
        {
          "internalType": "address",
          "name": "spender",
          "type": "address"
        },
        {
          "internalType": "uint256",
          "name": "addedValue",
          "type": "uint256"
        }
      ],
      "name": "increaseAllowance",
      "outputs": [
        {
          "internalType": "bool",
          "name": "",
          "type": "bool"
        }
      ],
      "stateMutability": "nonpayable",
      "type": "function"
    },
    {
      "inputs": [
        {
          "internalType": "address",
          "name": "_pool",
          "type": "address"
        },
        {
          "internalType": "int24",
          "name": "_tickSpacing",
          "type": "int24"
        },
        {
          "internalType": "bytes",
          "name": "data",
          "type": "bytes"
        }
      ],
      "name": "initialize",
      "outputs": [],
      "stateMutability": "nonpayable",
      "type": "function"
    },
    {
      "inputs": [],
      "name": "lowerTick",
      "outputs": [
        {
          "internalType": "int24",
          "name": "",
          "type": "int24"
        }
      ],
      "stateMutability": "view",
      "type": "function"
    },
    {
      "inputs": [],
      "name": "manager",
      "outputs": [
        {
          "internalType": "address",
          "name": "",
          "type": "address"
        }
      ],
      "stateMutability": "view",
      "type": "function"
    },
    {
      "inputs": [],
      "name": "managerBalance0",
      "outputs": [
        {
          "internalType": "uint256",
          "name": "",
          "type": "uint256"
        }
      ],
      "stateMutability": "view",
      "type": "function"
    },
    {
      "inputs": [],
      "name": "managerBalance1",
      "outputs": [
        {
          "internalType": "uint256",
          "name": "",
          "type": "uint256"
        }
      ],
      "stateMutability": "view",
      "type": "function"
    },
    {
      "inputs": [],
      "name": "managingFee",
      "outputs": [
        {
          "internalType": "uint16",
          "name": "",
          "type": "uint16"
        }
      ],
      "stateMutability": "view",
      "type": "function"
    },
    {
      "inputs": [
        {
          "internalType": "uint256",
          "name": "mintAmount",
          "type": "uint256"
        }
      ],
      "name": "mint",
      "outputs": [
        {
          "internalType": "uint256",
          "name": "amount0",
          "type": "uint256"
        },
        {
          "internalType": "uint256",
          "name": "amount1",
          "type": "uint256"
        }
      ],
      "stateMutability": "nonpayable",
      "type": "function"
    },
    {
      "inputs": [],
      "name": "mintStarted",
      "outputs": [
        {
          "internalType": "bool",
          "name": "",
          "type": "bool"
        }
      ],
      "stateMutability": "view",
      "type": "function"
    },
    {
      "inputs": [],
      "name": "name",
      "outputs": [
        {
          "internalType": "string",
          "name": "",
          "type": "string"
        }
      ],
      "stateMutability": "view",
      "type": "function"
    },
    {
      "inputs": [],
      "name": "pause",
      "outputs": [],
      "stateMutability": "nonpayable",
      "type": "function"
    },
    {
      "inputs": [],
      "name": "paused",
      "outputs": [
        {
          "internalType": "bool",
          "name": "",
          "type": "bool"
        }
      ],
      "stateMutability": "view",
      "type": "function"
    },
    {
      "inputs": [],
      "name": "performanceFee",
      "outputs": [
        {
          "internalType": "uint16",
          "name": "",
          "type": "uint16"
        }
      ],
      "stateMutability": "view",
      "type": "function"
    },
    {
      "inputs": [],
      "name": "pool",
      "outputs": [
        {
          "internalType": "contract IUniswapV3Pool",
          "name": "",
          "type": "address"
        }
      ],
      "stateMutability": "view",
      "type": "function"
    },
    {
      "inputs": [],
      "name": "proxiableUUID",
      "outputs": [
        {
          "internalType": "bytes32",
          "name": "",
          "type": "bytes32"
        }
      ],
      "stateMutability": "view",
      "type": "function"
    },
    {
      "inputs": [],
      "name": "pullFeeFromPool",
      "outputs": [],
      "stateMutability": "nonpayable",
      "type": "function"
    },
    {
      "inputs": [],
      "name": "removeLiquidity",
      "outputs": [],
      "stateMutability": "nonpayable",
      "type": "function"
    },
    {
      "inputs": [],
      "name": "renounceOwnership",
      "outputs": [],
      "stateMutability": "nonpayable",
      "type": "function"
    },
    {
      "inputs": [
        {
          "internalType": "bool",
          "name": "zeroForOne",
          "type": "bool"
        },
        {
          "internalType": "int256",
          "name": "swapAmount",
          "type": "int256"
        },
        {
          "internalType": "uint160",
          "name": "sqrtPriceLimitX96",
          "type": "uint160"
        }
      ],
      "name": "swap",
      "outputs": [
        {
          "internalType": "int256",
          "name": "amount0",
          "type": "int256"
        },
        {
          "internalType": "int256",
          "name": "amount1",
          "type": "int256"
        }
      ],
      "stateMutability": "nonpayable",
      "type": "function"
    },
    {
      "inputs": [],
      "name": "symbol",
      "outputs": [
        {
          "internalType": "string",
          "name": "",
          "type": "string"
        }
      ],
      "stateMutability": "view",
      "type": "function"
    },
    {
      "inputs": [],
      "name": "tickSpacing",
      "outputs": [
        {
          "internalType": "int24",
          "name": "",
          "type": "int24"
        }
      ],
      "stateMutability": "view",
      "type": "function"
    },
    {
      "inputs": [],
      "name": "token0",
      "outputs": [
        {
          "internalType": "contract IERC20Upgradeable",
          "name": "",
          "type": "address"
        }
      ],
      "stateMutability": "view",
      "type": "function"
    },
    {
      "inputs": [],
      "name": "token1",
      "outputs": [
        {
          "internalType": "contract IERC20Upgradeable",
          "name": "",
          "type": "address"
        }
      ],
      "stateMutability": "view",
      "type": "function"
    },
    {
      "inputs": [],
      "name": "totalSupply",
      "outputs": [
        {
          "internalType": "uint256",
          "name": "",
          "type": "uint256"
        }
      ],
      "stateMutability": "view",
      "type": "function"
    },
    {
      "inputs": [
        {
          "internalType": "address",
          "name": "to",
          "type": "address"
        },
        {
          "internalType": "uint256",
          "name": "amount",
          "type": "uint256"
        }
      ],
      "name": "transfer",
      "outputs": [
        {
          "internalType": "bool",
          "name": "",
          "type": "bool"
        }
      ],
      "stateMutability": "nonpayable",
      "type": "function"
    },
    {
      "inputs": [
        {
          "internalType": "address",
          "name": "from",
          "type": "address"
        },
        {
          "internalType": "address",
          "name": "to",
          "type": "address"
        },
        {
          "internalType": "uint256",
          "name": "amount",
          "type": "uint256"
        }
      ],
      "name": "transferFrom",
      "outputs": [
        {
          "internalType": "bool",
          "name": "",
          "type": "bool"
        }
      ],
      "stateMutability": "nonpayable",
      "type": "function"
    },
    {
      "inputs": [
        {
          "internalType": "address",
          "name": "newOwner",
          "type": "address"
        }
      ],
      "name": "transferOwnership",
      "outputs": [],
      "stateMutability": "nonpayable",
      "type": "function"
    },
    {
      "inputs": [
        {
          "internalType": "uint256",
          "name": "amount0Owed",
          "type": "uint256"
        },
        {
          "internalType": "uint256",
          "name": "amount1Owed",
          "type": "uint256"
        },
        {
          "internalType": "bytes",
          "name": "",
          "type": "bytes"
        }
      ],
      "name": "uniswapV3MintCallback",
      "outputs": [],
      "stateMutability": "nonpayable",
      "type": "function"
    },
    {
      "inputs": [
        {
          "internalType": "int256",
          "name": "amount0Delta",
          "type": "int256"
        },
        {
          "internalType": "int256",
          "name": "amount1Delta",
          "type": "int256"
        },
        {
          "internalType": "bytes",
          "name": "",
          "type": "bytes"
        }
      ],
      "name": "uniswapV3SwapCallback",
      "outputs": [],
      "stateMutability": "nonpayable",
      "type": "function"
    },
    {
      "inputs": [],
      "name": "unpause",
      "outputs": [],
      "stateMutability": "nonpayable",
      "type": "function"
    },
    {
      "inputs": [
        {
          "internalType": "uint16",
          "name": "newManagingFee",
          "type": "uint16"
        },
        {
          "internalType": "uint16",
          "name": "newPerformanceFee",
          "type": "uint16"
        }
      ],
      "name": "updateFees",
      "outputs": [],
      "stateMutability": "nonpayable",
      "type": "function"
    },
    {
      "inputs": [
        {
          "internalType": "int24",
          "name": "_lowerTick",
          "type": "int24"
        },
        {
          "internalType": "int24",
          "name": "_upperTick",
          "type": "int24"
        }
      ],
      "name": "updateTicks",
      "outputs": [],
      "stateMutability": "nonpayable",
      "type": "function"
    },
    {
      "inputs": [
        {
          "internalType": "address",
          "name": "newImplementation",
          "type": "address"
        }
      ],
      "name": "upgradeTo",
      "outputs": [],
      "stateMutability": "nonpayable",
      "type": "function"
    },
    {
      "inputs": [
        {
          "internalType": "address",
          "name": "newImplementation",
          "type": "address"
        },
        {
          "internalType": "bytes",
          "name": "data",
          "type": "bytes"
        }
      ],
      "name": "upgradeToAndCall",
      "outputs": [],
      "stateMutability": "payable",
      "type": "function"
    },
    {
      "inputs": [],
      "name": "upperTick",
      "outputs": [
        {
          "internalType": "int24",
          "name": "",
          "type": "int24"
        }
      ],
      "stateMutability": "view",
      "type": "function"
    },
    {
      "inputs": [
        {
          "internalType": "address",
          "name": "",
          "type": "address"
        }
      ],
      "name": "userVaults",
      "outputs": [
        {
          "internalType": "bool",
          "name": "exists",
          "type": "bool"
        },
        {
          "internalType": "uint256",
          "name": "token0",
          "type": "uint256"
        },
        {
          "internalType": "uint256",
          "name": "token1",
          "type": "uint256"
        }
      ],
      "stateMutability": "view",
      "type": "function"
    },
    {
      "inputs": [
        {
          "internalType": "uint256",
          "name": "",
          "type": "uint256"
        }
      ],
      "name": "users",
      "outputs": [
        {
          "internalType": "address",
          "name": "",
          "type": "address"
        }
      ],
      "stateMutability": "view",
      "type": "function"
    }
  ],
  "bytecode": "0x60a06040523060601b6080523480156200001857600080fd5b506200002362000029565b620000eb565b600054610100900460ff1615620000965760405162461bcd60e51b815260206004820152602760248201527f496e697469616c697a61626c653a20636f6e747261637420697320696e697469604482015266616c697a696e6760c81b606482015260840160405180910390fd5b60005460ff9081161015620000e9576000805460ff191660ff9081179091556040519081527f7f26b83ff96e1f2b6a682f133852f6798a09c465da95921460cefb38474024989060200160405180910390a15b565b60805160601c615f856200012660003960008181610d2501528181610d65015281816115bf015281816115ff01526117530152615f856000f3fe6080604052600436106103505760003560e01c806370a08231116101c6578063b670ed7d116100f7578063dd62ed3e11610095578063f3d2350e1161006f578063f3d2350e146109f4578063f8c2e29b14610a14578063fa461e3314610a29578063fd87f9aa14610a4957600080fd5b8063dd62ed3e1461099f578063df28408a146109bf578063f2fde38b146109d457600080fd5b8063d0c93a7c116100d1578063d0c93a7c14610927578063d21220a714610949578063d34879971461096a578063d7e458b51461098a57600080fd5b8063b670ed7d146108b3578063c45a0155146108d3578063c653089f146108fa57600080fd5b806395d89b4111610164578063a0712d681161013e578063a0712d6814610833578063a457c2d714610853578063a9059cbb14610873578063a9722cf31461089357600080fd5b806395d89b41146107c85780639894f21a146107dd5780639b1344ac1461081857600080fd5b8063727dd228116101a0578063727dd2281461074d5780638456cb591461078257806387788782146107975780639403c1ae146107b357600080fd5b806370a08231146106ed578063715018a61461072357806371908a031461073857600080fd5b806339509351116102a05780634f1ef2861161023e5780635c975abb116102185780635c975abb14610673578063601b48a41461068c57806367b9a286146106c257806370889165146106d757600080fd5b80634f1ef2861461062b5780634fa62c5f1461063e57806352d1902d1461065e57600080fd5b80634043f5ca1161027a5780634043f5ca146105bb57806342966c68146105d657806342fb9d44146105f6578063481c6a751461060d57600080fd5b806339509351146105665780633d048c27146105865780633f4ba83a146105a657600080fd5b806318160ddd1161030d5780632958d031116102e75780632958d031146104aa578063313ce567146105085780633659cfe614610524578063365b98b21461054657600080fd5b806318160ddd14610455578063195cd92c1461046a57806323b872dd1461048a57600080fd5b8063065756db1461035557806306fdde031461037f578063095ea7b3146103a15780630dfe1681146103d15780631322d9541461040a57806316f0115b14610434575b600080fd5b34801561036157600080fd5b5061036c6101605481565b6040519081526020015b60405180910390f35b34801561038b57600080fd5b50610394610a69565b6040516103769190615b56565b3480156103ad57600080fd5b506103c16103bc3660046156ce565b610afb565b6040519015158152602001610376565b3480156103dd57600080fd5b50610163546103f2906001600160a01b031681565b6040516001600160a01b039091168152602001610376565b34801561041657600080fd5b5061041f610b13565b60408051928352602083019190915201610376565b34801561044057600080fd5b50610162546103f2906001600160a01b031681565b34801561046157600080fd5b5060fd5461036c565b34801561047657600080fd5b5061041f610485366004615715565b610bbd565b34801561049657600080fd5b506103c16104a53660046155ea565b610cf4565b3480156104b657600080fd5b506104eb6104c5366004615506565b6101696020526000908152604090208054600182015460029092015460ff909116919083565b604080519315158452602084019290925290820152606001610376565b34801561051457600080fd5b5060405160128152602001610376565b34801561053057600080fd5b5061054461053f366004615506565b610d1a565b005b34801561055257600080fd5b506103f2610561366004615a4f565b610dfa565b34801561057257600080fd5b506103c16105813660046156ce565b610e25565b34801561059257600080fd5b506105446105a1366004615678565b610e47565b3480156105b257600080fd5b50610544611179565b3480156105c757600080fd5b50610168546103c19060ff1681565b3480156105e257600080fd5b5061041f6105f1366004615a4f565b6111bc565b34801561060257600080fd5b5061036c6101615481565b34801561061957600080fd5b506097546001600160a01b03166103f2565b61054461063936600461562a565b6115b4565b34801561064a57600080fd5b5061054461065936600461576e565b611685565b34801561066a57600080fd5b5061036c611746565b34801561067f57600080fd5b5061012d5460ff166103c1565b34801561069857600080fd5b5061015f546106af90600160301b900461ffff1681565b60405161ffff9091168152602001610376565b3480156106ce57600080fd5b506105446117f9565b3480156106e357600080fd5b506106af6103e881565b3480156106f957600080fd5b5061036c610708366004615506565b6001600160a01b0316600090815260fb602052604090205490565b34801561072f57600080fd5b50610544611a1c565b34801561074457600080fd5b5061041f611a9f565b34801561075957600080fd5b5061015f5461076f906301000000900460020b81565b60405160029190910b8152602001610376565b34801561078e57600080fd5b50610544611c30565b3480156107a357600080fd5b5061016b546106af9061ffff1681565b3480156107bf57600080fd5b50610544611c71565b3480156107d457600080fd5b50610394611ccd565b3480156107e957600080fd5b506107fd6107f8366004615a67565b611cdc565b60408051938452602084019290925290820152606001610376565b34801561082457600080fd5b5061015f5461076f9060020b81565b34801561083f57600080fd5b5061041f61084e366004615a4f565b611e5d565b34801561085f57600080fd5b506103c161086e3660046156ce565b612488565b34801561087f57600080fd5b506103c161088e3660046156ce565b61250e565b34801561089f57600080fd5b50610168546103c190610100900460ff1681565b3480156108bf57600080fd5b5061041f6108ce366004615506565b61251c565b3480156108df57600080fd5b50610168546103f2906201000090046001600160a01b031681565b34801561090657600080fd5b5061091a610915366004615a67565b6125c4565b6040516103769190615ae6565b34801561093357600080fd5b506101645461076f90600160a01b900460020b81565b34801561095557600080fd5b50610164546103f2906001600160a01b031681565b34801561097657600080fd5b50610544610985366004615803565b6127a2565b34801561099657600080fd5b50610544612809565b3480156109ab57600080fd5b5061036c6109ba3660046155b2565b6128ad565b3480156109cb57600080fd5b5061036c6128d8565b3480156109e057600080fd5b506105446109ef366004615506565b61293d565b348015610a0057600080fd5b50610544610a0f366004615a22565b612a39565b348015610a2057600080fd5b506106af606481565b348015610a3557600080fd5b50610544610a44366004615803565b612b2d565b348015610a5557600080fd5b5061041f610a6436600461579b565b612b9f565b606060fe8054610a7890615dbd565b80601f0160208091040260200160405190810160405280929190818152602001828054610aa490615dbd565b8015610af15780601f10610ac657610100808354040283529160200191610af1565b820191906000526020600020905b815481529060010190602001808311610ad457829003601f168201915b5050505050905090565b600033610b09818585612ea6565b5060019392505050565b60008060008061016260009054906101000a90046001600160a01b03166001600160a01b0316633850c7bd6040518163ffffffff1660e01b815260040160e06040518083038186803b158015610b6857600080fd5b505afa158015610b7c573d6000803e3d6000fd5b505050506040513d601f19601f82011682018060405250810190610ba09190615982565b505050505091509150610bb38282612fca565b9350935050509091565b60008033610bd36097546001600160a01b031690565b6001600160a01b031614610c025760405162461bcd60e51b8152600401610bf990615c21565b60405180910390fd5b61016254604051630251596160e31b81523060048201528615156024820152604481018690526001600160a01b03858116606483015260a06084830152600060a48301529091169063128acb089060c4016040805180830381600087803b158015610c6c57600080fd5b505af1158015610c80573d6000803e3d6000fd5b505050506040513d601f19601f82011682018060405250810190610ca491906157e0565b6040805188151581526020810184905290810182905291935091507fbf511038cfa32cfb7971e976074c0e6aeda010e6afcbb38d87b4f910305014949060600160405180910390a1935093915050565b600033610d02858285613266565b610d0d8585856132da565b60019150505b9392505050565b306001600160a01b037f0000000000000000000000000000000000000000000000000000000000000000161415610d635760405162461bcd60e51b8152600401610bf990615b89565b7f00000000000000000000000000000000000000000000000000000000000000006001600160a01b0316610dac600080516020615f09833981519152546001600160a01b031690565b6001600160a01b031614610dd25760405162461bcd60e51b8152600401610bf990615bd5565b610ddb81613485565b60408051600080825260208201909252610df7918391906134b7565b50565b61016a8181548110610e0b57600080fd5b6000918252602090912001546001600160a01b0316905081565b600033610b09818585610e3883836128ad565b610e429190615d07565b612ea6565b600054610100900460ff1615808015610e675750600054600160ff909116105b80610e815750303b158015610e81575060005460ff166001145b610ee45760405162461bcd60e51b815260206004820152602e60248201527f496e697469616c697a61626c653a20636f6e747261637420697320616c72656160448201526d191e481a5b9a5d1a585b1a5e995960921b6064820152608401610bf9565b6000805460ff191660011790558015610f07576000805461ff0019166101001790555b600080600084806020019051810190610f20919061553e565b925092509250610f2e613636565b610f3661365d565b610f40828261368c565b610f486136bd565b61016280546001600160a01b0319166001600160a01b03891690811790915560408051630dfe168160e01b81529051630dfe168191600480820192602092909190829003018186803b158015610f9d57600080fd5b505afa158015610fb1573d6000803e3d6000fd5b505050506040513d601f19601f82011682018060405250810190610fd59190615522565b61016380546001600160a01b0319166001600160a01b03928316179055610162546040805163d21220a760e01b81529051919092169163d21220a7916004808301926020929190829003018186803b15801561103057600080fd5b505afa158015611044573d6000803e3d6000fd5b505050506040513d601f19601f820116820180604052508101906110689190615522565b61016480546001600160a01b039283166001600160b81b031990911617600160a01b62ffffff60028b900b1602179055610168805462010000600160b01b03191633620100000217905561016b805460fa61ffff19909116811790915561015f805467ffff00000000000019169055609780546001600160a01b03191692861692909217909155604080516000815260208101929092527f2ac80c14c28700f7b5e36f947d572149fe2e3947bac32c3a8c098f3e03722c11910160405180910390a15050508015611173576000805461ff0019169055604051600181527f7f26b83ff96e1f2b6a682f133852f6798a09c465da95921460cefb38474024989060200160405180910390a15b50505050565b3361118c6097546001600160a01b031690565b6001600160a01b0316146111b25760405162461bcd60e51b8152600401610bf990615c21565b6111ba6136ec565b565b6000806111c761373f565b6111cf613799565b826111ed576040516302075cc160e41b815260040160405180910390fd5b60006111f860fd5490565b33600081815260fb602052604090205491925061121590866137e0565b6101685460ff161561144257610162546000906001600160a01b031663514ea4bf61123e6128d8565b6040518263ffffffff1660e01b815260040161125c91815260200190565b60a06040518083038186803b15801561127457600080fd5b505afa158015611288573d6000803e3d6000fd5b505050506040513d601f19601f820116820180604052508101906112ac919061592c565b50505050905060006112c887836001600160801b031686613914565b905060006112d5826139c3565b90506000806000806112e685613a30565b93509350935093506112f88282613dc4565b6113028282613e2e565b60408051838152602081018390529294509092507fc28ad1de9c0c32e5394ba60323e44d8d9536312236a47231772e448a3e49de42910160405180910390a161016054610163546040516370a0823160e01b81523060048201526113e4929187916001600160a01b03909116906370a08231906024015b60206040518083038186803b15801561139157600080fd5b505afa1580156113a5573d6000803e3d6000fd5b505050506040513d601f19601f820116820180604052508101906113c99190615756565b6113d39190615d7a565b6113dd9190615d7a565b8d8b613914565b6113ee9085615d07565b61016154610164546040516370a0823160e01b8152306004820152929d5061142a9286916001600160a01b0316906370a0823190602401611379565b6114349084615d07565b99505050505050505061146e565b60008061144d610b13565b9150915061145c828886613914565b9550611469818886613914565b945050505b6114788484613e92565b6000806114858686613eae565b909250905085156114f4578261149b8882615d7a565b33600090815261016960205260409020600101546114b99190615d33565b6114c39190615d1f565b3360008181526101696020526040902060010191909155610163546114f4916001600160a01b039091169084613ed0565b841561155e57826115058882615d7a565b33600090815261016960205260409020600201546115239190615d33565b61152d9190615d1f565b33600081815261016960205260409020600201919091556101645461155e916001600160a01b039091169083613ed0565b604080518881526020810184905290810182905233907f4c60206a5c1de41f3376d1d60f0949d96cb682033c90b1c2d9d9a62d4c4120c09060600160405180910390a2505050506115af6001606555565b915091565b306001600160a01b037f00000000000000000000000000000000000000000000000000000000000000001614156115fd5760405162461bcd60e51b8152600401610bf990615b89565b7f00000000000000000000000000000000000000000000000000000000000000006001600160a01b0316611646600080516020615f09833981519152546001600160a01b031690565b6001600160a01b03161461166c5760405162461bcd60e51b8152600401610bf990615bd5565b61167582613485565b611681828260016134b7565b5050565b336116986097546001600160a01b031690565b6001600160a01b0316146116be5760405162461bcd60e51b8152600401610bf990615c21565b60fd541515806116d157506101685460ff165b156116ef57604051632a2c70bb60e11b815260040160405180910390fd5b6116f98282613f3a565b61016854610100900460ff1661168157610168805461ff0019166101001790556040517f452a344f03203071e1daf66e007976c85cb2380deabf1c91f3c4fb1fca41204990600090a15050565b6000306001600160a01b037f000000000000000000000000000000000000000000000000000000000000000016146117e65760405162461bcd60e51b815260206004820152603860248201527f555550535570677261646561626c653a206d757374206e6f742062652063616c60448201527f6c6564207468726f7567682064656c656761746563616c6c00000000000000006064820152608401610bf9565b50600080516020615f0983398151915290565b3361180c6097546001600160a01b031690565b6001600160a01b0316146118325760405162461bcd60e51b8152600401610bf990615c21565b610162546000906001600160a01b031663514ea4bf61184f6128d8565b6040518263ffffffff1660e01b815260040161186d91815260200190565b60a06040518083038186803b15801561188557600080fd5b505afa158015611899573d6000803e3d6000fd5b505050506040513d601f19601f820116820180604052508101906118bd919061592c565b5050505090506000816001600160801b031611156119b75761015f54600281810b9163010000009004900b60008080806118f687613a30565b604080516001600160801b038d16815260028c810b60208301528b900b818301526060810186905260808101859052905194985092965090945092507f6d7e1841bf97c0b736eafb2779459ba1e0af2305cead28a8e97533589ceb2f65919081900360a00190a16119678282613dc4565b6119718282613e2e565b60408051838152602081018390529294509092507fc28ad1de9c0c32e5394ba60323e44d8d9536312236a47231772e448a3e49de42910160405180910390a15050505050505b61015f805463010000008104600290810b900b62ffffff1662ffffff19909116179055610168805460ff19169055604051600081527fd9279952b347fd14af9b788aff1029c0d3b1299b7dcce164fc602a1b958c48809060200160405180910390a150565b33611a2f6097546001600160a01b031690565b6001600160a01b031614611a555760405162461bcd60e51b8152600401610bf990615c21565b6097546040516000916001600160a01b0316907f8be0079c531659141344cd1fd0a4f28419497f9722a3daafe3b4186f6b6457e0908390a3609780546001600160a01b0319169055565b600080600061016260009054906101000a90046001600160a01b03166001600160a01b0316633850c7bd6040518163ffffffff1660e01b815260040160e06040518083038186803b158015611af357600080fd5b505afa158015611b07573d6000803e3d6000fd5b505050506040513d601f19601f82011682018060405250810190611b2b9190615982565b5050610162549395506000945084938493508392508291506001600160a01b031663514ea4bf611b596128d8565b6040518263ffffffff1660e01b8152600401611b7791815260200190565b60a06040518083038186803b158015611b8f57600080fd5b505afa158015611ba3573d6000803e3d6000fd5b505050506040513d601f19601f82011682018060405250810190611bc7919061592c565b94509450945094509450816001600160801b0316611be86001868989613ff7565b611bf29190615d07565b9750806001600160801b0316611c0b6000858989613ff7565b611c159190615d07565b9650611c218888613e2e565b90999098509650505050505050565b33611c436097546001600160a01b031690565b6001600160a01b031614611c695760405162461bcd60e51b8152600401610bf990615c21565b6111ba6143f3565b61016080546101618054600093849055929055908115611ca95760975461016354611ca9916001600160a01b03918216911684613ed0565b80156116815760975461016454611681916001600160a01b03918216911683613ed0565b606060ff8054610a7890615dbd565b600080600061016860019054906101000a900460ff16611d0f57604051630314872760e11b815260040160405180910390fd5b6000611d1a60fd5490565b90508015611d3957611d2d818787614431565b91955093509150611e55565b6101625460408051633850c7bd60e01b815290516000926001600160a01b031691633850c7bd9160048083019260e0929190829003018186803b158015611d7f57600080fd5b505afa158015611d93573d6000803e3d6000fd5b505050506040513d601f19601f82011682018060405250810190611db79190615982565b50505050505090506000611e0382611de161015f60009054906101000a900460020b60020b614534565b61015f54611dfc9063010000009004600290810b900b614534565b8b8b614951565b61015f546001600160801b0382169550909150611e4d908390611e2c90600290810b900b614534565b61015f54611e479063010000009004600290810b900b614534565b84614a15565b909650945050505b509250925092565b600080611e6861373f565b611e70613799565b61016854610100900460ff16611e9957604051630314872760e11b815260040160405180910390fd5b82611eb75760405163199f5a0360e31b815260040160405180910390fd5b6000611ec260fd5490565b610168546101625460408051633850c7bd60e01b8152905193945060ff909216926000926001600160a01b0390921691633850c7bd9160048083019260e0929190829003018186803b158015611f1757600080fd5b505afa158015611f2b573d6000803e3d6000fd5b505050506040513d601f19601f82011682018060405250810190611f4f9190615982565b50505050505090506000831115611f9057600080611f6b610b13565b91509150611f7a828987614ab1565b9650611f87818987614ab1565b95505050611ffc565b8115611fe35761015f54611fd9908290611fb090600290810b900b614534565b61015f54611fcb9063010000009004600290810b900b614534565b611fd48a6139c3565b614a15565b9095509350611ffc565b60405163344fa43b60e01b815260040160405180910390fd5b336000908152610169602052604090205460ff166120735733600081815261016960205260408120805460ff1916600190811790915561016a805491820181559091527f17da1ae71935bc1a620f4cc216c63f7b5576c3970bae66f4178d3166b99125440180546001600160a01b03191690911790555b84156121de5733600090815261016960205260408120600101805487929061209c908490615d07565b9091555050610163546040516370a0823160e01b81523060048201526000916001600160a01b0316906370a082319060240160206040518083038186803b1580156120e657600080fd5b505afa1580156120fa573d6000803e3d6000fd5b505050506040513d601f19601f8201168201806040525081019061211e9190615756565b6101635490915061213a906001600160a01b0316333089614aff565b6121448682615d07565b610163546040516370a0823160e01b81523060048201526001600160a01b03909116906370a082319060240160206040518083038186803b15801561218857600080fd5b505afa15801561219c573d6000803e3d6000fd5b505050506040513d601f19601f820116820180604052508101906121c09190615756565b10156121dc57634e487b7160e01b600052600160045260246000fd5b505b831561234957336000908152610169602052604081206002018054869290612207908490615d07565b9091555050610164546040516370a0823160e01b81523060048201526000916001600160a01b0316906370a082319060240160206040518083038186803b15801561225157600080fd5b505afa158015612265573d6000803e3d6000fd5b505050506040513d601f19601f820116820180604052508101906122899190615756565b610164549091506122a5906001600160a01b0316333088614aff565b6122af8582615d07565b610164546040516370a0823160e01b81523060048201526001600160a01b03909116906370a082319060240160206040518083038186803b1580156122f357600080fd5b505afa158015612307573d6000803e3d6000fd5b505050506040513d601f19601f8201168201806040525081019061232b9190615756565b101561234757634e487b7160e01b600052600160045260246000fd5b505b6123533387614b37565b81156124385761015f5460009061239890839061237690600290810b900b614534565b61015f546123919063010000009004600290810b900b614534565b8989614951565b6101625461015f54604051633c8a7d8d60e01b81529293506001600160a01b0390911691633c8a7d8d916123e3913091600281810b926301000000909204900b908790600401615aa4565b6040805180830381600087803b1580156123fc57600080fd5b505af1158015612410573d6000803e3d6000fd5b505050506040513d601f19601f8201168201806040525081019061243491906157e0565b5050505b604080518781526020810187905290810185905233907f5a3358a3d27a5373c0df2604662088d37894d56b7cfd27f315770440f4e0d9199060600160405180910390a25050506115af6001606555565b6000338161249682866128ad565b9050838110156124f65760405162461bcd60e51b815260206004820152602560248201527f45524332303a2064656372656173656420616c6c6f77616e63652062656c6f77604482015264207a65726f60d81b6064820152608401610bf9565b6125038286868403612ea6565b506001949350505050565b600033610b098185856132da565b600080600061016260009054906101000a90046001600160a01b03166001600160a01b0316633850c7bd6040518163ffffffff1660e01b815260040160e06040518083038186803b15801561257057600080fd5b505afa158015612584573d6000803e3d6000fd5b505050506040513d601f19601f820116820180604052508101906125a89190615982565b50505050509150506125ba8482612fca565b9250925050915091565b6060821580156125d2575081155b156125de5761016a5491505b60006125ea8484615d7a565b67ffffffffffffffff81111561261057634e487b7160e01b600052604160045260246000fd5b60405190808252806020026020018201604052801561266e57816020015b61265b604051806060016040528060006001600160a01b0316815260200160008152602001600081525090565b81526020019060019003908161262e5790505b5090506000845b84811015612798576000610169600061016a84815481106126a657634e487b7160e01b600052603260045260246000fd5b60009182526020808320909101546001600160a01b031683528281019390935260409182019020815160608082018452825460ff161515825260018301549482019490945260029091015481830152815192830190915261016a805491935082918590811061272557634e487b7160e01b600052603260045260246000fd5b600091825260209182902001546001600160a01b031682528381015190820152604080840151910152848461275981615df8565b95508151811061277957634e487b7160e01b600052603260045260246000fd5b602002602001018190525050808061279090615df8565b915050612675565b5090949350505050565b610162546001600160a01b031633146127cd57604051620b7d9960e41b815260040160405180910390fd5b83156127eb57610163546127eb906001600160a01b03163386613ed0565b82156111735761016454611173906001600160a01b03163385613ed0565b3361281c6097546001600160a01b031690565b6001600160a01b0316146128425760405162461bcd60e51b8152600401610bf990615c21565b60008061284f6000613a30565b93509350505061285f8282613dc4565b6128698282613e2e565b60408051838152602081018390529294509092507fc28ad1de9c0c32e5394ba60323e44d8d9536312236a47231772e448a3e49de4291015b60405180910390a15050565b6001600160a01b03918216600090815260fc6020908152604080832093909416825291909152205490565b61015f546040516bffffffffffffffffffffffff193060601b166020820152600282810b810b60e890811b60348401526301000000909304810b900b90911b6037820152600090603a0160405160208183030381529060405280519060200120905090565b336129506097546001600160a01b031690565b6001600160a01b0316146129765760405162461bcd60e51b8152600401610bf990615c21565b6001600160a01b0381166129dd5760405162461bcd60e51b815260206004820152602860248201527f4f776e61626c653a206e6577206d616e6167657220697320746865207a65726f604482015267206164647265737360c01b6064820152608401610bf9565b6097546040516001600160a01b038084169216907f8be0079c531659141344cd1fd0a4f28419497f9722a3daafe3b4186f6b6457e090600090a3609780546001600160a01b0319166001600160a01b0392909216919091179055565b33612a4c6097546001600160a01b031690565b6001600160a01b031614612a725760405162461bcd60e51b8152600401610bf990615c21565b606461ffff83161115612a98576040516313f90f0b60e31b815260040160405180910390fd5b6103e861ffff82161115612abf57604051630f14508d60e41b815260040160405180910390fd5b61015f805467ffff0000000000001916600160301b61ffff8581169182029290921790925561016b805461ffff191691841691821790556040805192835260208301919091527f2ac80c14c28700f7b5e36f947d572149fe2e3947bac32c3a8c098f3e03722c1191016128a1565b610162546001600160a01b03163314612b5857604051620b7d9960e41b815260040160405180910390fd5b6000841315612b7e5761016354612b79906001600160a01b03163386613ed0565b611173565b60008313156111735761016454611173906001600160a01b03163385613ed0565b60008033612bb56097546001600160a01b031690565b6001600160a01b031614612bdb5760405162461bcd60e51b8152600401610bf990615c21565b612be58686614bf8565b6101625460408051633850c7bd60e01b815290516000926001600160a01b031691633850c7bd9160048083019260e0929190829003018186803b158015612c2b57600080fd5b505afa158015612c3f573d6000803e3d6000fd5b505050506040513d601f19601f82011682018060405250810190612c639190615982565b50505050505090506000612c8982612c7d8a60020b614534565b6123918a60020b614534565b90506001600160801b03811615612e4b5761016254604051633c8a7d8d60e01b815260009182916001600160a01b0390911690633c8a7d8d90612cd69030908e908e908990600401615aa4565b6040805180830381600087803b158015612cef57600080fd5b505af1158015612d03573d6000803e3d6000fd5b505050506040513d601f19601f82011682018060405250810190612d2791906157e0565b9092509050612d368289615d7a565b9550612d428188615d7a565b61015f5490955060028b810b91810b900b141580612d73575061015f5460028a810b6301000000909204810b900b14155b15612ded5761015f805460028b810b62ffffff90811663010000000265ffffffffffff19909316918e900b16171790556040517f8e3ac6cc9b82795b40740ca4e954df8f6655fe35e80cdc6fb33d50c3423fcd1690612de4908c908c90600292830b8152910b602082015260400190565b60405180910390a15b604080516001600160801b038516815260028c810b60208301528b900b81830152606081018490526080810183905290517ffa715a0b1bc7287b5d3581c11478041b0455aad0c17361fc1e55fffbdd4b6c4f9181900360a00190a150505b6101685460ff16612e9b57610168805460ff191660019081179091556040519081527fd9279952b347fd14af9b788aff1029c0d3b1299b7dcce164fc602a1b958c48809060200160405180910390a15b505094509492505050565b6001600160a01b038316612f085760405162461bcd60e51b8152602060048201526024808201527f45524332303a20617070726f76652066726f6d20746865207a65726f206164646044820152637265737360e01b6064820152608401610bf9565b6001600160a01b038216612f695760405162461bcd60e51b815260206004820152602260248201527f45524332303a20617070726f766520746f20746865207a65726f206164647265604482015261737360f01b6064820152608401610bf9565b6001600160a01b03838116600081815260fc602090815260408083209487168084529482529182902085905590518481527f8c5be1e5ebec7d5bd14f71427d1e84f3dd0314c0f7b2291e5b200ac8c7c3b925910160405180910390a3505050565b610162546000908190819081908190819081906001600160a01b031663514ea4bf612ff36128d8565b6040518263ffffffff1660e01b815260040161301191815260200190565b60a06040518083038186803b15801561302957600080fd5b505afa15801561303d573d6000803e3d6000fd5b505050506040513d601f19601f82011682018060405250810190613061919061592c565b94509450945094509450600080866001600160801b03166000146131155761015f546130ba908c9061309990600290810b900b614534565b61015f546130b49063010000009004600290810b900b614534565b8a614a15565b90995097506001600160801b0384166130d66001888d8b613ff7565b6130e09190615d07565b9150826001600160801b03166130f96000878d8b613ff7565b6131039190615d07565b905061310f8282613e2e565b90925090505b61016054610163546040516370a0823160e01b81523060048201526001600160a01b03909116906370a082319060240160206040518083038186803b15801561315d57600080fd5b505afa158015613171573d6000803e3d6000fd5b505050506040513d601f19601f820116820180604052508101906131959190615756565b61319f9084615d07565b6131a99190615d7a565b6131b3908a615d07565b61016154610164546040516370a0823160e01b8152306004820152929b5090916001600160a01b03909116906370a082319060240160206040518083038186803b15801561320057600080fd5b505afa158015613214573d6000803e3d6000fd5b505050506040513d601f19601f820116820180604052508101906132389190615756565b6132429083615d07565b61324c9190615d7a565b6132569089615d07565b9750505050505050509250929050565b600061327284846128ad565b9050600019811461117357818110156132cd5760405162461bcd60e51b815260206004820152601d60248201527f45524332303a20696e73756666696369656e7420616c6c6f77616e63650000006044820152606401610bf9565b6111738484848403612ea6565b6001600160a01b03831661333e5760405162461bcd60e51b815260206004820152602560248201527f45524332303a207472616e736665722066726f6d20746865207a65726f206164604482015264647265737360d81b6064820152608401610bf9565b6001600160a01b0382166133a05760405162461bcd60e51b815260206004820152602360248201527f45524332303a207472616e7366657220746f20746865207a65726f206164647260448201526265737360e81b6064820152608401610bf9565b6001600160a01b038316600090815260fb6020526040902054818110156134185760405162461bcd60e51b815260206004820152602660248201527f45524332303a207472616e7366657220616d6f756e7420657863656564732062604482015265616c616e636560d01b6064820152608401610bf9565b6001600160a01b03808516600081815260fb602052604080822086860390559286168082529083902080548601905591517fddf252ad1be2c89b69c2b068fc378daa952ba7f163c4a11628f55a4df523b3ef906134789086815260200190565b60405180910390a3611173565b610168546201000090046001600160a01b03163314610df757604051631b1319e560e01b815260040160405180910390fd5b7f4910fdfa16fed3260ed0e7147f7cc6da11a60208b5b9406d12a635614ffd91435460ff16156134ef576134ea83614cad565b505050565b826001600160a01b03166352d1902d6040518163ffffffff1660e01b815260040160206040518083038186803b15801561352857600080fd5b505afa925050508015613558575060408051601f3d908101601f1916820190925261355591810190615756565b60015b6135bb5760405162461bcd60e51b815260206004820152602e60248201527f45524331393637557067726164653a206e657720696d706c656d656e7461746960448201526d6f6e206973206e6f74205555505360901b6064820152608401610bf9565b600080516020615f09833981519152811461362a5760405162461bcd60e51b815260206004820152602960248201527f45524331393637557067726164653a20756e737570706f727465642070726f786044820152681a58589b195555525160ba1b6064820152608401610bf9565b506134ea838383614d49565b600054610100900460ff166111ba5760405162461bcd60e51b8152600401610bf990615c63565b600054610100900460ff166136845760405162461bcd60e51b8152600401610bf990615c63565b6111ba614d6e565b600054610100900460ff166136b35760405162461bcd60e51b8152600401610bf990615c63565b6116818282614d95565b600054610100900460ff166136e45760405162461bcd60e51b8152600401610bf990615c63565b6111ba614de3565b6136f4614e17565b61012d805460ff191690557f5db9ee0a495bf2e6ff9c91a7834c1ba4fdd244a5e8aa4e537bd38aeae4b073aa335b6040516001600160a01b03909116815260200160405180910390a1565b600260655414156137925760405162461bcd60e51b815260206004820152601f60248201527f5265656e7472616e637947756172643a207265656e7472616e742063616c6c006044820152606401610bf9565b6002606555565b61012d5460ff16156111ba5760405162461bcd60e51b815260206004820152601060248201526f14185d5cd8589b194e881c185d5cd95960821b6044820152606401610bf9565b6001600160a01b0382166138405760405162461bcd60e51b815260206004820152602160248201527f45524332303a206275726e2066726f6d20746865207a65726f206164647265736044820152607360f81b6064820152608401610bf9565b6001600160a01b038216600090815260fb6020526040902054818110156138b45760405162461bcd60e51b815260206004820152602260248201527f45524332303a206275726e20616d6f756e7420657863656564732062616c616e604482015261636560f01b6064820152608401610bf9565b6001600160a01b038316600081815260fb60209081526040808320868603905560fd80548790039055518581529192917fddf252ad1be2c89b69c2b068fc378daa952ba7f163c4a11628f55a4df523b3ef910160405180910390a3505050565b60008080600019858709858702925082811083820303915050806000141561394e576000841161394357600080fd5b508290049050610d13565b80841161395a57600080fd5b60008486880960026001871981018816978890046003810283188082028403028082028403028082028403028082028403028082028403029081029092039091026000889003889004909101858311909403939093029303949094049190911702949350505050565b60006001600160801b03821115613a2c5760405162461bcd60e51b815260206004820152602760248201527f53616665436173743a2076616c756520646f65736e27742066697420696e20316044820152663238206269747360c81b6064820152608401610bf9565b5090565b61015f54610163546040516370a0823160e01b8152306004820152600092839283928392600281810b936301000000909204900b9184916001600160a01b0316906370a082319060240160206040518083038186803b158015613a9257600080fd5b505afa158015613aa6573d6000803e3d6000fd5b505050506040513d601f19601f82011682018060405250810190613aca9190615756565b610164546040516370a0823160e01b81523060048201529192506000916001600160a01b03909116906370a082319060240160206040518083038186803b158015613b1457600080fd5b505afa158015613b28573d6000803e3d6000fd5b505050506040513d601f19601f82011682018060405250810190613b4c9190615756565b6101625460405163a34123a760e01b8152600287810b600483015286900b60248201526001600160801b038c1660448201529192506001600160a01b03169063a34123a7906064016040805180830381600087803b158015613bad57600080fd5b505af1158015613bc1573d6000803e3d6000fd5b505050506040513d601f19601f82011682018060405250810190613be591906157e0565b610162546040516309e3d67b60e31b8152306004820152600288810b602483015287900b60448201526001600160801b03606482018190526084820152929a509098506001600160a01b031690634f1eb3d89060a4016040805180830381600087803b158015613c5457600080fd5b505af1158015613c68573d6000803e3d6000fd5b505050506040513d601f19601f82011682018060405250810190613c8c91906158fa565b5050610163546040516370a0823160e01b8152306004820152899184916001600160a01b03909116906370a082319060240160206040518083038186803b158015613cd657600080fd5b505afa158015613cea573d6000803e3d6000fd5b505050506040513d601f19601f82011682018060405250810190613d0e9190615756565b613d189190615d7a565b613d229190615d7a565b610164546040516370a0823160e01b8152306004820152919750889183916001600160a01b0316906370a082319060240160206040518083038186803b158015613d6b57600080fd5b505afa158015613d7f573d6000803e3d6000fd5b505050506040513d601f19601f82011682018060405250810190613da39190615756565b613dad9190615d7a565b613db79190615d7a565b9450505050509193509193565b61016b5461ffff16612710613dd98285615d33565b613de39190615d1f565b6101606000828254613df59190615d07565b909155506127109050613e088284615d33565b613e129190615d1f565b6101616000828254613e249190615d07565b9091555050505050565b61016b54600090819061ffff1681612710613e498388615d33565b613e539190615d1f565b90506000612710613e648488615d33565b613e6e9190615d1f565b9050613e7a8288615d7a565b9450613e868187615d7a565b93505050509250929050565b61015f54600160301b900461ffff16612710613dd98285615d33565b61015f546000908190600160301b900461ffff1681612710613e498388615d33565b6040516001600160a01b0383166024820152604481018290526134ea90849063a9059cbb60e01b906064015b60408051601f198184030181529190526020810180516001600160e01b03166001600160e01b031990931692909217909152614e61565b6001606555565b613f448282614bf8565b61015f8054600283810b62ffffff90811663010000000265ffffffffffff199093169186900b1617179055610168805460ff191660019081179091556040517fd9279952b347fd14af9b788aff1029c0d3b1299b7dcce164fc602a1b958c488091613fb491901515815260200190565b60405180910390a160408051600284810b825283900b60208201527f8e3ac6cc9b82795b40740ca4e954df8f6655fe35e80cdc6fb33d50c3423fcd1691016128a1565b60008060008087156141bf5761016260009054906101000a90046001600160a01b03166001600160a01b031663f30583996040518163ffffffff1660e01b815260040160206040518083038186803b15801561405257600080fd5b505afa158015614066573d6000803e3d6000fd5b505050506040513d601f19601f8201168201806040525081019061408a9190615756565b6101625461015f5460405163f30dba9360e01b8152600291820b90910b60048201529192506001600160a01b03169063f30dba93906024016101006040518083038186803b1580156140db57600080fd5b505afa1580156140ef573d6000803e3d6000fd5b505050506040513d601f19601f820116820180604052508101906141139190615854565b50506101625461015f5460405163f30dba9360e01b8152959a506001600160a01b03909116965063f30dba93955061415e94630100000090910460020b93506004019150615b489050565b6101006040518083038186803b15801561417757600080fd5b505afa15801561418b573d6000803e3d6000fd5b505050506040513d601f19601f820116820180604052508101906141af9190615854565b5093975061437595505050505050565b61016260009054906101000a90046001600160a01b03166001600160a01b031663461413196040518163ffffffff1660e01b815260040160206040518083038186803b15801561420e57600080fd5b505afa158015614222573d6000803e3d6000fd5b505050506040513d601f19601f820116820180604052508101906142469190615756565b6101625461015f5460405163f30dba9360e01b8152600291820b90910b60048201529192506001600160a01b03169063f30dba93906024016101006040518083038186803b15801561429757600080fd5b505afa1580156142ab573d6000803e3d6000fd5b505050506040513d601f19601f820116820180604052508101906142cf9190615854565b50506101625461015f5460405163f30dba9360e01b8152949a506001600160a01b03909116965063f30dba93955061431994506301000000900460020b926004019150615b489050565b6101006040518083038186803b15801561433257600080fd5b505afa158015614346573d6000803e3d6000fd5b505050506040513d601f19601f8201168201806040525081019061436a9190615854565b509297505050505050505b61015f54600090600290810b810b9088900b12614393575082614398565b508281035b600061015f60039054906101000a900460020b60020b8860020b12156143bf5750826143c4565b508282035b8183038190036143e46001600160801b0389168b8303600160801b613914565b9b9a5050505050505050505050565b6143fb613799565b61012d805460ff191660011790557f62e78cea01bee320cd4e420270b5ea74000d11b0c9f74754ebdbfc544b05a2586137223390565b6000806000806000614441610b13565b915091508160001480156144555750600081115b1561446c57614465868983613914565b925061450f565b8015801561447a5750600082115b1561448a57614465878984613914565b81158015614496575080155b156144b45760405163f912977760e01b815260040160405180910390fd5b60006144c1888a85613914565b905060006144d0888b85613914565b90508115806144dd575080155b156144fb57604051630856e64360e21b815260040160405180910390fd5b808210614508578061450a565b815b945050505b61451a83838a614ab1565b945061452783828a614ab1565b9350505093509350939050565b60008060008360020b1261454b578260020b614558565b8260020b61455890615e6a565b9050614567620d89e719615e49565b60020b81111561459d5760405162461bcd60e51b81526020600482015260016024820152601560fa1b6044820152606401610bf9565b6000600182166145b157600160801b6145c3565b6ffffcb933bd6fad37aa2d162d1a5940015b70ffffffffffffffffffffffffffffffffff16905060028216156146025760806145fd826ffff97272373d413259a46990580e213a615d33565b901c90505b600482161561462c576080614627826ffff2e50f5f656932ef12357cf3c7fdcc615d33565b901c90505b6008821615614656576080614651826fffe5caca7e10e4e61c3624eaa0941cd0615d33565b901c90505b601082161561468057608061467b826fffcb9843d60f6159c9db58835c926644615d33565b901c90505b60208216156146aa5760806146a5826fff973b41fa98c081472e6896dfb254c0615d33565b901c90505b60408216156146d45760806146cf826fff2ea16466c96a3843ec78b326b52861615d33565b901c90505b60808216156146fe5760806146f9826ffe5dee046a99a2a811c461f1969c3053615d33565b901c90505b610100821615614729576080614724826ffcbe86c7900a88aedcffc83b479aa3a4615d33565b901c90505b61020082161561475457608061474f826ff987a7253ac413176f2b074cf7815e54615d33565b901c90505b61040082161561477f57608061477a826ff3392b0822b70005940c7a398e4b70f3615d33565b901c90505b6108008216156147aa5760806147a5826fe7159475a2c29b7443b29c7fa6e889d9615d33565b901c90505b6110008216156147d55760806147d0826fd097f3bdfd2022b8845ad8f792aa5825615d33565b901c90505b6120008216156148005760806147fb826fa9f746462d870fdf8a65dc1f90e061e5615d33565b901c90505b61400082161561482b576080614826826f70d869a156d2a1b890bb3df62baf32f7615d33565b901c90505b618000821615614856576080614851826f31be135f97d08fd981231505542fcfa6615d33565b901c90505b6201000082161561488257608061487d826f09aa508b5b7a84e1c677de54f3e99bc9615d33565b901c90505b620200008216156148ad5760806148a8826e5d6af8dedb81196699c329225ee604615d33565b901c90505b620400008216156148d75760806148d2826d2216e584f5fa1ea926041bedfe98615d33565b901c90505b620800008216156148ff5760806148fa826b048a170391f7dc42444e8fa2615d33565b901c90505b60008460020b131561491a5761491781600019615d1f565b90505b61492964010000000082615e35565b15614935576001614938565b60005b6149499060ff16602083901c615d07565b949350505050565b6000836001600160a01b0316856001600160a01b03161115614971579293925b846001600160a01b0316866001600160a01b03161161499c57614995858585614f33565b9050614a0c565b836001600160a01b0316866001600160a01b031610156149fe5760006149c3878686614f33565b905060006149d2878986614f9d565b9050806001600160801b0316826001600160801b0316106149f357806149f5565b815b92505050614a0c565b614a09858584614f9d565b90505b95945050505050565b600080836001600160a01b0316856001600160a01b03161115614a36579293925b846001600160a01b0316866001600160a01b031611614a6157614a5a858585614fd3565b9150614aa8565b836001600160a01b0316866001600160a01b03161015614a9a57614a86868585614fd3565b9150614a93858785615046565b9050614aa8565b614aa5858585615046565b90505b94509492505050565b6000614abe848484613914565b905060008280614ade57634e487b7160e01b600052601260045260246000fd5b8486091115610d13576000198110614af557600080fd5b80614a0c81615df8565b6040516001600160a01b03808516602483015283166044820152606481018290526111739085906323b872dd60e01b90608401613efc565b6001600160a01b038216614b8d5760405162461bcd60e51b815260206004820152601f60248201527f45524332303a206d696e7420746f20746865207a65726f2061646472657373006044820152606401610bf9565b8060fd6000828254614b9f9190615d07565b90915550506001600160a01b038216600081815260fb60209081526040808320805486019055518481527fddf252ad1be2c89b69c2b068fc378daa952ba7f163c4a11628f55a4df523b3ef910160405180910390a35050565b620d89e719600283900b1280614c1f5750614c16620d89e719615e49565b60020b8160020b135b15614c3d5760405163137b639d60e21b815260040160405180910390fd5b8060020b8260020b121580614c6b575061016454614c6590600160a01b900460020b83615e13565b60020b15155b80614c8f575061016454614c8990600160a01b900460020b82615e13565b60020b15155b1561168157604051633981390b60e11b815260040160405180910390fd5b6001600160a01b0381163b614d1a5760405162461bcd60e51b815260206004820152602d60248201527f455243313936373a206e657720696d706c656d656e746174696f6e206973206e60448201526c1bdd08184818dbdb9d1c9858dd609a1b6064820152608401610bf9565b600080516020615f0983398151915280546001600160a01b0319166001600160a01b0392909216919091179055565b614d5283615090565b600082511180614d5f5750805b156134ea5761117383836150d0565b600054610100900460ff16613f335760405162461bcd60e51b8152600401610bf990615c63565b600054610100900460ff16614dbc5760405162461bcd60e51b8152600401610bf990615c63565b8151614dcf9060fe906020850190615379565b5080516134ea9060ff906020840190615379565b600054610100900460ff16614e0a5760405162461bcd60e51b8152600401610bf990615c63565b61012d805460ff19169055565b61012d5460ff166111ba5760405162461bcd60e51b815260206004820152601460248201527314185d5cd8589b194e881b9bdd081c185d5cd95960621b6044820152606401610bf9565b6000614eb6826040518060400160405280602081526020017f5361666545524332303a206c6f772d6c6576656c2063616c6c206661696c6564815250856001600160a01b03166151bb9092919063ffffffff16565b8051909150156134ea5780806020019051810190614ed491906156f9565b6134ea5760405162461bcd60e51b815260206004820152602a60248201527f5361666545524332303a204552433230206f7065726174696f6e20646964206e6044820152691bdd081cdd58d8d9595960b21b6064820152608401610bf9565b6000826001600160a01b0316846001600160a01b03161115614f53579192915b6000614f76856001600160a01b0316856001600160a01b0316600160601b613914565b9050614a0c614f988483614f8a8989615d52565b6001600160a01b0316613914565b6151ca565b6000826001600160a01b0316846001600160a01b03161115614fbd579192915b614949614f9883600160601b614f8a8888615d52565b6000826001600160a01b0316846001600160a01b03161115614ff3579192915b6001600160a01b03841661503c6fffffffffffffffffffffffffffffffff60601b606085901b166150248787615d52565b6001600160a01b0316866001600160a01b0316613914565b6149499190615d1f565b6000826001600160a01b0316846001600160a01b03161115615066579192915b6149496001600160801b03831661507d8686615d52565b6001600160a01b0316600160601b613914565b61509981614cad565b6040516001600160a01b038216907fbc7cd75a20ee27fd9adebab32041f755214dbc6bffa90cc0225b39da2e5c2d3b90600090a250565b60606001600160a01b0383163b6151385760405162461bcd60e51b815260206004820152602660248201527f416464726573733a2064656c65676174652063616c6c20746f206e6f6e2d636f6044820152651b9d1c9858dd60d21b6064820152608401610bf9565b600080846001600160a01b0316846040516151539190615a88565b600060405180830381855af49150503d806000811461518e576040519150601f19603f3d011682016040523d82523d6000602084013e615193565b606091505b5091509150614a0c8282604051806060016040528060278152602001615f29602791396151e5565b606061494984846000856151fe565b806001600160801b03811681146151e057600080fd5b919050565b606083156151f4575081610d13565b610d1383836152d9565b60608247101561525f5760405162461bcd60e51b815260206004820152602660248201527f416464726573733a20696e73756666696369656e742062616c616e636520666f6044820152651c8818d85b1b60d21b6064820152608401610bf9565b600080866001600160a01b0316858760405161527b9190615a88565b60006040518083038185875af1925050503d80600081146152b8576040519150601f19603f3d011682016040523d82523d6000602084013e6152bd565b606091505b50915091506152ce87838387615303565b979650505050505050565b8151156152e95781518083602001fd5b8060405162461bcd60e51b8152600401610bf99190615b56565b6060831561536f578251615368576001600160a01b0385163b6153685760405162461bcd60e51b815260206004820152601d60248201527f416464726573733a2063616c6c20746f206e6f6e2d636f6e74726163740000006044820152606401610bf9565b5081614949565b61494983836152d9565b82805461538590615dbd565b90600052602060002090601f0160209004810192826153a757600085556153ed565b82601f106153c057805160ff19168380011785556153ed565b828001600101855582156153ed579182015b828111156153ed5782518255916020019190600101906153d2565b50613a2c9291505b80821115613a2c57600081556001016153f5565b80516151e081615edb565b60008083601f840112615425578182fd5b50813567ffffffffffffffff81111561543c578182fd5b60208301915083602082850101111561545457600080fd5b9250929050565b600082601f83011261546b578081fd5b813561547e61547982615cdf565b615cae565b818152846020838601011115615492578283fd5b816020850160208301379081016020019190915292915050565b600082601f8301126154bc578081fd5b81516154ca61547982615cdf565b8181528460208386010111156154de578283fd5b614949826020830160208701615d91565b80516001600160801b03811681146151e057600080fd5b600060208284031215615517578081fd5b8135610d1381615ec6565b600060208284031215615533578081fd5b8151610d1381615ec6565b600080600060608486031215615552578182fd5b835161555d81615ec6565b602085015190935067ffffffffffffffff8082111561557a578384fd5b615586878388016154ac565b9350604086015191508082111561559b578283fd5b506155a8868287016154ac565b9150509250925092565b600080604083850312156155c4578182fd5b82356155cf81615ec6565b915060208301356155df81615ec6565b809150509250929050565b6000806000606084860312156155fe578283fd5b833561560981615ec6565b9250602084013561561981615ec6565b929592945050506040919091013590565b6000806040838503121561563c578182fd5b823561564781615ec6565b9150602083013567ffffffffffffffff811115615662578182fd5b61566e8582860161545b565b9150509250929050565b60008060006060848603121561568c578081fd5b833561569781615ec6565b925060208401356156a781615ee9565b9150604084013567ffffffffffffffff8111156156c2578182fd5b6155a88682870161545b565b600080604083850312156156e0578182fd5b82356156eb81615ec6565b946020939093013593505050565b60006020828403121561570a578081fd5b8151610d1381615edb565b600080600060608486031215615729578081fd5b833561573481615edb565b925060208401359150604084013561574b81615ec6565b809150509250925092565b600060208284031215615767578081fd5b5051919050565b60008060408385031215615780578182fd5b823561578b81615ee9565b915060208301356155df81615ee9565b600080600080608085870312156157b0578182fd5b84356157bb81615ee9565b935060208501356157cb81615ee9565b93969395505050506040820135916060013590565b600080604083850312156157f2578182fd5b505080516020909101519092909150565b60008060008060608587031215615818578182fd5b8435935060208501359250604085013567ffffffffffffffff81111561583c578283fd5b61584887828801615414565b95989497509550505050565b600080600080600080600080610100898b031215615870578586fd5b615879896154ef565b9750602089015180600f0b811461588e578687fd5b80975050604089015195506060890151945060808901518060060b81146158b3578485fd5b60a08a01519094506158c481615ec6565b60c08a015190935063ffffffff811681146158dd578283fd5b91506158eb60e08a01615409565b90509295985092959890939650565b6000806040838503121561590c578182fd5b615915836154ef565b9150615923602084016154ef565b90509250929050565b600080600080600060a08688031215615943578283fd5b61594c866154ef565b94506020860151935060408601519250615968606087016154ef565b9150615976608087016154ef565b90509295509295909350565b600080600080600080600060e0888a03121561599c578081fd5b87516159a781615ec6565b60208901519097506159b881615ee9565b60408901519096506159c981615ef8565b60608901519095506159da81615ef8565b60808901519094506159eb81615ef8565b60a089015190935060ff81168114615a01578182fd5b60c0890151909250615a1281615edb565b8091505092959891949750929550565b60008060408385031215615a34578182fd5b8235615a3f81615ef8565b915060208301356155df81615ef8565b600060208284031215615a60578081fd5b5035919050565b60008060408385031215615a79578182fd5b50508035926020909101359150565b60008251615a9a818460208701615d91565b9190910192915050565b6001600160a01b03949094168452600292830b6020850152910b60408301526001600160801b0316606082015260a06080820181905260009082015260c00190565b602080825282518282018190526000919060409081850190868401855b82811015615b3b57815180516001600160a01b0316855286810151878601528501518585015260609093019290850190600101615b03565b5091979650505050505050565b60029190910b815260200190565b6020815260008251806020840152615b75816040850160208701615d91565b601f01601f19169190910160400192915050565b6020808252602c908201527f46756e6374696f6e206d7573742062652063616c6c6564207468726f7567682060408201526b19195b1959d85d1958d85b1b60a21b606082015260800190565b6020808252602c908201527f46756e6374696f6e206d7573742062652063616c6c6564207468726f7567682060408201526b6163746976652070726f787960a01b606082015260800190565b60208082526022908201527f4f776e61626c653a2063616c6c6572206973206e6f7420746865206d616e616760408201526132b960f11b606082015260800190565b6020808252602b908201527f496e697469616c697a61626c653a20636f6e7472616374206973206e6f74206960408201526a6e697469616c697a696e6760a81b606082015260800190565b604051601f8201601f1916810167ffffffffffffffff81118282101715615cd757615cd7615eb0565b604052919050565b600067ffffffffffffffff821115615cf957615cf9615eb0565b50601f01601f191660200190565b60008219821115615d1a57615d1a615e84565b500190565b600082615d2e57615d2e615e9a565b500490565b6000816000190483118215151615615d4d57615d4d615e84565b500290565b60006001600160a01b0383811690831681811015615d7257615d72615e84565b039392505050565b600082821015615d8c57615d8c615e84565b500390565b60005b83811015615dac578181015183820152602001615d94565b838111156111735750506000910152565b600181811c90821680615dd157607f821691505b60208210811415615df257634e487b7160e01b600052602260045260246000fd5b50919050565b6000600019821415615e0c57615e0c615e84565b5060010190565b60008260020b80615e2657615e26615e9a565b808360020b0791505092915050565b600082615e4457615e44615e9a565b500690565b60008160020b627fffff19811415615e6357615e63615e84565b9003919050565b6000600160ff1b821415615e8057615e80615e84565b0390565b634e487b7160e01b600052601160045260246000fd5b634e487b7160e01b600052601260045260246000fd5b634e487b7160e01b600052604160045260246000fd5b6001600160a01b0381168114610df757600080fd5b8015158114610df757600080fd5b8060020b8114610df757600080fd5b61ffff81168114610df757600080fdfe360894a13ba1a3210667c828492db98dca3e2076cc3735a920a3ca505d382bbc416464726573733a206c6f772d6c6576656c2064656c65676174652063616c6c206661696c6564a26469706673582212203749619452397f3979dabffcdba34deb553c30b9e15ec2a703e3900c4af9b67b64736f6c63430008040033",
  "linkReferences": {},
  "deployedLinkReferences": {}
}