{
  "_format": "hh-sol-artifact-1",
  "contractName": "RangeProtocolVault",
  "sourceName": "contracts/RangeProtocolVault.sol",
  "abi": [
    {
      "inputs": [],
      "stateMutability": "nonpayable",
      "type": "constructor"
    },
    {
      "inputs": [],
      "name": "InvalidBurnAmount",
      "type": "error"
    },
    {
      "inputs": [],
      "name": "InvalidManagerFee",
      "type": "error"
    },
    {
      "inputs": [],
      "name": "InvalidMintAmount",
      "type": "error"
    },
    {
      "inputs": [],
      "name": "InvalidTicksSpacing",
      "type": "error"
    },
    {
      "inputs": [],
      "name": "MintNotAllowed",
      "type": "error"
    },
    {
      "inputs": [],
      "name": "MintNotStarted",
      "type": "error"
    },
    {
      "inputs": [],
      "name": "NotAllowedToUpdateTicks",
      "type": "error"
    },
    {
      "inputs": [],
      "name": "OnlyFactoryAllowed",
      "type": "error"
    },
    {
      "inputs": [],
      "name": "OnlyPoolAllowed",
      "type": "error"
    },
    {
      "inputs": [],
      "name": "TicksOutOfRange",
      "type": "error"
    },
    {
      "inputs": [],
      "name": "ZeroMintAmount",
      "type": "error"
    },
    {
      "inputs": [],
      "name": "ZeroTreasuryAddress",
      "type": "error"
    },
    {
      "inputs": [],
      "name": "ZeroUnderlyingBalance",
      "type": "error"
    },
    {
      "anonymous": false,
      "inputs": [
        {
          "indexed": false,
          "internalType": "address",
          "name": "previousAdmin",
          "type": "address"
        },
        {
          "indexed": false,
          "internalType": "address",
          "name": "newAdmin",
          "type": "address"
        }
      ],
      "name": "AdminChanged",
      "type": "event"
    },
    {
      "anonymous": false,
      "inputs": [
        {
          "indexed": true,
          "internalType": "address",
          "name": "owner",
          "type": "address"
        },
        {
          "indexed": true,
          "internalType": "address",
          "name": "spender",
          "type": "address"
        },
        {
          "indexed": false,
          "internalType": "uint256",
          "name": "value",
          "type": "uint256"
        }
      ],
      "name": "Approval",
      "type": "event"
    },
    {
      "anonymous": false,
      "inputs": [
        {
          "indexed": true,
          "internalType": "address",
          "name": "beacon",
          "type": "address"
        }
      ],
      "name": "BeaconUpgraded",
      "type": "event"
    },
    {
      "anonymous": false,
      "inputs": [
        {
          "indexed": true,
          "internalType": "address",
          "name": "receiver",
          "type": "address"
        },
        {
          "indexed": false,
          "internalType": "uint256",
          "name": "burnAmount",
          "type": "uint256"
        },
        {
          "indexed": false,
          "internalType": "uint256",
          "name": "amount0Out",
          "type": "uint256"
        },
        {
          "indexed": false,
          "internalType": "uint256",
          "name": "amount1Out",
          "type": "uint256"
        }
      ],
      "name": "Burned",
      "type": "event"
    },
    {
      "anonymous": false,
      "inputs": [
        {
          "indexed": false,
          "internalType": "uint256",
          "name": "feesEarned0",
          "type": "uint256"
        },
        {
          "indexed": false,
          "internalType": "uint256",
          "name": "feesEarned1",
          "type": "uint256"
        }
      ],
      "name": "FeesEarned",
      "type": "event"
    },
    {
      "anonymous": false,
      "inputs": [
        {
          "indexed": false,
          "internalType": "bool",
          "name": "inThePosition",
          "type": "bool"
        }
      ],
      "name": "InThePositionStatusSet",
      "type": "event"
    },
    {
      "anonymous": false,
      "inputs": [
        {
          "indexed": false,
          "internalType": "uint8",
          "name": "version",
          "type": "uint8"
        }
      ],
      "name": "Initialized",
      "type": "event"
    },
    {
      "anonymous": false,
      "inputs": [
        {
          "indexed": false,
          "internalType": "uint256",
          "name": "liquidityMinted",
          "type": "uint256"
        },
        {
          "indexed": false,
          "internalType": "int24",
          "name": "tickLower",
          "type": "int24"
        },
        {
          "indexed": false,
          "internalType": "int24",
          "name": "tickUpper",
          "type": "int24"
        },
        {
          "indexed": false,
          "internalType": "uint256",
          "name": "amount0In",
          "type": "uint256"
        },
        {
          "indexed": false,
          "internalType": "uint256",
          "name": "amount1In",
          "type": "uint256"
        }
      ],
      "name": "LiquidityAdded",
      "type": "event"
    },
    {
      "anonymous": false,
      "inputs": [
        {
          "indexed": false,
          "internalType": "uint256",
          "name": "liquidityRemoved",
          "type": "uint256"
        },
        {
          "indexed": false,
          "internalType": "int24",
          "name": "tickLower",
          "type": "int24"
        },
        {
          "indexed": false,
          "internalType": "int24",
          "name": "tickUpper",
          "type": "int24"
        },
        {
          "indexed": false,
          "internalType": "uint256",
          "name": "amount0Out",
          "type": "uint256"
        },
        {
          "indexed": false,
          "internalType": "uint256",
          "name": "amount1Out",
          "type": "uint256"
        }
      ],
      "name": "LiquidityRemoved",
      "type": "event"
    },
    {
      "anonymous": false,
      "inputs": [
        {
          "indexed": false,
          "internalType": "uint16",
          "name": "managerFee",
          "type": "uint16"
        }
      ],
      "name": "ManagerFeeUpdated",
      "type": "event"
    },
    {
      "anonymous": false,
      "inputs": [],
      "name": "MintStarted",
      "type": "event"
    },
    {
      "anonymous": false,
      "inputs": [
        {
          "indexed": true,
          "internalType": "address",
          "name": "receiver",
          "type": "address"
        },
        {
          "indexed": false,
          "internalType": "uint256",
          "name": "mintAmount",
          "type": "uint256"
        },
        {
          "indexed": false,
          "internalType": "uint256",
          "name": "amount0In",
          "type": "uint256"
        },
        {
          "indexed": false,
          "internalType": "uint256",
          "name": "amount1In",
          "type": "uint256"
        }
      ],
      "name": "Minted",
      "type": "event"
    },
    {
      "anonymous": false,
      "inputs": [
        {
          "indexed": true,
          "internalType": "address",
          "name": "previousManager",
          "type": "address"
        },
        {
          "indexed": true,
          "internalType": "address",
          "name": "newManager",
          "type": "address"
        }
      ],
      "name": "OwnershipTransferred",
      "type": "event"
    },
    {
      "anonymous": false,
      "inputs": [
        {
          "indexed": false,
          "internalType": "bool",
          "name": "zeroForOne",
          "type": "bool"
        },
        {
          "indexed": false,
          "internalType": "int256",
          "name": "amount0",
          "type": "int256"
        },
        {
          "indexed": false,
          "internalType": "int256",
          "name": "amount1",
          "type": "int256"
        }
      ],
      "name": "Swapped",
      "type": "event"
    },
    {
      "anonymous": false,
      "inputs": [
        {
          "indexed": false,
          "internalType": "int24",
          "name": "lowerTick",
          "type": "int24"
        },
        {
          "indexed": false,
          "internalType": "int24",
          "name": "upperTick",
          "type": "int24"
        }
      ],
      "name": "TicksSet",
      "type": "event"
    },
    {
      "anonymous": false,
      "inputs": [
        {
          "indexed": true,
          "internalType": "address",
          "name": "from",
          "type": "address"
        },
        {
          "indexed": true,
          "internalType": "address",
          "name": "to",
          "type": "address"
        },
        {
          "indexed": false,
          "internalType": "uint256",
          "name": "value",
          "type": "uint256"
        }
      ],
      "name": "Transfer",
      "type": "event"
    },
    {
      "anonymous": false,
      "inputs": [
        {
          "indexed": true,
          "internalType": "address",
          "name": "implementation",
          "type": "address"
        }
      ],
      "name": "Upgraded",
      "type": "event"
    },
    {
      "inputs": [],
      "name": "MAX_MANAGER_FEE_BPS",
      "outputs": [
        {
          "internalType": "uint16",
          "name": "",
          "type": "uint16"
        }
      ],
      "stateMutability": "view",
      "type": "function"
    },
    {
      "inputs": [],
      "name": "TREASURY_FEE_BPS",
      "outputs": [
        {
          "internalType": "uint16",
          "name": "",
          "type": "uint16"
        }
      ],
      "stateMutability": "view",
      "type": "function"
    },
    {
      "inputs": [
        {
          "internalType": "int24",
          "name": "newLowerTick",
          "type": "int24"
        },
        {
          "internalType": "int24",
          "name": "newUpperTick",
          "type": "int24"
        },
        {
          "internalType": "uint256",
          "name": "amount0",
          "type": "uint256"
        },
        {
          "internalType": "uint256",
          "name": "amount1",
          "type": "uint256"
        }
      ],
      "name": "addLiquidity",
      "outputs": [
        {
          "internalType": "uint256",
          "name": "remainingAmount0",
          "type": "uint256"
        },
        {
          "internalType": "uint256",
          "name": "remainingAmount1",
          "type": "uint256"
        }
      ],
      "stateMutability": "nonpayable",
      "type": "function"
    },
    {
      "inputs": [
        {
          "internalType": "address",
          "name": "owner",
          "type": "address"
        },
        {
          "internalType": "address",
          "name": "spender",
          "type": "address"
        }
      ],
      "name": "allowance",
      "outputs": [
        {
          "internalType": "uint256",
          "name": "",
          "type": "uint256"
        }
      ],
      "stateMutability": "view",
      "type": "function"
    },
    {
      "inputs": [
        {
          "internalType": "address",
          "name": "spender",
          "type": "address"
        },
        {
          "internalType": "uint256",
          "name": "amount",
          "type": "uint256"
        }
      ],
      "name": "approve",
      "outputs": [
        {
          "internalType": "bool",
          "name": "",
          "type": "bool"
        }
      ],
      "stateMutability": "nonpayable",
      "type": "function"
    },
    {
      "inputs": [
        {
          "internalType": "address",
          "name": "account",
          "type": "address"
        }
      ],
      "name": "balanceOf",
      "outputs": [
        {
          "internalType": "uint256",
          "name": "",
          "type": "uint256"
        }
      ],
      "stateMutability": "view",
      "type": "function"
    },
    {
      "inputs": [
        {
          "internalType": "uint256",
          "name": "burnAmount",
          "type": "uint256"
        }
      ],
      "name": "burn",
      "outputs": [
        {
          "internalType": "uint256",
          "name": "amount0",
          "type": "uint256"
        },
        {
          "internalType": "uint256",
          "name": "amount1",
          "type": "uint256"
        }
      ],
      "stateMutability": "nonpayable",
      "type": "function"
    },
    {
      "inputs": [],
      "name": "collectManager",
      "outputs": [],
      "stateMutability": "nonpayable",
      "type": "function"
    },
    {
      "inputs": [],
      "name": "collectTreasury",
      "outputs": [],
      "stateMutability": "nonpayable",
      "type": "function"
    },
    {
      "inputs": [],
      "name": "decimals",
      "outputs": [
        {
          "internalType": "uint8",
          "name": "",
          "type": "uint8"
        }
      ],
      "stateMutability": "view",
      "type": "function"
    },
    {
      "inputs": [
        {
          "internalType": "address",
          "name": "spender",
          "type": "address"
        },
        {
          "internalType": "uint256",
          "name": "subtractedValue",
          "type": "uint256"
        }
      ],
      "name": "decreaseAllowance",
      "outputs": [
        {
          "internalType": "bool",
          "name": "",
          "type": "bool"
        }
      ],
      "stateMutability": "nonpayable",
      "type": "function"
    },
    {
      "inputs": [],
      "name": "factory",
      "outputs": [
        {
          "internalType": "address",
          "name": "",
          "type": "address"
        }
      ],
      "stateMutability": "view",
      "type": "function"
    },
    {
      "inputs": [],
      "name": "getCurrentFees",
      "outputs": [
        {
          "internalType": "uint256",
          "name": "fee0",
          "type": "uint256"
        },
        {
          "internalType": "uint256",
          "name": "fee1",
          "type": "uint256"
        }
      ],
      "stateMutability": "view",
      "type": "function"
    },
    {
      "inputs": [
        {
          "internalType": "uint256",
          "name": "amount0Max",
          "type": "uint256"
        },
        {
          "internalType": "uint256",
          "name": "amount1Max",
          "type": "uint256"
        }
      ],
      "name": "getMintAmounts",
      "outputs": [
        {
          "internalType": "uint256",
          "name": "amount0",
          "type": "uint256"
        },
        {
          "internalType": "uint256",
          "name": "amount1",
          "type": "uint256"
        },
        {
          "internalType": "uint256",
          "name": "mintAmount",
          "type": "uint256"
        }
      ],
      "stateMutability": "view",
      "type": "function"
    },
    {
      "inputs": [],
      "name": "getPositionID",
      "outputs": [
        {
          "internalType": "bytes32",
          "name": "positionID",
          "type": "bytes32"
        }
      ],
      "stateMutability": "view",
      "type": "function"
    },
    {
      "inputs": [],
      "name": "getUnderlyingBalances",
      "outputs": [
        {
          "internalType": "uint256",
          "name": "amount0Current",
          "type": "uint256"
        },
        {
          "internalType": "uint256",
          "name": "amount1Current",
          "type": "uint256"
        }
      ],
      "stateMutability": "view",
      "type": "function"
    },
    {
      "inputs": [
        {
          "internalType": "uint160",
          "name": "sqrtRatioX96",
          "type": "uint160"
        }
      ],
      "name": "getUnderlyingBalancesAtPrice",
      "outputs": [
        {
          "internalType": "uint256",
          "name": "amount0Current",
          "type": "uint256"
        },
        {
          "internalType": "uint256",
          "name": "amount1Current",
          "type": "uint256"
        }
      ],
      "stateMutability": "view",
      "type": "function"
    },
    {
      "inputs": [],
      "name": "inThePosition",
      "outputs": [
        {
          "internalType": "bool",
          "name": "",
          "type": "bool"
        }
      ],
      "stateMutability": "view",
      "type": "function"
    },
    {
      "inputs": [
        {
          "internalType": "address",
          "name": "spender",
          "type": "address"
        },
        {
          "internalType": "uint256",
          "name": "addedValue",
          "type": "uint256"
        }
      ],
      "name": "increaseAllowance",
      "outputs": [
        {
          "internalType": "bool",
          "name": "",
          "type": "bool"
        }
      ],
      "stateMutability": "nonpayable",
      "type": "function"
    },
    {
      "inputs": [
        {
          "internalType": "address",
          "name": "_pool",
          "type": "address"
        },
        {
          "internalType": "int24",
          "name": "_tickSpacing",
          "type": "int24"
        },
        {
          "internalType": "bytes",
          "name": "data",
          "type": "bytes"
        }
      ],
      "name": "initialize",
      "outputs": [],
      "stateMutability": "nonpayable",
      "type": "function"
    },
    {
      "inputs": [],
      "name": "lowerTick",
      "outputs": [
        {
          "internalType": "int24",
          "name": "",
          "type": "int24"
        }
      ],
      "stateMutability": "view",
      "type": "function"
    },
    {
      "inputs": [],
      "name": "manager",
      "outputs": [
        {
          "internalType": "address",
          "name": "",
          "type": "address"
        }
      ],
      "stateMutability": "view",
      "type": "function"
    },
    {
      "inputs": [],
      "name": "managerBalance0",
      "outputs": [
        {
          "internalType": "uint256",
          "name": "",
          "type": "uint256"
        }
      ],
      "stateMutability": "view",
      "type": "function"
    },
    {
      "inputs": [],
      "name": "managerBalance1",
      "outputs": [
        {
          "internalType": "uint256",
          "name": "",
          "type": "uint256"
        }
      ],
      "stateMutability": "view",
      "type": "function"
    },
    {
      "inputs": [],
      "name": "managerFee",
      "outputs": [
        {
          "internalType": "uint16",
          "name": "",
          "type": "uint16"
        }
      ],
      "stateMutability": "view",
      "type": "function"
    },
    {
      "inputs": [
        {
          "internalType": "uint256",
          "name": "mintAmount",
          "type": "uint256"
        }
      ],
      "name": "mint",
      "outputs": [
        {
          "internalType": "uint256",
          "name": "amount0",
          "type": "uint256"
        },
        {
          "internalType": "uint256",
          "name": "amount1",
          "type": "uint256"
        }
      ],
      "stateMutability": "nonpayable",
      "type": "function"
    },
    {
      "inputs": [],
      "name": "mintStarted",
      "outputs": [
        {
          "internalType": "bool",
          "name": "",
          "type": "bool"
        }
      ],
      "stateMutability": "view",
      "type": "function"
    },
    {
      "inputs": [],
      "name": "name",
      "outputs": [
        {
          "internalType": "string",
          "name": "",
          "type": "string"
        }
      ],
      "stateMutability": "view",
      "type": "function"
    },
    {
      "inputs": [],
      "name": "pool",
      "outputs": [
        {
          "internalType": "contract IUniswapV3Pool",
          "name": "",
          "type": "address"
        }
      ],
      "stateMutability": "view",
      "type": "function"
    },
    {
      "inputs": [],
      "name": "proxiableUUID",
      "outputs": [
        {
          "internalType": "bytes32",
          "name": "",
          "type": "bytes32"
        }
      ],
      "stateMutability": "view",
      "type": "function"
    },
    {
      "inputs": [],
      "name": "pullFeeFromPool",
      "outputs": [],
      "stateMutability": "nonpayable",
      "type": "function"
    },
    {
      "inputs": [],
      "name": "removeLiquidity",
      "outputs": [],
      "stateMutability": "nonpayable",
      "type": "function"
    },
    {
      "inputs": [],
      "name": "renounceOwnership",
      "outputs": [],
      "stateMutability": "nonpayable",
      "type": "function"
    },
    {
      "inputs": [
        {
          "internalType": "bool",
          "name": "zeroForOne",
          "type": "bool"
        },
        {
          "internalType": "int256",
          "name": "swapAmount",
          "type": "int256"
        },
        {
          "internalType": "uint160",
          "name": "sqrtPriceLimitX96",
          "type": "uint160"
        }
      ],
      "name": "swap",
      "outputs": [
        {
          "internalType": "int256",
          "name": "amount0",
          "type": "int256"
        },
        {
          "internalType": "int256",
          "name": "amount1",
          "type": "int256"
        }
      ],
      "stateMutability": "nonpayable",
      "type": "function"
    },
    {
      "inputs": [],
      "name": "symbol",
      "outputs": [
        {
          "internalType": "string",
          "name": "",
          "type": "string"
        }
      ],
      "stateMutability": "view",
      "type": "function"
    },
    {
      "inputs": [],
      "name": "tickSpacing",
      "outputs": [
        {
          "internalType": "int24",
          "name": "",
          "type": "int24"
        }
      ],
      "stateMutability": "view",
      "type": "function"
    },
    {
      "inputs": [],
      "name": "token0",
      "outputs": [
        {
          "internalType": "contract IERC20Upgradeable",
          "name": "",
          "type": "address"
        }
      ],
      "stateMutability": "view",
      "type": "function"
    },
    {
      "inputs": [],
      "name": "token1",
      "outputs": [
        {
          "internalType": "contract IERC20Upgradeable",
          "name": "",
          "type": "address"
        }
      ],
      "stateMutability": "view",
      "type": "function"
    },
    {
      "inputs": [],
      "name": "totalSupply",
      "outputs": [
        {
          "internalType": "uint256",
          "name": "",
          "type": "uint256"
        }
      ],
      "stateMutability": "view",
      "type": "function"
    },
    {
      "inputs": [
        {
          "internalType": "address",
          "name": "to",
          "type": "address"
        },
        {
          "internalType": "uint256",
          "name": "amount",
          "type": "uint256"
        }
      ],
      "name": "transfer",
      "outputs": [
        {
          "internalType": "bool",
          "name": "",
          "type": "bool"
        }
      ],
      "stateMutability": "nonpayable",
      "type": "function"
    },
    {
      "inputs": [
        {
          "internalType": "address",
          "name": "from",
          "type": "address"
        },
        {
          "internalType": "address",
          "name": "to",
          "type": "address"
        },
        {
          "internalType": "uint256",
          "name": "amount",
          "type": "uint256"
        }
      ],
      "name": "transferFrom",
      "outputs": [
        {
          "internalType": "bool",
          "name": "",
          "type": "bool"
        }
      ],
      "stateMutability": "nonpayable",
      "type": "function"
    },
    {
      "inputs": [
        {
          "internalType": "address",
          "name": "newOwner",
          "type": "address"
        }
      ],
      "name": "transferOwnership",
      "outputs": [],
      "stateMutability": "nonpayable",
      "type": "function"
    },
    {
      "inputs": [],
      "name": "treasury",
      "outputs": [
        {
          "internalType": "address",
          "name": "",
          "type": "address"
        }
      ],
      "stateMutability": "view",
      "type": "function"
    },
    {
      "inputs": [],
      "name": "treasuryBalance0",
      "outputs": [
        {
          "internalType": "uint256",
          "name": "",
          "type": "uint256"
        }
      ],
      "stateMutability": "view",
      "type": "function"
    },
    {
      "inputs": [],
      "name": "treasuryBalance1",
      "outputs": [
        {
          "internalType": "uint256",
          "name": "",
          "type": "uint256"
        }
      ],
      "stateMutability": "view",
      "type": "function"
    },
    {
      "inputs": [
        {
          "internalType": "uint256",
          "name": "amount0Owed",
          "type": "uint256"
        },
        {
          "internalType": "uint256",
          "name": "amount1Owed",
          "type": "uint256"
        },
        {
          "internalType": "bytes",
          "name": "",
          "type": "bytes"
        }
      ],
      "name": "uniswapV3MintCallback",
      "outputs": [],
      "stateMutability": "nonpayable",
      "type": "function"
    },
    {
      "inputs": [
        {
          "internalType": "int256",
          "name": "amount0Delta",
          "type": "int256"
        },
        {
          "internalType": "int256",
          "name": "amount1Delta",
          "type": "int256"
        },
        {
          "internalType": "bytes",
          "name": "",
          "type": "bytes"
        }
      ],
      "name": "uniswapV3SwapCallback",
      "outputs": [],
      "stateMutability": "nonpayable",
      "type": "function"
    },
    {
      "inputs": [
        {
          "internalType": "uint16",
          "name": "newManagerFee",
          "type": "uint16"
        }
      ],
      "name": "updateManagerFee",
      "outputs": [],
      "stateMutability": "nonpayable",
      "type": "function"
    },
    {
      "inputs": [
        {
          "internalType": "int24",
          "name": "_lowerTick",
          "type": "int24"
        },
        {
          "internalType": "int24",
          "name": "_upperTick",
          "type": "int24"
        }
      ],
      "name": "updateTicks",
      "outputs": [],
      "stateMutability": "nonpayable",
      "type": "function"
    },
    {
      "inputs": [
        {
          "internalType": "address",
          "name": "newImplementation",
          "type": "address"
        }
      ],
      "name": "upgradeTo",
      "outputs": [],
      "stateMutability": "nonpayable",
      "type": "function"
    },
    {
      "inputs": [
        {
          "internalType": "address",
          "name": "newImplementation",
          "type": "address"
        },
        {
          "internalType": "bytes",
          "name": "data",
          "type": "bytes"
        }
      ],
      "name": "upgradeToAndCall",
      "outputs": [],
      "stateMutability": "payable",
      "type": "function"
    },
    {
      "inputs": [],
      "name": "upperTick",
      "outputs": [
        {
          "internalType": "int24",
          "name": "",
          "type": "int24"
        }
      ],
      "stateMutability": "view",
      "type": "function"
    }
  ],
  "bytecode": "0x60a06040523060601b6080523480156200001857600080fd5b506200002362000029565b620000eb565b600054610100900460ff1615620000965760405162461bcd60e51b815260206004820152602760248201527f496e697469616c697a61626c653a20636f6e747261637420697320696e697469604482015266616c697a696e6760c81b606482015260840160405180910390fd5b60005460ff9081161015620000e9576000805460ff191660ff9081179091556040519081527f7f26b83ff96e1f2b6a682f133852f6798a09c465da95921460cefb38474024989060200160405180910390a15b565b60805160601c6156436200012660003960008181610be301528181610c2301528181611396015281816113d6015261150901526156436000f3fe60806040526004361061024f5760003560e01c8063065756db1461025457806306fdde031461027e578063095ea7b3146102a05780630dfe1681146102d05780631322d954146102fe57806316f0115b1461032157806318160ddd14610342578063195cd92c1461035757806323b872dd1461037757806325a3860314610397578063313ce567146103b95780633659cfe6146103d557806339509351146103f55780633d048c27146104155780634043f5ca1461043557806342966c681461045057806342fb9d4414610470578063481c6a75146104875780634f1ef2861461049c5780634fa62c5f146104af57806352d1902d146104cf57806361d027b3146104e457806366cac3e4146105055780636735cf5b1461051c57806367b9a2861461054557806370a082311461055a578063715018a61461059057806371908a03146105a5578063727dd228146105ba5780637e69c326146105e95780639403c1ae1461060057806395d89b41146106155780639894f21a1461062a5780639b1344ac146106595780639c7632fc14610674578063a0712d6814610697578063a457c2d7146106b7578063a9059cbb146106d7578063a9722cf3146106f7578063b670ed7d14610717578063bb9744ce14610737578063c45a01551461074c578063d0c93a7c14610773578063d21220a714610795578063d3487997146107b6578063d642aa02146107d6578063d7e458b5146107eb578063dd62ed3e14610800578063df28408a14610820578063f2fde38b14610835578063fa461e3314610855578063fd87f9aa14610875575b600080fd5b34801561026057600080fd5b5061026b61012e5481565b6040519081526020015b60405180910390f35b34801561028a57600080fd5b50610293610895565b60405161027591906150ea565b3480156102ac57600080fd5b506102c06102bb366004614cb4565b610927565b6040519015158152602001610275565b3480156102dc57600080fd5b50610131546102f1906001600160a01b031681565b6040516102759190615078565b34801561030a57600080fd5b5061031361093f565b6040516102759291906150dc565b34801561032d57600080fd5b50610130546102f1906001600160a01b031681565b34801561034e57600080fd5b5060fd5461026b565b34801561036357600080fd5b50610313610372366004614cfb565b6109e9565b34801561038357600080fd5b506102c0610392366004614bc8565b610b16565b3480156103a357600080fd5b506103b76103b2366004614f67565b610b3c565b005b3480156103c557600080fd5b5060405160128152602001610275565b3480156103e157600080fd5b506103b76103f0366004614abd565b610bd8565b34801561040157600080fd5b506102c0610410366004614cb4565b610ca1565b34801561042157600080fd5b506103b7610430366004614c55565b610cc3565b34801561044157600080fd5b50610136546102c09060ff1681565b34801561045c57600080fd5b5061031361046b366004615023565b61104d565b34801561047c57600080fd5b5061026b61012f5481565b34801561049357600080fd5b506102f161137c565b6103b76104aa366004614c08565b61138b565b3480156104bb57600080fd5b506103b76104ca366004614d54565b611445565b3480156104db57600080fd5b5061026b6114fc565b3480156104f057600080fd5b50610133546102f1906001600160a01b031681565b34801561051157600080fd5b5061026b6101355481565b34801561052857600080fd5b506105326103e881565b60405161ffff9091168152602001610275565b34801561055157600080fd5b506103b76115aa565b34801561056657600080fd5b5061026b610575366004614abd565b6001600160a01b0316600090815260fb602052604090205490565b34801561059c57600080fd5b506103b7611779565b3480156105b157600080fd5b506103136117e0565b3480156105c657600080fd5b5061012d546105dc906301000000900460020b81565b60405161027591906150ce565b3480156105f557600080fd5b5061026b6101345481565b34801561060c57600080fd5b506103b7611971565b34801561062157600080fd5b506102936119cd565b34801561063657600080fd5b5061064a61064536600461503b565b6119dc565b60405161027593929190615252565b34801561066557600080fd5b5061012d546105dc9060020b81565b34801561068057600080fd5b5061012d5461053290600160301b900461ffff1681565b3480156106a357600080fd5b506103136106b2366004615023565b611b5d565b3480156106c357600080fd5b506102c06106d2366004614cb4565b611e73565b3480156106e357600080fd5b506102c06106f2366004614cb4565b611ef9565b34801561070357600080fd5b50610136546102c090610100900460ff1681565b34801561072357600080fd5b50610313610732366004614abd565b611f07565b34801561074357600080fd5b506103b7611faf565b34801561075857600080fd5b50610136546102f1906201000090046001600160a01b031681565b34801561077f57600080fd5b50610132546105dc90600160a01b900460020b81565b3480156107a157600080fd5b50610132546102f1906001600160a01b031681565b3480156107c257600080fd5b506103b76107d1366004614de9565b61200d565b3480156107e257600080fd5b5061053260fa81565b3480156107f757600080fd5b506103b7612074565b34801561080c57600080fd5b5061026b61081b366004614b90565b6120fb565b34801561082c57600080fd5b5061026b612126565b34801561084157600080fd5b506103b7610850366004614abd565b612186565b34801561086157600080fd5b506103b7610870366004614de9565b612266565b34801561088157600080fd5b50610313610890366004614d81565b6122d8565b606060fe80546108a49061539b565b80601f01602080910402602001604051908101604052809291908181526020018280546108d09061539b565b801561091d5780601f106108f25761010080835404028352916020019161091d565b820191906000526020600020905b81548152906001019060200180831161090057829003601f168201915b5050505050905090565b600033610935818585612595565b5060019392505050565b60008060008061013060009054906101000a90046001600160a01b03166001600160a01b0316633850c7bd6040518163ffffffff1660e01b815260040160e06040518083038186803b15801561099457600080fd5b505afa1580156109a8573d6000803e3d6000fd5b505050506040513d601f19601f820116820180604052508101906109cc9190614f83565b5050505050915091506109df82826126b9565b9350935050509091565b600080336109f561137c565b6001600160a01b031614610a245760405162461bcd60e51b8152600401610a1b90615191565b60405180910390fd5b61013054604051630251596160e31b81523060048201528615156024820152604481018690526001600160a01b03858116606483015260a06084830152600060a48301529091169063128acb089060c4016040805180830381600087803b158015610a8e57600080fd5b505af1158015610aa2573d6000803e3d6000fd5b505050506040513d601f19601f82011682018060405250810190610ac69190614dc6565b6040805188151581526020810184905290810182905291935091507fbf511038cfa32cfb7971e976074c0e6aeda010e6afcbb38d87b4f910305014949060600160405180910390a1935093915050565b600033610b2485828561297b565b610b2f8585856129ef565b60019150505b9392505050565b33610b4561137c565b6001600160a01b031614610b6b5760405162461bcd60e51b8152600401610a1b90615191565b6103e861ffff82161115610b9257604051636898c3af60e11b815260040160405180910390fd5b61012d805461ffff60301b1916600160301b61ffff8416908102919091179091556040519081526000805160206154e7833981519152906020015b60405180910390a150565b306001600160a01b037f0000000000000000000000000000000000000000000000000000000000000000161415610c215760405162461bcd60e51b8152600401610a1b9061511d565b7f00000000000000000000000000000000000000000000000000000000000000006001600160a01b0316610c53612b88565b6001600160a01b031614610c795760405162461bcd60e51b8152600401610a1b90615157565b610c8281612ba4565b60408051600080825260208201909252610c9e91839190612bd6565b50565b600033610935818585610cb483836120fb565b610cbe91906152e5565b612595565b600054610100900460ff1615808015610ce35750600054600160ff909116105b80610d045750610cf230612d55565b158015610d04575060005460ff166001145b610d675760405162461bcd60e51b815260206004820152602e60248201527f496e697469616c697a61626c653a20636f6e747261637420697320616c72656160448201526d191e481a5b9a5d1a585b1a5e995960921b6064820152608401610a1b565b6000805460ff191660011790558015610d8a576000805461ff0019166101001790555b600080600080600086806020019051810190610da69190614af5565b94509450945094509450610db8612d64565b610dc0612d8d565b610dca8282612dbc565b61013080546001600160a01b0319166001600160a01b038b1690811790915560408051630dfe168160e01b81529051630dfe168191600480820192602092909190829003018186803b158015610e1f57600080fd5b505afa158015610e33573d6000803e3d6000fd5b505050506040513d601f19601f82011682018060405250810190610e579190614ad9565b61013180546001600160a01b0319166001600160a01b03928316179055610130546040805163d21220a760e01b81529051919092169163d21220a7916004808301926020929190829003018186803b158015610eb257600080fd5b505afa158015610ec6573d6000803e3d6000fd5b505050506040513d601f19601f82011682018060405250810190610eea9190614ad9565b61013280546001600160a01b039283166001600160b81b031990911617600160a01b62ffffff60028d900b1602179055610136805462010000600160b01b0319163362010000021790558516610f53576040516351dc806d60e11b815260040160405180910390fd5b61013380546001600160a01b0319166001600160a01b0387161790556103e861ffff84161115610f9657604051636898c3af60e11b815260040160405180910390fd5b61012d805461ffff60301b1916600160301b61ffff861602179055609780546001600160a01b0319166001600160a01b0386161790556040516000805160206154e783398151915290610ff490859061ffff91909116815260200190565b60405180910390a150505050508015611047576000805461ff0019169055604051600181527f7f26b83ff96e1f2b6a682f133852f6798a09c465da95921460cefb38474024989060200160405180910390a15b50505050565b600080611058612ded565b82611076576040516302075cc160e41b815260040160405180910390fd5b600061108160fd5490565b905061108d3385612e47565b6101365460ff16156112bf57610130546000906001600160a01b031663514ea4bf6110b6612126565b6040518263ffffffff1660e01b81526004016110d491815260200190565b60a06040518083038186803b1580156110ec57600080fd5b505afa158015611100573d6000803e3d6000fd5b505050506040513d601f19601f820116820180604052508101906111249190614f11565b505050509050600061114086836001600160801b031685612f69565b9050600061114d82613018565b905060008060008061115e85613085565b9350935093509350611170828261342d565b61117a8282613501565b60405191935091506000805160206155ee8339815191529061119f90849084906150dc565b60405180910390a16101345461012e54610131546040516370a0823160e01b815261125d93929188916001600160a01b03909116906370a08231906111e8903090600401615078565b60206040518083038186803b15801561120057600080fd5b505afa158015611214573d6000803e3d6000fd5b505050506040513d601f19601f820116820180604052508101906112389190614d3c565b6112429190615358565b61124c9190615358565b6112569190615358565b8c8a612f69565b61126790856152e5565b6101355461012f54610132546040516370a0823160e01b8152939d506112a79387916001600160a01b0316906370a08231906111e8903090600401615078565b6112b190846152e5565b9850505050505050506112eb565b6000806112ca61093f565b915091506112d9828785612f69565b94506112e6818785612f69565b935050505b82156113095761013154611309906001600160a01b0316338561358a565b81156113275761013254611327906001600160a01b0316338461358a565b336001600160a01b03167f4c60206a5c1de41f3376d1d60f0949d96cb682033c90b1c2d9d9a62d4c4120c085858560405161136493929190615252565b60405180910390a2506113776001606555565b915091565b6097546001600160a01b031690565b306001600160a01b037f00000000000000000000000000000000000000000000000000000000000000001614156113d45760405162461bcd60e51b8152600401610a1b9061511d565b7f00000000000000000000000000000000000000000000000000000000000000006001600160a01b0316611406612b88565b6001600160a01b03161461142c5760405162461bcd60e51b8152600401610a1b90615157565b61143582612ba4565b61144182826001612bd6565b5050565b3361144e61137c565b6001600160a01b0316146114745760405162461bcd60e51b8152600401610a1b90615191565b60fd5415158061148757506101365460ff165b156114a557604051632a2c70bb60e11b815260040160405180910390fd5b6114af82826135f4565b61013654610100900460ff1661144157610136805461ff0019166101001790556040517f452a344f03203071e1daf66e007976c85cb2380deabf1c91f3c4fb1fca41204990600090a15050565b6000306001600160a01b037f000000000000000000000000000000000000000000000000000000000000000016146115975760405162461bcd60e51b815260206004820152603860248201527f555550535570677261646561626c653a206d757374206e6f742062652063616c6044820152771b1959081d1a1c9bdd59da0819195b1959d85d1958d85b1b60421b6064820152608401610a1b565b5060008051602061552783398151915290565b336115b361137c565b6001600160a01b0316146115d95760405162461bcd60e51b8152600401610a1b90615191565b610130546000906001600160a01b031663514ea4bf6115f6612126565b6040518263ffffffff1660e01b815260040161161491815260200190565b60a06040518083038186803b15801561162c57600080fd5b505afa158015611640573d6000803e3d6000fd5b505050506040513d601f19601f820116820180604052508101906116649190614f11565b5050505090506000816001600160801b0316111561172c5761012d54600281810b9163010000009004900b600080808061169d87613085565b93509350935093507f6d7e1841bf97c0b736eafb2779459ba1e0af2305cead28a8e97533589ceb2f6587878787876040516116dc95949392919061521e565b60405180910390a16116ee828261342d565b6116f88282613501565b60405191935091506000805160206155ee8339815191529061171d90849084906150dc565b60405180910390a15050505050505b61012d805463010000008104600290810b900b62ffffff1662ffffff19909116179055610136805460ff19169055604051600081526000805160206155ce83398151915290602001610bcd565b3361178261137c565b6001600160a01b0316146117a85760405162461bcd60e51b8152600401610a1b90615191565b6097546040516000916001600160a01b031690600080516020615547833981519152908390a3609780546001600160a01b0319169055565b600080600061013060009054906101000a90046001600160a01b03166001600160a01b0316633850c7bd6040518163ffffffff1660e01b815260040160e06040518083038186803b15801561183457600080fd5b505afa158015611848573d6000803e3d6000fd5b505050506040513d601f19601f8201168201806040525081019061186c9190614f83565b5050610130549395506000945084938493508392508291506001600160a01b031663514ea4bf61189a612126565b6040518263ffffffff1660e01b81526004016118b891815260200190565b60a06040518083038186803b1580156118d057600080fd5b505afa1580156118e4573d6000803e3d6000fd5b505050506040513d601f19601f820116820180604052508101906119089190614f11565b94509450945094509450816001600160801b0316611929600186898961368d565b61193391906152e5565b9750806001600160801b031661194c600085898961368d565b61195691906152e5565b96506119628888613501565b90999098509650505050505050565b61012e805461012f80546000938490559290559081156119a957609754610131546119a9916001600160a01b0391821691168461358a565b80156114415760975461013254611441916001600160a01b0391821691168361358a565b606060ff80546108a49061539b565b600080600061013660019054906101000a900460ff16611a0f57604051630314872760e11b815260040160405180910390fd5b6000611a1a60fd5490565b90508015611a3957611a2d818787613a93565b91955093509150611b55565b6101305460408051633850c7bd60e01b815290516000926001600160a01b031691633850c7bd9160048083019260e0929190829003018186803b158015611a7f57600080fd5b505afa158015611a93573d6000803e3d6000fd5b505050506040513d601f19601f82011682018060405250810190611ab79190614f83565b50505050505090506000611b0382611ae161012d60009054906101000a900460020b60020b613b96565b61012d54611afc9063010000009004600290810b900b613b96565b8b8b613fa8565b61012d546001600160801b0382169550909150611b4d908390611b2c90600290810b900b613b96565b61012d54611b479063010000009004600290810b900b613b96565b8461406c565b909650945050505b509250925092565b600080611b68612ded565b61013654610100900460ff16611b9157604051630314872760e11b815260040160405180910390fd5b82611baf5760405163199f5a0360e31b815260040160405180910390fd5b6000611bba60fd5490565b610136546101305460408051633850c7bd60e01b8152905193945060ff909216926000926001600160a01b0390921691633850c7bd9160048083019260e0929190829003018186803b158015611c0f57600080fd5b505afa158015611c23573d6000803e3d6000fd5b505050506040513d601f19601f82011682018060405250810190611c479190614f83565b50505050505090506000831115611c8857600080611c6361093f565b91509150611c72828987614108565b9650611c7f818987614108565b95505050611cf4565b8115611cdb5761012d54611cd1908290611ca890600290810b900b613b96565b61012d54611cc39063010000009004600290810b900b613b96565b611ccc8a613018565b61406c565b9095509350611cf4565b60405163344fa43b60e01b815260040160405180910390fd5b8415611d135761013154611d13906001600160a01b0316333088614156565b8315611d325761013254611d32906001600160a01b0316333087614156565b611d3c338761418e565b8115611e215761012d54600090611d81908390611d5f90600290810b900b613b96565b61012d54611d7a9063010000009004600290810b900b613b96565b8989613fa8565b6101305461012d54604051633c8a7d8d60e01b81529293506001600160a01b0390911691633c8a7d8d91611dcc913091600281810b926301000000909204900b90879060040161508c565b6040805180830381600087803b158015611de557600080fd5b505af1158015611df9573d6000803e3d6000fd5b505050506040513d601f19601f82011682018060405250810190611e1d9190614dc6565b5050505b336001600160a01b03167f5a3358a3d27a5373c0df2604662088d37894d56b7cfd27f315770440f4e0d919878787604051611e5e93929190615252565b60405180910390a25050506113776001606555565b60003381611e8182866120fb565b905083811015611ee15760405162461bcd60e51b815260206004820152602560248201527f45524332303a2064656372656173656420616c6c6f77616e63652062656c6f77604482015264207a65726f60d81b6064820152608401610a1b565b611eee8286868403612595565b506001949350505050565b6000336109358185856129ef565b600080600061013060009054906101000a90046001600160a01b03166001600160a01b0316633850c7bd6040518163ffffffff1660e01b815260040160e06040518083038186803b158015611f5b57600080fd5b505afa158015611f6f573d6000803e3d6000fd5b505050506040513d601f19601f82011682018060405250810190611f939190614f83565b5050505050915050611fa584826126b9565b9250925050915091565b61013480546101358054600093849055929055908115611fe8576101335461013154611fe8916001600160a01b0391821691168461358a565b8015611441576101335461013254611441916001600160a01b0391821691168361358a565b610130546001600160a01b0316331461203857604051620b7d9960e41b815260040160405180910390fd5b83156120565761013154612056906001600160a01b0316338661358a565b82156110475761013254611047906001600160a01b0316338561358a565b3361207d61137c565b6001600160a01b0316146120a35760405162461bcd60e51b8152600401610a1b90615191565b6000806120b06000613085565b9350935050506120c0828261342d565b6120ca8282613501565b60405191935091506000805160206155ee833981519152906120ef90849084906150dc565b60405180910390a15050565b6001600160a01b03918216600090815260fc6020908152604080832093909416825291909152205490565b61012d546040516001600160601b03193060601b166020820152600282810b810b60e890811b60348401526301000000909304810b900b90911b6037820152600090603a0160405160208183030381529060405280519060200120905090565b3361218f61137c565b6001600160a01b0316146121b55760405162461bcd60e51b8152600401610a1b90615191565b6001600160a01b03811661221c5760405162461bcd60e51b815260206004820152602860248201527f4f776e61626c653a206e6577206d616e6167657220697320746865207a65726f604482015267206164647265737360c01b6064820152608401610a1b565b6097546040516001600160a01b0380841692169060008051602061554783398151915290600090a3609780546001600160a01b0319166001600160a01b0392909216919091179055565b610130546001600160a01b0316331461229157604051620b7d9960e41b815260040160405180910390fd5b60008413156122b757610131546122b2906001600160a01b0316338661358a565b611047565b60008313156110475761013254611047906001600160a01b0316338561358a565b600080336122e461137c565b6001600160a01b03161461230a5760405162461bcd60e51b8152600401610a1b90615191565b612314868661423d565b6101305460408051633850c7bd60e01b815290516000926001600160a01b031691633850c7bd9160048083019260e0929190829003018186803b15801561235a57600080fd5b505afa15801561236e573d6000803e3d6000fd5b505050506040513d601f19601f820116820180604052508101906123929190614f83565b505050505050905060006123b8826123ac8a60020b613b96565b611d7a8a60020b613b96565b90506001600160801b0381161561254c5761013054604051633c8a7d8d60e01b815260009182916001600160a01b0390911690633c8a7d8d906124059030908e908e90899060040161508c565b6040805180830381600087803b15801561241e57600080fd5b505af1158015612432573d6000803e3d6000fd5b505050506040513d601f19601f820116820180604052508101906124569190614dc6565b90925090506124658289615358565b95506124718188615358565b61012d5490955060028b810b91810b900b1415806124a2575061012d5460028a810b6301000000909204810b900b14155b1561250a5761012d805460028b810b62ffffff90811663010000000265ffffffffffff19909316918e900b16171790556040516000805160206155ae83398151915290612501908c908c90600292830b8152910b602082015260400190565b60405180910390a15b7ffa715a0b1bc7287b5d3581c11478041b0455aad0c17361fc1e55fffbdd4b6c4f838b8b858560405161254195949392919061521e565b60405180910390a150505b6101365460ff1661258a57610136805460ff191660019081179091556040519081526000805160206155ce8339815191529060200160405180910390a15b505094509492505050565b6001600160a01b0383166125f75760405162461bcd60e51b8152602060048201526024808201527f45524332303a20617070726f76652066726f6d20746865207a65726f206164646044820152637265737360e01b6064820152608401610a1b565b6001600160a01b0382166126585760405162461bcd60e51b815260206004820152602260248201527f45524332303a20617070726f766520746f20746865207a65726f206164647265604482015261737360f01b6064820152608401610a1b565b6001600160a01b03838116600081815260fc602090815260408083209487168084529482529182902085905590518481527f8c5be1e5ebec7d5bd14f71427d1e84f3dd0314c0f7b2291e5b200ac8c7c3b925910160405180910390a3505050565b610130546000908190819081908190819081906001600160a01b031663514ea4bf6126e2612126565b6040518263ffffffff1660e01b815260040161270091815260200190565b60a06040518083038186803b15801561271857600080fd5b505afa15801561272c573d6000803e3d6000fd5b505050506040513d601f19601f820116820180604052508101906127509190614f11565b94509450945094509450600080866001600160801b03166000146128045761012d546127a9908c9061278890600290810b900b613b96565b61012d546127a39063010000009004600290810b900b613b96565b8a61406c565b90995097506001600160801b0384166127c56001888d8b61368d565b6127cf91906152e5565b9150826001600160801b03166127e86000878d8b61368d565b6127f291906152e5565b90506127fe8282613501565b90925090505b6101345461012e54610131546040516370a0823160e01b81526001600160a01b03909116906370a082319061283d903090600401615078565b60206040518083038186803b15801561285557600080fd5b505afa158015612869573d6000803e3d6000fd5b505050506040513d601f19601f8201168201806040525081019061288d9190614d3c565b61289790856152e5565b6128a19190615358565b6128ab9190615358565b6128b5908a6152e5565b6101355461012f54610132546040516370a0823160e01b8152939c50919290916001600160a01b0316906370a08231906128f3903090600401615078565b60206040518083038186803b15801561290b57600080fd5b505afa15801561291f573d6000803e3d6000fd5b505050506040513d601f19601f820116820180604052508101906129439190614d3c565b61294d90846152e5565b6129579190615358565b6129619190615358565b61296b90896152e5565b9750505050505050509250929050565b600061298784846120fb565b9050600019811461104757818110156129e25760405162461bcd60e51b815260206004820152601d60248201527f45524332303a20696e73756666696369656e7420616c6c6f77616e63650000006044820152606401610a1b565b6110478484848403612595565b6001600160a01b038316612a535760405162461bcd60e51b815260206004820152602560248201527f45524332303a207472616e736665722066726f6d20746865207a65726f206164604482015264647265737360d81b6064820152608401610a1b565b6001600160a01b038216612ab55760405162461bcd60e51b815260206004820152602360248201527f45524332303a207472616e7366657220746f20746865207a65726f206164647260448201526265737360e81b6064820152608401610a1b565b6001600160a01b038316600090815260fb602052604090205481811015612b2d5760405162461bcd60e51b815260206004820152602660248201527f45524332303a207472616e7366657220616d6f756e7420657863656564732062604482015265616c616e636560d01b6064820152608401610a1b565b6001600160a01b03808516600081815260fb6020526040808220868603905592861680825290839020805486019055915160008051602061558e83398151915290612b7b9086815260200190565b60405180910390a3611047565b600080516020615527833981519152546001600160a01b031690565b610136546201000090046001600160a01b03163314610c9e57604051631b1319e560e01b815260040160405180910390fd5b7f4910fdfa16fed3260ed0e7147f7cc6da11a60208b5b9406d12a635614ffd91435460ff1615612c0e57612c09836142f2565b505050565b826001600160a01b03166352d1902d6040518163ffffffff1660e01b815260040160206040518083038186803b158015612c4757600080fd5b505afa925050508015612c77575060408051601f3d908101601f19168201909252612c7491810190614d3c565b60015b612cda5760405162461bcd60e51b815260206004820152602e60248201527f45524331393637557067726164653a206e657720696d706c656d656e7461746960448201526d6f6e206973206e6f74205555505360901b6064820152608401610a1b565b6000805160206155278339815191528114612d495760405162461bcd60e51b815260206004820152602960248201527f45524331393637557067726164653a20756e737570706f727465642070726f786044820152681a58589b195555525160ba1b6064820152608401610a1b565b50612c0983838361438c565b6001600160a01b03163b151590565b600054610100900460ff16612d8b5760405162461bcd60e51b8152600401610a1b906151d3565b565b600054610100900460ff16612db45760405162461bcd60e51b8152600401610a1b906151d3565b612d8b6143b1565b600054610100900460ff16612de35760405162461bcd60e51b8152600401610a1b906151d3565b61144182826143d8565b60026065541415612e405760405162461bcd60e51b815260206004820152601f60248201527f5265656e7472616e637947756172643a207265656e7472616e742063616c6c006044820152606401610a1b565b6002606555565b6001600160a01b038216612ea75760405162461bcd60e51b815260206004820152602160248201527f45524332303a206275726e2066726f6d20746865207a65726f206164647265736044820152607360f81b6064820152608401610a1b565b6001600160a01b038216600090815260fb602052604090205481811015612f1b5760405162461bcd60e51b815260206004820152602260248201527f45524332303a206275726e20616d6f756e7420657863656564732062616c616e604482015261636560f01b6064820152608401610a1b565b6001600160a01b038316600081815260fb60209081526040808320868603905560fd805487900390555185815291929160008051602061558e833981519152910160405180910390a3505050565b600080806000198587098587029250828110838203039150508060001415612fa35760008411612f9857600080fd5b508290049050610b35565b808411612faf57600080fd5b60008486880960026001871981018816978890046003810283188082028403028082028403028082028403028082028403028082028403029081029092039091026000889003889004909101858311909403939093029303949094049190911702949350505050565b60006001600160801b038211156130815760405162461bcd60e51b815260206004820152602760248201527f53616665436173743a2076616c756520646f65736e27742066697420696e20316044820152663238206269747360c81b6064820152608401610a1b565b5090565b61012d54610131546040516370a0823160e01b8152600092839283928392600281810b936301000000909204900b9184916001600160a01b0316906370a08231906130d4903090600401615078565b60206040518083038186803b1580156130ec57600080fd5b505afa158015613100573d6000803e3d6000fd5b505050506040513d601f19601f820116820180604052508101906131249190614d3c565b610132546040516370a0823160e01b81529192506000916001600160a01b03909116906370a082319061315b903090600401615078565b60206040518083038186803b15801561317357600080fd5b505afa158015613187573d6000803e3d6000fd5b505050506040513d601f19601f820116820180604052508101906131ab9190614d3c565b6101305460405163a34123a760e01b8152600287810b600483015286900b60248201526001600160801b038c1660448201529192506001600160a01b03169063a34123a7906064016040805180830381600087803b15801561320c57600080fd5b505af1158015613220573d6000803e3d6000fd5b505050506040513d601f19601f820116820180604052508101906132449190614dc6565b610130546040516309e3d67b60e31b8152306004820152600288810b602483015287900b60448201526001600160801b03606482018190526084820152929a509098506001600160a01b031690634f1eb3d89060a4016040805180830381600087803b1580156132b357600080fd5b505af11580156132c7573d6000803e3d6000fd5b505050506040513d601f19601f820116820180604052508101906132eb9190614edf565b5050610131546040516370a0823160e01b8152899184916001600160a01b03909116906370a0823190613322903090600401615078565b60206040518083038186803b15801561333a57600080fd5b505afa15801561334e573d6000803e3d6000fd5b505050506040513d601f19601f820116820180604052508101906133729190614d3c565b61337c9190615358565b6133869190615358565b610132546040516370a0823160e01b8152919750889183916001600160a01b0316906370a08231906133bc903090600401615078565b60206040518083038186803b1580156133d457600080fd5b505afa1580156133e8573d6000803e3d6000fd5b505050506040513d601f19601f8201168201806040525081019061340c9190614d3c565b6134169190615358565b6134209190615358565b9450505050509193509193565b61271061343b60fa84615311565b61344591906152fd565b610134600082825461345791906152e5565b90915550612710905061346b60fa83615311565b61347591906152fd565b610135600082825461348791906152e5565b909155505061012d54600160301b900461ffff166127106134a88285615311565b6134b291906152fd565b61012e60008282546134c491906152e5565b9091555061271090506134db61ffff831684615311565b6134e591906152fd565b61012f60008282546134f791906152e5565b9091555050505050565b61012d546000908190600160301b900461ffff16816127106135248360fa6152bf565b6135329061ffff1688615311565b61353c91906152fd565b9050600061271061354e8460fa6152bf565b61355c9061ffff1688615311565b61356691906152fd565b90506135728288615358565b945061357e8187615358565b93505050509250929050565b6040516001600160a01b038316602482015260448101829052612c0990849063a9059cbb60e01b906064015b60408051601f198184030181529190526020810180516001600160e01b03166001600160e01b031990931692909217909152614426565b6001606555565b6135fe828261423d565b61012d8054600283810b62ffffff90811663010000000265ffffffffffff199093169186900b1617179055610136805460ff191660019081179091556040516000805160206155ce8339815191529161365c91901515815260200190565b60405180910390a160408051600284810b825283900b60208201526000805160206155ae83398151915291016120ef565b600080600080871561385a5761013060009054906101000a90046001600160a01b03166001600160a01b031663f30583996040518163ffffffff1660e01b815260040160206040518083038186803b1580156136e857600080fd5b505afa1580156136fc573d6000803e3d6000fd5b505050506040513d601f19601f820116820180604052508101906137209190614d3c565b6101305461012d5460405163f30dba9360e01b81529293506001600160a01b039091169163f30dba939161375d9160029190910b906004016150ce565b6101006040518083038186803b15801561377657600080fd5b505afa15801561378a573d6000803e3d6000fd5b505050506040513d601f19601f820116820180604052508101906137ae9190614e39565b50506101305461012d5460405163f30dba9360e01b8152959a506001600160a01b03909116965063f30dba9395506137f994630100000090910460020b935060040191506150ce9050565b6101006040518083038186803b15801561381257600080fd5b505afa158015613826573d6000803e3d6000fd5b505050506040513d601f19601f8201168201806040525081019061384a9190614e39565b50939750613a1595505050505050565b61013060009054906101000a90046001600160a01b03166001600160a01b031663461413196040518163ffffffff1660e01b815260040160206040518083038186803b1580156138a957600080fd5b505afa1580156138bd573d6000803e3d6000fd5b505050506040513d601f19601f820116820180604052508101906138e19190614d3c565b6101305461012d5460405163f30dba9360e01b81529293506001600160a01b039091169163f30dba939161391e9160029190910b906004016150ce565b6101006040518083038186803b15801561393757600080fd5b505afa15801561394b573d6000803e3d6000fd5b505050506040513d601f19601f8201168201806040525081019061396f9190614e39565b50506101305461012d5460405163f30dba9360e01b8152949a506001600160a01b03909116965063f30dba9395506139b994506301000000900460020b9260040191506150ce9050565b6101006040518083038186803b1580156139d257600080fd5b505afa1580156139e6573d6000803e3d6000fd5b505050506040513d601f19601f82011682018060405250810190613a0a9190614e39565b509297505050505050505b61012d54600090600290810b810b9088900b12613a33575082613a38565b508281035b600061012d60039054906101000a900460020b60020b8860020b1215613a5f575082613a64565b508282035b818303819003613a846001600160801b0389168b8303600160801b612f69565b9b9a5050505050505050505050565b6000806000806000613aa361093f565b91509150816000148015613ab75750600081115b15613ace57613ac7868983612f69565b9250613b71565b80158015613adc5750600082115b15613aec57613ac7878984612f69565b81158015613af8575080155b15613b165760405163f912977760e01b815260040160405180910390fd5b6000613b23888a85612f69565b90506000613b32888b85612f69565b9050811580613b3f575080155b15613b5d57604051630856e64360e21b815260040160405180910390fd5b808210613b6a5780613b6c565b815b945050505b613b7c83838a614108565b9450613b8983828a614108565b9350505093509350939050565b60008060008360020b12613bad578260020b613bba565b8260020b613bba90615448565b9050613bc9620d89e719615427565b60020b811115613bff5760405162461bcd60e51b81526020600482015260016024820152601560fa1b6044820152606401610a1b565b600060018216613c1357600160801b613c25565b6ffffcb933bd6fad37aa2d162d1a5940015b6001600160881b031690506002821615613c5a576080613c55826ffff97272373d413259a46990580e213a615311565b901c90505b6004821615613c84576080613c7f826ffff2e50f5f656932ef12357cf3c7fdcc615311565b901c90505b6008821615613cae576080613ca9826fffe5caca7e10e4e61c3624eaa0941cd0615311565b901c90505b6010821615613cd8576080613cd3826fffcb9843d60f6159c9db58835c926644615311565b901c90505b6020821615613d02576080613cfd826fff973b41fa98c081472e6896dfb254c0615311565b901c90505b6040821615613d2c576080613d27826fff2ea16466c96a3843ec78b326b52861615311565b901c90505b6080821615613d56576080613d51826ffe5dee046a99a2a811c461f1969c3053615311565b901c90505b610100821615613d81576080613d7c826ffcbe86c7900a88aedcffc83b479aa3a4615311565b901c90505b610200821615613dac576080613da7826ff987a7253ac413176f2b074cf7815e54615311565b901c90505b610400821615613dd7576080613dd2826ff3392b0822b70005940c7a398e4b70f3615311565b901c90505b610800821615613e02576080613dfd826fe7159475a2c29b7443b29c7fa6e889d9615311565b901c90505b611000821615613e2d576080613e28826fd097f3bdfd2022b8845ad8f792aa5825615311565b901c90505b612000821615613e58576080613e53826fa9f746462d870fdf8a65dc1f90e061e5615311565b901c90505b614000821615613e83576080613e7e826f70d869a156d2a1b890bb3df62baf32f7615311565b901c90505b618000821615613eae576080613ea9826f31be135f97d08fd981231505542fcfa6615311565b901c90505b62010000821615613eda576080613ed5826f09aa508b5b7a84e1c677de54f3e99bc9615311565b901c90505b62020000821615613f05576080613f00826e5d6af8dedb81196699c329225ee604615311565b901c90505b62040000821615613f2f576080613f2a826d2216e584f5fa1ea926041bedfe98615311565b901c90505b62080000821615613f57576080613f52826b048a170391f7dc42444e8fa2615311565b901c90505b60008460020b1315613f7257613f6f816000196152fd565b90505b613f80600160201b82615413565b15613f8c576001613f8f565b60005b613fa09060ff16602083901c6152e5565b949350505050565b6000836001600160a01b0316856001600160a01b03161115613fc8579293925b846001600160a01b0316866001600160a01b031611613ff357613fec8585856144f8565b9050614063565b836001600160a01b0316866001600160a01b0316101561405557600061401a8786866144f8565b90506000614029878986614562565b9050806001600160801b0316826001600160801b03161061404a578061404c565b815b92505050614063565b614060858584614562565b90505b95945050505050565b600080836001600160a01b0316856001600160a01b0316111561408d579293925b846001600160a01b0316866001600160a01b0316116140b8576140b1858585614598565b91506140ff565b836001600160a01b0316866001600160a01b031610156140f1576140dd868585614598565b91506140ea858785614602565b90506140ff565b6140fc858585614602565b90505b94509492505050565b6000614115848484612f69565b90506000828061413557634e487b7160e01b600052601260045260246000fd5b8486091115610b3557600019811061414c57600080fd5b80614063816153d6565b6040516001600160a01b03808516602483015283166044820152606481018290526110479085906323b872dd60e01b906084016135b6565b6001600160a01b0382166141e45760405162461bcd60e51b815260206004820152601f60248201527f45524332303a206d696e7420746f20746865207a65726f2061646472657373006044820152606401610a1b565b8060fd60008282546141f691906152e5565b90915550506001600160a01b038216600081815260fb602090815260408083208054860190555184815260008051602061558e833981519152910160405180910390a35050565b620d89e719600283900b1280614264575061425b620d89e719615427565b60020b8160020b135b156142825760405163137b639d60e21b815260040160405180910390fd5b8060020b8260020b1215806142b05750610132546142aa90600160a01b900460020b836153f1565b60020b15155b806142d45750610132546142ce90600160a01b900460020b826153f1565b60020b15155b1561144157604051633981390b60e11b815260040160405180910390fd5b6142fb81612d55565b61435d5760405162461bcd60e51b815260206004820152602d60248201527f455243313936373a206e657720696d706c656d656e746174696f6e206973206e60448201526c1bdd08184818dbdb9d1c9858dd609a1b6064820152608401610a1b565b60008051602061552783398151915280546001600160a01b0319166001600160a01b0392909216919091179055565b6143958361464c565b6000825111806143a25750805b15612c0957611047838361468c565b600054610100900460ff166135ed5760405162461bcd60e51b8152600401610a1b906151d3565b600054610100900460ff166143ff5760405162461bcd60e51b8152600401610a1b906151d3565b81516144129060fe906020850190614931565b508051612c099060ff906020840190614931565b600061447b826040518060400160405280602081526020017f5361666545524332303a206c6f772d6c6576656c2063616c6c206661696c6564815250856001600160a01b03166147759092919063ffffffff16565b805190915015612c0957808060200190518101906144999190614cdf565b612c095760405162461bcd60e51b815260206004820152602a60248201527f5361666545524332303a204552433230206f7065726174696f6e20646964206e6044820152691bdd081cdd58d8d9595960b21b6064820152608401610a1b565b6000826001600160a01b0316846001600160a01b03161115614518579192915b600061453b856001600160a01b0316856001600160a01b0316600160601b612f69565b905061406361455d848361454f8989615330565b6001600160a01b0316612f69565b614784565b6000826001600160a01b0316846001600160a01b03161115614582579192915b613fa061455d83600160601b61454f8888615330565b6000826001600160a01b0316846001600160a01b031611156145b8579192915b6001600160a01b0384166145f8600160601b600160e01b03606085901b166145e08787615330565b6001600160a01b0316866001600160a01b0316612f69565b613fa091906152fd565b6000826001600160a01b0316846001600160a01b03161115614622579192915b613fa06001600160801b0383166146398686615330565b6001600160a01b0316600160601b612f69565b614655816142f2565b6040516001600160a01b038216907fbc7cd75a20ee27fd9adebab32041f755214dbc6bffa90cc0225b39da2e5c2d3b90600090a250565b606061469783612d55565b6146f25760405162461bcd60e51b815260206004820152602660248201527f416464726573733a2064656c65676174652063616c6c20746f206e6f6e2d636f6044820152651b9d1c9858dd60d21b6064820152608401610a1b565b600080846001600160a01b03168460405161470d919061505c565b600060405180830381855af49150503d8060008114614748576040519150601f19603f3d011682016040523d82523d6000602084013e61474d565b606091505b509150915061406382826040518060600160405280602781526020016155676027913961479f565b6060613fa084846000856147b8565b806001600160801b038116811461479a57600080fd5b919050565b606083156147ae575081610b35565b610b358383614893565b6060824710156148195760405162461bcd60e51b815260206004820152602660248201527f416464726573733a20696e73756666696369656e742062616c616e636520666f6044820152651c8818d85b1b60d21b6064820152608401610a1b565b600080866001600160a01b03168587604051614835919061505c565b60006040518083038185875af1925050503d8060008114614872576040519150601f19603f3d011682016040523d82523d6000602084013e614877565b606091505b5091509150614888878383876148bd565b979650505050505050565b8151156148a35781518083602001fd5b8060405162461bcd60e51b8152600401610a1b91906150ea565b60608315614927578251614920576148d485612d55565b6149205760405162461bcd60e51b815260206004820152601d60248201527f416464726573733a2063616c6c20746f206e6f6e2d636f6e74726163740000006044820152606401610a1b565b5081613fa0565b613fa08383614893565b82805461493d9061539b565b90600052602060002090601f01602090048101928261495f57600085556149a5565b82601f1061497857805160ff19168380011785556149a5565b828001600101855582156149a5579182015b828111156149a557825182559160200191906001019061498a565b506130819291505b8082111561308157600081556001016149ad565b805161479a816154b9565b60008083601f8401126149dd578182fd5b5081356001600160401b038111156149f3578182fd5b602083019150836020828501011115614a0b57600080fd5b9250929050565b600082601f830112614a22578081fd5b8135614a35614a3082615298565b615268565b818152846020838601011115614a49578283fd5b816020850160208301379081016020019190915292915050565b600082601f830112614a73578081fd5b8151614a81614a3082615298565b818152846020838601011115614a95578283fd5b613fa082602083016020870161536f565b80516001600160801b038116811461479a57600080fd5b600060208284031215614ace578081fd5b8135610b35816154a4565b600060208284031215614aea578081fd5b8151610b35816154a4565b600080600080600060a08688031215614b0c578081fd5b8551614b17816154a4565b6020870151909550614b28816154a4565b6040870151909450614b39816154d6565b60608701519093506001600160401b0380821115614b55578283fd5b614b6189838a01614a63565b93506080880151915080821115614b76578283fd5b50614b8388828901614a63565b9150509295509295909350565b60008060408385031215614ba2578182fd5b8235614bad816154a4565b91506020830135614bbd816154a4565b809150509250929050565b600080600060608486031215614bdc578081fd5b8335614be7816154a4565b92506020840135614bf7816154a4565b929592945050506040919091013590565b60008060408385031215614c1a578182fd5b8235614c25816154a4565b915060208301356001600160401b03811115614c3f578182fd5b614c4b85828601614a12565b9150509250929050565b600080600060608486031215614c69578081fd5b8335614c74816154a4565b92506020840135614c84816154c7565b915060408401356001600160401b03811115614c9e578182fd5b614caa86828701614a12565b9150509250925092565b60008060408385031215614cc6578182fd5b8235614cd1816154a4565b946020939093013593505050565b600060208284031215614cf0578081fd5b8151610b35816154b9565b600080600060608486031215614d0f578081fd5b8335614d1a816154b9565b9250602084013591506040840135614d31816154a4565b809150509250925092565b600060208284031215614d4d578081fd5b5051919050565b60008060408385031215614d66578182fd5b8235614d71816154c7565b91506020830135614bbd816154c7565b60008060008060808587031215614d96578182fd5b8435614da1816154c7565b93506020850135614db1816154c7565b93969395505050506040820135916060013590565b60008060408385031215614dd8578182fd5b505080516020909101519092909150565b60008060008060608587031215614dfe578182fd5b843593506020850135925060408501356001600160401b03811115614e21578283fd5b614e2d878288016149cc565b95989497509550505050565b600080600080600080600080610100898b031215614e55578586fd5b614e5e89614aa6565b9750602089015180600f0b8114614e73578687fd5b80975050604089015195506060890151945060808901518060060b8114614e98578384fd5b60a08a0151909450614ea9816154a4565b60c08a015190935063ffffffff81168114614ec2578283fd5b9150614ed060e08a016149c1565b90509295985092959890939650565b60008060408385031215614ef1578182fd5b614efa83614aa6565b9150614f0860208401614aa6565b90509250929050565b600080600080600060a08688031215614f28578283fd5b614f3186614aa6565b94506020860151935060408601519250614f4d60608701614aa6565b9150614f5b60808701614aa6565b90509295509295909350565b600060208284031215614f78578081fd5b8135610b35816154d6565b600080600080600080600060e0888a031215614f9d578081fd5b8751614fa8816154a4565b6020890151909750614fb9816154c7565b6040890151909650614fca816154d6565b6060890151909550614fdb816154d6565b6080890151909450614fec816154d6565b60a089015190935060ff81168114615002578182fd5b60c0890151909250615013816154b9565b8091505092959891949750929550565b600060208284031215615034578081fd5b5035919050565b6000806040838503121561504d578182fd5b50508035926020909101359150565b6000825161506e81846020870161536f565b9190910192915050565b6001600160a01b0391909116815260200190565b6001600160a01b03949094168452600292830b6020850152910b60408301526001600160801b0316606082015260a06080820181905260009082015260c00190565b60029190910b815260200190565b918252602082015260400190565b602081526000825180602084015261510981604085016020870161536f565b601f01601f19169190910160400192915050565b6020808252602c9082015260008051602061550783398151915260408201526b19195b1959d85d1958d85b1b60a21b606082015260800190565b6020808252602c9082015260008051602061550783398151915260408201526b6163746976652070726f787960a01b606082015260800190565b60208082526022908201527f4f776e61626c653a2063616c6c6572206973206e6f7420746865206d616e616760408201526132b960f11b606082015260800190565b6020808252602b908201527f496e697469616c697a61626c653a20636f6e7472616374206973206e6f74206960408201526a6e697469616c697a696e6760a81b606082015260800190565b6001600160801b03959095168552600293840b60208601529190920b60408401526060830191909152608082015260a00190565b9283526020830191909152604082015260600190565b604051601f8201601f191681016001600160401b03811182821017156152905761529061548e565b604052919050565b60006001600160401b038211156152b1576152b161548e565b50601f01601f191660200190565b600061ffff8083168185168083038211156152dc576152dc615462565b01949350505050565b600082198211156152f8576152f8615462565b500190565b60008261530c5761530c615478565b500490565b600081600019048311821515161561532b5761532b615462565b500290565b60006001600160a01b038381169083168181101561535057615350615462565b039392505050565b60008282101561536a5761536a615462565b500390565b60005b8381101561538a578181015183820152602001615372565b838111156110475750506000910152565b600181811c908216806153af57607f821691505b602082108114156153d057634e487b7160e01b600052602260045260246000fd5b50919050565b60006000198214156153ea576153ea615462565b5060010190565b60008260020b8061540457615404615478565b808360020b0791505092915050565b60008261542257615422615478565b500690565b60008160020b627fffff1981141561544157615441615462565b9003919050565b6000600160ff1b82141561545e5761545e615462565b0390565b634e487b7160e01b600052601160045260246000fd5b634e487b7160e01b600052601260045260246000fd5b634e487b7160e01b600052604160045260246000fd5b6001600160a01b0381168114610c9e57600080fd5b8015158114610c9e57600080fd5b8060020b8114610c9e57600080fd5b61ffff81168114610c9e57600080fdfe20e129319e4c2deef82634fd7c4a88a701f56166ca04508c70748f063f84605a46756e6374696f6e206d7573742062652063616c6c6564207468726f75676820360894a13ba1a3210667c828492db98dca3e2076cc3735a920a3ca505d382bbc8be0079c531659141344cd1fd0a4f28419497f9722a3daafe3b4186f6b6457e0416464726573733a206c6f772d6c6576656c2064656c65676174652063616c6c206661696c6564ddf252ad1be2c89b69c2b068fc378daa952ba7f163c4a11628f55a4df523b3ef8e3ac6cc9b82795b40740ca4e954df8f6655fe35e80cdc6fb33d50c3423fcd16d9279952b347fd14af9b788aff1029c0d3b1299b7dcce164fc602a1b958c4880c28ad1de9c0c32e5394ba60323e44d8d9536312236a47231772e448a3e49de42a26469706673582212204679718b933af7fbb67651bc480e3a1b7e54e07bb5b31ce83e2e4d2e4324a88f64736f6c63430008040033",
  "linkReferences": {},
  "deployedLinkReferences": {}
}