{
  "_format": "hh-sol-artifact-1",
  "contractName": "RangeProtocolVault",
  "sourceName": "contracts/RangeProtocolVault.sol",
  "abi": [
    {
      "inputs": [],
      "stateMutability": "nonpayable",
      "type": "constructor"
    },
    {
      "inputs": [],
      "name": "InvalidBurnAmount",
      "type": "error"
    },
    {
      "inputs": [],
      "name": "InvalidManagingFee",
      "type": "error"
    },
    {
      "inputs": [],
      "name": "InvalidMintAmount",
      "type": "error"
    },
    {
      "inputs": [],
      "name": "InvalidPerformanceFee",
      "type": "error"
    },
    {
      "inputs": [],
      "name": "InvalidTicksSpacing",
      "type": "error"
    },
    {
      "inputs": [],
      "name": "MintNotAllowed",
      "type": "error"
    },
    {
      "inputs": [],
      "name": "MintNotStarted",
      "type": "error"
    },
    {
      "inputs": [],
      "name": "NotAllowedToUpdateTicks",
      "type": "error"
    },
    {
      "inputs": [],
      "name": "OnlyFactoryAllowed",
      "type": "error"
    },
    {
      "inputs": [],
      "name": "OnlyPoolAllowed",
      "type": "error"
    },
    {
      "inputs": [],
      "name": "TicksOutOfRange",
      "type": "error"
    },
    {
      "inputs": [],
      "name": "ZeroMintAmount",
      "type": "error"
    },
    {
      "inputs": [],
      "name": "ZeroUnderlyingBalance",
      "type": "error"
    },
    {
      "anonymous": false,
      "inputs": [
        {
          "indexed": false,
          "internalType": "address",
          "name": "previousAdmin",
          "type": "address"
        },
        {
          "indexed": false,
          "internalType": "address",
          "name": "newAdmin",
          "type": "address"
        }
      ],
      "name": "AdminChanged",
      "type": "event"
    },
    {
      "anonymous": false,
      "inputs": [
        {
          "indexed": true,
          "internalType": "address",
          "name": "owner",
          "type": "address"
        },
        {
          "indexed": true,
          "internalType": "address",
          "name": "spender",
          "type": "address"
        },
        {
          "indexed": false,
          "internalType": "uint256",
          "name": "value",
          "type": "uint256"
        }
      ],
      "name": "Approval",
      "type": "event"
    },
    {
      "anonymous": false,
      "inputs": [
        {
          "indexed": true,
          "internalType": "address",
          "name": "beacon",
          "type": "address"
        }
      ],
      "name": "BeaconUpgraded",
      "type": "event"
    },
    {
      "anonymous": false,
      "inputs": [
        {
          "indexed": true,
          "internalType": "address",
          "name": "receiver",
          "type": "address"
        },
        {
          "indexed": false,
          "internalType": "uint256",
          "name": "burnAmount",
          "type": "uint256"
        },
        {
          "indexed": false,
          "internalType": "uint256",
          "name": "amount0Out",
          "type": "uint256"
        },
        {
          "indexed": false,
          "internalType": "uint256",
          "name": "amount1Out",
          "type": "uint256"
        }
      ],
      "name": "Burned",
      "type": "event"
    },
    {
      "anonymous": false,
      "inputs": [
        {
          "indexed": false,
          "internalType": "uint256",
          "name": "feesEarned0",
          "type": "uint256"
        },
        {
          "indexed": false,
          "internalType": "uint256",
          "name": "feesEarned1",
          "type": "uint256"
        }
      ],
      "name": "FeesEarned",
      "type": "event"
    },
    {
      "anonymous": false,
      "inputs": [
        {
          "indexed": false,
          "internalType": "uint16",
          "name": "managingFee",
          "type": "uint16"
        },
        {
          "indexed": false,
          "internalType": "uint16",
          "name": "performanceFee",
          "type": "uint16"
        }
      ],
      "name": "FeesUpdated",
      "type": "event"
    },
    {
      "anonymous": false,
      "inputs": [
        {
          "indexed": false,
          "internalType": "bool",
          "name": "inThePosition",
          "type": "bool"
        }
      ],
      "name": "InThePositionStatusSet",
      "type": "event"
    },
    {
      "anonymous": false,
      "inputs": [
        {
          "indexed": false,
          "internalType": "uint8",
          "name": "version",
          "type": "uint8"
        }
      ],
      "name": "Initialized",
      "type": "event"
    },
    {
      "anonymous": false,
      "inputs": [
        {
          "indexed": false,
          "internalType": "uint256",
          "name": "liquidityMinted",
          "type": "uint256"
        },
        {
          "indexed": false,
          "internalType": "int24",
          "name": "tickLower",
          "type": "int24"
        },
        {
          "indexed": false,
          "internalType": "int24",
          "name": "tickUpper",
          "type": "int24"
        },
        {
          "indexed": false,
          "internalType": "uint256",
          "name": "amount0In",
          "type": "uint256"
        },
        {
          "indexed": false,
          "internalType": "uint256",
          "name": "amount1In",
          "type": "uint256"
        }
      ],
      "name": "LiquidityAdded",
      "type": "event"
    },
    {
      "anonymous": false,
      "inputs": [
        {
          "indexed": false,
          "internalType": "uint256",
          "name": "liquidityRemoved",
          "type": "uint256"
        },
        {
          "indexed": false,
          "internalType": "int24",
          "name": "tickLower",
          "type": "int24"
        },
        {
          "indexed": false,
          "internalType": "int24",
          "name": "tickUpper",
          "type": "int24"
        },
        {
          "indexed": false,
          "internalType": "uint256",
          "name": "amount0Out",
          "type": "uint256"
        },
        {
          "indexed": false,
          "internalType": "uint256",
          "name": "amount1Out",
          "type": "uint256"
        }
      ],
      "name": "LiquidityRemoved",
      "type": "event"
    },
    {
      "anonymous": false,
      "inputs": [],
      "name": "MintStarted",
      "type": "event"
    },
    {
      "anonymous": false,
      "inputs": [
        {
          "indexed": true,
          "internalType": "address",
          "name": "receiver",
          "type": "address"
        },
        {
          "indexed": false,
          "internalType": "uint256",
          "name": "mintAmount",
          "type": "uint256"
        },
        {
          "indexed": false,
          "internalType": "uint256",
          "name": "amount0In",
          "type": "uint256"
        },
        {
          "indexed": false,
          "internalType": "uint256",
          "name": "amount1In",
          "type": "uint256"
        }
      ],
      "name": "Minted",
      "type": "event"
    },
    {
      "anonymous": false,
      "inputs": [
        {
          "indexed": true,
          "internalType": "address",
          "name": "previousManager",
          "type": "address"
        },
        {
          "indexed": true,
          "internalType": "address",
          "name": "newManager",
          "type": "address"
        }
      ],
      "name": "OwnershipTransferred",
      "type": "event"
    },
    {
      "anonymous": false,
      "inputs": [
        {
          "indexed": false,
          "internalType": "address",
          "name": "account",
          "type": "address"
        }
      ],
      "name": "Paused",
      "type": "event"
    },
    {
      "anonymous": false,
      "inputs": [
        {
          "indexed": false,
          "internalType": "bool",
          "name": "zeroForOne",
          "type": "bool"
        },
        {
          "indexed": false,
          "internalType": "int256",
          "name": "amount0",
          "type": "int256"
        },
        {
          "indexed": false,
          "internalType": "int256",
          "name": "amount1",
          "type": "int256"
        }
      ],
      "name": "Swapped",
      "type": "event"
    },
    {
      "anonymous": false,
      "inputs": [
        {
          "indexed": false,
          "internalType": "int24",
          "name": "lowerTick",
          "type": "int24"
        },
        {
          "indexed": false,
          "internalType": "int24",
          "name": "upperTick",
          "type": "int24"
        }
      ],
      "name": "TicksSet",
      "type": "event"
    },
    {
      "anonymous": false,
      "inputs": [
        {
          "indexed": true,
          "internalType": "address",
          "name": "from",
          "type": "address"
        },
        {
          "indexed": true,
          "internalType": "address",
          "name": "to",
          "type": "address"
        },
        {
          "indexed": false,
          "internalType": "uint256",
          "name": "value",
          "type": "uint256"
        }
      ],
      "name": "Transfer",
      "type": "event"
    },
    {
      "anonymous": false,
      "inputs": [
        {
          "indexed": false,
          "internalType": "address",
          "name": "account",
          "type": "address"
        }
      ],
      "name": "Unpaused",
      "type": "event"
    },
    {
      "anonymous": false,
      "inputs": [
        {
          "indexed": true,
          "internalType": "address",
          "name": "implementation",
          "type": "address"
        }
      ],
      "name": "Upgraded",
      "type": "event"
    },
    {
      "inputs": [],
      "name": "MAX_MANAGING_FEE_BPS",
      "outputs": [
        {
          "internalType": "uint16",
          "name": "",
          "type": "uint16"
        }
      ],
      "stateMutability": "view",
      "type": "function"
    },
    {
      "inputs": [],
      "name": "MAX_PERFORMANCE_FEE_BPS",
      "outputs": [
        {
          "internalType": "uint16",
          "name": "",
          "type": "uint16"
        }
      ],
      "stateMutability": "view",
      "type": "function"
    },
    {
      "inputs": [
        {
          "internalType": "int24",
          "name": "newLowerTick",
          "type": "int24"
        },
        {
          "internalType": "int24",
          "name": "newUpperTick",
          "type": "int24"
        },
        {
          "internalType": "uint256",
          "name": "amount0",
          "type": "uint256"
        },
        {
          "internalType": "uint256",
          "name": "amount1",
          "type": "uint256"
        }
      ],
      "name": "addLiquidity",
      "outputs": [
        {
          "internalType": "uint256",
          "name": "remainingAmount0",
          "type": "uint256"
        },
        {
          "internalType": "uint256",
          "name": "remainingAmount1",
          "type": "uint256"
        }
      ],
      "stateMutability": "nonpayable",
      "type": "function"
    },
    {
      "inputs": [
        {
          "internalType": "address",
          "name": "owner",
          "type": "address"
        },
        {
          "internalType": "address",
          "name": "spender",
          "type": "address"
        }
      ],
      "name": "allowance",
      "outputs": [
        {
          "internalType": "uint256",
          "name": "",
          "type": "uint256"
        }
      ],
      "stateMutability": "view",
      "type": "function"
    },
    {
      "inputs": [
        {
          "internalType": "address",
          "name": "spender",
          "type": "address"
        },
        {
          "internalType": "uint256",
          "name": "amount",
          "type": "uint256"
        }
      ],
      "name": "approve",
      "outputs": [
        {
          "internalType": "bool",
          "name": "",
          "type": "bool"
        }
      ],
      "stateMutability": "nonpayable",
      "type": "function"
    },
    {
      "inputs": [
        {
          "internalType": "address",
          "name": "account",
          "type": "address"
        }
      ],
      "name": "balanceOf",
      "outputs": [
        {
          "internalType": "uint256",
          "name": "",
          "type": "uint256"
        }
      ],
      "stateMutability": "view",
      "type": "function"
    },
    {
      "inputs": [
        {
          "internalType": "uint256",
          "name": "burnAmount",
          "type": "uint256"
        }
      ],
      "name": "burn",
      "outputs": [
        {
          "internalType": "uint256",
          "name": "amount0",
          "type": "uint256"
        },
        {
          "internalType": "uint256",
          "name": "amount1",
          "type": "uint256"
        }
      ],
      "stateMutability": "nonpayable",
      "type": "function"
    },
    {
      "inputs": [],
      "name": "collectManager",
      "outputs": [],
      "stateMutability": "nonpayable",
      "type": "function"
    },
    {
      "inputs": [],
      "name": "decimals",
      "outputs": [
        {
          "internalType": "uint8",
          "name": "",
          "type": "uint8"
        }
      ],
      "stateMutability": "view",
      "type": "function"
    },
    {
      "inputs": [
        {
          "internalType": "address",
          "name": "spender",
          "type": "address"
        },
        {
          "internalType": "uint256",
          "name": "subtractedValue",
          "type": "uint256"
        }
      ],
      "name": "decreaseAllowance",
      "outputs": [
        {
          "internalType": "bool",
          "name": "",
          "type": "bool"
        }
      ],
      "stateMutability": "nonpayable",
      "type": "function"
    },
    {
      "inputs": [],
      "name": "factory",
      "outputs": [
        {
          "internalType": "address",
          "name": "",
          "type": "address"
        }
      ],
      "stateMutability": "view",
      "type": "function"
    },
    {
      "inputs": [],
      "name": "getCurrentFees",
      "outputs": [
        {
          "internalType": "uint256",
          "name": "fee0",
          "type": "uint256"
        },
        {
          "internalType": "uint256",
          "name": "fee1",
          "type": "uint256"
        }
      ],
      "stateMutability": "view",
      "type": "function"
    },
    {
      "inputs": [
        {
          "internalType": "uint256",
          "name": "amount0Max",
          "type": "uint256"
        },
        {
          "internalType": "uint256",
          "name": "amount1Max",
          "type": "uint256"
        }
      ],
      "name": "getMintAmounts",
      "outputs": [
        {
          "internalType": "uint256",
          "name": "amount0",
          "type": "uint256"
        },
        {
          "internalType": "uint256",
          "name": "amount1",
          "type": "uint256"
        },
        {
          "internalType": "uint256",
          "name": "mintAmount",
          "type": "uint256"
        }
      ],
      "stateMutability": "view",
      "type": "function"
    },
    {
      "inputs": [],
      "name": "getPositionID",
      "outputs": [
        {
          "internalType": "bytes32",
          "name": "positionID",
          "type": "bytes32"
        }
      ],
      "stateMutability": "view",
      "type": "function"
    },
    {
      "inputs": [],
      "name": "getUnderlyingBalances",
      "outputs": [
        {
          "internalType": "uint256",
          "name": "amount0Current",
          "type": "uint256"
        },
        {
          "internalType": "uint256",
          "name": "amount1Current",
          "type": "uint256"
        }
      ],
      "stateMutability": "view",
      "type": "function"
    },
    {
      "inputs": [
        {
          "internalType": "uint160",
          "name": "sqrtRatioX96",
          "type": "uint160"
        }
      ],
      "name": "getUnderlyingBalancesAtPrice",
      "outputs": [
        {
          "internalType": "uint256",
          "name": "amount0Current",
          "type": "uint256"
        },
        {
          "internalType": "uint256",
          "name": "amount1Current",
          "type": "uint256"
        }
      ],
      "stateMutability": "view",
      "type": "function"
    },
    {
      "inputs": [
        {
          "internalType": "uint256",
          "name": "fromIdx",
          "type": "uint256"
        },
        {
          "internalType": "uint256",
          "name": "toIdx",
          "type": "uint256"
        }
      ],
      "name": "getUserVaults",
      "outputs": [
        {
          "components": [
            {
              "internalType": "address",
              "name": "user",
              "type": "address"
            },
            {
              "internalType": "uint256",
              "name": "token0",
              "type": "uint256"
            },
            {
              "internalType": "uint256",
              "name": "token1",
              "type": "uint256"
            }
          ],
          "internalType": "struct IRangeProtocolVault.UserVaultInfo[]",
          "name": "",
          "type": "tuple[]"
        }
      ],
      "stateMutability": "view",
      "type": "function"
    },
    {
      "inputs": [],
      "name": "inThePosition",
      "outputs": [
        {
          "internalType": "bool",
          "name": "",
          "type": "bool"
        }
      ],
      "stateMutability": "view",
      "type": "function"
    },
    {
      "inputs": [
        {
          "internalType": "address",
          "name": "spender",
          "type": "address"
        },
        {
          "internalType": "uint256",
          "name": "addedValue",
          "type": "uint256"
        }
      ],
      "name": "increaseAllowance",
      "outputs": [
        {
          "internalType": "bool",
          "name": "",
          "type": "bool"
        }
      ],
      "stateMutability": "nonpayable",
      "type": "function"
    },
    {
      "inputs": [
        {
          "internalType": "address",
          "name": "_pool",
          "type": "address"
        },
        {
          "internalType": "int24",
          "name": "_tickSpacing",
          "type": "int24"
        },
        {
          "internalType": "bytes",
          "name": "data",
          "type": "bytes"
        }
      ],
      "name": "initialize",
      "outputs": [],
      "stateMutability": "nonpayable",
      "type": "function"
    },
    {
      "inputs": [],
      "name": "lowerTick",
      "outputs": [
        {
          "internalType": "int24",
          "name": "",
          "type": "int24"
        }
      ],
      "stateMutability": "view",
      "type": "function"
    },
    {
      "inputs": [],
      "name": "manager",
      "outputs": [
        {
          "internalType": "address",
          "name": "",
          "type": "address"
        }
      ],
      "stateMutability": "view",
      "type": "function"
    },
    {
      "inputs": [],
      "name": "managerBalance0",
      "outputs": [
        {
          "internalType": "uint256",
          "name": "",
          "type": "uint256"
        }
      ],
      "stateMutability": "view",
      "type": "function"
    },
    {
      "inputs": [],
      "name": "managerBalance1",
      "outputs": [
        {
          "internalType": "uint256",
          "name": "",
          "type": "uint256"
        }
      ],
      "stateMutability": "view",
      "type": "function"
    },
    {
      "inputs": [],
      "name": "managingFee",
      "outputs": [
        {
          "internalType": "uint16",
          "name": "",
          "type": "uint16"
        }
      ],
      "stateMutability": "view",
      "type": "function"
    },
    {
      "inputs": [
        {
          "internalType": "uint256",
          "name": "mintAmount",
          "type": "uint256"
        }
      ],
      "name": "mint",
      "outputs": [
        {
          "internalType": "uint256",
          "name": "amount0",
          "type": "uint256"
        },
        {
          "internalType": "uint256",
          "name": "amount1",
          "type": "uint256"
        }
      ],
      "stateMutability": "nonpayable",
      "type": "function"
    },
    {
      "inputs": [],
      "name": "mintStarted",
      "outputs": [
        {
          "internalType": "bool",
          "name": "",
          "type": "bool"
        }
      ],
      "stateMutability": "view",
      "type": "function"
    },
    {
      "inputs": [],
      "name": "name",
      "outputs": [
        {
          "internalType": "string",
          "name": "",
          "type": "string"
        }
      ],
      "stateMutability": "view",
      "type": "function"
    },
    {
      "inputs": [],
      "name": "pause",
      "outputs": [],
      "stateMutability": "nonpayable",
      "type": "function"
    },
    {
      "inputs": [],
      "name": "paused",
      "outputs": [
        {
          "internalType": "bool",
          "name": "",
          "type": "bool"
        }
      ],
      "stateMutability": "view",
      "type": "function"
    },
    {
      "inputs": [],
      "name": "performanceFee",
      "outputs": [
        {
          "internalType": "uint16",
          "name": "",
          "type": "uint16"
        }
      ],
      "stateMutability": "view",
      "type": "function"
    },
    {
      "inputs": [],
      "name": "pool",
      "outputs": [
        {
          "internalType": "contract IUniswapV3Pool",
          "name": "",
          "type": "address"
        }
      ],
      "stateMutability": "view",
      "type": "function"
    },
    {
      "inputs": [],
      "name": "proxiableUUID",
      "outputs": [
        {
          "internalType": "bytes32",
          "name": "",
          "type": "bytes32"
        }
      ],
      "stateMutability": "view",
      "type": "function"
    },
    {
      "inputs": [],
      "name": "pullFeeFromPool",
      "outputs": [],
      "stateMutability": "nonpayable",
      "type": "function"
    },
    {
      "inputs": [],
      "name": "removeLiquidity",
      "outputs": [],
      "stateMutability": "nonpayable",
      "type": "function"
    },
    {
      "inputs": [],
      "name": "renounceOwnership",
      "outputs": [],
      "stateMutability": "nonpayable",
      "type": "function"
    },
    {
      "inputs": [
        {
          "internalType": "bool",
          "name": "zeroForOne",
          "type": "bool"
        },
        {
          "internalType": "int256",
          "name": "swapAmount",
          "type": "int256"
        },
        {
          "internalType": "uint160",
          "name": "sqrtPriceLimitX96",
          "type": "uint160"
        }
      ],
      "name": "swap",
      "outputs": [
        {
          "internalType": "int256",
          "name": "amount0",
          "type": "int256"
        },
        {
          "internalType": "int256",
          "name": "amount1",
          "type": "int256"
        }
      ],
      "stateMutability": "nonpayable",
      "type": "function"
    },
    {
      "inputs": [],
      "name": "symbol",
      "outputs": [
        {
          "internalType": "string",
          "name": "",
          "type": "string"
        }
      ],
      "stateMutability": "view",
      "type": "function"
    },
    {
      "inputs": [],
      "name": "tickSpacing",
      "outputs": [
        {
          "internalType": "int24",
          "name": "",
          "type": "int24"
        }
      ],
      "stateMutability": "view",
      "type": "function"
    },
    {
      "inputs": [],
      "name": "token0",
      "outputs": [
        {
          "internalType": "contract IERC20Upgradeable",
          "name": "",
          "type": "address"
        }
      ],
      "stateMutability": "view",
      "type": "function"
    },
    {
      "inputs": [],
      "name": "token1",
      "outputs": [
        {
          "internalType": "contract IERC20Upgradeable",
          "name": "",
          "type": "address"
        }
      ],
      "stateMutability": "view",
      "type": "function"
    },
    {
      "inputs": [],
      "name": "totalSupply",
      "outputs": [
        {
          "internalType": "uint256",
          "name": "",
          "type": "uint256"
        }
      ],
      "stateMutability": "view",
      "type": "function"
    },
    {
      "inputs": [
        {
          "internalType": "address",
          "name": "to",
          "type": "address"
        },
        {
          "internalType": "uint256",
          "name": "amount",
          "type": "uint256"
        }
      ],
      "name": "transfer",
      "outputs": [
        {
          "internalType": "bool",
          "name": "",
          "type": "bool"
        }
      ],
      "stateMutability": "nonpayable",
      "type": "function"
    },
    {
      "inputs": [
        {
          "internalType": "address",
          "name": "from",
          "type": "address"
        },
        {
          "internalType": "address",
          "name": "to",
          "type": "address"
        },
        {
          "internalType": "uint256",
          "name": "amount",
          "type": "uint256"
        }
      ],
      "name": "transferFrom",
      "outputs": [
        {
          "internalType": "bool",
          "name": "",
          "type": "bool"
        }
      ],
      "stateMutability": "nonpayable",
      "type": "function"
    },
    {
      "inputs": [
        {
          "internalType": "address",
          "name": "newManager",
          "type": "address"
        }
      ],
      "name": "transferOwnership",
      "outputs": [],
      "stateMutability": "nonpayable",
      "type": "function"
    },
    {
      "inputs": [
        {
          "internalType": "uint256",
          "name": "amount0Owed",
          "type": "uint256"
        },
        {
          "internalType": "uint256",
          "name": "amount1Owed",
          "type": "uint256"
        },
        {
          "internalType": "bytes",
          "name": "",
          "type": "bytes"
        }
      ],
      "name": "uniswapV3MintCallback",
      "outputs": [],
      "stateMutability": "nonpayable",
      "type": "function"
    },
    {
      "inputs": [
        {
          "internalType": "int256",
          "name": "amount0Delta",
          "type": "int256"
        },
        {
          "internalType": "int256",
          "name": "amount1Delta",
          "type": "int256"
        },
        {
          "internalType": "bytes",
          "name": "",
          "type": "bytes"
        }
      ],
      "name": "uniswapV3SwapCallback",
      "outputs": [],
      "stateMutability": "nonpayable",
      "type": "function"
    },
    {
      "inputs": [],
      "name": "unpause",
      "outputs": [],
      "stateMutability": "nonpayable",
      "type": "function"
    },
    {
      "inputs": [
        {
          "internalType": "uint16",
          "name": "newManagingFee",
          "type": "uint16"
        },
        {
          "internalType": "uint16",
          "name": "newPerformanceFee",
          "type": "uint16"
        }
      ],
      "name": "updateFees",
      "outputs": [],
      "stateMutability": "nonpayable",
      "type": "function"
    },
    {
      "inputs": [
        {
          "internalType": "int24",
          "name": "_lowerTick",
          "type": "int24"
        },
        {
          "internalType": "int24",
          "name": "_upperTick",
          "type": "int24"
        }
      ],
      "name": "updateTicks",
      "outputs": [],
      "stateMutability": "nonpayable",
      "type": "function"
    },
    {
      "inputs": [
        {
          "internalType": "address",
          "name": "newImplementation",
          "type": "address"
        }
      ],
      "name": "upgradeTo",
      "outputs": [],
      "stateMutability": "nonpayable",
      "type": "function"
    },
    {
      "inputs": [
        {
          "internalType": "address",
          "name": "newImplementation",
          "type": "address"
        },
        {
          "internalType": "bytes",
          "name": "data",
          "type": "bytes"
        }
      ],
      "name": "upgradeToAndCall",
      "outputs": [],
      "stateMutability": "payable",
      "type": "function"
    },
    {
      "inputs": [],
      "name": "upperTick",
      "outputs": [
        {
          "internalType": "int24",
          "name": "",
          "type": "int24"
        }
      ],
      "stateMutability": "view",
      "type": "function"
    },
    {
      "inputs": [
        {
          "internalType": "address",
          "name": "",
          "type": "address"
        }
      ],
      "name": "userVaults",
      "outputs": [
        {
          "internalType": "bool",
          "name": "exists",
          "type": "bool"
        },
        {
          "internalType": "uint256",
          "name": "token0",
          "type": "uint256"
        },
        {
          "internalType": "uint256",
          "name": "token1",
          "type": "uint256"
        }
      ],
      "stateMutability": "view",
      "type": "function"
    },
    {
      "inputs": [
        {
          "internalType": "uint256",
          "name": "",
          "type": "uint256"
        }
      ],
      "name": "users",
      "outputs": [
        {
          "internalType": "address",
          "name": "",
          "type": "address"
        }
      ],
      "stateMutability": "view",
      "type": "function"
    }
  ],
  "bytecode": "0x60a06040523060601b6080523480156200001857600080fd5b506200002362000029565b620000eb565b600054610100900460ff1615620000965760405162461bcd60e51b815260206004820152602760248201527f496e697469616c697a61626c653a20636f6e747261637420697320696e697469604482015266616c697a696e6760c81b606482015260840160405180910390fd5b60005460ff9081161015620000e9576000805460ff191660ff9081179091556040519081527f7f26b83ff96e1f2b6a682f133852f6798a09c465da95921460cefb38474024989060200160405180910390a15b565b60805160601c615c9d6200012660003960008181610d0401528181610d4d015281816115b8015281816115f8015261172c0152615c9d6000f3fe6080604052600436106103505760003560e01c806370a08231116101c6578063b670ed7d116100f7578063dd62ed3e11610095578063f3d2350e1161006f578063f3d2350e14610a05578063f8c2e29b14610a25578063fa461e3314610a3a578063fd87f9aa14610a5a57600080fd5b8063dd62ed3e146109b0578063df28408a146109d0578063f2fde38b146109e557600080fd5b8063d0c93a7c116100d1578063d0c93a7c14610938578063d21220a71461095a578063d34879971461097b578063d7e458b51461099b57600080fd5b8063b670ed7d146108ca578063c45a0155146108ea578063c653089f1461090b57600080fd5b806395d89b4111610164578063a0712d681161013e578063a0712d6814610848578063a457c2d714610868578063a9059cbb14610888578063a9722cf3146108a857600080fd5b806395d89b41146107dd5780639894f21a146107f25780639b1344ac1461082d57600080fd5b8063727dd228116101a0578063727dd2281461075b5780638456cb591461079057806387788782146107a55780639403c1ae146107c857600080fd5b806370a08231146106fb578063715018a61461073157806371908a031461074657600080fd5b806339509351116102a05780634f1ef2861161023e5780635c975abb116102185780635c975abb14610681578063601b48a41461069a57806367b9a286146106d057806370889165146106e557600080fd5b80634f1ef286146106395780634fa62c5f1461064c57806352d1902d1461066c57600080fd5b80634043f5ca1161027a5780634043f5ca146105c257806342966c68146105e457806342fb9d4414610604578063481c6a751461061b57600080fd5b8063395093511461056d5780633d048c271461058d5780633f4ba83a146105ad57600080fd5b806318160ddd1161030d5780632958d031116102e75780632958d031146104b1578063313ce5671461050f5780633659cfe61461052b578063365b98b21461054d57600080fd5b806318160ddd1461045c578063195cd92c1461047157806323b872dd1461049157600080fd5b8063065756db1461035557806306fdde031461037f578063095ea7b3146103a15780630dfe1681146103d15780631322d9541461040a57806316f0115b14610434575b600080fd5b34801561036157600080fd5b5061036c6101635481565b6040519081526020015b60405180910390f35b34801561038b57600080fd5b50610394610a7a565b60405161037691906158b0565b3480156103ad57600080fd5b506103c16103bc366004615428565b610b0c565b6040519015158152602001610376565b3480156103dd57600080fd5b50610160546103f2906001600160a01b031681565b6040516001600160a01b039091168152602001610376565b34801561041657600080fd5b5061041f610b24565b60408051928352602083019190915201610376565b34801561044057600080fd5b5061015f546103f290600160581b90046001600160a01b031681565b34801561046857600080fd5b5060fd5461036c565b34801561047d57600080fd5b5061041f61048c36600461546f565b610bce565b34801561049d57600080fd5b506103c16104ac366004615344565b610cd3565b3480156104bd57600080fd5b506104f26104cc366004615260565b6101656020526000908152604090208054600182015460029092015460ff909116919083565b604080519315158452602084019290925290820152606001610376565b34801561051b57600080fd5b5060405160128152602001610376565b34801561053757600080fd5b5061054b610546366004615260565b610cf9565b005b34801561055957600080fd5b506103f26105683660046157a9565b610de2565b34801561057957600080fd5b506103c1610588366004615428565b610e0d565b34801561059957600080fd5b5061054b6105a83660046153d2565b610e2f565b3480156105b957600080fd5b5061054b611195565b3480156105ce57600080fd5b5061015f546103c190600160301b900460ff1681565b3480156105f057600080fd5b5061041f6105ff3660046157a9565b6111a7565b34801561061057600080fd5b5061036c6101645481565b34801561062757600080fd5b5060c9546001600160a01b03166103f2565b61054b610647366004615384565b6115ad565b34801561065857600080fd5b5061054b6106673660046154c8565b61167e565b34801561067857600080fd5b5061036c61171f565b34801561068d57600080fd5b5061012d5460ff166103c1565b3480156106a657600080fd5b50610162546106bd90600160a01b900461ffff1681565b60405161ffff9091168152602001610376565b3480156106dc57600080fd5b5061054b6117d2565b3480156106f157600080fd5b506106bd6103e881565b34801561070757600080fd5b5061036c610716366004615260565b6001600160a01b0316600090815260fb602052604090205490565b34801561073d57600080fd5b5061054b6119c4565b34801561075257600080fd5b5061041f6119d6565b34801561076757600080fd5b5061015f5461077d906301000000900460020b81565b60405160029190910b8152602001610376565b34801561079c57600080fd5b5061054b611b76565b3480156107b157600080fd5b50610162546106bd90600160b01b900461ffff1681565b3480156107d457600080fd5b5061054b611b86565b3480156107e957600080fd5b50610394611c00565b3480156107fe57600080fd5b5061081261080d3660046157c1565b611c0f565b60408051938452602084019290925290820152606001610376565b34801561083957600080fd5b5061015f5461077d9060020b81565b34801561085457600080fd5b5061041f6108633660046157a9565b611d9b565b34801561087457600080fd5b506103c1610883366004615428565b612187565b34801561089457600080fd5b506103c16108a3366004615428565b61220d565b3480156108b457600080fd5b5061015f546103c190600160381b900460ff1681565b3480156108d657600080fd5b5061041f6108e5366004615260565b61221b565b3480156108f657600080fd5b50610162546103f2906001600160a01b031681565b34801561091757600080fd5b5061092b6109263660046157c1565b6122c3565b6040516103769190615840565b34801561094457600080fd5b5061015f5461077d90600160401b900460020b81565b34801561096657600080fd5b50610161546103f2906001600160a01b031681565b34801561098757600080fd5b5061054b61099636600461555d565b6124a1565b3480156109a757600080fd5b5061054b61250f565b3480156109bc57600080fd5b5061036c6109cb36600461530c565b612582565b3480156109dc57600080fd5b5061036c6125ad565b3480156109f157600080fd5b5061054b610a00366004615260565b612612565b348015610a1157600080fd5b5061054b610a2036600461577c565b61268a565b348015610a3157600080fd5b506106bd606481565b348015610a4657600080fd5b5061054b610a5536600461555d565b61274e565b348015610a6657600080fd5b5061041f610a753660046154f5565b6127c7565b606060fe8054610a8990615ad5565b80601f0160208091040260200160405190810160405280929190818152602001828054610ab590615ad5565b8015610b025780601f10610ad757610100808354040283529160200191610b02565b820191906000526020600020905b815481529060010190602001808311610ae557829003601f168201915b5050505050905090565b600033610b1a818585612abc565b5060019392505050565b60008060008061015f600b9054906101000a90046001600160a01b03166001600160a01b0316633850c7bd6040518163ffffffff1660e01b815260040160e06040518083038186803b158015610b7957600080fd5b505afa158015610b8d573d6000803e3d6000fd5b505050506040513d601f19601f82011682018060405250810190610bb191906156dc565b505050505091509150610bc48282612be0565b9350935050509091565b600080610bd9612e8b565b61015f54604051630251596160e31b81523060048201528615156024820152604481018690526001600160a01b03858116606483015260a06084830152600060a4830152600160581b9092049091169063128acb089060c4016040805180830381600087803b158015610c4b57600080fd5b505af1158015610c5f573d6000803e3d6000fd5b505050506040513d601f19601f82011682018060405250810190610c83919061553a565b6040805188151581526020810184905290810182905291935091507fbf511038cfa32cfb7971e976074c0e6aeda010e6afcbb38d87b4f910305014949060600160405180910390a1935093915050565b600033610ce1858285612ef0565b610cec858585612f64565b60019150505b9392505050565b306001600160a01b037f0000000000000000000000000000000000000000000000000000000000000000161415610d4b5760405162461bcd60e51b8152600401610d42906158e3565b60405180910390fd5b7f00000000000000000000000000000000000000000000000000000000000000006001600160a01b0316610d94600080516020615c21833981519152546001600160a01b031690565b6001600160a01b031614610dba5760405162461bcd60e51b8152600401610d429061592f565b610dc38161310f565b60408051600080825260208201909252610ddf9183919061313b565b50565b6101668181548110610df357600080fd5b6000918252602090912001546001600160a01b0316905081565b600033610b1a818585610e208383612582565b610e2a9190615a1f565b612abc565b600054610100900460ff1615808015610e4f5750600054600160ff909116105b80610e695750303b158015610e69575060005460ff166001145b610ecc5760405162461bcd60e51b815260206004820152602e60248201527f496e697469616c697a61626c653a20636f6e747261637420697320616c72656160448201526d191e481a5b9a5d1a585b1a5e995960921b6064820152608401610d42565b6000805460ff191660011790558015610eef576000805461ff0019166101001790555b600080600084806020019051810190610f089190615298565b925092509250610f166132ba565b610f1e6132e1565b610f26613310565b610f30828261333f565b610f38613370565b610f418361339f565b8661015f600b6101000a8154816001600160a01b0302191690836001600160a01b0316021790555061015f600b9054906101000a90046001600160a01b03166001600160a01b0316630dfe16816040518163ffffffff1660e01b815260040160206040518083038186803b158015610fb857600080fd5b505afa158015610fcc573d6000803e3d6000fd5b505050506040513d601f19601f82011682018060405250810190610ff0919061527c565b61016080546001600160a01b0319166001600160a01b0392831617905561015f546040805163d21220a760e01b81529051600160581b9092049092169163d21220a7916004808301926020929190829003018186803b15801561105257600080fd5b505afa158015611066573d6000803e3d6000fd5b505050506040513d601f19601f8201168201806040525081019061108a919061527c565b61016180546001600160a01b0319166001600160a01b039290921691909117905561015f80546affffff00000000000000001916600160401b62ffffff60028a900b16021790556101628054600163ffff000160a01b0319163361ffff60b01b191617607d60b11b1761ffff60a01b191690819055604080516000815261ffff600160b01b9093049290921660208301527f2ac80c14c28700f7b5e36f947d572149fe2e3947bac32c3a8c098f3e03722c11910160405180910390a1505050801561118f576000805461ff0019169055604051600181527f7f26b83ff96e1f2b6a682f133852f6798a09c465da95921460cefb38474024989060200160405180910390a15b50505050565b61119d612e8b565b6111a56133f1565b565b6000806111b2613444565b6111ba61349e565b826111d8576040516302075cc160e41b815260040160405180910390fd5b60006111e360fd5490565b33600081815260fb602052604090205491925061120090866134e5565b61015f54600160301b900460ff161561143b5761015f54600090600160581b90046001600160a01b031663514ea4bf6112376125ad565b6040518263ffffffff1660e01b815260040161125591815260200190565b60a06040518083038186803b15801561126d57600080fd5b505afa158015611281573d6000803e3d6000fd5b505050506040513d601f19601f820116820180604052508101906112a59190615686565b50505050905060006112c187836001600160801b031686613619565b905060006112ce826136c8565b90506000806000806112df85613735565b93509350935093506112f18282613ad7565b6112fb8282613b48565b60408051838152602081018390529294509092507fc28ad1de9c0c32e5394ba60323e44d8d9536312236a47231772e448a3e49de42910160405180910390a161016354610160546040516370a0823160e01b81523060048201526113dd929187916001600160a01b03909116906370a08231906024015b60206040518083038186803b15801561138a57600080fd5b505afa15801561139e573d6000803e3d6000fd5b505050506040513d601f19601f820116820180604052508101906113c291906154b0565b6113cc9190615a92565b6113d69190615a92565b8d8b613619565b6113e79085615a1f565b61016454610161546040516370a0823160e01b8152306004820152929d506114239286916001600160a01b0316906370a0823190602401611372565b61142d9084615a1f565b995050505050505050611467565b600080611446610b24565b91509150611455828886613619565b9550611462818886613619565b945050505b6114718484613bb3565b60008061147e8686613bcf565b909250905085156114ed57826114948882615a92565b33600090815261016560205260409020600101546114b29190615a4b565b6114bc9190615a37565b3360008181526101656020526040902060010191909155610160546114ed916001600160a01b039091169084613bf1565b841561155757826114fe8882615a92565b336000908152610165602052604090206002015461151c9190615a4b565b6115269190615a37565b336000818152610165602052604090206002019190915561016154611557916001600160a01b039091169083613bf1565b604080518881526020810184905290810182905233907f4c60206a5c1de41f3376d1d60f0949d96cb682033c90b1c2d9d9a62d4c4120c09060600160405180910390a2505050506115a86001606555565b915091565b306001600160a01b037f00000000000000000000000000000000000000000000000000000000000000001614156115f65760405162461bcd60e51b8152600401610d42906158e3565b7f00000000000000000000000000000000000000000000000000000000000000006001600160a01b031661163f600080516020615c21833981519152546001600160a01b031690565b6001600160a01b0316146116655760405162461bcd60e51b8152600401610d429061592f565b61166e8261310f565b61167a8282600161313b565b5050565b611686612e8b565b60fd541515806116a0575061015f54600160301b900460ff165b156116be57604051632a2c70bb60e11b815260040160405180910390fd5b6116c88282613c5b565b61015f54600160381b900460ff1661167a5761015f805467ff000000000000001916600160381b1790556040517f452a344f03203071e1daf66e007976c85cb2380deabf1c91f3c4fb1fca41204990600090a15050565b6000306001600160a01b037f000000000000000000000000000000000000000000000000000000000000000016146117bf5760405162461bcd60e51b815260206004820152603860248201527f555550535570677261646561626c653a206d757374206e6f742062652063616c60448201527f6c6564207468726f7567682064656c656761746563616c6c00000000000000006064820152608401610d42565b50600080516020615c2183398151915290565b6117da612e8b565b61015f54600090600160581b90046001600160a01b031663514ea4bf6117fe6125ad565b6040518263ffffffff1660e01b815260040161181c91815260200190565b60a06040518083038186803b15801561183457600080fd5b505afa158015611848573d6000803e3d6000fd5b505050506040513d601f19601f8201168201806040525081019061186c9190615686565b5050505090506000816001600160801b031611156119665761015f54600281810b9163010000009004900b60008080806118a587613735565b604080516001600160801b038d16815260028c810b60208301528b900b818301526060810186905260808101859052905194985092965090945092507f6d7e1841bf97c0b736eafb2779459ba1e0af2305cead28a8e97533589ceb2f65919081900360a00190a16119168282613ad7565b6119208282613b48565b60408051838152602081018390529294509092507fc28ad1de9c0c32e5394ba60323e44d8d9536312236a47231772e448a3e49de42910160405180910390a15050505050505b61015f805462ffffff63010000008204600290810b900b1666ff000000ffffff19909116179055604051600081527fd9279952b347fd14af9b788aff1029c0d3b1299b7dcce164fc602a1b958c48809060200160405180910390a150565b6119cc612e8b565b6111a5600061339f565b600080600061015f600b9054906101000a90046001600160a01b03166001600160a01b0316633850c7bd6040518163ffffffff1660e01b815260040160e06040518083038186803b158015611a2a57600080fd5b505afa158015611a3e573d6000803e3d6000fd5b505050506040513d601f19601f82011682018060405250810190611a6291906156dc565b5050505050915050600080600080600061015f600b9054906101000a90046001600160a01b03166001600160a01b031663514ea4bf611a9f6125ad565b6040518263ffffffff1660e01b8152600401611abd91815260200190565b60a06040518083038186803b158015611ad557600080fd5b505afa158015611ae9573d6000803e3d6000fd5b505050506040513d601f19601f82011682018060405250810190611b0d9190615686565b94509450945094509450816001600160801b0316611b2e6001868989613d1b565b611b389190615a1f565b9750806001600160801b0316611b516000858989613d1b565b611b5b9190615a1f565b9650611b678888613b48565b90999098509650505050505050565b611b7e612e8b565b6111a561411d565b611b8e612e8b565b61016380546101648054600093849055929055908115611bd157611bd1611bbd60c9546001600160a01b031690565b610160546001600160a01b03169084613bf1565b801561167a5761167a611bec60c9546001600160a01b031690565b610161546001600160a01b03169083613bf1565b606060ff8054610a8990615ad5565b600080600061015f60079054906101000a900460ff16611c4257604051630314872760e11b815260040160405180910390fd5b6000611c4d60fd5490565b90508015611c6c57611c6081878761415b565b91955093509150611d93565b600061015f600b9054906101000a90046001600160a01b03166001600160a01b0316633850c7bd6040518163ffffffff1660e01b815260040160e06040518083038186803b158015611cbd57600080fd5b505afa158015611cd1573d6000803e3d6000fd5b505050506040513d601f19601f82011682018060405250810190611cf591906156dc565b50505050505090506000611d4182611d1f61015f60009054906101000a900460020b60020b61425e565b61015f54611d3a9063010000009004600290810b900b61425e565b8b8b61467b565b61015f546001600160801b0382169550909150611d8b908390611d6a90600290810b900b61425e565b61015f54611d859063010000009004600290810b900b61425e565b8461473f565b909650945050505b509250925092565b600080611da6613444565b611dae61349e565b61015f54600160381b900460ff16611dd957604051630314872760e11b815260040160405180910390fd5b82611df75760405163199f5a0360e31b815260040160405180910390fd5b6000611e0260fd5490565b61015f5460408051633850c7bd60e01b81529051929350600160301b820460ff1692600092600160581b90046001600160a01b031691633850c7bd9160048083019260e0929190829003018186803b158015611e5d57600080fd5b505afa158015611e71573d6000803e3d6000fd5b505050506040513d601f19601f82011682018060405250810190611e9591906156dc565b50505050505090506000831115611ed657600080611eb1610b24565b91509150611ec08289876147db565b9650611ecd8189876147db565b95505050611f42565b8115611f295761015f54611f1f908290611ef690600290810b900b61425e565b61015f54611f119063010000009004600290810b900b61425e565b611f1a8a6136c8565b61473f565b9095509350611f42565b60405163344fa43b60e01b815260040160405180910390fd5b336000908152610165602052604090205460ff16611fb95733600081815261016560205260408120805460ff19166001908117909155610166805491820181559091527fa5a4c57b7184ec73d55be4993773cb4eef681bc86a28d0285cd66efb50676a970180546001600160a01b03191690911790555b841561200057336000908152610165602052604081206001018054879290611fe2908490615a1f565b909155505061016054612000906001600160a01b0316333088614829565b831561204757336000908152610165602052604081206002018054869290612029908490615a1f565b909155505061016154612047906001600160a01b0316333087614829565b6120513387614861565b81156121375761015f5460009061209690839061207490600290810b900b61425e565b61015f5461208f9063010000009004600290810b900b61425e565b898961467b565b61015f54604051633c8a7d8d60e01b81529192506001600160a01b03600160581b82041691633c8a7d8d916120e2913091600281810b926301000000909204900b9087906004016157fe565b6040805180830381600087803b1580156120fb57600080fd5b505af115801561210f573d6000803e3d6000fd5b505050506040513d601f19601f82011682018060405250810190612133919061553a565b5050505b604080518781526020810187905290810185905233907f5a3358a3d27a5373c0df2604662088d37894d56b7cfd27f315770440f4e0d9199060600160405180910390a25050506115a86001606555565b600033816121958286612582565b9050838110156121f55760405162461bcd60e51b815260206004820152602560248201527f45524332303a2064656372656173656420616c6c6f77616e63652062656c6f77604482015264207a65726f60d81b6064820152608401610d42565b6122028286868403612abc565b506001949350505050565b600033610b1a818585612f64565b600080600061015f600b9054906101000a90046001600160a01b03166001600160a01b0316633850c7bd6040518163ffffffff1660e01b815260040160e06040518083038186803b15801561226f57600080fd5b505afa158015612283573d6000803e3d6000fd5b505050506040513d601f19601f820116820180604052508101906122a791906156dc565b50505050509150506122b98482612be0565b9250925050915091565b6060821580156122d1575081155b156122dd576101665491505b60006122e98484615a92565b67ffffffffffffffff81111561230f57634e487b7160e01b600052604160045260246000fd5b60405190808252806020026020018201604052801561236d57816020015b61235a604051806060016040528060006001600160a01b0316815260200160008152602001600081525090565b81526020019060019003908161232d5790505b5090506000845b84811015612497576000610165600061016684815481106123a557634e487b7160e01b600052603260045260246000fd5b60009182526020808320909101546001600160a01b031683528281019390935260409182019020815160608082018452825460ff1615158252600183015494820194909452600290910154818301528151928301909152610166805491935082918590811061242457634e487b7160e01b600052603260045260246000fd5b600091825260209182902001546001600160a01b031682528381015190820152604080840151910152848461245881615b10565b95508151811061247857634e487b7160e01b600052603260045260246000fd5b602002602001018190525050808061248f90615b10565b915050612374565b5090949350505050565b61015f54600160581b90046001600160a01b031633146124d357604051620b7d9960e41b815260040160405180910390fd5b83156124f157610160546124f1906001600160a01b03163386613bf1565b821561118f576101615461118f906001600160a01b03163385613bf1565b612517612e8b565b6000806125246000613735565b9350935050506125348282613ad7565b61253e8282613b48565b60408051838152602081018390529294509092507fc28ad1de9c0c32e5394ba60323e44d8d9536312236a47231772e448a3e49de4291015b60405180910390a15050565b6001600160a01b03918216600090815260fc6020908152604080832093909416825291909152205490565b61015f546040516bffffffffffffffffffffffff193060601b166020820152600282810b810b60e890811b60348401526301000000909304810b900b90911b6037820152600090603a0160405160208183030381529060405280519060200120905090565b61261a612e8b565b6001600160a01b0381166126815760405162461bcd60e51b815260206004820152602860248201527f4f776e61626c653a206e6577206d616e6167657220697320746865207a65726f604482015267206164647265737360c01b6064820152608401610d42565b610ddf8161339f565b612692612e8b565b606461ffff831611156126b8576040516313f90f0b60e31b815260040160405180910390fd5b6103e861ffff821611156126df57604051630f14508d60e41b815260040160405180910390fd5b610162805463ffffffff60a01b1916600160a01b61ffff85811691820261ffff60b01b191692909217600160b01b928516928302179092556040805192835260208301919091527f2ac80c14c28700f7b5e36f947d572149fe2e3947bac32c3a8c098f3e03722c119101612576565b61015f54600160581b90046001600160a01b0316331461278057604051620b7d9960e41b815260040160405180910390fd5b60008413156127a657610160546127a1906001600160a01b03163386613bf1565b61118f565b600083131561118f576101615461118f906001600160a01b03163385613bf1565b6000806127d2612e8b565b6127dc8686614922565b600061015f600b9054906101000a90046001600160a01b03166001600160a01b0316633850c7bd6040518163ffffffff1660e01b815260040160e06040518083038186803b15801561282d57600080fd5b505afa158015612841573d6000803e3d6000fd5b505050506040513d601f19601f8201168201806040525081019061286591906156dc565b5050505050509050600061288b8261287f8a60020b61425e565b61208f8a60020b61425e565b90506001600160801b03811615612a535761015f54604051633c8a7d8d60e01b81526000918291600160581b9091046001600160a01b031690633c8a7d8d906128de9030908e908e9089906004016157fe565b6040805180830381600087803b1580156128f757600080fd5b505af115801561290b573d6000803e3d6000fd5b505050506040513d601f19601f8201168201806040525081019061292f919061553a565b909250905061293e8289615a92565b955061294a8188615a92565b61015f5490955060028b810b91810b900b14158061297b575061015f5460028a810b6301000000909204810b900b14155b156129f55761015f805460028b810b62ffffff90811663010000000265ffffffffffff19909316918e900b16171790556040517f8e3ac6cc9b82795b40740ca4e954df8f6655fe35e80cdc6fb33d50c3423fcd16906129ec908c908c90600292830b8152910b602082015260400190565b60405180910390a15b604080516001600160801b038516815260028c810b60208301528b900b81830152606081018490526080810183905290517ffa715a0b1bc7287b5d3581c11478041b0455aad0c17361fc1e55fffbdd4b6c4f9181900360a00190a150505b61015f54600160301b900460ff16612ab15761015f805466ff0000000000001916600160301b179055604051600181527fd9279952b347fd14af9b788aff1029c0d3b1299b7dcce164fc602a1b958c48809060200160405180910390a15b505094509492505050565b6001600160a01b038316612b1e5760405162461bcd60e51b8152602060048201526024808201527f45524332303a20617070726f76652066726f6d20746865207a65726f206164646044820152637265737360e01b6064820152608401610d42565b6001600160a01b038216612b7f5760405162461bcd60e51b815260206004820152602260248201527f45524332303a20617070726f766520746f20746865207a65726f206164647265604482015261737360f01b6064820152608401610d42565b6001600160a01b03838116600081815260fc602090815260408083209487168084529482529182902085905590518481527f8c5be1e5ebec7d5bd14f71427d1e84f3dd0314c0f7b2291e5b200ac8c7c3b925910160405180910390a3505050565b600080600080600080600061015f600b9054906101000a90046001600160a01b03166001600160a01b031663514ea4bf612c186125ad565b6040518263ffffffff1660e01b8152600401612c3691815260200190565b60a06040518083038186803b158015612c4e57600080fd5b505afa158015612c62573d6000803e3d6000fd5b505050506040513d601f19601f82011682018060405250810190612c869190615686565b94509450945094509450600080866001600160801b0316600014612d3a5761015f54612cdf908c90612cbe90600290810b900b61425e565b61015f54612cd99063010000009004600290810b900b61425e565b8a61473f565b90995097506001600160801b038416612cfb6001888d8b613d1b565b612d059190615a1f565b9150826001600160801b0316612d1e6000878d8b613d1b565b612d289190615a1f565b9050612d348282613b48565b90925090505b61016354610160546040516370a0823160e01b81523060048201526001600160a01b03909116906370a082319060240160206040518083038186803b158015612d8257600080fd5b505afa158015612d96573d6000803e3d6000fd5b505050506040513d601f19601f82011682018060405250810190612dba91906154b0565b612dc49084615a1f565b612dce9190615a92565b612dd8908a615a1f565b61016454610161546040516370a0823160e01b8152306004820152929b5090916001600160a01b03909116906370a082319060240160206040518083038186803b158015612e2557600080fd5b505afa158015612e39573d6000803e3d6000fd5b505050506040513d601f19601f82011682018060405250810190612e5d91906154b0565b612e679083615a1f565b612e719190615a92565b612e7b9089615a1f565b9750505050505050509250929050565b60c9546001600160a01b031633146111a55760405162461bcd60e51b815260206004820152602260248201527f4f776e61626c653a2063616c6c6572206973206e6f7420746865206d616e616760448201526132b960f11b6064820152608401610d42565b6000612efc8484612582565b9050600019811461118f5781811015612f575760405162461bcd60e51b815260206004820152601d60248201527f45524332303a20696e73756666696369656e7420616c6c6f77616e63650000006044820152606401610d42565b61118f8484848403612abc565b6001600160a01b038316612fc85760405162461bcd60e51b815260206004820152602560248201527f45524332303a207472616e736665722066726f6d20746865207a65726f206164604482015264647265737360d81b6064820152608401610d42565b6001600160a01b03821661302a5760405162461bcd60e51b815260206004820152602360248201527f45524332303a207472616e7366657220746f20746865207a65726f206164647260448201526265737360e81b6064820152608401610d42565b6001600160a01b038316600090815260fb6020526040902054818110156130a25760405162461bcd60e51b815260206004820152602660248201527f45524332303a207472616e7366657220616d6f756e7420657863656564732062604482015265616c616e636560d01b6064820152608401610d42565b6001600160a01b03808516600081815260fb602052604080822086860390559286168082529083902080548601905591517fddf252ad1be2c89b69c2b068fc378daa952ba7f163c4a11628f55a4df523b3ef906131029086815260200190565b60405180910390a361118f565b610162546001600160a01b03163314610ddf57604051631b1319e560e01b815260040160405180910390fd5b7f4910fdfa16fed3260ed0e7147f7cc6da11a60208b5b9406d12a635614ffd91435460ff16156131735761316e836149d7565b505050565b826001600160a01b03166352d1902d6040518163ffffffff1660e01b815260040160206040518083038186803b1580156131ac57600080fd5b505afa9250505080156131dc575060408051601f3d908101601f191682019092526131d9918101906154b0565b60015b61323f5760405162461bcd60e51b815260206004820152602e60248201527f45524331393637557067726164653a206e657720696d706c656d656e7461746960448201526d6f6e206973206e6f74205555505360901b6064820152608401610d42565b600080516020615c2183398151915281146132ae5760405162461bcd60e51b815260206004820152602960248201527f45524331393637557067726164653a20756e737570706f727465642070726f786044820152681a58589b195555525160ba1b6064820152608401610d42565b5061316e838383614a73565b600054610100900460ff166111a55760405162461bcd60e51b8152600401610d429061597b565b600054610100900460ff166133085760405162461bcd60e51b8152600401610d429061597b565b6111a5614a98565b600054610100900460ff166133375760405162461bcd60e51b8152600401610d429061597b565b6111a5614abf565b600054610100900460ff166133665760405162461bcd60e51b8152600401610d429061597b565b61167a8282614aef565b600054610100900460ff166133975760405162461bcd60e51b8152600401610d429061597b565b6111a5614b3d565b60c980546001600160a01b038381166001600160a01b0319831681179093556040519116919082907f8be0079c531659141344cd1fd0a4f28419497f9722a3daafe3b4186f6b6457e090600090a35050565b6133f9614b71565b61012d805460ff191690557f5db9ee0a495bf2e6ff9c91a7834c1ba4fdd244a5e8aa4e537bd38aeae4b073aa335b6040516001600160a01b03909116815260200160405180910390a1565b600260655414156134975760405162461bcd60e51b815260206004820152601f60248201527f5265656e7472616e637947756172643a207265656e7472616e742063616c6c006044820152606401610d42565b6002606555565b61012d5460ff16156111a55760405162461bcd60e51b815260206004820152601060248201526f14185d5cd8589b194e881c185d5cd95960821b6044820152606401610d42565b6001600160a01b0382166135455760405162461bcd60e51b815260206004820152602160248201527f45524332303a206275726e2066726f6d20746865207a65726f206164647265736044820152607360f81b6064820152608401610d42565b6001600160a01b038216600090815260fb6020526040902054818110156135b95760405162461bcd60e51b815260206004820152602260248201527f45524332303a206275726e20616d6f756e7420657863656564732062616c616e604482015261636560f01b6064820152608401610d42565b6001600160a01b038316600081815260fb60209081526040808320868603905560fd80548790039055518581529192917fddf252ad1be2c89b69c2b068fc378daa952ba7f163c4a11628f55a4df523b3ef910160405180910390a3505050565b600080806000198587098587029250828110838203039150508060001415613653576000841161364857600080fd5b508290049050610cf2565b80841161365f57600080fd5b60008486880960026001871981018816978890046003810283188082028403028082028403028082028403028082028403028082028403029081029092039091026000889003889004909101858311909403939093029303949094049190911702949350505050565b60006001600160801b038211156137315760405162461bcd60e51b815260206004820152602760248201527f53616665436173743a2076616c756520646f65736e27742066697420696e20316044820152663238206269747360c81b6064820152608401610d42565b5090565b61015f54610160546040516370a0823160e01b8152306004820152600092839283928392600281810b936301000000909204900b9184916001600160a01b0316906370a082319060240160206040518083038186803b15801561379757600080fd5b505afa1580156137ab573d6000803e3d6000fd5b505050506040513d601f19601f820116820180604052508101906137cf91906154b0565b610161546040516370a0823160e01b81523060048201529192506000916001600160a01b03909116906370a082319060240160206040518083038186803b15801561381957600080fd5b505afa15801561382d573d6000803e3d6000fd5b505050506040513d601f19601f8201168201806040525081019061385191906154b0565b61015f5460405163a34123a760e01b8152600287810b600483015286900b60248201526001600160801b038c166044820152919250600160581b90046001600160a01b03169063a34123a7906064016040805180830381600087803b1580156138b957600080fd5b505af11580156138cd573d6000803e3d6000fd5b505050506040513d601f19601f820116820180604052508101906138f1919061553a565b61015f546040516309e3d67b60e31b8152306004820152600288810b602483015287900b60448201526001600160801b03606482018190526084820152929a50909850600160581b90046001600160a01b031690634f1eb3d89060a4016040805180830381600087803b15801561396757600080fd5b505af115801561397b573d6000803e3d6000fd5b505050506040513d601f19601f8201168201806040525081019061399f9190615654565b5050610160546040516370a0823160e01b8152306004820152899184916001600160a01b03909116906370a082319060240160206040518083038186803b1580156139e957600080fd5b505afa1580156139fd573d6000803e3d6000fd5b505050506040513d601f19601f82011682018060405250810190613a2191906154b0565b613a2b9190615a92565b613a359190615a92565b610161546040516370a0823160e01b8152306004820152919750889183916001600160a01b0316906370a082319060240160206040518083038186803b158015613a7e57600080fd5b505afa158015613a92573d6000803e3d6000fd5b505050506040513d601f19601f82011682018060405250810190613ab691906154b0565b613ac09190615a92565b613aca9190615a92565b9450505050509193509193565b61016254600160b01b900461ffff16612710613af38285615a4b565b613afd9190615a37565b6101636000828254613b0f9190615a1f565b909155506127109050613b228284615a4b565b613b2c9190615a37565b6101646000828254613b3e9190615a1f565b9091555050505050565b610162546000908190600160b01b900461ffff1681612710613b6a8388615a4b565b613b749190615a37565b90506000612710613b858488615a4b565b613b8f9190615a37565b9050613b9b8288615a92565b9450613ba78187615a92565b93505050509250929050565b61016254600160a01b900461ffff16612710613af38285615a4b565b610162546000908190600160a01b900461ffff1681612710613b6a8388615a4b565b6040516001600160a01b03831660248201526044810182905261316e90849063a9059cbb60e01b906064015b60408051601f198184030181529190526020810180516001600160e01b03166001600160e01b031990931692909217909152614bbb565b6001606555565b613c658282614922565b61015f805466ff00000000000019600284810b62ffffff90811663010000000265ffffffffffff199094169187900b16179190911716600160301b1790556040517fd9279952b347fd14af9b788aff1029c0d3b1299b7dcce164fc602a1b958c488090613cd89060011515815260200190565b60405180910390a160408051600284810b825283900b60208201527f8e3ac6cc9b82795b40740ca4e954df8f6655fe35e80cdc6fb33d50c3423fcd169101612576565b6000806000808715613ee65761015f600b9054906101000a90046001600160a01b03166001600160a01b031663f30583996040518163ffffffff1660e01b815260040160206040518083038186803b158015613d7657600080fd5b505afa158015613d8a573d6000803e3d6000fd5b505050506040513d601f19601f82011682018060405250810190613dae91906154b0565b61015f5460405163f30dba9360e01b8152600282810b900b6004820152919250600160581b90046001600160a01b03169063f30dba93906024016101006040518083038186803b158015613e0157600080fd5b505afa158015613e15573d6000803e3d6000fd5b505050506040513d601f19601f82011682018060405250810190613e3991906155ae565b505061015f5460405163f30dba9360e01b81529499506001600160a01b03600160581b820416965063f30dba939550613e8594630100000090910460020b935060040191506158a29050565b6101006040518083038186803b158015613e9e57600080fd5b505afa158015613eb2573d6000803e3d6000fd5b505050506040513d601f19601f82011682018060405250810190613ed691906155ae565b5093975061409f95505050505050565b61015f600b9054906101000a90046001600160a01b03166001600160a01b031663461413196040518163ffffffff1660e01b815260040160206040518083038186803b158015613f3557600080fd5b505afa158015613f49573d6000803e3d6000fd5b505050506040513d601f19601f82011682018060405250810190613f6d91906154b0565b61015f5460405163f30dba9360e01b8152600282810b900b6004820152919250600160581b90046001600160a01b03169063f30dba93906024016101006040518083038186803b158015613fc057600080fd5b505afa158015613fd4573d6000803e3d6000fd5b505050506040513d601f19601f82011682018060405250810190613ff891906155ae565b505061015f5460405163f30dba9360e01b81529399506001600160a01b03600160581b820416965063f30dba93955061404394506301000000900460020b9260040191506158a29050565b6101006040518083038186803b15801561405c57600080fd5b505afa158015614070573d6000803e3d6000fd5b505050506040513d601f19601f8201168201806040525081019061409491906155ae565b509297505050505050505b61015f54600090600290810b810b9088900b126140bd5750826140c2565b508281035b600061015f60039054906101000a900460020b60020b8860020b12156140e95750826140ee565b508282035b81830381900361410e6001600160801b0389168b8303600160801b613619565b9b9a5050505050505050505050565b61412561349e565b61012d805460ff191660011790557f62e78cea01bee320cd4e420270b5ea74000d11b0c9f74754ebdbfc544b05a2586134273390565b600080600080600061416b610b24565b9150915081600014801561417f5750600081115b156141965761418f868983613619565b9250614239565b801580156141a45750600082115b156141b45761418f878984613619565b811580156141c0575080155b156141de5760405163f912977760e01b815260040160405180910390fd5b60006141eb888a85613619565b905060006141fa888b85613619565b9050811580614207575080155b1561422557604051630856e64360e21b815260040160405180910390fd5b8082106142325780614234565b815b945050505b61424483838a6147db565b945061425183828a6147db565b9350505093509350939050565b60008060008360020b12614275578260020b614282565b8260020b61428290615b82565b9050614291620d89e719615b61565b60020b8111156142c75760405162461bcd60e51b81526020600482015260016024820152601560fa1b6044820152606401610d42565b6000600182166142db57600160801b6142ed565b6ffffcb933bd6fad37aa2d162d1a5940015b70ffffffffffffffffffffffffffffffffff169050600282161561432c576080614327826ffff97272373d413259a46990580e213a615a4b565b901c90505b6004821615614356576080614351826ffff2e50f5f656932ef12357cf3c7fdcc615a4b565b901c90505b600882161561438057608061437b826fffe5caca7e10e4e61c3624eaa0941cd0615a4b565b901c90505b60108216156143aa5760806143a5826fffcb9843d60f6159c9db58835c926644615a4b565b901c90505b60208216156143d45760806143cf826fff973b41fa98c081472e6896dfb254c0615a4b565b901c90505b60408216156143fe5760806143f9826fff2ea16466c96a3843ec78b326b52861615a4b565b901c90505b6080821615614428576080614423826ffe5dee046a99a2a811c461f1969c3053615a4b565b901c90505b61010082161561445357608061444e826ffcbe86c7900a88aedcffc83b479aa3a4615a4b565b901c90505b61020082161561447e576080614479826ff987a7253ac413176f2b074cf7815e54615a4b565b901c90505b6104008216156144a95760806144a4826ff3392b0822b70005940c7a398e4b70f3615a4b565b901c90505b6108008216156144d45760806144cf826fe7159475a2c29b7443b29c7fa6e889d9615a4b565b901c90505b6110008216156144ff5760806144fa826fd097f3bdfd2022b8845ad8f792aa5825615a4b565b901c90505b61200082161561452a576080614525826fa9f746462d870fdf8a65dc1f90e061e5615a4b565b901c90505b614000821615614555576080614550826f70d869a156d2a1b890bb3df62baf32f7615a4b565b901c90505b61800082161561458057608061457b826f31be135f97d08fd981231505542fcfa6615a4b565b901c90505b620100008216156145ac5760806145a7826f09aa508b5b7a84e1c677de54f3e99bc9615a4b565b901c90505b620200008216156145d75760806145d2826e5d6af8dedb81196699c329225ee604615a4b565b901c90505b620400008216156146015760806145fc826d2216e584f5fa1ea926041bedfe98615a4b565b901c90505b62080000821615614629576080614624826b048a170391f7dc42444e8fa2615a4b565b901c90505b60008460020b13156146445761464181600019615a37565b90505b61465364010000000082615b4d565b1561465f576001614662565b60005b6146739060ff16602083901c615a1f565b949350505050565b6000836001600160a01b0316856001600160a01b0316111561469b579293925b846001600160a01b0316866001600160a01b0316116146c6576146bf858585614c8d565b9050614736565b836001600160a01b0316866001600160a01b031610156147285760006146ed878686614c8d565b905060006146fc878986614cf7565b9050806001600160801b0316826001600160801b03161061471d578061471f565b815b92505050614736565b614733858584614cf7565b90505b95945050505050565b600080836001600160a01b0316856001600160a01b03161115614760579293925b846001600160a01b0316866001600160a01b03161161478b57614784858585614d2d565b91506147d2565b836001600160a01b0316866001600160a01b031610156147c4576147b0868585614d2d565b91506147bd858785614da0565b90506147d2565b6147cf858585614da0565b90505b94509492505050565b60006147e8848484613619565b90506000828061480857634e487b7160e01b600052601260045260246000fd5b8486091115610cf257600019811061481f57600080fd5b8061473681615b10565b6040516001600160a01b038085166024830152831660448201526064810182905261118f9085906323b872dd60e01b90608401613c1d565b6001600160a01b0382166148b75760405162461bcd60e51b815260206004820152601f60248201527f45524332303a206d696e7420746f20746865207a65726f2061646472657373006044820152606401610d42565b8060fd60008282546148c99190615a1f565b90915550506001600160a01b038216600081815260fb60209081526040808320805486019055518481527fddf252ad1be2c89b69c2b068fc378daa952ba7f163c4a11628f55a4df523b3ef910160405180910390a35050565b620d89e719600283900b12806149495750614940620d89e719615b61565b60020b8160020b135b156149675760405163137b639d60e21b815260040160405180910390fd5b8060020b8260020b121580614995575061015f5461498f90600160401b900460020b83615b2b565b60020b15155b806149b9575061015f546149b390600160401b900460020b82615b2b565b60020b15155b1561167a57604051633981390b60e11b815260040160405180910390fd5b6001600160a01b0381163b614a445760405162461bcd60e51b815260206004820152602d60248201527f455243313936373a206e657720696d706c656d656e746174696f6e206973206e60448201526c1bdd08184818dbdb9d1c9858dd609a1b6064820152608401610d42565b600080516020615c2183398151915280546001600160a01b0319166001600160a01b0392909216919091179055565b614a7c83614dea565b600082511180614a895750805b1561316e5761118f8383614e2a565b600054610100900460ff16613c545760405162461bcd60e51b8152600401610d429061597b565b600054610100900460ff16614ae65760405162461bcd60e51b8152600401610d429061597b565b6111a53361339f565b600054610100900460ff16614b165760405162461bcd60e51b8152600401610d429061597b565b8151614b299060fe9060208501906150d3565b50805161316e9060ff9060208401906150d3565b600054610100900460ff16614b645760405162461bcd60e51b8152600401610d429061597b565b61012d805460ff19169055565b61012d5460ff166111a55760405162461bcd60e51b815260206004820152601460248201527314185d5cd8589b194e881b9bdd081c185d5cd95960621b6044820152606401610d42565b6000614c10826040518060400160405280602081526020017f5361666545524332303a206c6f772d6c6576656c2063616c6c206661696c6564815250856001600160a01b0316614f159092919063ffffffff16565b80519091501561316e5780806020019051810190614c2e9190615453565b61316e5760405162461bcd60e51b815260206004820152602a60248201527f5361666545524332303a204552433230206f7065726174696f6e20646964206e6044820152691bdd081cdd58d8d9595960b21b6064820152608401610d42565b6000826001600160a01b0316846001600160a01b03161115614cad579192915b6000614cd0856001600160a01b0316856001600160a01b0316600160601b613619565b9050614736614cf28483614ce48989615a6a565b6001600160a01b0316613619565b614f24565b6000826001600160a01b0316846001600160a01b03161115614d17579192915b614673614cf283600160601b614ce48888615a6a565b6000826001600160a01b0316846001600160a01b03161115614d4d579192915b6001600160a01b038416614d966fffffffffffffffffffffffffffffffff60601b606085901b16614d7e8787615a6a565b6001600160a01b0316866001600160a01b0316613619565b6146739190615a37565b6000826001600160a01b0316846001600160a01b03161115614dc0579192915b6146736001600160801b038316614dd78686615a6a565b6001600160a01b0316600160601b613619565b614df3816149d7565b6040516001600160a01b038216907fbc7cd75a20ee27fd9adebab32041f755214dbc6bffa90cc0225b39da2e5c2d3b90600090a250565b60606001600160a01b0383163b614e925760405162461bcd60e51b815260206004820152602660248201527f416464726573733a2064656c65676174652063616c6c20746f206e6f6e2d636f6044820152651b9d1c9858dd60d21b6064820152608401610d42565b600080846001600160a01b031684604051614ead91906157e2565b600060405180830381855af49150503d8060008114614ee8576040519150601f19603f3d011682016040523d82523d6000602084013e614eed565b606091505b50915091506147368282604051806060016040528060278152602001615c4160279139614f3f565b60606146738484600085614f58565b806001600160801b0381168114614f3a57600080fd5b919050565b60608315614f4e575081610cf2565b610cf28383615033565b606082471015614fb95760405162461bcd60e51b815260206004820152602660248201527f416464726573733a20696e73756666696369656e742062616c616e636520666f6044820152651c8818d85b1b60d21b6064820152608401610d42565b600080866001600160a01b03168587604051614fd591906157e2565b60006040518083038185875af1925050503d8060008114615012576040519150601f19603f3d011682016040523d82523d6000602084013e615017565b606091505b50915091506150288783838761505d565b979650505050505050565b8151156150435781518083602001fd5b8060405162461bcd60e51b8152600401610d4291906158b0565b606083156150c95782516150c2576001600160a01b0385163b6150c25760405162461bcd60e51b815260206004820152601d60248201527f416464726573733a2063616c6c20746f206e6f6e2d636f6e74726163740000006044820152606401610d42565b5081614673565b6146738383615033565b8280546150df90615ad5565b90600052602060002090601f0160209004810192826151015760008555615147565b82601f1061511a57805160ff1916838001178555615147565b82800160010185558215615147579182015b8281111561514757825182559160200191906001019061512c565b506137319291505b80821115613731576000815560010161514f565b8051614f3a81615bf3565b60008083601f84011261517f578182fd5b50813567ffffffffffffffff811115615196578182fd5b6020830191508360208285010111156151ae57600080fd5b9250929050565b600082601f8301126151c5578081fd5b81356151d86151d3826159f7565b6159c6565b8181528460208386010111156151ec578283fd5b816020850160208301379081016020019190915292915050565b600082601f830112615216578081fd5b81516152246151d3826159f7565b818152846020838601011115615238578283fd5b614673826020830160208701615aa9565b80516001600160801b0381168114614f3a57600080fd5b600060208284031215615271578081fd5b8135610cf281615bde565b60006020828403121561528d578081fd5b8151610cf281615bde565b6000806000606084860312156152ac578182fd5b83516152b781615bde565b602085015190935067ffffffffffffffff808211156152d4578384fd5b6152e087838801615206565b935060408601519150808211156152f5578283fd5b5061530286828701615206565b9150509250925092565b6000806040838503121561531e578182fd5b823561532981615bde565b9150602083013561533981615bde565b809150509250929050565b600080600060608486031215615358578283fd5b833561536381615bde565b9250602084013561537381615bde565b929592945050506040919091013590565b60008060408385031215615396578182fd5b82356153a181615bde565b9150602083013567ffffffffffffffff8111156153bc578182fd5b6153c8858286016151b5565b9150509250929050565b6000806000606084860312156153e6578081fd5b83356153f181615bde565b9250602084013561540181615c01565b9150604084013567ffffffffffffffff81111561541c578182fd5b615302868287016151b5565b6000806040838503121561543a578182fd5b823561544581615bde565b946020939093013593505050565b600060208284031215615464578081fd5b8151610cf281615bf3565b600080600060608486031215615483578081fd5b833561548e81615bf3565b92506020840135915060408401356154a581615bde565b809150509250925092565b6000602082840312156154c1578081fd5b5051919050565b600080604083850312156154da578182fd5b82356154e581615c01565b9150602083013561533981615c01565b6000806000806080858703121561550a578182fd5b843561551581615c01565b9350602085013561552581615c01565b93969395505050506040820135916060013590565b6000806040838503121561554c578182fd5b505080516020909101519092909150565b60008060008060608587031215615572578182fd5b8435935060208501359250604085013567ffffffffffffffff811115615596578283fd5b6155a28782880161516e565b95989497509550505050565b600080600080600080600080610100898b0312156155ca578586fd5b6155d389615249565b9750602089015180600f0b81146155e8578687fd5b80975050604089015195506060890151945060808901518060060b811461560d578485fd5b60a08a015190945061561e81615bde565b60c08a015190935063ffffffff81168114615637578283fd5b915061564560e08a01615163565b90509295985092959890939650565b60008060408385031215615666578182fd5b61566f83615249565b915061567d60208401615249565b90509250929050565b600080600080600060a0868803121561569d578283fd5b6156a686615249565b945060208601519350604086015192506156c260608701615249565b91506156d060808701615249565b90509295509295909350565b600080600080600080600060e0888a0312156156f6578081fd5b875161570181615bde565b602089015190975061571281615c01565b604089015190965061572381615c10565b606089015190955061573481615c10565b608089015190945061574581615c10565b60a089015190935060ff8116811461575b578182fd5b60c089015190925061576c81615bf3565b8091505092959891949750929550565b6000806040838503121561578e578182fd5b823561579981615c10565b9150602083013561533981615c10565b6000602082840312156157ba578081fd5b5035919050565b600080604083850312156157d3578182fd5b50508035926020909101359150565b600082516157f4818460208701615aa9565b9190910192915050565b6001600160a01b03949094168452600292830b6020850152910b60408301526001600160801b0316606082015260a06080820181905260009082015260c00190565b602080825282518282018190526000919060409081850190868401855b8281101561589557815180516001600160a01b031685528681015187860152850151858501526060909301929085019060010161585d565b5091979650505050505050565b60029190910b815260200190565b60208152600082518060208401526158cf816040850160208701615aa9565b601f01601f19169190910160400192915050565b6020808252602c908201527f46756e6374696f6e206d7573742062652063616c6c6564207468726f7567682060408201526b19195b1959d85d1958d85b1b60a21b606082015260800190565b6020808252602c908201527f46756e6374696f6e206d7573742062652063616c6c6564207468726f7567682060408201526b6163746976652070726f787960a01b606082015260800190565b6020808252602b908201527f496e697469616c697a61626c653a20636f6e7472616374206973206e6f74206960408201526a6e697469616c697a696e6760a81b606082015260800190565b604051601f8201601f1916810167ffffffffffffffff811182821017156159ef576159ef615bc8565b604052919050565b600067ffffffffffffffff821115615a1157615a11615bc8565b50601f01601f191660200190565b60008219821115615a3257615a32615b9c565b500190565b600082615a4657615a46615bb2565b500490565b6000816000190483118215151615615a6557615a65615b9c565b500290565b60006001600160a01b0383811690831681811015615a8a57615a8a615b9c565b039392505050565b600082821015615aa457615aa4615b9c565b500390565b60005b83811015615ac4578181015183820152602001615aac565b8381111561118f5750506000910152565b600181811c90821680615ae957607f821691505b60208210811415615b0a57634e487b7160e01b600052602260045260246000fd5b50919050565b6000600019821415615b2457615b24615b9c565b5060010190565b60008260020b80615b3e57615b3e615bb2565b808360020b0791505092915050565b600082615b5c57615b5c615bb2565b500690565b60008160020b627fffff19811415615b7b57615b7b615b9c565b9003919050565b6000600160ff1b821415615b9857615b98615b9c565b0390565b634e487b7160e01b600052601160045260246000fd5b634e487b7160e01b600052601260045260246000fd5b634e487b7160e01b600052604160045260246000fd5b6001600160a01b0381168114610ddf57600080fd5b8015158114610ddf57600080fd5b8060020b8114610ddf57600080fd5b61ffff81168114610ddf57600080fdfe360894a13ba1a3210667c828492db98dca3e2076cc3735a920a3ca505d382bbc416464726573733a206c6f772d6c6576656c2064656c65676174652063616c6c206661696c6564a26469706673582212202bf7b1d5e175046aeed45cc3ad1ce8e12c8b78c684e1bc1fc5db585130aabdeb64736f6c63430008040033",
  "linkReferences": {},
  "deployedLinkReferences": {}
}