{
  "_format": "hh-sol-artifact-1",
  "contractName": "RangeProtocolFactory",
  "sourceName": "contracts/RangeProtocolFactory.sol",
  "abi": [
    {
      "inputs": [
        {
          "internalType": "address",
          "name": "_uniswapV3Factory",
          "type": "address"
        }
      ],
      "stateMutability": "nonpayable",
      "type": "constructor"
    },
    {
      "inputs": [],
      "name": "MismatchedVaultsAndImplsLength",
      "type": "error"
    },
    {
      "inputs": [],
      "name": "NoVaultInitDataProvided",
      "type": "error"
    },
    {
      "inputs": [],
      "name": "VaultUpgradeFailed",
      "type": "error"
    },
    {
      "inputs": [],
      "name": "ZeroPoolAddress",
      "type": "error"
    },
    {
      "anonymous": false,
      "inputs": [
        {
          "indexed": true,
          "internalType": "address",
          "name": "previousManager",
          "type": "address"
        },
        {
          "indexed": true,
          "internalType": "address",
          "name": "newManager",
          "type": "address"
        }
      ],
      "name": "OwnershipTransferred",
      "type": "event"
    },
    {
      "anonymous": false,
      "inputs": [
        {
          "indexed": true,
          "internalType": "address",
          "name": "uniPool",
          "type": "address"
        },
        {
          "indexed": true,
          "internalType": "address",
          "name": "vault",
          "type": "address"
        }
      ],
      "name": "VaultCreated",
      "type": "event"
    },
    {
      "anonymous": false,
      "inputs": [
        {
          "indexed": true,
          "internalType": "address",
          "name": "uniPool",
          "type": "address"
        },
        {
          "indexed": true,
          "internalType": "address",
          "name": "vault",
          "type": "address"
        }
      ],
      "name": "VaultImplUpgraded",
      "type": "event"
    },
    {
      "inputs": [],
      "name": "INIT_SELECTOR",
      "outputs": [
        {
          "internalType": "bytes4",
          "name": "",
          "type": "bytes4"
        }
      ],
      "stateMutability": "view",
      "type": "function"
    },
    {
      "inputs": [],
      "name": "UPGRADE_SELECTOR",
      "outputs": [
        {
          "internalType": "bytes4",
          "name": "",
          "type": "bytes4"
        }
      ],
      "stateMutability": "view",
      "type": "function"
    },
    {
      "inputs": [
        {
          "internalType": "address",
          "name": "tokenA",
          "type": "address"
        },
        {
          "internalType": "address",
          "name": "tokenB",
          "type": "address"
        },
        {
          "internalType": "uint24",
          "name": "fee",
          "type": "uint24"
        },
        {
          "internalType": "address",
          "name": "implementation",
          "type": "address"
        },
        {
          "internalType": "bytes",
          "name": "data",
          "type": "bytes"
        }
      ],
      "name": "createVault",
      "outputs": [],
      "stateMutability": "nonpayable",
      "type": "function"
    },
    {
      "inputs": [],
      "name": "factory",
      "outputs": [
        {
          "internalType": "address",
          "name": "",
          "type": "address"
        }
      ],
      "stateMutability": "view",
      "type": "function"
    },
    {
      "inputs": [
        {
          "internalType": "uint256",
          "name": "startIdx",
          "type": "uint256"
        },
        {
          "internalType": "uint256",
          "name": "endIdx",
          "type": "uint256"
        }
      ],
      "name": "getVaultAddresses",
      "outputs": [
        {
          "internalType": "address[]",
          "name": "vaultList",
          "type": "address[]"
        }
      ],
      "stateMutability": "view",
      "type": "function"
    },
    {
      "inputs": [],
      "name": "manager",
      "outputs": [
        {
          "internalType": "address",
          "name": "",
          "type": "address"
        }
      ],
      "stateMutability": "view",
      "type": "function"
    },
    {
      "inputs": [],
      "name": "renounceOwnership",
      "outputs": [],
      "stateMutability": "nonpayable",
      "type": "function"
    },
    {
      "inputs": [
        {
          "internalType": "address",
          "name": "newOwner",
          "type": "address"
        }
      ],
      "name": "transferOwnership",
      "outputs": [],
      "stateMutability": "nonpayable",
      "type": "function"
    },
    {
      "inputs": [
        {
          "internalType": "address",
          "name": "_vault",
          "type": "address"
        },
        {
          "internalType": "address",
          "name": "_impl",
          "type": "address"
        }
      ],
      "name": "upgradeVault",
      "outputs": [],
      "stateMutability": "nonpayable",
      "type": "function"
    },
    {
      "inputs": [
        {
          "internalType": "address[]",
          "name": "_vaults",
          "type": "address[]"
        },
        {
          "internalType": "address[]",
          "name": "_impls",
          "type": "address[]"
        }
      ],
      "name": "upgradeVaults",
      "outputs": [],
      "stateMutability": "nonpayable",
      "type": "function"
    },
    {
      "inputs": [],
      "name": "vaultCount",
      "outputs": [
        {
          "internalType": "uint256",
          "name": "",
          "type": "uint256"
        }
      ],
      "stateMutability": "view",
      "type": "function"
    }
  ],
  "bytecode": "0x60a060405234801561001057600080fd5b506040516118ac3803806118ac83398101604081905261002f91610058565b60601b6001600160601b03191660805260008054336001600160a01b0319909116179055610086565b600060208284031215610069578081fd5b81516001600160a01b038116811461007f578182fd5b9392505050565b60805160601c6117fa6100b26000396000818161023e0152818161033f01526109ed01526117fa6000f3fe60806040523480156200001157600080fd5b5060043610620000b75760003560e01c80636dbda217116200007a5780636dbda2171462000153578063715018a614620001bf57806397fb879714620001c9578063a7c6a1001462000226578063c45a01551462000238578063f2fde38b146200026057600080fd5b8063054bf17114620000bc5780632204d63e14620000d55780632bcef00814620000ec578063481c6a7514620001035780634ae232ba146200012d575b600080fd5b620000d3620000cd36600462000c46565b62000277565b005b620000d3620000e636600462000c83565b620002cd565b620000d3620000fd36600462000d92565b62000446565b6000546001600160a01b03165b6040516001600160a01b0390911681526020015b60405180910390f35b620001446200013e36600462000e25565b62000546565b60405162000124919062000ef6565b60408051808201909152601281527175706772616465546f28616464726573732960701b602090910152620001a57f3659cfe672549963da205df855ebfb8672cda4801e0255183bd6a6f536855df781565b6040516001600160e01b0319909116815260200162000124565b620000d362000654565b60408051808201909152601f81527f696e697469616c697a6528616464726573732c696e7432342c62797465732900602090910152620001a57f3d048c271a2436dc9dbaf9f72bfa07b52d864af4693499c0eebeda112c60b8fa81565b60325460405190815260200162000124565b620001107f000000000000000000000000000000000000000000000000000000000000000081565b620000d36200027136600462000c01565b620006db565b336200028b6000546001600160a01b031690565b6001600160a01b031614620002bd5760405162461bcd60e51b8152600401620002b49062000f45565b60405180910390fd5b620002c98282620007dc565b5050565b33620002e16000546001600160a01b031690565b6001600160a01b0316146200030a5760405162461bcd60e51b8152600401620002b49062000f45565b604051630b4c774160e11b81526001600160a01b038681166004830152858116602483015262ffffff851660448301526000917f000000000000000000000000000000000000000000000000000000000000000090911690631698ee829060640160206040518083038186803b1580156200038457600080fd5b505afa15801562000399573d6000803e3d6000fd5b505050506040513d601f19601f82011682018060405250810190620003bf919062000c27565b90506001600160a01b038116620003e95760405163037064f160e01b815260040160405180910390fd5b6000620003fb87878785888862000905565b9050806001600160a01b0316826001600160a01b03167f5d9c31ffa0fecffd7cf379989a3c7af252f0335e0d2a1320b55245912c781f5360405160405180910390a350505050505050565b336200045a6000546001600160a01b031690565b6001600160a01b031614620004835760405162461bcd60e51b8152600401620002b49062000f45565b828114620004a457604051632df0433360e21b815260040160405180910390fd5b60005b838110156200053f576200052a858583818110620004d557634e487b7160e01b600052603260045260246000fd5b9050602002016020810190620004ec919062000c01565b8484848181106200050d57634e487b7160e01b600052603260045260246000fd5b905060200201602081019062000524919062000c01565b620007dc565b80620005368162000fef565b915050620004a7565b5050505050565b606062000554838362000fa2565b6200056190600162000f87565b67ffffffffffffffff8111156200058857634e487b7160e01b600052604160045260246000fd5b604051908082528060200260200182016040528015620005b2578160200160208202803683370190505b509050825b8281116200064d5760328181548110620005e157634e487b7160e01b600052603260045260246000fd5b9060005260206000200160009054906101000a90046001600160a01b03168282815181106200062057634e487b7160e01b600052603260045260246000fd5b6001600160a01b039092166020928302919091019091015280620006448162000fef565b915050620005b7565b5092915050565b33620006686000546001600160a01b031690565b6001600160a01b031614620006915760405162461bcd60e51b8152600401620002b49062000f45565b600080546040516001600160a01b03909116907f8be0079c531659141344cd1fd0a4f28419497f9722a3daafe3b4186f6b6457e0908390a3600080546001600160a01b0319169055565b33620006ef6000546001600160a01b031690565b6001600160a01b031614620007185760405162461bcd60e51b8152600401620002b49062000f45565b6001600160a01b038116620007815760405162461bcd60e51b815260206004820152602860248201527f4f776e61626c653a206e6577206d616e6167657220697320746865207a65726f604482015267206164647265737360c01b6064820152608401620002b4565b600080546040516001600160a01b03808516939216917f8be0079c531659141344cd1fd0a4f28419497f9722a3daafe3b4186f6b6457e091a3600080546001600160a01b0319166001600160a01b0392909216919091179055565b604080518082018252601281527175706772616465546f28616464726573732960701b60209182015281516001600160a01b03848116602480840191909152845180840390910181526044909201845291810180516001600160e01b0316631b2ce7f360e11b179052915160009291851691620008599162000e75565b6000604051808303816000865af19150503d806000811462000898576040519150601f19603f3d011682016040523d82523d6000602084013e6200089d565b606091505b5050905080620008c05760405163e5ba34a360e01b815260040160405180910390fd5b816001600160a01b0316836001600160a01b03167ff1bca332ecac5836810b4626fa419227255b5d1ec952fc6b7bba5916ecf6808060405160405180910390a3505050565b60008151600014156200092b57604051631438a13160e01b815260040160405180910390fd5b856001600160a01b0316876001600160a01b031614156200094b57600080fd5b600080876001600160a01b0316896001600160a01b0316106200097057878962000973565b88885b90925090506001600160a01b038216620009d05760405162461bcd60e51b815260206004820152601e60248201527f746f6b656e2063616e6e6f742062652061207a65726f206164647265737300006044820152606401620002b4565b6040516322afcccb60e01b815262ffffff881660048201526000907f00000000000000000000000000000000000000000000000000000000000000006001600160a01b0316906322afcccb9060240160206040518083038186803b15801562000a3857600080fd5b505afa15801562000a4d573d6000803e3d6000fd5b505050506040513d601f19601f8201168201806040525081019062000a73919062000e02565b604080518082018252601f81527f696e697469616c697a6528616464726573732c696e7432342c627974657329006020909101525190915086907f3d048c271a2436dc9dbaf9f72bfa07b52d864af4693499c0eebeda112c60b8fa9062000ae3908a9085908a9060240162000ec1565b60408051601f198184030181529181526020820180516001600160e01b03166001600160e01b031990941693909317909252905162000b229062000ba6565b62000b2f92919062000e93565b604051809103906000f08015801562000b4c573d6000803e3d6000fd5b50603280546001810182556000919091527f11df491316f14931039edfd4f8964c9a443b862f02d4c7611d18c2bc4e6ff6970180546001600160a01b0319166001600160a01b0383161790559a9950505050505050505050565b610772806200105383390190565b60008083601f84011262000bc6578081fd5b50813567ffffffffffffffff81111562000bde578182fd5b6020830191508360208260051b850101111562000bfa57600080fd5b9250929050565b60006020828403121562000c13578081fd5b813562000c208162001039565b9392505050565b60006020828403121562000c39578081fd5b815162000c208162001039565b6000806040838503121562000c59578081fd5b823562000c668162001039565b9150602083013562000c788162001039565b809150509250929050565b600080600080600060a0868803121562000c9b578081fd5b853562000ca88162001039565b9450602086013562000cba8162001039565b9350604086013562ffffff8116811462000cd2578182fd5b9250606086013562000ce48162001039565b9150608086013567ffffffffffffffff8082111562000d01578283fd5b818801915088601f83011262000d15578283fd5b81358181111562000d2a5762000d2a62001023565b604051601f8201601f19908116603f0116810190838211818310171562000d555762000d5562001023565b816040528281528b602084870101111562000d6e578586fd5b82602086016020830137856020848301015280955050505050509295509295909350565b6000806000806040858703121562000da8578384fd5b843567ffffffffffffffff8082111562000dc0578586fd5b62000dce8883890162000bb4565b9096509450602087013591508082111562000de7578384fd5b5062000df68782880162000bb4565b95989497509550505050565b60006020828403121562000e14578081fd5b81518060020b811462000c20578182fd5b6000806040838503121562000e38578182fd5b50508035926020909101359150565b6000815180845262000e6181602086016020860162000fbc565b601f01601f19169290920160200192915050565b6000825162000e8981846020870162000fbc565b9190910192915050565b6001600160a01b038316815260406020820181905260009062000eb99083018462000e47565b949350505050565b60018060a01b03841681528260020b602082015260606040820152600062000eed606083018462000e47565b95945050505050565b6020808252825182820181905260009190848201906040850190845b8181101562000f395783516001600160a01b03168352928401929184019160010162000f12565b50909695505050505050565b60208082526022908201527f4f776e61626c653a2063616c6c6572206973206e6f7420746865206d616e616760408201526132b960f11b606082015260800190565b6000821982111562000f9d5762000f9d6200100d565b500190565b60008282101562000fb75762000fb76200100d565b500390565b60005b8381101562000fd957818101518382015260200162000fbf565b8381111562000fe9576000848401525b50505050565b60006000198214156200100657620010066200100d565b5060010190565b634e487b7160e01b600052601160045260246000fd5b634e487b7160e01b600052604160045260246000fd5b6001600160a01b03811681146200104f57600080fd5b5056fe6080604052604051610772380380610772833981016040819052610022916102f7565b61004d60017f360894a13ba1a3210667c828492db98dca3e2076cc3735a920a3ca505d382bbd61040f565b60008051602061072b8339815191521461007757634e487b7160e01b600052600160045260246000fd5b6100838282600061008a565b5050610474565b610093836100f4565b6040516001600160a01b038416907fbc7cd75a20ee27fd9adebab32041f755214dbc6bffa90cc0225b39da2e5c2d3b90600090a26000825111806100d45750805b156100ef576100ed83836101b460201b6100291760201c565b505b505050565b610107816101e060201b6100551760201c565b61016e5760405162461bcd60e51b815260206004820152602d60248201527f455243313936373a206e657720696d706c656d656e746174696f6e206973206e60448201526c1bdd08184818dbdb9d1c9858dd609a1b60648201526084015b60405180910390fd5b8061019360008051602061072b83398151915260001b6101e660201b61005b1760201c565b80546001600160a01b0319166001600160a01b039290921691909117905550565b60606101d9838360405180606001604052806027815260200161074b602791396101e9565b9392505050565b3b151590565b90565b6060833b6102485760405162461bcd60e51b815260206004820152602660248201527f416464726573733a2064656c65676174652063616c6c20746f206e6f6e2d636f6044820152651b9d1c9858dd60d21b6064820152608401610165565b600080856001600160a01b03168560405161026391906103c0565b600060405180830381855af49150503d806000811461029e576040519150601f19603f3d011682016040523d82523d6000602084013e6102a3565b606091505b5090925090506102b48282866102be565b9695505050505050565b606083156102cd5750816101d9565b8251156102dd5782518084602001fd5b8160405162461bcd60e51b815260040161016591906103dc565b60008060408385031215610309578182fd5b82516001600160a01b038116811461031f578283fd5b60208401519092506001600160401b038082111561033b578283fd5b818501915085601f83011261034e578283fd5b8151818111156103605761036061045e565b604051601f8201601f19908116603f011681019083821181831017156103885761038861045e565b816040528281528860208487010111156103a0578586fd5b6103b1836020830160208801610432565b80955050505050509250929050565b600082516103d2818460208701610432565b9190910192915050565b60208152600082518060208401526103fb816040850160208701610432565b601f01601f19169190910160400192915050565b60008282101561042d57634e487b7160e01b81526011600452602481fd5b500390565b60005b8381101561044d578181015183820152602001610435565b838111156100ed5750506000910152565b634e487b7160e01b600052604160045260246000fd5b6102a8806104836000396000f3fe60806040523661001357610011610017565b005b6100115b61002761002261005e565b610096565b565b606061004e838360405180606001604052806027815260200161024c602791396100ba565b9392505050565b3b151590565b90565b60006100917f360894a13ba1a3210667c828492db98dca3e2076cc3735a920a3ca505d382bbc546001600160a01b031690565b905090565b3660008037600080366000845af43d6000803e8080156100b5573d6000f35b3d6000fd5b6060833b61011e5760405162461bcd60e51b815260206004820152602660248201527f416464726573733a2064656c65676174652063616c6c20746f206e6f6e2d636f6044820152651b9d1c9858dd60d21b60648201526084015b60405180910390fd5b600080856001600160a01b03168560405161013991906101cc565b600060405180830381855af49150503d8060008114610174576040519150601f19603f3d011682016040523d82523d6000602084013e610179565b606091505b5091509150610189828286610193565b9695505050505050565b606083156101a257508161004e565b8251156101b25782518084602001fd5b8160405162461bcd60e51b815260040161011591906101e8565b600082516101de81846020870161021b565b9190910192915050565b602081526000825180602084015261020781604085016020870161021b565b601f01601f19169190910160400192915050565b60005b8381101561023657818101518382015260200161021e565b83811115610245576000848401525b5050505056fe416464726573733a206c6f772d6c6576656c2064656c65676174652063616c6c206661696c6564a264697066735822122054e34d6f1553ea977a6db7f63f2d70e39f15aed6905186852b47bcba6771c8e964736f6c63430008040033360894a13ba1a3210667c828492db98dca3e2076cc3735a920a3ca505d382bbc416464726573733a206c6f772d6c6576656c2064656c65676174652063616c6c206661696c6564a2646970667358221220721ada4d1f89ee769deacb1b183ae979ad92588d0678d6dc9453c3d7655bd97864736f6c63430008040033",
  "linkReferences": {},
  "deployedLinkReferences": {}
}