{
  "_format": "hh-sol-artifact-1",
  "contractName": "RangeProtocolFactory",
  "sourceName": "contracts/RangeProtocolFactory.sol",
  "abi": [
    {
      "inputs": [
        {
          "internalType": "address",
          "name": "_uniswapV3Factory",
          "type": "address"
        }
      ],
      "stateMutability": "nonpayable",
      "type": "constructor"
    },
    {
      "inputs": [],
      "name": "MismatchedVaultsAndImplsLength",
      "type": "error"
    },
    {
      "inputs": [],
      "name": "NoVaultInitDataProvided",
      "type": "error"
    },
    {
      "inputs": [],
      "name": "VaultAlreadyExists",
      "type": "error"
    },
    {
      "inputs": [],
      "name": "VaultUpgradeFailed",
      "type": "error"
    },
    {
      "inputs": [],
      "name": "ZeroPoolAddress",
      "type": "error"
    },
    {
      "anonymous": false,
      "inputs": [
        {
          "indexed": true,
          "internalType": "address",
          "name": "previousManager",
          "type": "address"
        },
        {
          "indexed": true,
          "internalType": "address",
          "name": "newManager",
          "type": "address"
        }
      ],
      "name": "OwnershipTransferred",
      "type": "event"
    },
    {
      "anonymous": false,
      "inputs": [
        {
          "indexed": true,
          "internalType": "address",
          "name": "uniPool",
          "type": "address"
        },
        {
          "indexed": true,
          "internalType": "address",
          "name": "vault",
          "type": "address"
        }
      ],
      "name": "VaultCreated",
      "type": "event"
    },
    {
      "anonymous": false,
      "inputs": [
        {
          "indexed": true,
          "internalType": "address",
          "name": "uniPool",
          "type": "address"
        },
        {
          "indexed": true,
          "internalType": "address",
          "name": "vault",
          "type": "address"
        }
      ],
      "name": "VaultImplUpgraded",
      "type": "event"
    },
    {
      "inputs": [],
      "name": "INIT_SELECTOR",
      "outputs": [
        {
          "internalType": "bytes4",
          "name": "",
          "type": "bytes4"
        }
      ],
      "stateMutability": "view",
      "type": "function"
    },
    {
      "inputs": [],
      "name": "UPGRADE_SELECTOR",
      "outputs": [
        {
          "internalType": "bytes4",
          "name": "",
          "type": "bytes4"
        }
      ],
      "stateMutability": "view",
      "type": "function"
    },
    {
      "inputs": [
        {
          "internalType": "uint256",
          "name": "",
          "type": "uint256"
        }
      ],
      "name": "allVaults",
      "outputs": [
        {
          "internalType": "address",
          "name": "",
          "type": "address"
        }
      ],
      "stateMutability": "view",
      "type": "function"
    },
    {
      "inputs": [
        {
          "internalType": "address",
          "name": "tokenA",
          "type": "address"
        },
        {
          "internalType": "address",
          "name": "tokenB",
          "type": "address"
        },
        {
          "internalType": "uint24",
          "name": "fee",
          "type": "uint24"
        },
        {
          "internalType": "address",
          "name": "implementation",
          "type": "address"
        },
        {
          "internalType": "bytes",
          "name": "data",
          "type": "bytes"
        }
      ],
      "name": "createVault",
      "outputs": [],
      "stateMutability": "nonpayable",
      "type": "function"
    },
    {
      "inputs": [],
      "name": "factory",
      "outputs": [
        {
          "internalType": "address",
          "name": "",
          "type": "address"
        }
      ],
      "stateMutability": "view",
      "type": "function"
    },
    {
      "inputs": [],
      "name": "manager",
      "outputs": [
        {
          "internalType": "address",
          "name": "",
          "type": "address"
        }
      ],
      "stateMutability": "view",
      "type": "function"
    },
    {
      "inputs": [],
      "name": "renounceOwnership",
      "outputs": [],
      "stateMutability": "nonpayable",
      "type": "function"
    },
    {
      "inputs": [
        {
          "internalType": "address",
          "name": "newOwner",
          "type": "address"
        }
      ],
      "name": "transferOwnership",
      "outputs": [],
      "stateMutability": "nonpayable",
      "type": "function"
    },
    {
      "inputs": [
        {
          "internalType": "address",
          "name": "_vault",
          "type": "address"
        },
        {
          "internalType": "address",
          "name": "_impl",
          "type": "address"
        }
      ],
      "name": "upgradeVault",
      "outputs": [],
      "stateMutability": "nonpayable",
      "type": "function"
    },
    {
      "inputs": [
        {
          "internalType": "address[]",
          "name": "_vaults",
          "type": "address[]"
        },
        {
          "internalType": "address[]",
          "name": "_impls",
          "type": "address[]"
        }
      ],
      "name": "upgradeVaults",
      "outputs": [],
      "stateMutability": "nonpayable",
      "type": "function"
    },
    {
      "inputs": [
        {
          "internalType": "address",
          "name": "",
          "type": "address"
        },
        {
          "internalType": "address",
          "name": "",
          "type": "address"
        },
        {
          "internalType": "uint24",
          "name": "",
          "type": "uint24"
        }
      ],
      "name": "vaults",
      "outputs": [
        {
          "internalType": "address",
          "name": "",
          "type": "address"
        }
      ],
      "stateMutability": "view",
      "type": "function"
    }
  ],
  "bytecode": "0x60a060405234801561001057600080fd5b5060405161186838038061186883398101604081905261002f91610058565b60601b6001600160601b03191660805260008054336001600160a01b0319909116179055610086565b600060208284031215610069578081fd5b81516001600160a01b038116811461007f578182fd5b9392505050565b60805160601c6117b66100b26000396000818161020e015281816102fd01526108c601526117b66000f3fe60806040523480156200001157600080fd5b5060043610620000a65760003560e01c8063054bf17114620000ab5780632204d63e14620000c4578063284c8acd14620000db5780632bcef0081462000130578063481c6a7514620001475780636dbda2171462000151578063715018a614620001ac5780639094a91e14620001b657806397fb879714620001cd578063c45a01551462000208578063f2fde38b1462000230575b600080fd5b620000c2620000bc36600462000bc4565b62000247565b005b620000c2620000d536600462000c4e565b62000294565b62000118620000ec36600462000c01565b60336020908152600093845260408085208252928452828420905282529020546001600160a01b031681565b60405162000127919062000e4b565b60405180910390f35b620000c26200014136600462000d54565b62000404565b62000118620004fb565b60408051808201909152601281527175706772616465546f28616464726573732960701b602090910152620001926000805160206200176183398151915281565b6040516001600160e01b0319909116815260200162000127565b620000c26200050a565b62000118620001c736600462000de6565b62000577565b60408051808201909152601f815260008051602062001701833981519152602090910152620001926000805160206200172183398151915281565b620001187f000000000000000000000000000000000000000000000000000000000000000081565b620000c26200024136600462000b7f565b620005a2565b3362000252620004fb565b6001600160a01b031614620002845760405162461bcd60e51b81526004016200027b9062000ec2565b60405180910390fd5b62000290828262000689565b5050565b336200029f620004fb565b6001600160a01b031614620002c85760405162461bcd60e51b81526004016200027b9062000ec2565b604051630b4c774160e11b81526001600160a01b038681166004830152858116602483015262ffffff851660448301526000917f000000000000000000000000000000000000000000000000000000000000000090911690631698ee829060640160206040518083038186803b1580156200034257600080fd5b505afa15801562000357573d6000803e3d6000fd5b505050506040513d601f19601f820116820180604052508101906200037d919062000ba5565b90506001600160a01b038116620003a75760405163037064f160e01b815260040160405180910390fd5b6000620003b9878787858888620007ce565b9050806001600160a01b0316826001600160a01b03167f5d9c31ffa0fecffd7cf379989a3c7af252f0335e0d2a1320b55245912c781f5360405160405180910390a350505050505050565b336200040f620004fb565b6001600160a01b031614620004385760405162461bcd60e51b81526004016200027b9062000ec2565b8281146200045957604051632df0433360e21b815260040160405180910390fd5b60005b83811015620004f457620004df8585838181106200048a57634e487b7160e01b600052603260045260246000fd5b9050602002016020810190620004a1919062000b7f565b848484818110620004c257634e487b7160e01b600052603260045260246000fd5b9050602002016020810190620004d9919062000b7f565b62000689565b80620004eb8162000f37565b9150506200045c565b5050505050565b6000546001600160a01b031690565b3362000515620004fb565b6001600160a01b0316146200053e5760405162461bcd60e51b81526004016200027b9062000ec2565b600080546040516001600160a01b039091169060008051602062001741833981519152908390a3600080546001600160a01b0319169055565b603281815481106200058857600080fd5b6000918252602090912001546001600160a01b0316905081565b33620005ad620004fb565b6001600160a01b031614620005d65760405162461bcd60e51b81526004016200027b9062000ec2565b6001600160a01b0381166200063f5760405162461bcd60e51b815260206004820152602860248201527f4f776e61626c653a206e6577206d616e6167657220697320746865207a65726f604482015267206164647265737360c01b60648201526084016200027b565b600080546040516001600160a01b03808516939216916000805160206200174183398151915291a3600080546001600160a01b0319166001600160a01b0392909216919091179055565b604080518082018252601281527175706772616465546f28616464726573732960701b602090910152516000906001600160a01b038416906000805160206200176183398151915290620006e290859060240162000e4b565b60408051601f198184030181529181526020820180516001600160e01b03166001600160e01b031990941693909317909252905162000722919062000e2d565b6000604051808303816000865af19150503d806000811462000761576040519150601f19603f3d011682016040523d82523d6000602084013e62000766565b606091505b5050905080620007895760405163e5ba34a360e01b815260040160405180910390fd5b816001600160a01b0316836001600160a01b03167ff1bca332ecac5836810b4626fa419227255b5d1ec952fc6b7bba5916ecf6808060405160405180910390a3505050565b6000815160001415620007f457604051631438a13160e01b815260040160405180910390fd5b856001600160a01b0316876001600160a01b031614156200081457600080fd5b600080876001600160a01b0316896001600160a01b031610620008395787896200083c565b88885b90925090506001600160a01b0382166200085557600080fd5b6001600160a01b0382811660009081526033602090815260408083208585168452825280832062ffffff8c1684529091529020541615620008a9576040516304aabf3360e01b815260040160405180910390fd5b6040516322afcccb60e01b815262ffffff881660048201526000907f00000000000000000000000000000000000000000000000000000000000000006001600160a01b0316906322afcccb9060240160206040518083038186803b1580156200091157600080fd5b505afa15801562000926573d6000803e3d6000fd5b505050506040513d601f19601f820116820180604052508101906200094c919062000dc3565b6040516001600160601b0319606086811b8216602084015285901b1660348201526001600160e81b031960e88b901b166048820152909150604b0160408051808303601f1901815282825280516020918201208383018352601f84526000805160206200170183398151915291909301525187906000805160206200172183398151915290620009e5908b9086908b9060240162000e8d565b60408051601f198184030181529181526020820180516001600160e01b03166001600160e01b031990941693909317909252905162000a249062000b0c565b62000a3192919062000e5f565b8190604051809103906000f590508015801562000a52573d6000803e3d6000fd5b506001600160a01b03938416600081815260336020818152604080842097891680855297825280842062ffffff909e168085529d825280842080549987166001600160a01b03199a8b1681179091559784529181528183209383529283528082209b82529a90915298892080548516841790556032805460018101825599527f11df491316f14931039edfd4f8964c9a443b862f02d4c7611d18c2bc4e6ff697909801805490931690911790915550939695505050505050565b6107728062000f8f83390190565b60008083601f84011262000b2c578081fd5b5081356001600160401b0381111562000b43578182fd5b6020830191508360208260051b850101111562000b5f57600080fd5b9250929050565b803562ffffff8116811462000b7a57600080fd5b919050565b60006020828403121562000b91578081fd5b813562000b9e8162000f75565b9392505050565b60006020828403121562000bb7578081fd5b815162000b9e8162000f75565b6000806040838503121562000bd7578081fd5b823562000be48162000f75565b9150602083013562000bf68162000f75565b809150509250929050565b60008060006060848603121562000c16578081fd5b833562000c238162000f75565b9250602084013562000c358162000f75565b915062000c456040850162000b66565b90509250925092565b600080600080600060a0868803121562000c66578081fd5b853562000c738162000f75565b9450602086013562000c858162000f75565b935062000c956040870162000b66565b9250606086013562000ca78162000f75565b915060808601356001600160401b038082111562000cc3578283fd5b818801915088601f83011262000cd7578283fd5b81358181111562000cec5762000cec62000f5f565b604051601f8201601f19908116603f0116810190838211818310171562000d175762000d1762000f5f565b816040528281528b602084870101111562000d30578586fd5b82602086016020830137856020848301015280955050505050509295509295909350565b6000806000806040858703121562000d6a578384fd5b84356001600160401b038082111562000d81578586fd5b62000d8f8883890162000b1a565b9096509450602087013591508082111562000da8578384fd5b5062000db78782880162000b1a565b95989497509550505050565b60006020828403121562000dd5578081fd5b81518060020b811462000b9e578182fd5b60006020828403121562000df8578081fd5b5035919050565b6000815180845262000e1981602086016020860162000f04565b601f01601f19169290920160200192915050565b6000825162000e4181846020870162000f04565b9190910192915050565b6001600160a01b0391909116815260200190565b6001600160a01b038316815260406020820181905260009062000e859083018462000dff565b949350505050565b60018060a01b03841681528260020b602082015260606040820152600062000eb9606083018462000dff565b95945050505050565b60208082526022908201527f4f776e61626c653a2063616c6c6572206973206e6f7420746865206d616e616760408201526132b960f11b606082015260800190565b60005b8381101562000f2157818101518382015260200162000f07565b8381111562000f31576000848401525b50505050565b600060001982141562000f5857634e487b7160e01b81526011600452602481fd5b5060010190565b634e487b7160e01b600052604160045260246000fd5b6001600160a01b038116811462000f8b57600080fd5b5056fe6080604052604051610772380380610772833981016040819052610022916102f7565b61004d60017f360894a13ba1a3210667c828492db98dca3e2076cc3735a920a3ca505d382bbd61040f565b60008051602061072b8339815191521461007757634e487b7160e01b600052600160045260246000fd5b6100838282600061008a565b5050610474565b610093836100f4565b6040516001600160a01b038416907fbc7cd75a20ee27fd9adebab32041f755214dbc6bffa90cc0225b39da2e5c2d3b90600090a26000825111806100d45750805b156100ef576100ed83836101b460201b6100291760201c565b505b505050565b610107816101e060201b6100551760201c565b61016e5760405162461bcd60e51b815260206004820152602d60248201527f455243313936373a206e657720696d706c656d656e746174696f6e206973206e60448201526c1bdd08184818dbdb9d1c9858dd609a1b60648201526084015b60405180910390fd5b8061019360008051602061072b83398151915260001b6101e660201b61005b1760201c565b80546001600160a01b0319166001600160a01b039290921691909117905550565b60606101d9838360405180606001604052806027815260200161074b602791396101e9565b9392505050565b3b151590565b90565b6060833b6102485760405162461bcd60e51b815260206004820152602660248201527f416464726573733a2064656c65676174652063616c6c20746f206e6f6e2d636f6044820152651b9d1c9858dd60d21b6064820152608401610165565b600080856001600160a01b03168560405161026391906103c0565b600060405180830381855af49150503d806000811461029e576040519150601f19603f3d011682016040523d82523d6000602084013e6102a3565b606091505b5090925090506102b48282866102be565b9695505050505050565b606083156102cd5750816101d9565b8251156102dd5782518084602001fd5b8160405162461bcd60e51b815260040161016591906103dc565b60008060408385031215610309578182fd5b82516001600160a01b038116811461031f578283fd5b60208401519092506001600160401b038082111561033b578283fd5b818501915085601f83011261034e578283fd5b8151818111156103605761036061045e565b604051601f8201601f19908116603f011681019083821181831017156103885761038861045e565b816040528281528860208487010111156103a0578586fd5b6103b1836020830160208801610432565b80955050505050509250929050565b600082516103d2818460208701610432565b9190910192915050565b60208152600082518060208401526103fb816040850160208701610432565b601f01601f19169190910160400192915050565b60008282101561042d57634e487b7160e01b81526011600452602481fd5b500390565b60005b8381101561044d578181015183820152602001610435565b838111156100ed5750506000910152565b634e487b7160e01b600052604160045260246000fd5b6102a8806104836000396000f3fe60806040523661001357610011610017565b005b6100115b61002761002261005e565b610096565b565b606061004e838360405180606001604052806027815260200161024c602791396100ba565b9392505050565b3b151590565b90565b60006100917f360894a13ba1a3210667c828492db98dca3e2076cc3735a920a3ca505d382bbc546001600160a01b031690565b905090565b3660008037600080366000845af43d6000803e8080156100b5573d6000f35b3d6000fd5b6060833b61011e5760405162461bcd60e51b815260206004820152602660248201527f416464726573733a2064656c65676174652063616c6c20746f206e6f6e2d636f6044820152651b9d1c9858dd60d21b60648201526084015b60405180910390fd5b600080856001600160a01b03168560405161013991906101cc565b600060405180830381855af49150503d8060008114610174576040519150601f19603f3d011682016040523d82523d6000602084013e610179565b606091505b5091509150610189828286610193565b9695505050505050565b606083156101a257508161004e565b8251156101b25782518084602001fd5b8160405162461bcd60e51b815260040161011591906101e8565b600082516101de81846020870161021b565b9190910192915050565b602081526000825180602084015261020781604085016020870161021b565b601f01601f19169190910160400192915050565b60005b8381101561023657818101518382015260200161021e565b83811115610245576000848401525b5050505056fe416464726573733a206c6f772d6c6576656c2064656c65676174652063616c6c206661696c6564a26469706673582212202866e900f99686e1a16db4f78e2dc384324bc9c12c4635833cccc4112b5643ee64736f6c63430008040033360894a13ba1a3210667c828492db98dca3e2076cc3735a920a3ca505d382bbc416464726573733a206c6f772d6c6576656c2064656c65676174652063616c6c206661696c6564696e697469616c697a6528616464726573732c696e7432342c627974657329003d048c271a2436dc9dbaf9f72bfa07b52d864af4693499c0eebeda112c60b8fa8be0079c531659141344cd1fd0a4f28419497f9722a3daafe3b4186f6b6457e03659cfe672549963da205df855ebfb8672cda4801e0255183bd6a6f536855df7a264697066735822122099d36722a9bf1fa29d3c77d89c0fd3249a3708f243fa7f2b01fe2d9bea66563a64736f6c63430008040033",
  "linkReferences": {},
  "deployedLinkReferences": {}
}