{
  "_format": "hh-sol-artifact-1",
  "contractName": "RangeProtocolVault",
  "sourceName": "contracts/RangeProtocolVault.sol",
  "abi": [
    {
      "inputs": [],
      "stateMutability": "nonpayable",
      "type": "constructor"
    },
    {
      "inputs": [],
      "name": "InvalidBurnAmount",
      "type": "error"
    },
    {
      "inputs": [],
      "name": "InvalidManagingFee",
      "type": "error"
    },
    {
      "inputs": [],
      "name": "InvalidMintAmount",
      "type": "error"
    },
    {
      "inputs": [],
      "name": "InvalidPerformanceFee",
      "type": "error"
    },
    {
      "inputs": [],
      "name": "InvalidTicksSpacing",
      "type": "error"
    },
    {
      "inputs": [],
      "name": "MintNotAllowed",
      "type": "error"
    },
    {
      "inputs": [],
      "name": "MintNotStarted",
      "type": "error"
    },
    {
      "inputs": [],
      "name": "NotAllowedToUpdateTicks",
      "type": "error"
    },
    {
      "inputs": [],
      "name": "OnlyFactoryAllowed",
      "type": "error"
    },
    {
      "inputs": [],
      "name": "OnlyPoolAllowed",
      "type": "error"
    },
    {
      "inputs": [],
      "name": "TicksOutOfRange",
      "type": "error"
    },
    {
      "inputs": [],
      "name": "ZeroMintAmount",
      "type": "error"
    },
    {
      "inputs": [],
      "name": "ZeroUnderlyingBalance",
      "type": "error"
    },
    {
      "anonymous": false,
      "inputs": [
        {
          "indexed": false,
          "internalType": "address",
          "name": "previousAdmin",
          "type": "address"
        },
        {
          "indexed": false,
          "internalType": "address",
          "name": "newAdmin",
          "type": "address"
        }
      ],
      "name": "AdminChanged",
      "type": "event"
    },
    {
      "anonymous": false,
      "inputs": [
        {
          "indexed": true,
          "internalType": "address",
          "name": "owner",
          "type": "address"
        },
        {
          "indexed": true,
          "internalType": "address",
          "name": "spender",
          "type": "address"
        },
        {
          "indexed": false,
          "internalType": "uint256",
          "name": "value",
          "type": "uint256"
        }
      ],
      "name": "Approval",
      "type": "event"
    },
    {
      "anonymous": false,
      "inputs": [
        {
          "indexed": true,
          "internalType": "address",
          "name": "beacon",
          "type": "address"
        }
      ],
      "name": "BeaconUpgraded",
      "type": "event"
    },
    {
      "anonymous": false,
      "inputs": [
        {
          "indexed": true,
          "internalType": "address",
          "name": "receiver",
          "type": "address"
        },
        {
          "indexed": false,
          "internalType": "uint256",
          "name": "burnAmount",
          "type": "uint256"
        },
        {
          "indexed": false,
          "internalType": "uint256",
          "name": "amount0Out",
          "type": "uint256"
        },
        {
          "indexed": false,
          "internalType": "uint256",
          "name": "amount1Out",
          "type": "uint256"
        }
      ],
      "name": "Burned",
      "type": "event"
    },
    {
      "anonymous": false,
      "inputs": [
        {
          "indexed": false,
          "internalType": "uint256",
          "name": "feesEarned0",
          "type": "uint256"
        },
        {
          "indexed": false,
          "internalType": "uint256",
          "name": "feesEarned1",
          "type": "uint256"
        }
      ],
      "name": "FeesEarned",
      "type": "event"
    },
    {
      "anonymous": false,
      "inputs": [
        {
          "indexed": false,
          "internalType": "uint16",
          "name": "managingFee",
          "type": "uint16"
        },
        {
          "indexed": false,
          "internalType": "uint16",
          "name": "performanceFee",
          "type": "uint16"
        }
      ],
      "name": "FeesUpdated",
      "type": "event"
    },
    {
      "anonymous": false,
      "inputs": [
        {
          "indexed": false,
          "internalType": "bool",
          "name": "inThePosition",
          "type": "bool"
        }
      ],
      "name": "InThePositionStatusSet",
      "type": "event"
    },
    {
      "anonymous": false,
      "inputs": [
        {
          "indexed": false,
          "internalType": "uint8",
          "name": "version",
          "type": "uint8"
        }
      ],
      "name": "Initialized",
      "type": "event"
    },
    {
      "anonymous": false,
      "inputs": [
        {
          "indexed": false,
          "internalType": "uint256",
          "name": "liquidityMinted",
          "type": "uint256"
        },
        {
          "indexed": false,
          "internalType": "int24",
          "name": "tickLower",
          "type": "int24"
        },
        {
          "indexed": false,
          "internalType": "int24",
          "name": "tickUpper",
          "type": "int24"
        },
        {
          "indexed": false,
          "internalType": "uint256",
          "name": "amount0In",
          "type": "uint256"
        },
        {
          "indexed": false,
          "internalType": "uint256",
          "name": "amount1In",
          "type": "uint256"
        }
      ],
      "name": "LiquidityAdded",
      "type": "event"
    },
    {
      "anonymous": false,
      "inputs": [
        {
          "indexed": false,
          "internalType": "uint256",
          "name": "liquidityRemoved",
          "type": "uint256"
        },
        {
          "indexed": false,
          "internalType": "int24",
          "name": "tickLower",
          "type": "int24"
        },
        {
          "indexed": false,
          "internalType": "int24",
          "name": "tickUpper",
          "type": "int24"
        },
        {
          "indexed": false,
          "internalType": "uint256",
          "name": "amount0Out",
          "type": "uint256"
        },
        {
          "indexed": false,
          "internalType": "uint256",
          "name": "amount1Out",
          "type": "uint256"
        }
      ],
      "name": "LiquidityRemoved",
      "type": "event"
    },
    {
      "anonymous": false,
      "inputs": [],
      "name": "MintStarted",
      "type": "event"
    },
    {
      "anonymous": false,
      "inputs": [
        {
          "indexed": true,
          "internalType": "address",
          "name": "receiver",
          "type": "address"
        },
        {
          "indexed": false,
          "internalType": "uint256",
          "name": "mintAmount",
          "type": "uint256"
        },
        {
          "indexed": false,
          "internalType": "uint256",
          "name": "amount0In",
          "type": "uint256"
        },
        {
          "indexed": false,
          "internalType": "uint256",
          "name": "amount1In",
          "type": "uint256"
        }
      ],
      "name": "Minted",
      "type": "event"
    },
    {
      "anonymous": false,
      "inputs": [
        {
          "indexed": true,
          "internalType": "address",
          "name": "previousManager",
          "type": "address"
        },
        {
          "indexed": true,
          "internalType": "address",
          "name": "newManager",
          "type": "address"
        }
      ],
      "name": "OwnershipTransferred",
      "type": "event"
    },
    {
      "anonymous": false,
      "inputs": [
        {
          "indexed": false,
          "internalType": "address",
          "name": "account",
          "type": "address"
        }
      ],
      "name": "Paused",
      "type": "event"
    },
    {
      "anonymous": false,
      "inputs": [
        {
          "indexed": false,
          "internalType": "bool",
          "name": "zeroForOne",
          "type": "bool"
        },
        {
          "indexed": false,
          "internalType": "int256",
          "name": "amount0",
          "type": "int256"
        },
        {
          "indexed": false,
          "internalType": "int256",
          "name": "amount1",
          "type": "int256"
        }
      ],
      "name": "Swapped",
      "type": "event"
    },
    {
      "anonymous": false,
      "inputs": [
        {
          "indexed": false,
          "internalType": "int24",
          "name": "lowerTick",
          "type": "int24"
        },
        {
          "indexed": false,
          "internalType": "int24",
          "name": "upperTick",
          "type": "int24"
        }
      ],
      "name": "TicksSet",
      "type": "event"
    },
    {
      "anonymous": false,
      "inputs": [
        {
          "indexed": true,
          "internalType": "address",
          "name": "from",
          "type": "address"
        },
        {
          "indexed": true,
          "internalType": "address",
          "name": "to",
          "type": "address"
        },
        {
          "indexed": false,
          "internalType": "uint256",
          "name": "value",
          "type": "uint256"
        }
      ],
      "name": "Transfer",
      "type": "event"
    },
    {
      "anonymous": false,
      "inputs": [
        {
          "indexed": false,
          "internalType": "address",
          "name": "account",
          "type": "address"
        }
      ],
      "name": "Unpaused",
      "type": "event"
    },
    {
      "anonymous": false,
      "inputs": [
        {
          "indexed": true,
          "internalType": "address",
          "name": "implementation",
          "type": "address"
        }
      ],
      "name": "Upgraded",
      "type": "event"
    },
    {
      "inputs": [],
      "name": "MAX_MANAGING_FEE_BPS",
      "outputs": [
        {
          "internalType": "uint16",
          "name": "",
          "type": "uint16"
        }
      ],
      "stateMutability": "view",
      "type": "function"
    },
    {
      "inputs": [],
      "name": "MAX_PERFORMANCE_FEE_BPS",
      "outputs": [
        {
          "internalType": "uint16",
          "name": "",
          "type": "uint16"
        }
      ],
      "stateMutability": "view",
      "type": "function"
    },
    {
      "inputs": [
        {
          "internalType": "int24",
          "name": "newLowerTick",
          "type": "int24"
        },
        {
          "internalType": "int24",
          "name": "newUpperTick",
          "type": "int24"
        },
        {
          "internalType": "uint256",
          "name": "amount0",
          "type": "uint256"
        },
        {
          "internalType": "uint256",
          "name": "amount1",
          "type": "uint256"
        }
      ],
      "name": "addLiquidity",
      "outputs": [
        {
          "internalType": "uint256",
          "name": "remainingAmount0",
          "type": "uint256"
        },
        {
          "internalType": "uint256",
          "name": "remainingAmount1",
          "type": "uint256"
        }
      ],
      "stateMutability": "nonpayable",
      "type": "function"
    },
    {
      "inputs": [
        {
          "internalType": "address",
          "name": "owner",
          "type": "address"
        },
        {
          "internalType": "address",
          "name": "spender",
          "type": "address"
        }
      ],
      "name": "allowance",
      "outputs": [
        {
          "internalType": "uint256",
          "name": "",
          "type": "uint256"
        }
      ],
      "stateMutability": "view",
      "type": "function"
    },
    {
      "inputs": [
        {
          "internalType": "address",
          "name": "spender",
          "type": "address"
        },
        {
          "internalType": "uint256",
          "name": "amount",
          "type": "uint256"
        }
      ],
      "name": "approve",
      "outputs": [
        {
          "internalType": "bool",
          "name": "",
          "type": "bool"
        }
      ],
      "stateMutability": "nonpayable",
      "type": "function"
    },
    {
      "inputs": [
        {
          "internalType": "address",
          "name": "account",
          "type": "address"
        }
      ],
      "name": "balanceOf",
      "outputs": [
        {
          "internalType": "uint256",
          "name": "",
          "type": "uint256"
        }
      ],
      "stateMutability": "view",
      "type": "function"
    },
    {
      "inputs": [
        {
          "internalType": "uint256",
          "name": "burnAmount",
          "type": "uint256"
        }
      ],
      "name": "burn",
      "outputs": [
        {
          "internalType": "uint256",
          "name": "amount0",
          "type": "uint256"
        },
        {
          "internalType": "uint256",
          "name": "amount1",
          "type": "uint256"
        }
      ],
      "stateMutability": "nonpayable",
      "type": "function"
    },
    {
      "inputs": [],
      "name": "collectManager",
      "outputs": [],
      "stateMutability": "nonpayable",
      "type": "function"
    },
    {
      "inputs": [],
      "name": "decimals",
      "outputs": [
        {
          "internalType": "uint8",
          "name": "",
          "type": "uint8"
        }
      ],
      "stateMutability": "view",
      "type": "function"
    },
    {
      "inputs": [
        {
          "internalType": "address",
          "name": "spender",
          "type": "address"
        },
        {
          "internalType": "uint256",
          "name": "subtractedValue",
          "type": "uint256"
        }
      ],
      "name": "decreaseAllowance",
      "outputs": [
        {
          "internalType": "bool",
          "name": "",
          "type": "bool"
        }
      ],
      "stateMutability": "nonpayable",
      "type": "function"
    },
    {
      "inputs": [],
      "name": "factory",
      "outputs": [
        {
          "internalType": "address",
          "name": "",
          "type": "address"
        }
      ],
      "stateMutability": "view",
      "type": "function"
    },
    {
      "inputs": [],
      "name": "getCurrentFees",
      "outputs": [
        {
          "internalType": "uint256",
          "name": "fee0",
          "type": "uint256"
        },
        {
          "internalType": "uint256",
          "name": "fee1",
          "type": "uint256"
        }
      ],
      "stateMutability": "view",
      "type": "function"
    },
    {
      "inputs": [
        {
          "internalType": "uint256",
          "name": "amount0Max",
          "type": "uint256"
        },
        {
          "internalType": "uint256",
          "name": "amount1Max",
          "type": "uint256"
        }
      ],
      "name": "getMintAmounts",
      "outputs": [
        {
          "internalType": "uint256",
          "name": "amount0",
          "type": "uint256"
        },
        {
          "internalType": "uint256",
          "name": "amount1",
          "type": "uint256"
        },
        {
          "internalType": "uint256",
          "name": "mintAmount",
          "type": "uint256"
        }
      ],
      "stateMutability": "view",
      "type": "function"
    },
    {
      "inputs": [],
      "name": "getPositionID",
      "outputs": [
        {
          "internalType": "bytes32",
          "name": "positionID",
          "type": "bytes32"
        }
      ],
      "stateMutability": "view",
      "type": "function"
    },
    {
      "inputs": [],
      "name": "getUnderlyingBalances",
      "outputs": [
        {
          "internalType": "uint256",
          "name": "amount0Current",
          "type": "uint256"
        },
        {
          "internalType": "uint256",
          "name": "amount1Current",
          "type": "uint256"
        }
      ],
      "stateMutability": "view",
      "type": "function"
    },
    {
      "inputs": [
        {
          "internalType": "uint160",
          "name": "sqrtRatioX96",
          "type": "uint160"
        }
      ],
      "name": "getUnderlyingBalancesAtPrice",
      "outputs": [
        {
          "internalType": "uint256",
          "name": "amount0Current",
          "type": "uint256"
        },
        {
          "internalType": "uint256",
          "name": "amount1Current",
          "type": "uint256"
        }
      ],
      "stateMutability": "view",
      "type": "function"
    },
    {
      "inputs": [
        {
          "internalType": "uint256",
          "name": "fromIdx",
          "type": "uint256"
        },
        {
          "internalType": "uint256",
          "name": "toIdx",
          "type": "uint256"
        }
      ],
      "name": "getUserVaults",
      "outputs": [
        {
          "components": [
            {
              "internalType": "address",
              "name": "user",
              "type": "address"
            },
            {
              "internalType": "uint256",
              "name": "token0",
              "type": "uint256"
            },
            {
              "internalType": "uint256",
              "name": "token1",
              "type": "uint256"
            }
          ],
          "internalType": "struct IRangeProtocolVault.UserVaultInfo[]",
          "name": "",
          "type": "tuple[]"
        }
      ],
      "stateMutability": "view",
      "type": "function"
    },
    {
      "inputs": [],
      "name": "inThePosition",
      "outputs": [
        {
          "internalType": "bool",
          "name": "",
          "type": "bool"
        }
      ],
      "stateMutability": "view",
      "type": "function"
    },
    {
      "inputs": [
        {
          "internalType": "address",
          "name": "spender",
          "type": "address"
        },
        {
          "internalType": "uint256",
          "name": "addedValue",
          "type": "uint256"
        }
      ],
      "name": "increaseAllowance",
      "outputs": [
        {
          "internalType": "bool",
          "name": "",
          "type": "bool"
        }
      ],
      "stateMutability": "nonpayable",
      "type": "function"
    },
    {
      "inputs": [
        {
          "internalType": "address",
          "name": "_pool",
          "type": "address"
        },
        {
          "internalType": "int24",
          "name": "_tickSpacing",
          "type": "int24"
        },
        {
          "internalType": "bytes",
          "name": "data",
          "type": "bytes"
        }
      ],
      "name": "initialize",
      "outputs": [],
      "stateMutability": "nonpayable",
      "type": "function"
    },
    {
      "inputs": [],
      "name": "lowerTick",
      "outputs": [
        {
          "internalType": "int24",
          "name": "",
          "type": "int24"
        }
      ],
      "stateMutability": "view",
      "type": "function"
    },
    {
      "inputs": [],
      "name": "manager",
      "outputs": [
        {
          "internalType": "address",
          "name": "",
          "type": "address"
        }
      ],
      "stateMutability": "view",
      "type": "function"
    },
    {
      "inputs": [],
      "name": "managerBalance0",
      "outputs": [
        {
          "internalType": "uint256",
          "name": "",
          "type": "uint256"
        }
      ],
      "stateMutability": "view",
      "type": "function"
    },
    {
      "inputs": [],
      "name": "managerBalance1",
      "outputs": [
        {
          "internalType": "uint256",
          "name": "",
          "type": "uint256"
        }
      ],
      "stateMutability": "view",
      "type": "function"
    },
    {
      "inputs": [],
      "name": "managingFee",
      "outputs": [
        {
          "internalType": "uint16",
          "name": "",
          "type": "uint16"
        }
      ],
      "stateMutability": "view",
      "type": "function"
    },
    {
      "inputs": [
        {
          "internalType": "uint256",
          "name": "mintAmount",
          "type": "uint256"
        }
      ],
      "name": "mint",
      "outputs": [
        {
          "internalType": "uint256",
          "name": "amount0",
          "type": "uint256"
        },
        {
          "internalType": "uint256",
          "name": "amount1",
          "type": "uint256"
        }
      ],
      "stateMutability": "nonpayable",
      "type": "function"
    },
    {
      "inputs": [],
      "name": "mintStarted",
      "outputs": [
        {
          "internalType": "bool",
          "name": "",
          "type": "bool"
        }
      ],
      "stateMutability": "view",
      "type": "function"
    },
    {
      "inputs": [],
      "name": "name",
      "outputs": [
        {
          "internalType": "string",
          "name": "",
          "type": "string"
        }
      ],
      "stateMutability": "view",
      "type": "function"
    },
    {
      "inputs": [],
      "name": "pause",
      "outputs": [],
      "stateMutability": "nonpayable",
      "type": "function"
    },
    {
      "inputs": [],
      "name": "paused",
      "outputs": [
        {
          "internalType": "bool",
          "name": "",
          "type": "bool"
        }
      ],
      "stateMutability": "view",
      "type": "function"
    },
    {
      "inputs": [],
      "name": "performanceFee",
      "outputs": [
        {
          "internalType": "uint16",
          "name": "",
          "type": "uint16"
        }
      ],
      "stateMutability": "view",
      "type": "function"
    },
    {
      "inputs": [],
      "name": "pool",
      "outputs": [
        {
          "internalType": "contract IUniswapV3Pool",
          "name": "",
          "type": "address"
        }
      ],
      "stateMutability": "view",
      "type": "function"
    },
    {
      "inputs": [],
      "name": "proxiableUUID",
      "outputs": [
        {
          "internalType": "bytes32",
          "name": "",
          "type": "bytes32"
        }
      ],
      "stateMutability": "view",
      "type": "function"
    },
    {
      "inputs": [],
      "name": "pullFeeFromPool",
      "outputs": [],
      "stateMutability": "nonpayable",
      "type": "function"
    },
    {
      "inputs": [],
      "name": "removeLiquidity",
      "outputs": [],
      "stateMutability": "nonpayable",
      "type": "function"
    },
    {
      "inputs": [],
      "name": "renounceOwnership",
      "outputs": [],
      "stateMutability": "nonpayable",
      "type": "function"
    },
    {
      "inputs": [
        {
          "internalType": "bool",
          "name": "zeroForOne",
          "type": "bool"
        },
        {
          "internalType": "int256",
          "name": "swapAmount",
          "type": "int256"
        },
        {
          "internalType": "uint160",
          "name": "sqrtPriceLimitX96",
          "type": "uint160"
        }
      ],
      "name": "swap",
      "outputs": [
        {
          "internalType": "int256",
          "name": "amount0",
          "type": "int256"
        },
        {
          "internalType": "int256",
          "name": "amount1",
          "type": "int256"
        }
      ],
      "stateMutability": "nonpayable",
      "type": "function"
    },
    {
      "inputs": [],
      "name": "symbol",
      "outputs": [
        {
          "internalType": "string",
          "name": "",
          "type": "string"
        }
      ],
      "stateMutability": "view",
      "type": "function"
    },
    {
      "inputs": [],
      "name": "tickSpacing",
      "outputs": [
        {
          "internalType": "int24",
          "name": "",
          "type": "int24"
        }
      ],
      "stateMutability": "view",
      "type": "function"
    },
    {
      "inputs": [],
      "name": "token0",
      "outputs": [
        {
          "internalType": "contract IERC20Upgradeable",
          "name": "",
          "type": "address"
        }
      ],
      "stateMutability": "view",
      "type": "function"
    },
    {
      "inputs": [],
      "name": "token1",
      "outputs": [
        {
          "internalType": "contract IERC20Upgradeable",
          "name": "",
          "type": "address"
        }
      ],
      "stateMutability": "view",
      "type": "function"
    },
    {
      "inputs": [],
      "name": "totalSupply",
      "outputs": [
        {
          "internalType": "uint256",
          "name": "",
          "type": "uint256"
        }
      ],
      "stateMutability": "view",
      "type": "function"
    },
    {
      "inputs": [
        {
          "internalType": "address",
          "name": "to",
          "type": "address"
        },
        {
          "internalType": "uint256",
          "name": "amount",
          "type": "uint256"
        }
      ],
      "name": "transfer",
      "outputs": [
        {
          "internalType": "bool",
          "name": "",
          "type": "bool"
        }
      ],
      "stateMutability": "nonpayable",
      "type": "function"
    },
    {
      "inputs": [
        {
          "internalType": "address",
          "name": "from",
          "type": "address"
        },
        {
          "internalType": "address",
          "name": "to",
          "type": "address"
        },
        {
          "internalType": "uint256",
          "name": "amount",
          "type": "uint256"
        }
      ],
      "name": "transferFrom",
      "outputs": [
        {
          "internalType": "bool",
          "name": "",
          "type": "bool"
        }
      ],
      "stateMutability": "nonpayable",
      "type": "function"
    },
    {
      "inputs": [
        {
          "internalType": "address",
          "name": "newManager",
          "type": "address"
        }
      ],
      "name": "transferOwnership",
      "outputs": [],
      "stateMutability": "nonpayable",
      "type": "function"
    },
    {
      "inputs": [
        {
          "internalType": "uint256",
          "name": "amount0Owed",
          "type": "uint256"
        },
        {
          "internalType": "uint256",
          "name": "amount1Owed",
          "type": "uint256"
        },
        {
          "internalType": "bytes",
          "name": "",
          "type": "bytes"
        }
      ],
      "name": "uniswapV3MintCallback",
      "outputs": [],
      "stateMutability": "nonpayable",
      "type": "function"
    },
    {
      "inputs": [
        {
          "internalType": "int256",
          "name": "amount0Delta",
          "type": "int256"
        },
        {
          "internalType": "int256",
          "name": "amount1Delta",
          "type": "int256"
        },
        {
          "internalType": "bytes",
          "name": "",
          "type": "bytes"
        }
      ],
      "name": "uniswapV3SwapCallback",
      "outputs": [],
      "stateMutability": "nonpayable",
      "type": "function"
    },
    {
      "inputs": [],
      "name": "unpause",
      "outputs": [],
      "stateMutability": "nonpayable",
      "type": "function"
    },
    {
      "inputs": [
        {
          "internalType": "uint16",
          "name": "newManagingFee",
          "type": "uint16"
        },
        {
          "internalType": "uint16",
          "name": "newPerformanceFee",
          "type": "uint16"
        }
      ],
      "name": "updateFees",
      "outputs": [],
      "stateMutability": "nonpayable",
      "type": "function"
    },
    {
      "inputs": [
        {
          "internalType": "int24",
          "name": "_lowerTick",
          "type": "int24"
        },
        {
          "internalType": "int24",
          "name": "_upperTick",
          "type": "int24"
        }
      ],
      "name": "updateTicks",
      "outputs": [],
      "stateMutability": "nonpayable",
      "type": "function"
    },
    {
      "inputs": [
        {
          "internalType": "address",
          "name": "newImplementation",
          "type": "address"
        }
      ],
      "name": "upgradeTo",
      "outputs": [],
      "stateMutability": "nonpayable",
      "type": "function"
    },
    {
      "inputs": [
        {
          "internalType": "address",
          "name": "newImplementation",
          "type": "address"
        },
        {
          "internalType": "bytes",
          "name": "data",
          "type": "bytes"
        }
      ],
      "name": "upgradeToAndCall",
      "outputs": [],
      "stateMutability": "payable",
      "type": "function"
    },
    {
      "inputs": [],
      "name": "upperTick",
      "outputs": [
        {
          "internalType": "int24",
          "name": "",
          "type": "int24"
        }
      ],
      "stateMutability": "view",
      "type": "function"
    },
    {
      "inputs": [],
      "name": "userCount",
      "outputs": [
        {
          "internalType": "uint256",
          "name": "",
          "type": "uint256"
        }
      ],
      "stateMutability": "view",
      "type": "function"
    },
    {
      "inputs": [
        {
          "internalType": "address",
          "name": "",
          "type": "address"
        }
      ],
      "name": "userVaults",
      "outputs": [
        {
          "internalType": "bool",
          "name": "exists",
          "type": "bool"
        },
        {
          "internalType": "uint256",
          "name": "token0",
          "type": "uint256"
        },
        {
          "internalType": "uint256",
          "name": "token1",
          "type": "uint256"
        }
      ],
      "stateMutability": "view",
      "type": "function"
    },
    {
      "inputs": [
        {
          "internalType": "uint256",
          "name": "",
          "type": "uint256"
        }
      ],
      "name": "users",
      "outputs": [
        {
          "internalType": "address",
          "name": "",
          "type": "address"
        }
      ],
      "stateMutability": "view",
      "type": "function"
    }
  ],
  "bytecode": "0x60a06040523060601b6080523480156200001857600080fd5b506200002362000029565b620000eb565b600054610100900460ff1615620000965760405162461bcd60e51b815260206004820152602760248201527f496e697469616c697a61626c653a20636f6e747261637420697320696e697469604482015266616c697a696e6760c81b606482015260840160405180910390fd5b60005460ff9081161015620000e9576000805460ff191660ff9081179091556040519081527f7f26b83ff96e1f2b6a682f133852f6798a09c465da95921460cefb38474024989060200160405180910390a15b565b60805160601c615cce6200012660003960008181610d3501528181610d7e015281816115e901528181611629015261175d0152615cce6000f3fe60806040526004361061036b5760003560e01c806370a08231116101c6578063b670ed7d116100f7578063dd62ed3e11610095578063f3d2350e1161006f578063f3d2350e14610a36578063f8c2e29b14610a56578063fa461e3314610a6b578063fd87f9aa14610a8b57600080fd5b8063dd62ed3e146109e1578063df28408a14610a01578063f2fde38b14610a1657600080fd5b8063d0c93a7c116100d1578063d0c93a7c14610969578063d21220a71461098b578063d3487997146109ac578063d7e458b5146109cc57600080fd5b8063b670ed7d146108fb578063c45a01551461091b578063c653089f1461093c57600080fd5b806395d89b4111610164578063a0712d681161013e578063a0712d6814610879578063a457c2d714610899578063a9059cbb146108b9578063a9722cf3146108d957600080fd5b806395d89b411461080e5780639894f21a146108235780639b1344ac1461085e57600080fd5b8063727dd228116101a0578063727dd2281461078c5780638456cb59146107c157806387788782146107d65780639403c1ae146107f957600080fd5b806370a082311461072c578063715018a61461076257806371908a031461077757600080fd5b806339509351116102a05780634f1ef2861161023e5780635c975abb116102185780635c975abb146106b2578063601b48a4146106cb57806367b9a28614610701578063708891651461071657600080fd5b80634f1ef2861461066a5780634fa62c5f1461067d57806352d1902d1461069d57600080fd5b80634043f5ca1161027a5780634043f5ca146105f357806342966c681461061557806342fb9d4414610635578063481c6a751461064c57600080fd5b8063395093511461059e5780633d048c27146105be5780633f4ba83a146105de57600080fd5b806318160ddd1161030d5780632958d031116102e75780632958d031146104e2578063313ce567146105405780633659cfe61461055c578063365b98b21461057e57600080fd5b806318160ddd1461048d578063195cd92c146104a257806323b872dd146104c257600080fd5b8063095ea7b311610349578063095ea7b3146103d25780630dfe1681146104025780631322d9541461043b57806316f0115b1461046557600080fd5b8063065756db1461037057806306fdde031461039a57806307973ccf146103bc575b600080fd5b34801561037c57600080fd5b506103876101635481565b6040519081526020015b60405180910390f35b3480156103a657600080fd5b506103af610aab565b60405161039191906158e1565b3480156103c857600080fd5b5061016654610387565b3480156103de57600080fd5b506103f26103ed366004615459565b610b3d565b6040519015158152602001610391565b34801561040e57600080fd5b5061016054610423906001600160a01b031681565b6040516001600160a01b039091168152602001610391565b34801561044757600080fd5b50610450610b55565b60408051928352602083019190915201610391565b34801561047157600080fd5b5061015f5461042390600160581b90046001600160a01b031681565b34801561049957600080fd5b5060fd54610387565b3480156104ae57600080fd5b506104506104bd3660046154a0565b610bff565b3480156104ce57600080fd5b506103f26104dd366004615375565b610d04565b3480156104ee57600080fd5b506105236104fd366004615291565b6101656020526000908152604090208054600182015460029092015460ff909116919083565b604080519315158452602084019290925290820152606001610391565b34801561054c57600080fd5b5060405160128152602001610391565b34801561056857600080fd5b5061057c610577366004615291565b610d2a565b005b34801561058a57600080fd5b506104236105993660046157da565b610e13565b3480156105aa57600080fd5b506103f26105b9366004615459565b610e3e565b3480156105ca57600080fd5b5061057c6105d9366004615403565b610e60565b3480156105ea57600080fd5b5061057c6111c6565b3480156105ff57600080fd5b5061015f546103f290600160301b900460ff1681565b34801561062157600080fd5b506104506106303660046157da565b6111d8565b34801561064157600080fd5b506103876101645481565b34801561065857600080fd5b5060c9546001600160a01b0316610423565b61057c6106783660046153b5565b6115de565b34801561068957600080fd5b5061057c6106983660046154f9565b6116af565b3480156106a957600080fd5b50610387611750565b3480156106be57600080fd5b5061012d5460ff166103f2565b3480156106d757600080fd5b50610162546106ee90600160a01b900461ffff1681565b60405161ffff9091168152602001610391565b34801561070d57600080fd5b5061057c611803565b34801561072257600080fd5b506106ee6103e881565b34801561073857600080fd5b50610387610747366004615291565b6001600160a01b0316600090815260fb602052604090205490565b34801561076e57600080fd5b5061057c6119f5565b34801561078357600080fd5b50610450611a07565b34801561079857600080fd5b5061015f546107ae906301000000900460020b81565b60405160029190910b8152602001610391565b3480156107cd57600080fd5b5061057c611ba7565b3480156107e257600080fd5b50610162546106ee90600160b01b900461ffff1681565b34801561080557600080fd5b5061057c611bb7565b34801561081a57600080fd5b506103af611c31565b34801561082f57600080fd5b5061084361083e3660046157f2565b611c40565b60408051938452602084019290925290820152606001610391565b34801561086a57600080fd5b5061015f546107ae9060020b81565b34801561088557600080fd5b506104506108943660046157da565b611dcc565b3480156108a557600080fd5b506103f26108b4366004615459565b6121b8565b3480156108c557600080fd5b506103f26108d4366004615459565b61223e565b3480156108e557600080fd5b5061015f546103f290600160381b900460ff1681565b34801561090757600080fd5b50610450610916366004615291565b61224c565b34801561092757600080fd5b5061016254610423906001600160a01b031681565b34801561094857600080fd5b5061095c6109573660046157f2565b6122f4565b6040516103919190615871565b34801561097557600080fd5b5061015f546107ae90600160401b900460020b81565b34801561099757600080fd5b5061016154610423906001600160a01b031681565b3480156109b857600080fd5b5061057c6109c736600461558e565b6124d2565b3480156109d857600080fd5b5061057c612540565b3480156109ed57600080fd5b506103876109fc36600461533d565b6125b3565b348015610a0d57600080fd5b506103876125de565b348015610a2257600080fd5b5061057c610a31366004615291565b612643565b348015610a4257600080fd5b5061057c610a513660046157ad565b6126bb565b348015610a6257600080fd5b506106ee606481565b348015610a7757600080fd5b5061057c610a8636600461558e565b61277f565b348015610a9757600080fd5b50610450610aa6366004615526565b6127f8565b606060fe8054610aba90615b06565b80601f0160208091040260200160405190810160405280929190818152602001828054610ae690615b06565b8015610b335780601f10610b0857610100808354040283529160200191610b33565b820191906000526020600020905b815481529060010190602001808311610b1657829003601f168201915b5050505050905090565b600033610b4b818585612aed565b5060019392505050565b60008060008061015f600b9054906101000a90046001600160a01b03166001600160a01b0316633850c7bd6040518163ffffffff1660e01b815260040160e06040518083038186803b158015610baa57600080fd5b505afa158015610bbe573d6000803e3d6000fd5b505050506040513d601f19601f82011682018060405250810190610be2919061570d565b505050505091509150610bf58282612c11565b9350935050509091565b600080610c0a612ebc565b61015f54604051630251596160e31b81523060048201528615156024820152604481018690526001600160a01b03858116606483015260a06084830152600060a4830152600160581b9092049091169063128acb089060c4016040805180830381600087803b158015610c7c57600080fd5b505af1158015610c90573d6000803e3d6000fd5b505050506040513d601f19601f82011682018060405250810190610cb4919061556b565b6040805188151581526020810184905290810182905291935091507fbf511038cfa32cfb7971e976074c0e6aeda010e6afcbb38d87b4f910305014949060600160405180910390a1935093915050565b600033610d12858285612f21565b610d1d858585612f95565b60019150505b9392505050565b306001600160a01b037f0000000000000000000000000000000000000000000000000000000000000000161415610d7c5760405162461bcd60e51b8152600401610d7390615914565b60405180910390fd5b7f00000000000000000000000000000000000000000000000000000000000000006001600160a01b0316610dc5600080516020615c52833981519152546001600160a01b031690565b6001600160a01b031614610deb5760405162461bcd60e51b8152600401610d7390615960565b610df481613140565b60408051600080825260208201909252610e109183919061316c565b50565b6101668181548110610e2457600080fd5b6000918252602090912001546001600160a01b0316905081565b600033610b4b818585610e5183836125b3565b610e5b9190615a50565b612aed565b600054610100900460ff1615808015610e805750600054600160ff909116105b80610e9a5750303b158015610e9a575060005460ff166001145b610efd5760405162461bcd60e51b815260206004820152602e60248201527f496e697469616c697a61626c653a20636f6e747261637420697320616c72656160448201526d191e481a5b9a5d1a585b1a5e995960921b6064820152608401610d73565b6000805460ff191660011790558015610f20576000805461ff0019166101001790555b600080600084806020019051810190610f3991906152c9565b925092509250610f476132eb565b610f4f613312565b610f57613341565b610f618282613370565b610f696133a1565b610f72836133d0565b8661015f600b6101000a8154816001600160a01b0302191690836001600160a01b0316021790555061015f600b9054906101000a90046001600160a01b03166001600160a01b0316630dfe16816040518163ffffffff1660e01b815260040160206040518083038186803b158015610fe957600080fd5b505afa158015610ffd573d6000803e3d6000fd5b505050506040513d601f19601f8201168201806040525081019061102191906152ad565b61016080546001600160a01b0319166001600160a01b0392831617905561015f546040805163d21220a760e01b81529051600160581b9092049092169163d21220a7916004808301926020929190829003018186803b15801561108357600080fd5b505afa158015611097573d6000803e3d6000fd5b505050506040513d601f19601f820116820180604052508101906110bb91906152ad565b61016180546001600160a01b0319166001600160a01b039290921691909117905561015f80546affffff00000000000000001916600160401b62ffffff60028a900b16021790556101628054600163ffff000160a01b0319163361ffff60b01b191617607d60b11b1761ffff60a01b191690819055604080516000815261ffff600160b01b9093049290921660208301527f2ac80c14c28700f7b5e36f947d572149fe2e3947bac32c3a8c098f3e03722c11910160405180910390a150505080156111c0576000805461ff0019169055604051600181527f7f26b83ff96e1f2b6a682f133852f6798a09c465da95921460cefb38474024989060200160405180910390a15b50505050565b6111ce612ebc565b6111d6613422565b565b6000806111e3613475565b6111eb6134cf565b82611209576040516302075cc160e41b815260040160405180910390fd5b600061121460fd5490565b33600081815260fb60205260409020549192506112319086613516565b61015f54600160301b900460ff161561146c5761015f54600090600160581b90046001600160a01b031663514ea4bf6112686125de565b6040518263ffffffff1660e01b815260040161128691815260200190565b60a06040518083038186803b15801561129e57600080fd5b505afa1580156112b2573d6000803e3d6000fd5b505050506040513d601f19601f820116820180604052508101906112d691906156b7565b50505050905060006112f287836001600160801b03168661364a565b905060006112ff826136f9565b905060008060008061131085613766565b93509350935093506113228282613b08565b61132c8282613b79565b60408051838152602081018390529294509092507fc28ad1de9c0c32e5394ba60323e44d8d9536312236a47231772e448a3e49de42910160405180910390a161016354610160546040516370a0823160e01b815230600482015261140e929187916001600160a01b03909116906370a08231906024015b60206040518083038186803b1580156113bb57600080fd5b505afa1580156113cf573d6000803e3d6000fd5b505050506040513d601f19601f820116820180604052508101906113f391906154e1565b6113fd9190615ac3565b6114079190615ac3565b8d8b61364a565b6114189085615a50565b61016454610161546040516370a0823160e01b8152306004820152929d506114549286916001600160a01b0316906370a08231906024016113a3565b61145e9084615a50565b995050505050505050611498565b600080611477610b55565b9150915061148682888661364a565b955061149381888661364a565b945050505b6114a28484613be4565b6000806114af8686613c00565b9092509050851561151e57826114c58882615ac3565b33600090815261016560205260409020600101546114e39190615a7c565b6114ed9190615a68565b33600081815261016560205260409020600101919091556101605461151e916001600160a01b039091169084613c22565b8415611588578261152f8882615ac3565b336000908152610165602052604090206002015461154d9190615a7c565b6115579190615a68565b336000818152610165602052604090206002019190915561016154611588916001600160a01b039091169083613c22565b604080518881526020810184905290810182905233907f4c60206a5c1de41f3376d1d60f0949d96cb682033c90b1c2d9d9a62d4c4120c09060600160405180910390a2505050506115d96001606555565b915091565b306001600160a01b037f00000000000000000000000000000000000000000000000000000000000000001614156116275760405162461bcd60e51b8152600401610d7390615914565b7f00000000000000000000000000000000000000000000000000000000000000006001600160a01b0316611670600080516020615c52833981519152546001600160a01b031690565b6001600160a01b0316146116965760405162461bcd60e51b8152600401610d7390615960565b61169f82613140565b6116ab8282600161316c565b5050565b6116b7612ebc565b60fd541515806116d1575061015f54600160301b900460ff165b156116ef57604051632a2c70bb60e11b815260040160405180910390fd5b6116f98282613c8c565b61015f54600160381b900460ff166116ab5761015f805467ff000000000000001916600160381b1790556040517f452a344f03203071e1daf66e007976c85cb2380deabf1c91f3c4fb1fca41204990600090a15050565b6000306001600160a01b037f000000000000000000000000000000000000000000000000000000000000000016146117f05760405162461bcd60e51b815260206004820152603860248201527f555550535570677261646561626c653a206d757374206e6f742062652063616c60448201527f6c6564207468726f7567682064656c656761746563616c6c00000000000000006064820152608401610d73565b50600080516020615c5283398151915290565b61180b612ebc565b61015f54600090600160581b90046001600160a01b031663514ea4bf61182f6125de565b6040518263ffffffff1660e01b815260040161184d91815260200190565b60a06040518083038186803b15801561186557600080fd5b505afa158015611879573d6000803e3d6000fd5b505050506040513d601f19601f8201168201806040525081019061189d91906156b7565b5050505090506000816001600160801b031611156119975761015f54600281810b9163010000009004900b60008080806118d687613766565b604080516001600160801b038d16815260028c810b60208301528b900b818301526060810186905260808101859052905194985092965090945092507f6d7e1841bf97c0b736eafb2779459ba1e0af2305cead28a8e97533589ceb2f65919081900360a00190a16119478282613b08565b6119518282613b79565b60408051838152602081018390529294509092507fc28ad1de9c0c32e5394ba60323e44d8d9536312236a47231772e448a3e49de42910160405180910390a15050505050505b61015f805462ffffff63010000008204600290810b900b1666ff000000ffffff19909116179055604051600081527fd9279952b347fd14af9b788aff1029c0d3b1299b7dcce164fc602a1b958c48809060200160405180910390a150565b6119fd612ebc565b6111d660006133d0565b600080600061015f600b9054906101000a90046001600160a01b03166001600160a01b0316633850c7bd6040518163ffffffff1660e01b815260040160e06040518083038186803b158015611a5b57600080fd5b505afa158015611a6f573d6000803e3d6000fd5b505050506040513d601f19601f82011682018060405250810190611a93919061570d565b5050505050915050600080600080600061015f600b9054906101000a90046001600160a01b03166001600160a01b031663514ea4bf611ad06125de565b6040518263ffffffff1660e01b8152600401611aee91815260200190565b60a06040518083038186803b158015611b0657600080fd5b505afa158015611b1a573d6000803e3d6000fd5b505050506040513d601f19601f82011682018060405250810190611b3e91906156b7565b94509450945094509450816001600160801b0316611b5f6001868989613d4c565b611b699190615a50565b9750806001600160801b0316611b826000858989613d4c565b611b8c9190615a50565b9650611b988888613b79565b90999098509650505050505050565b611baf612ebc565b6111d661414e565b611bbf612ebc565b61016380546101648054600093849055929055908115611c0257611c02611bee60c9546001600160a01b031690565b610160546001600160a01b03169084613c22565b80156116ab576116ab611c1d60c9546001600160a01b031690565b610161546001600160a01b03169083613c22565b606060ff8054610aba90615b06565b600080600061015f60079054906101000a900460ff16611c7357604051630314872760e11b815260040160405180910390fd5b6000611c7e60fd5490565b90508015611c9d57611c9181878761418c565b91955093509150611dc4565b600061015f600b9054906101000a90046001600160a01b03166001600160a01b0316633850c7bd6040518163ffffffff1660e01b815260040160e06040518083038186803b158015611cee57600080fd5b505afa158015611d02573d6000803e3d6000fd5b505050506040513d601f19601f82011682018060405250810190611d26919061570d565b50505050505090506000611d7282611d5061015f60009054906101000a900460020b60020b61428f565b61015f54611d6b9063010000009004600290810b900b61428f565b8b8b6146ac565b61015f546001600160801b0382169550909150611dbc908390611d9b90600290810b900b61428f565b61015f54611db69063010000009004600290810b900b61428f565b84614770565b909650945050505b509250925092565b600080611dd7613475565b611ddf6134cf565b61015f54600160381b900460ff16611e0a57604051630314872760e11b815260040160405180910390fd5b82611e285760405163199f5a0360e31b815260040160405180910390fd5b6000611e3360fd5490565b61015f5460408051633850c7bd60e01b81529051929350600160301b820460ff1692600092600160581b90046001600160a01b031691633850c7bd9160048083019260e0929190829003018186803b158015611e8e57600080fd5b505afa158015611ea2573d6000803e3d6000fd5b505050506040513d601f19601f82011682018060405250810190611ec6919061570d565b50505050505090506000831115611f0757600080611ee2610b55565b91509150611ef182898761480c565b9650611efe81898761480c565b95505050611f73565b8115611f5a5761015f54611f50908290611f2790600290810b900b61428f565b61015f54611f429063010000009004600290810b900b61428f565b611f4b8a6136f9565b614770565b9095509350611f73565b60405163344fa43b60e01b815260040160405180910390fd5b336000908152610165602052604090205460ff16611fea5733600081815261016560205260408120805460ff19166001908117909155610166805491820181559091527fa5a4c57b7184ec73d55be4993773cb4eef681bc86a28d0285cd66efb50676a970180546001600160a01b03191690911790555b841561203157336000908152610165602052604081206001018054879290612013908490615a50565b909155505061016054612031906001600160a01b031633308861485a565b83156120785733600090815261016560205260408120600201805486929061205a908490615a50565b909155505061016154612078906001600160a01b031633308761485a565b6120823387614892565b81156121685761015f546000906120c79083906120a590600290810b900b61428f565b61015f546120c09063010000009004600290810b900b61428f565b89896146ac565b61015f54604051633c8a7d8d60e01b81529192506001600160a01b03600160581b82041691633c8a7d8d91612113913091600281810b926301000000909204900b90879060040161582f565b6040805180830381600087803b15801561212c57600080fd5b505af1158015612140573d6000803e3d6000fd5b505050506040513d601f19601f82011682018060405250810190612164919061556b565b5050505b604080518781526020810187905290810185905233907f5a3358a3d27a5373c0df2604662088d37894d56b7cfd27f315770440f4e0d9199060600160405180910390a25050506115d96001606555565b600033816121c682866125b3565b9050838110156122265760405162461bcd60e51b815260206004820152602560248201527f45524332303a2064656372656173656420616c6c6f77616e63652062656c6f77604482015264207a65726f60d81b6064820152608401610d73565b6122338286868403612aed565b506001949350505050565b600033610b4b818585612f95565b600080600061015f600b9054906101000a90046001600160a01b03166001600160a01b0316633850c7bd6040518163ffffffff1660e01b815260040160e06040518083038186803b1580156122a057600080fd5b505afa1580156122b4573d6000803e3d6000fd5b505050506040513d601f19601f820116820180604052508101906122d8919061570d565b50505050509150506122ea8482612c11565b9250925050915091565b606082158015612302575081155b1561230e576101665491505b600061231a8484615ac3565b67ffffffffffffffff81111561234057634e487b7160e01b600052604160045260246000fd5b60405190808252806020026020018201604052801561239e57816020015b61238b604051806060016040528060006001600160a01b0316815260200160008152602001600081525090565b81526020019060019003908161235e5790505b5090506000845b848110156124c8576000610165600061016684815481106123d657634e487b7160e01b600052603260045260246000fd5b60009182526020808320909101546001600160a01b031683528281019390935260409182019020815160608082018452825460ff1615158252600183015494820194909452600290910154818301528151928301909152610166805491935082918590811061245557634e487b7160e01b600052603260045260246000fd5b600091825260209182902001546001600160a01b031682528381015190820152604080840151910152848461248981615b41565b9550815181106124a957634e487b7160e01b600052603260045260246000fd5b60200260200101819052505080806124c090615b41565b9150506123a5565b5090949350505050565b61015f54600160581b90046001600160a01b0316331461250457604051620b7d9960e41b815260040160405180910390fd5b83156125225761016054612522906001600160a01b03163386613c22565b82156111c057610161546111c0906001600160a01b03163385613c22565b612548612ebc565b6000806125556000613766565b9350935050506125658282613b08565b61256f8282613b79565b60408051838152602081018390529294509092507fc28ad1de9c0c32e5394ba60323e44d8d9536312236a47231772e448a3e49de4291015b60405180910390a15050565b6001600160a01b03918216600090815260fc6020908152604080832093909416825291909152205490565b61015f546040516bffffffffffffffffffffffff193060601b166020820152600282810b810b60e890811b60348401526301000000909304810b900b90911b6037820152600090603a0160405160208183030381529060405280519060200120905090565b61264b612ebc565b6001600160a01b0381166126b25760405162461bcd60e51b815260206004820152602860248201527f4f776e61626c653a206e6577206d616e6167657220697320746865207a65726f604482015267206164647265737360c01b6064820152608401610d73565b610e10816133d0565b6126c3612ebc565b606461ffff831611156126e9576040516313f90f0b60e31b815260040160405180910390fd5b6103e861ffff8216111561271057604051630f14508d60e41b815260040160405180910390fd5b610162805463ffffffff60a01b1916600160a01b61ffff85811691820261ffff60b01b191692909217600160b01b928516928302179092556040805192835260208301919091527f2ac80c14c28700f7b5e36f947d572149fe2e3947bac32c3a8c098f3e03722c1191016125a7565b61015f54600160581b90046001600160a01b031633146127b157604051620b7d9960e41b815260040160405180910390fd5b60008413156127d757610160546127d2906001600160a01b03163386613c22565b6111c0565b60008313156111c057610161546111c0906001600160a01b03163385613c22565b600080612803612ebc565b61280d8686614953565b600061015f600b9054906101000a90046001600160a01b03166001600160a01b0316633850c7bd6040518163ffffffff1660e01b815260040160e06040518083038186803b15801561285e57600080fd5b505afa158015612872573d6000803e3d6000fd5b505050506040513d601f19601f82011682018060405250810190612896919061570d565b505050505050905060006128bc826128b08a60020b61428f565b6120c08a60020b61428f565b90506001600160801b03811615612a845761015f54604051633c8a7d8d60e01b81526000918291600160581b9091046001600160a01b031690633c8a7d8d9061290f9030908e908e90899060040161582f565b6040805180830381600087803b15801561292857600080fd5b505af115801561293c573d6000803e3d6000fd5b505050506040513d601f19601f82011682018060405250810190612960919061556b565b909250905061296f8289615ac3565b955061297b8188615ac3565b61015f5490955060028b810b91810b900b1415806129ac575061015f5460028a810b6301000000909204810b900b14155b15612a265761015f805460028b810b62ffffff90811663010000000265ffffffffffff19909316918e900b16171790556040517f8e3ac6cc9b82795b40740ca4e954df8f6655fe35e80cdc6fb33d50c3423fcd1690612a1d908c908c90600292830b8152910b602082015260400190565b60405180910390a15b604080516001600160801b038516815260028c810b60208301528b900b81830152606081018490526080810183905290517ffa715a0b1bc7287b5d3581c11478041b0455aad0c17361fc1e55fffbdd4b6c4f9181900360a00190a150505b61015f54600160301b900460ff16612ae25761015f805466ff0000000000001916600160301b179055604051600181527fd9279952b347fd14af9b788aff1029c0d3b1299b7dcce164fc602a1b958c48809060200160405180910390a15b505094509492505050565b6001600160a01b038316612b4f5760405162461bcd60e51b8152602060048201526024808201527f45524332303a20617070726f76652066726f6d20746865207a65726f206164646044820152637265737360e01b6064820152608401610d73565b6001600160a01b038216612bb05760405162461bcd60e51b815260206004820152602260248201527f45524332303a20617070726f766520746f20746865207a65726f206164647265604482015261737360f01b6064820152608401610d73565b6001600160a01b03838116600081815260fc602090815260408083209487168084529482529182902085905590518481527f8c5be1e5ebec7d5bd14f71427d1e84f3dd0314c0f7b2291e5b200ac8c7c3b925910160405180910390a3505050565b600080600080600080600061015f600b9054906101000a90046001600160a01b03166001600160a01b031663514ea4bf612c496125de565b6040518263ffffffff1660e01b8152600401612c6791815260200190565b60a06040518083038186803b158015612c7f57600080fd5b505afa158015612c93573d6000803e3d6000fd5b505050506040513d601f19601f82011682018060405250810190612cb791906156b7565b94509450945094509450600080866001600160801b0316600014612d6b5761015f54612d10908c90612cef90600290810b900b61428f565b61015f54612d0a9063010000009004600290810b900b61428f565b8a614770565b90995097506001600160801b038416612d2c6001888d8b613d4c565b612d369190615a50565b9150826001600160801b0316612d4f6000878d8b613d4c565b612d599190615a50565b9050612d658282613b79565b90925090505b61016354610160546040516370a0823160e01b81523060048201526001600160a01b03909116906370a082319060240160206040518083038186803b158015612db357600080fd5b505afa158015612dc7573d6000803e3d6000fd5b505050506040513d601f19601f82011682018060405250810190612deb91906154e1565b612df59084615a50565b612dff9190615ac3565b612e09908a615a50565b61016454610161546040516370a0823160e01b8152306004820152929b5090916001600160a01b03909116906370a082319060240160206040518083038186803b158015612e5657600080fd5b505afa158015612e6a573d6000803e3d6000fd5b505050506040513d601f19601f82011682018060405250810190612e8e91906154e1565b612e989083615a50565b612ea29190615ac3565b612eac9089615a50565b9750505050505050509250929050565b60c9546001600160a01b031633146111d65760405162461bcd60e51b815260206004820152602260248201527f4f776e61626c653a2063616c6c6572206973206e6f7420746865206d616e616760448201526132b960f11b6064820152608401610d73565b6000612f2d84846125b3565b905060001981146111c05781811015612f885760405162461bcd60e51b815260206004820152601d60248201527f45524332303a20696e73756666696369656e7420616c6c6f77616e63650000006044820152606401610d73565b6111c08484848403612aed565b6001600160a01b038316612ff95760405162461bcd60e51b815260206004820152602560248201527f45524332303a207472616e736665722066726f6d20746865207a65726f206164604482015264647265737360d81b6064820152608401610d73565b6001600160a01b03821661305b5760405162461bcd60e51b815260206004820152602360248201527f45524332303a207472616e7366657220746f20746865207a65726f206164647260448201526265737360e81b6064820152608401610d73565b6001600160a01b038316600090815260fb6020526040902054818110156130d35760405162461bcd60e51b815260206004820152602660248201527f45524332303a207472616e7366657220616d6f756e7420657863656564732062604482015265616c616e636560d01b6064820152608401610d73565b6001600160a01b03808516600081815260fb602052604080822086860390559286168082529083902080548601905591517fddf252ad1be2c89b69c2b068fc378daa952ba7f163c4a11628f55a4df523b3ef906131339086815260200190565b60405180910390a36111c0565b610162546001600160a01b03163314610e1057604051631b1319e560e01b815260040160405180910390fd5b7f4910fdfa16fed3260ed0e7147f7cc6da11a60208b5b9406d12a635614ffd91435460ff16156131a45761319f83614a08565b505050565b826001600160a01b03166352d1902d6040518163ffffffff1660e01b815260040160206040518083038186803b1580156131dd57600080fd5b505afa92505050801561320d575060408051601f3d908101601f1916820190925261320a918101906154e1565b60015b6132705760405162461bcd60e51b815260206004820152602e60248201527f45524331393637557067726164653a206e657720696d706c656d656e7461746960448201526d6f6e206973206e6f74205555505360901b6064820152608401610d73565b600080516020615c5283398151915281146132df5760405162461bcd60e51b815260206004820152602960248201527f45524331393637557067726164653a20756e737570706f727465642070726f786044820152681a58589b195555525160ba1b6064820152608401610d73565b5061319f838383614aa4565b600054610100900460ff166111d65760405162461bcd60e51b8152600401610d73906159ac565b600054610100900460ff166133395760405162461bcd60e51b8152600401610d73906159ac565b6111d6614ac9565b600054610100900460ff166133685760405162461bcd60e51b8152600401610d73906159ac565b6111d6614af0565b600054610100900460ff166133975760405162461bcd60e51b8152600401610d73906159ac565b6116ab8282614b20565b600054610100900460ff166133c85760405162461bcd60e51b8152600401610d73906159ac565b6111d6614b6e565b60c980546001600160a01b038381166001600160a01b0319831681179093556040519116919082907f8be0079c531659141344cd1fd0a4f28419497f9722a3daafe3b4186f6b6457e090600090a35050565b61342a614ba2565b61012d805460ff191690557f5db9ee0a495bf2e6ff9c91a7834c1ba4fdd244a5e8aa4e537bd38aeae4b073aa335b6040516001600160a01b03909116815260200160405180910390a1565b600260655414156134c85760405162461bcd60e51b815260206004820152601f60248201527f5265656e7472616e637947756172643a207265656e7472616e742063616c6c006044820152606401610d73565b6002606555565b61012d5460ff16156111d65760405162461bcd60e51b815260206004820152601060248201526f14185d5cd8589b194e881c185d5cd95960821b6044820152606401610d73565b6001600160a01b0382166135765760405162461bcd60e51b815260206004820152602160248201527f45524332303a206275726e2066726f6d20746865207a65726f206164647265736044820152607360f81b6064820152608401610d73565b6001600160a01b038216600090815260fb6020526040902054818110156135ea5760405162461bcd60e51b815260206004820152602260248201527f45524332303a206275726e20616d6f756e7420657863656564732062616c616e604482015261636560f01b6064820152608401610d73565b6001600160a01b038316600081815260fb60209081526040808320868603905560fd80548790039055518581529192917fddf252ad1be2c89b69c2b068fc378daa952ba7f163c4a11628f55a4df523b3ef910160405180910390a3505050565b600080806000198587098587029250828110838203039150508060001415613684576000841161367957600080fd5b508290049050610d23565b80841161369057600080fd5b60008486880960026001871981018816978890046003810283188082028403028082028403028082028403028082028403028082028403029081029092039091026000889003889004909101858311909403939093029303949094049190911702949350505050565b60006001600160801b038211156137625760405162461bcd60e51b815260206004820152602760248201527f53616665436173743a2076616c756520646f65736e27742066697420696e20316044820152663238206269747360c81b6064820152608401610d73565b5090565b61015f54610160546040516370a0823160e01b8152306004820152600092839283928392600281810b936301000000909204900b9184916001600160a01b0316906370a082319060240160206040518083038186803b1580156137c857600080fd5b505afa1580156137dc573d6000803e3d6000fd5b505050506040513d601f19601f8201168201806040525081019061380091906154e1565b610161546040516370a0823160e01b81523060048201529192506000916001600160a01b03909116906370a082319060240160206040518083038186803b15801561384a57600080fd5b505afa15801561385e573d6000803e3d6000fd5b505050506040513d601f19601f8201168201806040525081019061388291906154e1565b61015f5460405163a34123a760e01b8152600287810b600483015286900b60248201526001600160801b038c166044820152919250600160581b90046001600160a01b03169063a34123a7906064016040805180830381600087803b1580156138ea57600080fd5b505af11580156138fe573d6000803e3d6000fd5b505050506040513d601f19601f82011682018060405250810190613922919061556b565b61015f546040516309e3d67b60e31b8152306004820152600288810b602483015287900b60448201526001600160801b03606482018190526084820152929a50909850600160581b90046001600160a01b031690634f1eb3d89060a4016040805180830381600087803b15801561399857600080fd5b505af11580156139ac573d6000803e3d6000fd5b505050506040513d601f19601f820116820180604052508101906139d09190615685565b5050610160546040516370a0823160e01b8152306004820152899184916001600160a01b03909116906370a082319060240160206040518083038186803b158015613a1a57600080fd5b505afa158015613a2e573d6000803e3d6000fd5b505050506040513d601f19601f82011682018060405250810190613a5291906154e1565b613a5c9190615ac3565b613a669190615ac3565b610161546040516370a0823160e01b8152306004820152919750889183916001600160a01b0316906370a082319060240160206040518083038186803b158015613aaf57600080fd5b505afa158015613ac3573d6000803e3d6000fd5b505050506040513d601f19601f82011682018060405250810190613ae791906154e1565b613af19190615ac3565b613afb9190615ac3565b9450505050509193509193565b61016254600160b01b900461ffff16612710613b248285615a7c565b613b2e9190615a68565b6101636000828254613b409190615a50565b909155506127109050613b538284615a7c565b613b5d9190615a68565b6101646000828254613b6f9190615a50565b9091555050505050565b610162546000908190600160b01b900461ffff1681612710613b9b8388615a7c565b613ba59190615a68565b90506000612710613bb68488615a7c565b613bc09190615a68565b9050613bcc8288615ac3565b9450613bd88187615ac3565b93505050509250929050565b61016254600160a01b900461ffff16612710613b248285615a7c565b610162546000908190600160a01b900461ffff1681612710613b9b8388615a7c565b6040516001600160a01b03831660248201526044810182905261319f90849063a9059cbb60e01b906064015b60408051601f198184030181529190526020810180516001600160e01b03166001600160e01b031990931692909217909152614bec565b6001606555565b613c968282614953565b61015f805466ff00000000000019600284810b62ffffff90811663010000000265ffffffffffff199094169187900b16179190911716600160301b1790556040517fd9279952b347fd14af9b788aff1029c0d3b1299b7dcce164fc602a1b958c488090613d099060011515815260200190565b60405180910390a160408051600284810b825283900b60208201527f8e3ac6cc9b82795b40740ca4e954df8f6655fe35e80cdc6fb33d50c3423fcd1691016125a7565b6000806000808715613f175761015f600b9054906101000a90046001600160a01b03166001600160a01b031663f30583996040518163ffffffff1660e01b815260040160206040518083038186803b158015613da757600080fd5b505afa158015613dbb573d6000803e3d6000fd5b505050506040513d601f19601f82011682018060405250810190613ddf91906154e1565b61015f5460405163f30dba9360e01b8152600282810b900b6004820152919250600160581b90046001600160a01b03169063f30dba93906024016101006040518083038186803b158015613e3257600080fd5b505afa158015613e46573d6000803e3d6000fd5b505050506040513d601f19601f82011682018060405250810190613e6a91906155df565b505061015f5460405163f30dba9360e01b81529499506001600160a01b03600160581b820416965063f30dba939550613eb694630100000090910460020b935060040191506158d39050565b6101006040518083038186803b158015613ecf57600080fd5b505afa158015613ee3573d6000803e3d6000fd5b505050506040513d601f19601f82011682018060405250810190613f0791906155df565b509397506140d095505050505050565b61015f600b9054906101000a90046001600160a01b03166001600160a01b031663461413196040518163ffffffff1660e01b815260040160206040518083038186803b158015613f6657600080fd5b505afa158015613f7a573d6000803e3d6000fd5b505050506040513d601f19601f82011682018060405250810190613f9e91906154e1565b61015f5460405163f30dba9360e01b8152600282810b900b6004820152919250600160581b90046001600160a01b03169063f30dba93906024016101006040518083038186803b158015613ff157600080fd5b505afa158015614005573d6000803e3d6000fd5b505050506040513d601f19601f8201168201806040525081019061402991906155df565b505061015f5460405163f30dba9360e01b81529399506001600160a01b03600160581b820416965063f30dba93955061407494506301000000900460020b9260040191506158d39050565b6101006040518083038186803b15801561408d57600080fd5b505afa1580156140a1573d6000803e3d6000fd5b505050506040513d601f19601f820116820180604052508101906140c591906155df565b509297505050505050505b61015f54600090600290810b810b9088900b126140ee5750826140f3565b508281035b600061015f60039054906101000a900460020b60020b8860020b121561411a57508261411f565b508282035b81830381900361413f6001600160801b0389168b8303600160801b61364a565b9b9a5050505050505050505050565b6141566134cf565b61012d805460ff191660011790557f62e78cea01bee320cd4e420270b5ea74000d11b0c9f74754ebdbfc544b05a2586134583390565b600080600080600061419c610b55565b915091508160001480156141b05750600081115b156141c7576141c086898361364a565b925061426a565b801580156141d55750600082115b156141e5576141c087898461364a565b811580156141f1575080155b1561420f5760405163f912977760e01b815260040160405180910390fd5b600061421c888a8561364a565b9050600061422b888b8561364a565b9050811580614238575080155b1561425657604051630856e64360e21b815260040160405180910390fd5b8082106142635780614265565b815b945050505b61427583838a61480c565b945061428283828a61480c565b9350505093509350939050565b60008060008360020b126142a6578260020b6142b3565b8260020b6142b390615bb3565b90506142c2620d89e719615b92565b60020b8111156142f85760405162461bcd60e51b81526020600482015260016024820152601560fa1b6044820152606401610d73565b60006001821661430c57600160801b61431e565b6ffffcb933bd6fad37aa2d162d1a5940015b70ffffffffffffffffffffffffffffffffff169050600282161561435d576080614358826ffff97272373d413259a46990580e213a615a7c565b901c90505b6004821615614387576080614382826ffff2e50f5f656932ef12357cf3c7fdcc615a7c565b901c90505b60088216156143b15760806143ac826fffe5caca7e10e4e61c3624eaa0941cd0615a7c565b901c90505b60108216156143db5760806143d6826fffcb9843d60f6159c9db58835c926644615a7c565b901c90505b6020821615614405576080614400826fff973b41fa98c081472e6896dfb254c0615a7c565b901c90505b604082161561442f57608061442a826fff2ea16466c96a3843ec78b326b52861615a7c565b901c90505b6080821615614459576080614454826ffe5dee046a99a2a811c461f1969c3053615a7c565b901c90505b61010082161561448457608061447f826ffcbe86c7900a88aedcffc83b479aa3a4615a7c565b901c90505b6102008216156144af5760806144aa826ff987a7253ac413176f2b074cf7815e54615a7c565b901c90505b6104008216156144da5760806144d5826ff3392b0822b70005940c7a398e4b70f3615a7c565b901c90505b610800821615614505576080614500826fe7159475a2c29b7443b29c7fa6e889d9615a7c565b901c90505b61100082161561453057608061452b826fd097f3bdfd2022b8845ad8f792aa5825615a7c565b901c90505b61200082161561455b576080614556826fa9f746462d870fdf8a65dc1f90e061e5615a7c565b901c90505b614000821615614586576080614581826f70d869a156d2a1b890bb3df62baf32f7615a7c565b901c90505b6180008216156145b15760806145ac826f31be135f97d08fd981231505542fcfa6615a7c565b901c90505b620100008216156145dd5760806145d8826f09aa508b5b7a84e1c677de54f3e99bc9615a7c565b901c90505b62020000821615614608576080614603826e5d6af8dedb81196699c329225ee604615a7c565b901c90505b6204000082161561463257608061462d826d2216e584f5fa1ea926041bedfe98615a7c565b901c90505b6208000082161561465a576080614655826b048a170391f7dc42444e8fa2615a7c565b901c90505b60008460020b13156146755761467281600019615a68565b90505b61468464010000000082615b7e565b15614690576001614693565b60005b6146a49060ff16602083901c615a50565b949350505050565b6000836001600160a01b0316856001600160a01b031611156146cc579293925b846001600160a01b0316866001600160a01b0316116146f7576146f0858585614cbe565b9050614767565b836001600160a01b0316866001600160a01b0316101561475957600061471e878686614cbe565b9050600061472d878986614d28565b9050806001600160801b0316826001600160801b03161061474e5780614750565b815b92505050614767565b614764858584614d28565b90505b95945050505050565b600080836001600160a01b0316856001600160a01b03161115614791579293925b846001600160a01b0316866001600160a01b0316116147bc576147b5858585614d5e565b9150614803565b836001600160a01b0316866001600160a01b031610156147f5576147e1868585614d5e565b91506147ee858785614dd1565b9050614803565b614800858585614dd1565b90505b94509492505050565b600061481984848461364a565b90506000828061483957634e487b7160e01b600052601260045260246000fd5b8486091115610d2357600019811061485057600080fd5b8061476781615b41565b6040516001600160a01b03808516602483015283166044820152606481018290526111c09085906323b872dd60e01b90608401613c4e565b6001600160a01b0382166148e85760405162461bcd60e51b815260206004820152601f60248201527f45524332303a206d696e7420746f20746865207a65726f2061646472657373006044820152606401610d73565b8060fd60008282546148fa9190615a50565b90915550506001600160a01b038216600081815260fb60209081526040808320805486019055518481527fddf252ad1be2c89b69c2b068fc378daa952ba7f163c4a11628f55a4df523b3ef910160405180910390a35050565b620d89e719600283900b128061497a5750614971620d89e719615b92565b60020b8160020b135b156149985760405163137b639d60e21b815260040160405180910390fd5b8060020b8260020b1215806149c6575061015f546149c090600160401b900460020b83615b5c565b60020b15155b806149ea575061015f546149e490600160401b900460020b82615b5c565b60020b15155b156116ab57604051633981390b60e11b815260040160405180910390fd5b6001600160a01b0381163b614a755760405162461bcd60e51b815260206004820152602d60248201527f455243313936373a206e657720696d706c656d656e746174696f6e206973206e60448201526c1bdd08184818dbdb9d1c9858dd609a1b6064820152608401610d73565b600080516020615c5283398151915280546001600160a01b0319166001600160a01b0392909216919091179055565b614aad83614e1b565b600082511180614aba5750805b1561319f576111c08383614e5b565b600054610100900460ff16613c855760405162461bcd60e51b8152600401610d73906159ac565b600054610100900460ff16614b175760405162461bcd60e51b8152600401610d73906159ac565b6111d6336133d0565b600054610100900460ff16614b475760405162461bcd60e51b8152600401610d73906159ac565b8151614b5a9060fe906020850190615104565b50805161319f9060ff906020840190615104565b600054610100900460ff16614b955760405162461bcd60e51b8152600401610d73906159ac565b61012d805460ff19169055565b61012d5460ff166111d65760405162461bcd60e51b815260206004820152601460248201527314185d5cd8589b194e881b9bdd081c185d5cd95960621b6044820152606401610d73565b6000614c41826040518060400160405280602081526020017f5361666545524332303a206c6f772d6c6576656c2063616c6c206661696c6564815250856001600160a01b0316614f469092919063ffffffff16565b80519091501561319f5780806020019051810190614c5f9190615484565b61319f5760405162461bcd60e51b815260206004820152602a60248201527f5361666545524332303a204552433230206f7065726174696f6e20646964206e6044820152691bdd081cdd58d8d9595960b21b6064820152608401610d73565b6000826001600160a01b0316846001600160a01b03161115614cde579192915b6000614d01856001600160a01b0316856001600160a01b0316600160601b61364a565b9050614767614d238483614d158989615a9b565b6001600160a01b031661364a565b614f55565b6000826001600160a01b0316846001600160a01b03161115614d48579192915b6146a4614d2383600160601b614d158888615a9b565b6000826001600160a01b0316846001600160a01b03161115614d7e579192915b6001600160a01b038416614dc76fffffffffffffffffffffffffffffffff60601b606085901b16614daf8787615a9b565b6001600160a01b0316866001600160a01b031661364a565b6146a49190615a68565b6000826001600160a01b0316846001600160a01b03161115614df1579192915b6146a46001600160801b038316614e088686615a9b565b6001600160a01b0316600160601b61364a565b614e2481614a08565b6040516001600160a01b038216907fbc7cd75a20ee27fd9adebab32041f755214dbc6bffa90cc0225b39da2e5c2d3b90600090a250565b60606001600160a01b0383163b614ec35760405162461bcd60e51b815260206004820152602660248201527f416464726573733a2064656c65676174652063616c6c20746f206e6f6e2d636f6044820152651b9d1c9858dd60d21b6064820152608401610d73565b600080846001600160a01b031684604051614ede9190615813565b600060405180830381855af49150503d8060008114614f19576040519150601f19603f3d011682016040523d82523d6000602084013e614f1e565b606091505b50915091506147678282604051806060016040528060278152602001615c7260279139614f70565b60606146a48484600085614f89565b806001600160801b0381168114614f6b57600080fd5b919050565b60608315614f7f575081610d23565b610d238383615064565b606082471015614fea5760405162461bcd60e51b815260206004820152602660248201527f416464726573733a20696e73756666696369656e742062616c616e636520666f6044820152651c8818d85b1b60d21b6064820152608401610d73565b600080866001600160a01b031685876040516150069190615813565b60006040518083038185875af1925050503d8060008114615043576040519150601f19603f3d011682016040523d82523d6000602084013e615048565b606091505b50915091506150598783838761508e565b979650505050505050565b8151156150745781518083602001fd5b8060405162461bcd60e51b8152600401610d7391906158e1565b606083156150fa5782516150f3576001600160a01b0385163b6150f35760405162461bcd60e51b815260206004820152601d60248201527f416464726573733a2063616c6c20746f206e6f6e2d636f6e74726163740000006044820152606401610d73565b50816146a4565b6146a48383615064565b82805461511090615b06565b90600052602060002090601f0160209004810192826151325760008555615178565b82601f1061514b57805160ff1916838001178555615178565b82800160010185558215615178579182015b8281111561517857825182559160200191906001019061515d565b506137629291505b808211156137625760008155600101615180565b8051614f6b81615c24565b60008083601f8401126151b0578182fd5b50813567ffffffffffffffff8111156151c7578182fd5b6020830191508360208285010111156151df57600080fd5b9250929050565b600082601f8301126151f6578081fd5b813561520961520482615a28565b6159f7565b81815284602083860101111561521d578283fd5b816020850160208301379081016020019190915292915050565b600082601f830112615247578081fd5b815161525561520482615a28565b818152846020838601011115615269578283fd5b6146a4826020830160208701615ada565b80516001600160801b0381168114614f6b57600080fd5b6000602082840312156152a2578081fd5b8135610d2381615c0f565b6000602082840312156152be578081fd5b8151610d2381615c0f565b6000806000606084860312156152dd578182fd5b83516152e881615c0f565b602085015190935067ffffffffffffffff80821115615305578384fd5b61531187838801615237565b93506040860151915080821115615326578283fd5b5061533386828701615237565b9150509250925092565b6000806040838503121561534f578182fd5b823561535a81615c0f565b9150602083013561536a81615c0f565b809150509250929050565b600080600060608486031215615389578283fd5b833561539481615c0f565b925060208401356153a481615c0f565b929592945050506040919091013590565b600080604083850312156153c7578182fd5b82356153d281615c0f565b9150602083013567ffffffffffffffff8111156153ed578182fd5b6153f9858286016151e6565b9150509250929050565b600080600060608486031215615417578081fd5b833561542281615c0f565b9250602084013561543281615c32565b9150604084013567ffffffffffffffff81111561544d578182fd5b615333868287016151e6565b6000806040838503121561546b578182fd5b823561547681615c0f565b946020939093013593505050565b600060208284031215615495578081fd5b8151610d2381615c24565b6000806000606084860312156154b4578081fd5b83356154bf81615c24565b92506020840135915060408401356154d681615c0f565b809150509250925092565b6000602082840312156154f2578081fd5b5051919050565b6000806040838503121561550b578182fd5b823561551681615c32565b9150602083013561536a81615c32565b6000806000806080858703121561553b578182fd5b843561554681615c32565b9350602085013561555681615c32565b93969395505050506040820135916060013590565b6000806040838503121561557d578182fd5b505080516020909101519092909150565b600080600080606085870312156155a3578182fd5b8435935060208501359250604085013567ffffffffffffffff8111156155c7578283fd5b6155d38782880161519f565b95989497509550505050565b600080600080600080600080610100898b0312156155fb578586fd5b6156048961527a565b9750602089015180600f0b8114615619578687fd5b80975050604089015195506060890151945060808901518060060b811461563e578485fd5b60a08a015190945061564f81615c0f565b60c08a015190935063ffffffff81168114615668578283fd5b915061567660e08a01615194565b90509295985092959890939650565b60008060408385031215615697578182fd5b6156a08361527a565b91506156ae6020840161527a565b90509250929050565b600080600080600060a086880312156156ce578283fd5b6156d78661527a565b945060208601519350604086015192506156f36060870161527a565b91506157016080870161527a565b90509295509295909350565b600080600080600080600060e0888a031215615727578081fd5b875161573281615c0f565b602089015190975061574381615c32565b604089015190965061575481615c41565b606089015190955061576581615c41565b608089015190945061577681615c41565b60a089015190935060ff8116811461578c578182fd5b60c089015190925061579d81615c24565b8091505092959891949750929550565b600080604083850312156157bf578182fd5b82356157ca81615c41565b9150602083013561536a81615c41565b6000602082840312156157eb578081fd5b5035919050565b60008060408385031215615804578182fd5b50508035926020909101359150565b60008251615825818460208701615ada565b9190910192915050565b6001600160a01b03949094168452600292830b6020850152910b60408301526001600160801b0316606082015260a06080820181905260009082015260c00190565b602080825282518282018190526000919060409081850190868401855b828110156158c657815180516001600160a01b031685528681015187860152850151858501526060909301929085019060010161588e565b5091979650505050505050565b60029190910b815260200190565b6020815260008251806020840152615900816040850160208701615ada565b601f01601f19169190910160400192915050565b6020808252602c908201527f46756e6374696f6e206d7573742062652063616c6c6564207468726f7567682060408201526b19195b1959d85d1958d85b1b60a21b606082015260800190565b6020808252602c908201527f46756e6374696f6e206d7573742062652063616c6c6564207468726f7567682060408201526b6163746976652070726f787960a01b606082015260800190565b6020808252602b908201527f496e697469616c697a61626c653a20636f6e7472616374206973206e6f74206960408201526a6e697469616c697a696e6760a81b606082015260800190565b604051601f8201601f1916810167ffffffffffffffff81118282101715615a2057615a20615bf9565b604052919050565b600067ffffffffffffffff821115615a4257615a42615bf9565b50601f01601f191660200190565b60008219821115615a6357615a63615bcd565b500190565b600082615a7757615a77615be3565b500490565b6000816000190483118215151615615a9657615a96615bcd565b500290565b60006001600160a01b0383811690831681811015615abb57615abb615bcd565b039392505050565b600082821015615ad557615ad5615bcd565b500390565b60005b83811015615af5578181015183820152602001615add565b838111156111c05750506000910152565b600181811c90821680615b1a57607f821691505b60208210811415615b3b57634e487b7160e01b600052602260045260246000fd5b50919050565b6000600019821415615b5557615b55615bcd565b5060010190565b60008260020b80615b6f57615b6f615be3565b808360020b0791505092915050565b600082615b8d57615b8d615be3565b500690565b60008160020b627fffff19811415615bac57615bac615bcd565b9003919050565b6000600160ff1b821415615bc957615bc9615bcd565b0390565b634e487b7160e01b600052601160045260246000fd5b634e487b7160e01b600052601260045260246000fd5b634e487b7160e01b600052604160045260246000fd5b6001600160a01b0381168114610e1057600080fd5b8015158114610e1057600080fd5b8060020b8114610e1057600080fd5b61ffff81168114610e1057600080fdfe360894a13ba1a3210667c828492db98dca3e2076cc3735a920a3ca505d382bbc416464726573733a206c6f772d6c6576656c2064656c65676174652063616c6c206661696c6564a2646970667358221220892db0a1642b6366f8c2c834b6bb87140ac249af3b642d2f733cba05bd55652764736f6c63430008040033",
  "linkReferences": {},
  "deployedLinkReferences": {}
}