{
  "_format": "hh-sol-artifact-1",
  "contractName": "RangeProtocolVault",
  "sourceName": "contracts/RangeProtocolVault.sol",
  "abi": [
    {
      "inputs": [],
      "stateMutability": "nonpayable",
      "type": "constructor"
    },
    {
      "inputs": [],
      "name": "InvalidBurnAmount",
      "type": "error"
    },
    {
      "inputs": [],
      "name": "InvalidManagingFee",
      "type": "error"
    },
    {
      "inputs": [],
      "name": "InvalidMintAmount",
      "type": "error"
    },
    {
      "inputs": [],
      "name": "InvalidPerformanceFee",
      "type": "error"
    },
    {
      "inputs": [],
      "name": "InvalidTicksSpacing",
      "type": "error"
    },
    {
      "inputs": [],
      "name": "LiquidityAlreadyAdded",
      "type": "error"
    },
    {
      "inputs": [],
      "name": "MintNotAllowed",
      "type": "error"
    },
    {
      "inputs": [],
      "name": "MintNotStarted",
      "type": "error"
    },
    {
      "inputs": [],
      "name": "NotAllowedToUpdateTicks",
      "type": "error"
    },
    {
      "inputs": [],
      "name": "OnlyFactoryAllowed",
      "type": "error"
    },
    {
      "inputs": [],
      "name": "OnlyPoolAllowed",
      "type": "error"
    },
    {
      "inputs": [],
      "name": "SlippageExceedThreshold",
      "type": "error"
    },
    {
      "inputs": [],
      "name": "TicksOutOfRange",
      "type": "error"
    },
    {
      "inputs": [],
      "name": "ZeroManagerAddress",
      "type": "error"
    },
    {
      "inputs": [],
      "name": "ZeroMintAmount",
      "type": "error"
    },
    {
      "inputs": [],
      "name": "ZeroUnderlyingBalance",
      "type": "error"
    },
    {
      "anonymous": false,
      "inputs": [
        {
          "indexed": false,
          "internalType": "address",
          "name": "previousAdmin",
          "type": "address"
        },
        {
          "indexed": false,
          "internalType": "address",
          "name": "newAdmin",
          "type": "address"
        }
      ],
      "name": "AdminChanged",
      "type": "event"
    },
    {
      "anonymous": false,
      "inputs": [
        {
          "indexed": true,
          "internalType": "address",
          "name": "owner",
          "type": "address"
        },
        {
          "indexed": true,
          "internalType": "address",
          "name": "spender",
          "type": "address"
        },
        {
          "indexed": false,
          "internalType": "uint256",
          "name": "value",
          "type": "uint256"
        }
      ],
      "name": "Approval",
      "type": "event"
    },
    {
      "anonymous": false,
      "inputs": [
        {
          "indexed": true,
          "internalType": "address",
          "name": "beacon",
          "type": "address"
        }
      ],
      "name": "BeaconUpgraded",
      "type": "event"
    },
    {
      "anonymous": false,
      "inputs": [
        {
          "indexed": true,
          "internalType": "address",
          "name": "receiver",
          "type": "address"
        },
        {
          "indexed": false,
          "internalType": "uint256",
          "name": "burnAmount",
          "type": "uint256"
        },
        {
          "indexed": false,
          "internalType": "uint256",
          "name": "amount0Out",
          "type": "uint256"
        },
        {
          "indexed": false,
          "internalType": "uint256",
          "name": "amount1Out",
          "type": "uint256"
        }
      ],
      "name": "Burned",
      "type": "event"
    },
    {
      "anonymous": false,
      "inputs": [
        {
          "indexed": false,
          "internalType": "uint256",
          "name": "feesEarned0",
          "type": "uint256"
        },
        {
          "indexed": false,
          "internalType": "uint256",
          "name": "feesEarned1",
          "type": "uint256"
        }
      ],
      "name": "FeesEarned",
      "type": "event"
    },
    {
      "anonymous": false,
      "inputs": [
        {
          "indexed": false,
          "internalType": "uint16",
          "name": "managingFee",
          "type": "uint16"
        },
        {
          "indexed": false,
          "internalType": "uint16",
          "name": "performanceFee",
          "type": "uint16"
        }
      ],
      "name": "FeesUpdated",
      "type": "event"
    },
    {
      "anonymous": false,
      "inputs": [
        {
          "indexed": false,
          "internalType": "bool",
          "name": "inThePosition",
          "type": "bool"
        }
      ],
      "name": "InThePositionStatusSet",
      "type": "event"
    },
    {
      "anonymous": false,
      "inputs": [
        {
          "indexed": false,
          "internalType": "uint8",
          "name": "version",
          "type": "uint8"
        }
      ],
      "name": "Initialized",
      "type": "event"
    },
    {
      "anonymous": false,
      "inputs": [
        {
          "indexed": false,
          "internalType": "uint256",
          "name": "liquidityMinted",
          "type": "uint256"
        },
        {
          "indexed": false,
          "internalType": "int24",
          "name": "tickLower",
          "type": "int24"
        },
        {
          "indexed": false,
          "internalType": "int24",
          "name": "tickUpper",
          "type": "int24"
        },
        {
          "indexed": false,
          "internalType": "uint256",
          "name": "amount0In",
          "type": "uint256"
        },
        {
          "indexed": false,
          "internalType": "uint256",
          "name": "amount1In",
          "type": "uint256"
        }
      ],
      "name": "LiquidityAdded",
      "type": "event"
    },
    {
      "anonymous": false,
      "inputs": [
        {
          "indexed": false,
          "internalType": "uint256",
          "name": "liquidityRemoved",
          "type": "uint256"
        },
        {
          "indexed": false,
          "internalType": "int24",
          "name": "tickLower",
          "type": "int24"
        },
        {
          "indexed": false,
          "internalType": "int24",
          "name": "tickUpper",
          "type": "int24"
        },
        {
          "indexed": false,
          "internalType": "uint256",
          "name": "amount0Out",
          "type": "uint256"
        },
        {
          "indexed": false,
          "internalType": "uint256",
          "name": "amount1Out",
          "type": "uint256"
        }
      ],
      "name": "LiquidityRemoved",
      "type": "event"
    },
    {
      "anonymous": false,
      "inputs": [],
      "name": "MintStarted",
      "type": "event"
    },
    {
      "anonymous": false,
      "inputs": [
        {
          "indexed": true,
          "internalType": "address",
          "name": "receiver",
          "type": "address"
        },
        {
          "indexed": false,
          "internalType": "uint256",
          "name": "mintAmount",
          "type": "uint256"
        },
        {
          "indexed": false,
          "internalType": "uint256",
          "name": "amount0In",
          "type": "uint256"
        },
        {
          "indexed": false,
          "internalType": "uint256",
          "name": "amount1In",
          "type": "uint256"
        }
      ],
      "name": "Minted",
      "type": "event"
    },
    {
      "anonymous": false,
      "inputs": [
        {
          "indexed": true,
          "internalType": "address",
          "name": "previousManager",
          "type": "address"
        },
        {
          "indexed": true,
          "internalType": "address",
          "name": "newManager",
          "type": "address"
        }
      ],
      "name": "OwnershipTransferred",
      "type": "event"
    },
    {
      "anonymous": false,
      "inputs": [
        {
          "indexed": false,
          "internalType": "address",
          "name": "account",
          "type": "address"
        }
      ],
      "name": "Paused",
      "type": "event"
    },
    {
      "anonymous": false,
      "inputs": [
        {
          "indexed": false,
          "internalType": "bool",
          "name": "zeroForOne",
          "type": "bool"
        },
        {
          "indexed": false,
          "internalType": "int256",
          "name": "amount0",
          "type": "int256"
        },
        {
          "indexed": false,
          "internalType": "int256",
          "name": "amount1",
          "type": "int256"
        }
      ],
      "name": "Swapped",
      "type": "event"
    },
    {
      "anonymous": false,
      "inputs": [
        {
          "indexed": false,
          "internalType": "int24",
          "name": "lowerTick",
          "type": "int24"
        },
        {
          "indexed": false,
          "internalType": "int24",
          "name": "upperTick",
          "type": "int24"
        }
      ],
      "name": "TicksSet",
      "type": "event"
    },
    {
      "anonymous": false,
      "inputs": [
        {
          "indexed": true,
          "internalType": "address",
          "name": "from",
          "type": "address"
        },
        {
          "indexed": true,
          "internalType": "address",
          "name": "to",
          "type": "address"
        },
        {
          "indexed": false,
          "internalType": "uint256",
          "name": "value",
          "type": "uint256"
        }
      ],
      "name": "Transfer",
      "type": "event"
    },
    {
      "anonymous": false,
      "inputs": [
        {
          "indexed": false,
          "internalType": "address",
          "name": "account",
          "type": "address"
        }
      ],
      "name": "Unpaused",
      "type": "event"
    },
    {
      "anonymous": false,
      "inputs": [
        {
          "indexed": true,
          "internalType": "address",
          "name": "implementation",
          "type": "address"
        }
      ],
      "name": "Upgraded",
      "type": "event"
    },
    {
      "inputs": [
        {
          "internalType": "int24",
          "name": "newLowerTick",
          "type": "int24"
        },
        {
          "internalType": "int24",
          "name": "newUpperTick",
          "type": "int24"
        },
        {
          "internalType": "uint256",
          "name": "amount0",
          "type": "uint256"
        },
        {
          "internalType": "uint256",
          "name": "amount1",
          "type": "uint256"
        },
        {
          "internalType": "uint256[2]",
          "name": "maxAmounts",
          "type": "uint256[2]"
        }
      ],
      "name": "addLiquidity",
      "outputs": [
        {
          "internalType": "uint256",
          "name": "remainingAmount0",
          "type": "uint256"
        },
        {
          "internalType": "uint256",
          "name": "remainingAmount1",
          "type": "uint256"
        }
      ],
      "stateMutability": "nonpayable",
      "type": "function"
    },
    {
      "inputs": [
        {
          "internalType": "address",
          "name": "owner",
          "type": "address"
        },
        {
          "internalType": "address",
          "name": "spender",
          "type": "address"
        }
      ],
      "name": "allowance",
      "outputs": [
        {
          "internalType": "uint256",
          "name": "",
          "type": "uint256"
        }
      ],
      "stateMutability": "view",
      "type": "function"
    },
    {
      "inputs": [
        {
          "internalType": "address",
          "name": "spender",
          "type": "address"
        },
        {
          "internalType": "uint256",
          "name": "amount",
          "type": "uint256"
        }
      ],
      "name": "approve",
      "outputs": [
        {
          "internalType": "bool",
          "name": "",
          "type": "bool"
        }
      ],
      "stateMutability": "nonpayable",
      "type": "function"
    },
    {
      "inputs": [
        {
          "internalType": "address",
          "name": "account",
          "type": "address"
        }
      ],
      "name": "balanceOf",
      "outputs": [
        {
          "internalType": "uint256",
          "name": "",
          "type": "uint256"
        }
      ],
      "stateMutability": "view",
      "type": "function"
    },
    {
      "inputs": [
        {
          "internalType": "uint256",
          "name": "burnAmount",
          "type": "uint256"
        },
        {
          "internalType": "uint256[2]",
          "name": "minAmounts",
          "type": "uint256[2]"
        }
      ],
      "name": "burn",
      "outputs": [
        {
          "internalType": "uint256",
          "name": "amount0",
          "type": "uint256"
        },
        {
          "internalType": "uint256",
          "name": "amount1",
          "type": "uint256"
        }
      ],
      "stateMutability": "nonpayable",
      "type": "function"
    },
    {
      "inputs": [],
      "name": "collectManager",
      "outputs": [],
      "stateMutability": "nonpayable",
      "type": "function"
    },
    {
      "inputs": [],
      "name": "decimals",
      "outputs": [
        {
          "internalType": "uint8",
          "name": "",
          "type": "uint8"
        }
      ],
      "stateMutability": "view",
      "type": "function"
    },
    {
      "inputs": [
        {
          "internalType": "address",
          "name": "spender",
          "type": "address"
        },
        {
          "internalType": "uint256",
          "name": "subtractedValue",
          "type": "uint256"
        }
      ],
      "name": "decreaseAllowance",
      "outputs": [
        {
          "internalType": "bool",
          "name": "",
          "type": "bool"
        }
      ],
      "stateMutability": "nonpayable",
      "type": "function"
    },
    {
      "inputs": [],
      "name": "factory",
      "outputs": [
        {
          "internalType": "address",
          "name": "",
          "type": "address"
        }
      ],
      "stateMutability": "view",
      "type": "function"
    },
    {
      "inputs": [
        {
          "internalType": "uint256",
          "name": "amount0Owed",
          "type": "uint256"
        },
        {
          "internalType": "uint256",
          "name": "amount1Owed",
          "type": "uint256"
        },
        {
          "internalType": "bytes",
          "name": "",
          "type": "bytes"
        }
      ],
      "name": "fusionXV3MintCallback",
      "outputs": [],
      "stateMutability": "nonpayable",
      "type": "function"
    },
    {
      "inputs": [
        {
          "internalType": "int256",
          "name": "amount0Delta",
          "type": "int256"
        },
        {
          "internalType": "int256",
          "name": "amount1Delta",
          "type": "int256"
        },
        {
          "internalType": "bytes",
          "name": "",
          "type": "bytes"
        }
      ],
      "name": "fusionXV3SwapCallback",
      "outputs": [],
      "stateMutability": "nonpayable",
      "type": "function"
    },
    {
      "inputs": [],
      "name": "getCurrentFees",
      "outputs": [
        {
          "internalType": "uint256",
          "name": "fee0",
          "type": "uint256"
        },
        {
          "internalType": "uint256",
          "name": "fee1",
          "type": "uint256"
        }
      ],
      "stateMutability": "view",
      "type": "function"
    },
    {
      "inputs": [
        {
          "internalType": "uint256",
          "name": "amount0Max",
          "type": "uint256"
        },
        {
          "internalType": "uint256",
          "name": "amount1Max",
          "type": "uint256"
        }
      ],
      "name": "getMintAmounts",
      "outputs": [
        {
          "internalType": "uint256",
          "name": "amount0",
          "type": "uint256"
        },
        {
          "internalType": "uint256",
          "name": "amount1",
          "type": "uint256"
        },
        {
          "internalType": "uint256",
          "name": "mintAmount",
          "type": "uint256"
        }
      ],
      "stateMutability": "view",
      "type": "function"
    },
    {
      "inputs": [],
      "name": "getPositionID",
      "outputs": [
        {
          "internalType": "bytes32",
          "name": "positionID",
          "type": "bytes32"
        }
      ],
      "stateMutability": "view",
      "type": "function"
    },
    {
      "inputs": [],
      "name": "getUnderlyingBalances",
      "outputs": [
        {
          "internalType": "uint256",
          "name": "amount0Current",
          "type": "uint256"
        },
        {
          "internalType": "uint256",
          "name": "amount1Current",
          "type": "uint256"
        }
      ],
      "stateMutability": "view",
      "type": "function"
    },
    {
      "inputs": [
        {
          "internalType": "uint256",
          "name": "shares",
          "type": "uint256"
        }
      ],
      "name": "getUnderlyingBalancesByShare",
      "outputs": [
        {
          "internalType": "uint256",
          "name": "amount0",
          "type": "uint256"
        },
        {
          "internalType": "uint256",
          "name": "amount1",
          "type": "uint256"
        }
      ],
      "stateMutability": "view",
      "type": "function"
    },
    {
      "inputs": [
        {
          "internalType": "uint256",
          "name": "fromIdx",
          "type": "uint256"
        },
        {
          "internalType": "uint256",
          "name": "toIdx",
          "type": "uint256"
        }
      ],
      "name": "getUserVaults",
      "outputs": [
        {
          "components": [
            {
              "internalType": "address",
              "name": "user",
              "type": "address"
            },
            {
              "internalType": "uint256",
              "name": "token0",
              "type": "uint256"
            },
            {
              "internalType": "uint256",
              "name": "token1",
              "type": "uint256"
            }
          ],
          "internalType": "struct IRangeProtocolVault.UserVaultInfo[]",
          "name": "",
          "type": "tuple[]"
        }
      ],
      "stateMutability": "view",
      "type": "function"
    },
    {
      "inputs": [],
      "name": "inThePosition",
      "outputs": [
        {
          "internalType": "bool",
          "name": "",
          "type": "bool"
        }
      ],
      "stateMutability": "view",
      "type": "function"
    },
    {
      "inputs": [
        {
          "internalType": "address",
          "name": "spender",
          "type": "address"
        },
        {
          "internalType": "uint256",
          "name": "addedValue",
          "type": "uint256"
        }
      ],
      "name": "increaseAllowance",
      "outputs": [
        {
          "internalType": "bool",
          "name": "",
          "type": "bool"
        }
      ],
      "stateMutability": "nonpayable",
      "type": "function"
    },
    {
      "inputs": [
        {
          "internalType": "address",
          "name": "_pool",
          "type": "address"
        },
        {
          "internalType": "int24",
          "name": "_tickSpacing",
          "type": "int24"
        },
        {
          "internalType": "bytes",
          "name": "data",
          "type": "bytes"
        }
      ],
      "name": "initialize",
      "outputs": [],
      "stateMutability": "nonpayable",
      "type": "function"
    },
    {
      "inputs": [],
      "name": "lowerTick",
      "outputs": [
        {
          "internalType": "int24",
          "name": "",
          "type": "int24"
        }
      ],
      "stateMutability": "view",
      "type": "function"
    },
    {
      "inputs": [],
      "name": "manager",
      "outputs": [
        {
          "internalType": "address",
          "name": "",
          "type": "address"
        }
      ],
      "stateMutability": "view",
      "type": "function"
    },
    {
      "inputs": [],
      "name": "managerBalance0",
      "outputs": [
        {
          "internalType": "uint256",
          "name": "",
          "type": "uint256"
        }
      ],
      "stateMutability": "view",
      "type": "function"
    },
    {
      "inputs": [],
      "name": "managerBalance1",
      "outputs": [
        {
          "internalType": "uint256",
          "name": "",
          "type": "uint256"
        }
      ],
      "stateMutability": "view",
      "type": "function"
    },
    {
      "inputs": [],
      "name": "managingFee",
      "outputs": [
        {
          "internalType": "uint16",
          "name": "",
          "type": "uint16"
        }
      ],
      "stateMutability": "view",
      "type": "function"
    },
    {
      "inputs": [
        {
          "internalType": "uint256",
          "name": "mintAmount",
          "type": "uint256"
        },
        {
          "internalType": "uint256[2]",
          "name": "maxAmounts",
          "type": "uint256[2]"
        }
      ],
      "name": "mint",
      "outputs": [
        {
          "internalType": "uint256",
          "name": "amount0",
          "type": "uint256"
        },
        {
          "internalType": "uint256",
          "name": "amount1",
          "type": "uint256"
        }
      ],
      "stateMutability": "nonpayable",
      "type": "function"
    },
    {
      "inputs": [],
      "name": "mintStarted",
      "outputs": [
        {
          "internalType": "bool",
          "name": "",
          "type": "bool"
        }
      ],
      "stateMutability": "view",
      "type": "function"
    },
    {
      "inputs": [],
      "name": "name",
      "outputs": [
        {
          "internalType": "string",
          "name": "",
          "type": "string"
        }
      ],
      "stateMutability": "view",
      "type": "function"
    },
    {
      "inputs": [],
      "name": "pause",
      "outputs": [],
      "stateMutability": "nonpayable",
      "type": "function"
    },
    {
      "inputs": [],
      "name": "paused",
      "outputs": [
        {
          "internalType": "bool",
          "name": "",
          "type": "bool"
        }
      ],
      "stateMutability": "view",
      "type": "function"
    },
    {
      "inputs": [],
      "name": "performanceFee",
      "outputs": [
        {
          "internalType": "uint16",
          "name": "",
          "type": "uint16"
        }
      ],
      "stateMutability": "view",
      "type": "function"
    },
    {
      "inputs": [],
      "name": "pool",
      "outputs": [
        {
          "internalType": "contract IFusionXV3Pool",
          "name": "",
          "type": "address"
        }
      ],
      "stateMutability": "view",
      "type": "function"
    },
    {
      "inputs": [],
      "name": "proxiableUUID",
      "outputs": [
        {
          "internalType": "bytes32",
          "name": "",
          "type": "bytes32"
        }
      ],
      "stateMutability": "view",
      "type": "function"
    },
    {
      "inputs": [],
      "name": "pullFeeFromPool",
      "outputs": [],
      "stateMutability": "nonpayable",
      "type": "function"
    },
    {
      "inputs": [
        {
          "internalType": "uint256[2]",
          "name": "minAmounts",
          "type": "uint256[2]"
        }
      ],
      "name": "removeLiquidity",
      "outputs": [],
      "stateMutability": "nonpayable",
      "type": "function"
    },
    {
      "inputs": [],
      "name": "renounceOwnership",
      "outputs": [],
      "stateMutability": "nonpayable",
      "type": "function"
    },
    {
      "inputs": [
        {
          "internalType": "bool",
          "name": "zeroForOne",
          "type": "bool"
        },
        {
          "internalType": "int256",
          "name": "swapAmount",
          "type": "int256"
        },
        {
          "internalType": "uint160",
          "name": "sqrtPriceLimitX96",
          "type": "uint160"
        },
        {
          "internalType": "uint256",
          "name": "minAmountIn",
          "type": "uint256"
        }
      ],
      "name": "swap",
      "outputs": [
        {
          "internalType": "int256",
          "name": "amount0",
          "type": "int256"
        },
        {
          "internalType": "int256",
          "name": "amount1",
          "type": "int256"
        }
      ],
      "stateMutability": "nonpayable",
      "type": "function"
    },
    {
      "inputs": [],
      "name": "symbol",
      "outputs": [
        {
          "internalType": "string",
          "name": "",
          "type": "string"
        }
      ],
      "stateMutability": "view",
      "type": "function"
    },
    {
      "inputs": [],
      "name": "tickSpacing",
      "outputs": [
        {
          "internalType": "int24",
          "name": "",
          "type": "int24"
        }
      ],
      "stateMutability": "view",
      "type": "function"
    },
    {
      "inputs": [],
      "name": "token0",
      "outputs": [
        {
          "internalType": "contract IERC20Upgradeable",
          "name": "",
          "type": "address"
        }
      ],
      "stateMutability": "view",
      "type": "function"
    },
    {
      "inputs": [],
      "name": "token1",
      "outputs": [
        {
          "internalType": "contract IERC20Upgradeable",
          "name": "",
          "type": "address"
        }
      ],
      "stateMutability": "view",
      "type": "function"
    },
    {
      "inputs": [],
      "name": "totalSupply",
      "outputs": [
        {
          "internalType": "uint256",
          "name": "",
          "type": "uint256"
        }
      ],
      "stateMutability": "view",
      "type": "function"
    },
    {
      "inputs": [
        {
          "internalType": "address",
          "name": "to",
          "type": "address"
        },
        {
          "internalType": "uint256",
          "name": "amount",
          "type": "uint256"
        }
      ],
      "name": "transfer",
      "outputs": [
        {
          "internalType": "bool",
          "name": "",
          "type": "bool"
        }
      ],
      "stateMutability": "nonpayable",
      "type": "function"
    },
    {
      "inputs": [
        {
          "internalType": "address",
          "name": "from",
          "type": "address"
        },
        {
          "internalType": "address",
          "name": "to",
          "type": "address"
        },
        {
          "internalType": "uint256",
          "name": "amount",
          "type": "uint256"
        }
      ],
      "name": "transferFrom",
      "outputs": [
        {
          "internalType": "bool",
          "name": "",
          "type": "bool"
        }
      ],
      "stateMutability": "nonpayable",
      "type": "function"
    },
    {
      "inputs": [
        {
          "internalType": "address",
          "name": "newManager",
          "type": "address"
        }
      ],
      "name": "transferOwnership",
      "outputs": [],
      "stateMutability": "nonpayable",
      "type": "function"
    },
    {
      "inputs": [],
      "name": "unpause",
      "outputs": [],
      "stateMutability": "nonpayable",
      "type": "function"
    },
    {
      "inputs": [
        {
          "internalType": "uint16",
          "name": "newManagingFee",
          "type": "uint16"
        },
        {
          "internalType": "uint16",
          "name": "newPerformanceFee",
          "type": "uint16"
        }
      ],
      "name": "updateFees",
      "outputs": [],
      "stateMutability": "nonpayable",
      "type": "function"
    },
    {
      "inputs": [
        {
          "internalType": "int24",
          "name": "_lowerTick",
          "type": "int24"
        },
        {
          "internalType": "int24",
          "name": "_upperTick",
          "type": "int24"
        }
      ],
      "name": "updateTicks",
      "outputs": [],
      "stateMutability": "nonpayable",
      "type": "function"
    },
    {
      "inputs": [
        {
          "internalType": "address",
          "name": "newImplementation",
          "type": "address"
        }
      ],
      "name": "upgradeTo",
      "outputs": [],
      "stateMutability": "nonpayable",
      "type": "function"
    },
    {
      "inputs": [
        {
          "internalType": "address",
          "name": "newImplementation",
          "type": "address"
        },
        {
          "internalType": "bytes",
          "name": "data",
          "type": "bytes"
        }
      ],
      "name": "upgradeToAndCall",
      "outputs": [],
      "stateMutability": "payable",
      "type": "function"
    },
    {
      "inputs": [],
      "name": "upperTick",
      "outputs": [
        {
          "internalType": "int24",
          "name": "",
          "type": "int24"
        }
      ],
      "stateMutability": "view",
      "type": "function"
    },
    {
      "inputs": [],
      "name": "userCount",
      "outputs": [
        {
          "internalType": "uint256",
          "name": "",
          "type": "uint256"
        }
      ],
      "stateMutability": "view",
      "type": "function"
    },
    {
      "inputs": [
        {
          "internalType": "address",
          "name": "",
          "type": "address"
        }
      ],
      "name": "userVaults",
      "outputs": [
        {
          "internalType": "bool",
          "name": "exists",
          "type": "bool"
        },
        {
          "internalType": "uint256",
          "name": "token0",
          "type": "uint256"
        },
        {
          "internalType": "uint256",
          "name": "token1",
          "type": "uint256"
        }
      ],
      "stateMutability": "view",
      "type": "function"
    },
    {
      "inputs": [
        {
          "internalType": "uint256",
          "name": "",
          "type": "uint256"
        }
      ],
      "name": "users",
      "outputs": [
        {
          "internalType": "address",
          "name": "",
          "type": "address"
        }
      ],
      "stateMutability": "view",
      "type": "function"
    }
  ],
  "bytecode": "0x60a06040523060601b6080523480156200001857600080fd5b506200002362000029565b620000eb565b600054610100900460ff1615620000965760405162461bcd60e51b815260206004820152602760248201527f496e697469616c697a61626c653a20636f6e747261637420697320696e697469604482015266616c697a696e6760c81b606482015260840160405180910390fd5b60005460ff9081161015620000e9576000805460ff191660ff9081179091556040519081527f7f26b83ff96e1f2b6a682f133852f6798a09c465da95921460cefb38474024989060200160405180910390a15b565b60805160601c615f886200012660003960008181610b5b01528181610ba40152818161102d0152818161106d01526111860152615f886000f3fe6080604052600436106102d55760003560e01c8063715018a61161017b578063a9722cf3116100d7578063d7e458b511610085578063d7e458b51461090a578063dd62ed3e1461091f578063df28408a1461093f578063e059c66014610954578063f173c7f514610974578063f2fde38b14610994578063f3d2350e146109b457600080fd5b8063a9722cf314610817578063ae067e0f14610839578063b341ee9f14610859578063c45a015514610879578063c653089f1461089a578063d0c93a7c146108c7578063d21220a7146108e957600080fd5b806395d89b411161013457806395d89b411461072c5780639894f21a146107415780639b1344ac1461077c5780639cd643cc146107975780639d6933ae146107b7578063a457c2d7146107d7578063a9059cbb146107f757600080fd5b8063715018a61461068057806371908a0314610695578063727dd228146106aa5780638456cb59146106df57806387788782146106f45780639403c1ae1461071757600080fd5b806339509351116102355780634f1ef286116101e35780634f1ef286146105a95780634fa62c5f146105bc57806352d1902d146105dc5780635c975abb146105f1578063601b48a41461060a57806363e968361461064057806370a082311461066057600080fd5b806339509351146104dd5780633ad7cae0146104fd5780633d048c271461051d5780633f4ba83a1461053d5780634043f5ca1461055257806342fb9d4414610574578063481c6a751461058b57600080fd5b806316f0115b1161029257806316f0115b146103c457806318160ddd146103ec57806323b872dd146104015780632958d03114610421578063313ce5671461047f5780633659cfe61461049b578063365b98b2146104bd57600080fd5b8063065756db146102da57806306fdde031461030457806307973ccf14610326578063095ea7b31461033c5780630dfe16811461036c5780631322d9541461039a575b600080fd5b3480156102e657600080fd5b506102f16101635481565b6040519081526020015b60405180910390f35b34801561031057600080fd5b506103196109d4565b6040516102fb9190615b29565b34801561033257600080fd5b50610166546102f1565b34801561034857600080fd5b5061035c610357366004615650565b610a66565b60405190151581526020016102fb565b34801561037857600080fd5b506101605461038d906001600160a01b031681565b6040516102fb9190615a63565b3480156103a657600080fd5b506103af610a80565b604080519283526020830191909152016102fb565b3480156103d057600080fd5b5061015f5461038d90600160581b90046001600160a01b031681565b3480156103f857600080fd5b5060fd546102f1565b34801561040d57600080fd5b5061035c61041c36600461556e565b610b2a565b34801561042d57600080fd5b5061046261043c36600461548b565b6101656020526000908152604090208054600182015460029092015460ff909116919083565b6040805193151584526020840192909252908201526060016102fb565b34801561048b57600080fd5b50604051601281526020016102fb565b3480156104a757600080fd5b506104bb6104b636600461548b565b610b50565b005b3480156104c957600080fd5b5061038d6104d83660046159eb565b610c22565b3480156104e957600080fd5b5061035c6104f8366004615650565b610c4d565b34801561050957600080fd5b506104bb6105183660046157bc565b610c6f565b34801561052957600080fd5b506104bb6105383660046155fb565b610ce3565b34801561054957600080fd5b506104bb611010565b34801561055e57600080fd5b5061015f5461035c90600160301b900460ff1681565b34801561058057600080fd5b506102f16101645481565b34801561059757600080fd5b5060c9546001600160a01b031661038d565b6104bb6105b73660046155ae565b611022565b3480156105c857600080fd5b506104bb6105d7366004615711565b6110dc565b3480156105e857600080fd5b506102f1611179565b3480156105fd57600080fd5b5061012d5460ff1661035c565b34801561061657600080fd5b506101625461062d90600160a01b900461ffff1681565b60405161ffff90911681526020016102fb565b34801561064c57600080fd5b506103af61065b36600461573e565b611227565b34801561066c57600080fd5b506102f161067b36600461548b565b61145d565b34801561068c57600080fd5b506104bb611478565b3480156106a157600080fd5b506103af61148a565b3480156106b657600080fd5b5061015f546106cc906301000000900460020b81565b60405160029190910b81526020016102fb565b3480156106eb57600080fd5b506104bb61162a565b34801561070057600080fd5b506101625461062d90600160b01b900461ffff1681565b34801561072357600080fd5b506104bb61163a565b34801561073857600080fd5b506103196116b4565b34801561074d57600080fd5b5061076161075c366004615a26565b6116c3565b604080519384526020840192909252908201526060016102fb565b34801561078857600080fd5b5061015f546106cc9060020b81565b3480156107a357600080fd5b506104bb6107b236600461567b565b611862565b3480156107c357600080fd5b506103af6107d2366004615a03565b611a56565b3480156107e357600080fd5b5061035c6107f2366004615650565b611f2e565b34801561080357600080fd5b5061035c610812366004615650565b611fb4565b34801561082357600080fd5b5061015f5461035c90600160381b900460ff1681565b34801561084557600080fd5b506104bb6108543660046157bc565b611fc2565b34801561086557600080fd5b506103af610874366004615a03565b61203b565b34801561088557600080fd5b506101625461038d906001600160a01b031681565b3480156108a657600080fd5b506108ba6108b5366004615a26565b612457565b6040516102fb9190615ab9565b3480156108d357600080fd5b5061015f546106cc90600160401b900460020b81565b3480156108f557600080fd5b506101615461038d906001600160a01b031681565b34801561091657600080fd5b506104bb612634565b34801561092b57600080fd5b506102f161093a366004615536565b612644565b34801561094b57600080fd5b506102f161266f565b34801561096057600080fd5b506103af61096f3660046156b2565b6126d4565b34801561098057600080fd5b506103af61098f3660046159eb565b612827565b3480156109a057600080fd5b506104bb6109af36600461548b565b612893565b3480156109c057600080fd5b506104bb6109cf3660046159be565b61290b565b606060fe80546109e390615d80565b80601f0160208091040260200160405190810160405280929190818152602001828054610a0f90615d80565b8015610a5c5780601f10610a3157610100808354040283529160200191610a5c565b820191906000526020600020905b815481529060010190602001808311610a3f57829003601f168201915b5050505050905090565b600033610a7481858561291d565b60019150505b92915050565b60008060008061015f600b9054906101000a90046001600160a01b03166001600160a01b0316633850c7bd6040518163ffffffff1660e01b815260040160e06040518083038186803b158015610ad557600080fd5b505afa158015610ae9573d6000803e3d6000fd5b505050506040513d601f19601f82011682018060405250810190610b0d9190615927565b505050505091509150610b208282612a41565b9350935050509091565b600033610b38858285612d1e565b610b43858585612d92565b60019150505b9392505050565b306001600160a01b037f0000000000000000000000000000000000000000000000000000000000000000161415610ba25760405162461bcd60e51b8152600401610b9990615b5c565b60405180910390fd5b7f00000000000000000000000000000000000000000000000000000000000000006001600160a01b0316610bd4612f36565b6001600160a01b031614610bfa5760405162461bcd60e51b8152600401610b9990615ba8565b610c0381612f52565b60408051600080825260208201909252610c1f91839190612f7e565b50565b6101668181548110610c3357600080fd5b6000918252602090912001546001600160a01b0316905081565b600033610a74818585610c608383612644565b610c6a9190615cca565b61291d565b61015f54600160581b90046001600160a01b03163314610ca157604051620b7d9960e41b815260040160405180910390fd5b8315610cbf5761016054610cbf906001600160a01b031633866130fd565b8215610cdd5761016154610cdd906001600160a01b031633856130fd565b50505050565b600054610100900460ff1615808015610d035750600054600160ff909116105b80610d1d5750303b158015610d1d575060005460ff166001145b610d805760405162461bcd60e51b815260206004820152602e60248201527f496e697469616c697a61626c653a20636f6e747261637420697320616c72656160448201526d191e481a5b9a5d1a585b1a5e995960921b6064820152608401610b99565b6000805460ff191660011790558015610da3576000805461ff0019166101001790555b600080600084806020019051810190610dbc91906154c3565b919450925090506001600160a01b038316610dea57604051636ba0d85d60e11b815260040160405180910390fd5b610df2613160565b610dfa613187565b610e026131b6565b610e0c82826131e5565b610e14613216565b610e1d83613245565b8661015f600b6101000a8154816001600160a01b0302191690836001600160a01b0316021790555061015f600b9054906101000a90046001600160a01b03166001600160a01b0316630dfe16816040518163ffffffff1660e01b815260040160206040518083038186803b158015610e9457600080fd5b505afa158015610ea8573d6000803e3d6000fd5b505050506040513d601f19601f82011682018060405250810190610ecc91906154a7565b61016080546001600160a01b0319166001600160a01b0392831617905561015f546040805163d21220a760e01b81529051600160581b9092049092169163d21220a7916004808301926020929190829003018186803b158015610f2e57600080fd5b505afa158015610f42573d6000803e3d6000fd5b505050506040513d601f19601f82011682018060405250810190610f6691906154a7565b61016180546001600160a01b03929092166001600160a01b031992831617905561015f8054600289900b62ffffff16600160401b0262ffffff60401b19909116179055610162805490911633179055610fc260006103e8613297565b5050508015610cdd576000805461ff0019169055604051600181527f7f26b83ff96e1f2b6a682f133852f6798a09c465da95921460cefb38474024989060200160405180910390a150505050565b61101861336e565b6110206133d3565b565b306001600160a01b037f000000000000000000000000000000000000000000000000000000000000000016141561106b5760405162461bcd60e51b8152600401610b9990615b5c565b7f00000000000000000000000000000000000000000000000000000000000000006001600160a01b031661109d612f36565b6001600160a01b0316146110c35760405162461bcd60e51b8152600401610b9990615ba8565b6110cc82612f52565b6110d882826001612f7e565b5050565b6110e461336e565b60fd541515806110fe575061015f54600160301b900460ff165b1561111c57604051632a2c70bb60e11b815260040160405180910390fd5b6111268282613420565b61015f54600160381b900460ff166110d85761015f805460ff60381b1916600160381b1790556040517f452a344f03203071e1daf66e007976c85cb2380deabf1c91f3c4fb1fca41204990600090a15050565b6000306001600160a01b037f000000000000000000000000000000000000000000000000000000000000000016146112145760405162461bcd60e51b815260206004820152603860248201527f555550535570677261646561626c653a206d757374206e6f742062652063616c6044820152771b1959081d1a1c9bdd59da0819195b1959d85d1958d85b1b60421b6064820152608401610b99565b50600080516020615ecc83398151915290565b60008061123261336e565b61015f54600160301b900460ff161561125e57604051630fd02b6d60e41b815260040160405180910390fd5b600061015f600b9054906101000a90046001600160a01b03166001600160a01b0316633850c7bd6040518163ffffffff1660e01b815260040160e06040518083038186803b1580156112af57600080fd5b505afa1580156112c3573d6000803e3d6000fd5b505050506040513d601f19601f820116820180604052508101906112e79190615927565b50505050505090506000611314826113018b60020b6134e0565b61130d8b60020b6134e0565b8a8a6138f3565b90506001600160801b038116156114515761015f54604051633c8a7d8d60e01b81526000918291600160581b9091046001600160a01b031690633c8a7d8d906113679030908f908f908990600401615a77565b6040805180830381600087803b15801561138057600080fd5b505af1158015611394573d6000803e3d6000fd5b505050506040513d601f19601f820116820180604052508101906113b89190615799565b909250905086358211806113cf5750602087013581115b156113ed576040516374f9a6e960e11b815260040160405180910390fd5b6113f78b8b613420565b7ffa715a0b1bc7287b5d3581c11478041b0455aad0c17361fc1e55fffbdd4b6c4f838c8c858560405161142e959493929190615c3f565b60405180910390a1611440828a615d3d565b955061144c8189615d3d565b945050505b50509550959350505050565b6001600160a01b0316600090815260fb602052604090205490565b61148061336e565b6110206000613245565b600080600061015f600b9054906101000a90046001600160a01b03166001600160a01b0316633850c7bd6040518163ffffffff1660e01b815260040160e06040518083038186803b1580156114de57600080fd5b505afa1580156114f2573d6000803e3d6000fd5b505050506040513d601f19601f820116820180604052508101906115169190615927565b5050505050915050600080600080600061015f600b9054906101000a90046001600160a01b03166001600160a01b031663514ea4bf61155361266f565b6040518263ffffffff1660e01b815260040161157191815260200190565b60a06040518083038186803b15801561158957600080fd5b505afa15801561159d573d6000803e3d6000fd5b505050506040513d601f19601f820116820180604052508101906115c191906158dd565b94509450945094509450816001600160801b03166115e260018689896139b7565b6115ec9190615cca565b9750806001600160801b031661160560008589896139b7565b61160f9190615cca565b965061161b8888613db9565b90999098509650505050505050565b61163261336e565b611020613e24565b61164261336e565b610163805461016480546000938490559290559081156116855761168561167160c9546001600160a01b031690565b610160546001600160a01b031690846130fd565b80156110d8576110d86116a060c9546001600160a01b031690565b610161546001600160a01b031690836130fd565b606060ff80546109e390615d80565b600080600061015f60079054906101000a900460ff166116f657604051630314872760e11b815260040160405180910390fd5b600061170160fd5490565b9050801561172057611714818787613e62565b9195509350915061185a565b61015f54600160301b900460ff161561185a57600061015f600b9054906101000a90046001600160a01b03166001600160a01b0316633850c7bd6040518163ffffffff1660e01b815260040160e06040518083038186803b15801561178457600080fd5b505afa158015611798573d6000803e3d6000fd5b505050506040513d601f19601f820116820180604052508101906117bc9190615927565b50505050505090506000611808826117e661015f60009054906101000a900460020b60020b6134e0565b61015f546118019063010000009004600290810b900b6134e0565b8b8b6138f3565b61015f546001600160801b038216955090915061185290839061183190600290810b900b6134e0565b61015f5461184c9063010000009004600290810b900b6134e0565b84613f65565b909650945050505b509250925092565b61186a61336e565b61015f54600090600160581b90046001600160a01b031663514ea4bf61188e61266f565b6040518263ffffffff1660e01b81526004016118ac91815260200190565b60a06040518083038186803b1580156118c457600080fd5b505afa1580156118d8573d6000803e3d6000fd5b505050506040513d601f19601f820116820180604052508101906118fc91906158dd565b5050505090506000816001600160801b031611156119f65761015f54600281810b9163010000009004900b600080808061193587614001565b9296509094509250905087358410806119515750602088013583105b1561196f576040516374f9a6e960e11b815260040160405180910390fd5b7f6d7e1841bf97c0b736eafb2779459ba1e0af2305cead28a8e97533589ceb2f6587878787876040516119a6959493929190615c3f565b60405180910390a16119b882826143b7565b6119c28282613db9565b6040805183815260208101839052929450909250600080516020615f33833981519152910160405180910390a15050505050505b61015f805462ffffff63010000008204600290810b900b1666ff000000ffffff19909116179055604051600081527fd9279952b347fd14af9b788aff1029c0d3b1299b7dcce164fc602a1b958c4880906020015b60405180910390a15050565b600080611a61614428565b611a69614482565b83611a87576040516302075cc160e41b815260040160405180910390fd5b604080518082019091526000602082015260fd548152611aa63361145d565b6020820152611ab533866144c9565b61015f54600160301b900460ff1615611d805761015f54600090600160581b90046001600160a01b031663514ea4bf611aec61266f565b6040518263ffffffff1660e01b8152600401611b0a91815260200190565b60a06040518083038186803b158015611b2257600080fd5b505afa158015611b36573d6000803e3d6000fd5b505050506040513d601f19601f82011682018060405250810190611b5a91906158dd565b5050505090506000611b7a87836001600160801b031685600001516145f7565b90506000611b87826146a6565b9050600080600080611b9885614001565b9350935093509350611baa82826143b7565b611bb48282613db9565b6040805183815260208101839052929450909250600080516020615f33833981519152910160405180910390a1610160546040516370a0823160e01b815260009186916001600160a01b03909116906370a0823190611c17903090600401615a63565b60206040518083038186803b158015611c2f57600080fd5b505afa158015611c43573d6000803e3d6000fd5b505050506040513d601f19601f82011682018060405250810190611c6791906156f9565b611c719190615d3d565b610161546040516370a0823160e01b815291925060009186916001600160a01b0316906370a0823190611ca8903090600401615a63565b60206040518083038186803b158015611cc057600080fd5b505afa158015611cd4573d6000803e3d6000fd5b505050506040513d601f19601f82011682018060405250810190611cf891906156f9565b611d029190615d3d565b905061016354821115611d205761016354611d1d9083615d3d565b91505b61016454811115611d3c5761016454611d399082615d3d565b90505b611d4b828f8c600001516145f7565b611d559087615cca565b9b50611d66818f8c600001516145f7565b611d709086615cca565b9a50505050505050505050611db4565b600080611d8b610a80565b91509150611d9e828885600001516145f7565b9450611daf818885600001516145f7565b935050505b8335831080611dc65750602084013582105b15611de4576040516374f9a6e960e11b815260040160405180910390fd5b611dee8383614713565b611df8838361472f565b90935091508215611e6b576020810151611e128682615d3d565b3360009081526101656020526040902060010154611e309190615cf6565b611e3a9190615ce2565b336000818152610165602052604090206001019190915561016054611e6b916001600160a01b0390911690856130fd565b8115611ed9576020810151611e808682615d3d565b3360009081526101656020526040902060020154611e9e9190615cf6565b611ea89190615ce2565b336000818152610165602052604090206002019190915561016154611ed9916001600160a01b0390911690846130fd565b604080518681526020810185905290810183905233907f4c60206a5c1de41f3376d1d60f0949d96cb682033c90b1c2d9d9a62d4c4120c09060600160405180910390a250611f276001606555565b9250929050565b60003381611f3c8286612644565b905083811015611f9c5760405162461bcd60e51b815260206004820152602560248201527f45524332303a2064656372656173656420616c6c6f77616e63652062656c6f77604482015264207a65726f60d81b6064820152608401610b99565b611fa9828686840361291d565b506001949350505050565b600033610a74818585612d92565b61015f54600160581b90046001600160a01b03163314611ff457604051620b7d9960e41b815260040160405180910390fd5b600084131561201a5761016054612015906001600160a01b031633866130fd565b610cdd565b6000831315610cdd5761016154610cdd906001600160a01b031633856130fd565b600080612046614428565b61204e614482565b61015f54600160381b900460ff1661207957604051630314872760e11b815260040160405180910390fd5b836120975760405163199f5a0360e31b815260040160405180910390fd5b60006120a260fd5490565b61015f5460408051633850c7bd60e01b81529051929350600160301b820460ff1692600092600160581b90046001600160a01b031691633850c7bd9160048083019260e0929190829003018186803b1580156120fd57600080fd5b505afa158015612111573d6000803e3d6000fd5b505050506040513d601f19601f820116820180604052508101906121359190615927565b5050505050509050600083111561217657600080612151610a80565b91509150612160828a87614758565b965061216d818a87614758565b955050506121e2565b81156121c95761015f546121bf90829061219690600290810b900b6134e0565b61015f546121b19063010000009004600290810b900b6134e0565b6121ba8b6146a6565b613f65565b90955093506121e2565b60405163344fa43b60e01b815260040160405180910390fd5b85358511806121f45750602086013584115b15612212576040516374f9a6e960e11b815260040160405180910390fd5b336000908152610165602052604090205460ff166122895733600081815261016560205260408120805460ff19166001908117909155610166805491820181559091527fa5a4c57b7184ec73d55be4993773cb4eef681bc86a28d0285cd66efb50676a970180546001600160a01b03191690911790555b84156122d0573360009081526101656020526040812060010180548792906122b2908490615cca565b9091555050610160546122d0906001600160a01b03163330886147a6565b8315612317573360009081526101656020526040812060020180548692906122f9908490615cca565b909155505061016154612317906001600160a01b03163330876147a6565b61232133886147de565b81156124075761015f5460009061236690839061234490600290810b900b6134e0565b61015f5461235f9063010000009004600290810b900b6134e0565b89896138f3565b61015f54604051633c8a7d8d60e01b81529192506001600160a01b03600160581b82041691633c8a7d8d916123b2913091600281810b926301000000909204900b908790600401615a77565b6040805180830381600087803b1580156123cb57600080fd5b505af11580156123df573d6000803e3d6000fd5b505050506040513d601f19601f820116820180604052508101906124039190615799565b5050505b604080518881526020810187905290810185905233907f5a3358a3d27a5373c0df2604662088d37894d56b7cfd27f315770440f4e0d9199060600160405180910390a2505050611f276001606555565b606082158015612465575081155b15612471576101665491505b600061247d8484615d3d565b6001600160401b038111156124a257634e487b7160e01b600052604160045260246000fd5b60405190808252806020026020018201604052801561250057816020015b6124ed604051806060016040528060006001600160a01b0316815260200160008152602001600081525090565b8152602001906001900390816124c05790505b5090506000845b8481101561262a5760006101656000610166848154811061253857634e487b7160e01b600052603260045260246000fd5b60009182526020808320909101546001600160a01b031683528281019390935260409182019020815160608082018452825460ff161515825260018301549482019490945260029091015481830152815192830190915261016680549193508291859081106125b757634e487b7160e01b600052603260045260246000fd5b600091825260209182902001546001600160a01b03168252838101519082015260408084015191015284846125eb81615dbb565b95508151811061260b57634e487b7160e01b600052603260045260246000fd5b602002602001018190525050808061262290615dbb565b915050612507565b5090949350505050565b61263c61336e565b611020614899565b6001600160a01b03918216600090815260fc6020908152604080832093909416825291909152205490565b61015f546040516bffffffffffffffffffffffff193060601b166020820152600282810b810b60e890811b60348401526301000000909304810b900b90911b6037820152600090603a0160405160208183030381529060405280519060200120905090565b6000806126df61336e565b61015f54604051630251596160e31b81523060048201528715156024820152604481018790526001600160a01b03868116606483015260a06084830152600060a4830152600160581b9092049091169063128acb089060c4016040805180830381600087803b15801561275157600080fd5b505af1158015612765573d6000803e3d6000fd5b505050506040513d601f19601f820116820180604052508101906127899190615799565b90925090508580156127a25750826127a082615e2d565b105b806127bd5750851580156127bd5750826127bb83615e2d565b105b156127db576040516374f9a6e960e11b815260040160405180910390fd5b604080518715158152602081018490529081018290527fbf511038cfa32cfb7971e976074c0e6aeda010e6afcbb38d87b4f910305014949060600160405180910390a194509492505050565b600080600061283560fd5490565b9050801561288d57600080612848610a80565b9092509050826128588388615cf6565b6128629190615ce2565b94508261286f8288615cf6565b6128799190615ce2565b9350612885858561472f565b909550935050505b50915091565b61289b61336e565b6001600160a01b0381166129025760405162461bcd60e51b815260206004820152602860248201527f4f776e61626c653a206e6577206d616e6167657220697320746865207a65726f604482015267206164647265737360c01b6064820152608401610b99565b610c1f81613245565b61291361336e565b6110d88282613297565b6001600160a01b03831661297f5760405162461bcd60e51b8152602060048201526024808201527f45524332303a20617070726f76652066726f6d20746865207a65726f206164646044820152637265737360e01b6064820152608401610b99565b6001600160a01b0382166129e05760405162461bcd60e51b815260206004820152602260248201527f45524332303a20617070726f766520746f20746865207a65726f206164647265604482015261737360f01b6064820152608401610b99565b6001600160a01b03838116600081815260fc602090815260408083209487168084529482529182902085905590518481527f8c5be1e5ebec7d5bd14f71427d1e84f3dd0314c0f7b2291e5b200ac8c7c3b925910160405180910390a3505050565b600080600080600080600061015f600b9054906101000a90046001600160a01b03166001600160a01b031663514ea4bf612a7961266f565b6040518263ffffffff1660e01b8152600401612a9791815260200190565b60a06040518083038186803b158015612aaf57600080fd5b505afa158015612ac3573d6000803e3d6000fd5b505050506040513d601f19601f82011682018060405250810190612ae791906158dd565b94509450945094509450600080866001600160801b0316600014612b9b5761015f54612b40908c90612b1f90600290810b900b6134e0565b61015f54612b3a9063010000009004600290810b900b6134e0565b8a613f65565b90995097506001600160801b038416612b5c6001888d8b6139b7565b612b669190615cca565b9150826001600160801b0316612b7f6000878d8b6139b7565b612b899190615cca565b9050612b958282613db9565b90925090505b610160546040516370a0823160e01b81526000916001600160a01b0316906370a0823190612bcd903090600401615a63565b60206040518083038186803b158015612be557600080fd5b505afa158015612bf9573d6000803e3d6000fd5b505050506040513d601f19601f82011682018060405250810190612c1d91906156f9565b612c279084615cca565b610161546040516370a0823160e01b81529192506000916001600160a01b03909116906370a0823190612c5e903090600401615a63565b60206040518083038186803b158015612c7657600080fd5b505afa158015612c8a573d6000803e3d6000fd5b505050506040513d601f19601f82011682018060405250810190612cae91906156f9565b612cb89084615cca565b9050610163548211612cca5781612cd8565b61016354612cd89083615d3d565b612ce2908c615cca565b9a50610164548111612cf45780612d02565b61016454612d029082615d3d565b612d0c908b615cca565b99505050505050505050509250929050565b6000612d2a8484612644565b90506000198114610cdd5781811015612d855760405162461bcd60e51b815260206004820152601d60248201527f45524332303a20696e73756666696369656e7420616c6c6f77616e63650000006044820152606401610b99565b610cdd848484840361291d565b6001600160a01b038316612df65760405162461bcd60e51b815260206004820152602560248201527f45524332303a207472616e736665722066726f6d20746865207a65726f206164604482015264647265737360d81b6064820152608401610b99565b6001600160a01b038216612e585760405162461bcd60e51b815260206004820152602360248201527f45524332303a207472616e7366657220746f20746865207a65726f206164647260448201526265737360e81b6064820152608401610b99565b612e638383836148ea565b6001600160a01b038316600090815260fb602052604090205481811015612edb5760405162461bcd60e51b815260206004820152602660248201527f45524332303a207472616e7366657220616d6f756e7420657863656564732062604482015265616c616e636560d01b6064820152608401610b99565b6001600160a01b03808516600081815260fb60205260408082208686039055928616808252908390208054860190559151600080516020615f1383398151915290612f299086815260200190565b60405180910390a3610cdd565b600080516020615ecc833981519152546001600160a01b031690565b610162546001600160a01b03163314610c1f57604051631b1319e560e01b815260040160405180910390fd5b7f4910fdfa16fed3260ed0e7147f7cc6da11a60208b5b9406d12a635614ffd91435460ff1615612fb657612fb183614b44565b505050565b826001600160a01b03166352d1902d6040518163ffffffff1660e01b815260040160206040518083038186803b158015612fef57600080fd5b505afa92505050801561301f575060408051601f3d908101601f1916820190925261301c918101906156f9565b60015b6130825760405162461bcd60e51b815260206004820152602e60248201527f45524331393637557067726164653a206e657720696d706c656d656e7461746960448201526d6f6e206973206e6f74205555505360901b6064820152608401610b99565b600080516020615ecc83398151915281146130f15760405162461bcd60e51b815260206004820152602960248201527f45524331393637557067726164653a20756e737570706f727465642070726f786044820152681a58589b195555525160ba1b6064820152608401610b99565b50612fb1838383614be0565b6040516001600160a01b038316602482015260448101829052612fb190849063a9059cbb60e01b906064015b60408051601f198184030181529190526020810180516001600160e01b03166001600160e01b031990931692909217909152614c05565b600054610100900460ff166110205760405162461bcd60e51b8152600401610b9990615bf4565b600054610100900460ff166131ae5760405162461bcd60e51b8152600401610b9990615bf4565b611020614cd7565b600054610100900460ff166131dd5760405162461bcd60e51b8152600401610b9990615bf4565b611020614cfe565b600054610100900460ff1661320c5760405162461bcd60e51b8152600401610b9990615bf4565b6110d88282614d2e565b600054610100900460ff1661323d5760405162461bcd60e51b8152600401610b9990615bf4565b611020614d7c565b60c980546001600160a01b038381166001600160a01b0319831681179093556040519116919082907f8be0079c531659141344cd1fd0a4f28419497f9722a3daafe3b4186f6b6457e090600090a35050565b606461ffff831611156132bd576040516313f90f0b60e31b815260040160405180910390fd5b6107d061ffff821611156132e457604051630f14508d60e41b815260040160405180910390fd5b61015f54600160301b900460ff16156132ff576132ff614899565b610162805463ffffffff60a01b1916600160a01b61ffff85811691820261ffff60b01b191692909217600160b01b928516928302179092556040805192835260208301919091527f2ac80c14c28700f7b5e36f947d572149fe2e3947bac32c3a8c098f3e03722c119101611a4a565b60c9546001600160a01b031633146110205760405162461bcd60e51b815260206004820152602260248201527f4f776e61626c653a2063616c6c6572206973206e6f7420746865206d616e616760448201526132b960f11b6064820152608401610b99565b6133db614db0565b61012d805460ff191690557f5db9ee0a495bf2e6ff9c91a7834c1ba4fdd244a5e8aa4e537bd38aeae4b073aa335b6040516134169190615a63565b60405180910390a1565b61342a8282614dfa565b61015f805466ff00000000000019600284810b62ffffff90811663010000000265ffffffffffff199094169187900b16179190911716600160301b1790556040517fd9279952b347fd14af9b788aff1029c0d3b1299b7dcce164fc602a1b958c48809061349d9060011515815260200190565b60405180910390a160408051600284810b825283900b60208201527f8e3ac6cc9b82795b40740ca4e954df8f6655fe35e80cdc6fb33d50c3423fcd169101611a4a565b60008060008360020b126134f7578260020b613504565b8260020b61350490615e2d565b9050613513620d89e719615e0c565b60020b8111156135495760405162461bcd60e51b81526020600482015260016024820152601560fa1b6044820152606401610b99565b60006001821661355d57600160801b61356f565b6ffffcb933bd6fad37aa2d162d1a5940015b6001600160881b0316905060028216156135a457608061359f826ffff97272373d413259a46990580e213a615cf6565b901c90505b60048216156135ce5760806135c9826ffff2e50f5f656932ef12357cf3c7fdcc615cf6565b901c90505b60088216156135f85760806135f3826fffe5caca7e10e4e61c3624eaa0941cd0615cf6565b901c90505b601082161561362257608061361d826fffcb9843d60f6159c9db58835c926644615cf6565b901c90505b602082161561364c576080613647826fff973b41fa98c081472e6896dfb254c0615cf6565b901c90505b6040821615613676576080613671826fff2ea16466c96a3843ec78b326b52861615cf6565b901c90505b60808216156136a057608061369b826ffe5dee046a99a2a811c461f1969c3053615cf6565b901c90505b6101008216156136cb5760806136c6826ffcbe86c7900a88aedcffc83b479aa3a4615cf6565b901c90505b6102008216156136f65760806136f1826ff987a7253ac413176f2b074cf7815e54615cf6565b901c90505b61040082161561372157608061371c826ff3392b0822b70005940c7a398e4b70f3615cf6565b901c90505b61080082161561374c576080613747826fe7159475a2c29b7443b29c7fa6e889d9615cf6565b901c90505b611000821615613777576080613772826fd097f3bdfd2022b8845ad8f792aa5825615cf6565b901c90505b6120008216156137a257608061379d826fa9f746462d870fdf8a65dc1f90e061e5615cf6565b901c90505b6140008216156137cd5760806137c8826f70d869a156d2a1b890bb3df62baf32f7615cf6565b901c90505b6180008216156137f85760806137f3826f31be135f97d08fd981231505542fcfa6615cf6565b901c90505b6201000082161561382457608061381f826f09aa508b5b7a84e1c677de54f3e99bc9615cf6565b901c90505b6202000082161561384f57608061384a826e5d6af8dedb81196699c329225ee604615cf6565b901c90505b62040000821615613879576080613874826d2216e584f5fa1ea926041bedfe98615cf6565b901c90505b620800008216156138a157608061389c826b048a170391f7dc42444e8fa2615cf6565b901c90505b60008460020b13156138bc576138b981600019615ce2565b90505b6138cb64010000000082615df8565b156138d75760016138da565b60005b6138eb9060ff16602083901c615cca565b949350505050565b6000836001600160a01b0316856001600160a01b03161115613913579293925b846001600160a01b0316866001600160a01b03161161393e57613937858585614eaf565b90506139ae565b836001600160a01b0316866001600160a01b031610156139a0576000613965878686614eaf565b90506000613974878986614f19565b9050806001600160801b0316826001600160801b0316106139955780613997565b815b925050506139ae565b6139ab858584614f19565b90505b95945050505050565b6000806000808715613b825761015f600b9054906101000a90046001600160a01b03166001600160a01b031663f30583996040518163ffffffff1660e01b815260040160206040518083038186803b158015613a1257600080fd5b505afa158015613a26573d6000803e3d6000fd5b505050506040513d601f19601f82011682018060405250810190613a4a91906156f9565b61015f5460405163f30dba9360e01b8152600282810b900b6004820152919250600160581b90046001600160a01b03169063f30dba93906024016101006040518083038186803b158015613a9d57600080fd5b505afa158015613ab1573d6000803e3d6000fd5b505050506040513d601f19601f82011682018060405250810190613ad5919061580c565b505061015f5460405163f30dba9360e01b81529499506001600160a01b03600160581b820416965063f30dba939550613b2194630100000090910460020b93506004019150615b1b9050565b6101006040518083038186803b158015613b3a57600080fd5b505afa158015613b4e573d6000803e3d6000fd5b505050506040513d601f19601f82011682018060405250810190613b72919061580c565b50939750613d3b95505050505050565b61015f600b9054906101000a90046001600160a01b03166001600160a01b031663461413196040518163ffffffff1660e01b815260040160206040518083038186803b158015613bd157600080fd5b505afa158015613be5573d6000803e3d6000fd5b505050506040513d601f19601f82011682018060405250810190613c0991906156f9565b61015f5460405163f30dba9360e01b8152600282810b900b6004820152919250600160581b90046001600160a01b03169063f30dba93906024016101006040518083038186803b158015613c5c57600080fd5b505afa158015613c70573d6000803e3d6000fd5b505050506040513d601f19601f82011682018060405250810190613c94919061580c565b505061015f5460405163f30dba9360e01b81529399506001600160a01b03600160581b820416965063f30dba939550613cdf94506301000000900460020b926004019150615b1b9050565b6101006040518083038186803b158015613cf857600080fd5b505afa158015613d0c573d6000803e3d6000fd5b505050506040513d601f19601f82011682018060405250810190613d30919061580c565b509297505050505050505b61015f54600090600290810b810b9088900b12613d59575082613d5e565b508281035b600061015f60039054906101000a900460020b60020b8860020b1215613d85575082613d8a565b508282035b818303819003613daa6001600160801b0389168b8303600160801b6145f7565b9b9a5050505050505050505050565b610162546000908190600160b01b900461ffff1681612710613ddb8388615cf6565b613de59190615ce2565b90506000612710613df68488615cf6565b613e009190615ce2565b9050613e0c8288615d3d565b9450613e188187615d3d565b93505050509250929050565b613e2c614482565b61012d805460ff191660011790557f62e78cea01bee320cd4e420270b5ea74000d11b0c9f74754ebdbfc544b05a2586134093390565b6000806000806000613e72610a80565b91509150816000148015613e865750600081115b15613e9d57613e968689836145f7565b9250613f40565b80158015613eab5750600082115b15613ebb57613e968789846145f7565b81158015613ec7575080155b15613ee55760405163f912977760e01b815260040160405180910390fd5b6000613ef2888a856145f7565b90506000613f01888b856145f7565b9050811580613f0e575080155b15613f2c57604051630856e64360e21b815260040160405180910390fd5b808210613f395780613f3b565b815b945050505b613f4b83838a614758565b9450613f5883828a614758565b9350505093509350939050565b600080836001600160a01b0316856001600160a01b03161115613f86579293925b846001600160a01b0316866001600160a01b031611613fb157613faa858585614f4f565b9150613ff8565b836001600160a01b0316866001600160a01b03161015613fea57613fd6868585614f4f565b9150613fe3858785614fb9565b9050613ff8565b613ff5858585614fb9565b90505b94509492505050565b61015f54610160546040516370a0823160e01b8152600092839283928392600281810b936301000000909204900b9184916001600160a01b0316906370a0823190614050903090600401615a63565b60206040518083038186803b15801561406857600080fd5b505afa15801561407c573d6000803e3d6000fd5b505050506040513d601f19601f820116820180604052508101906140a091906156f9565b610161546040516370a0823160e01b81529192506000916001600160a01b03909116906370a08231906140d7903090600401615a63565b60206040518083038186803b1580156140ef57600080fd5b505afa158015614103573d6000803e3d6000fd5b505050506040513d601f19601f8201168201806040525081019061412791906156f9565b61015f5460405163a34123a760e01b8152600287810b600483015286900b60248201526001600160801b038c166044820152919250600160581b90046001600160a01b03169063a34123a7906064016040805180830381600087803b15801561418f57600080fd5b505af11580156141a3573d6000803e3d6000fd5b505050506040513d601f19601f820116820180604052508101906141c79190615799565b61015f546040516309e3d67b60e31b8152306004820152600288810b602483015287900b60448201526001600160801b03606482018190526084820152929a50909850600160581b90046001600160a01b031690634f1eb3d89060a4016040805180830381600087803b15801561423d57600080fd5b505af1158015614251573d6000803e3d6000fd5b505050506040513d601f19601f8201168201806040525081019061427591906158ab565b5050610160546040516370a0823160e01b8152899184916001600160a01b03909116906370a08231906142ac903090600401615a63565b60206040518083038186803b1580156142c457600080fd5b505afa1580156142d8573d6000803e3d6000fd5b505050506040513d601f19601f820116820180604052508101906142fc91906156f9565b6143069190615d3d565b6143109190615d3d565b610161546040516370a0823160e01b8152919750889183916001600160a01b0316906370a0823190614346903090600401615a63565b60206040518083038186803b15801561435e57600080fd5b505afa158015614372573d6000803e3d6000fd5b505050506040513d601f19601f8201168201806040525081019061439691906156f9565b6143a09190615d3d565b6143aa9190615d3d565b9450505050509193509193565b61016254600160b01b900461ffff166127106143d38285615cf6565b6143dd9190615ce2565b61016360008282546143ef9190615cca565b9091555061271090506144028284615cf6565b61440c9190615ce2565b610164600082825461441e9190615cca565b9091555050505050565b6002606554141561447b5760405162461bcd60e51b815260206004820152601f60248201527f5265656e7472616e637947756172643a207265656e7472616e742063616c6c006044820152606401610b99565b6002606555565b61012d5460ff16156110205760405162461bcd60e51b815260206004820152601060248201526f14185d5cd8589b194e881c185d5cd95960821b6044820152606401610b99565b6001600160a01b0382166145295760405162461bcd60e51b815260206004820152602160248201527f45524332303a206275726e2066726f6d20746865207a65726f206164647265736044820152607360f81b6064820152608401610b99565b614535826000836148ea565b6001600160a01b038216600090815260fb6020526040902054818110156145a95760405162461bcd60e51b815260206004820152602260248201527f45524332303a206275726e20616d6f756e7420657863656564732062616c616e604482015261636560f01b6064820152608401610b99565b6001600160a01b038316600081815260fb60209081526040808320868603905560fd8054879003905551858152919291600080516020615f13833981519152910160405180910390a3505050565b600080806000198587098587029250828110838203039150508060001415614631576000841161462657600080fd5b508290049050610b49565b80841161463d57600080fd5b60008486880960026001871981018816978890046003810283188082028403028082028403028082028403028082028403028082028403029081029092039091026000889003889004909101858311909403939093029303949094049190911702949350505050565b60006001600160801b0382111561470f5760405162461bcd60e51b815260206004820152602760248201527f53616665436173743a2076616c756520646f65736e27742066697420696e20316044820152663238206269747360c81b6064820152608401610b99565b5090565b61016254600160a01b900461ffff166127106143d38285615cf6565b610162546000908190600160a01b900461ffff1681612710613ddb8388615cf6565b6001606555565b60006147658484846145f7565b90506000828061478557634e487b7160e01b600052601260045260246000fd5b8486091115610b4957600019811061479c57600080fd5b806139ae81615dbb565b6040516001600160a01b0380851660248301528316604482015260648101829052610cdd9085906323b872dd60e01b90608401613129565b6001600160a01b0382166148345760405162461bcd60e51b815260206004820152601f60248201527f45524332303a206d696e7420746f20746865207a65726f2061646472657373006044820152606401610b99565b614840600083836148ea565b8060fd60008282546148529190615cca565b90915550506001600160a01b038216600081815260fb6020908152604080832080548601905551848152600080516020615f13833981519152910160405180910390a35050565b6000806148a66000614001565b9350935050506148b682826143b7565b6148c08282613db9565b6040805183815260208101839052929450909250600080516020615f338339815191529101611a4a565b6001600160a01b038316158061490757506001600160a01b038216155b1561491157505050565b6001600160a01b0382166000908152610165602052604090205460ff1661499a576001600160a01b038216600081815261016560205260408120805460ff19166001908117909155610166805491820181559091527fa5a4c57b7184ec73d55be4993773cb4eef681bc86a28d0285cd66efb50676a970180546001600160a01b03191690911790555b60006149a58461145d565b90506000816149b48482615d3d565b6001600160a01b038716600090815261016560205260409020600101546149db9190615cf6565b6149e59190615ce2565b6001600160a01b03861660009081526101656020526040902060010154614a0c9190615d3d565b9050600082614a1b8582615d3d565b6001600160a01b03881660009081526101656020526040902060020154614a429190615cf6565b614a4c9190615ce2565b6001600160a01b03871660009081526101656020526040902060020154614a739190615d3d565b6001600160a01b03871660009081526101656020526040812060010180549293508492909190614aa4908490615d3d565b90915550506001600160a01b0386166000908152610165602052604081206002018054839290614ad5908490615d3d565b90915550506001600160a01b0385166000908152610165602052604081206001018054849290614b06908490615cca565b90915550506001600160a01b0385166000908152610165602052604081206002018054839290614b37908490615cca565b9091555050505050505050565b6001600160a01b0381163b614bb15760405162461bcd60e51b815260206004820152602d60248201527f455243313936373a206e657720696d706c656d656e746174696f6e206973206e60448201526c1bdd08184818dbdb9d1c9858dd609a1b6064820152608401610b99565b600080516020615ecc83398151915280546001600160a01b0319166001600160a01b0392909216919091179055565b614be983615003565b600082511180614bf65750805b15612fb157610cdd8383615043565b6000614c5a826040518060400160405280602081526020017f5361666545524332303a206c6f772d6c6576656c2063616c6c206661696c6564815250856001600160a01b031661512e9092919063ffffffff16565b805190915015612fb15780806020019051810190614c789190615696565b612fb15760405162461bcd60e51b815260206004820152602a60248201527f5361666545524332303a204552433230206f7065726174696f6e20646964206e6044820152691bdd081cdd58d8d9595960b21b6064820152608401610b99565b600054610100900460ff166147515760405162461bcd60e51b8152600401610b9990615bf4565b600054610100900460ff16614d255760405162461bcd60e51b8152600401610b9990615bf4565b61102033613245565b600054610100900460ff16614d555760405162461bcd60e51b8152600401610b9990615bf4565b8151614d689060fe9060208501906152ec565b508051612fb19060ff9060208401906152ec565b600054610100900460ff16614da35760405162461bcd60e51b8152600401610b9990615bf4565b61012d805460ff19169055565b61012d5460ff166110205760405162461bcd60e51b815260206004820152601460248201527314185d5cd8589b194e881b9bdd081c185d5cd95960621b6044820152606401610b99565b620d89e719600283900b1280614e215750614e18620d89e719615e0c565b60020b8160020b135b15614e3f5760405163137b639d60e21b815260040160405180910390fd5b8060020b8260020b121580614e6d575061015f54614e6790600160401b900460020b83615dd6565b60020b15155b80614e91575061015f54614e8b90600160401b900460020b82615dd6565b60020b15155b156110d857604051633981390b60e11b815260040160405180910390fd5b6000826001600160a01b0316846001600160a01b03161115614ecf579192915b6000614ef2856001600160a01b0316856001600160a01b0316600160601b6145f7565b90506139ae614f148483614f068989615d15565b6001600160a01b03166145f7565b61513d565b6000826001600160a01b0316846001600160a01b03161115614f39579192915b6138eb614f1483600160601b614f068888615d15565b6000826001600160a01b0316846001600160a01b03161115614f6f579192915b6001600160a01b038416614faf600160601b600160e01b03606085901b16614f978787615d15565b6001600160a01b0316866001600160a01b03166145f7565b6138eb9190615ce2565b6000826001600160a01b0316846001600160a01b03161115614fd9579192915b6138eb6001600160801b038316614ff08686615d15565b6001600160a01b0316600160601b6145f7565b61500c81614b44565b6040516001600160a01b038216907fbc7cd75a20ee27fd9adebab32041f755214dbc6bffa90cc0225b39da2e5c2d3b90600090a250565b60606001600160a01b0383163b6150ab5760405162461bcd60e51b815260206004820152602660248201527f416464726573733a2064656c65676174652063616c6c20746f206e6f6e2d636f6044820152651b9d1c9858dd60d21b6064820152608401610b99565b600080846001600160a01b0316846040516150c69190615a47565b600060405180830381855af49150503d8060008114615101576040519150601f19603f3d011682016040523d82523d6000602084013e615106565b606091505b50915091506139ae8282604051806060016040528060278152602001615eec60279139615158565b60606138eb8484600085615171565b806001600160801b038116811461515357600080fd5b919050565b60608315615167575081610b49565b610b49838361524c565b6060824710156151d25760405162461bcd60e51b815260206004820152602660248201527f416464726573733a20696e73756666696369656e742062616c616e636520666f6044820152651c8818d85b1b60d21b6064820152608401610b99565b600080866001600160a01b031685876040516151ee9190615a47565b60006040518083038185875af1925050503d806000811461522b576040519150601f19603f3d011682016040523d82523d6000602084013e615230565b606091505b509150915061524187838387615276565b979650505050505050565b81511561525c5781518083602001fd5b8060405162461bcd60e51b8152600401610b999190615b29565b606083156152e25782516152db576001600160a01b0385163b6152db5760405162461bcd60e51b815260206004820152601d60248201527f416464726573733a2063616c6c20746f206e6f6e2d636f6e74726163740000006044820152606401610b99565b50816138eb565b6138eb838361524c565b8280546152f890615d80565b90600052602060002090601f01602090048101928261531a5760008555615360565b82601f1061533357805160ff1916838001178555615360565b82800160010185558215615360579182015b82811115615360578251825591602001919060010190615345565b5061470f9291505b8082111561470f5760008155600101615368565b8060408101831015610a7a57600080fd5b60008083601f84011261539e578182fd5b5081356001600160401b038111156153b4578182fd5b602083019150836020828501011115611f2757600080fd5b600082601f8301126153dc578081fd5b81356153ef6153ea82615ca3565b615c73565b818152846020838601011115615403578283fd5b816020850160208301379081016020019190915292915050565b600082601f83011261542d578081fd5b815161543b6153ea82615ca3565b81815284602083860101111561544f578283fd5b6138eb826020830160208701615d54565b80516001600160801b038116811461515357600080fd5b805163ffffffff8116811461515357600080fd5b60006020828403121561549c578081fd5b8135610b4981615e89565b6000602082840312156154b8578081fd5b8151610b4981615e89565b6000806000606084860312156154d7578182fd5b83516154e281615e89565b60208501519093506001600160401b03808211156154fe578384fd5b61550a8783880161541d565b9350604086015191508082111561551f578283fd5b5061552c8682870161541d565b9150509250925092565b60008060408385031215615548578182fd5b823561555381615e89565b9150602083013561556381615e89565b809150509250929050565b600080600060608486031215615582578283fd5b833561558d81615e89565b9250602084013561559d81615e89565b929592945050506040919091013590565b600080604083850312156155c0578182fd5b82356155cb81615e89565b915060208301356001600160401b038111156155e5578182fd5b6155f1858286016153cc565b9150509250929050565b60008060006060848603121561560f578081fd5b833561561a81615e89565b9250602084013561562a81615eac565b915060408401356001600160401b03811115615644578182fd5b61552c868287016153cc565b60008060408385031215615662578182fd5b823561566d81615e89565b946020939093013593505050565b60006040828403121561568c578081fd5b610b49838361537c565b6000602082840312156156a7578081fd5b8151610b4981615e9e565b600080600080608085870312156156c7578182fd5b84356156d281615e9e565b93506020850135925060408501356156e981615e89565b9396929550929360600135925050565b60006020828403121561570a578081fd5b5051919050565b60008060408385031215615723578182fd5b823561572e81615eac565b9150602083013561556381615eac565b600080600080600060c08688031215615755578283fd5b853561576081615eac565b9450602086013561577081615eac565b9350604086013592506060860135915061578d876080880161537c565b90509295509295909350565b600080604083850312156157ab578182fd5b505080516020909101519092909150565b600080600080606085870312156157d1578182fd5b843593506020850135925060408501356001600160401b038111156157f4578283fd5b6158008782880161538d565b95989497509550505050565b600080600080600080600080610100898b031215615828578586fd5b61583189615460565b9750602089015180600f0b8114615846578687fd5b80975050604089015195506060890151945060808901518060060b811461586b578384fd5b60a08a015190945061587c81615e89565b925061588a60c08a01615477565b915060e089015161589a81615e9e565b809150509295985092959890939650565b600080604083850312156158bd578182fd5b6158c683615460565b91506158d460208401615460565b90509250929050565b600080600080600060a086880312156158f4578283fd5b6158fd86615460565b9450602086015193506040860151925061591960608701615460565b915061578d60808701615460565b600080600080600080600060e0888a031215615941578081fd5b875161594c81615e89565b602089015190975061595d81615eac565b604089015190965061596e81615ebb565b606089015190955061597f81615ebb565b608089015190945061599081615ebb565b925061599e60a08901615477565b915060c08801516159ae81615e9e565b8091505092959891949750929550565b600080604083850312156159d0578182fd5b82356159db81615ebb565b9150602083013561556381615ebb565b6000602082840312156159fc578081fd5b5035919050565b60008060608385031215615a15578182fd5b823591506158d4846020850161537c565b60008060408385031215615a38578182fd5b50508035926020909101359150565b60008251615a59818460208701615d54565b9190910192915050565b6001600160a01b0391909116815260200190565b6001600160a01b03949094168452600292830b6020850152910b60408301526001600160801b0316606082015260a06080820181905260009082015260c00190565b602080825282518282018190526000919060409081850190868401855b82811015615b0e57815180516001600160a01b0316855286810151878601528501518585015260609093019290850190600101615ad6565b5091979650505050505050565b60029190910b815260200190565b6020815260008251806020840152615b48816040850160208701615d54565b601f01601f19169190910160400192915050565b6020808252602c908201527f46756e6374696f6e206d7573742062652063616c6c6564207468726f7567682060408201526b19195b1959d85d1958d85b1b60a21b606082015260800190565b6020808252602c908201527f46756e6374696f6e206d7573742062652063616c6c6564207468726f7567682060408201526b6163746976652070726f787960a01b606082015260800190565b6020808252602b908201527f496e697469616c697a61626c653a20636f6e7472616374206973206e6f74206960408201526a6e697469616c697a696e6760a81b606082015260800190565b6001600160801b03959095168552600293840b60208601529190920b60408401526060830191909152608082015260a00190565b604051601f8201601f191681016001600160401b0381118282101715615c9b57615c9b615e73565b604052919050565b60006001600160401b03821115615cbc57615cbc615e73565b50601f01601f191660200190565b60008219821115615cdd57615cdd615e47565b500190565b600082615cf157615cf1615e5d565b500490565b6000816000190483118215151615615d1057615d10615e47565b500290565b60006001600160a01b0383811690831681811015615d3557615d35615e47565b039392505050565b600082821015615d4f57615d4f615e47565b500390565b60005b83811015615d6f578181015183820152602001615d57565b83811115610cdd5750506000910152565b600181811c90821680615d9457607f821691505b60208210811415615db557634e487b7160e01b600052602260045260246000fd5b50919050565b6000600019821415615dcf57615dcf615e47565b5060010190565b60008260020b80615de957615de9615e5d565b808360020b0791505092915050565b600082615e0757615e07615e5d565b500690565b60008160020b627fffff19811415615e2657615e26615e47565b9003919050565b6000600160ff1b821415615e4357615e43615e47565b0390565b634e487b7160e01b600052601160045260246000fd5b634e487b7160e01b600052601260045260246000fd5b634e487b7160e01b600052604160045260246000fd5b6001600160a01b0381168114610c1f57600080fd5b8015158114610c1f57600080fd5b8060020b8114610c1f57600080fd5b61ffff81168114610c1f57600080fdfe360894a13ba1a3210667c828492db98dca3e2076cc3735a920a3ca505d382bbc416464726573733a206c6f772d6c6576656c2064656c65676174652063616c6c206661696c6564ddf252ad1be2c89b69c2b068fc378daa952ba7f163c4a11628f55a4df523b3efc28ad1de9c0c32e5394ba60323e44d8d9536312236a47231772e448a3e49de42a264697066735822122076d6e5bb0370f97b864427e1d8a59ee977bc5bcb6f1299c3f41a32583d74b5e264736f6c63430008040033",
  "linkReferences": {},
  "deployedLinkReferences": {}
}