{
  "_format": "hh-sol-artifact-1",
  "contractName": "RangeProtocolVault",
  "sourceName": "contracts/RangeProtocolVault.sol",
  "abi": [
    {
      "inputs": [],
      "stateMutability": "nonpayable",
      "type": "constructor"
    },
    {
      "inputs": [],
      "name": "OnlyFactoryAllowed",
      "type": "error"
    },
    {
      "inputs": [],
      "name": "OnlyVaultAllowed",
      "type": "error"
    },
    {
      "anonymous": false,
      "inputs": [
        {
          "indexed": false,
          "internalType": "address",
          "name": "previousAdmin",
          "type": "address"
        },
        {
          "indexed": false,
          "internalType": "address",
          "name": "newAdmin",
          "type": "address"
        }
      ],
      "name": "AdminChanged",
      "type": "event"
    },
    {
      "anonymous": false,
      "inputs": [
        {
          "indexed": true,
          "internalType": "address",
          "name": "owner",
          "type": "address"
        },
        {
          "indexed": true,
          "internalType": "address",
          "name": "spender",
          "type": "address"
        },
        {
          "indexed": false,
          "internalType": "uint256",
          "name": "value",
          "type": "uint256"
        }
      ],
      "name": "Approval",
      "type": "event"
    },
    {
      "anonymous": false,
      "inputs": [
        {
          "indexed": true,
          "internalType": "address",
          "name": "beacon",
          "type": "address"
        }
      ],
      "name": "BeaconUpgraded",
      "type": "event"
    },
    {
      "anonymous": false,
      "inputs": [
        {
          "indexed": true,
          "internalType": "address",
          "name": "receiver",
          "type": "address"
        },
        {
          "indexed": false,
          "internalType": "uint256",
          "name": "burnAmount",
          "type": "uint256"
        },
        {
          "indexed": false,
          "internalType": "uint256",
          "name": "amount",
          "type": "uint256"
        }
      ],
      "name": "Burned",
      "type": "event"
    },
    {
      "anonymous": false,
      "inputs": [
        {
          "indexed": false,
          "internalType": "address",
          "name": "token",
          "type": "address"
        },
        {
          "indexed": false,
          "internalType": "uint256",
          "name": "amount",
          "type": "uint256"
        }
      ],
      "name": "CollateralSupplied",
      "type": "event"
    },
    {
      "anonymous": false,
      "inputs": [
        {
          "indexed": false,
          "internalType": "address",
          "name": "token",
          "type": "address"
        },
        {
          "indexed": false,
          "internalType": "uint256",
          "name": "amount",
          "type": "uint256"
        }
      ],
      "name": "CollateralWithdrawn",
      "type": "event"
    },
    {
      "anonymous": false,
      "inputs": [
        {
          "indexed": false,
          "internalType": "uint256",
          "name": "feesEarned0",
          "type": "uint256"
        },
        {
          "indexed": false,
          "internalType": "uint256",
          "name": "feesEarned1",
          "type": "uint256"
        }
      ],
      "name": "FeesEarned",
      "type": "event"
    },
    {
      "anonymous": false,
      "inputs": [
        {
          "indexed": false,
          "internalType": "uint16",
          "name": "managingFee",
          "type": "uint16"
        },
        {
          "indexed": false,
          "internalType": "uint16",
          "name": "performanceFee",
          "type": "uint16"
        }
      ],
      "name": "FeesUpdated",
      "type": "event"
    },
    {
      "anonymous": false,
      "inputs": [
        {
          "indexed": false,
          "internalType": "uint256",
          "name": "amount",
          "type": "uint256"
        }
      ],
      "name": "GHOBurned",
      "type": "event"
    },
    {
      "anonymous": false,
      "inputs": [
        {
          "indexed": false,
          "internalType": "uint256",
          "name": "amount",
          "type": "uint256"
        }
      ],
      "name": "GHOMinted",
      "type": "event"
    },
    {
      "anonymous": false,
      "inputs": [
        {
          "indexed": false,
          "internalType": "bool",
          "name": "inThePosition",
          "type": "bool"
        }
      ],
      "name": "InThePositionStatusSet",
      "type": "event"
    },
    {
      "anonymous": false,
      "inputs": [
        {
          "indexed": false,
          "internalType": "uint8",
          "name": "version",
          "type": "uint8"
        }
      ],
      "name": "Initialized",
      "type": "event"
    },
    {
      "anonymous": false,
      "inputs": [
        {
          "indexed": false,
          "internalType": "uint256",
          "name": "liquidityMinted",
          "type": "uint256"
        },
        {
          "indexed": false,
          "internalType": "int24",
          "name": "tickLower",
          "type": "int24"
        },
        {
          "indexed": false,
          "internalType": "int24",
          "name": "tickUpper",
          "type": "int24"
        },
        {
          "indexed": false,
          "internalType": "uint256",
          "name": "amount0In",
          "type": "uint256"
        },
        {
          "indexed": false,
          "internalType": "uint256",
          "name": "amount1In",
          "type": "uint256"
        }
      ],
      "name": "LiquidityAdded",
      "type": "event"
    },
    {
      "anonymous": false,
      "inputs": [
        {
          "indexed": false,
          "internalType": "uint256",
          "name": "liquidityRemoved",
          "type": "uint256"
        },
        {
          "indexed": false,
          "internalType": "int24",
          "name": "tickLower",
          "type": "int24"
        },
        {
          "indexed": false,
          "internalType": "int24",
          "name": "tickUpper",
          "type": "int24"
        },
        {
          "indexed": false,
          "internalType": "uint256",
          "name": "amount0Out",
          "type": "uint256"
        },
        {
          "indexed": false,
          "internalType": "uint256",
          "name": "amount1Out",
          "type": "uint256"
        }
      ],
      "name": "LiquidityRemoved",
      "type": "event"
    },
    {
      "anonymous": false,
      "inputs": [
        {
          "indexed": true,
          "internalType": "address",
          "name": "receiver",
          "type": "address"
        },
        {
          "indexed": false,
          "internalType": "uint256",
          "name": "shares",
          "type": "uint256"
        },
        {
          "indexed": false,
          "internalType": "uint256",
          "name": "amount",
          "type": "uint256"
        }
      ],
      "name": "Minted",
      "type": "event"
    },
    {
      "anonymous": false,
      "inputs": [
        {
          "indexed": true,
          "internalType": "address",
          "name": "previousManager",
          "type": "address"
        },
        {
          "indexed": true,
          "internalType": "address",
          "name": "newManager",
          "type": "address"
        }
      ],
      "name": "OwnershipTransferred",
      "type": "event"
    },
    {
      "anonymous": false,
      "inputs": [
        {
          "indexed": false,
          "internalType": "address",
          "name": "account",
          "type": "address"
        }
      ],
      "name": "Paused",
      "type": "event"
    },
    {
      "anonymous": false,
      "inputs": [
        {
          "indexed": false,
          "internalType": "bool",
          "name": "zeroForOne",
          "type": "bool"
        },
        {
          "indexed": false,
          "internalType": "int256",
          "name": "amount0",
          "type": "int256"
        },
        {
          "indexed": false,
          "internalType": "int256",
          "name": "amount1",
          "type": "int256"
        }
      ],
      "name": "Swapped",
      "type": "event"
    },
    {
      "anonymous": false,
      "inputs": [
        {
          "indexed": false,
          "internalType": "int24",
          "name": "lowerTick",
          "type": "int24"
        },
        {
          "indexed": false,
          "internalType": "int24",
          "name": "upperTick",
          "type": "int24"
        }
      ],
      "name": "TicksSet",
      "type": "event"
    },
    {
      "anonymous": false,
      "inputs": [
        {
          "indexed": true,
          "internalType": "address",
          "name": "from",
          "type": "address"
        },
        {
          "indexed": true,
          "internalType": "address",
          "name": "to",
          "type": "address"
        },
        {
          "indexed": false,
          "internalType": "uint256",
          "name": "value",
          "type": "uint256"
        }
      ],
      "name": "Transfer",
      "type": "event"
    },
    {
      "anonymous": false,
      "inputs": [
        {
          "indexed": false,
          "internalType": "address",
          "name": "account",
          "type": "address"
        }
      ],
      "name": "Unpaused",
      "type": "event"
    },
    {
      "anonymous": false,
      "inputs": [
        {
          "indexed": true,
          "internalType": "address",
          "name": "implementation",
          "type": "address"
        }
      ],
      "name": "Upgraded",
      "type": "event"
    },
    {
      "inputs": [
        {
          "internalType": "int24",
          "name": "newLowerTick",
          "type": "int24"
        },
        {
          "internalType": "int24",
          "name": "newUpperTick",
          "type": "int24"
        },
        {
          "internalType": "uint256",
          "name": "amount0",
          "type": "uint256"
        },
        {
          "internalType": "uint256",
          "name": "amount1",
          "type": "uint256"
        }
      ],
      "name": "addLiquidity",
      "outputs": [
        {
          "internalType": "uint256",
          "name": "remainingAmount0",
          "type": "uint256"
        },
        {
          "internalType": "uint256",
          "name": "remainingAmount1",
          "type": "uint256"
        }
      ],
      "stateMutability": "nonpayable",
      "type": "function"
    },
    {
      "inputs": [
        {
          "internalType": "address",
          "name": "owner",
          "type": "address"
        },
        {
          "internalType": "address",
          "name": "spender",
          "type": "address"
        }
      ],
      "name": "allowance",
      "outputs": [
        {
          "internalType": "uint256",
          "name": "",
          "type": "uint256"
        }
      ],
      "stateMutability": "view",
      "type": "function"
    },
    {
      "inputs": [
        {
          "internalType": "address",
          "name": "spender",
          "type": "address"
        },
        {
          "internalType": "uint256",
          "name": "amount",
          "type": "uint256"
        }
      ],
      "name": "approve",
      "outputs": [
        {
          "internalType": "bool",
          "name": "",
          "type": "bool"
        }
      ],
      "stateMutability": "nonpayable",
      "type": "function"
    },
    {
      "inputs": [
        {
          "internalType": "address",
          "name": "account",
          "type": "address"
        }
      ],
      "name": "balanceOf",
      "outputs": [
        {
          "internalType": "uint256",
          "name": "",
          "type": "uint256"
        }
      ],
      "stateMutability": "view",
      "type": "function"
    },
    {
      "inputs": [
        {
          "internalType": "uint256",
          "name": "burnAmount",
          "type": "uint256"
        }
      ],
      "name": "burn",
      "outputs": [
        {
          "internalType": "uint256",
          "name": "withdrawAmount",
          "type": "uint256"
        }
      ],
      "stateMutability": "nonpayable",
      "type": "function"
    },
    {
      "inputs": [
        {
          "internalType": "uint256",
          "name": "burnAmount",
          "type": "uint256"
        }
      ],
      "name": "burnGHO",
      "outputs": [],
      "stateMutability": "nonpayable",
      "type": "function"
    },
    {
      "inputs": [
        {
          "internalType": "address",
          "name": "from",
          "type": "address"
        },
        {
          "internalType": "uint256",
          "name": "shares",
          "type": "uint256"
        }
      ],
      "name": "burnShares",
      "outputs": [],
      "stateMutability": "nonpayable",
      "type": "function"
    },
    {
      "inputs": [],
      "name": "collateralToken",
      "outputs": [
        {
          "internalType": "address",
          "name": "",
          "type": "address"
        }
      ],
      "stateMutability": "view",
      "type": "function"
    },
    {
      "inputs": [],
      "name": "collectManager",
      "outputs": [],
      "stateMutability": "nonpayable",
      "type": "function"
    },
    {
      "inputs": [],
      "name": "decimals",
      "outputs": [
        {
          "internalType": "uint8",
          "name": "",
          "type": "uint8"
        }
      ],
      "stateMutability": "view",
      "type": "function"
    },
    {
      "inputs": [
        {
          "internalType": "address",
          "name": "spender",
          "type": "address"
        },
        {
          "internalType": "uint256",
          "name": "subtractedValue",
          "type": "uint256"
        }
      ],
      "name": "decreaseAllowance",
      "outputs": [
        {
          "internalType": "bool",
          "name": "",
          "type": "bool"
        }
      ],
      "stateMutability": "nonpayable",
      "type": "function"
    },
    {
      "inputs": [],
      "name": "factory",
      "outputs": [
        {
          "internalType": "address",
          "name": "",
          "type": "address"
        }
      ],
      "stateMutability": "view",
      "type": "function"
    },
    {
      "inputs": [],
      "name": "getAavePositionData",
      "outputs": [
        {
          "internalType": "uint256",
          "name": "totalCollateralBase",
          "type": "uint256"
        },
        {
          "internalType": "uint256",
          "name": "totalDebtBase",
          "type": "uint256"
        },
        {
          "internalType": "uint256",
          "name": "availableBorrowsBase",
          "type": "uint256"
        },
        {
          "internalType": "uint256",
          "name": "currentLiquidationThreshold",
          "type": "uint256"
        },
        {
          "internalType": "uint256",
          "name": "ltv",
          "type": "uint256"
        },
        {
          "internalType": "uint256",
          "name": "healthFactor",
          "type": "uint256"
        }
      ],
      "stateMutability": "view",
      "type": "function"
    },
    {
      "inputs": [],
      "name": "getCurrentFees",
      "outputs": [
        {
          "internalType": "uint256",
          "name": "fee0",
          "type": "uint256"
        },
        {
          "internalType": "uint256",
          "name": "fee1",
          "type": "uint256"
        }
      ],
      "stateMutability": "view",
      "type": "function"
    },
    {
      "inputs": [],
      "name": "getPositionID",
      "outputs": [
        {
          "internalType": "bytes32",
          "name": "positionID",
          "type": "bytes32"
        }
      ],
      "stateMutability": "view",
      "type": "function"
    },
    {
      "inputs": [],
      "name": "getUnderlyingBalance",
      "outputs": [
        {
          "internalType": "uint256",
          "name": "amountCurrent",
          "type": "uint256"
        }
      ],
      "stateMutability": "view",
      "type": "function"
    },
    {
      "inputs": [
        {
          "internalType": "uint256",
          "name": "shares",
          "type": "uint256"
        }
      ],
      "name": "getUnderlyingBalanceByShare",
      "outputs": [
        {
          "internalType": "uint256",
          "name": "amount",
          "type": "uint256"
        }
      ],
      "stateMutability": "view",
      "type": "function"
    },
    {
      "inputs": [
        {
          "internalType": "uint256",
          "name": "fromIdx",
          "type": "uint256"
        },
        {
          "internalType": "uint256",
          "name": "toIdx",
          "type": "uint256"
        }
      ],
      "name": "getUserVaults",
      "outputs": [
        {
          "components": [
            {
              "internalType": "address",
              "name": "user",
              "type": "address"
            },
            {
              "internalType": "uint256",
              "name": "token",
              "type": "uint256"
            }
          ],
          "internalType": "struct DataTypesLib.UserVaultInfo[]",
          "name": "",
          "type": "tuple[]"
        }
      ],
      "stateMutability": "view",
      "type": "function"
    },
    {
      "inputs": [],
      "name": "gho",
      "outputs": [
        {
          "internalType": "address",
          "name": "",
          "type": "address"
        }
      ],
      "stateMutability": "view",
      "type": "function"
    },
    {
      "inputs": [],
      "name": "inThePosition",
      "outputs": [
        {
          "internalType": "bool",
          "name": "",
          "type": "bool"
        }
      ],
      "stateMutability": "view",
      "type": "function"
    },
    {
      "inputs": [
        {
          "internalType": "address",
          "name": "spender",
          "type": "address"
        },
        {
          "internalType": "uint256",
          "name": "addedValue",
          "type": "uint256"
        }
      ],
      "name": "increaseAllowance",
      "outputs": [
        {
          "internalType": "bool",
          "name": "",
          "type": "bool"
        }
      ],
      "stateMutability": "nonpayable",
      "type": "function"
    },
    {
      "inputs": [
        {
          "internalType": "address",
          "name": "_pool",
          "type": "address"
        },
        {
          "internalType": "int24",
          "name": "_tickSpacing",
          "type": "int24"
        },
        {
          "internalType": "bytes",
          "name": "data",
          "type": "bytes"
        }
      ],
      "name": "initialize",
      "outputs": [],
      "stateMutability": "nonpayable",
      "type": "function"
    },
    {
      "inputs": [],
      "name": "isToken0GHO",
      "outputs": [
        {
          "internalType": "bool",
          "name": "",
          "type": "bool"
        }
      ],
      "stateMutability": "view",
      "type": "function"
    },
    {
      "inputs": [],
      "name": "lowerTick",
      "outputs": [
        {
          "internalType": "int24",
          "name": "",
          "type": "int24"
        }
      ],
      "stateMutability": "view",
      "type": "function"
    },
    {
      "inputs": [],
      "name": "manager",
      "outputs": [
        {
          "internalType": "address",
          "name": "",
          "type": "address"
        }
      ],
      "stateMutability": "view",
      "type": "function"
    },
    {
      "inputs": [],
      "name": "managerBalanceGHO",
      "outputs": [
        {
          "internalType": "uint256",
          "name": "",
          "type": "uint256"
        }
      ],
      "stateMutability": "view",
      "type": "function"
    },
    {
      "inputs": [],
      "name": "managerBalanceToken",
      "outputs": [
        {
          "internalType": "uint256",
          "name": "",
          "type": "uint256"
        }
      ],
      "stateMutability": "view",
      "type": "function"
    },
    {
      "inputs": [],
      "name": "managingFee",
      "outputs": [
        {
          "internalType": "uint16",
          "name": "",
          "type": "uint16"
        }
      ],
      "stateMutability": "view",
      "type": "function"
    },
    {
      "inputs": [
        {
          "internalType": "uint256",
          "name": "amount",
          "type": "uint256"
        }
      ],
      "name": "mint",
      "outputs": [
        {
          "internalType": "uint256",
          "name": "shares",
          "type": "uint256"
        }
      ],
      "stateMutability": "nonpayable",
      "type": "function"
    },
    {
      "inputs": [
        {
          "internalType": "uint256",
          "name": "mintAmount",
          "type": "uint256"
        }
      ],
      "name": "mintGHO",
      "outputs": [],
      "stateMutability": "nonpayable",
      "type": "function"
    },
    {
      "inputs": [
        {
          "internalType": "address",
          "name": "to",
          "type": "address"
        },
        {
          "internalType": "uint256",
          "name": "shares",
          "type": "uint256"
        }
      ],
      "name": "mintShares",
      "outputs": [],
      "stateMutability": "nonpayable",
      "type": "function"
    },
    {
      "inputs": [],
      "name": "name",
      "outputs": [
        {
          "internalType": "string",
          "name": "",
          "type": "string"
        }
      ],
      "stateMutability": "view",
      "type": "function"
    },
    {
      "inputs": [],
      "name": "pause",
      "outputs": [],
      "stateMutability": "nonpayable",
      "type": "function"
    },
    {
      "inputs": [],
      "name": "paused",
      "outputs": [
        {
          "internalType": "bool",
          "name": "",
          "type": "bool"
        }
      ],
      "stateMutability": "view",
      "type": "function"
    },
    {
      "inputs": [],
      "name": "performanceFee",
      "outputs": [
        {
          "internalType": "uint16",
          "name": "",
          "type": "uint16"
        }
      ],
      "stateMutability": "view",
      "type": "function"
    },
    {
      "inputs": [],
      "name": "pool",
      "outputs": [
        {
          "internalType": "contract IUniswapV3Pool",
          "name": "",
          "type": "address"
        }
      ],
      "stateMutability": "view",
      "type": "function"
    },
    {
      "inputs": [],
      "name": "poolAddressesProvider",
      "outputs": [
        {
          "internalType": "address",
          "name": "",
          "type": "address"
        }
      ],
      "stateMutability": "view",
      "type": "function"
    },
    {
      "inputs": [],
      "name": "proxiableUUID",
      "outputs": [
        {
          "internalType": "bytes32",
          "name": "",
          "type": "bytes32"
        }
      ],
      "stateMutability": "view",
      "type": "function"
    },
    {
      "inputs": [],
      "name": "pullFeeFromPool",
      "outputs": [],
      "stateMutability": "nonpayable",
      "type": "function"
    },
    {
      "inputs": [],
      "name": "removeLiquidity",
      "outputs": [],
      "stateMutability": "nonpayable",
      "type": "function"
    },
    {
      "inputs": [],
      "name": "renounceOwnership",
      "outputs": [],
      "stateMutability": "nonpayable",
      "type": "function"
    },
    {
      "inputs": [
        {
          "internalType": "uint256",
          "name": "supplyAmount",
          "type": "uint256"
        }
      ],
      "name": "supplyCollateral",
      "outputs": [],
      "stateMutability": "nonpayable",
      "type": "function"
    },
    {
      "inputs": [
        {
          "internalType": "bool",
          "name": "zeroForOne",
          "type": "bool"
        },
        {
          "internalType": "int256",
          "name": "swapAmount",
          "type": "int256"
        },
        {
          "internalType": "uint160",
          "name": "sqrtPriceLimitX96",
          "type": "uint160"
        }
      ],
      "name": "swap",
      "outputs": [
        {
          "internalType": "int256",
          "name": "amount0",
          "type": "int256"
        },
        {
          "internalType": "int256",
          "name": "amount1",
          "type": "int256"
        }
      ],
      "stateMutability": "nonpayable",
      "type": "function"
    },
    {
      "inputs": [],
      "name": "symbol",
      "outputs": [
        {
          "internalType": "string",
          "name": "",
          "type": "string"
        }
      ],
      "stateMutability": "view",
      "type": "function"
    },
    {
      "inputs": [],
      "name": "tickSpacing",
      "outputs": [
        {
          "internalType": "int24",
          "name": "",
          "type": "int24"
        }
      ],
      "stateMutability": "view",
      "type": "function"
    },
    {
      "inputs": [],
      "name": "token0",
      "outputs": [
        {
          "internalType": "contract IERC20Upgradeable",
          "name": "",
          "type": "address"
        }
      ],
      "stateMutability": "view",
      "type": "function"
    },
    {
      "inputs": [],
      "name": "token1",
      "outputs": [
        {
          "internalType": "contract IERC20Upgradeable",
          "name": "",
          "type": "address"
        }
      ],
      "stateMutability": "view",
      "type": "function"
    },
    {
      "inputs": [],
      "name": "totalSupply",
      "outputs": [
        {
          "internalType": "uint256",
          "name": "",
          "type": "uint256"
        }
      ],
      "stateMutability": "view",
      "type": "function"
    },
    {
      "inputs": [
        {
          "internalType": "address",
          "name": "to",
          "type": "address"
        },
        {
          "internalType": "uint256",
          "name": "amount",
          "type": "uint256"
        }
      ],
      "name": "transfer",
      "outputs": [
        {
          "internalType": "bool",
          "name": "",
          "type": "bool"
        }
      ],
      "stateMutability": "nonpayable",
      "type": "function"
    },
    {
      "inputs": [
        {
          "internalType": "address",
          "name": "from",
          "type": "address"
        },
        {
          "internalType": "address",
          "name": "to",
          "type": "address"
        },
        {
          "internalType": "uint256",
          "name": "amount",
          "type": "uint256"
        }
      ],
      "name": "transferFrom",
      "outputs": [
        {
          "internalType": "bool",
          "name": "",
          "type": "bool"
        }
      ],
      "stateMutability": "nonpayable",
      "type": "function"
    },
    {
      "inputs": [
        {
          "internalType": "address",
          "name": "newManager",
          "type": "address"
        }
      ],
      "name": "transferOwnership",
      "outputs": [],
      "stateMutability": "nonpayable",
      "type": "function"
    },
    {
      "inputs": [
        {
          "internalType": "uint256",
          "name": "amount0Owed",
          "type": "uint256"
        },
        {
          "internalType": "uint256",
          "name": "amount1Owed",
          "type": "uint256"
        },
        {
          "internalType": "bytes",
          "name": "",
          "type": "bytes"
        }
      ],
      "name": "uniswapV3MintCallback",
      "outputs": [],
      "stateMutability": "nonpayable",
      "type": "function"
    },
    {
      "inputs": [
        {
          "internalType": "int256",
          "name": "amount0Delta",
          "type": "int256"
        },
        {
          "internalType": "int256",
          "name": "amount1Delta",
          "type": "int256"
        },
        {
          "internalType": "bytes",
          "name": "",
          "type": "bytes"
        }
      ],
      "name": "uniswapV3SwapCallback",
      "outputs": [],
      "stateMutability": "nonpayable",
      "type": "function"
    },
    {
      "inputs": [],
      "name": "unpause",
      "outputs": [],
      "stateMutability": "nonpayable",
      "type": "function"
    },
    {
      "inputs": [
        {
          "internalType": "uint16",
          "name": "newManagingFee",
          "type": "uint16"
        },
        {
          "internalType": "uint16",
          "name": "newPerformanceFee",
          "type": "uint16"
        }
      ],
      "name": "updateFees",
      "outputs": [],
      "stateMutability": "nonpayable",
      "type": "function"
    },
    {
      "inputs": [
        {
          "internalType": "int24",
          "name": "_lowerTick",
          "type": "int24"
        },
        {
          "internalType": "int24",
          "name": "_upperTick",
          "type": "int24"
        }
      ],
      "name": "updateTicks",
      "outputs": [],
      "stateMutability": "nonpayable",
      "type": "function"
    },
    {
      "inputs": [
        {
          "internalType": "address",
          "name": "newImplementation",
          "type": "address"
        }
      ],
      "name": "upgradeTo",
      "outputs": [],
      "stateMutability": "nonpayable",
      "type": "function"
    },
    {
      "inputs": [
        {
          "internalType": "address",
          "name": "newImplementation",
          "type": "address"
        },
        {
          "internalType": "bytes",
          "name": "data",
          "type": "bytes"
        }
      ],
      "name": "upgradeToAndCall",
      "outputs": [],
      "stateMutability": "payable",
      "type": "function"
    },
    {
      "inputs": [],
      "name": "upperTick",
      "outputs": [
        {
          "internalType": "int24",
          "name": "",
          "type": "int24"
        }
      ],
      "stateMutability": "view",
      "type": "function"
    },
    {
      "inputs": [],
      "name": "userCount",
      "outputs": [
        {
          "internalType": "uint256",
          "name": "",
          "type": "uint256"
        }
      ],
      "stateMutability": "view",
      "type": "function"
    },
    {
      "inputs": [
        {
          "internalType": "address",
          "name": "user",
          "type": "address"
        }
      ],
      "name": "userVaults",
      "outputs": [
        {
          "components": [
            {
              "internalType": "bool",
              "name": "exists",
              "type": "bool"
            },
            {
              "internalType": "uint256",
              "name": "token",
              "type": "uint256"
            }
          ],
          "internalType": "struct DataTypesLib.UserVault",
          "name": "",
          "type": "tuple"
        }
      ],
      "stateMutability": "view",
      "type": "function"
    },
    {
      "inputs": [
        {
          "internalType": "uint256",
          "name": "index",
          "type": "uint256"
        }
      ],
      "name": "users",
      "outputs": [
        {
          "internalType": "address",
          "name": "",
          "type": "address"
        }
      ],
      "stateMutability": "view",
      "type": "function"
    },
    {
      "inputs": [
        {
          "internalType": "uint256",
          "name": "withdrawAmount",
          "type": "uint256"
        }
      ],
      "name": "withdrawCollateral",
      "outputs": [],
      "stateMutability": "nonpayable",
      "type": "function"
    }
  ],
  "bytecode": "0x60a06040523060601b6080523480156200001857600080fd5b506200002362000029565b620000eb565b600054610100900460ff1615620000965760405162461bcd60e51b815260206004820152602760248201527f496e697469616c697a61626c653a20636f6e747261637420697320696e697469604482015266616c697a696e6760c81b606482015260840160405180910390fd5b60005460ff9081161015620000e9576000805460ff191660ff9081179091556040519081527f7f26b83ff96e1f2b6a682f133852f6798a09c465da95921460cefb38474024989060200160405180910390a15b565b60805160601c6137cc6200012660003960008181610da901528181610df2015281816115e101528181611621015261179201526137cc6000f3fe6080604052600436106103385760003560e01c806367b9a286116101b2578063c653089f116100ed578063e2c6743911610090578063e2c6743914610a8b578063ee7a7c0414610aa0578063f29f3a9614610ac0578063f2fde38b14610ad6578063f3d2350e14610af6578063fa461e3314610b16578063fbff2aed14610b36578063fd87f9aa14610b4c57600080fd5b8063c653089f14610996578063d0c93a7c146109c3578063d1af1ca9146109e3578063d21220a714610a02578063d348799714610a21578063d7e458b514610a41578063dd62ed3e14610a56578063df28408a14610a7657600080fd5b80639403c1ae116101555780639403c1ae146108ae57806395d89b41146108c35780639b1344ac146108d8578063a0712d68146108f8578063a457c2d714610918578063a9059cbb14610938578063b2016bd414610958578063c45a01551461097757600080fd5b806367b9a286146107b657806370a08231146107cb578063715018a61461080157806371908a0314610816578063727dd2281461082b57806380e17d871461085a5780638456cb5914610879578063877887821461088e57600080fd5b806339509351116102825780634fa62c5f116102255780634fa62c5f146106bf57806351da5b17146106df578063528c198a146106ff57806352d1902d1461071f5780635c975abb14610734578063601b48a41461074d5780636112fe2e14610776578063628ec4db1461079657600080fd5b806339509351146105d95780633d048c27146105f95780633f4ba83a146106195780634043f5ca1461062e57806342966c681461064e578063481c6a751461066e5780634a0997f41461068c5780634f1ef286146106ac57600080fd5b8063195cd92c116102ea578063195cd92c1461043f57806323b872dd146104745780632958d03114610494578063313ce56714610519578063349e078f146105355780633659cfe614610577578063365b98b214610599578063367febea146105b957600080fd5b806306fdde031461033d57806307973ccf14610368578063095ea7b3146103885780630dfe1681146103b8578063135fe0c9146103eb57806316f0115b1461040b57806318160ddd1461042a575b600080fd5b34801561034957600080fd5b50610352610b6c565b60405161035f91906134e4565b60405180910390f35b34801561037457600080fd5b506101cc545b60405190815260200161035f565b34801561039457600080fd5b506103a86103a3366004613164565b610bfe565b604051901515815260200161035f565b3480156103c457600080fd5b50610161546001600160a01b03165b6040516001600160a01b03909116815260200161035f565b3480156103f757600080fd5b5061016254600160f01b900460ff166103a8565b34801561041757600080fd5b50610160546001600160a01b03166103d3565b34801561043657600080fd5b5060fd5461037a565b34801561044b57600080fd5b5061045f61045a366004613261565b610c16565b6040805192835260208301919091520161035f565b34801561048057600080fd5b506103a861048f36600461307a565b610cce565b3480156104a057600080fd5b506104fc6104af366004612f6e565b6040805180820190915260008082526020820152506001600160a01b031660009081526101cb60209081526040918290208251808401909352805460ff1615158352600101549082015290565b60408051825115158152602092830151928101929092520161035f565b34801561052557600080fd5b506040516012815260200161035f565b34801561054157600080fd5b5061054a610cf4565b604080519687526020870195909552938501929092526060840152608083015260a082015260c00161035f565b34801561058357600080fd5b50610597610592366004612f6e565b610d9e565b005b3480156105a557600080fd5b506103d36105b43660046133cd565b610e70565b3480156105c557600080fd5b506105976105d43660046133cd565b610eb2565b3480156105e557600080fd5b506103a86105f4366004613164565b610f29565b34801561060557600080fd5b50610597610614366004613107565b610f4b565b34801561062557600080fd5b506105976114b5565b34801561063a57600080fd5b5061016254600160e81b900460ff166103a8565b34801561065a57600080fd5b5061037a6106693660046133cd565b6114c7565b34801561067a57600080fd5b5060c9546001600160a01b03166103d3565b34801561069857600080fd5b506105976106a73660046133cd565b61158e565b6105976106ba3660046130ba565b6115d6565b3480156106cb57600080fd5b506105976106da3660046132be565b611690565b3480156106eb57600080fd5b506105976106fa3660046133cd565b611713565b34801561070b57600080fd5b5061059761071a366004613164565b61175b565b34801561072b57600080fd5b5061037a611785565b34801561074057600080fd5b5061012d5460ff166103a8565b34801561075957600080fd5b506101965461ffff165b60405161ffff909116815260200161035f565b34801561078257600080fd5b506105976107913660046133cd565b611833565b3480156107a257600080fd5b5061037a6107b13660046133cd565b61187b565b3480156107c257600080fd5b5061059761191f565b3480156107d757600080fd5b5061037a6107e6366004612f6e565b6001600160a01b0316600090815260fb602052604090205490565b34801561080d57600080fd5b50610597611998565b34801561082257600080fd5b5061045f6119aa565b34801561083757600080fd5b5061016254600160b81b900460020b5b60405160029190910b815260200161035f565b34801561086657600080fd5b506101ff546001600160a01b03166103d3565b34801561088557600080fd5b50610597611a42565b34801561089a57600080fd5b506101965462010000900461ffff16610763565b3480156108ba57600080fd5b50610597611a52565b3480156108cf57600080fd5b50610352611ac6565b3480156108e457600080fd5b5061016254600160a01b900460020b610847565b34801561090457600080fd5b5061037a6109133660046133cd565b611ad5565b34801561092457600080fd5b506103a8610933366004613164565b611b3f565b34801561094457600080fd5b506103a8610953366004613164565b611bc5565b34801561096457600080fd5b50610201546001600160a01b03166103d3565b34801561098357600080fd5b5061015f546001600160a01b03166103d3565b3480156109a257600080fd5b506109b66109b13660046133e5565b611bd3565b60405161035f919061348c565b3480156109cf57600080fd5b5061016254600160d01b900460020b610847565b3480156109ef57600080fd5b50610200546001600160a01b03166103d3565b348015610a0e57600080fd5b50610162546001600160a01b03166103d3565b348015610a2d57600080fd5b50610597610a3c366004613354565b611c6c565b348015610a4d57600080fd5b50610597611ce5565b348015610a6257600080fd5b5061037a610a71366004613042565b611d36565b348015610a8257600080fd5b5061037a611d61565b348015610a9757600080fd5b5061037a611dee565b348015610aac57600080fd5b50610597610abb366004613164565b611e3a565b348015610acc57600080fd5b506101975461037a565b348015610ae257600080fd5b50610597610af1366004612f6e565b611e64565b348015610b0257600080fd5b50610597610b113660046133a4565b611edc565b348015610b2257600080fd5b50610597610b31366004613354565b611f2f565b348015610b4257600080fd5b506101985461037a565b348015610b5857600080fd5b5061045f610b673660046132f0565b611f76565b606060fe8054610b7b906136c9565b80601f0160208091040260200160405190810160405280929190818152602001828054610ba7906136c9565b8015610bf45780601f10610bc957610100808354040283529160200191610bf4565b820191906000526020600020905b815481529060010190602001808311610bd757829003601f168201915b5050505050905090565b600033610c0c818585612031565b5060019392505050565b600080610c21612155565b604051631b3e39d360e21b815261015f60048201528515156024820152604481018590526001600160a01b038416606482015273__$f4ff6c4bcb16d28a0e12b061661b52637f$__90636cf8e74c90608401604080518083038186803b158015610c8a57600080fd5b505af4158015610c9e573d6000803e3d6000fd5b505050506040513d601f19601f82011682018060405250810190610cc29190613331565b91509150935093915050565b600033610cdc8582856121ba565b610ce785858561222e565b60019150505b9392505050565b60008060008060008073__$f4ff6c4bcb16d28a0e12b061661b52637f$__63ca8d079d61015f60a0016040518263ffffffff1660e01b8152600401610d3b91815260200190565b60c06040518083038186803b158015610d5357600080fd5b505af4158015610d67573d6000803e3d6000fd5b505050506040513d601f19601f82011682018060405250810190610d8b9190613406565b949b939a50919850965094509092509050565b306001600160a01b037f0000000000000000000000000000000000000000000000000000000000000000161415610df05760405162461bcd60e51b8152600401610de790613517565b60405180910390fd5b7f00000000000000000000000000000000000000000000000000000000000000006001600160a01b0316610e226123d2565b6001600160a01b031614610e485760405162461bcd60e51b8152600401610de790613563565b610e51816123ee565b60408051600080825260208201909252610e6d9183919061241a565b50565b6101cc80546000919083908110610e9757634e487b7160e01b600052603260045260246000fd5b6000918252602090912001546001600160a01b031692915050565b610eba612155565b604051631bd12c6160e21b81526101ff60048201526024810182905273__$f4ff6c4bcb16d28a0e12b061661b52637f$__90636f44b184906044015b60006040518083038186803b158015610f0e57600080fd5b505af4158015610f22573d6000803e3d6000fd5b5050505050565b600033610c0c818585610f3c8383611d36565b610f469190613679565b612031565b600054610100900460ff1615808015610f6b5750600054600160ff909116105b80610f855750303b158015610f85575060005460ff166001145b610fe85760405162461bcd60e51b815260206004820152602e60248201527f496e697469616c697a61626c653a20636f6e747261637420697320616c72656160448201526d191e481a5b9a5d1a585b1a5e995960921b6064820152608401610de7565b6000805460ff19166001179055801561100b576000805461ff0019166101001790555b6000806000806000868060200190518101906110279190612fa6565b94509450945094509450611039612599565b6110416125c0565b6110496125ef565b611053848461261e565b61105b61264f565b6110648561267e565b61016080546001600160a01b0319166001600160a01b038b1690811790915560408051630dfe168160e01b8152905160009291630dfe1681916004808301926020929190829003018186803b1580156110bc57600080fd5b505afa1580156110d0573d6000803e3d6000fd5b505050506040513d601f19601f820116820180604052508101906110f49190612f8a565b610160546040805163d21220a760e01b815290519293506000926001600160a01b039092169163d21220a791600480820192602092909190829003018186803b15801561114057600080fd5b505afa158015611154573d6000803e3d6000fd5b505050506040513d601f19601f820116820180604052508101906111789190612f8a565b90508161015f60000160020160006101000a8154816001600160a01b0302191690836001600160a01b031602179055508061015f60000160030160006101000a8154816001600160a01b0302191690836001600160a01b031602179055508961015f600001600301601a6101000a81548162ffffff021916908360020b62ffffff1602179055503361015f60000160000160006101000a8154816001600160a01b0302191690836001600160a01b03160217905550816001600160a01b031663313ce5676040518163ffffffff1660e01b815260040160206040518083038186803b15801561126657600080fd5b505afa15801561127a573d6000803e3d6000fd5b505050506040513d601f19601f8201168201806040525081019061129e919061344f565b61015f600001600301601f6101000a81548160ff021916908360ff160217905550806001600160a01b031663313ce5676040518163ffffffff1660e01b815260040160206040518083038186803b1580156112f857600080fd5b505afa15801561130c573d6000803e3d6000fd5b505050506040513d601f19601f82011682018060405250810190611330919061344f565b610163805460ff191660ff929092169190911790556101ff80546001600160a01b0319166001600160a01b038581169190911790915584811690831614156113bd57610162805460ff60f01b1916600160f01b17905561020080546001600160a01b038085166001600160a01b0319928316179092556102018054928416929091169190911790556113f0565b61020080546001600160a01b038084166001600160a01b0319928316179092556102018054928516929091169190911790555b60405163e586f43b60e01b815261019660048201526000602482015260fa604482015273__$f4ff6c4bcb16d28a0e12b061661b52637f$__9063e586f43b9060640160006040518083038186803b15801561144a57600080fd5b505af415801561145e573d6000803e3d6000fd5b505050505050505050505080156114af576000805461ff0019169055604051600181527f7f26b83ff96e1f2b6a682f133852f6798a09c465da95921460cefb38474024989060200160405180910390a15b50505050565b6114bd612155565b6114c56126d0565b565b60006114d1612723565b6114d961277d565b6040516306d640f160e01b815261015f600482015261019660248201526101cb60448201526101ff60648201526084810183905273__$f4ff6c4bcb16d28a0e12b061661b52637f$__906306d640f19060a4015b60206040518083038186803b15801561154557600080fd5b505af4158015611559573d6000803e3d6000fd5b505050506040513d601f19601f8201168201806040525081019061157d91906132a6565b90506115896001606555565b919050565b611596612155565b604051639b71548360e01b81526101ff60048201526024810182905273__$f4ff6c4bcb16d28a0e12b061661b52637f$__90639b71548390604401610ef6565b306001600160a01b037f000000000000000000000000000000000000000000000000000000000000000016141561161f5760405162461bcd60e51b8152600401610de790613517565b7f00000000000000000000000000000000000000000000000000000000000000006001600160a01b03166116516123d2565b6001600160a01b0316146116775760405162461bcd60e51b8152600401610de790613563565b611680826123ee565b61168c8282600161241a565b5050565b611698612155565b6040516316defa4b60e21b815261015f6004820152600283810b602483015282900b604482015273__$f4ff6c4bcb16d28a0e12b061661b52637f$__90635b7be92c906064015b60006040518083038186803b1580156116f757600080fd5b505af415801561170b573d6000803e3d6000fd5b505050505050565b61171b612155565b60405163e61f9f8b60e01b81526101ff60048201526024810182905273__$f4ff6c4bcb16d28a0e12b061661b52637f$__9063e61f9f8b90604401610ef6565b33301461177b57604051631628c08760e31b815260040160405180910390fd5b61168c82826127cb565b6000306001600160a01b037f000000000000000000000000000000000000000000000000000000000000000016146118205760405162461bcd60e51b815260206004820152603860248201527f555550535570677261646561626c653a206d757374206e6f742062652063616c6044820152771b1959081d1a1c9bdd59da0819195b1959d85d1958d85b1b60421b6064820152608401610de7565b5060008051602061373083398151915290565b61183b612155565b60405163656d0bd960e01b81526101ff60048201526024810182905273__$f4ff6c4bcb16d28a0e12b061661b52637f$__9063656d0bd990604401610ef6565b60405163319ba5e960e01b815261015f600482015261019660248201526101ff60448201526064810182905260009073__$f4ff6c4bcb16d28a0e12b061661b52637f$__9063319ba5e99060840160206040518083038186803b1580156118e157600080fd5b505af41580156118f5573d6000803e3d6000fd5b505050506040513d601f19601f8201168201806040525081019061191991906132a6565b92915050565b611927612155565b6040516359512aab60e11b815261015f600482015261019660248201526101ff604482015273__$f4ff6c4bcb16d28a0e12b061661b52637f$__9063b2a25556906064015b60006040518083038186803b15801561198457600080fd5b505af41580156114af573d6000803e3d6000fd5b6119a0612155565b6114c5600061267e565b60405163416d9d7160e11b815261015f60048201526101966024820152600090819073__$f4ff6c4bcb16d28a0e12b061661b52637f$__906382db3ae290604401604080518083038186803b158015611a0257600080fd5b505af4158015611a16573d6000803e3d6000fd5b505050506040513d601f19601f82011682018060405250810190611a3a9190613331565b915091509091565b611a4a612155565b6114c5612886565b611a5a612155565b73__$f4ff6c4bcb16d28a0e12b061661b52637f$__63a64bd8c061015f610196611a8c60c9546001600160a01b031690565b6040516001600160e01b031960e086901b168152600481019390935260248301919091526001600160a01b0316604482015260640161196c565b606060ff8054610b7b906136c9565b6000611adf612723565b611ae761277d565b604051632695a0d360e01b815261015f600482015261019660248201526101cb60448201526101ff60648201526084810183905273__$f4ff6c4bcb16d28a0e12b061661b52637f$__90632695a0d39060a40161152d565b60003381611b4d8286611d36565b905083811015611bad5760405162461bcd60e51b815260206004820152602560248201527f45524332303a2064656372656173656420616c6c6f77616e63652062656c6f77604482015264207a65726f60d81b6064820152608401610de7565b611bba8286868403612031565b506001949350505050565b600033610c0c81858561222e565b604051638851a68760e01b81526101cb6004820152602481018390526044810182905260609073__$f4ff6c4bcb16d28a0e12b061661b52637f$__90638851a6879060640160006040518083038186803b158015611c3057600080fd5b505af4158015611c44573d6000803e3d6000fd5b505050506040513d6000823e601f3d908101601f19168201604052610ced919081019061318f565b604051639bfc7b0960e01b815261015f6004820152602481018590526044810184905273__$f4ff6c4bcb16d28a0e12b061661b52637f$__90639bfc7b09906064015b60006040518083038186803b158015611cc757600080fd5b505af4158015611cdb573d6000803e3d6000fd5b5050505050505050565b611ced612155565b60405163b211c22160e01b815261015f600482015261019660248201526101ff604482015273__$f4ff6c4bcb16d28a0e12b061661b52637f$__9063b211c2219060640161196c565b6001600160a01b03918216600090815260fc6020908152604080832093909416825291909152205490565b6040516377a19e6960e01b815261015f600482015260009073__$f4ff6c4bcb16d28a0e12b061661b52637f$__906377a19e69906024015b60206040518083038186803b158015611db157600080fd5b505af4158015611dc5573d6000803e3d6000fd5b505050506040513d601f19601f82011682018060405250810190611de991906132a6565b905090565b604051633917b8dd60e01b815261015f600482015261019660248201526101ff604482015260009073__$f4ff6c4bcb16d28a0e12b061661b52637f$__90633917b8dd90606401611d99565b333014611e5a57604051631628c08760e31b815260040160405180910390fd5b61168c82826128c4565b611e6c612155565b6001600160a01b038116611ed35760405162461bcd60e51b815260206004820152602860248201527f4f776e61626c653a206e6577206d616e6167657220697320746865207a65726f604482015267206164647265737360c01b6064820152608401610de7565b610e6d8161267e565b611ee4612155565b60405163e586f43b60e01b8152610196600482015261ffff80841660248301528216604482015273__$f4ff6c4bcb16d28a0e12b061661b52637f$__9063e586f43b906064016116df565b60405163b45531cb60e01b815261015f6004820152602481018590526044810184905273__$f4ff6c4bcb16d28a0e12b061661b52637f$__9063b45531cb90606401611caf565b600080611f81612155565b60405163a007700760e01b815261015f6004820152600287810b602483015286900b6044820152606481018590526084810184905273__$f4ff6c4bcb16d28a0e12b061661b52637f$__9063a00770079060a401604080518083038186803b158015611fec57600080fd5b505af4158015612000573d6000803e3d6000fd5b505050506040513d601f19601f820116820180604052508101906120249190613331565b9150915094509492505050565b6001600160a01b0383166120935760405162461bcd60e51b8152602060048201526024808201527f45524332303a20617070726f76652066726f6d20746865207a65726f206164646044820152637265737360e01b6064820152608401610de7565b6001600160a01b0382166120f45760405162461bcd60e51b815260206004820152602260248201527f45524332303a20617070726f766520746f20746865207a65726f206164647265604482015261737360f01b6064820152608401610de7565b6001600160a01b03838116600081815260fc602090815260408083209487168084529482529182902085905590518481527f8c5be1e5ebec7d5bd14f71427d1e84f3dd0314c0f7b2291e5b200ac8c7c3b925910160405180910390a3505050565b60c9546001600160a01b031633146114c55760405162461bcd60e51b815260206004820152602260248201527f4f776e61626c653a2063616c6c6572206973206e6f7420746865206d616e616760448201526132b960f11b6064820152608401610de7565b60006121c68484611d36565b905060001981146114af57818110156122215760405162461bcd60e51b815260206004820152601d60248201527f45524332303a20696e73756666696369656e7420616c6c6f77616e63650000006044820152606401610de7565b6114af8484848403612031565b6001600160a01b0383166122925760405162461bcd60e51b815260206004820152602560248201527f45524332303a207472616e736665722066726f6d20746865207a65726f206164604482015264647265737360d81b6064820152608401610de7565b6001600160a01b0382166122f45760405162461bcd60e51b815260206004820152602360248201527f45524332303a207472616e7366657220746f20746865207a65726f206164647260448201526265737360e81b6064820152608401610de7565b6122ff8383836129f2565b6001600160a01b038316600090815260fb6020526040902054818110156123775760405162461bcd60e51b815260206004820152602660248201527f45524332303a207472616e7366657220616d6f756e7420657863656564732062604482015265616c616e636560d01b6064820152608401610de7565b6001600160a01b03808516600081815260fb60205260408082208686039055928616808252908390208054860190559151600080516020613777833981519152906123c59086815260200190565b60405180910390a36114af565b600080516020613730833981519152546001600160a01b031690565b61015f546001600160a01b03163314610e6d57604051631b1319e560e01b815260040160405180910390fd5b7f4910fdfa16fed3260ed0e7147f7cc6da11a60208b5b9406d12a635614ffd91435460ff16156124525761244d83612a79565b505050565b826001600160a01b03166352d1902d6040518163ffffffff1660e01b815260040160206040518083038186803b15801561248b57600080fd5b505afa9250505080156124bb575060408051601f3d908101601f191682019092526124b8918101906132a6565b60015b61251e5760405162461bcd60e51b815260206004820152602e60248201527f45524331393637557067726164653a206e657720696d706c656d656e7461746960448201526d6f6e206973206e6f74205555505360901b6064820152608401610de7565b600080516020613730833981519152811461258d5760405162461bcd60e51b815260206004820152602960248201527f45524331393637557067726164653a20756e737570706f727465642070726f786044820152681a58589b195555525160ba1b6064820152608401610de7565b5061244d838383612b15565b600054610100900460ff166114c55760405162461bcd60e51b8152600401610de7906135af565b600054610100900460ff166125e75760405162461bcd60e51b8152600401610de7906135af565b6114c5612b3a565b600054610100900460ff166126165760405162461bcd60e51b8152600401610de7906135af565b6114c5612b61565b600054610100900460ff166126455760405162461bcd60e51b8152600401610de7906135af565b61168c8282612b91565b600054610100900460ff166126765760405162461bcd60e51b8152600401610de7906135af565b6114c5612bdf565b60c980546001600160a01b038381166001600160a01b0319831681179093556040519116919082907f8be0079c531659141344cd1fd0a4f28419497f9722a3daafe3b4186f6b6457e090600090a35050565b6126d8612c13565b61012d805460ff191690557f5db9ee0a495bf2e6ff9c91a7834c1ba4fdd244a5e8aa4e537bd38aeae4b073aa335b6040516001600160a01b03909116815260200160405180910390a1565b600260655414156127765760405162461bcd60e51b815260206004820152601f60248201527f5265656e7472616e637947756172643a207265656e7472616e742063616c6c006044820152606401610de7565b6002606555565b61012d5460ff16156114c55760405162461bcd60e51b815260206004820152601060248201526f14185d5cd8589b194e881c185d5cd95960821b6044820152606401610de7565b6001606555565b6001600160a01b0382166128215760405162461bcd60e51b815260206004820152601f60248201527f45524332303a206d696e7420746f20746865207a65726f2061646472657373006044820152606401610de7565b61282d600083836129f2565b8060fd600082825461283f9190613679565b90915550506001600160a01b038216600081815260fb6020908152604080832080548601905551848152600080516020613777833981519152910160405180910390a35050565b61288e61277d565b61012d805460ff191660011790557f62e78cea01bee320cd4e420270b5ea74000d11b0c9f74754ebdbfc544b05a2586127063390565b6001600160a01b0382166129245760405162461bcd60e51b815260206004820152602160248201527f45524332303a206275726e2066726f6d20746865207a65726f206164647265736044820152607360f81b6064820152608401610de7565b612930826000836129f2565b6001600160a01b038216600090815260fb6020526040902054818110156129a45760405162461bcd60e51b815260206004820152602260248201527f45524332303a206275726e20616d6f756e7420657863656564732062616c616e604482015261636560f01b6064820152608401610de7565b6001600160a01b038316600081815260fb60209081526040808320868603905560fd8054879003905551858152919291600080516020613777833981519152910160405180910390a3505050565b60405163512b1de360e01b81526101cb60048201526001600160a01b038085166024830152831660448201526064810182905273__$f4ff6c4bcb16d28a0e12b061661b52637f$__9063512b1de39060840160006040518083038186803b158015612a5c57600080fd5b505af4158015612a70573d6000803e3d6000fd5b50505050505050565b6001600160a01b0381163b612ae65760405162461bcd60e51b815260206004820152602d60248201527f455243313936373a206e657720696d706c656d656e746174696f6e206973206e60448201526c1bdd08184818dbdb9d1c9858dd609a1b6064820152608401610de7565b60008051602061373083398151915280546001600160a01b0319166001600160a01b0392909216919091179055565b612b1e83612c5d565b600082511180612b2b5750805b1561244d576114af8383612c9d565b600054610100900460ff166127c45760405162461bcd60e51b8152600401610de7906135af565b600054610100900460ff16612b885760405162461bcd60e51b8152600401610de7906135af565b6114c53361267e565b600054610100900460ff16612bb85760405162461bcd60e51b8152600401610de7906135af565b8151612bcb9060fe906020850190612dcf565b50805161244d9060ff906020840190612dcf565b600054610100900460ff16612c065760405162461bcd60e51b8152600401610de7906135af565b61012d805460ff19169055565b61012d5460ff166114c55760405162461bcd60e51b815260206004820152601460248201527314185d5cd8589b194e881b9bdd081c185d5cd95960621b6044820152606401610de7565b612c6681612a79565b6040516001600160a01b038216907fbc7cd75a20ee27fd9adebab32041f755214dbc6bffa90cc0225b39da2e5c2d3b90600090a250565b60606001600160a01b0383163b612d055760405162461bcd60e51b815260206004820152602660248201527f416464726573733a2064656c65676174652063616c6c20746f206e6f6e2d636f6044820152651b9d1c9858dd60d21b6064820152608401610de7565b600080846001600160a01b031684604051612d209190613470565b600060405180830381855af49150503d8060008114612d5b576040519150601f19603f3d011682016040523d82523d6000602084013e612d60565b606091505b5091509150612d88828260405180606001604052806027815260200161375060279139612d91565b95945050505050565b60608315612da0575081610ced565b610ced8383815115612db55781518083602001fd5b8060405162461bcd60e51b8152600401610de791906134e4565b828054612ddb906136c9565b90600052602060002090601f016020900481019282612dfd5760008555612e43565b82601f10612e1657805160ff1916838001178555612e43565b82800160010185558215612e43579182015b82811115612e43578251825591602001919060010190612e28565b50612e4f929150612e53565b5090565b5b80821115612e4f5760008155600101612e54565b60008083601f840112612e79578182fd5b5081356001600160401b03811115612e8f578182fd5b602083019150836020828501011115612ea757600080fd5b9250929050565b600082601f830112612ebe578081fd5b8135612ed1612ecc82613652565b613622565b818152846020838601011115612ee5578283fd5b816020850160208301379081016020019190915292915050565b8035600281900b811461158957600080fd5b600082601f830112612f21578081fd5b8151612f2f612ecc82613652565b818152846020838601011115612f43578283fd5b612f5482602083016020870161369d565b949350505050565b803561ffff8116811461158957600080fd5b600060208284031215612f7f578081fd5b8135610ced8161371a565b600060208284031215612f9b578081fd5b8151610ced8161371a565b600080600080600060a08688031215612fbd578081fd5b8551612fc88161371a565b60208701519095506001600160401b0380821115612fe4578283fd5b612ff089838a01612f11565b95506040880151915080821115613005578283fd5b5061301288828901612f11565b93505060608601516130238161371a565b60808701519092506130348161371a565b809150509295509295909350565b60008060408385031215613054578182fd5b823561305f8161371a565b9150602083013561306f8161371a565b809150509250929050565b60008060006060848603121561308e578283fd5b83356130998161371a565b925060208401356130a98161371a565b929592945050506040919091013590565b600080604083850312156130cc578182fd5b82356130d78161371a565b915060208301356001600160401b038111156130f1578182fd5b6130fd85828601612eae565b9150509250929050565b60008060006060848603121561311b578081fd5b83356131268161371a565b925061313460208501612eff565b915060408401356001600160401b0381111561314e578182fd5b61315a86828701612eae565b9150509250925092565b60008060408385031215613176578182fd5b82356131818161371a565b946020939093013593505050565b600060208083850312156131a1578182fd5b82516001600160401b03808211156131b7578384fd5b818501915085601f8301126131ca578384fd5b8151818111156131dc576131dc613704565b6131ea848260051b01613622565b8181528481019250838501600683901b85018601891015613209578687fd5b8694505b8285101561325557604080828b031215613225578788fd5b61322d6135fa565b82516132388161371a565b81528288015188820152855260019590950194938601930161320d565b50979650505050505050565b600080600060608486031215613275578081fd5b83358015158114613284578182fd5b925060208401359150604084013561329b8161371a565b809150509250925092565b6000602082840312156132b7578081fd5b5051919050565b600080604083850312156132d0578182fd5b6132d983612eff565b91506132e760208401612eff565b90509250929050565b60008060008060808587031215613305578182fd5b61330e85612eff565b935061331c60208601612eff565b93969395505050506040820135916060013590565b60008060408385031215613343578182fd5b505080516020909101519092909150565b60008060008060608587031215613369578182fd5b843593506020850135925060408501356001600160401b0381111561338c578283fd5b61339887828801612e68565b95989497509550505050565b600080604083850312156133b6578182fd5b6133bf83612f5c565b91506132e760208401612f5c565b6000602082840312156133de578081fd5b5035919050565b600080604083850312156133f7578182fd5b50508035926020909101359150565b60008060008060008060c0878903121561341e578384fd5b865195506020870151945060408701519350606087015192506080870151915060a087015190509295509295509295565b600060208284031215613460578081fd5b815160ff81168114610ced578182fd5b6000825161348281846020870161369d565b9190910192915050565b602080825282518282018190526000919060409081850190868401855b828110156134d757815180516001600160a01b031685528601518685015292840192908501906001016134a9565b5091979650505050505050565b602081526000825180602084015261350381604085016020870161369d565b601f01601f19169190910160400192915050565b6020808252602c908201527f46756e6374696f6e206d7573742062652063616c6c6564207468726f7567682060408201526b19195b1959d85d1958d85b1b60a21b606082015260800190565b6020808252602c908201527f46756e6374696f6e206d7573742062652063616c6c6564207468726f7567682060408201526b6163746976652070726f787960a01b606082015260800190565b6020808252602b908201527f496e697469616c697a61626c653a20636f6e7472616374206973206e6f74206960408201526a6e697469616c697a696e6760a81b606082015260800190565b604080519081016001600160401b038111828210171561361c5761361c613704565b60405290565b604051601f8201601f191681016001600160401b038111828210171561364a5761364a613704565b604052919050565b60006001600160401b0382111561366b5761366b613704565b50601f01601f191660200190565b6000821982111561369857634e487b7160e01b81526011600452602481fd5b500190565b60005b838110156136b85781810151838201526020016136a0565b838111156114af5750506000910152565b600181811c908216806136dd57607f821691505b602082108114156136fe57634e487b7160e01b600052602260045260246000fd5b50919050565b634e487b7160e01b600052604160045260246000fd5b6001600160a01b0381168114610e6d57600080fdfe360894a13ba1a3210667c828492db98dca3e2076cc3735a920a3ca505d382bbc416464726573733a206c6f772d6c6576656c2064656c65676174652063616c6c206661696c6564ddf252ad1be2c89b69c2b068fc378daa952ba7f163c4a11628f55a4df523b3efa264697066735822122089bd7561932512fae0c03bc443443a28bf25c8dc60cc24910afa05f5b4c3887064736f6c63430008040033",
  "linkReferences": {
    "contracts/libraries/LogicLib.sol": {
      "LogicLib": [
        {
          "length": 20,
          "start": 3452
        },
        {
          "length": 20,
          "start": 3621
        },
        {
          "length": 20,
          "start": 4094
        },
        {
          "length": 20,
          "start": 5435
        },
        {
          "length": 20,
          "start": 5685
        },
        {
          "length": 20,
          "start": 5850
        },
        {
          "length": 20,
          "start": 6119
        },
        {
          "length": 20,
          "start": 6239
        },
        {
          "length": 20,
          "start": 6527
        },
        {
          "length": 20,
          "start": 6610
        },
        {
          "length": 20,
          "start": 6772
        },
        {
          "length": 20,
          "start": 6900
        },
        {
          "length": 20,
          "start": 7042
        },
        {
          "length": 20,
          "start": 7235
        },
        {
          "length": 20,
          "start": 7457
        },
        {
          "length": 20,
          "start": 7607
        },
        {
          "length": 20,
          "start": 7738
        },
        {
          "length": 20,
          "start": 7841
        },
        {
          "length": 20,
          "start": 7998
        },
        {
          "length": 20,
          "start": 8243
        },
        {
          "length": 20,
          "start": 8314
        },
        {
          "length": 20,
          "start": 8414
        },
        {
          "length": 20,
          "start": 11085
        }
      ]
    }
  },
  "deployedLinkReferences": {
    "contracts/libraries/LogicLib.sol": {
      "LogicLib": [
        {
          "length": 20,
          "start": 3158
        },
        {
          "length": 20,
          "start": 3327
        },
        {
          "length": 20,
          "start": 3800
        },
        {
          "length": 20,
          "start": 5141
        },
        {
          "length": 20,
          "start": 5391
        },
        {
          "length": 20,
          "start": 5556
        },
        {
          "length": 20,
          "start": 5825
        },
        {
          "length": 20,
          "start": 5945
        },
        {
          "length": 20,
          "start": 6233
        },
        {
          "length": 20,
          "start": 6316
        },
        {
          "length": 20,
          "start": 6478
        },
        {
          "length": 20,
          "start": 6606
        },
        {
          "length": 20,
          "start": 6748
        },
        {
          "length": 20,
          "start": 6941
        },
        {
          "length": 20,
          "start": 7163
        },
        {
          "length": 20,
          "start": 7313
        },
        {
          "length": 20,
          "start": 7444
        },
        {
          "length": 20,
          "start": 7547
        },
        {
          "length": 20,
          "start": 7704
        },
        {
          "length": 20,
          "start": 7949
        },
        {
          "length": 20,
          "start": 8020
        },
        {
          "length": 20,
          "start": 8120
        },
        {
          "length": 20,
          "start": 10791
        }
      ]
    }
  }
}