{
  "_format": "hh-sol-artifact-1",
  "contractName": "RangeProtocolVault",
  "sourceName": "contracts/RangeProtocolVault.sol",
  "abi": [
    {
      "inputs": [],
      "stateMutability": "nonpayable",
      "type": "constructor"
    },
    {
      "inputs": [],
      "name": "MulticallFailed",
      "type": "error"
    },
    {
      "inputs": [],
      "name": "OnlyFactoryAllowed",
      "type": "error"
    },
    {
      "inputs": [],
      "name": "OnlyVaultAllowed",
      "type": "error"
    },
    {
      "anonymous": false,
      "inputs": [
        {
          "indexed": false,
          "internalType": "address",
          "name": "previousAdmin",
          "type": "address"
        },
        {
          "indexed": false,
          "internalType": "address",
          "name": "newAdmin",
          "type": "address"
        }
      ],
      "name": "AdminChanged",
      "type": "event"
    },
    {
      "anonymous": false,
      "inputs": [
        {
          "indexed": true,
          "internalType": "address",
          "name": "owner",
          "type": "address"
        },
        {
          "indexed": true,
          "internalType": "address",
          "name": "spender",
          "type": "address"
        },
        {
          "indexed": false,
          "internalType": "uint256",
          "name": "value",
          "type": "uint256"
        }
      ],
      "name": "Approval",
      "type": "event"
    },
    {
      "anonymous": false,
      "inputs": [
        {
          "indexed": true,
          "internalType": "address",
          "name": "beacon",
          "type": "address"
        }
      ],
      "name": "BeaconUpgraded",
      "type": "event"
    },
    {
      "anonymous": false,
      "inputs": [
        {
          "indexed": true,
          "internalType": "address",
          "name": "receiver",
          "type": "address"
        },
        {
          "indexed": false,
          "internalType": "uint256",
          "name": "burnAmount",
          "type": "uint256"
        },
        {
          "indexed": false,
          "internalType": "uint256",
          "name": "amount",
          "type": "uint256"
        }
      ],
      "name": "Burned",
      "type": "event"
    },
    {
      "anonymous": false,
      "inputs": [
        {
          "indexed": false,
          "internalType": "address",
          "name": "token",
          "type": "address"
        },
        {
          "indexed": false,
          "internalType": "uint256",
          "name": "amount",
          "type": "uint256"
        }
      ],
      "name": "CollateralSupplied",
      "type": "event"
    },
    {
      "anonymous": false,
      "inputs": [
        {
          "indexed": false,
          "internalType": "address",
          "name": "token",
          "type": "address"
        },
        {
          "indexed": false,
          "internalType": "uint256",
          "name": "amount",
          "type": "uint256"
        }
      ],
      "name": "CollateralWithdrawn",
      "type": "event"
    },
    {
      "anonymous": false,
      "inputs": [
        {
          "indexed": false,
          "internalType": "uint256",
          "name": "feesEarned0",
          "type": "uint256"
        },
        {
          "indexed": false,
          "internalType": "uint256",
          "name": "feesEarned1",
          "type": "uint256"
        }
      ],
      "name": "FeesEarned",
      "type": "event"
    },
    {
      "anonymous": false,
      "inputs": [
        {
          "indexed": false,
          "internalType": "uint16",
          "name": "managingFee",
          "type": "uint16"
        },
        {
          "indexed": false,
          "internalType": "uint16",
          "name": "performanceFee",
          "type": "uint16"
        }
      ],
      "name": "FeesUpdated",
      "type": "event"
    },
    {
      "anonymous": false,
      "inputs": [
        {
          "indexed": false,
          "internalType": "uint256",
          "name": "amount",
          "type": "uint256"
        }
      ],
      "name": "GHOBurned",
      "type": "event"
    },
    {
      "anonymous": false,
      "inputs": [
        {
          "indexed": false,
          "internalType": "uint256",
          "name": "amount",
          "type": "uint256"
        }
      ],
      "name": "GHOMinted",
      "type": "event"
    },
    {
      "anonymous": false,
      "inputs": [
        {
          "indexed": false,
          "internalType": "bool",
          "name": "inThePosition",
          "type": "bool"
        }
      ],
      "name": "InThePositionStatusSet",
      "type": "event"
    },
    {
      "anonymous": false,
      "inputs": [
        {
          "indexed": false,
          "internalType": "uint8",
          "name": "version",
          "type": "uint8"
        }
      ],
      "name": "Initialized",
      "type": "event"
    },
    {
      "anonymous": false,
      "inputs": [
        {
          "indexed": false,
          "internalType": "uint256",
          "name": "liquidityMinted",
          "type": "uint256"
        },
        {
          "indexed": false,
          "internalType": "int24",
          "name": "tickLower",
          "type": "int24"
        },
        {
          "indexed": false,
          "internalType": "int24",
          "name": "tickUpper",
          "type": "int24"
        },
        {
          "indexed": false,
          "internalType": "uint256",
          "name": "amount0In",
          "type": "uint256"
        },
        {
          "indexed": false,
          "internalType": "uint256",
          "name": "amount1In",
          "type": "uint256"
        }
      ],
      "name": "LiquidityAdded",
      "type": "event"
    },
    {
      "anonymous": false,
      "inputs": [
        {
          "indexed": false,
          "internalType": "uint256",
          "name": "liquidityRemoved",
          "type": "uint256"
        },
        {
          "indexed": false,
          "internalType": "int24",
          "name": "tickLower",
          "type": "int24"
        },
        {
          "indexed": false,
          "internalType": "int24",
          "name": "tickUpper",
          "type": "int24"
        },
        {
          "indexed": false,
          "internalType": "uint256",
          "name": "amount0Out",
          "type": "uint256"
        },
        {
          "indexed": false,
          "internalType": "uint256",
          "name": "amount1Out",
          "type": "uint256"
        }
      ],
      "name": "LiquidityRemoved",
      "type": "event"
    },
    {
      "anonymous": false,
      "inputs": [
        {
          "indexed": true,
          "internalType": "address",
          "name": "receiver",
          "type": "address"
        },
        {
          "indexed": false,
          "internalType": "uint256",
          "name": "shares",
          "type": "uint256"
        },
        {
          "indexed": false,
          "internalType": "uint256",
          "name": "amount",
          "type": "uint256"
        }
      ],
      "name": "Minted",
      "type": "event"
    },
    {
      "anonymous": false,
      "inputs": [
        {
          "indexed": true,
          "internalType": "address",
          "name": "previousManager",
          "type": "address"
        },
        {
          "indexed": true,
          "internalType": "address",
          "name": "newManager",
          "type": "address"
        }
      ],
      "name": "OwnershipTransferred",
      "type": "event"
    },
    {
      "anonymous": false,
      "inputs": [
        {
          "indexed": false,
          "internalType": "address",
          "name": "account",
          "type": "address"
        }
      ],
      "name": "Paused",
      "type": "event"
    },
    {
      "anonymous": false,
      "inputs": [],
      "name": "PoolRebalanced",
      "type": "event"
    },
    {
      "anonymous": false,
      "inputs": [
        {
          "indexed": false,
          "internalType": "bool",
          "name": "zeroForOne",
          "type": "bool"
        },
        {
          "indexed": false,
          "internalType": "int256",
          "name": "amount0",
          "type": "int256"
        },
        {
          "indexed": false,
          "internalType": "int256",
          "name": "amount1",
          "type": "int256"
        }
      ],
      "name": "Swapped",
      "type": "event"
    },
    {
      "anonymous": false,
      "inputs": [
        {
          "indexed": false,
          "internalType": "int24",
          "name": "lowerTick",
          "type": "int24"
        },
        {
          "indexed": false,
          "internalType": "int24",
          "name": "upperTick",
          "type": "int24"
        }
      ],
      "name": "TicksSet",
      "type": "event"
    },
    {
      "anonymous": false,
      "inputs": [
        {
          "indexed": true,
          "internalType": "address",
          "name": "from",
          "type": "address"
        },
        {
          "indexed": true,
          "internalType": "address",
          "name": "to",
          "type": "address"
        },
        {
          "indexed": false,
          "internalType": "uint256",
          "name": "value",
          "type": "uint256"
        }
      ],
      "name": "Transfer",
      "type": "event"
    },
    {
      "anonymous": false,
      "inputs": [
        {
          "indexed": false,
          "internalType": "address",
          "name": "account",
          "type": "address"
        }
      ],
      "name": "Unpaused",
      "type": "event"
    },
    {
      "anonymous": false,
      "inputs": [
        {
          "indexed": true,
          "internalType": "address",
          "name": "implementation",
          "type": "address"
        }
      ],
      "name": "Upgraded",
      "type": "event"
    },
    {
      "inputs": [
        {
          "internalType": "int24",
          "name": "newLowerTick",
          "type": "int24"
        },
        {
          "internalType": "int24",
          "name": "newUpperTick",
          "type": "int24"
        },
        {
          "internalType": "uint256",
          "name": "amount0",
          "type": "uint256"
        },
        {
          "internalType": "uint256",
          "name": "amount1",
          "type": "uint256"
        }
      ],
      "name": "addLiquidity",
      "outputs": [
        {
          "internalType": "uint256",
          "name": "remainingAmount0",
          "type": "uint256"
        },
        {
          "internalType": "uint256",
          "name": "remainingAmount1",
          "type": "uint256"
        }
      ],
      "stateMutability": "nonpayable",
      "type": "function"
    },
    {
      "inputs": [
        {
          "internalType": "address",
          "name": "owner",
          "type": "address"
        },
        {
          "internalType": "address",
          "name": "spender",
          "type": "address"
        }
      ],
      "name": "allowance",
      "outputs": [
        {
          "internalType": "uint256",
          "name": "",
          "type": "uint256"
        }
      ],
      "stateMutability": "view",
      "type": "function"
    },
    {
      "inputs": [
        {
          "internalType": "address",
          "name": "spender",
          "type": "address"
        },
        {
          "internalType": "uint256",
          "name": "amount",
          "type": "uint256"
        }
      ],
      "name": "approve",
      "outputs": [
        {
          "internalType": "bool",
          "name": "",
          "type": "bool"
        }
      ],
      "stateMutability": "nonpayable",
      "type": "function"
    },
    {
      "inputs": [
        {
          "internalType": "address",
          "name": "account",
          "type": "address"
        }
      ],
      "name": "balanceOf",
      "outputs": [
        {
          "internalType": "uint256",
          "name": "",
          "type": "uint256"
        }
      ],
      "stateMutability": "view",
      "type": "function"
    },
    {
      "inputs": [
        {
          "internalType": "uint256",
          "name": "burnAmount",
          "type": "uint256"
        }
      ],
      "name": "burn",
      "outputs": [
        {
          "internalType": "uint256",
          "name": "amount",
          "type": "uint256"
        }
      ],
      "stateMutability": "nonpayable",
      "type": "function"
    },
    {
      "inputs": [
        {
          "internalType": "uint256",
          "name": "burnAmount",
          "type": "uint256"
        }
      ],
      "name": "burnGHO",
      "outputs": [],
      "stateMutability": "nonpayable",
      "type": "function"
    },
    {
      "inputs": [
        {
          "internalType": "address",
          "name": "from",
          "type": "address"
        },
        {
          "internalType": "uint256",
          "name": "shares",
          "type": "uint256"
        }
      ],
      "name": "burnShares",
      "outputs": [],
      "stateMutability": "nonpayable",
      "type": "function"
    },
    {
      "inputs": [],
      "name": "collateralToken",
      "outputs": [
        {
          "internalType": "address",
          "name": "",
          "type": "address"
        }
      ],
      "stateMutability": "view",
      "type": "function"
    },
    {
      "inputs": [],
      "name": "collectManager",
      "outputs": [],
      "stateMutability": "nonpayable",
      "type": "function"
    },
    {
      "inputs": [],
      "name": "decimals",
      "outputs": [
        {
          "internalType": "uint8",
          "name": "",
          "type": "uint8"
        }
      ],
      "stateMutability": "view",
      "type": "function"
    },
    {
      "inputs": [
        {
          "internalType": "address",
          "name": "spender",
          "type": "address"
        },
        {
          "internalType": "uint256",
          "name": "subtractedValue",
          "type": "uint256"
        }
      ],
      "name": "decreaseAllowance",
      "outputs": [
        {
          "internalType": "bool",
          "name": "",
          "type": "bool"
        }
      ],
      "stateMutability": "nonpayable",
      "type": "function"
    },
    {
      "inputs": [],
      "name": "factory",
      "outputs": [
        {
          "internalType": "address",
          "name": "",
          "type": "address"
        }
      ],
      "stateMutability": "view",
      "type": "function"
    },
    {
      "inputs": [],
      "name": "getAavePositionData",
      "outputs": [
        {
          "internalType": "uint256",
          "name": "totalCollateralBase",
          "type": "uint256"
        },
        {
          "internalType": "uint256",
          "name": "totalDebtBase",
          "type": "uint256"
        },
        {
          "internalType": "uint256",
          "name": "availableBorrowsBase",
          "type": "uint256"
        },
        {
          "internalType": "uint256",
          "name": "currentLiquidationThreshold",
          "type": "uint256"
        },
        {
          "internalType": "uint256",
          "name": "ltv",
          "type": "uint256"
        },
        {
          "internalType": "uint256",
          "name": "healthFactor",
          "type": "uint256"
        }
      ],
      "stateMutability": "view",
      "type": "function"
    },
    {
      "inputs": [],
      "name": "getBalanceInCollateralToken",
      "outputs": [
        {
          "internalType": "uint256",
          "name": "amount",
          "type": "uint256"
        }
      ],
      "stateMutability": "view",
      "type": "function"
    },
    {
      "inputs": [],
      "name": "getCurrentFees",
      "outputs": [
        {
          "internalType": "uint256",
          "name": "fee0",
          "type": "uint256"
        },
        {
          "internalType": "uint256",
          "name": "fee1",
          "type": "uint256"
        }
      ],
      "stateMutability": "view",
      "type": "function"
    },
    {
      "inputs": [],
      "name": "getPositionID",
      "outputs": [
        {
          "internalType": "bytes32",
          "name": "positionID",
          "type": "bytes32"
        }
      ],
      "stateMutability": "view",
      "type": "function"
    },
    {
      "inputs": [
        {
          "internalType": "uint256",
          "name": "shares",
          "type": "uint256"
        }
      ],
      "name": "getUnderlyingBalanceByShare",
      "outputs": [
        {
          "internalType": "uint256",
          "name": "amount",
          "type": "uint256"
        }
      ],
      "stateMutability": "view",
      "type": "function"
    },
    {
      "inputs": [
        {
          "internalType": "uint256",
          "name": "fromIdx",
          "type": "uint256"
        },
        {
          "internalType": "uint256",
          "name": "toIdx",
          "type": "uint256"
        }
      ],
      "name": "getUserVaults",
      "outputs": [
        {
          "components": [
            {
              "internalType": "address",
              "name": "user",
              "type": "address"
            },
            {
              "internalType": "uint256",
              "name": "token",
              "type": "uint256"
            }
          ],
          "internalType": "struct DataTypesLib.UserVaultInfo[]",
          "name": "",
          "type": "tuple[]"
        }
      ],
      "stateMutability": "view",
      "type": "function"
    },
    {
      "inputs": [],
      "name": "gho",
      "outputs": [
        {
          "internalType": "address",
          "name": "",
          "type": "address"
        }
      ],
      "stateMutability": "view",
      "type": "function"
    },
    {
      "inputs": [],
      "name": "inThePosition",
      "outputs": [
        {
          "internalType": "bool",
          "name": "",
          "type": "bool"
        }
      ],
      "stateMutability": "view",
      "type": "function"
    },
    {
      "inputs": [
        {
          "internalType": "address",
          "name": "spender",
          "type": "address"
        },
        {
          "internalType": "uint256",
          "name": "addedValue",
          "type": "uint256"
        }
      ],
      "name": "increaseAllowance",
      "outputs": [
        {
          "internalType": "bool",
          "name": "",
          "type": "bool"
        }
      ],
      "stateMutability": "nonpayable",
      "type": "function"
    },
    {
      "inputs": [
        {
          "internalType": "address",
          "name": "_pool",
          "type": "address"
        },
        {
          "internalType": "int24",
          "name": "_tickSpacing",
          "type": "int24"
        },
        {
          "internalType": "bytes",
          "name": "data",
          "type": "bytes"
        }
      ],
      "name": "initialize",
      "outputs": [],
      "stateMutability": "nonpayable",
      "type": "function"
    },
    {
      "inputs": [],
      "name": "lowerTick",
      "outputs": [
        {
          "internalType": "int24",
          "name": "",
          "type": "int24"
        }
      ],
      "stateMutability": "view",
      "type": "function"
    },
    {
      "inputs": [],
      "name": "manager",
      "outputs": [
        {
          "internalType": "address",
          "name": "",
          "type": "address"
        }
      ],
      "stateMutability": "view",
      "type": "function"
    },
    {
      "inputs": [],
      "name": "managerBalance",
      "outputs": [
        {
          "internalType": "uint256",
          "name": "",
          "type": "uint256"
        }
      ],
      "stateMutability": "view",
      "type": "function"
    },
    {
      "inputs": [],
      "name": "managingFee",
      "outputs": [
        {
          "internalType": "uint16",
          "name": "",
          "type": "uint16"
        }
      ],
      "stateMutability": "view",
      "type": "function"
    },
    {
      "inputs": [
        {
          "internalType": "uint256",
          "name": "amount",
          "type": "uint256"
        }
      ],
      "name": "mint",
      "outputs": [
        {
          "internalType": "uint256",
          "name": "shares",
          "type": "uint256"
        }
      ],
      "stateMutability": "nonpayable",
      "type": "function"
    },
    {
      "inputs": [
        {
          "internalType": "uint256",
          "name": "mintAmount",
          "type": "uint256"
        }
      ],
      "name": "mintGHO",
      "outputs": [],
      "stateMutability": "nonpayable",
      "type": "function"
    },
    {
      "inputs": [
        {
          "internalType": "address",
          "name": "to",
          "type": "address"
        },
        {
          "internalType": "uint256",
          "name": "shares",
          "type": "uint256"
        }
      ],
      "name": "mintShares",
      "outputs": [],
      "stateMutability": "nonpayable",
      "type": "function"
    },
    {
      "inputs": [],
      "name": "name",
      "outputs": [
        {
          "internalType": "string",
          "name": "",
          "type": "string"
        }
      ],
      "stateMutability": "view",
      "type": "function"
    },
    {
      "inputs": [],
      "name": "pause",
      "outputs": [],
      "stateMutability": "nonpayable",
      "type": "function"
    },
    {
      "inputs": [],
      "name": "paused",
      "outputs": [
        {
          "internalType": "bool",
          "name": "",
          "type": "bool"
        }
      ],
      "stateMutability": "view",
      "type": "function"
    },
    {
      "inputs": [],
      "name": "performanceFee",
      "outputs": [
        {
          "internalType": "uint16",
          "name": "",
          "type": "uint16"
        }
      ],
      "stateMutability": "view",
      "type": "function"
    },
    {
      "inputs": [],
      "name": "pool",
      "outputs": [
        {
          "internalType": "contract IUniswapV3Pool",
          "name": "",
          "type": "address"
        }
      ],
      "stateMutability": "view",
      "type": "function"
    },
    {
      "inputs": [],
      "name": "poolAddressesProvider",
      "outputs": [
        {
          "internalType": "address",
          "name": "",
          "type": "address"
        }
      ],
      "stateMutability": "view",
      "type": "function"
    },
    {
      "inputs": [],
      "name": "proxiableUUID",
      "outputs": [
        {
          "internalType": "bytes32",
          "name": "",
          "type": "bytes32"
        }
      ],
      "stateMutability": "view",
      "type": "function"
    },
    {
      "inputs": [],
      "name": "pullFeeFromPool",
      "outputs": [],
      "stateMutability": "nonpayable",
      "type": "function"
    },
    {
      "inputs": [
        {
          "internalType": "bytes[]",
          "name": "calldatas",
          "type": "bytes[]"
        }
      ],
      "name": "rebalance",
      "outputs": [
        {
          "internalType": "bytes[]",
          "name": "returndatas",
          "type": "bytes[]"
        }
      ],
      "stateMutability": "nonpayable",
      "type": "function"
    },
    {
      "inputs": [],
      "name": "removeLiquidity",
      "outputs": [],
      "stateMutability": "nonpayable",
      "type": "function"
    },
    {
      "inputs": [],
      "name": "renounceOwnership",
      "outputs": [],
      "stateMutability": "nonpayable",
      "type": "function"
    },
    {
      "inputs": [
        {
          "internalType": "uint256",
          "name": "supplyAmount",
          "type": "uint256"
        }
      ],
      "name": "supplyCollateral",
      "outputs": [],
      "stateMutability": "nonpayable",
      "type": "function"
    },
    {
      "inputs": [
        {
          "internalType": "bool",
          "name": "zeroForOne",
          "type": "bool"
        },
        {
          "internalType": "int256",
          "name": "swapAmount",
          "type": "int256"
        },
        {
          "internalType": "uint160",
          "name": "sqrtPriceLimitX96",
          "type": "uint160"
        }
      ],
      "name": "swap",
      "outputs": [
        {
          "internalType": "int256",
          "name": "amount0",
          "type": "int256"
        },
        {
          "internalType": "int256",
          "name": "amount1",
          "type": "int256"
        }
      ],
      "stateMutability": "nonpayable",
      "type": "function"
    },
    {
      "inputs": [],
      "name": "symbol",
      "outputs": [
        {
          "internalType": "string",
          "name": "",
          "type": "string"
        }
      ],
      "stateMutability": "view",
      "type": "function"
    },
    {
      "inputs": [],
      "name": "tickSpacing",
      "outputs": [
        {
          "internalType": "int24",
          "name": "",
          "type": "int24"
        }
      ],
      "stateMutability": "view",
      "type": "function"
    },
    {
      "inputs": [],
      "name": "token0",
      "outputs": [
        {
          "internalType": "contract IERC20Upgradeable",
          "name": "",
          "type": "address"
        }
      ],
      "stateMutability": "view",
      "type": "function"
    },
    {
      "inputs": [],
      "name": "token1",
      "outputs": [
        {
          "internalType": "contract IERC20Upgradeable",
          "name": "",
          "type": "address"
        }
      ],
      "stateMutability": "view",
      "type": "function"
    },
    {
      "inputs": [],
      "name": "totalSupply",
      "outputs": [
        {
          "internalType": "uint256",
          "name": "",
          "type": "uint256"
        }
      ],
      "stateMutability": "view",
      "type": "function"
    },
    {
      "inputs": [
        {
          "internalType": "address",
          "name": "to",
          "type": "address"
        },
        {
          "internalType": "uint256",
          "name": "amount",
          "type": "uint256"
        }
      ],
      "name": "transfer",
      "outputs": [
        {
          "internalType": "bool",
          "name": "",
          "type": "bool"
        }
      ],
      "stateMutability": "nonpayable",
      "type": "function"
    },
    {
      "inputs": [
        {
          "internalType": "address",
          "name": "from",
          "type": "address"
        },
        {
          "internalType": "address",
          "name": "to",
          "type": "address"
        },
        {
          "internalType": "uint256",
          "name": "amount",
          "type": "uint256"
        }
      ],
      "name": "transferFrom",
      "outputs": [
        {
          "internalType": "bool",
          "name": "",
          "type": "bool"
        }
      ],
      "stateMutability": "nonpayable",
      "type": "function"
    },
    {
      "inputs": [
        {
          "internalType": "address",
          "name": "newManager",
          "type": "address"
        }
      ],
      "name": "transferOwnership",
      "outputs": [],
      "stateMutability": "nonpayable",
      "type": "function"
    },
    {
      "inputs": [
        {
          "internalType": "uint256",
          "name": "amount0Owed",
          "type": "uint256"
        },
        {
          "internalType": "uint256",
          "name": "amount1Owed",
          "type": "uint256"
        },
        {
          "internalType": "bytes",
          "name": "",
          "type": "bytes"
        }
      ],
      "name": "uniswapV3MintCallback",
      "outputs": [],
      "stateMutability": "nonpayable",
      "type": "function"
    },
    {
      "inputs": [
        {
          "internalType": "int256",
          "name": "amount0Delta",
          "type": "int256"
        },
        {
          "internalType": "int256",
          "name": "amount1Delta",
          "type": "int256"
        },
        {
          "internalType": "bytes",
          "name": "",
          "type": "bytes"
        }
      ],
      "name": "uniswapV3SwapCallback",
      "outputs": [],
      "stateMutability": "nonpayable",
      "type": "function"
    },
    {
      "inputs": [],
      "name": "unpause",
      "outputs": [],
      "stateMutability": "nonpayable",
      "type": "function"
    },
    {
      "inputs": [
        {
          "internalType": "uint16",
          "name": "newManagingFee",
          "type": "uint16"
        },
        {
          "internalType": "uint16",
          "name": "newPerformanceFee",
          "type": "uint16"
        }
      ],
      "name": "updateFees",
      "outputs": [],
      "stateMutability": "nonpayable",
      "type": "function"
    },
    {
      "inputs": [
        {
          "internalType": "int24",
          "name": "_lowerTick",
          "type": "int24"
        },
        {
          "internalType": "int24",
          "name": "_upperTick",
          "type": "int24"
        }
      ],
      "name": "updateTicks",
      "outputs": [],
      "stateMutability": "nonpayable",
      "type": "function"
    },
    {
      "inputs": [
        {
          "internalType": "address",
          "name": "newImplementation",
          "type": "address"
        }
      ],
      "name": "upgradeTo",
      "outputs": [],
      "stateMutability": "nonpayable",
      "type": "function"
    },
    {
      "inputs": [
        {
          "internalType": "address",
          "name": "newImplementation",
          "type": "address"
        },
        {
          "internalType": "bytes",
          "name": "data",
          "type": "bytes"
        }
      ],
      "name": "upgradeToAndCall",
      "outputs": [],
      "stateMutability": "payable",
      "type": "function"
    },
    {
      "inputs": [],
      "name": "upperTick",
      "outputs": [
        {
          "internalType": "int24",
          "name": "",
          "type": "int24"
        }
      ],
      "stateMutability": "view",
      "type": "function"
    },
    {
      "inputs": [],
      "name": "userCount",
      "outputs": [
        {
          "internalType": "uint256",
          "name": "",
          "type": "uint256"
        }
      ],
      "stateMutability": "view",
      "type": "function"
    },
    {
      "inputs": [
        {
          "internalType": "address",
          "name": "user",
          "type": "address"
        }
      ],
      "name": "userVaults",
      "outputs": [
        {
          "components": [
            {
              "internalType": "bool",
              "name": "exists",
              "type": "bool"
            },
            {
              "internalType": "uint256",
              "name": "token",
              "type": "uint256"
            }
          ],
          "internalType": "struct DataTypesLib.UserVault",
          "name": "",
          "type": "tuple"
        }
      ],
      "stateMutability": "view",
      "type": "function"
    },
    {
      "inputs": [
        {
          "internalType": "uint256",
          "name": "index",
          "type": "uint256"
        }
      ],
      "name": "users",
      "outputs": [
        {
          "internalType": "address",
          "name": "",
          "type": "address"
        }
      ],
      "stateMutability": "view",
      "type": "function"
    },
    {
      "inputs": [
        {
          "internalType": "uint256",
          "name": "withdrawAmount",
          "type": "uint256"
        }
      ],
      "name": "withdrawCollateral",
      "outputs": [],
      "stateMutability": "nonpayable",
      "type": "function"
    }
  ],
  "bytecode": "0x60a06040523060601b6080523480156200001857600080fd5b506200002362000029565b620000eb565b600054610100900460ff1615620000965760405162461bcd60e51b815260206004820152602760248201527f496e697469616c697a61626c653a20636f6e747261637420697320696e697469604482015266616c697a696e6760c81b606482015260840160405180910390fd5b60005460ff9081161015620000e9576000805460ff191660ff9081179091556040519081527f7f26b83ff96e1f2b6a682f133852f6798a09c465da95921460cefb38474024989060200160405180910390a15b565b60805160601c6139fc6200012660003960008181610d6101528181610daa015281816117060152818161174601526118b701526139fc6000f3fe60806040526004361061032d5760003560e01c806367b9a286116101a7578063c45a0155116100ed578063df28408a11610090578063df28408a14610a47578063ee7a7c0414610a5c578063eebc359a14610a7c578063f26f87ad14610a91578063f2fde38b14610aa7578063f3d2350e14610ac7578063fa461e3314610ae7578063fd87f9aa14610b0757600080fd5b8063c45a015514610986578063c653089f146109a5578063d0c93a7c146109d2578063d1af1ca9146103ad578063d21220a714610967578063d3487997146109f2578063d7e458b514610a12578063dd62ed3e14610a2757600080fd5b80638778878211610155578063877887821461089c5780639403c1ae146108bd57806395d89b41146108d25780639b1344ac146108e7578063a0712d6814610907578063a457c2d714610927578063a9059cbb14610947578063b2016bd41461096757600080fd5b806367b9a286146107c457806370a08231146107d9578063715018a61461080f57806371908a0314610824578063727dd2281461083957806380e17d87146108685780638456cb591461088757600080fd5b806339509351116102775780634fa62c5f1161021a5780634fa62c5f146106c857806351da5b17146106e8578063528c198a1461070857806352d1902d146107285780635c975abb1461073d578063601b48a4146107565780636112fe2e14610784578063628ec4db146107a457600080fd5b806339509351146105e25780633d048c27146106025780633f4ba83a146106225780634043f5ca1461063757806342966c6814610657578063481c6a75146106775780634a0997f4146106955780634f1ef286146106b557600080fd5b806323b872dd116102df57806323b872dd146104495780632958d03114610469578063313ce567146104ee578063349e078f146105115780633659cfe614610553578063365b98b214610575578063367febea14610595578063392179c6146105b557600080fd5b806306fdde031461033257806307973ccf1461035d578063095ea7b31461037d5780630dfe1681146103ad57806316f0115b146103e057806318160ddd146103ff578063195cd92c14610414575b600080fd5b34801561033e57600080fd5b50610347610b27565b60405161035491906136ec565b60405180910390f35b34801561036957600080fd5b50610169545b604051908152602001610354565b34801561038957600080fd5b5061039d610398366004613245565b610bb9565b6040519015158152602001610354565b3480156103b957600080fd5b50610161546001600160a01b03165b6040516001600160a01b039091168152602001610354565b3480156103ec57600080fd5b50610160546001600160a01b03166103c8565b34801561040b57600080fd5b5060fd5461036f565b34801561042057600080fd5b5061043461042f3660046133dc565b610bd1565b60408051928352602083019190915201610354565b34801561045557600080fd5b5061039d61046436600461315b565b610c89565b34801561047557600080fd5b506104d1610484366004613028565b6040805180820190915260008082526020820152506001600160a01b0316600090815261016860209081526040918290208251808401909352805460ff1615158352600101549082015290565b604080518251151581526020928301519281019290925201610354565b3480156104fa57600080fd5b506101635460405160ff9091168152602001610354565b34801561051d57600080fd5b50610526610caf565b604080519687526020870195909552938501929092526060840152608083015260a082015260c001610354565b34801561055f57600080fd5b5061057361056e366004613028565b610d56565b005b34801561058157600080fd5b506103c8610590366004613548565b610e28565b3480156105a157600080fd5b506105736105b0366004613548565b610e6a565b3480156105c157600080fd5b506105d56105d0366004613270565b610ee1565b6040516103549190613633565b3480156105ee57600080fd5b5061039d6105fd366004613245565b611078565b34801561060e57600080fd5b5061057361061d3660046131e8565b61109a565b34801561062e57600080fd5b506105736115f2565b34801561064357600080fd5b5061016254600160e81b900460ff1661039d565b34801561066357600080fd5b5061036f610672366004613548565b611604565b34801561068357600080fd5b5060c9546001600160a01b03166103c8565b3480156106a157600080fd5b506105736106b0366004613548565b6116b3565b6105736106c336600461319b565b6116fb565b3480156106d457600080fd5b506105736106e3366004613439565b6117b5565b3480156106f457600080fd5b50610573610703366004613548565b611838565b34801561071457600080fd5b50610573610723366004613245565b611880565b34801561073457600080fd5b5061036f6118aa565b34801561074957600080fd5b5061012d5460ff1661039d565b34801561076257600080fd5b5061016354610100900461ffff165b60405161ffff9091168152602001610354565b34801561079057600080fd5b5061057361079f366004613548565b611958565b3480156107b057600080fd5b5061036f6107bf366004613548565b6119a0565b3480156107d057600080fd5b50610573611a34565b3480156107e557600080fd5b5061036f6107f4366004613028565b6001600160a01b0316600090815260fb602052604090205490565b34801561081b57600080fd5b50610573611a9d565b34801561083057600080fd5b50610434611aaf565b34801561084557600080fd5b5061016254600160b81b900460020b5b60405160029190910b8152602001610354565b34801561087457600080fd5b50610165546001600160a01b03166103c8565b34801561089357600080fd5b50610573611b3f565b3480156108a857600080fd5b50610163546301000000900461ffff16610771565b3480156108c957600080fd5b50610573611b4f565b3480156108de57600080fd5b50610347611bb8565b3480156108f357600080fd5b5061016254600160a01b900460020b610855565b34801561091357600080fd5b5061036f610922366004613548565b611bc7565b34801561093357600080fd5b5061039d610942366004613245565b611c19565b34801561095357600080fd5b5061039d610962366004613245565b611c9f565b34801561097357600080fd5b50610162546001600160a01b03166103c8565b34801561099257600080fd5b5061015f546001600160a01b03166103c8565b3480156109b157600080fd5b506109c56109c0366004613560565b611cad565b6040516103549190613694565b3480156109de57600080fd5b5061016254600160d01b900460020b610855565b3480156109fe57600080fd5b50610573610a0d3660046134cf565b611d46565b348015610a1e57600080fd5b50610573611dbf565b348015610a3357600080fd5b5061036f610a42366004613123565b611e00565b348015610a5357600080fd5b5061036f611e2b565b348015610a6857600080fd5b50610573610a77366004613245565b611eb8565b348015610a8857600080fd5b5061036f611ee2565b348015610a9d57600080fd5b506101645461036f565b348015610ab357600080fd5b50610573610ac2366004613028565b611f1e565b348015610ad357600080fd5b50610573610ae236600461351f565b611f96565b348015610af357600080fd5b50610573610b023660046134cf565b611fe9565b348015610b1357600080fd5b50610434610b2236600461346b565b612030565b606060fe8054610b36906138c8565b80601f0160208091040260200160405190810160405280929190818152602001828054610b62906138c8565b8015610baf5780601f10610b8457610100808354040283529160200191610baf565b820191906000526020600020905b815481529060010190602001808311610b9257829003601f168201915b5050505050905090565b600033610bc78185856120eb565b5060019392505050565b600080610bdc61220f565b60405163371bb82360e11b815261015f60048201528515156024820152604481018590526001600160a01b038416606482015273__$f4ff6c4bcb16d28a0e12b061661b52637f$__90636e37704690608401604080518083038186803b158015610c4557600080fd5b505af4158015610c59573d6000803e3d6000fd5b505050506040513d601f19601f82011682018060405250810190610c7d91906134ac565b91509150935093915050565b600033610c97858285612274565b610ca28585856122e8565b60019150505b9392505050565b60008060008060008073__$f4ff6c4bcb16d28a0e12b061661b52637f$__63feaadfd361015f6040518263ffffffff1660e01b8152600401610cf391815260200190565b60c06040518083038186803b158015610d0b57600080fd5b505af4158015610d1f573d6000803e3d6000fd5b505050506040513d601f19601f82011682018060405250810190610d439190613581565b949b939a50919850965094509092509050565b306001600160a01b037f0000000000000000000000000000000000000000000000000000000000000000161415610da85760405162461bcd60e51b8152600401610d9f906136ff565b60405180910390fd5b7f00000000000000000000000000000000000000000000000000000000000000006001600160a01b0316610dda61248c565b6001600160a01b031614610e005760405162461bcd60e51b8152600401610d9f9061374b565b610e09816124a8565b60408051600080825260208201909252610e25918391906124d4565b50565b600061015f600a018281548110610e4f57634e487b7160e01b600052603260045260246000fd5b6000918252602090912001546001600160a01b031692915050565b610e7261220f565b604051630decace760e01b815261015f60048201526024810182905273__$f4ff6c4bcb16d28a0e12b061661b52637f$__90630decace7906044015b60006040518083038186803b158015610ec657600080fd5b505af4158015610eda573d6000803e3d6000fd5b5050505050565b6060610eeb61220f565b81516001600160401b03811115610f1257634e487b7160e01b600052604160045260246000fd5b604051908082528060200260200182016040528015610f4557816020015b6060815260200190600190039081610f305790505b50905060005b825181101561104957600080306001600160a01b0316858481518110610f8157634e487b7160e01b600052603260045260246000fd5b6020026020010151604051610f969190613617565b600060405180830381855af49150503d8060008114610fd1576040519150601f19603f3d011682016040523d82523d6000602084013e610fd6565b606091505b50915091508161100857805115610fef57805181602001fd5b6040516309ad446560e31b815260040160405180910390fd5b8084848151811061102957634e487b7160e01b600052603260045260246000fd5b60200260200101819052505050808061104190613903565b915050610f4b565b506040517fbea818f156931a4f725c0aff78bb50e3e7b6c00e6edbe9abc8fdf4529b42415890600090a1919050565b600033610bc781858561108b8383611e00565b6110959190613884565b6120eb565b600054610100900460ff16158080156110ba5750600054600160ff909116105b806110d45750303b1580156110d4575060005460ff166001145b6111375760405162461bcd60e51b815260206004820152602e60248201527f496e697469616c697a61626c653a20636f6e747261637420697320616c72656160448201526d191e481a5b9a5d1a585b1a5e995960921b6064820152608401610d9f565b6000805460ff19166001179055801561115a576000805461ff0019166101001790555b6000806000806000806000888060200190518101906111799190613060565b965096509650965096509650965061118f612653565b61119761267a565b61119f6126a9565b6111a986866126d8565b6111b1612709565b6111ba87612738565b61016080546001600160a01b0319166001600160a01b038d1690811790915560408051630dfe168160e01b8152905160009291630dfe1681916004808301926020929190829003018186803b15801561121257600080fd5b505afa158015611226573d6000803e3d6000fd5b505050506040513d601f19601f8201168201806040525081019061124a9190613044565b9050600061015f60010160009054906101000a90046001600160a01b03166001600160a01b031663d21220a76040518163ffffffff1660e01b815260040160206040518083038186803b1580156112a057600080fd5b505afa1580156112b4573d6000803e3d6000fd5b505050506040513d601f19601f820116820180604052508101906112d89190613044565b90508161015f60020160006101000a8154816001600160a01b0302191690836001600160a01b031602179055508061015f60030160006101000a8154816001600160a01b0302191690836001600160a01b031602179055508b61015f600301601a6101000a81548162ffffff021916908360020b62ffffff1602179055503361015f60000160006101000a8154816001600160a01b0302191690836001600160a01b031602179055506000826001600160a01b031663313ce5676040518163ffffffff1660e01b815260040160206040518083038186803b1580156113bc57600080fd5b505afa1580156113d0573d6000803e3d6000fd5b505050506040513d601f19601f820116820180604052508101906113f491906135ca565b90506000826001600160a01b031663313ce5676040518163ffffffff1660e01b815260040160206040518083038186803b15801561143157600080fd5b505afa158015611445573d6000803e3d6000fd5b505050506040513d601f19601f8201168201806040525081019061146991906135ca565b610162805460ff808416600160f81b026001600160f81b03918716600160f01b02919091166001600160f01b039092169190911717905561016580546001600160a01b03808b166001600160a01b03199283161790925561016680548a8416908316179055610167805489841692169190911790559091508481169089161461150257610163805460ff191660ff841617905581611514565b610163805460ff191660ff8316179055805b610163805460ff191660ff92909216919091179055604051631262ee9360e01b815261015f6004820152600a602482015260fa604482015273__$f4ff6c4bcb16d28a0e12b061661b52637f$__90631262ee939060640160006040518083038186803b15801561158357600080fd5b505af4158015611597573d6000803e3d6000fd5b50505050505050505050505050505080156115ec576000805461ff0019169055604051600181527f7f26b83ff96e1f2b6a682f133852f6798a09c465da95921460cefb38474024989060200160405180910390a15b50505050565b6115fa61220f565b61160261278a565b565b600061160e6127dd565b611616612837565b60405163cbc412a760e01b815261015f60048201526024810183905273__$f4ff6c4bcb16d28a0e12b061661b52637f$__9063cbc412a7906044015b60206040518083038186803b15801561166a57600080fd5b505af415801561167e573d6000803e3d6000fd5b505050506040513d601f19601f820116820180604052508101906116a29190613421565b90506116ae6001606555565b919050565b6116bb61220f565b60405163aa14b15360e01b815261015f60048201526024810182905273__$f4ff6c4bcb16d28a0e12b061661b52637f$__9063aa14b15390604401610eae565b306001600160a01b037f00000000000000000000000000000000000000000000000000000000000000001614156117445760405162461bcd60e51b8152600401610d9f906136ff565b7f00000000000000000000000000000000000000000000000000000000000000006001600160a01b031661177661248c565b6001600160a01b03161461179c5760405162461bcd60e51b8152600401610d9f9061374b565b6117a5826124a8565b6117b1828260016124d4565b5050565b6117bd61220f565b604051633fdbd2d760e01b815261015f6004820152600283810b602483015282900b604482015273__$f4ff6c4bcb16d28a0e12b061661b52637f$__90633fdbd2d7906064015b60006040518083038186803b15801561181c57600080fd5b505af4158015611830573d6000803e3d6000fd5b505050505050565b61184061220f565b60405163388bfeed60e21b815261015f60048201526024810182905273__$f4ff6c4bcb16d28a0e12b061661b52637f$__9063e22ffbb490604401610eae565b3330146118a057604051631628c08760e31b815260040160405180910390fd5b6117b18282612885565b6000306001600160a01b037f000000000000000000000000000000000000000000000000000000000000000016146119455760405162461bcd60e51b815260206004820152603860248201527f555550535570677261646561626c653a206d757374206e6f742062652063616c6044820152771b1959081d1a1c9bdd59da0819195b1959d85d1958d85b1b60421b6064820152608401610d9f565b5060008051602061396083398151915290565b61196061220f565b604051637fec8ad360e01b815261015f60048201526024810182905273__$f4ff6c4bcb16d28a0e12b061661b52637f$__90637fec8ad390604401610eae565b6040516356d9182d60e11b815261015f60048201526024810182905260009073__$f4ff6c4bcb16d28a0e12b061661b52637f$__9063adb2305a9060440160206040518083038186803b1580156119f657600080fd5b505af4158015611a0a573d6000803e3d6000fd5b505050506040513d601f19601f82011682018060405250810190611a2e9190613421565b92915050565b611a3c61220f565b60405163819a597160e01b815261015f600482015273__$f4ff6c4bcb16d28a0e12b061661b52637f$__9063819a5971906024015b60006040518083038186803b158015611a8957600080fd5b505af41580156115ec573d6000803e3d6000fd5b611aa561220f565b6116026000612738565b60405163812c13f360e01b815261015f6004820152600090819073__$f4ff6c4bcb16d28a0e12b061661b52637f$__9063812c13f390602401604080518083038186803b158015611aff57600080fd5b505af4158015611b13573d6000803e3d6000fd5b505050506040513d601f19601f82011682018060405250810190611b3791906134ac565b915091509091565b611b4761220f565b611602612940565b611b5761220f565b73__$f4ff6c4bcb16d28a0e12b061661b52637f$__63a4dc445d61015f611b8660c9546001600160a01b031690565b6040516001600160e01b031960e085901b16815260048101929092526001600160a01b03166024820152604401611a71565b606060ff8054610b36906138c8565b6000611bd16127dd565b611bd9612837565b60405163f348f5d360e01b815261015f60048201526024810183905273__$f4ff6c4bcb16d28a0e12b061661b52637f$__9063f348f5d390604401611652565b60003381611c278286611e00565b905083811015611c875760405162461bcd60e51b815260206004820152602560248201527f45524332303a2064656372656173656420616c6c6f77616e63652062656c6f77604482015264207a65726f60d81b6064820152608401610d9f565b611c9482868684036120eb565b506001949350505050565b600033610bc78185856122e8565b604051637db1f66560e11b815261015f6004820152602481018390526044810182905260609073__$f4ff6c4bcb16d28a0e12b061661b52637f$__9063fb63ecca9060640160006040518083038186803b158015611d0a57600080fd5b505af4158015611d1e573d6000803e3d6000fd5b505050506040513d6000823e601f3d908101601f19168201604052610ca89190810190613320565b604051635692f48560e01b815261015f6004820152602481018590526044810184905273__$f4ff6c4bcb16d28a0e12b061661b52637f$__90635692f485906064015b60006040518083038186803b158015611da157600080fd5b505af4158015611db5573d6000803e3d6000fd5b5050505050505050565b611dc761220f565b604051637436b83560e01b815261015f600482015273__$f4ff6c4bcb16d28a0e12b061661b52637f$__90637436b83590602401611a71565b6001600160a01b03918216600090815260fc6020908152604080832093909416825291909152205490565b604051633081559960e11b815261015f600482015260009073__$f4ff6c4bcb16d28a0e12b061661b52637f$__90636102ab32906024015b60206040518083038186803b158015611e7b57600080fd5b505af4158015611e8f573d6000803e3d6000fd5b505050506040513d601f19601f82011682018060405250810190611eb39190613421565b905090565b333014611ed857604051631628c08760e31b815260040160405180910390fd5b6117b1828261297e565b60405163fea8519360e01b815261015f600482015260009073__$f4ff6c4bcb16d28a0e12b061661b52637f$__9063fea8519390602401611e63565b611f2661220f565b6001600160a01b038116611f8d5760405162461bcd60e51b815260206004820152602860248201527f4f776e61626c653a206e6577206d616e6167657220697320746865207a65726f604482015267206164647265737360c01b6064820152608401610d9f565b610e2581612738565b611f9e61220f565b604051631262ee9360e01b815261015f600482015261ffff80841660248301528216604482015273__$f4ff6c4bcb16d28a0e12b061661b52637f$__90631262ee9390606401611804565b604051632fa1b90960e11b815261015f6004820152602481018590526044810184905273__$f4ff6c4bcb16d28a0e12b061661b52637f$__90635f43721290606401611d89565b60008061203b61220f565b604051631b1e7a1560e21b815261015f6004820152600287810b602483015286900b6044820152606481018590526084810184905273__$f4ff6c4bcb16d28a0e12b061661b52637f$__90636c79e8549060a401604080518083038186803b1580156120a657600080fd5b505af41580156120ba573d6000803e3d6000fd5b505050506040513d601f19601f820116820180604052508101906120de91906134ac565b9150915094509492505050565b6001600160a01b03831661214d5760405162461bcd60e51b8152602060048201526024808201527f45524332303a20617070726f76652066726f6d20746865207a65726f206164646044820152637265737360e01b6064820152608401610d9f565b6001600160a01b0382166121ae5760405162461bcd60e51b815260206004820152602260248201527f45524332303a20617070726f766520746f20746865207a65726f206164647265604482015261737360f01b6064820152608401610d9f565b6001600160a01b03838116600081815260fc602090815260408083209487168084529482529182902085905590518481527f8c5be1e5ebec7d5bd14f71427d1e84f3dd0314c0f7b2291e5b200ac8c7c3b925910160405180910390a3505050565b60c9546001600160a01b031633146116025760405162461bcd60e51b815260206004820152602260248201527f4f776e61626c653a2063616c6c6572206973206e6f7420746865206d616e616760448201526132b960f11b6064820152608401610d9f565b60006122808484611e00565b905060001981146115ec57818110156122db5760405162461bcd60e51b815260206004820152601d60248201527f45524332303a20696e73756666696369656e7420616c6c6f77616e63650000006044820152606401610d9f565b6115ec84848484036120eb565b6001600160a01b03831661234c5760405162461bcd60e51b815260206004820152602560248201527f45524332303a207472616e736665722066726f6d20746865207a65726f206164604482015264647265737360d81b6064820152608401610d9f565b6001600160a01b0382166123ae5760405162461bcd60e51b815260206004820152602360248201527f45524332303a207472616e7366657220746f20746865207a65726f206164647260448201526265737360e81b6064820152608401610d9f565b6123b9838383612aac565b6001600160a01b038316600090815260fb6020526040902054818110156124315760405162461bcd60e51b815260206004820152602660248201527f45524332303a207472616e7366657220616d6f756e7420657863656564732062604482015265616c616e636560d01b6064820152608401610d9f565b6001600160a01b03808516600081815260fb602052604080822086860390559286168082529083902080548601905591516000805160206139a78339815191529061247f9086815260200190565b60405180910390a36115ec565b600080516020613960833981519152546001600160a01b031690565b61015f546001600160a01b03163314610e2557604051631b1319e560e01b815260040160405180910390fd5b7f4910fdfa16fed3260ed0e7147f7cc6da11a60208b5b9406d12a635614ffd91435460ff161561250c5761250783612b33565b505050565b826001600160a01b03166352d1902d6040518163ffffffff1660e01b815260040160206040518083038186803b15801561254557600080fd5b505afa925050508015612575575060408051601f3d908101601f1916820190925261257291810190613421565b60015b6125d85760405162461bcd60e51b815260206004820152602e60248201527f45524331393637557067726164653a206e657720696d706c656d656e7461746960448201526d6f6e206973206e6f74205555505360901b6064820152608401610d9f565b60008051602061396083398151915281146126475760405162461bcd60e51b815260206004820152602960248201527f45524331393637557067726164653a20756e737570706f727465642070726f786044820152681a58589b195555525160ba1b6064820152608401610d9f565b50612507838383612bcf565b600054610100900460ff166116025760405162461bcd60e51b8152600401610d9f90613797565b600054610100900460ff166126a15760405162461bcd60e51b8152600401610d9f90613797565b611602612bf4565b600054610100900460ff166126d05760405162461bcd60e51b8152600401610d9f90613797565b611602612c1b565b600054610100900460ff166126ff5760405162461bcd60e51b8152600401610d9f90613797565b6117b18282612c4b565b600054610100900460ff166127305760405162461bcd60e51b8152600401610d9f90613797565b611602612c99565b60c980546001600160a01b038381166001600160a01b0319831681179093556040519116919082907f8be0079c531659141344cd1fd0a4f28419497f9722a3daafe3b4186f6b6457e090600090a35050565b612792612ccd565b61012d805460ff191690557f5db9ee0a495bf2e6ff9c91a7834c1ba4fdd244a5e8aa4e537bd38aeae4b073aa335b6040516001600160a01b03909116815260200160405180910390a1565b600260655414156128305760405162461bcd60e51b815260206004820152601f60248201527f5265656e7472616e637947756172643a207265656e7472616e742063616c6c006044820152606401610d9f565b6002606555565b61012d5460ff16156116025760405162461bcd60e51b815260206004820152601060248201526f14185d5cd8589b194e881c185d5cd95960821b6044820152606401610d9f565b6001606555565b6001600160a01b0382166128db5760405162461bcd60e51b815260206004820152601f60248201527f45524332303a206d696e7420746f20746865207a65726f2061646472657373006044820152606401610d9f565b6128e760008383612aac565b8060fd60008282546128f99190613884565b90915550506001600160a01b038216600081815260fb60209081526040808320805486019055518481526000805160206139a7833981519152910160405180910390a35050565b612948612837565b61012d805460ff191660011790557f62e78cea01bee320cd4e420270b5ea74000d11b0c9f74754ebdbfc544b05a2586127c03390565b6001600160a01b0382166129de5760405162461bcd60e51b815260206004820152602160248201527f45524332303a206275726e2066726f6d20746865207a65726f206164647265736044820152607360f81b6064820152608401610d9f565b6129ea82600083612aac565b6001600160a01b038216600090815260fb602052604090205481811015612a5e5760405162461bcd60e51b815260206004820152602260248201527f45524332303a206275726e20616d6f756e7420657863656564732062616c616e604482015261636560f01b6064820152608401610d9f565b6001600160a01b038316600081815260fb60209081526040808320868603905560fd80548790039055518581529192916000805160206139a7833981519152910160405180910390a3505050565b60405163f7c2522960e01b815261015f60048201526001600160a01b038085166024830152831660448201526064810182905273__$f4ff6c4bcb16d28a0e12b061661b52637f$__9063f7c252299060840160006040518083038186803b158015612b1657600080fd5b505af4158015612b2a573d6000803e3d6000fd5b50505050505050565b6001600160a01b0381163b612ba05760405162461bcd60e51b815260206004820152602d60248201527f455243313936373a206e657720696d706c656d656e746174696f6e206973206e60448201526c1bdd08184818dbdb9d1c9858dd609a1b6064820152608401610d9f565b60008051602061396083398151915280546001600160a01b0319166001600160a01b0392909216919091179055565b612bd883612d17565b600082511180612be55750805b15612507576115ec8383612d57565b600054610100900460ff1661287e5760405162461bcd60e51b8152600401610d9f90613797565b600054610100900460ff16612c425760405162461bcd60e51b8152600401610d9f90613797565b61160233612738565b600054610100900460ff16612c725760405162461bcd60e51b8152600401610d9f90613797565b8151612c859060fe906020850190612e89565b5080516125079060ff906020840190612e89565b600054610100900460ff16612cc05760405162461bcd60e51b8152600401610d9f90613797565b61012d805460ff19169055565b61012d5460ff166116025760405162461bcd60e51b815260206004820152601460248201527314185d5cd8589b194e881b9bdd081c185d5cd95960621b6044820152606401610d9f565b612d2081612b33565b6040516001600160a01b038216907fbc7cd75a20ee27fd9adebab32041f755214dbc6bffa90cc0225b39da2e5c2d3b90600090a250565b60606001600160a01b0383163b612dbf5760405162461bcd60e51b815260206004820152602660248201527f416464726573733a2064656c65676174652063616c6c20746f206e6f6e2d636f6044820152651b9d1c9858dd60d21b6064820152608401610d9f565b600080846001600160a01b031684604051612dda9190613617565b600060405180830381855af49150503d8060008114612e15576040519150601f19603f3d011682016040523d82523d6000602084013e612e1a565b606091505b5091509150612e42828260405180606001604052806027815260200161398060279139612e4b565b95945050505050565b60608315612e5a575081610ca8565b610ca88383815115612e6f5781518083602001fd5b8060405162461bcd60e51b8152600401610d9f91906136ec565b828054612e95906138c8565b90600052602060002090601f016020900481019282612eb75760008555612efd565b82601f10612ed057805160ff1916838001178555612efd565b82800160010185558215612efd579182015b82811115612efd578251825591602001919060010190612ee2565b50612f09929150612f0d565b5090565b5b80821115612f095760008155600101612f0e565b60008083601f840112612f33578182fd5b5081356001600160401b03811115612f49578182fd5b602083019150836020828501011115612f6157600080fd5b9250929050565b600082601f830112612f78578081fd5b8135612f8b612f868261385d565b61380a565b818152846020838601011115612f9f578283fd5b816020850160208301379081016020019190915292915050565b8035600281900b81146116ae57600080fd5b600082601f830112612fdb578081fd5b8151612fe9612f868261385d565b818152846020838601011115612ffd578283fd5b61300e82602083016020870161389c565b949350505050565b803561ffff811681146116ae57600080fd5b600060208284031215613039578081fd5b8135610ca88161394a565b600060208284031215613055578081fd5b8151610ca88161394a565b600080600080600080600060e0888a03121561307a578283fd5b87516130858161394a565b60208901519097506001600160401b03808211156130a1578485fd5b6130ad8b838c01612fcb565b975060408a01519150808211156130c2578485fd5b506130cf8a828b01612fcb565b95505060608801516130e08161394a565b60808901519094506130f18161394a565b60a08901519093506131028161394a565b60c08901519092506131138161394a565b8091505092959891949750929550565b60008060408385031215613135578182fd5b82356131408161394a565b915060208301356131508161394a565b809150509250929050565b60008060006060848603121561316f578081fd5b833561317a8161394a565b9250602084013561318a8161394a565b929592945050506040919091013590565b600080604083850312156131ad578182fd5b82356131b88161394a565b915060208301356001600160401b038111156131d2578182fd5b6131de85828601612f68565b9150509250929050565b6000806000606084860312156131fc578081fd5b83356132078161394a565b925061321560208501612fb9565b915060408401356001600160401b0381111561322f578182fd5b61323b86828701612f68565b9150509250925092565b60008060408385031215613257578182fd5b82356132628161394a565b946020939093013593505050565b60006020808385031215613282578182fd5b82356001600160401b0380821115613298578384fd5b818501915085601f8301126132ab578384fd5b81356132b9612f868261383a565b80828252858201915085850189878560051b88010111156132d8578788fd5b875b84811015613311578135868111156132f057898afd5b6132fe8c8a838b0101612f68565b85525092870192908701906001016132da565b50909998505050505050505050565b60006020808385031215613332578182fd5b82516001600160401b03811115613347578283fd5b8301601f81018513613357578283fd5b8051613365612f868261383a565b80828252848201915084840188868560061b8701011115613384578687fd5b8694505b838510156133d057604080828b0312156133a0578788fd5b6133a86137e2565b82516133b38161394a565b815282880151888201528452600195909501949286019201613388565b50979650505050505050565b6000806000606084860312156133f0578081fd5b833580151581146133ff578182fd5b92506020840135915060408401356134168161394a565b809150509250925092565b600060208284031215613432578081fd5b5051919050565b6000806040838503121561344b578182fd5b61345483612fb9565b915061346260208401612fb9565b90509250929050565b60008060008060808587031215613480578182fd5b61348985612fb9565b935061349760208601612fb9565b93969395505050506040820135916060013590565b600080604083850312156134be578182fd5b505080516020909101519092909150565b600080600080606085870312156134e4578182fd5b843593506020850135925060408501356001600160401b03811115613507578283fd5b61351387828801612f22565b95989497509550505050565b60008060408385031215613531578182fd5b61353a83613016565b915061346260208401613016565b600060208284031215613559578081fd5b5035919050565b60008060408385031215613572578182fd5b50508035926020909101359150565b60008060008060008060c08789031215613599578384fd5b865195506020870151945060408701519350606087015192506080870151915060a087015190509295509295509295565b6000602082840312156135db578081fd5b815160ff81168114610ca8578182fd5b6000815180845261360381602086016020860161389c565b601f01601f19169290920160200192915050565b6000825161362981846020870161389c565b9190910192915050565b6000602080830181845280855180835260408601915060408160051b8701019250838701855b8281101561368757603f198886030184526136758583516135eb565b94509285019290850190600101613659565b5092979650505050505050565b602080825282518282018190526000919060409081850190868401855b828110156136df57815180516001600160a01b031685528601518685015292840192908501906001016136b1565b5091979650505050505050565b602081526000610ca860208301846135eb565b6020808252602c908201527f46756e6374696f6e206d7573742062652063616c6c6564207468726f7567682060408201526b19195b1959d85d1958d85b1b60a21b606082015260800190565b6020808252602c908201527f46756e6374696f6e206d7573742062652063616c6c6564207468726f7567682060408201526b6163746976652070726f787960a01b606082015260800190565b6020808252602b908201527f496e697469616c697a61626c653a20636f6e7472616374206973206e6f74206960408201526a6e697469616c697a696e6760a81b606082015260800190565b604080519081016001600160401b038111828210171561380457613804613934565b60405290565b604051601f8201601f191681016001600160401b038111828210171561383257613832613934565b604052919050565b60006001600160401b0382111561385357613853613934565b5060051b60200190565b60006001600160401b0382111561387657613876613934565b50601f01601f191660200190565b600082198211156138975761389761391e565b500190565b60005b838110156138b757818101518382015260200161389f565b838111156115ec5750506000910152565b600181811c908216806138dc57607f821691505b602082108114156138fd57634e487b7160e01b600052602260045260246000fd5b50919050565b60006000198214156139175761391761391e565b5060010190565b634e487b7160e01b600052601160045260246000fd5b634e487b7160e01b600052604160045260246000fd5b6001600160a01b0381168114610e2557600080fdfe360894a13ba1a3210667c828492db98dca3e2076cc3735a920a3ca505d382bbc416464726573733a206c6f772d6c6576656c2064656c65676174652063616c6c206661696c6564ddf252ad1be2c89b69c2b068fc378daa952ba7f163c4a11628f55a4df523b3efa26469706673582212204f7a49b49dc7c39c2ab718a66f34a6de2161c916b58ff8133971f0ff769d6f1764736f6c63430008040033",
  "linkReferences": {
    "contracts/libraries/LogicLib.sol": {
      "LogicLib": [
        {
          "length": 20,
          "start": 3383
        },
        {
          "length": 20,
          "start": 3552
        },
        {
          "length": 20,
          "start": 4022
        },
        {
          "length": 20,
          "start": 5748
        },
        {
          "length": 20,
          "start": 5978
        },
        {
          "length": 20,
          "start": 6143
        },
        {
          "length": 20,
          "start": 6412
        },
        {
          "length": 20,
          "start": 6532
        },
        {
          "length": 20,
          "start": 6820
        },
        {
          "length": 20,
          "start": 6887
        },
        {
          "length": 20,
          "start": 7033
        },
        {
          "length": 20,
          "start": 7153
        },
        {
          "length": 20,
          "start": 7295
        },
        {
          "length": 20,
          "start": 7453
        },
        {
          "length": 20,
          "start": 7675
        },
        {
          "length": 20,
          "start": 7825
        },
        {
          "length": 20,
          "start": 7940
        },
        {
          "length": 20,
          "start": 8043
        },
        {
          "length": 20,
          "start": 8226
        },
        {
          "length": 20,
          "start": 8429
        },
        {
          "length": 20,
          "start": 8500
        },
        {
          "length": 20,
          "start": 8600
        },
        {
          "length": 20,
          "start": 11271
        }
      ]
    }
  },
  "deployedLinkReferences": {
    "contracts/libraries/LogicLib.sol": {
      "LogicLib": [
        {
          "length": 20,
          "start": 3089
        },
        {
          "length": 20,
          "start": 3258
        },
        {
          "length": 20,
          "start": 3728
        },
        {
          "length": 20,
          "start": 5454
        },
        {
          "length": 20,
          "start": 5684
        },
        {
          "length": 20,
          "start": 5849
        },
        {
          "length": 20,
          "start": 6118
        },
        {
          "length": 20,
          "start": 6238
        },
        {
          "length": 20,
          "start": 6526
        },
        {
          "length": 20,
          "start": 6593
        },
        {
          "length": 20,
          "start": 6739
        },
        {
          "length": 20,
          "start": 6859
        },
        {
          "length": 20,
          "start": 7001
        },
        {
          "length": 20,
          "start": 7159
        },
        {
          "length": 20,
          "start": 7381
        },
        {
          "length": 20,
          "start": 7531
        },
        {
          "length": 20,
          "start": 7646
        },
        {
          "length": 20,
          "start": 7749
        },
        {
          "length": 20,
          "start": 7932
        },
        {
          "length": 20,
          "start": 8135
        },
        {
          "length": 20,
          "start": 8206
        },
        {
          "length": 20,
          "start": 8306
        },
        {
          "length": 20,
          "start": 10977
        }
      ]
    }
  }
}