{
  "_format": "hh-sol-artifact-1",
  "contractName": "RangeProtocolVault",
  "sourceName": "contracts/RangeProtocolVault.sol",
  "abi": [
    {
      "inputs": [],
      "stateMutability": "nonpayable",
      "type": "constructor"
    },
    {
      "inputs": [],
      "name": "InvalidBurnAmount",
      "type": "error"
    },
    {
      "inputs": [],
      "name": "InvalidManagingFee",
      "type": "error"
    },
    {
      "inputs": [],
      "name": "InvalidMintAmount",
      "type": "error"
    },
    {
      "inputs": [],
      "name": "InvalidPerformanceFee",
      "type": "error"
    },
    {
      "inputs": [],
      "name": "InvalidTicksSpacing",
      "type": "error"
    },
    {
      "inputs": [],
      "name": "MintNotAllowed",
      "type": "error"
    },
    {
      "inputs": [],
      "name": "MintNotStarted",
      "type": "error"
    },
    {
      "inputs": [],
      "name": "NotAllowedToUpdateTicks",
      "type": "error"
    },
    {
      "inputs": [],
      "name": "OnlyFactoryAllowed",
      "type": "error"
    },
    {
      "inputs": [],
      "name": "OnlyPoolAllowed",
      "type": "error"
    },
    {
      "inputs": [],
      "name": "TicksOutOfRange",
      "type": "error"
    },
    {
      "inputs": [],
      "name": "ZeroMintAmount",
      "type": "error"
    },
    {
      "inputs": [],
      "name": "ZeroUnderlyingBalance",
      "type": "error"
    },
    {
      "anonymous": false,
      "inputs": [
        {
          "indexed": false,
          "internalType": "address",
          "name": "previousAdmin",
          "type": "address"
        },
        {
          "indexed": false,
          "internalType": "address",
          "name": "newAdmin",
          "type": "address"
        }
      ],
      "name": "AdminChanged",
      "type": "event"
    },
    {
      "anonymous": false,
      "inputs": [
        {
          "indexed": true,
          "internalType": "address",
          "name": "owner",
          "type": "address"
        },
        {
          "indexed": true,
          "internalType": "address",
          "name": "spender",
          "type": "address"
        },
        {
          "indexed": false,
          "internalType": "uint256",
          "name": "value",
          "type": "uint256"
        }
      ],
      "name": "Approval",
      "type": "event"
    },
    {
      "anonymous": false,
      "inputs": [
        {
          "indexed": true,
          "internalType": "address",
          "name": "beacon",
          "type": "address"
        }
      ],
      "name": "BeaconUpgraded",
      "type": "event"
    },
    {
      "anonymous": false,
      "inputs": [
        {
          "indexed": true,
          "internalType": "address",
          "name": "receiver",
          "type": "address"
        },
        {
          "indexed": false,
          "internalType": "uint256",
          "name": "burnAmount",
          "type": "uint256"
        },
        {
          "indexed": false,
          "internalType": "uint256",
          "name": "amount0Out",
          "type": "uint256"
        },
        {
          "indexed": false,
          "internalType": "uint256",
          "name": "amount1Out",
          "type": "uint256"
        }
      ],
      "name": "Burned",
      "type": "event"
    },
    {
      "anonymous": false,
      "inputs": [
        {
          "indexed": false,
          "internalType": "uint16",
          "name": "managingFee",
          "type": "uint16"
        },
        {
          "indexed": false,
          "internalType": "uint16",
          "name": "performanceFee",
          "type": "uint16"
        }
      ],
      "name": "FeesUpdated",
      "type": "event"
    },
    {
      "anonymous": false,
      "inputs": [
        {
          "indexed": false,
          "internalType": "bool",
          "name": "inThePosition",
          "type": "bool"
        }
      ],
      "name": "InThePositionStatusSet",
      "type": "event"
    },
    {
      "anonymous": false,
      "inputs": [
        {
          "indexed": false,
          "internalType": "uint8",
          "name": "version",
          "type": "uint8"
        }
      ],
      "name": "Initialized",
      "type": "event"
    },
    {
      "anonymous": false,
      "inputs": [
        {
          "indexed": false,
          "internalType": "uint256",
          "name": "liquidityMinted",
          "type": "uint256"
        },
        {
          "indexed": false,
          "internalType": "int24",
          "name": "tickLower",
          "type": "int24"
        },
        {
          "indexed": false,
          "internalType": "int24",
          "name": "tickUpper",
          "type": "int24"
        },
        {
          "indexed": false,
          "internalType": "uint256",
          "name": "amount0In",
          "type": "uint256"
        },
        {
          "indexed": false,
          "internalType": "uint256",
          "name": "amount1In",
          "type": "uint256"
        }
      ],
      "name": "LiquidityAdded",
      "type": "event"
    },
    {
      "anonymous": false,
      "inputs": [
        {
          "indexed": false,
          "internalType": "uint256",
          "name": "liquidityRemoved",
          "type": "uint256"
        },
        {
          "indexed": false,
          "internalType": "int24",
          "name": "tickLower",
          "type": "int24"
        },
        {
          "indexed": false,
          "internalType": "int24",
          "name": "tickUpper",
          "type": "int24"
        },
        {
          "indexed": false,
          "internalType": "uint256",
          "name": "amount0Out",
          "type": "uint256"
        },
        {
          "indexed": false,
          "internalType": "uint256",
          "name": "amount1Out",
          "type": "uint256"
        }
      ],
      "name": "LiquidityRemoved",
      "type": "event"
    },
    {
      "anonymous": false,
      "inputs": [
        {
          "indexed": false,
          "internalType": "uint256",
          "name": "feesEarned0",
          "type": "uint256"
        },
        {
          "indexed": false,
          "internalType": "uint256",
          "name": "feesEarned1",
          "type": "uint256"
        }
      ],
      "name": "ManagingFeeEarned",
      "type": "event"
    },
    {
      "anonymous": false,
      "inputs": [],
      "name": "MintStarted",
      "type": "event"
    },
    {
      "anonymous": false,
      "inputs": [
        {
          "indexed": true,
          "internalType": "address",
          "name": "receiver",
          "type": "address"
        },
        {
          "indexed": false,
          "internalType": "uint256",
          "name": "mintAmount",
          "type": "uint256"
        },
        {
          "indexed": false,
          "internalType": "uint256",
          "name": "amount0In",
          "type": "uint256"
        },
        {
          "indexed": false,
          "internalType": "uint256",
          "name": "amount1In",
          "type": "uint256"
        }
      ],
      "name": "Minted",
      "type": "event"
    },
    {
      "anonymous": false,
      "inputs": [
        {
          "indexed": true,
          "internalType": "address",
          "name": "previousManager",
          "type": "address"
        },
        {
          "indexed": true,
          "internalType": "address",
          "name": "newManager",
          "type": "address"
        }
      ],
      "name": "OwnershipTransferred",
      "type": "event"
    },
    {
      "anonymous": false,
      "inputs": [
        {
          "indexed": false,
          "internalType": "address",
          "name": "account",
          "type": "address"
        }
      ],
      "name": "Paused",
      "type": "event"
    },
    {
      "anonymous": false,
      "inputs": [
        {
          "indexed": false,
          "internalType": "uint256",
          "name": "feesEarned0",
          "type": "uint256"
        },
        {
          "indexed": false,
          "internalType": "uint256",
          "name": "feesEarned1",
          "type": "uint256"
        }
      ],
      "name": "PerformanceFeeEarned",
      "type": "event"
    },
    {
      "anonymous": false,
      "inputs": [
        {
          "indexed": false,
          "internalType": "bool",
          "name": "zeroForOne",
          "type": "bool"
        },
        {
          "indexed": false,
          "internalType": "int256",
          "name": "amount0",
          "type": "int256"
        },
        {
          "indexed": false,
          "internalType": "int256",
          "name": "amount1",
          "type": "int256"
        }
      ],
      "name": "Swapped",
      "type": "event"
    },
    {
      "anonymous": false,
      "inputs": [
        {
          "indexed": false,
          "internalType": "int24",
          "name": "lowerTick",
          "type": "int24"
        },
        {
          "indexed": false,
          "internalType": "int24",
          "name": "upperTick",
          "type": "int24"
        }
      ],
      "name": "TicksSet",
      "type": "event"
    },
    {
      "anonymous": false,
      "inputs": [
        {
          "indexed": true,
          "internalType": "address",
          "name": "from",
          "type": "address"
        },
        {
          "indexed": true,
          "internalType": "address",
          "name": "to",
          "type": "address"
        },
        {
          "indexed": false,
          "internalType": "uint256",
          "name": "value",
          "type": "uint256"
        }
      ],
      "name": "Transfer",
      "type": "event"
    },
    {
      "anonymous": false,
      "inputs": [
        {
          "indexed": false,
          "internalType": "address",
          "name": "account",
          "type": "address"
        }
      ],
      "name": "Unpaused",
      "type": "event"
    },
    {
      "anonymous": false,
      "inputs": [
        {
          "indexed": true,
          "internalType": "address",
          "name": "implementation",
          "type": "address"
        }
      ],
      "name": "Upgraded",
      "type": "event"
    },
    {
      "inputs": [],
      "name": "MAX_MANAGING_FEE_BPS",
      "outputs": [
        {
          "internalType": "uint16",
          "name": "",
          "type": "uint16"
        }
      ],
      "stateMutability": "view",
      "type": "function"
    },
    {
      "inputs": [],
      "name": "MAX_PERFORMANCE_FEE_BPS",
      "outputs": [
        {
          "internalType": "uint16",
          "name": "",
          "type": "uint16"
        }
      ],
      "stateMutability": "view",
      "type": "function"
    },
    {
      "inputs": [
        {
          "internalType": "int24",
          "name": "newLowerTick",
          "type": "int24"
        },
        {
          "internalType": "int24",
          "name": "newUpperTick",
          "type": "int24"
        },
        {
          "internalType": "uint256",
          "name": "amount0",
          "type": "uint256"
        },
        {
          "internalType": "uint256",
          "name": "amount1",
          "type": "uint256"
        }
      ],
      "name": "addLiquidity",
      "outputs": [
        {
          "internalType": "uint256",
          "name": "remainingAmount0",
          "type": "uint256"
        },
        {
          "internalType": "uint256",
          "name": "remainingAmount1",
          "type": "uint256"
        }
      ],
      "stateMutability": "nonpayable",
      "type": "function"
    },
    {
      "inputs": [
        {
          "internalType": "address",
          "name": "owner",
          "type": "address"
        },
        {
          "internalType": "address",
          "name": "spender",
          "type": "address"
        }
      ],
      "name": "allowance",
      "outputs": [
        {
          "internalType": "uint256",
          "name": "",
          "type": "uint256"
        }
      ],
      "stateMutability": "view",
      "type": "function"
    },
    {
      "inputs": [
        {
          "internalType": "address",
          "name": "spender",
          "type": "address"
        },
        {
          "internalType": "uint256",
          "name": "amount",
          "type": "uint256"
        }
      ],
      "name": "approve",
      "outputs": [
        {
          "internalType": "bool",
          "name": "",
          "type": "bool"
        }
      ],
      "stateMutability": "nonpayable",
      "type": "function"
    },
    {
      "inputs": [
        {
          "internalType": "address",
          "name": "account",
          "type": "address"
        }
      ],
      "name": "balanceOf",
      "outputs": [
        {
          "internalType": "uint256",
          "name": "",
          "type": "uint256"
        }
      ],
      "stateMutability": "view",
      "type": "function"
    },
    {
      "inputs": [
        {
          "internalType": "uint256",
          "name": "burnAmount",
          "type": "uint256"
        }
      ],
      "name": "burn",
      "outputs": [
        {
          "internalType": "uint256",
          "name": "amount0",
          "type": "uint256"
        },
        {
          "internalType": "uint256",
          "name": "amount1",
          "type": "uint256"
        }
      ],
      "stateMutability": "nonpayable",
      "type": "function"
    },
    {
      "inputs": [],
      "name": "collectManager",
      "outputs": [],
      "stateMutability": "nonpayable",
      "type": "function"
    },
    {
      "inputs": [],
      "name": "decimals",
      "outputs": [
        {
          "internalType": "uint8",
          "name": "",
          "type": "uint8"
        }
      ],
      "stateMutability": "view",
      "type": "function"
    },
    {
      "inputs": [
        {
          "internalType": "address",
          "name": "spender",
          "type": "address"
        },
        {
          "internalType": "uint256",
          "name": "subtractedValue",
          "type": "uint256"
        }
      ],
      "name": "decreaseAllowance",
      "outputs": [
        {
          "internalType": "bool",
          "name": "",
          "type": "bool"
        }
      ],
      "stateMutability": "nonpayable",
      "type": "function"
    },
    {
      "inputs": [],
      "name": "factory",
      "outputs": [
        {
          "internalType": "address",
          "name": "",
          "type": "address"
        }
      ],
      "stateMutability": "view",
      "type": "function"
    },
    {
      "inputs": [],
      "name": "getCurrentFees",
      "outputs": [
        {
          "internalType": "uint256",
          "name": "fee0",
          "type": "uint256"
        },
        {
          "internalType": "uint256",
          "name": "fee1",
          "type": "uint256"
        }
      ],
      "stateMutability": "view",
      "type": "function"
    },
    {
      "inputs": [
        {
          "internalType": "uint256",
          "name": "amount0Max",
          "type": "uint256"
        },
        {
          "internalType": "uint256",
          "name": "amount1Max",
          "type": "uint256"
        }
      ],
      "name": "getMintAmounts",
      "outputs": [
        {
          "internalType": "uint256",
          "name": "amount0",
          "type": "uint256"
        },
        {
          "internalType": "uint256",
          "name": "amount1",
          "type": "uint256"
        },
        {
          "internalType": "uint256",
          "name": "mintAmount",
          "type": "uint256"
        }
      ],
      "stateMutability": "view",
      "type": "function"
    },
    {
      "inputs": [],
      "name": "getPositionID",
      "outputs": [
        {
          "internalType": "bytes32",
          "name": "positionID",
          "type": "bytes32"
        }
      ],
      "stateMutability": "view",
      "type": "function"
    },
    {
      "inputs": [],
      "name": "getUnderlyingBalances",
      "outputs": [
        {
          "internalType": "uint256",
          "name": "amount0Current",
          "type": "uint256"
        },
        {
          "internalType": "uint256",
          "name": "amount1Current",
          "type": "uint256"
        }
      ],
      "stateMutability": "view",
      "type": "function"
    },
    {
      "inputs": [
        {
          "internalType": "uint160",
          "name": "sqrtRatioX96",
          "type": "uint160"
        }
      ],
      "name": "getUnderlyingBalancesAtPrice",
      "outputs": [
        {
          "internalType": "uint256",
          "name": "amount0Current",
          "type": "uint256"
        },
        {
          "internalType": "uint256",
          "name": "amount1Current",
          "type": "uint256"
        }
      ],
      "stateMutability": "view",
      "type": "function"
    },
    {
      "inputs": [
        {
          "internalType": "uint256",
          "name": "fromIdx",
          "type": "uint256"
        },
        {
          "internalType": "uint256",
          "name": "toIdx",
          "type": "uint256"
        }
      ],
      "name": "getUserVaults",
      "outputs": [
        {
          "components": [
            {
              "internalType": "address",
              "name": "user",
              "type": "address"
            },
            {
              "internalType": "uint256",
              "name": "token0",
              "type": "uint256"
            },
            {
              "internalType": "uint256",
              "name": "token1",
              "type": "uint256"
            }
          ],
          "internalType": "struct IRangeProtocolVault.UserVaultInfo[]",
          "name": "",
          "type": "tuple[]"
        }
      ],
      "stateMutability": "view",
      "type": "function"
    },
    {
      "inputs": [],
      "name": "inThePosition",
      "outputs": [
        {
          "internalType": "bool",
          "name": "",
          "type": "bool"
        }
      ],
      "stateMutability": "view",
      "type": "function"
    },
    {
      "inputs": [
        {
          "internalType": "address",
          "name": "spender",
          "type": "address"
        },
        {
          "internalType": "uint256",
          "name": "addedValue",
          "type": "uint256"
        }
      ],
      "name": "increaseAllowance",
      "outputs": [
        {
          "internalType": "bool",
          "name": "",
          "type": "bool"
        }
      ],
      "stateMutability": "nonpayable",
      "type": "function"
    },
    {
      "inputs": [
        {
          "internalType": "address",
          "name": "_pool",
          "type": "address"
        },
        {
          "internalType": "int24",
          "name": "_tickSpacing",
          "type": "int24"
        },
        {
          "internalType": "bytes",
          "name": "data",
          "type": "bytes"
        }
      ],
      "name": "initialize",
      "outputs": [],
      "stateMutability": "nonpayable",
      "type": "function"
    },
    {
      "inputs": [],
      "name": "lowerTick",
      "outputs": [
        {
          "internalType": "int24",
          "name": "",
          "type": "int24"
        }
      ],
      "stateMutability": "view",
      "type": "function"
    },
    {
      "inputs": [],
      "name": "manager",
      "outputs": [
        {
          "internalType": "address",
          "name": "",
          "type": "address"
        }
      ],
      "stateMutability": "view",
      "type": "function"
    },
    {
      "inputs": [],
      "name": "managerBalance0",
      "outputs": [
        {
          "internalType": "uint256",
          "name": "",
          "type": "uint256"
        }
      ],
      "stateMutability": "view",
      "type": "function"
    },
    {
      "inputs": [],
      "name": "managerBalance1",
      "outputs": [
        {
          "internalType": "uint256",
          "name": "",
          "type": "uint256"
        }
      ],
      "stateMutability": "view",
      "type": "function"
    },
    {
      "inputs": [],
      "name": "managingFee",
      "outputs": [
        {
          "internalType": "uint16",
          "name": "",
          "type": "uint16"
        }
      ],
      "stateMutability": "view",
      "type": "function"
    },
    {
      "inputs": [
        {
          "internalType": "uint256",
          "name": "mintAmount",
          "type": "uint256"
        }
      ],
      "name": "mint",
      "outputs": [
        {
          "internalType": "uint256",
          "name": "amount0",
          "type": "uint256"
        },
        {
          "internalType": "uint256",
          "name": "amount1",
          "type": "uint256"
        }
      ],
      "stateMutability": "nonpayable",
      "type": "function"
    },
    {
      "inputs": [],
      "name": "mintStarted",
      "outputs": [
        {
          "internalType": "bool",
          "name": "",
          "type": "bool"
        }
      ],
      "stateMutability": "view",
      "type": "function"
    },
    {
      "inputs": [],
      "name": "name",
      "outputs": [
        {
          "internalType": "string",
          "name": "",
          "type": "string"
        }
      ],
      "stateMutability": "view",
      "type": "function"
    },
    {
      "inputs": [],
      "name": "pause",
      "outputs": [],
      "stateMutability": "nonpayable",
      "type": "function"
    },
    {
      "inputs": [],
      "name": "paused",
      "outputs": [
        {
          "internalType": "bool",
          "name": "",
          "type": "bool"
        }
      ],
      "stateMutability": "view",
      "type": "function"
    },
    {
      "inputs": [],
      "name": "performanceFee",
      "outputs": [
        {
          "internalType": "uint16",
          "name": "",
          "type": "uint16"
        }
      ],
      "stateMutability": "view",
      "type": "function"
    },
    {
      "inputs": [],
      "name": "pool",
      "outputs": [
        {
          "internalType": "contract IUniswapV3Pool",
          "name": "",
          "type": "address"
        }
      ],
      "stateMutability": "view",
      "type": "function"
    },
    {
      "inputs": [],
      "name": "proxiableUUID",
      "outputs": [
        {
          "internalType": "bytes32",
          "name": "",
          "type": "bytes32"
        }
      ],
      "stateMutability": "view",
      "type": "function"
    },
    {
      "inputs": [],
      "name": "pullFeeFromPool",
      "outputs": [],
      "stateMutability": "nonpayable",
      "type": "function"
    },
    {
      "inputs": [],
      "name": "removeLiquidity",
      "outputs": [],
      "stateMutability": "nonpayable",
      "type": "function"
    },
    {
      "inputs": [],
      "name": "renounceOwnership",
      "outputs": [],
      "stateMutability": "nonpayable",
      "type": "function"
    },
    {
      "inputs": [
        {
          "internalType": "bool",
          "name": "zeroForOne",
          "type": "bool"
        },
        {
          "internalType": "int256",
          "name": "swapAmount",
          "type": "int256"
        },
        {
          "internalType": "uint160",
          "name": "sqrtPriceLimitX96",
          "type": "uint160"
        }
      ],
      "name": "swap",
      "outputs": [
        {
          "internalType": "int256",
          "name": "amount0",
          "type": "int256"
        },
        {
          "internalType": "int256",
          "name": "amount1",
          "type": "int256"
        }
      ],
      "stateMutability": "nonpayable",
      "type": "function"
    },
    {
      "inputs": [],
      "name": "symbol",
      "outputs": [
        {
          "internalType": "string",
          "name": "",
          "type": "string"
        }
      ],
      "stateMutability": "view",
      "type": "function"
    },
    {
      "inputs": [],
      "name": "tickSpacing",
      "outputs": [
        {
          "internalType": "int24",
          "name": "",
          "type": "int24"
        }
      ],
      "stateMutability": "view",
      "type": "function"
    },
    {
      "inputs": [],
      "name": "token0",
      "outputs": [
        {
          "internalType": "contract IERC20Upgradeable",
          "name": "",
          "type": "address"
        }
      ],
      "stateMutability": "view",
      "type": "function"
    },
    {
      "inputs": [],
      "name": "token1",
      "outputs": [
        {
          "internalType": "contract IERC20Upgradeable",
          "name": "",
          "type": "address"
        }
      ],
      "stateMutability": "view",
      "type": "function"
    },
    {
      "inputs": [],
      "name": "totalSupply",
      "outputs": [
        {
          "internalType": "uint256",
          "name": "",
          "type": "uint256"
        }
      ],
      "stateMutability": "view",
      "type": "function"
    },
    {
      "inputs": [
        {
          "internalType": "address",
          "name": "to",
          "type": "address"
        },
        {
          "internalType": "uint256",
          "name": "amount",
          "type": "uint256"
        }
      ],
      "name": "transfer",
      "outputs": [
        {
          "internalType": "bool",
          "name": "",
          "type": "bool"
        }
      ],
      "stateMutability": "nonpayable",
      "type": "function"
    },
    {
      "inputs": [
        {
          "internalType": "address",
          "name": "from",
          "type": "address"
        },
        {
          "internalType": "address",
          "name": "to",
          "type": "address"
        },
        {
          "internalType": "uint256",
          "name": "amount",
          "type": "uint256"
        }
      ],
      "name": "transferFrom",
      "outputs": [
        {
          "internalType": "bool",
          "name": "",
          "type": "bool"
        }
      ],
      "stateMutability": "nonpayable",
      "type": "function"
    },
    {
      "inputs": [
        {
          "internalType": "address",
          "name": "newOwner",
          "type": "address"
        }
      ],
      "name": "transferOwnership",
      "outputs": [],
      "stateMutability": "nonpayable",
      "type": "function"
    },
    {
      "inputs": [
        {
          "internalType": "uint256",
          "name": "amount0Owed",
          "type": "uint256"
        },
        {
          "internalType": "uint256",
          "name": "amount1Owed",
          "type": "uint256"
        },
        {
          "internalType": "bytes",
          "name": "",
          "type": "bytes"
        }
      ],
      "name": "uniswapV3MintCallback",
      "outputs": [],
      "stateMutability": "nonpayable",
      "type": "function"
    },
    {
      "inputs": [
        {
          "internalType": "int256",
          "name": "amount0Delta",
          "type": "int256"
        },
        {
          "internalType": "int256",
          "name": "amount1Delta",
          "type": "int256"
        },
        {
          "internalType": "bytes",
          "name": "",
          "type": "bytes"
        }
      ],
      "name": "uniswapV3SwapCallback",
      "outputs": [],
      "stateMutability": "nonpayable",
      "type": "function"
    },
    {
      "inputs": [],
      "name": "unpause",
      "outputs": [],
      "stateMutability": "nonpayable",
      "type": "function"
    },
    {
      "inputs": [],
      "name": "unusedSlot0",
      "outputs": [
        {
          "internalType": "address",
          "name": "",
          "type": "address"
        }
      ],
      "stateMutability": "view",
      "type": "function"
    },
    {
      "inputs": [],
      "name": "unusedSlot1",
      "outputs": [
        {
          "internalType": "uint256",
          "name": "",
          "type": "uint256"
        }
      ],
      "stateMutability": "view",
      "type": "function"
    },
    {
      "inputs": [],
      "name": "unusedSlot2",
      "outputs": [
        {
          "internalType": "uint256",
          "name": "",
          "type": "uint256"
        }
      ],
      "stateMutability": "view",
      "type": "function"
    },
    {
      "inputs": [
        {
          "internalType": "uint16",
          "name": "newManagingFee",
          "type": "uint16"
        },
        {
          "internalType": "uint16",
          "name": "newPerformanceFee",
          "type": "uint16"
        }
      ],
      "name": "updateFees",
      "outputs": [],
      "stateMutability": "nonpayable",
      "type": "function"
    },
    {
      "inputs": [
        {
          "internalType": "int24",
          "name": "_lowerTick",
          "type": "int24"
        },
        {
          "internalType": "int24",
          "name": "_upperTick",
          "type": "int24"
        }
      ],
      "name": "updateTicks",
      "outputs": [],
      "stateMutability": "nonpayable",
      "type": "function"
    },
    {
      "inputs": [
        {
          "internalType": "address",
          "name": "newImplementation",
          "type": "address"
        }
      ],
      "name": "upgradeTo",
      "outputs": [],
      "stateMutability": "nonpayable",
      "type": "function"
    },
    {
      "inputs": [
        {
          "internalType": "address",
          "name": "newImplementation",
          "type": "address"
        },
        {
          "internalType": "bytes",
          "name": "data",
          "type": "bytes"
        }
      ],
      "name": "upgradeToAndCall",
      "outputs": [],
      "stateMutability": "payable",
      "type": "function"
    },
    {
      "inputs": [],
      "name": "upperTick",
      "outputs": [
        {
          "internalType": "int24",
          "name": "",
          "type": "int24"
        }
      ],
      "stateMutability": "view",
      "type": "function"
    },
    {
      "inputs": [
        {
          "internalType": "address",
          "name": "",
          "type": "address"
        }
      ],
      "name": "userVaults",
      "outputs": [
        {
          "internalType": "bool",
          "name": "exists",
          "type": "bool"
        },
        {
          "internalType": "uint256",
          "name": "token0",
          "type": "uint256"
        },
        {
          "internalType": "uint256",
          "name": "token1",
          "type": "uint256"
        }
      ],
      "stateMutability": "view",
      "type": "function"
    },
    {
      "inputs": [
        {
          "internalType": "uint256",
          "name": "",
          "type": "uint256"
        }
      ],
      "name": "users",
      "outputs": [
        {
          "internalType": "address",
          "name": "",
          "type": "address"
        }
      ],
      "stateMutability": "view",
      "type": "function"
    }
  ],
  "bytecode": "0x60a06040523060601b6080523480156200001857600080fd5b506200002362000029565b620000eb565b600054610100900460ff1615620000965760405162461bcd60e51b815260206004820152602760248201527f496e697469616c697a61626c653a20636f6e747261637420697320696e697469604482015266616c697a696e6760c81b606482015260840160405180910390fd5b60005460ff9081161015620000e9576000805460ff191660ff9081179091556040519081527f7f26b83ff96e1f2b6a682f133852f6798a09c465da95921460cefb38474024989060200160405180910390a15b565b60805160601c615e0a6200012660003960008181610da501528181610de50152818161168c015281816116cc01526118200152615e0a6000f3fe6080604052600436106103815760003560e01c806371908a03116101d1578063b670ed7d11610102578063d7e458b5116100a0578063f3d2350e1161006f578063f3d2350e14610a74578063f8c2e29b14610a94578063fa461e3314610aa9578063fd87f9aa14610ac957600080fd5b8063d7e458b514610a0a578063dd62ed3e14610a1f578063df28408a14610a3f578063f2fde38b14610a5457600080fd5b8063c653089f116100dc578063c653089f1461097a578063d0c93a7c146109a7578063d21220a7146109c9578063d3487997146109ea57600080fd5b8063b670ed7d1461091c578063c18d7e761461093c578063c45a01551461095357600080fd5b80639894f21a1161016f578063a457c2d711610149578063a457c2d7146108a5578063a9059cbb146108c5578063a9722cf3146108e5578063b1fbe9af1461090557600080fd5b80639894f21a1461082f5780639b1344ac1461086a578063a0712d681461088557600080fd5b806387788782116101ab57806387788782146107c85780639210b8f3146107e45780639403c1ae1461080557806395d89b411461081a57600080fd5b806371908a0314610769578063727dd2281461077e5780638456cb59146107b357600080fd5b80633d048c27116102b65780634fa62c5f1161025457806367b9a2861161022357806367b9a286146106f3578063708891651461070857806370a082311461071e578063715018a61461075457600080fd5b80634fa62c5f1461066f57806352d1902d1461068f5780635c975abb146106a4578063601b48a4146106bd57600080fd5b806342966c681161029057806342966c681461060757806342fb9d4414610627578063481c6a751461063e5780634f1ef2861461065c57600080fd5b80633d048c27146105b75780633f4ba83a146105d75780634043f5ca146105ec57600080fd5b8063195cd92c11610323578063313ce567116102fd578063313ce567146105395780633659cfe614610555578063365b98b214610577578063395093511461059757600080fd5b8063195cd92c1461049b57806323b872dd146104bb5780632958d031146104db57600080fd5b80630dfe16811161035f5780630dfe1681146104025780631322d9541461043b57806316f0115b1461046557806318160ddd1461048657600080fd5b8063065756db1461038657806306fdde03146103b0578063095ea7b3146103d2575b600080fd5b34801561039257600080fd5b5061039d6101605481565b6040519081526020015b60405180910390f35b3480156103bc57600080fd5b506103c5610ae9565b6040516103a791906159db565b3480156103de57600080fd5b506103f26103ed366004615553565b610b7b565b60405190151581526020016103a7565b34801561040e57600080fd5b5061016354610423906001600160a01b031681565b6040516001600160a01b0390911681526020016103a7565b34801561044757600080fd5b50610450610b93565b604080519283526020830191909152016103a7565b34801561047157600080fd5b5061016254610423906001600160a01b031681565b34801561049257600080fd5b5060fd5461039d565b3480156104a757600080fd5b506104506104b636600461559a565b610c3d565b3480156104c757600080fd5b506103f26104d636600461546f565b610d74565b3480156104e757600080fd5b5061051c6104f636600461538b565b6101696020526000908152604090208054600182015460029092015460ff909116919083565b6040805193151584526020840192909252908201526060016103a7565b34801561054557600080fd5b50604051601281526020016103a7565b34801561056157600080fd5b5061057561057036600461538b565b610d9a565b005b34801561058357600080fd5b506104236105923660046158d4565b610e7a565b3480156105a357600080fd5b506103f26105b2366004615553565b610ea5565b3480156105c357600080fd5b506105756105d23660046154fd565b610ec7565b3480156105e357600080fd5b506105756111f9565b3480156105f857600080fd5b50610168546103f29060ff1681565b34801561061357600080fd5b506104506106223660046158d4565b61123c565b34801561063357600080fd5b5061039d6101615481565b34801561064a57600080fd5b506097546001600160a01b0316610423565b61057561066a3660046154af565b611681565b34801561067b57600080fd5b5061057561068a3660046155f3565b611752565b34801561069b57600080fd5b5061039d611813565b3480156106b057600080fd5b5061012d5460ff166103f2565b3480156106c957600080fd5b5061015f546106e090600160301b900461ffff1681565b60405161ffff90911681526020016103a7565b3480156106ff57600080fd5b506105756118c6565b34801561071457600080fd5b506106e06103e881565b34801561072a57600080fd5b5061039d61073936600461538b565b6001600160a01b0316600090815260fb602052604090205490565b34801561076057600080fd5b50610575611ae9565b34801561077557600080fd5b50610450611b6c565b34801561078a57600080fd5b5061015f546107a0906301000000900460020b81565b60405160029190910b81526020016103a7565b3480156107bf57600080fd5b50610575611cfd565b3480156107d457600080fd5b5061016b546106e09061ffff1681565b3480156107f057600080fd5b5061016554610423906001600160a01b031681565b34801561081157600080fd5b50610575611d3e565b34801561082657600080fd5b506103c5611d9a565b34801561083b57600080fd5b5061084f61084a3660046158ec565b611da9565b604080519384526020840192909252908201526060016103a7565b34801561087657600080fd5b5061015f546107a09060020b81565b34801561089157600080fd5b506104506108a03660046158d4565b611f2a565b3480156108b157600080fd5b506103f26108c0366004615553565b61230d565b3480156108d157600080fd5b506103f26108e0366004615553565b612393565b3480156108f157600080fd5b50610168546103f290610100900460ff1681565b34801561091157600080fd5b5061039d6101665481565b34801561092857600080fd5b5061045061093736600461538b565b6123a1565b34801561094857600080fd5b5061039d6101675481565b34801561095f57600080fd5b5061016854610423906201000090046001600160a01b031681565b34801561098657600080fd5b5061099a6109953660046158ec565b612449565b6040516103a7919061596b565b3480156109b357600080fd5b50610164546107a090600160a01b900460020b81565b3480156109d557600080fd5b5061016454610423906001600160a01b031681565b3480156109f657600080fd5b50610575610a05366004615688565b612627565b348015610a1657600080fd5b5061057561268e565b348015610a2b57600080fd5b5061039d610a3a366004615437565b612732565b348015610a4b57600080fd5b5061039d61275d565b348015610a6057600080fd5b50610575610a6f36600461538b565b6127c2565b348015610a8057600080fd5b50610575610a8f3660046158a7565b6128be565b348015610aa057600080fd5b506106e0606481565b348015610ab557600080fd5b50610575610ac4366004615688565b6129b2565b348015610ad557600080fd5b50610450610ae4366004615620565b612a24565b606060fe8054610af890615c42565b80601f0160208091040260200160405190810160405280929190818152602001828054610b2490615c42565b8015610b715780601f10610b4657610100808354040283529160200191610b71565b820191906000526020600020905b815481529060010190602001808311610b5457829003601f168201915b5050505050905090565b600033610b89818585612d2b565b5060019392505050565b60008060008061016260009054906101000a90046001600160a01b03166001600160a01b0316633850c7bd6040518163ffffffff1660e01b815260040160e06040518083038186803b158015610be857600080fd5b505afa158015610bfc573d6000803e3d6000fd5b505050506040513d601f19601f82011682018060405250810190610c209190615807565b505050505091509150610c338282612e4f565b9350935050509091565b60008033610c536097546001600160a01b031690565b6001600160a01b031614610c825760405162461bcd60e51b8152600401610c7990615aa6565b60405180910390fd5b61016254604051630251596160e31b81523060048201528615156024820152604481018690526001600160a01b03858116606483015260a06084830152600060a48301529091169063128acb089060c4016040805180830381600087803b158015610cec57600080fd5b505af1158015610d00573d6000803e3d6000fd5b505050506040513d601f19601f82011682018060405250810190610d249190615665565b6040805188151581526020810184905290810182905291935091507fbf511038cfa32cfb7971e976074c0e6aeda010e6afcbb38d87b4f910305014949060600160405180910390a1935093915050565b600033610d828582856130eb565b610d8d85858561315f565b60019150505b9392505050565b306001600160a01b037f0000000000000000000000000000000000000000000000000000000000000000161415610de35760405162461bcd60e51b8152600401610c7990615a0e565b7f00000000000000000000000000000000000000000000000000000000000000006001600160a01b0316610e2c600080516020615d8e833981519152546001600160a01b031690565b6001600160a01b031614610e525760405162461bcd60e51b8152600401610c7990615a5a565b610e5b8161330a565b60408051600080825260208201909252610e779183919061333c565b50565b61016a8181548110610e8b57600080fd5b6000918252602090912001546001600160a01b0316905081565b600033610b89818585610eb88383612732565b610ec29190615b8c565b612d2b565b600054610100900460ff1615808015610ee75750600054600160ff909116105b80610f015750303b158015610f01575060005460ff166001145b610f645760405162461bcd60e51b815260206004820152602e60248201527f496e697469616c697a61626c653a20636f6e747261637420697320616c72656160448201526d191e481a5b9a5d1a585b1a5e995960921b6064820152608401610c79565b6000805460ff191660011790558015610f87576000805461ff0019166101001790555b600080600084806020019051810190610fa091906153c3565b925092509250610fae6134bb565b610fb66134e2565b610fc08282613511565b610fc8613542565b61016280546001600160a01b0319166001600160a01b03891690811790915560408051630dfe168160e01b81529051630dfe168191600480820192602092909190829003018186803b15801561101d57600080fd5b505afa158015611031573d6000803e3d6000fd5b505050506040513d601f19601f8201168201806040525081019061105591906153a7565b61016380546001600160a01b0319166001600160a01b03928316179055610162546040805163d21220a760e01b81529051919092169163d21220a7916004808301926020929190829003018186803b1580156110b057600080fd5b505afa1580156110c4573d6000803e3d6000fd5b505050506040513d601f19601f820116820180604052508101906110e891906153a7565b61016480546001600160a01b039283166001600160b81b031990911617600160a01b62ffffff60028b900b1602179055610168805462010000600160b01b03191633620100000217905561016b805460fa61ffff19909116811790915561015f805467ffff00000000000019169055609780546001600160a01b03191692861692909217909155604080516000815260208101929092527f2ac80c14c28700f7b5e36f947d572149fe2e3947bac32c3a8c098f3e03722c11910160405180910390a150505080156111f3576000805461ff0019169055604051600181527f7f26b83ff96e1f2b6a682f133852f6798a09c465da95921460cefb38474024989060200160405180910390a15b50505050565b3361120c6097546001600160a01b031690565b6001600160a01b0316146112325760405162461bcd60e51b8152600401610c7990615aa6565b61123a613571565b565b6000806112476135c4565b61124f61361e565b8261126d576040516302075cc160e41b815260040160405180910390fd5b600061127860fd5490565b33600081815260fb60205260409020549192506112959086613665565b6101685460ff16156114c257610162546000906001600160a01b031663514ea4bf6112be61275d565b6040518263ffffffff1660e01b81526004016112dc91815260200190565b60a06040518083038186803b1580156112f457600080fd5b505afa158015611308573d6000803e3d6000fd5b505050506040513d601f19601f8201168201806040525081019061132c91906157b1565b505050509050600061134887836001600160801b031686613799565b9050600061135582613848565b9050600080600080611366856138b5565b93509350935093506113788282613c49565b6113828282613cb3565b60408051838152602081018390529294509092507fb841b8f9713db8d7cd9269d4f7f396d88cd5be4ddacf7d38da5ce8e182c48b8b910160405180910390a161016054610163546040516370a0823160e01b8152306004820152611464929187916001600160a01b03909116906370a08231906024015b60206040518083038186803b15801561141157600080fd5b505afa158015611425573d6000803e3d6000fd5b505050506040513d601f19601f8201168201806040525081019061144991906155db565b6114539190615bff565b61145d9190615bff565b8d8b613799565b61146e9085615b8c565b61016154610164546040516370a0823160e01b8152306004820152929d506114aa9286916001600160a01b0316906370a08231906024016113f9565b6114b49084615b8c565b9950505050505050506114ee565b6000806114cd610b93565b915091506114dc828886613799565b95506114e9818886613799565b945050505b6114f88484613d17565b6000806115058686613d33565b90925090507f4fde5dead35c5797dc8fe113e0d397a67df1fcc334818cd63aec8820d60db4576115358388615bff565b61153f8388615bff565b6040805192835260208301919091520160405180910390a185156115c157826115688882615bff565b33600090815261016960205260409020600101546115869190615bb8565b6115909190615ba4565b3360008181526101696020526040902060010191909155610163546115c1916001600160a01b039091169084613d55565b841561162b57826115d28882615bff565b33600090815261016960205260409020600201546115f09190615bb8565b6115fa9190615ba4565b33600081815261016960205260409020600201919091556101645461162b916001600160a01b039091169083613d55565b604080518881526020810184905290810182905233907f4c60206a5c1de41f3376d1d60f0949d96cb682033c90b1c2d9d9a62d4c4120c09060600160405180910390a25050505061167c6001606555565b915091565b306001600160a01b037f00000000000000000000000000000000000000000000000000000000000000001614156116ca5760405162461bcd60e51b8152600401610c7990615a0e565b7f00000000000000000000000000000000000000000000000000000000000000006001600160a01b0316611713600080516020615d8e833981519152546001600160a01b031690565b6001600160a01b0316146117395760405162461bcd60e51b8152600401610c7990615a5a565b6117428261330a565b61174e8282600161333c565b5050565b336117656097546001600160a01b031690565b6001600160a01b03161461178b5760405162461bcd60e51b8152600401610c7990615aa6565b60fd5415158061179e57506101685460ff165b156117bc57604051632a2c70bb60e11b815260040160405180910390fd5b6117c68282613dbf565b61016854610100900460ff1661174e57610168805461ff0019166101001790556040517f452a344f03203071e1daf66e007976c85cb2380deabf1c91f3c4fb1fca41204990600090a15050565b6000306001600160a01b037f000000000000000000000000000000000000000000000000000000000000000016146118b35760405162461bcd60e51b815260206004820152603860248201527f555550535570677261646561626c653a206d757374206e6f742062652063616c60448201527f6c6564207468726f7567682064656c656761746563616c6c00000000000000006064820152608401610c79565b50600080516020615d8e83398151915290565b336118d96097546001600160a01b031690565b6001600160a01b0316146118ff5760405162461bcd60e51b8152600401610c7990615aa6565b610162546000906001600160a01b031663514ea4bf61191c61275d565b6040518263ffffffff1660e01b815260040161193a91815260200190565b60a06040518083038186803b15801561195257600080fd5b505afa158015611966573d6000803e3d6000fd5b505050506040513d601f19601f8201168201806040525081019061198a91906157b1565b5050505090506000816001600160801b03161115611a845761015f54600281810b9163010000009004900b60008080806119c3876138b5565b604080516001600160801b038d16815260028c810b60208301528b900b818301526060810186905260808101859052905194985092965090945092507f6d7e1841bf97c0b736eafb2779459ba1e0af2305cead28a8e97533589ceb2f65919081900360a00190a1611a348282613c49565b611a3e8282613cb3565b60408051838152602081018390529294509092507fb841b8f9713db8d7cd9269d4f7f396d88cd5be4ddacf7d38da5ce8e182c48b8b910160405180910390a15050505050505b61015f805463010000008104600290810b900b62ffffff1662ffffff19909116179055610168805460ff19169055604051600081527fd9279952b347fd14af9b788aff1029c0d3b1299b7dcce164fc602a1b958c48809060200160405180910390a150565b33611afc6097546001600160a01b031690565b6001600160a01b031614611b225760405162461bcd60e51b8152600401610c7990615aa6565b6097546040516000916001600160a01b0316907f8be0079c531659141344cd1fd0a4f28419497f9722a3daafe3b4186f6b6457e0908390a3609780546001600160a01b0319169055565b600080600061016260009054906101000a90046001600160a01b03166001600160a01b0316633850c7bd6040518163ffffffff1660e01b815260040160e06040518083038186803b158015611bc057600080fd5b505afa158015611bd4573d6000803e3d6000fd5b505050506040513d601f19601f82011682018060405250810190611bf89190615807565b5050610162549395506000945084938493508392508291506001600160a01b031663514ea4bf611c2661275d565b6040518263ffffffff1660e01b8152600401611c4491815260200190565b60a06040518083038186803b158015611c5c57600080fd5b505afa158015611c70573d6000803e3d6000fd5b505050506040513d601f19601f82011682018060405250810190611c9491906157b1565b94509450945094509450816001600160801b0316611cb56001868989613e7c565b611cbf9190615b8c565b9750806001600160801b0316611cd86000858989613e7c565b611ce29190615b8c565b9650611cee8888613cb3565b90999098509650505050505050565b33611d106097546001600160a01b031690565b6001600160a01b031614611d365760405162461bcd60e51b8152600401610c7990615aa6565b61123a614278565b61016080546101618054600093849055929055908115611d765760975461016354611d76916001600160a01b03918216911684613d55565b801561174e576097546101645461174e916001600160a01b03918216911683613d55565b606060ff8054610af890615c42565b600080600061016860019054906101000a900460ff16611ddc57604051630314872760e11b815260040160405180910390fd5b6000611de760fd5490565b90508015611e0657611dfa8187876142b6565b91955093509150611f22565b6101625460408051633850c7bd60e01b815290516000926001600160a01b031691633850c7bd9160048083019260e0929190829003018186803b158015611e4c57600080fd5b505afa158015611e60573d6000803e3d6000fd5b505050506040513d601f19601f82011682018060405250810190611e849190615807565b50505050505090506000611ed082611eae61015f60009054906101000a900460020b60020b6143b9565b61015f54611ec99063010000009004600290810b900b6143b9565b8b8b6147d6565b61015f546001600160801b0382169550909150611f1a908390611ef990600290810b900b6143b9565b61015f54611f149063010000009004600290810b900b6143b9565b8461489a565b909650945050505b509250925092565b600080611f356135c4565b611f3d61361e565b61016854610100900460ff16611f6657604051630314872760e11b815260040160405180910390fd5b82611f845760405163199f5a0360e31b815260040160405180910390fd5b6000611f8f60fd5490565b610168546101625460408051633850c7bd60e01b8152905193945060ff909216926000926001600160a01b0390921691633850c7bd9160048083019260e0929190829003018186803b158015611fe457600080fd5b505afa158015611ff8573d6000803e3d6000fd5b505050506040513d601f19601f8201168201806040525081019061201c9190615807565b5050505050509050600083111561205d57600080612038610b93565b91509150612047828987614936565b9650612054818987614936565b955050506120c9565b81156120b05761015f546120a690829061207d90600290810b900b6143b9565b61015f546120989063010000009004600290810b900b6143b9565b6120a18a613848565b61489a565b90955093506120c9565b60405163344fa43b60e01b815260040160405180910390fd5b336000908152610169602052604090205460ff166121405733600081815261016960205260408120805460ff1916600190811790915561016a805491820181559091527f17da1ae71935bc1a620f4cc216c63f7b5576c3970bae66f4178d3166b99125440180546001600160a01b03191690911790555b841561218757336000908152610169602052604081206001018054879290612169908490615b8c565b909155505061016354612187906001600160a01b0316333088614984565b83156121ce573360009081526101696020526040812060020180548692906121b0908490615b8c565b9091555050610164546121ce906001600160a01b0316333087614984565b6121d833876149bc565b81156122bd5761015f5460009061221d9083906121fb90600290810b900b6143b9565b61015f546122169063010000009004600290810b900b6143b9565b89896147d6565b6101625461015f54604051633c8a7d8d60e01b81529293506001600160a01b0390911691633c8a7d8d91612268913091600281810b926301000000909204900b908790600401615929565b6040805180830381600087803b15801561228157600080fd5b505af1158015612295573d6000803e3d6000fd5b505050506040513d601f19601f820116820180604052508101906122b99190615665565b5050505b604080518781526020810187905290810185905233907f5a3358a3d27a5373c0df2604662088d37894d56b7cfd27f315770440f4e0d9199060600160405180910390a250505061167c6001606555565b6000338161231b8286612732565b90508381101561237b5760405162461bcd60e51b815260206004820152602560248201527f45524332303a2064656372656173656420616c6c6f77616e63652062656c6f77604482015264207a65726f60d81b6064820152608401610c79565b6123888286868403612d2b565b506001949350505050565b600033610b8981858561315f565b600080600061016260009054906101000a90046001600160a01b03166001600160a01b0316633850c7bd6040518163ffffffff1660e01b815260040160e06040518083038186803b1580156123f557600080fd5b505afa158015612409573d6000803e3d6000fd5b505050506040513d601f19601f8201168201806040525081019061242d9190615807565b505050505091505061243f8482612e4f565b9250925050915091565b606082158015612457575081155b156124635761016a5491505b600061246f8484615bff565b67ffffffffffffffff81111561249557634e487b7160e01b600052604160045260246000fd5b6040519080825280602002602001820160405280156124f357816020015b6124e0604051806060016040528060006001600160a01b0316815260200160008152602001600081525090565b8152602001906001900390816124b35790505b5090506000845b8481101561261d576000610169600061016a848154811061252b57634e487b7160e01b600052603260045260246000fd5b60009182526020808320909101546001600160a01b031683528281019390935260409182019020815160608082018452825460ff161515825260018301549482019490945260029091015481830152815192830190915261016a80549193508291859081106125aa57634e487b7160e01b600052603260045260246000fd5b600091825260209182902001546001600160a01b03168252838101519082015260408084015191015284846125de81615c7d565b9550815181106125fe57634e487b7160e01b600052603260045260246000fd5b602002602001018190525050808061261590615c7d565b9150506124fa565b5090949350505050565b610162546001600160a01b0316331461265257604051620b7d9960e41b815260040160405180910390fd5b83156126705761016354612670906001600160a01b03163386613d55565b82156111f357610164546111f3906001600160a01b03163385613d55565b336126a16097546001600160a01b031690565b6001600160a01b0316146126c75760405162461bcd60e51b8152600401610c7990615aa6565b6000806126d460006138b5565b9350935050506126e48282613c49565b6126ee8282613cb3565b60408051838152602081018390529294509092507fb841b8f9713db8d7cd9269d4f7f396d88cd5be4ddacf7d38da5ce8e182c48b8b91015b60405180910390a15050565b6001600160a01b03918216600090815260fc6020908152604080832093909416825291909152205490565b61015f546040516bffffffffffffffffffffffff193060601b166020820152600282810b810b60e890811b60348401526301000000909304810b900b90911b6037820152600090603a0160405160208183030381529060405280519060200120905090565b336127d56097546001600160a01b031690565b6001600160a01b0316146127fb5760405162461bcd60e51b8152600401610c7990615aa6565b6001600160a01b0381166128625760405162461bcd60e51b815260206004820152602860248201527f4f776e61626c653a206e6577206d616e6167657220697320746865207a65726f604482015267206164647265737360c01b6064820152608401610c79565b6097546040516001600160a01b038084169216907f8be0079c531659141344cd1fd0a4f28419497f9722a3daafe3b4186f6b6457e090600090a3609780546001600160a01b0319166001600160a01b0392909216919091179055565b336128d16097546001600160a01b031690565b6001600160a01b0316146128f75760405162461bcd60e51b8152600401610c7990615aa6565b606461ffff8316111561291d576040516313f90f0b60e31b815260040160405180910390fd5b6103e861ffff8216111561294457604051630f14508d60e41b815260040160405180910390fd5b61015f805467ffff0000000000001916600160301b61ffff8581169182029290921790925561016b805461ffff191691841691821790556040805192835260208301919091527f2ac80c14c28700f7b5e36f947d572149fe2e3947bac32c3a8c098f3e03722c119101612726565b610162546001600160a01b031633146129dd57604051620b7d9960e41b815260040160405180910390fd5b6000841315612a0357610163546129fe906001600160a01b03163386613d55565b6111f3565b60008313156111f357610164546111f3906001600160a01b03163385613d55565b60008033612a3a6097546001600160a01b031690565b6001600160a01b031614612a605760405162461bcd60e51b8152600401610c7990615aa6565b612a6a8686614a7d565b6101625460408051633850c7bd60e01b815290516000926001600160a01b031691633850c7bd9160048083019260e0929190829003018186803b158015612ab057600080fd5b505afa158015612ac4573d6000803e3d6000fd5b505050506040513d601f19601f82011682018060405250810190612ae89190615807565b50505050505090506000612b0e82612b028a60020b6143b9565b6122168a60020b6143b9565b90506001600160801b03811615612cd05761016254604051633c8a7d8d60e01b815260009182916001600160a01b0390911690633c8a7d8d90612b5b9030908e908e908990600401615929565b6040805180830381600087803b158015612b7457600080fd5b505af1158015612b88573d6000803e3d6000fd5b505050506040513d601f19601f82011682018060405250810190612bac9190615665565b9092509050612bbb8289615bff565b9550612bc78188615bff565b61015f5490955060028b810b91810b900b141580612bf8575061015f5460028a810b6301000000909204810b900b14155b15612c725761015f805460028b810b62ffffff90811663010000000265ffffffffffff19909316918e900b16171790556040517f8e3ac6cc9b82795b40740ca4e954df8f6655fe35e80cdc6fb33d50c3423fcd1690612c69908c908c90600292830b8152910b602082015260400190565b60405180910390a15b604080516001600160801b038516815260028c810b60208301528b900b81830152606081018490526080810183905290517ffa715a0b1bc7287b5d3581c11478041b0455aad0c17361fc1e55fffbdd4b6c4f9181900360a00190a150505b6101685460ff16612d2057610168805460ff191660019081179091556040519081527fd9279952b347fd14af9b788aff1029c0d3b1299b7dcce164fc602a1b958c48809060200160405180910390a15b505094509492505050565b6001600160a01b038316612d8d5760405162461bcd60e51b8152602060048201526024808201527f45524332303a20617070726f76652066726f6d20746865207a65726f206164646044820152637265737360e01b6064820152608401610c79565b6001600160a01b038216612dee5760405162461bcd60e51b815260206004820152602260248201527f45524332303a20617070726f766520746f20746865207a65726f206164647265604482015261737360f01b6064820152608401610c79565b6001600160a01b03838116600081815260fc602090815260408083209487168084529482529182902085905590518481527f8c5be1e5ebec7d5bd14f71427d1e84f3dd0314c0f7b2291e5b200ac8c7c3b925910160405180910390a3505050565b610162546000908190819081908190819081906001600160a01b031663514ea4bf612e7861275d565b6040518263ffffffff1660e01b8152600401612e9691815260200190565b60a06040518083038186803b158015612eae57600080fd5b505afa158015612ec2573d6000803e3d6000fd5b505050506040513d601f19601f82011682018060405250810190612ee691906157b1565b94509450945094509450600080866001600160801b0316600014612f9a5761015f54612f3f908c90612f1e90600290810b900b6143b9565b61015f54612f399063010000009004600290810b900b6143b9565b8a61489a565b90995097506001600160801b038416612f5b6001888d8b613e7c565b612f659190615b8c565b9150826001600160801b0316612f7e6000878d8b613e7c565b612f889190615b8c565b9050612f948282613cb3565b90925090505b61016054610163546040516370a0823160e01b81523060048201526001600160a01b03909116906370a082319060240160206040518083038186803b158015612fe257600080fd5b505afa158015612ff6573d6000803e3d6000fd5b505050506040513d601f19601f8201168201806040525081019061301a91906155db565b6130249084615b8c565b61302e9190615bff565b613038908a615b8c565b61016154610164546040516370a0823160e01b8152306004820152929b5090916001600160a01b03909116906370a082319060240160206040518083038186803b15801561308557600080fd5b505afa158015613099573d6000803e3d6000fd5b505050506040513d601f19601f820116820180604052508101906130bd91906155db565b6130c79083615b8c565b6130d19190615bff565b6130db9089615b8c565b9750505050505050509250929050565b60006130f78484612732565b905060001981146111f357818110156131525760405162461bcd60e51b815260206004820152601d60248201527f45524332303a20696e73756666696369656e7420616c6c6f77616e63650000006044820152606401610c79565b6111f38484848403612d2b565b6001600160a01b0383166131c35760405162461bcd60e51b815260206004820152602560248201527f45524332303a207472616e736665722066726f6d20746865207a65726f206164604482015264647265737360d81b6064820152608401610c79565b6001600160a01b0382166132255760405162461bcd60e51b815260206004820152602360248201527f45524332303a207472616e7366657220746f20746865207a65726f206164647260448201526265737360e81b6064820152608401610c79565b6001600160a01b038316600090815260fb60205260409020548181101561329d5760405162461bcd60e51b815260206004820152602660248201527f45524332303a207472616e7366657220616d6f756e7420657863656564732062604482015265616c616e636560d01b6064820152608401610c79565b6001600160a01b03808516600081815260fb602052604080822086860390559286168082529083902080548601905591517fddf252ad1be2c89b69c2b068fc378daa952ba7f163c4a11628f55a4df523b3ef906132fd9086815260200190565b60405180910390a36111f3565b610168546201000090046001600160a01b03163314610e7757604051631b1319e560e01b815260040160405180910390fd5b7f4910fdfa16fed3260ed0e7147f7cc6da11a60208b5b9406d12a635614ffd91435460ff16156133745761336f83614b32565b505050565b826001600160a01b03166352d1902d6040518163ffffffff1660e01b815260040160206040518083038186803b1580156133ad57600080fd5b505afa9250505080156133dd575060408051601f3d908101601f191682019092526133da918101906155db565b60015b6134405760405162461bcd60e51b815260206004820152602e60248201527f45524331393637557067726164653a206e657720696d706c656d656e7461746960448201526d6f6e206973206e6f74205555505360901b6064820152608401610c79565b600080516020615d8e83398151915281146134af5760405162461bcd60e51b815260206004820152602960248201527f45524331393637557067726164653a20756e737570706f727465642070726f786044820152681a58589b195555525160ba1b6064820152608401610c79565b5061336f838383614bce565b600054610100900460ff1661123a5760405162461bcd60e51b8152600401610c7990615ae8565b600054610100900460ff166135095760405162461bcd60e51b8152600401610c7990615ae8565b61123a614bf3565b600054610100900460ff166135385760405162461bcd60e51b8152600401610c7990615ae8565b61174e8282614c1a565b600054610100900460ff166135695760405162461bcd60e51b8152600401610c7990615ae8565b61123a614c68565b613579614c9c565b61012d805460ff191690557f5db9ee0a495bf2e6ff9c91a7834c1ba4fdd244a5e8aa4e537bd38aeae4b073aa335b6040516001600160a01b03909116815260200160405180910390a1565b600260655414156136175760405162461bcd60e51b815260206004820152601f60248201527f5265656e7472616e637947756172643a207265656e7472616e742063616c6c006044820152606401610c79565b6002606555565b61012d5460ff161561123a5760405162461bcd60e51b815260206004820152601060248201526f14185d5cd8589b194e881c185d5cd95960821b6044820152606401610c79565b6001600160a01b0382166136c55760405162461bcd60e51b815260206004820152602160248201527f45524332303a206275726e2066726f6d20746865207a65726f206164647265736044820152607360f81b6064820152608401610c79565b6001600160a01b038216600090815260fb6020526040902054818110156137395760405162461bcd60e51b815260206004820152602260248201527f45524332303a206275726e20616d6f756e7420657863656564732062616c616e604482015261636560f01b6064820152608401610c79565b6001600160a01b038316600081815260fb60209081526040808320868603905560fd80548790039055518581529192917fddf252ad1be2c89b69c2b068fc378daa952ba7f163c4a11628f55a4df523b3ef910160405180910390a3505050565b6000808060001985870985870292508281108382030391505080600014156137d357600084116137c857600080fd5b508290049050610d93565b8084116137df57600080fd5b60008486880960026001871981018816978890046003810283188082028403028082028403028082028403028082028403028082028403029081029092039091026000889003889004909101858311909403939093029303949094049190911702949350505050565b60006001600160801b038211156138b15760405162461bcd60e51b815260206004820152602760248201527f53616665436173743a2076616c756520646f65736e27742066697420696e20316044820152663238206269747360c81b6064820152608401610c79565b5090565b61015f54610163546040516370a0823160e01b8152306004820152600092839283928392600281810b936301000000909204900b9184916001600160a01b0316906370a082319060240160206040518083038186803b15801561391757600080fd5b505afa15801561392b573d6000803e3d6000fd5b505050506040513d601f19601f8201168201806040525081019061394f91906155db565b610164546040516370a0823160e01b81523060048201529192506000916001600160a01b03909116906370a082319060240160206040518083038186803b15801561399957600080fd5b505afa1580156139ad573d6000803e3d6000fd5b505050506040513d601f19601f820116820180604052508101906139d191906155db565b6101625460405163a34123a760e01b8152600287810b600483015286900b60248201526001600160801b038c1660448201529192506001600160a01b03169063a34123a7906064016040805180830381600087803b158015613a3257600080fd5b505af1158015613a46573d6000803e3d6000fd5b505050506040513d601f19601f82011682018060405250810190613a6a9190615665565b610162546040516309e3d67b60e31b8152306004820152600288810b602483015287900b60448201526001600160801b03606482018190526084820152929a509098506001600160a01b031690634f1eb3d89060a4016040805180830381600087803b158015613ad957600080fd5b505af1158015613aed573d6000803e3d6000fd5b505050506040513d601f19601f82011682018060405250810190613b11919061577f565b5050610163546040516370a0823160e01b8152306004820152899184916001600160a01b03909116906370a082319060240160206040518083038186803b158015613b5b57600080fd5b505afa158015613b6f573d6000803e3d6000fd5b505050506040513d601f19601f82011682018060405250810190613b9391906155db565b613b9d9190615bff565b613ba79190615bff565b610164546040516370a0823160e01b8152306004820152919750889183916001600160a01b0316906370a082319060240160206040518083038186803b158015613bf057600080fd5b505afa158015613c04573d6000803e3d6000fd5b505050506040513d601f19601f82011682018060405250810190613c2891906155db565b613c329190615bff565b613c3c9190615bff565b9450505050509193509193565b61016b5461ffff16612710613c5e8285615bb8565b613c689190615ba4565b6101606000828254613c7a9190615b8c565b909155506127109050613c8d8284615bb8565b613c979190615ba4565b6101616000828254613ca99190615b8c565b9091555050505050565b61016b54600090819061ffff1681612710613cce8388615bb8565b613cd89190615ba4565b90506000612710613ce98488615bb8565b613cf39190615ba4565b9050613cff8288615bff565b9450613d0b8187615bff565b93505050509250929050565b61015f54600160301b900461ffff16612710613c5e8285615bb8565b61015f546000908190600160301b900461ffff1681612710613cce8388615bb8565b6040516001600160a01b03831660248201526044810182905261336f90849063a9059cbb60e01b906064015b60408051601f198184030181529190526020810180516001600160e01b03166001600160e01b031990931692909217909152614ce6565b6001606555565b613dc98282614a7d565b61015f8054600283810b62ffffff90811663010000000265ffffffffffff199093169186900b1617179055610168805460ff191660019081179091556040517fd9279952b347fd14af9b788aff1029c0d3b1299b7dcce164fc602a1b958c488091613e3991901515815260200190565b60405180910390a160408051600284810b825283900b60208201527f8e3ac6cc9b82795b40740ca4e954df8f6655fe35e80cdc6fb33d50c3423fcd169101612726565b60008060008087156140445761016260009054906101000a90046001600160a01b03166001600160a01b031663f30583996040518163ffffffff1660e01b815260040160206040518083038186803b158015613ed757600080fd5b505afa158015613eeb573d6000803e3d6000fd5b505050506040513d601f19601f82011682018060405250810190613f0f91906155db565b6101625461015f5460405163f30dba9360e01b8152600291820b90910b60048201529192506001600160a01b03169063f30dba93906024016101006040518083038186803b158015613f6057600080fd5b505afa158015613f74573d6000803e3d6000fd5b505050506040513d601f19601f82011682018060405250810190613f9891906156d9565b50506101625461015f5460405163f30dba9360e01b8152959a506001600160a01b03909116965063f30dba939550613fe394630100000090910460020b935060040191506159cd9050565b6101006040518083038186803b158015613ffc57600080fd5b505afa158015614010573d6000803e3d6000fd5b505050506040513d601f19601f8201168201806040525081019061403491906156d9565b509397506141fa95505050505050565b61016260009054906101000a90046001600160a01b03166001600160a01b031663461413196040518163ffffffff1660e01b815260040160206040518083038186803b15801561409357600080fd5b505afa1580156140a7573d6000803e3d6000fd5b505050506040513d601f19601f820116820180604052508101906140cb91906155db565b6101625461015f5460405163f30dba9360e01b8152600291820b90910b60048201529192506001600160a01b03169063f30dba93906024016101006040518083038186803b15801561411c57600080fd5b505afa158015614130573d6000803e3d6000fd5b505050506040513d601f19601f8201168201806040525081019061415491906156d9565b50506101625461015f5460405163f30dba9360e01b8152949a506001600160a01b03909116965063f30dba93955061419e94506301000000900460020b9260040191506159cd9050565b6101006040518083038186803b1580156141b757600080fd5b505afa1580156141cb573d6000803e3d6000fd5b505050506040513d601f19601f820116820180604052508101906141ef91906156d9565b509297505050505050505b61015f54600090600290810b810b9088900b1261421857508261421d565b508281035b600061015f60039054906101000a900460020b60020b8860020b1215614244575082614249565b508282035b8183038190036142696001600160801b0389168b8303600160801b613799565b9b9a5050505050505050505050565b61428061361e565b61012d805460ff191660011790557f62e78cea01bee320cd4e420270b5ea74000d11b0c9f74754ebdbfc544b05a2586135a73390565b60008060008060006142c6610b93565b915091508160001480156142da5750600081115b156142f1576142ea868983613799565b9250614394565b801580156142ff5750600082115b1561430f576142ea878984613799565b8115801561431b575080155b156143395760405163f912977760e01b815260040160405180910390fd5b6000614346888a85613799565b90506000614355888b85613799565b9050811580614362575080155b1561438057604051630856e64360e21b815260040160405180910390fd5b80821061438d578061438f565b815b945050505b61439f83838a614936565b94506143ac83828a614936565b9350505093509350939050565b60008060008360020b126143d0578260020b6143dd565b8260020b6143dd90615cef565b90506143ec620d89e719615cce565b60020b8111156144225760405162461bcd60e51b81526020600482015260016024820152601560fa1b6044820152606401610c79565b60006001821661443657600160801b614448565b6ffffcb933bd6fad37aa2d162d1a5940015b70ffffffffffffffffffffffffffffffffff1690506002821615614487576080614482826ffff97272373d413259a46990580e213a615bb8565b901c90505b60048216156144b15760806144ac826ffff2e50f5f656932ef12357cf3c7fdcc615bb8565b901c90505b60088216156144db5760806144d6826fffe5caca7e10e4e61c3624eaa0941cd0615bb8565b901c90505b6010821615614505576080614500826fffcb9843d60f6159c9db58835c926644615bb8565b901c90505b602082161561452f57608061452a826fff973b41fa98c081472e6896dfb254c0615bb8565b901c90505b6040821615614559576080614554826fff2ea16466c96a3843ec78b326b52861615bb8565b901c90505b608082161561458357608061457e826ffe5dee046a99a2a811c461f1969c3053615bb8565b901c90505b6101008216156145ae5760806145a9826ffcbe86c7900a88aedcffc83b479aa3a4615bb8565b901c90505b6102008216156145d95760806145d4826ff987a7253ac413176f2b074cf7815e54615bb8565b901c90505b6104008216156146045760806145ff826ff3392b0822b70005940c7a398e4b70f3615bb8565b901c90505b61080082161561462f57608061462a826fe7159475a2c29b7443b29c7fa6e889d9615bb8565b901c90505b61100082161561465a576080614655826fd097f3bdfd2022b8845ad8f792aa5825615bb8565b901c90505b612000821615614685576080614680826fa9f746462d870fdf8a65dc1f90e061e5615bb8565b901c90505b6140008216156146b05760806146ab826f70d869a156d2a1b890bb3df62baf32f7615bb8565b901c90505b6180008216156146db5760806146d6826f31be135f97d08fd981231505542fcfa6615bb8565b901c90505b62010000821615614707576080614702826f09aa508b5b7a84e1c677de54f3e99bc9615bb8565b901c90505b6202000082161561473257608061472d826e5d6af8dedb81196699c329225ee604615bb8565b901c90505b6204000082161561475c576080614757826d2216e584f5fa1ea926041bedfe98615bb8565b901c90505b6208000082161561478457608061477f826b048a170391f7dc42444e8fa2615bb8565b901c90505b60008460020b131561479f5761479c81600019615ba4565b90505b6147ae64010000000082615cba565b156147ba5760016147bd565b60005b6147ce9060ff16602083901c615b8c565b949350505050565b6000836001600160a01b0316856001600160a01b031611156147f6579293925b846001600160a01b0316866001600160a01b0316116148215761481a858585614db8565b9050614891565b836001600160a01b0316866001600160a01b03161015614883576000614848878686614db8565b90506000614857878986614e22565b9050806001600160801b0316826001600160801b031610614878578061487a565b815b92505050614891565b61488e858584614e22565b90505b95945050505050565b600080836001600160a01b0316856001600160a01b031611156148bb579293925b846001600160a01b0316866001600160a01b0316116148e6576148df858585614e58565b915061492d565b836001600160a01b0316866001600160a01b0316101561491f5761490b868585614e58565b9150614918858785614ecb565b905061492d565b61492a858585614ecb565b90505b94509492505050565b6000614943848484613799565b90506000828061496357634e487b7160e01b600052601260045260246000fd5b8486091115610d9357600019811061497a57600080fd5b8061489181615c7d565b6040516001600160a01b03808516602483015283166044820152606481018290526111f39085906323b872dd60e01b90608401613d81565b6001600160a01b038216614a125760405162461bcd60e51b815260206004820152601f60248201527f45524332303a206d696e7420746f20746865207a65726f2061646472657373006044820152606401610c79565b8060fd6000828254614a249190615b8c565b90915550506001600160a01b038216600081815260fb60209081526040808320805486019055518481527fddf252ad1be2c89b69c2b068fc378daa952ba7f163c4a11628f55a4df523b3ef910160405180910390a35050565b620d89e719600283900b1280614aa45750614a9b620d89e719615cce565b60020b8160020b135b15614ac25760405163137b639d60e21b815260040160405180910390fd5b8060020b8260020b121580614af0575061016454614aea90600160a01b900460020b83615c98565b60020b15155b80614b14575061016454614b0e90600160a01b900460020b82615c98565b60020b15155b1561174e57604051633981390b60e11b815260040160405180910390fd5b6001600160a01b0381163b614b9f5760405162461bcd60e51b815260206004820152602d60248201527f455243313936373a206e657720696d706c656d656e746174696f6e206973206e60448201526c1bdd08184818dbdb9d1c9858dd609a1b6064820152608401610c79565b600080516020615d8e83398151915280546001600160a01b0319166001600160a01b0392909216919091179055565b614bd783614f15565b600082511180614be45750805b1561336f576111f38383614f55565b600054610100900460ff16613db85760405162461bcd60e51b8152600401610c7990615ae8565b600054610100900460ff16614c415760405162461bcd60e51b8152600401610c7990615ae8565b8151614c549060fe9060208501906151fe565b50805161336f9060ff9060208401906151fe565b600054610100900460ff16614c8f5760405162461bcd60e51b8152600401610c7990615ae8565b61012d805460ff19169055565b61012d5460ff1661123a5760405162461bcd60e51b815260206004820152601460248201527314185d5cd8589b194e881b9bdd081c185d5cd95960621b6044820152606401610c79565b6000614d3b826040518060400160405280602081526020017f5361666545524332303a206c6f772d6c6576656c2063616c6c206661696c6564815250856001600160a01b03166150409092919063ffffffff16565b80519091501561336f5780806020019051810190614d59919061557e565b61336f5760405162461bcd60e51b815260206004820152602a60248201527f5361666545524332303a204552433230206f7065726174696f6e20646964206e6044820152691bdd081cdd58d8d9595960b21b6064820152608401610c79565b6000826001600160a01b0316846001600160a01b03161115614dd8579192915b6000614dfb856001600160a01b0316856001600160a01b0316600160601b613799565b9050614891614e1d8483614e0f8989615bd7565b6001600160a01b0316613799565b61504f565b6000826001600160a01b0316846001600160a01b03161115614e42579192915b6147ce614e1d83600160601b614e0f8888615bd7565b6000826001600160a01b0316846001600160a01b03161115614e78579192915b6001600160a01b038416614ec16fffffffffffffffffffffffffffffffff60601b606085901b16614ea98787615bd7565b6001600160a01b0316866001600160a01b0316613799565b6147ce9190615ba4565b6000826001600160a01b0316846001600160a01b03161115614eeb579192915b6147ce6001600160801b038316614f028686615bd7565b6001600160a01b0316600160601b613799565b614f1e81614b32565b6040516001600160a01b038216907fbc7cd75a20ee27fd9adebab32041f755214dbc6bffa90cc0225b39da2e5c2d3b90600090a250565b60606001600160a01b0383163b614fbd5760405162461bcd60e51b815260206004820152602660248201527f416464726573733a2064656c65676174652063616c6c20746f206e6f6e2d636f6044820152651b9d1c9858dd60d21b6064820152608401610c79565b600080846001600160a01b031684604051614fd8919061590d565b600060405180830381855af49150503d8060008114615013576040519150601f19603f3d011682016040523d82523d6000602084013e615018565b606091505b50915091506148918282604051806060016040528060278152602001615dae6027913961506a565b60606147ce8484600085615083565b806001600160801b038116811461506557600080fd5b919050565b60608315615079575081610d93565b610d93838361515e565b6060824710156150e45760405162461bcd60e51b815260206004820152602660248201527f416464726573733a20696e73756666696369656e742062616c616e636520666f6044820152651c8818d85b1b60d21b6064820152608401610c79565b600080866001600160a01b03168587604051615100919061590d565b60006040518083038185875af1925050503d806000811461513d576040519150601f19603f3d011682016040523d82523d6000602084013e615142565b606091505b509150915061515387838387615188565b979650505050505050565b81511561516e5781518083602001fd5b8060405162461bcd60e51b8152600401610c7991906159db565b606083156151f45782516151ed576001600160a01b0385163b6151ed5760405162461bcd60e51b815260206004820152601d60248201527f416464726573733a2063616c6c20746f206e6f6e2d636f6e74726163740000006044820152606401610c79565b50816147ce565b6147ce838361515e565b82805461520a90615c42565b90600052602060002090601f01602090048101928261522c5760008555615272565b82601f1061524557805160ff1916838001178555615272565b82800160010185558215615272579182015b82811115615272578251825591602001919060010190615257565b506138b19291505b808211156138b1576000815560010161527a565b805161506581615d60565b60008083601f8401126152aa578182fd5b50813567ffffffffffffffff8111156152c1578182fd5b6020830191508360208285010111156152d957600080fd5b9250929050565b600082601f8301126152f0578081fd5b81356153036152fe82615b64565b615b33565b818152846020838601011115615317578283fd5b816020850160208301379081016020019190915292915050565b600082601f830112615341578081fd5b815161534f6152fe82615b64565b818152846020838601011115615363578283fd5b6147ce826020830160208701615c16565b80516001600160801b038116811461506557600080fd5b60006020828403121561539c578081fd5b8135610d9381615d4b565b6000602082840312156153b8578081fd5b8151610d9381615d4b565b6000806000606084860312156153d7578182fd5b83516153e281615d4b565b602085015190935067ffffffffffffffff808211156153ff578384fd5b61540b87838801615331565b93506040860151915080821115615420578283fd5b5061542d86828701615331565b9150509250925092565b60008060408385031215615449578182fd5b823561545481615d4b565b9150602083013561546481615d4b565b809150509250929050565b600080600060608486031215615483578283fd5b833561548e81615d4b565b9250602084013561549e81615d4b565b929592945050506040919091013590565b600080604083850312156154c1578182fd5b82356154cc81615d4b565b9150602083013567ffffffffffffffff8111156154e7578182fd5b6154f3858286016152e0565b9150509250929050565b600080600060608486031215615511578081fd5b833561551c81615d4b565b9250602084013561552c81615d6e565b9150604084013567ffffffffffffffff811115615547578182fd5b61542d868287016152e0565b60008060408385031215615565578182fd5b823561557081615d4b565b946020939093013593505050565b60006020828403121561558f578081fd5b8151610d9381615d60565b6000806000606084860312156155ae578081fd5b83356155b981615d60565b92506020840135915060408401356155d081615d4b565b809150509250925092565b6000602082840312156155ec578081fd5b5051919050565b60008060408385031215615605578182fd5b823561561081615d6e565b9150602083013561546481615d6e565b60008060008060808587031215615635578182fd5b843561564081615d6e565b9350602085013561565081615d6e565b93969395505050506040820135916060013590565b60008060408385031215615677578182fd5b505080516020909101519092909150565b6000806000806060858703121561569d578182fd5b8435935060208501359250604085013567ffffffffffffffff8111156156c1578283fd5b6156cd87828801615299565b95989497509550505050565b600080600080600080600080610100898b0312156156f5578586fd5b6156fe89615374565b9750602089015180600f0b8114615713578687fd5b80975050604089015195506060890151945060808901518060060b8114615738578485fd5b60a08a015190945061574981615d4b565b60c08a015190935063ffffffff81168114615762578283fd5b915061577060e08a0161528e565b90509295985092959890939650565b60008060408385031215615791578182fd5b61579a83615374565b91506157a860208401615374565b90509250929050565b600080600080600060a086880312156157c8578283fd5b6157d186615374565b945060208601519350604086015192506157ed60608701615374565b91506157fb60808701615374565b90509295509295909350565b600080600080600080600060e0888a031215615821578081fd5b875161582c81615d4b565b602089015190975061583d81615d6e565b604089015190965061584e81615d7d565b606089015190955061585f81615d7d565b608089015190945061587081615d7d565b60a089015190935060ff81168114615886578182fd5b60c089015190925061589781615d60565b8091505092959891949750929550565b600080604083850312156158b9578182fd5b82356158c481615d7d565b9150602083013561546481615d7d565b6000602082840312156158e5578081fd5b5035919050565b600080604083850312156158fe578182fd5b50508035926020909101359150565b6000825161591f818460208701615c16565b9190910192915050565b6001600160a01b03949094168452600292830b6020850152910b60408301526001600160801b0316606082015260a06080820181905260009082015260c00190565b602080825282518282018190526000919060409081850190868401855b828110156159c057815180516001600160a01b0316855286810151878601528501518585015260609093019290850190600101615988565b5091979650505050505050565b60029190910b815260200190565b60208152600082518060208401526159fa816040850160208701615c16565b601f01601f19169190910160400192915050565b6020808252602c908201527f46756e6374696f6e206d7573742062652063616c6c6564207468726f7567682060408201526b19195b1959d85d1958d85b1b60a21b606082015260800190565b6020808252602c908201527f46756e6374696f6e206d7573742062652063616c6c6564207468726f7567682060408201526b6163746976652070726f787960a01b606082015260800190565b60208082526022908201527f4f776e61626c653a2063616c6c6572206973206e6f7420746865206d616e616760408201526132b960f11b606082015260800190565b6020808252602b908201527f496e697469616c697a61626c653a20636f6e7472616374206973206e6f74206960408201526a6e697469616c697a696e6760a81b606082015260800190565b604051601f8201601f1916810167ffffffffffffffff81118282101715615b5c57615b5c615d35565b604052919050565b600067ffffffffffffffff821115615b7e57615b7e615d35565b50601f01601f191660200190565b60008219821115615b9f57615b9f615d09565b500190565b600082615bb357615bb3615d1f565b500490565b6000816000190483118215151615615bd257615bd2615d09565b500290565b60006001600160a01b0383811690831681811015615bf757615bf7615d09565b039392505050565b600082821015615c1157615c11615d09565b500390565b60005b83811015615c31578181015183820152602001615c19565b838111156111f35750506000910152565b600181811c90821680615c5657607f821691505b60208210811415615c7757634e487b7160e01b600052602260045260246000fd5b50919050565b6000600019821415615c9157615c91615d09565b5060010190565b60008260020b80615cab57615cab615d1f565b808360020b0791505092915050565b600082615cc957615cc9615d1f565b500690565b60008160020b627fffff19811415615ce857615ce8615d09565b9003919050565b6000600160ff1b821415615d0557615d05615d09565b0390565b634e487b7160e01b600052601160045260246000fd5b634e487b7160e01b600052601260045260246000fd5b634e487b7160e01b600052604160045260246000fd5b6001600160a01b0381168114610e7757600080fd5b8015158114610e7757600080fd5b8060020b8114610e7757600080fd5b61ffff81168114610e7757600080fdfe360894a13ba1a3210667c828492db98dca3e2076cc3735a920a3ca505d382bbc416464726573733a206c6f772d6c6576656c2064656c65676174652063616c6c206661696c6564a2646970667358221220f27bff5fe1d0c9076133f5c0b7ee300549045e383eacf45133e65bb27106225164736f6c63430008040033",
  "linkReferences": {},
  "deployedLinkReferences": {}
}