{
  "_format": "hh-sol-artifact-1",
  "contractName": "RangeProtocolFactory",
  "sourceName": "contracts/RangeProtocolFactory.sol",
  "abi": [
    {
      "inputs": [
        {
          "internalType": "address",
          "name": "_algebraFactory",
          "type": "address"
        }
      ],
      "stateMutability": "nonpayable",
      "type": "constructor"
    },
    {
      "inputs": [],
      "name": "MismatchedVaultsAndImplsLength",
      "type": "error"
    },
    {
      "inputs": [],
      "name": "NoVaultInitDataProvided",
      "type": "error"
    },
    {
      "inputs": [],
      "name": "VaultUpgradeFailed",
      "type": "error"
    },
    {
      "inputs": [],
      "name": "ZeroPoolAddress",
      "type": "error"
    },
    {
      "anonymous": false,
      "inputs": [
        {
          "indexed": true,
          "internalType": "address",
          "name": "previousOwner",
          "type": "address"
        },
        {
          "indexed": true,
          "internalType": "address",
          "name": "newOwner",
          "type": "address"
        }
      ],
      "name": "OwnershipTransferred",
      "type": "event"
    },
    {
      "anonymous": false,
      "inputs": [
        {
          "indexed": true,
          "internalType": "address",
          "name": "uniPool",
          "type": "address"
        },
        {
          "indexed": true,
          "internalType": "address",
          "name": "vault",
          "type": "address"
        }
      ],
      "name": "VaultCreated",
      "type": "event"
    },
    {
      "anonymous": false,
      "inputs": [
        {
          "indexed": true,
          "internalType": "address",
          "name": "uniPool",
          "type": "address"
        },
        {
          "indexed": true,
          "internalType": "address",
          "name": "vault",
          "type": "address"
        }
      ],
      "name": "VaultImplUpgraded",
      "type": "event"
    },
    {
      "inputs": [],
      "name": "INIT_SELECTOR",
      "outputs": [
        {
          "internalType": "bytes4",
          "name": "",
          "type": "bytes4"
        }
      ],
      "stateMutability": "view",
      "type": "function"
    },
    {
      "inputs": [],
      "name": "TICK_SPACING",
      "outputs": [
        {
          "internalType": "int24",
          "name": "",
          "type": "int24"
        }
      ],
      "stateMutability": "view",
      "type": "function"
    },
    {
      "inputs": [],
      "name": "UPGRADE_SELECTOR",
      "outputs": [
        {
          "internalType": "bytes4",
          "name": "",
          "type": "bytes4"
        }
      ],
      "stateMutability": "view",
      "type": "function"
    },
    {
      "inputs": [
        {
          "internalType": "address",
          "name": "tokenA",
          "type": "address"
        },
        {
          "internalType": "address",
          "name": "tokenB",
          "type": "address"
        },
        {
          "internalType": "address",
          "name": "implementation",
          "type": "address"
        },
        {
          "internalType": "bytes",
          "name": "data",
          "type": "bytes"
        }
      ],
      "name": "createVault",
      "outputs": [],
      "stateMutability": "nonpayable",
      "type": "function"
    },
    {
      "inputs": [],
      "name": "factory",
      "outputs": [
        {
          "internalType": "address",
          "name": "",
          "type": "address"
        }
      ],
      "stateMutability": "view",
      "type": "function"
    },
    {
      "inputs": [
        {
          "internalType": "uint256",
          "name": "startIdx",
          "type": "uint256"
        },
        {
          "internalType": "uint256",
          "name": "endIdx",
          "type": "uint256"
        }
      ],
      "name": "getVaultAddresses",
      "outputs": [
        {
          "internalType": "address[]",
          "name": "vaultList",
          "type": "address[]"
        }
      ],
      "stateMutability": "view",
      "type": "function"
    },
    {
      "inputs": [],
      "name": "owner",
      "outputs": [
        {
          "internalType": "address",
          "name": "",
          "type": "address"
        }
      ],
      "stateMutability": "view",
      "type": "function"
    },
    {
      "inputs": [],
      "name": "renounceOwnership",
      "outputs": [],
      "stateMutability": "nonpayable",
      "type": "function"
    },
    {
      "inputs": [
        {
          "internalType": "address",
          "name": "newOwner",
          "type": "address"
        }
      ],
      "name": "transferOwnership",
      "outputs": [],
      "stateMutability": "nonpayable",
      "type": "function"
    },
    {
      "inputs": [
        {
          "internalType": "address",
          "name": "_vault",
          "type": "address"
        },
        {
          "internalType": "address",
          "name": "_impl",
          "type": "address"
        }
      ],
      "name": "upgradeVault",
      "outputs": [],
      "stateMutability": "nonpayable",
      "type": "function"
    },
    {
      "inputs": [
        {
          "internalType": "address[]",
          "name": "_vaults",
          "type": "address[]"
        },
        {
          "internalType": "address[]",
          "name": "_impls",
          "type": "address[]"
        }
      ],
      "name": "upgradeVaults",
      "outputs": [],
      "stateMutability": "nonpayable",
      "type": "function"
    },
    {
      "inputs": [],
      "name": "vaultCount",
      "outputs": [
        {
          "internalType": "uint256",
          "name": "",
          "type": "uint256"
        }
      ],
      "stateMutability": "view",
      "type": "function"
    }
  ],
  "bytecode": "0x60a060405234801561001057600080fd5b506040516117a03803806117a083398101604081905261002f91610085565b600080546001600160a01b031916339081178255604051909182917f8be0079c531659141344cd1fd0a4f28419497f9722a3daafe3b4186f6b6457e0908290a35060601b6001600160601b0319166080526100b3565b600060208284031215610096578081fd5b81516001600160a01b03811681146100ac578182fd5b9392505050565b60805160601c6116c86100d860003960008181610267015261033d01526116c86000f3fe60806040523480156200001157600080fd5b5060043610620000c35760003560e01c8063715018a6116200007a578063715018a614620001c25780638da5cb5b14620001cc57806397fb879714620001f2578063a7c6a100146200024f578063c45a01551462000261578063f2fde38b146200028957600080fd5b8063054bf17114620000c8578063237150d514620000e15780632bcef00814620000f857806346ca626b146200010f5780634ae232ba14620001305780636dbda2171462000156575b600080fd5b620000df620000d936600462000b61565b620002a0565b005b620000df620000f236600462000b9e565b620002e6565b620000df6200010936600462000c90565b62000442565b62000118603c81565b60405160029190910b81526020015b60405180910390f35b620001476200014136600462000d00565b62000532565b60405162000127919062000dd1565b60408051808201909152601281527175706772616465546f28616464726573732960701b602090910152620001a87f3659cfe672549963da205df855ebfb8672cda4801e0255183bd6a6f536855df781565b6040516001600160e01b0319909116815260200162000127565b620000df62000640565b6000546001600160a01b03165b6040516001600160a01b03909116815260200162000127565b60408051808201909152601f81527f696e697469616c697a6528616464726573732c696e7432342c62797465732900602090910152620001a87f3d048c271a2436dc9dbaf9f72bfa07b52d864af4693499c0eebeda112c60b8fa81565b60015460405190815260200162000127565b620001d97f000000000000000000000000000000000000000000000000000000000000000081565b620000df6200029a36600462000b1c565b620006b7565b6000546001600160a01b03163314620002d65760405162461bcd60e51b8152600401620002cd9062000e20565b60405180910390fd5b620002e28282620007a6565b5050565b6000546001600160a01b03163314620003135760405162461bcd60e51b8152600401620002cd9062000e20565b60405163d9a641e160e01b81526001600160a01b03858116600483015284811660248301526000917f00000000000000000000000000000000000000000000000000000000000000009091169063d9a641e19060440160206040518083038186803b1580156200038257600080fd5b505afa15801562000397573d6000803e3d6000fd5b505050506040513d601f19601f82011682018060405250810190620003bd919062000b42565b90506001600160a01b038116620003e75760405163037064f160e01b815260040160405180910390fd5b6000620003f88686848787620008cf565b9050806001600160a01b0316826001600160a01b03167f5d9c31ffa0fecffd7cf379989a3c7af252f0335e0d2a1320b55245912c781f5360405160405180910390a3505050505050565b6000546001600160a01b031633146200046f5760405162461bcd60e51b8152600401620002cd9062000e20565b8281146200049057604051632df0433360e21b815260040160405180910390fd5b60005b838110156200052b5762000516858583818110620004c157634e487b7160e01b600052603260045260246000fd5b9050602002016020810190620004d8919062000b1c565b848484818110620004f957634e487b7160e01b600052603260045260246000fd5b905060200201602081019062000510919062000b1c565b620007a6565b80620005228162000ebd565b91505062000493565b5050505050565b606062000540838362000e70565b6200054d90600162000e55565b67ffffffffffffffff8111156200057457634e487b7160e01b600052604160045260246000fd5b6040519080825280602002602001820160405280156200059e578160200160208202803683370190505b509050825b828111620006395760018181548110620005cd57634e487b7160e01b600052603260045260246000fd5b9060005260206000200160009054906101000a90046001600160a01b03168282815181106200060c57634e487b7160e01b600052603260045260246000fd5b6001600160a01b039092166020928302919091019091015280620006308162000ebd565b915050620005a3565b5092915050565b6000546001600160a01b031633146200066d5760405162461bcd60e51b8152600401620002cd9062000e20565b600080546040516001600160a01b03909116907f8be0079c531659141344cd1fd0a4f28419497f9722a3daafe3b4186f6b6457e0908390a3600080546001600160a01b0319169055565b6000546001600160a01b03163314620006e45760405162461bcd60e51b8152600401620002cd9062000e20565b6001600160a01b0381166200074b5760405162461bcd60e51b815260206004820152602660248201527f4f776e61626c653a206e6577206f776e657220697320746865207a65726f206160448201526564647265737360d01b6064820152608401620002cd565b600080546040516001600160a01b03808516939216917f8be0079c531659141344cd1fd0a4f28419497f9722a3daafe3b4186f6b6457e091a3600080546001600160a01b0319166001600160a01b0392909216919091179055565b604080518082018252601281527175706772616465546f28616464726573732960701b60209182015281516001600160a01b03848116602480840191909152845180840390910181526044909201845291810180516001600160e01b0316631b2ce7f360e11b179052915160009291851691620008239162000d50565b6000604051808303816000865af19150503d806000811462000862576040519150601f19603f3d011682016040523d82523d6000602084013e62000867565b606091505b50509050806200088a5760405163e5ba34a360e01b815260040160405180910390fd5b816001600160a01b0316836001600160a01b03167ff1bca332ecac5836810b4626fa419227255b5d1ec952fc6b7bba5916ecf6808060405160405180910390a3505050565b6000815160001415620008f557604051631438a13160e01b815260040160405180910390fd5b846001600160a01b0316866001600160a01b031614156200091557600080fd5b6000856001600160a01b0316876001600160a01b0316106200093857856200093a565b865b90506001600160a01b038116620009945760405162461bcd60e51b815260206004820152601e60248201527f746f6b656e2063616e6e6f742062652061207a65726f206164647265737300006044820152606401620002cd565b604080518082018252601f81527f696e697469616c697a6528616464726573732c696e7432342c627974657329006020909101525184907f3d048c271a2436dc9dbaf9f72bfa07b52d864af4693499c0eebeda112c60b8fa9062000a02908890603c90889060240162000d9c565b60408051601f198184030181529181526020820180516001600160e01b03166001600160e01b031990941693909317909252905162000a419062000ac1565b62000a4e92919062000d6e565b604051809103906000f08015801562000a6b573d6000803e3d6000fd5b506001805480820182556000919091527fb10e2d527612073b26eecdfd717e6a320cf44b4afac2b0732d9fcbe2b7fa0cf60180546001600160a01b0319166001600160a01b038316179055979650505050505050565b6107728062000f2183390190565b60008083601f84011262000ae1578081fd5b50813567ffffffffffffffff81111562000af9578182fd5b6020830191508360208260051b850101111562000b1557600080fd5b9250929050565b60006020828403121562000b2e578081fd5b813562000b3b8162000f07565b9392505050565b60006020828403121562000b54578081fd5b815162000b3b8162000f07565b6000806040838503121562000b74578081fd5b823562000b818162000f07565b9150602083013562000b938162000f07565b809150509250929050565b6000806000806080858703121562000bb4578182fd5b843562000bc18162000f07565b9350602085013562000bd38162000f07565b9250604085013562000be58162000f07565b9150606085013567ffffffffffffffff8082111562000c02578283fd5b818701915087601f83011262000c16578283fd5b81358181111562000c2b5762000c2b62000ef1565b604051601f8201601f19908116603f0116810190838211818310171562000c565762000c5662000ef1565b816040528281528a602084870101111562000c6f578586fd5b82602086016020830137918201602001949094529598949750929550505050565b6000806000806040858703121562000ca6578384fd5b843567ffffffffffffffff8082111562000cbe578586fd5b62000ccc8883890162000acf565b9096509450602087013591508082111562000ce5578384fd5b5062000cf48782880162000acf565b95989497509550505050565b6000806040838503121562000d13578182fd5b50508035926020909101359150565b6000815180845262000d3c81602086016020860162000e8a565b601f01601f19169290920160200192915050565b6000825162000d6481846020870162000e8a565b9190910192915050565b6001600160a01b038316815260406020820181905260009062000d949083018462000d22565b949350505050565b60018060a01b03841681528260020b602082015260606040820152600062000dc8606083018462000d22565b95945050505050565b6020808252825182820181905260009190848201906040850190845b8181101562000e145783516001600160a01b03168352928401929184019160010162000ded565b50909695505050505050565b6020808252818101527f4f776e61626c653a2063616c6c6572206973206e6f7420746865206f776e6572604082015260600190565b6000821982111562000e6b5762000e6b62000edb565b500190565b60008282101562000e855762000e8562000edb565b500390565b60005b8381101562000ea757818101518382015260200162000e8d565b8381111562000eb7576000848401525b50505050565b600060001982141562000ed45762000ed462000edb565b5060010190565b634e487b7160e01b600052601160045260246000fd5b634e487b7160e01b600052604160045260246000fd5b6001600160a01b038116811462000f1d57600080fd5b5056fe6080604052604051610772380380610772833981016040819052610022916102f7565b61004d60017f360894a13ba1a3210667c828492db98dca3e2076cc3735a920a3ca505d382bbd61040f565b60008051602061072b8339815191521461007757634e487b7160e01b600052600160045260246000fd5b6100838282600061008a565b5050610474565b610093836100f4565b6040516001600160a01b038416907fbc7cd75a20ee27fd9adebab32041f755214dbc6bffa90cc0225b39da2e5c2d3b90600090a26000825111806100d45750805b156100ef576100ed83836101b460201b6100291760201c565b505b505050565b610107816101e060201b6100551760201c565b61016e5760405162461bcd60e51b815260206004820152602d60248201527f455243313936373a206e657720696d706c656d656e746174696f6e206973206e60448201526c1bdd08184818dbdb9d1c9858dd609a1b60648201526084015b60405180910390fd5b8061019360008051602061072b83398151915260001b6101e660201b61005b1760201c565b80546001600160a01b0319166001600160a01b039290921691909117905550565b60606101d9838360405180606001604052806027815260200161074b602791396101e9565b9392505050565b3b151590565b90565b6060833b6102485760405162461bcd60e51b815260206004820152602660248201527f416464726573733a2064656c65676174652063616c6c20746f206e6f6e2d636f6044820152651b9d1c9858dd60d21b6064820152608401610165565b600080856001600160a01b03168560405161026391906103c0565b600060405180830381855af49150503d806000811461029e576040519150601f19603f3d011682016040523d82523d6000602084013e6102a3565b606091505b5090925090506102b48282866102be565b9695505050505050565b606083156102cd5750816101d9565b8251156102dd5782518084602001fd5b8160405162461bcd60e51b815260040161016591906103dc565b60008060408385031215610309578182fd5b82516001600160a01b038116811461031f578283fd5b60208401519092506001600160401b038082111561033b578283fd5b818501915085601f83011261034e578283fd5b8151818111156103605761036061045e565b604051601f8201601f19908116603f011681019083821181831017156103885761038861045e565b816040528281528860208487010111156103a0578586fd5b6103b1836020830160208801610432565b80955050505050509250929050565b600082516103d2818460208701610432565b9190910192915050565b60208152600082518060208401526103fb816040850160208701610432565b601f01601f19169190910160400192915050565b60008282101561042d57634e487b7160e01b81526011600452602481fd5b500390565b60005b8381101561044d578181015183820152602001610435565b838111156100ed5750506000910152565b634e487b7160e01b600052604160045260246000fd5b6102a8806104836000396000f3fe60806040523661001357610011610017565b005b6100115b61002761002261005e565b610096565b565b606061004e838360405180606001604052806027815260200161024c602791396100ba565b9392505050565b3b151590565b90565b60006100917f360894a13ba1a3210667c828492db98dca3e2076cc3735a920a3ca505d382bbc546001600160a01b031690565b905090565b3660008037600080366000845af43d6000803e8080156100b5573d6000f35b3d6000fd5b6060833b61011e5760405162461bcd60e51b815260206004820152602660248201527f416464726573733a2064656c65676174652063616c6c20746f206e6f6e2d636f6044820152651b9d1c9858dd60d21b60648201526084015b60405180910390fd5b600080856001600160a01b03168560405161013991906101cc565b600060405180830381855af49150503d8060008114610174576040519150601f19603f3d011682016040523d82523d6000602084013e610179565b606091505b5091509150610189828286610193565b9695505050505050565b606083156101a257508161004e565b8251156101b25782518084602001fd5b8160405162461bcd60e51b815260040161011591906101e8565b600082516101de81846020870161021b565b9190910192915050565b602081526000825180602084015261020781604085016020870161021b565b601f01601f19169190910160400192915050565b60005b8381101561023657818101518382015260200161021e565b83811115610245576000848401525b5050505056fe416464726573733a206c6f772d6c6576656c2064656c65676174652063616c6c206661696c6564a26469706673582212204ed327ac0cc06898df172236fba4c81cf1785595729bfd6e83bbddadf0869e2c64736f6c63430008040033360894a13ba1a3210667c828492db98dca3e2076cc3735a920a3ca505d382bbc416464726573733a206c6f772d6c6576656c2064656c65676174652063616c6c206661696c6564a26469706673582212202726fb623a8d9c75fa25b196d0121a22a3764db1e643553c3ecf601117c0e5c564736f6c63430008040033",
  "linkReferences": {},
  "deployedLinkReferences": {}
}