{
  "_format": "hh-sol-artifact-1",
  "contractName": "RangeProtocolVault",
  "sourceName": "contracts/RangeProtocolVault.sol",
  "abi": [
    {
      "inputs": [],
      "stateMutability": "nonpayable",
      "type": "constructor"
    },
    {
      "inputs": [],
      "name": "InvalidBurnAmount",
      "type": "error"
    },
    {
      "inputs": [],
      "name": "InvalidManagingFee",
      "type": "error"
    },
    {
      "inputs": [],
      "name": "InvalidMintAmount",
      "type": "error"
    },
    {
      "inputs": [],
      "name": "InvalidPerformanceFee",
      "type": "error"
    },
    {
      "inputs": [],
      "name": "InvalidTicksSpacing",
      "type": "error"
    },
    {
      "inputs": [],
      "name": "MintNotAllowed",
      "type": "error"
    },
    {
      "inputs": [],
      "name": "MintNotStarted",
      "type": "error"
    },
    {
      "inputs": [],
      "name": "NotAllowedToUpdateTicks",
      "type": "error"
    },
    {
      "inputs": [],
      "name": "OnlyFactoryAllowed",
      "type": "error"
    },
    {
      "inputs": [],
      "name": "OnlyPoolAllowed",
      "type": "error"
    },
    {
      "inputs": [],
      "name": "TicksOutOfRange",
      "type": "error"
    },
    {
      "inputs": [],
      "name": "ZeroMintAmount",
      "type": "error"
    },
    {
      "inputs": [],
      "name": "ZeroUnderlyingBalance",
      "type": "error"
    },
    {
      "anonymous": false,
      "inputs": [
        {
          "indexed": false,
          "internalType": "address",
          "name": "previousAdmin",
          "type": "address"
        },
        {
          "indexed": false,
          "internalType": "address",
          "name": "newAdmin",
          "type": "address"
        }
      ],
      "name": "AdminChanged",
      "type": "event"
    },
    {
      "anonymous": false,
      "inputs": [
        {
          "indexed": true,
          "internalType": "address",
          "name": "owner",
          "type": "address"
        },
        {
          "indexed": true,
          "internalType": "address",
          "name": "spender",
          "type": "address"
        },
        {
          "indexed": false,
          "internalType": "uint256",
          "name": "value",
          "type": "uint256"
        }
      ],
      "name": "Approval",
      "type": "event"
    },
    {
      "anonymous": false,
      "inputs": [
        {
          "indexed": true,
          "internalType": "address",
          "name": "beacon",
          "type": "address"
        }
      ],
      "name": "BeaconUpgraded",
      "type": "event"
    },
    {
      "anonymous": false,
      "inputs": [
        {
          "indexed": true,
          "internalType": "address",
          "name": "receiver",
          "type": "address"
        },
        {
          "indexed": false,
          "internalType": "uint256",
          "name": "burnAmount",
          "type": "uint256"
        },
        {
          "indexed": false,
          "internalType": "uint256",
          "name": "amount0Out",
          "type": "uint256"
        },
        {
          "indexed": false,
          "internalType": "uint256",
          "name": "amount1Out",
          "type": "uint256"
        }
      ],
      "name": "Burned",
      "type": "event"
    },
    {
      "anonymous": false,
      "inputs": [
        {
          "indexed": false,
          "internalType": "uint256",
          "name": "feesEarned0",
          "type": "uint256"
        },
        {
          "indexed": false,
          "internalType": "uint256",
          "name": "feesEarned1",
          "type": "uint256"
        }
      ],
      "name": "FeesEarned",
      "type": "event"
    },
    {
      "anonymous": false,
      "inputs": [
        {
          "indexed": false,
          "internalType": "uint16",
          "name": "managingFee",
          "type": "uint16"
        },
        {
          "indexed": false,
          "internalType": "uint16",
          "name": "performanceFee",
          "type": "uint16"
        }
      ],
      "name": "FeesUpdated",
      "type": "event"
    },
    {
      "anonymous": false,
      "inputs": [
        {
          "indexed": false,
          "internalType": "bool",
          "name": "inThePosition",
          "type": "bool"
        }
      ],
      "name": "InThePositionStatusSet",
      "type": "event"
    },
    {
      "anonymous": false,
      "inputs": [
        {
          "indexed": false,
          "internalType": "uint8",
          "name": "version",
          "type": "uint8"
        }
      ],
      "name": "Initialized",
      "type": "event"
    },
    {
      "anonymous": false,
      "inputs": [
        {
          "indexed": false,
          "internalType": "uint256",
          "name": "liquidityMinted",
          "type": "uint256"
        },
        {
          "indexed": false,
          "internalType": "int24",
          "name": "tickLower",
          "type": "int24"
        },
        {
          "indexed": false,
          "internalType": "int24",
          "name": "tickUpper",
          "type": "int24"
        },
        {
          "indexed": false,
          "internalType": "uint256",
          "name": "amount0In",
          "type": "uint256"
        },
        {
          "indexed": false,
          "internalType": "uint256",
          "name": "amount1In",
          "type": "uint256"
        }
      ],
      "name": "LiquidityAdded",
      "type": "event"
    },
    {
      "anonymous": false,
      "inputs": [
        {
          "indexed": false,
          "internalType": "uint256",
          "name": "liquidityRemoved",
          "type": "uint256"
        },
        {
          "indexed": false,
          "internalType": "int24",
          "name": "tickLower",
          "type": "int24"
        },
        {
          "indexed": false,
          "internalType": "int24",
          "name": "tickUpper",
          "type": "int24"
        },
        {
          "indexed": false,
          "internalType": "uint256",
          "name": "amount0Out",
          "type": "uint256"
        },
        {
          "indexed": false,
          "internalType": "uint256",
          "name": "amount1Out",
          "type": "uint256"
        }
      ],
      "name": "LiquidityRemoved",
      "type": "event"
    },
    {
      "anonymous": false,
      "inputs": [],
      "name": "MintStarted",
      "type": "event"
    },
    {
      "anonymous": false,
      "inputs": [
        {
          "indexed": true,
          "internalType": "address",
          "name": "receiver",
          "type": "address"
        },
        {
          "indexed": false,
          "internalType": "uint256",
          "name": "mintAmount",
          "type": "uint256"
        },
        {
          "indexed": false,
          "internalType": "uint256",
          "name": "amount0In",
          "type": "uint256"
        },
        {
          "indexed": false,
          "internalType": "uint256",
          "name": "amount1In",
          "type": "uint256"
        }
      ],
      "name": "Minted",
      "type": "event"
    },
    {
      "anonymous": false,
      "inputs": [
        {
          "indexed": true,
          "internalType": "address",
          "name": "previousManager",
          "type": "address"
        },
        {
          "indexed": true,
          "internalType": "address",
          "name": "newManager",
          "type": "address"
        }
      ],
      "name": "OwnershipTransferred",
      "type": "event"
    },
    {
      "anonymous": false,
      "inputs": [
        {
          "indexed": false,
          "internalType": "address",
          "name": "account",
          "type": "address"
        }
      ],
      "name": "Paused",
      "type": "event"
    },
    {
      "anonymous": false,
      "inputs": [
        {
          "indexed": false,
          "internalType": "bool",
          "name": "zeroForOne",
          "type": "bool"
        },
        {
          "indexed": false,
          "internalType": "int256",
          "name": "amount0",
          "type": "int256"
        },
        {
          "indexed": false,
          "internalType": "int256",
          "name": "amount1",
          "type": "int256"
        }
      ],
      "name": "Swapped",
      "type": "event"
    },
    {
      "anonymous": false,
      "inputs": [
        {
          "indexed": false,
          "internalType": "int24",
          "name": "lowerTick",
          "type": "int24"
        },
        {
          "indexed": false,
          "internalType": "int24",
          "name": "upperTick",
          "type": "int24"
        }
      ],
      "name": "TicksSet",
      "type": "event"
    },
    {
      "anonymous": false,
      "inputs": [
        {
          "indexed": true,
          "internalType": "address",
          "name": "from",
          "type": "address"
        },
        {
          "indexed": true,
          "internalType": "address",
          "name": "to",
          "type": "address"
        },
        {
          "indexed": false,
          "internalType": "uint256",
          "name": "value",
          "type": "uint256"
        }
      ],
      "name": "Transfer",
      "type": "event"
    },
    {
      "anonymous": false,
      "inputs": [
        {
          "indexed": false,
          "internalType": "address",
          "name": "account",
          "type": "address"
        }
      ],
      "name": "Unpaused",
      "type": "event"
    },
    {
      "anonymous": false,
      "inputs": [
        {
          "indexed": true,
          "internalType": "address",
          "name": "implementation",
          "type": "address"
        }
      ],
      "name": "Upgraded",
      "type": "event"
    },
    {
      "inputs": [],
      "name": "MAX_MANAGING_FEE_BPS",
      "outputs": [
        {
          "internalType": "uint16",
          "name": "",
          "type": "uint16"
        }
      ],
      "stateMutability": "view",
      "type": "function"
    },
    {
      "inputs": [],
      "name": "MAX_PERFORMANCE_FEE_BPS",
      "outputs": [
        {
          "internalType": "uint16",
          "name": "",
          "type": "uint16"
        }
      ],
      "stateMutability": "view",
      "type": "function"
    },
    {
      "inputs": [
        {
          "internalType": "int24",
          "name": "newLowerTick",
          "type": "int24"
        },
        {
          "internalType": "int24",
          "name": "newUpperTick",
          "type": "int24"
        },
        {
          "internalType": "uint256",
          "name": "amount0",
          "type": "uint256"
        },
        {
          "internalType": "uint256",
          "name": "amount1",
          "type": "uint256"
        }
      ],
      "name": "addLiquidity",
      "outputs": [
        {
          "internalType": "uint256",
          "name": "remainingAmount0",
          "type": "uint256"
        },
        {
          "internalType": "uint256",
          "name": "remainingAmount1",
          "type": "uint256"
        }
      ],
      "stateMutability": "nonpayable",
      "type": "function"
    },
    {
      "inputs": [
        {
          "internalType": "address",
          "name": "owner",
          "type": "address"
        },
        {
          "internalType": "address",
          "name": "spender",
          "type": "address"
        }
      ],
      "name": "allowance",
      "outputs": [
        {
          "internalType": "uint256",
          "name": "",
          "type": "uint256"
        }
      ],
      "stateMutability": "view",
      "type": "function"
    },
    {
      "inputs": [
        {
          "internalType": "address",
          "name": "spender",
          "type": "address"
        },
        {
          "internalType": "uint256",
          "name": "amount",
          "type": "uint256"
        }
      ],
      "name": "approve",
      "outputs": [
        {
          "internalType": "bool",
          "name": "",
          "type": "bool"
        }
      ],
      "stateMutability": "nonpayable",
      "type": "function"
    },
    {
      "inputs": [
        {
          "internalType": "address",
          "name": "account",
          "type": "address"
        }
      ],
      "name": "balanceOf",
      "outputs": [
        {
          "internalType": "uint256",
          "name": "",
          "type": "uint256"
        }
      ],
      "stateMutability": "view",
      "type": "function"
    },
    {
      "inputs": [
        {
          "internalType": "uint256",
          "name": "burnAmount",
          "type": "uint256"
        }
      ],
      "name": "burn",
      "outputs": [
        {
          "internalType": "uint256",
          "name": "amount0",
          "type": "uint256"
        },
        {
          "internalType": "uint256",
          "name": "amount1",
          "type": "uint256"
        }
      ],
      "stateMutability": "nonpayable",
      "type": "function"
    },
    {
      "inputs": [],
      "name": "collectManager",
      "outputs": [],
      "stateMutability": "nonpayable",
      "type": "function"
    },
    {
      "inputs": [],
      "name": "decimals",
      "outputs": [
        {
          "internalType": "uint8",
          "name": "",
          "type": "uint8"
        }
      ],
      "stateMutability": "view",
      "type": "function"
    },
    {
      "inputs": [
        {
          "internalType": "address",
          "name": "spender",
          "type": "address"
        },
        {
          "internalType": "uint256",
          "name": "subtractedValue",
          "type": "uint256"
        }
      ],
      "name": "decreaseAllowance",
      "outputs": [
        {
          "internalType": "bool",
          "name": "",
          "type": "bool"
        }
      ],
      "stateMutability": "nonpayable",
      "type": "function"
    },
    {
      "inputs": [],
      "name": "factory",
      "outputs": [
        {
          "internalType": "address",
          "name": "",
          "type": "address"
        }
      ],
      "stateMutability": "view",
      "type": "function"
    },
    {
      "inputs": [],
      "name": "getCurrentFees",
      "outputs": [
        {
          "internalType": "uint256",
          "name": "fee0",
          "type": "uint256"
        },
        {
          "internalType": "uint256",
          "name": "fee1",
          "type": "uint256"
        }
      ],
      "stateMutability": "view",
      "type": "function"
    },
    {
      "inputs": [
        {
          "internalType": "uint256",
          "name": "amount0Max",
          "type": "uint256"
        },
        {
          "internalType": "uint256",
          "name": "amount1Max",
          "type": "uint256"
        }
      ],
      "name": "getMintAmounts",
      "outputs": [
        {
          "internalType": "uint256",
          "name": "amount0",
          "type": "uint256"
        },
        {
          "internalType": "uint256",
          "name": "amount1",
          "type": "uint256"
        },
        {
          "internalType": "uint256",
          "name": "mintAmount",
          "type": "uint256"
        }
      ],
      "stateMutability": "view",
      "type": "function"
    },
    {
      "inputs": [],
      "name": "getPositionID",
      "outputs": [
        {
          "internalType": "bytes32",
          "name": "positionID",
          "type": "bytes32"
        }
      ],
      "stateMutability": "view",
      "type": "function"
    },
    {
      "inputs": [],
      "name": "getUnderlyingBalances",
      "outputs": [
        {
          "internalType": "uint256",
          "name": "amount0Current",
          "type": "uint256"
        },
        {
          "internalType": "uint256",
          "name": "amount1Current",
          "type": "uint256"
        }
      ],
      "stateMutability": "view",
      "type": "function"
    },
    {
      "inputs": [
        {
          "internalType": "uint160",
          "name": "sqrtRatioX96",
          "type": "uint160"
        }
      ],
      "name": "getUnderlyingBalancesAtPrice",
      "outputs": [
        {
          "internalType": "uint256",
          "name": "amount0Current",
          "type": "uint256"
        },
        {
          "internalType": "uint256",
          "name": "amount1Current",
          "type": "uint256"
        }
      ],
      "stateMutability": "view",
      "type": "function"
    },
    {
      "inputs": [
        {
          "internalType": "uint256",
          "name": "fromIdx",
          "type": "uint256"
        },
        {
          "internalType": "uint256",
          "name": "toIdx",
          "type": "uint256"
        }
      ],
      "name": "getUserVaults",
      "outputs": [
        {
          "components": [
            {
              "internalType": "address",
              "name": "user",
              "type": "address"
            },
            {
              "internalType": "uint256",
              "name": "token0",
              "type": "uint256"
            },
            {
              "internalType": "uint256",
              "name": "token1",
              "type": "uint256"
            }
          ],
          "internalType": "struct IRangeProtocolVault.UserVaultInfo[]",
          "name": "",
          "type": "tuple[]"
        }
      ],
      "stateMutability": "view",
      "type": "function"
    },
    {
      "inputs": [],
      "name": "inThePosition",
      "outputs": [
        {
          "internalType": "bool",
          "name": "",
          "type": "bool"
        }
      ],
      "stateMutability": "view",
      "type": "function"
    },
    {
      "inputs": [
        {
          "internalType": "address",
          "name": "spender",
          "type": "address"
        },
        {
          "internalType": "uint256",
          "name": "addedValue",
          "type": "uint256"
        }
      ],
      "name": "increaseAllowance",
      "outputs": [
        {
          "internalType": "bool",
          "name": "",
          "type": "bool"
        }
      ],
      "stateMutability": "nonpayable",
      "type": "function"
    },
    {
      "inputs": [
        {
          "internalType": "address",
          "name": "_pool",
          "type": "address"
        },
        {
          "internalType": "int24",
          "name": "_tickSpacing",
          "type": "int24"
        },
        {
          "internalType": "bytes",
          "name": "data",
          "type": "bytes"
        }
      ],
      "name": "initialize",
      "outputs": [],
      "stateMutability": "nonpayable",
      "type": "function"
    },
    {
      "inputs": [],
      "name": "lowerTick",
      "outputs": [
        {
          "internalType": "int24",
          "name": "",
          "type": "int24"
        }
      ],
      "stateMutability": "view",
      "type": "function"
    },
    {
      "inputs": [],
      "name": "manager",
      "outputs": [
        {
          "internalType": "address",
          "name": "",
          "type": "address"
        }
      ],
      "stateMutability": "view",
      "type": "function"
    },
    {
      "inputs": [],
      "name": "managerBalance0",
      "outputs": [
        {
          "internalType": "uint256",
          "name": "",
          "type": "uint256"
        }
      ],
      "stateMutability": "view",
      "type": "function"
    },
    {
      "inputs": [],
      "name": "managerBalance1",
      "outputs": [
        {
          "internalType": "uint256",
          "name": "",
          "type": "uint256"
        }
      ],
      "stateMutability": "view",
      "type": "function"
    },
    {
      "inputs": [],
      "name": "managingFee",
      "outputs": [
        {
          "internalType": "uint16",
          "name": "",
          "type": "uint16"
        }
      ],
      "stateMutability": "view",
      "type": "function"
    },
    {
      "inputs": [
        {
          "internalType": "uint256",
          "name": "mintAmount",
          "type": "uint256"
        }
      ],
      "name": "mint",
      "outputs": [
        {
          "internalType": "uint256",
          "name": "amount0",
          "type": "uint256"
        },
        {
          "internalType": "uint256",
          "name": "amount1",
          "type": "uint256"
        }
      ],
      "stateMutability": "nonpayable",
      "type": "function"
    },
    {
      "inputs": [],
      "name": "mintStarted",
      "outputs": [
        {
          "internalType": "bool",
          "name": "",
          "type": "bool"
        }
      ],
      "stateMutability": "view",
      "type": "function"
    },
    {
      "inputs": [],
      "name": "name",
      "outputs": [
        {
          "internalType": "string",
          "name": "",
          "type": "string"
        }
      ],
      "stateMutability": "view",
      "type": "function"
    },
    {
      "inputs": [
        {
          "internalType": "uint256",
          "name": "amount0Owed",
          "type": "uint256"
        },
        {
          "internalType": "uint256",
          "name": "amount1Owed",
          "type": "uint256"
        },
        {
          "internalType": "bytes",
          "name": "",
          "type": "bytes"
        }
      ],
      "name": "pancakeV3MintCallback",
      "outputs": [],
      "stateMutability": "nonpayable",
      "type": "function"
    },
    {
      "inputs": [
        {
          "internalType": "int256",
          "name": "amount0Delta",
          "type": "int256"
        },
        {
          "internalType": "int256",
          "name": "amount1Delta",
          "type": "int256"
        },
        {
          "internalType": "bytes",
          "name": "",
          "type": "bytes"
        }
      ],
      "name": "pancakeV3SwapCallback",
      "outputs": [],
      "stateMutability": "nonpayable",
      "type": "function"
    },
    {
      "inputs": [],
      "name": "pause",
      "outputs": [],
      "stateMutability": "nonpayable",
      "type": "function"
    },
    {
      "inputs": [],
      "name": "paused",
      "outputs": [
        {
          "internalType": "bool",
          "name": "",
          "type": "bool"
        }
      ],
      "stateMutability": "view",
      "type": "function"
    },
    {
      "inputs": [],
      "name": "performanceFee",
      "outputs": [
        {
          "internalType": "uint16",
          "name": "",
          "type": "uint16"
        }
      ],
      "stateMutability": "view",
      "type": "function"
    },
    {
      "inputs": [],
      "name": "pool",
      "outputs": [
        {
          "internalType": "contract IPancakeV3Pool",
          "name": "",
          "type": "address"
        }
      ],
      "stateMutability": "view",
      "type": "function"
    },
    {
      "inputs": [],
      "name": "proxiableUUID",
      "outputs": [
        {
          "internalType": "bytes32",
          "name": "",
          "type": "bytes32"
        }
      ],
      "stateMutability": "view",
      "type": "function"
    },
    {
      "inputs": [],
      "name": "pullFeeFromPool",
      "outputs": [],
      "stateMutability": "nonpayable",
      "type": "function"
    },
    {
      "inputs": [],
      "name": "removeLiquidity",
      "outputs": [],
      "stateMutability": "nonpayable",
      "type": "function"
    },
    {
      "inputs": [],
      "name": "renounceOwnership",
      "outputs": [],
      "stateMutability": "nonpayable",
      "type": "function"
    },
    {
      "inputs": [
        {
          "internalType": "bool",
          "name": "zeroForOne",
          "type": "bool"
        },
        {
          "internalType": "int256",
          "name": "swapAmount",
          "type": "int256"
        },
        {
          "internalType": "uint160",
          "name": "sqrtPriceLimitX96",
          "type": "uint160"
        }
      ],
      "name": "swap",
      "outputs": [
        {
          "internalType": "int256",
          "name": "amount0",
          "type": "int256"
        },
        {
          "internalType": "int256",
          "name": "amount1",
          "type": "int256"
        }
      ],
      "stateMutability": "nonpayable",
      "type": "function"
    },
    {
      "inputs": [],
      "name": "symbol",
      "outputs": [
        {
          "internalType": "string",
          "name": "",
          "type": "string"
        }
      ],
      "stateMutability": "view",
      "type": "function"
    },
    {
      "inputs": [],
      "name": "tickSpacing",
      "outputs": [
        {
          "internalType": "int24",
          "name": "",
          "type": "int24"
        }
      ],
      "stateMutability": "view",
      "type": "function"
    },
    {
      "inputs": [],
      "name": "token0",
      "outputs": [
        {
          "internalType": "contract IERC20Upgradeable",
          "name": "",
          "type": "address"
        }
      ],
      "stateMutability": "view",
      "type": "function"
    },
    {
      "inputs": [],
      "name": "token1",
      "outputs": [
        {
          "internalType": "contract IERC20Upgradeable",
          "name": "",
          "type": "address"
        }
      ],
      "stateMutability": "view",
      "type": "function"
    },
    {
      "inputs": [],
      "name": "totalSupply",
      "outputs": [
        {
          "internalType": "uint256",
          "name": "",
          "type": "uint256"
        }
      ],
      "stateMutability": "view",
      "type": "function"
    },
    {
      "inputs": [
        {
          "internalType": "address",
          "name": "to",
          "type": "address"
        },
        {
          "internalType": "uint256",
          "name": "amount",
          "type": "uint256"
        }
      ],
      "name": "transfer",
      "outputs": [
        {
          "internalType": "bool",
          "name": "",
          "type": "bool"
        }
      ],
      "stateMutability": "nonpayable",
      "type": "function"
    },
    {
      "inputs": [
        {
          "internalType": "address",
          "name": "from",
          "type": "address"
        },
        {
          "internalType": "address",
          "name": "to",
          "type": "address"
        },
        {
          "internalType": "uint256",
          "name": "amount",
          "type": "uint256"
        }
      ],
      "name": "transferFrom",
      "outputs": [
        {
          "internalType": "bool",
          "name": "",
          "type": "bool"
        }
      ],
      "stateMutability": "nonpayable",
      "type": "function"
    },
    {
      "inputs": [
        {
          "internalType": "address",
          "name": "newManager",
          "type": "address"
        }
      ],
      "name": "transferOwnership",
      "outputs": [],
      "stateMutability": "nonpayable",
      "type": "function"
    },
    {
      "inputs": [],
      "name": "unpause",
      "outputs": [],
      "stateMutability": "nonpayable",
      "type": "function"
    },
    {
      "inputs": [
        {
          "internalType": "uint16",
          "name": "newManagingFee",
          "type": "uint16"
        },
        {
          "internalType": "uint16",
          "name": "newPerformanceFee",
          "type": "uint16"
        }
      ],
      "name": "updateFees",
      "outputs": [],
      "stateMutability": "nonpayable",
      "type": "function"
    },
    {
      "inputs": [
        {
          "internalType": "int24",
          "name": "_lowerTick",
          "type": "int24"
        },
        {
          "internalType": "int24",
          "name": "_upperTick",
          "type": "int24"
        }
      ],
      "name": "updateTicks",
      "outputs": [],
      "stateMutability": "nonpayable",
      "type": "function"
    },
    {
      "inputs": [
        {
          "internalType": "address",
          "name": "newImplementation",
          "type": "address"
        }
      ],
      "name": "upgradeTo",
      "outputs": [],
      "stateMutability": "nonpayable",
      "type": "function"
    },
    {
      "inputs": [
        {
          "internalType": "address",
          "name": "newImplementation",
          "type": "address"
        },
        {
          "internalType": "bytes",
          "name": "data",
          "type": "bytes"
        }
      ],
      "name": "upgradeToAndCall",
      "outputs": [],
      "stateMutability": "payable",
      "type": "function"
    },
    {
      "inputs": [],
      "name": "upperTick",
      "outputs": [
        {
          "internalType": "int24",
          "name": "",
          "type": "int24"
        }
      ],
      "stateMutability": "view",
      "type": "function"
    },
    {
      "inputs": [],
      "name": "userCount",
      "outputs": [
        {
          "internalType": "uint256",
          "name": "",
          "type": "uint256"
        }
      ],
      "stateMutability": "view",
      "type": "function"
    },
    {
      "inputs": [
        {
          "internalType": "address",
          "name": "",
          "type": "address"
        }
      ],
      "name": "userVaults",
      "outputs": [
        {
          "internalType": "bool",
          "name": "exists",
          "type": "bool"
        },
        {
          "internalType": "uint256",
          "name": "token0",
          "type": "uint256"
        },
        {
          "internalType": "uint256",
          "name": "token1",
          "type": "uint256"
        }
      ],
      "stateMutability": "view",
      "type": "function"
    },
    {
      "inputs": [
        {
          "internalType": "uint256",
          "name": "",
          "type": "uint256"
        }
      ],
      "name": "users",
      "outputs": [
        {
          "internalType": "address",
          "name": "",
          "type": "address"
        }
      ],
      "stateMutability": "view",
      "type": "function"
    }
  ],
  "bytecode": "0x60a06040523060601b6080523480156200001857600080fd5b506200002362000029565b620000eb565b600054610100900460ff1615620000965760405162461bcd60e51b815260206004820152602760248201527f496e697469616c697a61626c653a20636f6e747261637420697320696e697469604482015266616c697a696e6760c81b606482015260840160405180910390fd5b60005460ff9081161015620000e9576000805460ff191660ff9081179091556040519081527f7f26b83ff96e1f2b6a682f133852f6798a09c465da95921460cefb38474024989060200160405180910390a15b565b60805160601c615cc86200012660003960008181610db401528181610dfd01528181611667015281816116a701526117db0152615cc86000f3fe60806040526004361061036b5760003560e01c806370889165116101c6578063a9059cbb116100f7578063d7e458b511610095578063f2fde38b1161006f578063f2fde38b14610a36578063f3d2350e14610a56578063f8c2e29b14610a76578063fd87f9aa14610a8b57600080fd5b8063d7e458b5146109ec578063dd62ed3e14610a01578063df28408a14610a2157600080fd5b8063c45a0155116100d1578063c45a01551461095b578063c653089f1461097c578063d0c93a7c146109a9578063d21220a7146109cb57600080fd5b8063a9059cbb146108f9578063a9722cf314610919578063b670ed7d1461093b57600080fd5b80639403c1ae1161016457806399eee9d01161013e57806399eee9d01461087e5780639b1344ac1461089e578063a0712d68146108b9578063a457c2d7146108d957600080fd5b80639403c1ae1461081957806395d89b411461082e5780639894f21a1461084357600080fd5b806371908a03116101a057806371908a0314610797578063727dd228146107ac5780638456cb59146107e157806387788782146107f657600080fd5b8063708891651461073657806370a082311461074c578063715018a61461078257600080fd5b8063365b98b2116102a0578063481c6a751161023e57806352d1902d1161021857806352d1902d146106bd5780635c975abb146106d2578063601b48a4146106eb57806367b9a2861461072157600080fd5b8063481c6a751461066c5780634f1ef2861461068a5780634fa62c5f1461069d57600080fd5b80633f4ba83a1161027a5780633f4ba83a146105fe5780634043f5ca1461061357806342966c681461063557806342fb9d441461065557600080fd5b8063365b98b21461059e57806339509351146105be5780633d048c27146105de57600080fd5b806318160ddd1161030d57806323b872dd116102e757806323b872dd146104e45780632958d03114610504578063313ce567146105625780633659cfe61461057e57600080fd5b806318160ddd1461048d578063195cd92c146104a257806323a69e75146104c257600080fd5b8063095ea7b311610349578063095ea7b3146103d25780630dfe1681146104025780631322d9541461043b57806316f0115b1461046557600080fd5b8063065756db1461037057806306fdde031461039a57806307973ccf146103bc575b600080fd5b34801561037c57600080fd5b506103876101635481565b6040519081526020015b60405180910390f35b3480156103a657600080fd5b506103af610aab565b60405161039191906158db565b3480156103c857600080fd5b5061016654610387565b3480156103de57600080fd5b506103f26103ed366004615463565b610b3d565b6040519015158152602001610391565b34801561040e57600080fd5b5061016054610423906001600160a01b031681565b6040516001600160a01b039091168152602001610391565b34801561044757600080fd5b50610450610b55565b60408051928352602083019190915201610391565b34801561047157600080fd5b5061015f5461042390600160581b90046001600160a01b031681565b34801561049957600080fd5b5060fd54610387565b3480156104ae57600080fd5b506104506104bd3660046154aa565b610bff565b3480156104ce57600080fd5b506104e26104dd366004615598565b610d04565b005b3480156104f057600080fd5b506103f26104ff36600461537f565b610d83565b34801561051057600080fd5b5061054561051f36600461529b565b6101656020526000908152604090208054600182015460029092015460ff909116919083565b604080519315158452602084019290925290820152606001610391565b34801561056e57600080fd5b5060405160128152602001610391565b34801561058a57600080fd5b506104e261059936600461529b565b610da9565b3480156105aa57600080fd5b506104236105b93660046157d4565b610e92565b3480156105ca57600080fd5b506103f26105d9366004615463565b610ebd565b3480156105ea57600080fd5b506104e26105f936600461540d565b610edf565b34801561060a57600080fd5b506104e2611244565b34801561061f57600080fd5b5061015f546103f290600160301b900460ff1681565b34801561064157600080fd5b506104506106503660046157d4565b611256565b34801561066157600080fd5b506103876101645481565b34801561067857600080fd5b5060c9546001600160a01b0316610423565b6104e26106983660046153bf565b61165c565b3480156106a957600080fd5b506104e26106b8366004615503565b61172d565b3480156106c957600080fd5b506103876117ce565b3480156106de57600080fd5b5061012d5460ff166103f2565b3480156106f757600080fd5b506101625461070e90600160a01b900461ffff1681565b60405161ffff9091168152602001610391565b34801561072d57600080fd5b506104e2611881565b34801561074257600080fd5b5061070e6103e881565b34801561075857600080fd5b5061038761076736600461529b565b6001600160a01b0316600090815260fb602052604090205490565b34801561078e57600080fd5b506104e2611a73565b3480156107a357600080fd5b50610450611a85565b3480156107b857600080fd5b5061015f546107ce906301000000900460020b81565b60405160029190910b8152602001610391565b3480156107ed57600080fd5b506104e2611c25565b34801561080257600080fd5b506101625461070e90600160b01b900461ffff1681565b34801561082557600080fd5b506104e2611c35565b34801561083a57600080fd5b506103af611caf565b34801561084f57600080fd5b5061086361085e3660046157ec565b611cbe565b60408051938452602084019290925290820152606001610391565b34801561088a57600080fd5b506104e2610899366004615598565b611e4a565b3480156108aa57600080fd5b5061015f546107ce9060020b81565b3480156108c557600080fd5b506104506108d43660046157d4565b611eb8565b3480156108e557600080fd5b506103f26108f4366004615463565b6122a4565b34801561090557600080fd5b506103f2610914366004615463565b61232a565b34801561092557600080fd5b5061015f546103f290600160381b900460ff1681565b34801561094757600080fd5b5061045061095636600461529b565b612338565b34801561096757600080fd5b5061016254610423906001600160a01b031681565b34801561098857600080fd5b5061099c6109973660046157ec565b6123e0565b604051610391919061586b565b3480156109b557600080fd5b5061015f546107ce90600160401b900460020b81565b3480156109d757600080fd5b5061016154610423906001600160a01b031681565b3480156109f857600080fd5b506104e26125be565b348015610a0d57600080fd5b50610387610a1c366004615347565b612631565b348015610a2d57600080fd5b5061038761265c565b348015610a4257600080fd5b506104e2610a5136600461529b565b6126c1565b348015610a6257600080fd5b506104e2610a713660046157a7565b612739565b348015610a8257600080fd5b5061070e606481565b348015610a9757600080fd5b50610450610aa6366004615530565b6127fd565b606060fe8054610aba90615b00565b80601f0160208091040260200160405190810160405280929190818152602001828054610ae690615b00565b8015610b335780601f10610b0857610100808354040283529160200191610b33565b820191906000526020600020905b815481529060010190602001808311610b1657829003601f168201915b5050505050905090565b600033610b4b818585612af2565b5060019392505050565b60008060008061015f600b9054906101000a90046001600160a01b03166001600160a01b0316633850c7bd6040518163ffffffff1660e01b815260040160e06040518083038186803b158015610baa57600080fd5b505afa158015610bbe573d6000803e3d6000fd5b505050506040513d601f19601f82011682018060405250810190610be29190615710565b505050505091509150610bf58282612c16565b9350935050509091565b600080610c0a612ec1565b61015f54604051630251596160e31b81523060048201528615156024820152604481018690526001600160a01b03858116606483015260a06084830152600060a4830152600160581b9092049091169063128acb089060c4016040805180830381600087803b158015610c7c57600080fd5b505af1158015610c90573d6000803e3d6000fd5b505050506040513d601f19601f82011682018060405250810190610cb49190615575565b6040805188151581526020810184905290810182905291935091507fbf511038cfa32cfb7971e976074c0e6aeda010e6afcbb38d87b4f910305014949060600160405180910390a1935093915050565b61015f54600160581b90046001600160a01b03163314610d3657604051620b7d9960e41b815260040160405180910390fd5b6000841315610d5c5761016054610d57906001600160a01b03163386612f26565b610d7d565b6000831315610d7d5761016154610d7d906001600160a01b03163385612f26565b50505050565b600033610d91858285612f8e565b610d9c858585613002565b60019150505b9392505050565b306001600160a01b037f0000000000000000000000000000000000000000000000000000000000000000161415610dfb5760405162461bcd60e51b8152600401610df29061590e565b60405180910390fd5b7f00000000000000000000000000000000000000000000000000000000000000006001600160a01b0316610e44600080516020615c4c833981519152546001600160a01b031690565b6001600160a01b031614610e6a5760405162461bcd60e51b8152600401610df29061595a565b610e73816131ad565b60408051600080825260208201909252610e8f918391906131d9565b50565b6101668181548110610ea357600080fd5b6000918252602090912001546001600160a01b0316905081565b600033610b4b818585610ed08383612631565b610eda9190615a4a565b612af2565b600054610100900460ff1615808015610eff5750600054600160ff909116105b80610f195750303b158015610f19575060005460ff166001145b610f7c5760405162461bcd60e51b815260206004820152602e60248201527f496e697469616c697a61626c653a20636f6e747261637420697320616c72656160448201526d191e481a5b9a5d1a585b1a5e995960921b6064820152608401610df2565b6000805460ff191660011790558015610f9f576000805461ff0019166101001790555b600080600084806020019051810190610fb891906152d3565b925092509250610fc6613353565b610fce61337a565b610fd66133a9565b610fe082826133d8565b610fe8613409565b610ff183613438565b8661015f600b6101000a8154816001600160a01b0302191690836001600160a01b0316021790555061015f600b9054906101000a90046001600160a01b03166001600160a01b0316630dfe16816040518163ffffffff1660e01b815260040160206040518083038186803b15801561106857600080fd5b505afa15801561107c573d6000803e3d6000fd5b505050506040513d601f19601f820116820180604052508101906110a091906152b7565b61016080546001600160a01b0319166001600160a01b0392831617905561015f546040805163d21220a760e01b81529051600160581b9092049092169163d21220a7916004808301926020929190829003018186803b15801561110257600080fd5b505afa158015611116573d6000803e3d6000fd5b505050506040513d601f19601f8201168201806040525081019061113a91906152b7565b61016180546001600160a01b0319166001600160a01b039290921691909117905561015f80546affffff00000000000000001916600160401b62ffffff60028a900b16021790556101628054600163ffff000160a01b0319163361ffff60b01b191617607d60b11b1761ffff60a01b191690819055604080516000815261ffff600160b01b9093049290921660208301527f2ac80c14c28700f7b5e36f947d572149fe2e3947bac32c3a8c098f3e03722c11910160405180910390a15050508015610d7d576000805461ff0019169055604051600181527f7f26b83ff96e1f2b6a682f133852f6798a09c465da95921460cefb38474024989060200160405180910390a150505050565b61124c612ec1565b61125461348a565b565b6000806112616134dd565b611269613537565b82611287576040516302075cc160e41b815260040160405180910390fd5b600061129260fd5490565b33600081815260fb60205260409020549192506112af908661357e565b61015f54600160301b900460ff16156114ea5761015f54600090600160581b90046001600160a01b031663514ea4bf6112e661265c565b6040518263ffffffff1660e01b815260040161130491815260200190565b60a06040518083038186803b15801561131c57600080fd5b505afa158015611330573d6000803e3d6000fd5b505050506040513d601f19601f8201168201806040525081019061135491906156ba565b505050509050600061137087836001600160801b0316866136b2565b9050600061137d82613761565b905060008060008061138e856137ce565b93509350935093506113a08282613b70565b6113aa8282613be1565b60408051838152602081018390529294509092507fc28ad1de9c0c32e5394ba60323e44d8d9536312236a47231772e448a3e49de42910160405180910390a161016354610160546040516370a0823160e01b815230600482015261148c929187916001600160a01b03909116906370a08231906024015b60206040518083038186803b15801561143957600080fd5b505afa15801561144d573d6000803e3d6000fd5b505050506040513d601f19601f8201168201806040525081019061147191906154eb565b61147b9190615abd565b6114859190615abd565b8d8b6136b2565b6114969085615a4a565b61016454610161546040516370a0823160e01b8152306004820152929d506114d29286916001600160a01b0316906370a0823190602401611421565b6114dc9084615a4a565b995050505050505050611516565b6000806114f5610b55565b915091506115048288866136b2565b95506115118188866136b2565b945050505b6115208484613c4c565b60008061152d8686613c68565b9092509050851561159c57826115438882615abd565b33600090815261016560205260409020600101546115619190615a76565b61156b9190615a62565b33600081815261016560205260409020600101919091556101605461159c916001600160a01b039091169084612f26565b841561160657826115ad8882615abd565b33600090815261016560205260409020600201546115cb9190615a76565b6115d59190615a62565b336000818152610165602052604090206002019190915561016154611606916001600160a01b039091169083612f26565b604080518881526020810184905290810182905233907f4c60206a5c1de41f3376d1d60f0949d96cb682033c90b1c2d9d9a62d4c4120c09060600160405180910390a2505050506116576001606555565b915091565b306001600160a01b037f00000000000000000000000000000000000000000000000000000000000000001614156116a55760405162461bcd60e51b8152600401610df29061590e565b7f00000000000000000000000000000000000000000000000000000000000000006001600160a01b03166116ee600080516020615c4c833981519152546001600160a01b031690565b6001600160a01b0316146117145760405162461bcd60e51b8152600401610df29061595a565b61171d826131ad565b611729828260016131d9565b5050565b611735612ec1565b60fd5415158061174f575061015f54600160301b900460ff165b1561176d57604051632a2c70bb60e11b815260040160405180910390fd5b6117778282613c91565b61015f54600160381b900460ff166117295761015f805467ff000000000000001916600160381b1790556040517f452a344f03203071e1daf66e007976c85cb2380deabf1c91f3c4fb1fca41204990600090a15050565b6000306001600160a01b037f0000000000000000000000000000000000000000000000000000000000000000161461186e5760405162461bcd60e51b815260206004820152603860248201527f555550535570677261646561626c653a206d757374206e6f742062652063616c60448201527f6c6564207468726f7567682064656c656761746563616c6c00000000000000006064820152608401610df2565b50600080516020615c4c83398151915290565b611889612ec1565b61015f54600090600160581b90046001600160a01b031663514ea4bf6118ad61265c565b6040518263ffffffff1660e01b81526004016118cb91815260200190565b60a06040518083038186803b1580156118e357600080fd5b505afa1580156118f7573d6000803e3d6000fd5b505050506040513d601f19601f8201168201806040525081019061191b91906156ba565b5050505090506000816001600160801b03161115611a155761015f54600281810b9163010000009004900b6000808080611954876137ce565b604080516001600160801b038d16815260028c810b60208301528b900b818301526060810186905260808101859052905194985092965090945092507f6d7e1841bf97c0b736eafb2779459ba1e0af2305cead28a8e97533589ceb2f65919081900360a00190a16119c58282613b70565b6119cf8282613be1565b60408051838152602081018390529294509092507fc28ad1de9c0c32e5394ba60323e44d8d9536312236a47231772e448a3e49de42910160405180910390a15050505050505b61015f805462ffffff63010000008204600290810b900b1666ff000000ffffff19909116179055604051600081527fd9279952b347fd14af9b788aff1029c0d3b1299b7dcce164fc602a1b958c48809060200160405180910390a150565b611a7b612ec1565b6112546000613438565b600080600061015f600b9054906101000a90046001600160a01b03166001600160a01b0316633850c7bd6040518163ffffffff1660e01b815260040160e06040518083038186803b158015611ad957600080fd5b505afa158015611aed573d6000803e3d6000fd5b505050506040513d601f19601f82011682018060405250810190611b119190615710565b5050505050915050600080600080600061015f600b9054906101000a90046001600160a01b03166001600160a01b031663514ea4bf611b4e61265c565b6040518263ffffffff1660e01b8152600401611b6c91815260200190565b60a06040518083038186803b158015611b8457600080fd5b505afa158015611b98573d6000803e3d6000fd5b505050506040513d601f19601f82011682018060405250810190611bbc91906156ba565b94509450945094509450816001600160801b0316611bdd6001868989613d51565b611be79190615a4a565b9750806001600160801b0316611c006000858989613d51565b611c0a9190615a4a565b9650611c168888613be1565b90999098509650505050505050565b611c2d612ec1565b611254614153565b611c3d612ec1565b61016380546101648054600093849055929055908115611c8057611c80611c6c60c9546001600160a01b031690565b610160546001600160a01b03169084612f26565b801561172957611729611c9b60c9546001600160a01b031690565b610161546001600160a01b03169083612f26565b606060ff8054610aba90615b00565b600080600061015f60079054906101000a900460ff16611cf157604051630314872760e11b815260040160405180910390fd5b6000611cfc60fd5490565b90508015611d1b57611d0f818787614191565b91955093509150611e42565b600061015f600b9054906101000a90046001600160a01b03166001600160a01b0316633850c7bd6040518163ffffffff1660e01b815260040160e06040518083038186803b158015611d6c57600080fd5b505afa158015611d80573d6000803e3d6000fd5b505050506040513d601f19601f82011682018060405250810190611da49190615710565b50505050505090506000611df082611dce61015f60009054906101000a900460020b60020b614294565b61015f54611de99063010000009004600290810b900b614294565b8b8b6146b1565b61015f546001600160801b0382169550909150611e3a908390611e1990600290810b900b614294565b61015f54611e349063010000009004600290810b900b614294565b84614775565b909650945050505b509250925092565b61015f54600160581b90046001600160a01b03163314611e7c57604051620b7d9960e41b815260040160405180910390fd5b8315611e9a5761016054611e9a906001600160a01b03163386612f26565b8215610d7d5761016154610d7d906001600160a01b03163385612f26565b600080611ec36134dd565b611ecb613537565b61015f54600160381b900460ff16611ef657604051630314872760e11b815260040160405180910390fd5b82611f145760405163199f5a0360e31b815260040160405180910390fd5b6000611f1f60fd5490565b61015f5460408051633850c7bd60e01b81529051929350600160301b820460ff1692600092600160581b90046001600160a01b031691633850c7bd9160048083019260e0929190829003018186803b158015611f7a57600080fd5b505afa158015611f8e573d6000803e3d6000fd5b505050506040513d601f19601f82011682018060405250810190611fb29190615710565b50505050505090506000831115611ff357600080611fce610b55565b91509150611fdd828987614811565b9650611fea818987614811565b9550505061205f565b81156120465761015f5461203c90829061201390600290810b900b614294565b61015f5461202e9063010000009004600290810b900b614294565b6120378a613761565b614775565b909550935061205f565b60405163344fa43b60e01b815260040160405180910390fd5b336000908152610165602052604090205460ff166120d65733600081815261016560205260408120805460ff19166001908117909155610166805491820181559091527fa5a4c57b7184ec73d55be4993773cb4eef681bc86a28d0285cd66efb50676a970180546001600160a01b03191690911790555b841561211d573360009081526101656020526040812060010180548792906120ff908490615a4a565b90915550506101605461211d906001600160a01b031633308861485f565b831561216457336000908152610165602052604081206002018054869290612146908490615a4a565b909155505061016154612164906001600160a01b031633308761485f565b61216e3387614897565b81156122545761015f546000906121b390839061219190600290810b900b614294565b61015f546121ac9063010000009004600290810b900b614294565b89896146b1565b61015f54604051633c8a7d8d60e01b81529192506001600160a01b03600160581b82041691633c8a7d8d916121ff913091600281810b926301000000909204900b908790600401615829565b6040805180830381600087803b15801561221857600080fd5b505af115801561222c573d6000803e3d6000fd5b505050506040513d601f19601f820116820180604052508101906122509190615575565b5050505b604080518781526020810187905290810185905233907f5a3358a3d27a5373c0df2604662088d37894d56b7cfd27f315770440f4e0d9199060600160405180910390a25050506116576001606555565b600033816122b28286612631565b9050838110156123125760405162461bcd60e51b815260206004820152602560248201527f45524332303a2064656372656173656420616c6c6f77616e63652062656c6f77604482015264207a65726f60d81b6064820152608401610df2565b61231f8286868403612af2565b506001949350505050565b600033610b4b818585613002565b600080600061015f600b9054906101000a90046001600160a01b03166001600160a01b0316633850c7bd6040518163ffffffff1660e01b815260040160e06040518083038186803b15801561238c57600080fd5b505afa1580156123a0573d6000803e3d6000fd5b505050506040513d601f19601f820116820180604052508101906123c49190615710565b50505050509150506123d68482612c16565b9250925050915091565b6060821580156123ee575081155b156123fa576101665491505b60006124068484615abd565b67ffffffffffffffff81111561242c57634e487b7160e01b600052604160045260246000fd5b60405190808252806020026020018201604052801561248a57816020015b612477604051806060016040528060006001600160a01b0316815260200160008152602001600081525090565b81526020019060019003908161244a5790505b5090506000845b848110156125b4576000610165600061016684815481106124c257634e487b7160e01b600052603260045260246000fd5b60009182526020808320909101546001600160a01b031683528281019390935260409182019020815160608082018452825460ff1615158252600183015494820194909452600290910154818301528151928301909152610166805491935082918590811061254157634e487b7160e01b600052603260045260246000fd5b600091825260209182902001546001600160a01b031682528381015190820152604080840151910152848461257581615b3b565b95508151811061259557634e487b7160e01b600052603260045260246000fd5b60200260200101819052505080806125ac90615b3b565b915050612491565b5090949350505050565b6125c6612ec1565b6000806125d360006137ce565b9350935050506125e38282613b70565b6125ed8282613be1565b60408051838152602081018390529294509092507fc28ad1de9c0c32e5394ba60323e44d8d9536312236a47231772e448a3e49de4291015b60405180910390a15050565b6001600160a01b03918216600090815260fc6020908152604080832093909416825291909152205490565b61015f546040516bffffffffffffffffffffffff193060601b166020820152600282810b810b60e890811b60348401526301000000909304810b900b90911b6037820152600090603a0160405160208183030381529060405280519060200120905090565b6126c9612ec1565b6001600160a01b0381166127305760405162461bcd60e51b815260206004820152602860248201527f4f776e61626c653a206e6577206d616e6167657220697320746865207a65726f604482015267206164647265737360c01b6064820152608401610df2565b610e8f81613438565b612741612ec1565b606461ffff83161115612767576040516313f90f0b60e31b815260040160405180910390fd5b6103e861ffff8216111561278e57604051630f14508d60e41b815260040160405180910390fd5b610162805463ffffffff60a01b1916600160a01b61ffff85811691820261ffff60b01b191692909217600160b01b928516928302179092556040805192835260208301919091527f2ac80c14c28700f7b5e36f947d572149fe2e3947bac32c3a8c098f3e03722c119101612625565b600080612808612ec1565b6128128686614958565b600061015f600b9054906101000a90046001600160a01b03166001600160a01b0316633850c7bd6040518163ffffffff1660e01b815260040160e06040518083038186803b15801561286357600080fd5b505afa158015612877573d6000803e3d6000fd5b505050506040513d601f19601f8201168201806040525081019061289b9190615710565b505050505050905060006128c1826128b58a60020b614294565b6121ac8a60020b614294565b90506001600160801b03811615612a895761015f54604051633c8a7d8d60e01b81526000918291600160581b9091046001600160a01b031690633c8a7d8d906129149030908e908e908990600401615829565b6040805180830381600087803b15801561292d57600080fd5b505af1158015612941573d6000803e3d6000fd5b505050506040513d601f19601f820116820180604052508101906129659190615575565b90925090506129748289615abd565b95506129808188615abd565b61015f5490955060028b810b91810b900b1415806129b1575061015f5460028a810b6301000000909204810b900b14155b15612a2b5761015f805460028b810b62ffffff90811663010000000265ffffffffffff19909316918e900b16171790556040517f8e3ac6cc9b82795b40740ca4e954df8f6655fe35e80cdc6fb33d50c3423fcd1690612a22908c908c90600292830b8152910b602082015260400190565b60405180910390a15b604080516001600160801b038516815260028c810b60208301528b900b81830152606081018490526080810183905290517ffa715a0b1bc7287b5d3581c11478041b0455aad0c17361fc1e55fffbdd4b6c4f9181900360a00190a150505b61015f54600160301b900460ff16612ae75761015f805466ff0000000000001916600160301b179055604051600181527fd9279952b347fd14af9b788aff1029c0d3b1299b7dcce164fc602a1b958c48809060200160405180910390a15b505094509492505050565b6001600160a01b038316612b545760405162461bcd60e51b8152602060048201526024808201527f45524332303a20617070726f76652066726f6d20746865207a65726f206164646044820152637265737360e01b6064820152608401610df2565b6001600160a01b038216612bb55760405162461bcd60e51b815260206004820152602260248201527f45524332303a20617070726f766520746f20746865207a65726f206164647265604482015261737360f01b6064820152608401610df2565b6001600160a01b03838116600081815260fc602090815260408083209487168084529482529182902085905590518481527f8c5be1e5ebec7d5bd14f71427d1e84f3dd0314c0f7b2291e5b200ac8c7c3b925910160405180910390a3505050565b600080600080600080600061015f600b9054906101000a90046001600160a01b03166001600160a01b031663514ea4bf612c4e61265c565b6040518263ffffffff1660e01b8152600401612c6c91815260200190565b60a06040518083038186803b158015612c8457600080fd5b505afa158015612c98573d6000803e3d6000fd5b505050506040513d601f19601f82011682018060405250810190612cbc91906156ba565b94509450945094509450600080866001600160801b0316600014612d705761015f54612d15908c90612cf490600290810b900b614294565b61015f54612d0f9063010000009004600290810b900b614294565b8a614775565b90995097506001600160801b038416612d316001888d8b613d51565b612d3b9190615a4a565b9150826001600160801b0316612d546000878d8b613d51565b612d5e9190615a4a565b9050612d6a8282613be1565b90925090505b61016354610160546040516370a0823160e01b81523060048201526001600160a01b03909116906370a082319060240160206040518083038186803b158015612db857600080fd5b505afa158015612dcc573d6000803e3d6000fd5b505050506040513d601f19601f82011682018060405250810190612df091906154eb565b612dfa9084615a4a565b612e049190615abd565b612e0e908a615a4a565b61016454610161546040516370a0823160e01b8152306004820152929b5090916001600160a01b03909116906370a082319060240160206040518083038186803b158015612e5b57600080fd5b505afa158015612e6f573d6000803e3d6000fd5b505050506040513d601f19601f82011682018060405250810190612e9391906154eb565b612e9d9083615a4a565b612ea79190615abd565b612eb19089615a4a565b9750505050505050509250929050565b60c9546001600160a01b031633146112545760405162461bcd60e51b815260206004820152602260248201527f4f776e61626c653a2063616c6c6572206973206e6f7420746865206d616e616760448201526132b960f11b6064820152608401610df2565b6040516001600160a01b038316602482015260448101829052612f8990849063a9059cbb60e01b906064015b60408051601f198184030181529190526020810180516001600160e01b03166001600160e01b031990931692909217909152614a0d565b505050565b6000612f9a8484612631565b90506000198114610d7d5781811015612ff55760405162461bcd60e51b815260206004820152601d60248201527f45524332303a20696e73756666696369656e7420616c6c6f77616e63650000006044820152606401610df2565b610d7d8484848403612af2565b6001600160a01b0383166130665760405162461bcd60e51b815260206004820152602560248201527f45524332303a207472616e736665722066726f6d20746865207a65726f206164604482015264647265737360d81b6064820152608401610df2565b6001600160a01b0382166130c85760405162461bcd60e51b815260206004820152602360248201527f45524332303a207472616e7366657220746f20746865207a65726f206164647260448201526265737360e81b6064820152608401610df2565b6001600160a01b038316600090815260fb6020526040902054818110156131405760405162461bcd60e51b815260206004820152602660248201527f45524332303a207472616e7366657220616d6f756e7420657863656564732062604482015265616c616e636560d01b6064820152608401610df2565b6001600160a01b03808516600081815260fb602052604080822086860390559286168082529083902080548601905591517fddf252ad1be2c89b69c2b068fc378daa952ba7f163c4a11628f55a4df523b3ef906131a09086815260200190565b60405180910390a3610d7d565b610162546001600160a01b03163314610e8f57604051631b1319e560e01b815260040160405180910390fd5b7f4910fdfa16fed3260ed0e7147f7cc6da11a60208b5b9406d12a635614ffd91435460ff161561320c57612f8983614adf565b826001600160a01b03166352d1902d6040518163ffffffff1660e01b815260040160206040518083038186803b15801561324557600080fd5b505afa925050508015613275575060408051601f3d908101601f19168201909252613272918101906154eb565b60015b6132d85760405162461bcd60e51b815260206004820152602e60248201527f45524331393637557067726164653a206e657720696d706c656d656e7461746960448201526d6f6e206973206e6f74205555505360901b6064820152608401610df2565b600080516020615c4c83398151915281146133475760405162461bcd60e51b815260206004820152602960248201527f45524331393637557067726164653a20756e737570706f727465642070726f786044820152681a58589b195555525160ba1b6064820152608401610df2565b50612f89838383614b7b565b600054610100900460ff166112545760405162461bcd60e51b8152600401610df2906159a6565b600054610100900460ff166133a15760405162461bcd60e51b8152600401610df2906159a6565b611254614ba0565b600054610100900460ff166133d05760405162461bcd60e51b8152600401610df2906159a6565b611254614bc7565b600054610100900460ff166133ff5760405162461bcd60e51b8152600401610df2906159a6565b6117298282614bf7565b600054610100900460ff166134305760405162461bcd60e51b8152600401610df2906159a6565b611254614c45565b60c980546001600160a01b038381166001600160a01b0319831681179093556040519116919082907f8be0079c531659141344cd1fd0a4f28419497f9722a3daafe3b4186f6b6457e090600090a35050565b613492614c79565b61012d805460ff191690557f5db9ee0a495bf2e6ff9c91a7834c1ba4fdd244a5e8aa4e537bd38aeae4b073aa335b6040516001600160a01b03909116815260200160405180910390a1565b600260655414156135305760405162461bcd60e51b815260206004820152601f60248201527f5265656e7472616e637947756172643a207265656e7472616e742063616c6c006044820152606401610df2565b6002606555565b61012d5460ff16156112545760405162461bcd60e51b815260206004820152601060248201526f14185d5cd8589b194e881c185d5cd95960821b6044820152606401610df2565b6001600160a01b0382166135de5760405162461bcd60e51b815260206004820152602160248201527f45524332303a206275726e2066726f6d20746865207a65726f206164647265736044820152607360f81b6064820152608401610df2565b6001600160a01b038216600090815260fb6020526040902054818110156136525760405162461bcd60e51b815260206004820152602260248201527f45524332303a206275726e20616d6f756e7420657863656564732062616c616e604482015261636560f01b6064820152608401610df2565b6001600160a01b038316600081815260fb60209081526040808320868603905560fd80548790039055518581529192917fddf252ad1be2c89b69c2b068fc378daa952ba7f163c4a11628f55a4df523b3ef910160405180910390a3505050565b6000808060001985870985870292508281108382030391505080600014156136ec57600084116136e157600080fd5b508290049050610da2565b8084116136f857600080fd5b60008486880960026001871981018816978890046003810283188082028403028082028403028082028403028082028403028082028403029081029092039091026000889003889004909101858311909403939093029303949094049190911702949350505050565b60006001600160801b038211156137ca5760405162461bcd60e51b815260206004820152602760248201527f53616665436173743a2076616c756520646f65736e27742066697420696e20316044820152663238206269747360c81b6064820152608401610df2565b5090565b61015f54610160546040516370a0823160e01b8152306004820152600092839283928392600281810b936301000000909204900b9184916001600160a01b0316906370a082319060240160206040518083038186803b15801561383057600080fd5b505afa158015613844573d6000803e3d6000fd5b505050506040513d601f19601f8201168201806040525081019061386891906154eb565b610161546040516370a0823160e01b81523060048201529192506000916001600160a01b03909116906370a082319060240160206040518083038186803b1580156138b257600080fd5b505afa1580156138c6573d6000803e3d6000fd5b505050506040513d601f19601f820116820180604052508101906138ea91906154eb565b61015f5460405163a34123a760e01b8152600287810b600483015286900b60248201526001600160801b038c166044820152919250600160581b90046001600160a01b03169063a34123a7906064016040805180830381600087803b15801561395257600080fd5b505af1158015613966573d6000803e3d6000fd5b505050506040513d601f19601f8201168201806040525081019061398a9190615575565b61015f546040516309e3d67b60e31b8152306004820152600288810b602483015287900b60448201526001600160801b03606482018190526084820152929a50909850600160581b90046001600160a01b031690634f1eb3d89060a4016040805180830381600087803b158015613a0057600080fd5b505af1158015613a14573d6000803e3d6000fd5b505050506040513d601f19601f82011682018060405250810190613a389190615688565b5050610160546040516370a0823160e01b8152306004820152899184916001600160a01b03909116906370a082319060240160206040518083038186803b158015613a8257600080fd5b505afa158015613a96573d6000803e3d6000fd5b505050506040513d601f19601f82011682018060405250810190613aba91906154eb565b613ac49190615abd565b613ace9190615abd565b610161546040516370a0823160e01b8152306004820152919750889183916001600160a01b0316906370a082319060240160206040518083038186803b158015613b1757600080fd5b505afa158015613b2b573d6000803e3d6000fd5b505050506040513d601f19601f82011682018060405250810190613b4f91906154eb565b613b599190615abd565b613b639190615abd565b9450505050509193509193565b61016254600160b01b900461ffff16612710613b8c8285615a76565b613b969190615a62565b6101636000828254613ba89190615a4a565b909155506127109050613bbb8284615a76565b613bc59190615a62565b6101646000828254613bd79190615a4a565b9091555050505050565b610162546000908190600160b01b900461ffff1681612710613c038388615a76565b613c0d9190615a62565b90506000612710613c1e8488615a76565b613c289190615a62565b9050613c348288615abd565b9450613c408187615abd565b93505050509250929050565b61016254600160a01b900461ffff16612710613b8c8285615a76565b610162546000908190600160a01b900461ffff1681612710613c038388615a76565b6001606555565b613c9b8282614958565b61015f805466ff00000000000019600284810b62ffffff90811663010000000265ffffffffffff199094169187900b16179190911716600160301b1790556040517fd9279952b347fd14af9b788aff1029c0d3b1299b7dcce164fc602a1b958c488090613d0e9060011515815260200190565b60405180910390a160408051600284810b825283900b60208201527f8e3ac6cc9b82795b40740ca4e954df8f6655fe35e80cdc6fb33d50c3423fcd169101612625565b6000806000808715613f1c5761015f600b9054906101000a90046001600160a01b03166001600160a01b031663f30583996040518163ffffffff1660e01b815260040160206040518083038186803b158015613dac57600080fd5b505afa158015613dc0573d6000803e3d6000fd5b505050506040513d601f19601f82011682018060405250810190613de491906154eb565b61015f5460405163f30dba9360e01b8152600282810b900b6004820152919250600160581b90046001600160a01b03169063f30dba93906024016101006040518083038186803b158015613e3757600080fd5b505afa158015613e4b573d6000803e3d6000fd5b505050506040513d601f19601f82011682018060405250810190613e6f91906155e9565b505061015f5460405163f30dba9360e01b81529499506001600160a01b03600160581b820416965063f30dba939550613ebb94630100000090910460020b935060040191506158cd9050565b6101006040518083038186803b158015613ed457600080fd5b505afa158015613ee8573d6000803e3d6000fd5b505050506040513d601f19601f82011682018060405250810190613f0c91906155e9565b509397506140d595505050505050565b61015f600b9054906101000a90046001600160a01b03166001600160a01b031663461413196040518163ffffffff1660e01b815260040160206040518083038186803b158015613f6b57600080fd5b505afa158015613f7f573d6000803e3d6000fd5b505050506040513d601f19601f82011682018060405250810190613fa391906154eb565b61015f5460405163f30dba9360e01b8152600282810b900b6004820152919250600160581b90046001600160a01b03169063f30dba93906024016101006040518083038186803b158015613ff657600080fd5b505afa15801561400a573d6000803e3d6000fd5b505050506040513d601f19601f8201168201806040525081019061402e91906155e9565b505061015f5460405163f30dba9360e01b81529399506001600160a01b03600160581b820416965063f30dba93955061407994506301000000900460020b9260040191506158cd9050565b6101006040518083038186803b15801561409257600080fd5b505afa1580156140a6573d6000803e3d6000fd5b505050506040513d601f19601f820116820180604052508101906140ca91906155e9565b509297505050505050505b61015f54600090600290810b810b9088900b126140f35750826140f8565b508281035b600061015f60039054906101000a900460020b60020b8860020b121561411f575082614124565b508282035b8183038190036141446001600160801b0389168b8303600160801b6136b2565b9b9a5050505050505050505050565b61415b613537565b61012d805460ff191660011790557f62e78cea01bee320cd4e420270b5ea74000d11b0c9f74754ebdbfc544b05a2586134c03390565b60008060008060006141a1610b55565b915091508160001480156141b55750600081115b156141cc576141c58689836136b2565b925061426f565b801580156141da5750600082115b156141ea576141c58789846136b2565b811580156141f6575080155b156142145760405163f912977760e01b815260040160405180910390fd5b6000614221888a856136b2565b90506000614230888b856136b2565b905081158061423d575080155b1561425b57604051630856e64360e21b815260040160405180910390fd5b808210614268578061426a565b815b945050505b61427a83838a614811565b945061428783828a614811565b9350505093509350939050565b60008060008360020b126142ab578260020b6142b8565b8260020b6142b890615bad565b90506142c7620d89e719615b8c565b60020b8111156142fd5760405162461bcd60e51b81526020600482015260016024820152601560fa1b6044820152606401610df2565b60006001821661431157600160801b614323565b6ffffcb933bd6fad37aa2d162d1a5940015b70ffffffffffffffffffffffffffffffffff169050600282161561436257608061435d826ffff97272373d413259a46990580e213a615a76565b901c90505b600482161561438c576080614387826ffff2e50f5f656932ef12357cf3c7fdcc615a76565b901c90505b60088216156143b65760806143b1826fffe5caca7e10e4e61c3624eaa0941cd0615a76565b901c90505b60108216156143e05760806143db826fffcb9843d60f6159c9db58835c926644615a76565b901c90505b602082161561440a576080614405826fff973b41fa98c081472e6896dfb254c0615a76565b901c90505b604082161561443457608061442f826fff2ea16466c96a3843ec78b326b52861615a76565b901c90505b608082161561445e576080614459826ffe5dee046a99a2a811c461f1969c3053615a76565b901c90505b610100821615614489576080614484826ffcbe86c7900a88aedcffc83b479aa3a4615a76565b901c90505b6102008216156144b45760806144af826ff987a7253ac413176f2b074cf7815e54615a76565b901c90505b6104008216156144df5760806144da826ff3392b0822b70005940c7a398e4b70f3615a76565b901c90505b61080082161561450a576080614505826fe7159475a2c29b7443b29c7fa6e889d9615a76565b901c90505b611000821615614535576080614530826fd097f3bdfd2022b8845ad8f792aa5825615a76565b901c90505b61200082161561456057608061455b826fa9f746462d870fdf8a65dc1f90e061e5615a76565b901c90505b61400082161561458b576080614586826f70d869a156d2a1b890bb3df62baf32f7615a76565b901c90505b6180008216156145b65760806145b1826f31be135f97d08fd981231505542fcfa6615a76565b901c90505b620100008216156145e25760806145dd826f09aa508b5b7a84e1c677de54f3e99bc9615a76565b901c90505b6202000082161561460d576080614608826e5d6af8dedb81196699c329225ee604615a76565b901c90505b62040000821615614637576080614632826d2216e584f5fa1ea926041bedfe98615a76565b901c90505b6208000082161561465f57608061465a826b048a170391f7dc42444e8fa2615a76565b901c90505b60008460020b131561467a5761467781600019615a62565b90505b61468964010000000082615b78565b15614695576001614698565b60005b6146a99060ff16602083901c615a4a565b949350505050565b6000836001600160a01b0316856001600160a01b031611156146d1579293925b846001600160a01b0316866001600160a01b0316116146fc576146f5858585614cc3565b905061476c565b836001600160a01b0316866001600160a01b0316101561475e576000614723878686614cc3565b90506000614732878986614d2d565b9050806001600160801b0316826001600160801b0316106147535780614755565b815b9250505061476c565b614769858584614d2d565b90505b95945050505050565b600080836001600160a01b0316856001600160a01b03161115614796579293925b846001600160a01b0316866001600160a01b0316116147c1576147ba858585614d63565b9150614808565b836001600160a01b0316866001600160a01b031610156147fa576147e6868585614d63565b91506147f3858785614dd6565b9050614808565b614805858585614dd6565b90505b94509492505050565b600061481e8484846136b2565b90506000828061483e57634e487b7160e01b600052601260045260246000fd5b8486091115610da257600019811061485557600080fd5b8061476c81615b3b565b6040516001600160a01b0380851660248301528316604482015260648101829052610d7d9085906323b872dd60e01b90608401612f52565b6001600160a01b0382166148ed5760405162461bcd60e51b815260206004820152601f60248201527f45524332303a206d696e7420746f20746865207a65726f2061646472657373006044820152606401610df2565b8060fd60008282546148ff9190615a4a565b90915550506001600160a01b038216600081815260fb60209081526040808320805486019055518481527fddf252ad1be2c89b69c2b068fc378daa952ba7f163c4a11628f55a4df523b3ef910160405180910390a35050565b620d89e719600283900b128061497f5750614976620d89e719615b8c565b60020b8160020b135b1561499d5760405163137b639d60e21b815260040160405180910390fd5b8060020b8260020b1215806149cb575061015f546149c590600160401b900460020b83615b56565b60020b15155b806149ef575061015f546149e990600160401b900460020b82615b56565b60020b15155b1561172957604051633981390b60e11b815260040160405180910390fd5b6000614a62826040518060400160405280602081526020017f5361666545524332303a206c6f772d6c6576656c2063616c6c206661696c6564815250856001600160a01b0316614e209092919063ffffffff16565b805190915015612f895780806020019051810190614a80919061548e565b612f895760405162461bcd60e51b815260206004820152602a60248201527f5361666545524332303a204552433230206f7065726174696f6e20646964206e6044820152691bdd081cdd58d8d9595960b21b6064820152608401610df2565b6001600160a01b0381163b614b4c5760405162461bcd60e51b815260206004820152602d60248201527f455243313936373a206e657720696d706c656d656e746174696f6e206973206e60448201526c1bdd08184818dbdb9d1c9858dd609a1b6064820152608401610df2565b600080516020615c4c83398151915280546001600160a01b0319166001600160a01b0392909216919091179055565b614b8483614e2f565b600082511180614b915750805b15612f8957610d7d8383614e6f565b600054610100900460ff16613c8a5760405162461bcd60e51b8152600401610df2906159a6565b600054610100900460ff16614bee5760405162461bcd60e51b8152600401610df2906159a6565b61125433613438565b600054610100900460ff16614c1e5760405162461bcd60e51b8152600401610df2906159a6565b8151614c319060fe906020850190615105565b508051612f899060ff906020840190615105565b600054610100900460ff16614c6c5760405162461bcd60e51b8152600401610df2906159a6565b61012d805460ff19169055565b61012d5460ff166112545760405162461bcd60e51b815260206004820152601460248201527314185d5cd8589b194e881b9bdd081c185d5cd95960621b6044820152606401610df2565b6000826001600160a01b0316846001600160a01b03161115614ce3579192915b6000614d06856001600160a01b0316856001600160a01b0316600160601b6136b2565b905061476c614d288483614d1a8989615a95565b6001600160a01b03166136b2565b614f5a565b6000826001600160a01b0316846001600160a01b03161115614d4d579192915b6146a9614d2883600160601b614d1a8888615a95565b6000826001600160a01b0316846001600160a01b03161115614d83579192915b6001600160a01b038416614dcc6fffffffffffffffffffffffffffffffff60601b606085901b16614db48787615a95565b6001600160a01b0316866001600160a01b03166136b2565b6146a99190615a62565b6000826001600160a01b0316846001600160a01b03161115614df6579192915b6146a96001600160801b038316614e0d8686615a95565b6001600160a01b0316600160601b6136b2565b60606146a98484600085614f75565b614e3881614adf565b6040516001600160a01b038216907fbc7cd75a20ee27fd9adebab32041f755214dbc6bffa90cc0225b39da2e5c2d3b90600090a250565b60606001600160a01b0383163b614ed75760405162461bcd60e51b815260206004820152602660248201527f416464726573733a2064656c65676174652063616c6c20746f206e6f6e2d636f6044820152651b9d1c9858dd60d21b6064820152608401610df2565b600080846001600160a01b031684604051614ef2919061580d565b600060405180830381855af49150503d8060008114614f2d576040519150601f19603f3d011682016040523d82523d6000602084013e614f32565b606091505b509150915061476c8282604051806060016040528060278152602001615c6c60279139615050565b806001600160801b0381168114614f7057600080fd5b919050565b606082471015614fd65760405162461bcd60e51b815260206004820152602660248201527f416464726573733a20696e73756666696369656e742062616c616e636520666f6044820152651c8818d85b1b60d21b6064820152608401610df2565b600080866001600160a01b03168587604051614ff2919061580d565b60006040518083038185875af1925050503d806000811461502f576040519150601f19603f3d011682016040523d82523d6000602084013e615034565b606091505b509150915061504587838387615069565b979650505050505050565b6060831561505f575081610da2565b610da283836150db565b606083156150d55782516150ce576001600160a01b0385163b6150ce5760405162461bcd60e51b815260206004820152601d60248201527f416464726573733a2063616c6c20746f206e6f6e2d636f6e74726163740000006044820152606401610df2565b50816146a9565b6146a983835b8151156150eb5781518083602001fd5b8060405162461bcd60e51b8152600401610df291906158db565b82805461511190615b00565b90600052602060002090601f0160209004810192826151335760008555615179565b82601f1061514c57805160ff1916838001178555615179565b82800160010185558215615179579182015b8281111561517957825182559160200191906001019061515e565b506137ca9291505b808211156137ca5760008155600101615181565b60008083601f8401126151a6578182fd5b50813567ffffffffffffffff8111156151bd578182fd5b6020830191508360208285010111156151d557600080fd5b9250929050565b600082601f8301126151ec578081fd5b81356151ff6151fa82615a22565b6159f1565b818152846020838601011115615213578283fd5b816020850160208301379081016020019190915292915050565b600082601f83011261523d578081fd5b815161524b6151fa82615a22565b81815284602083860101111561525f578283fd5b6146a9826020830160208701615ad4565b80516001600160801b0381168114614f7057600080fd5b805163ffffffff81168114614f7057600080fd5b6000602082840312156152ac578081fd5b8135610da281615c09565b6000602082840312156152c8578081fd5b8151610da281615c09565b6000806000606084860312156152e7578182fd5b83516152f281615c09565b602085015190935067ffffffffffffffff8082111561530f578384fd5b61531b8783880161522d565b93506040860151915080821115615330578283fd5b5061533d8682870161522d565b9150509250925092565b60008060408385031215615359578182fd5b823561536481615c09565b9150602083013561537481615c09565b809150509250929050565b600080600060608486031215615393578283fd5b833561539e81615c09565b925060208401356153ae81615c09565b929592945050506040919091013590565b600080604083850312156153d1578182fd5b82356153dc81615c09565b9150602083013567ffffffffffffffff8111156153f7578182fd5b615403858286016151dc565b9150509250929050565b600080600060608486031215615421578081fd5b833561542c81615c09565b9250602084013561543c81615c2c565b9150604084013567ffffffffffffffff811115615457578182fd5b61533d868287016151dc565b60008060408385031215615475578182fd5b823561548081615c09565b946020939093013593505050565b60006020828403121561549f578081fd5b8151610da281615c1e565b6000806000606084860312156154be578081fd5b83356154c981615c1e565b92506020840135915060408401356154e081615c09565b809150509250925092565b6000602082840312156154fc578081fd5b5051919050565b60008060408385031215615515578182fd5b823561552081615c2c565b9150602083013561537481615c2c565b60008060008060808587031215615545578182fd5b843561555081615c2c565b9350602085013561556081615c2c565b93969395505050506040820135916060013590565b60008060408385031215615587578182fd5b505080516020909101519092909150565b600080600080606085870312156155ad578182fd5b8435935060208501359250604085013567ffffffffffffffff8111156155d1578283fd5b6155dd87828801615195565b95989497509550505050565b600080600080600080600080610100898b031215615605578586fd5b61560e89615270565b9750602089015180600f0b8114615623578687fd5b80975050604089015195506060890151945060808901518060060b8114615648578485fd5b60a08a015190945061565981615c09565b925061566760c08a01615287565b915060e089015161567781615c1e565b809150509295985092959890939650565b6000806040838503121561569a578182fd5b6156a383615270565b91506156b160208401615270565b90509250929050565b600080600080600060a086880312156156d1578283fd5b6156da86615270565b945060208601519350604086015192506156f660608701615270565b915061570460808701615270565b90509295509295909350565b600080600080600080600060e0888a03121561572a578081fd5b875161573581615c09565b602089015190975061574681615c2c565b604089015190965061575781615c3b565b606089015190955061576881615c3b565b608089015190945061577981615c3b565b925061578760a08901615287565b915060c088015161579781615c1e565b8091505092959891949750929550565b600080604083850312156157b9578182fd5b82356157c481615c3b565b9150602083013561537481615c3b565b6000602082840312156157e5578081fd5b5035919050565b600080604083850312156157fe578182fd5b50508035926020909101359150565b6000825161581f818460208701615ad4565b9190910192915050565b6001600160a01b03949094168452600292830b6020850152910b60408301526001600160801b0316606082015260a06080820181905260009082015260c00190565b602080825282518282018190526000919060409081850190868401855b828110156158c057815180516001600160a01b0316855286810151878601528501518585015260609093019290850190600101615888565b5091979650505050505050565b60029190910b815260200190565b60208152600082518060208401526158fa816040850160208701615ad4565b601f01601f19169190910160400192915050565b6020808252602c908201527f46756e6374696f6e206d7573742062652063616c6c6564207468726f7567682060408201526b19195b1959d85d1958d85b1b60a21b606082015260800190565b6020808252602c908201527f46756e6374696f6e206d7573742062652063616c6c6564207468726f7567682060408201526b6163746976652070726f787960a01b606082015260800190565b6020808252602b908201527f496e697469616c697a61626c653a20636f6e7472616374206973206e6f74206960408201526a6e697469616c697a696e6760a81b606082015260800190565b604051601f8201601f1916810167ffffffffffffffff81118282101715615a1a57615a1a615bf3565b604052919050565b600067ffffffffffffffff821115615a3c57615a3c615bf3565b50601f01601f191660200190565b60008219821115615a5d57615a5d615bc7565b500190565b600082615a7157615a71615bdd565b500490565b6000816000190483118215151615615a9057615a90615bc7565b500290565b60006001600160a01b0383811690831681811015615ab557615ab5615bc7565b039392505050565b600082821015615acf57615acf615bc7565b500390565b60005b83811015615aef578181015183820152602001615ad7565b83811115610d7d5750506000910152565b600181811c90821680615b1457607f821691505b60208210811415615b3557634e487b7160e01b600052602260045260246000fd5b50919050565b6000600019821415615b4f57615b4f615bc7565b5060010190565b60008260020b80615b6957615b69615bdd565b808360020b0791505092915050565b600082615b8757615b87615bdd565b500690565b60008160020b627fffff19811415615ba657615ba6615bc7565b9003919050565b6000600160ff1b821415615bc357615bc3615bc7565b0390565b634e487b7160e01b600052601160045260246000fd5b634e487b7160e01b600052601260045260246000fd5b634e487b7160e01b600052604160045260246000fd5b6001600160a01b0381168114610e8f57600080fd5b8015158114610e8f57600080fd5b8060020b8114610e8f57600080fd5b61ffff81168114610e8f57600080fdfe360894a13ba1a3210667c828492db98dca3e2076cc3735a920a3ca505d382bbc416464726573733a206c6f772d6c6576656c2064656c65676174652063616c6c206661696c6564a2646970667358221220117fd68b15f05e262b3785723a8c30c4aacefcf265489f68c72d290e0546ce7064736f6c63430008040033",
  "linkReferences": {},
  "deployedLinkReferences": {}
}