{
  "_format": "hh-sol-artifact-1",
  "contractName": "RangeProtocolVault",
  "sourceName": "contracts/RangeProtocolVault.sol",
  "abi": [
    {
      "inputs": [],
      "stateMutability": "nonpayable",
      "type": "constructor"
    },
    {
      "inputs": [],
      "name": "OnlyFactoryAllowed",
      "type": "error"
    },
    {
      "inputs": [],
      "name": "OnlyVaultAllowed",
      "type": "error"
    },
    {
      "inputs": [],
      "name": "PoolRepegFailed",
      "type": "error"
    },
    {
      "inputs": [],
      "name": "TokenZeroIsNotGHO",
      "type": "error"
    },
    {
      "inputs": [],
      "name": "ZeroManagerAddress",
      "type": "error"
    },
    {
      "anonymous": false,
      "inputs": [
        {
          "indexed": false,
          "internalType": "address",
          "name": "previousAdmin",
          "type": "address"
        },
        {
          "indexed": false,
          "internalType": "address",
          "name": "newAdmin",
          "type": "address"
        }
      ],
      "name": "AdminChanged",
      "type": "event"
    },
    {
      "anonymous": false,
      "inputs": [
        {
          "indexed": true,
          "internalType": "address",
          "name": "owner",
          "type": "address"
        },
        {
          "indexed": true,
          "internalType": "address",
          "name": "spender",
          "type": "address"
        },
        {
          "indexed": false,
          "internalType": "uint256",
          "name": "value",
          "type": "uint256"
        }
      ],
      "name": "Approval",
      "type": "event"
    },
    {
      "anonymous": false,
      "inputs": [
        {
          "indexed": true,
          "internalType": "address",
          "name": "beacon",
          "type": "address"
        }
      ],
      "name": "BeaconUpgraded",
      "type": "event"
    },
    {
      "anonymous": false,
      "inputs": [
        {
          "indexed": true,
          "internalType": "address",
          "name": "receiver",
          "type": "address"
        },
        {
          "indexed": false,
          "internalType": "uint256",
          "name": "burnAmount",
          "type": "uint256"
        },
        {
          "indexed": false,
          "internalType": "uint256",
          "name": "amount",
          "type": "uint256"
        }
      ],
      "name": "Burned",
      "type": "event"
    },
    {
      "anonymous": false,
      "inputs": [
        {
          "indexed": false,
          "internalType": "address",
          "name": "token",
          "type": "address"
        },
        {
          "indexed": false,
          "internalType": "uint256",
          "name": "amount",
          "type": "uint256"
        }
      ],
      "name": "CollateralSupplied",
      "type": "event"
    },
    {
      "anonymous": false,
      "inputs": [
        {
          "indexed": false,
          "internalType": "address",
          "name": "token",
          "type": "address"
        },
        {
          "indexed": false,
          "internalType": "uint256",
          "name": "amount",
          "type": "uint256"
        }
      ],
      "name": "CollateralWithdrawn",
      "type": "event"
    },
    {
      "anonymous": false,
      "inputs": [
        {
          "indexed": false,
          "internalType": "uint256",
          "name": "feesEarned0",
          "type": "uint256"
        },
        {
          "indexed": false,
          "internalType": "uint256",
          "name": "feesEarned1",
          "type": "uint256"
        }
      ],
      "name": "FeesEarned",
      "type": "event"
    },
    {
      "anonymous": false,
      "inputs": [
        {
          "indexed": false,
          "internalType": "uint16",
          "name": "managingFee",
          "type": "uint16"
        },
        {
          "indexed": false,
          "internalType": "uint16",
          "name": "performanceFee",
          "type": "uint16"
        }
      ],
      "name": "FeesUpdated",
      "type": "event"
    },
    {
      "anonymous": false,
      "inputs": [
        {
          "indexed": false,
          "internalType": "uint256",
          "name": "amount",
          "type": "uint256"
        }
      ],
      "name": "GHOBurned",
      "type": "event"
    },
    {
      "anonymous": false,
      "inputs": [
        {
          "indexed": false,
          "internalType": "uint256",
          "name": "amount",
          "type": "uint256"
        }
      ],
      "name": "GHOMinted",
      "type": "event"
    },
    {
      "anonymous": false,
      "inputs": [
        {
          "indexed": false,
          "internalType": "bool",
          "name": "inThePosition",
          "type": "bool"
        }
      ],
      "name": "InThePositionStatusSet",
      "type": "event"
    },
    {
      "anonymous": false,
      "inputs": [
        {
          "indexed": false,
          "internalType": "uint8",
          "name": "version",
          "type": "uint8"
        }
      ],
      "name": "Initialized",
      "type": "event"
    },
    {
      "anonymous": false,
      "inputs": [
        {
          "indexed": false,
          "internalType": "uint256",
          "name": "liquidityMinted",
          "type": "uint256"
        },
        {
          "indexed": false,
          "internalType": "int24",
          "name": "tickLower",
          "type": "int24"
        },
        {
          "indexed": false,
          "internalType": "int24",
          "name": "tickUpper",
          "type": "int24"
        },
        {
          "indexed": false,
          "internalType": "uint256",
          "name": "amount0In",
          "type": "uint256"
        },
        {
          "indexed": false,
          "internalType": "uint256",
          "name": "amount1In",
          "type": "uint256"
        }
      ],
      "name": "LiquidityAdded",
      "type": "event"
    },
    {
      "anonymous": false,
      "inputs": [
        {
          "indexed": false,
          "internalType": "uint256",
          "name": "liquidityRemoved",
          "type": "uint256"
        },
        {
          "indexed": false,
          "internalType": "int24",
          "name": "tickLower",
          "type": "int24"
        },
        {
          "indexed": false,
          "internalType": "int24",
          "name": "tickUpper",
          "type": "int24"
        },
        {
          "indexed": false,
          "internalType": "uint256",
          "name": "amount0Out",
          "type": "uint256"
        },
        {
          "indexed": false,
          "internalType": "uint256",
          "name": "amount1Out",
          "type": "uint256"
        }
      ],
      "name": "LiquidityRemoved",
      "type": "event"
    },
    {
      "anonymous": false,
      "inputs": [
        {
          "indexed": true,
          "internalType": "address",
          "name": "receiver",
          "type": "address"
        },
        {
          "indexed": false,
          "internalType": "uint256",
          "name": "shares",
          "type": "uint256"
        },
        {
          "indexed": false,
          "internalType": "uint256",
          "name": "amount",
          "type": "uint256"
        }
      ],
      "name": "Minted",
      "type": "event"
    },
    {
      "anonymous": false,
      "inputs": [
        {
          "indexed": false,
          "internalType": "uint256",
          "name": "collateralOracleHearbeat",
          "type": "uint256"
        },
        {
          "indexed": false,
          "internalType": "uint256",
          "name": "ghoOracleHeartbreat",
          "type": "uint256"
        }
      ],
      "name": "OraclesHeartbeatUpdated",
      "type": "event"
    },
    {
      "anonymous": false,
      "inputs": [
        {
          "indexed": true,
          "internalType": "address",
          "name": "previousManager",
          "type": "address"
        },
        {
          "indexed": true,
          "internalType": "address",
          "name": "newManager",
          "type": "address"
        }
      ],
      "name": "OwnershipTransferred",
      "type": "event"
    },
    {
      "anonymous": false,
      "inputs": [
        {
          "indexed": false,
          "internalType": "address",
          "name": "account",
          "type": "address"
        }
      ],
      "name": "Paused",
      "type": "event"
    },
    {
      "anonymous": false,
      "inputs": [],
      "name": "PoolRepegged",
      "type": "event"
    },
    {
      "anonymous": false,
      "inputs": [
        {
          "indexed": false,
          "internalType": "bool",
          "name": "zeroForOne",
          "type": "bool"
        },
        {
          "indexed": false,
          "internalType": "int256",
          "name": "amount0",
          "type": "int256"
        },
        {
          "indexed": false,
          "internalType": "int256",
          "name": "amount1",
          "type": "int256"
        }
      ],
      "name": "Swapped",
      "type": "event"
    },
    {
      "anonymous": false,
      "inputs": [
        {
          "indexed": false,
          "internalType": "int24",
          "name": "lowerTick",
          "type": "int24"
        },
        {
          "indexed": false,
          "internalType": "int24",
          "name": "upperTick",
          "type": "int24"
        }
      ],
      "name": "TicksSet",
      "type": "event"
    },
    {
      "anonymous": false,
      "inputs": [
        {
          "indexed": true,
          "internalType": "address",
          "name": "from",
          "type": "address"
        },
        {
          "indexed": true,
          "internalType": "address",
          "name": "to",
          "type": "address"
        },
        {
          "indexed": false,
          "internalType": "uint256",
          "name": "value",
          "type": "uint256"
        }
      ],
      "name": "Transfer",
      "type": "event"
    },
    {
      "anonymous": false,
      "inputs": [
        {
          "indexed": false,
          "internalType": "address",
          "name": "account",
          "type": "address"
        }
      ],
      "name": "Unpaused",
      "type": "event"
    },
    {
      "anonymous": false,
      "inputs": [
        {
          "indexed": true,
          "internalType": "address",
          "name": "implementation",
          "type": "address"
        }
      ],
      "name": "Upgraded",
      "type": "event"
    },
    {
      "inputs": [
        {
          "internalType": "int24",
          "name": "newLowerTick",
          "type": "int24"
        },
        {
          "internalType": "int24",
          "name": "newUpperTick",
          "type": "int24"
        },
        {
          "internalType": "uint256",
          "name": "amount0",
          "type": "uint256"
        },
        {
          "internalType": "uint256",
          "name": "amount1",
          "type": "uint256"
        },
        {
          "internalType": "uint256[2]",
          "name": "maxAmounts",
          "type": "uint256[2]"
        }
      ],
      "name": "addLiquidity",
      "outputs": [
        {
          "internalType": "uint256",
          "name": "remainingAmount0",
          "type": "uint256"
        },
        {
          "internalType": "uint256",
          "name": "remainingAmount1",
          "type": "uint256"
        }
      ],
      "stateMutability": "nonpayable",
      "type": "function"
    },
    {
      "inputs": [
        {
          "internalType": "address",
          "name": "owner",
          "type": "address"
        },
        {
          "internalType": "address",
          "name": "spender",
          "type": "address"
        }
      ],
      "name": "allowance",
      "outputs": [
        {
          "internalType": "uint256",
          "name": "",
          "type": "uint256"
        }
      ],
      "stateMutability": "view",
      "type": "function"
    },
    {
      "inputs": [
        {
          "internalType": "address",
          "name": "spender",
          "type": "address"
        },
        {
          "internalType": "uint256",
          "name": "amount",
          "type": "uint256"
        }
      ],
      "name": "approve",
      "outputs": [
        {
          "internalType": "bool",
          "name": "",
          "type": "bool"
        }
      ],
      "stateMutability": "nonpayable",
      "type": "function"
    },
    {
      "inputs": [
        {
          "internalType": "address",
          "name": "account",
          "type": "address"
        }
      ],
      "name": "balanceOf",
      "outputs": [
        {
          "internalType": "uint256",
          "name": "",
          "type": "uint256"
        }
      ],
      "stateMutability": "view",
      "type": "function"
    },
    {
      "inputs": [
        {
          "internalType": "uint256",
          "name": "burnAmount",
          "type": "uint256"
        },
        {
          "internalType": "uint256",
          "name": "minAmount",
          "type": "uint256"
        }
      ],
      "name": "burn",
      "outputs": [
        {
          "internalType": "uint256",
          "name": "amount",
          "type": "uint256"
        }
      ],
      "stateMutability": "nonpayable",
      "type": "function"
    },
    {
      "inputs": [
        {
          "internalType": "uint256",
          "name": "burnAmount",
          "type": "uint256"
        }
      ],
      "name": "burnGHO",
      "outputs": [],
      "stateMutability": "nonpayable",
      "type": "function"
    },
    {
      "inputs": [
        {
          "internalType": "address",
          "name": "from",
          "type": "address"
        },
        {
          "internalType": "uint256",
          "name": "shares",
          "type": "uint256"
        }
      ],
      "name": "burnShares",
      "outputs": [],
      "stateMutability": "nonpayable",
      "type": "function"
    },
    {
      "inputs": [],
      "name": "collateralToken",
      "outputs": [
        {
          "internalType": "address",
          "name": "",
          "type": "address"
        }
      ],
      "stateMutability": "view",
      "type": "function"
    },
    {
      "inputs": [],
      "name": "collectManager",
      "outputs": [],
      "stateMutability": "nonpayable",
      "type": "function"
    },
    {
      "inputs": [],
      "name": "decimals",
      "outputs": [
        {
          "internalType": "uint8",
          "name": "",
          "type": "uint8"
        }
      ],
      "stateMutability": "view",
      "type": "function"
    },
    {
      "inputs": [
        {
          "internalType": "address",
          "name": "spender",
          "type": "address"
        },
        {
          "internalType": "uint256",
          "name": "subtractedValue",
          "type": "uint256"
        }
      ],
      "name": "decreaseAllowance",
      "outputs": [
        {
          "internalType": "bool",
          "name": "",
          "type": "bool"
        }
      ],
      "stateMutability": "nonpayable",
      "type": "function"
    },
    {
      "inputs": [],
      "name": "factory",
      "outputs": [
        {
          "internalType": "address",
          "name": "",
          "type": "address"
        }
      ],
      "stateMutability": "view",
      "type": "function"
    },
    {
      "inputs": [],
      "name": "getAavePositionData",
      "outputs": [
        {
          "internalType": "uint256",
          "name": "totalCollateralBase",
          "type": "uint256"
        },
        {
          "internalType": "uint256",
          "name": "totalDebtBase",
          "type": "uint256"
        },
        {
          "internalType": "uint256",
          "name": "availableBorrowsBase",
          "type": "uint256"
        },
        {
          "internalType": "uint256",
          "name": "currentLiquidationThreshold",
          "type": "uint256"
        },
        {
          "internalType": "uint256",
          "name": "ltv",
          "type": "uint256"
        },
        {
          "internalType": "uint256",
          "name": "healthFactor",
          "type": "uint256"
        }
      ],
      "stateMutability": "view",
      "type": "function"
    },
    {
      "inputs": [],
      "name": "getBalanceInCollateralToken",
      "outputs": [
        {
          "internalType": "uint256",
          "name": "amount",
          "type": "uint256"
        }
      ],
      "stateMutability": "view",
      "type": "function"
    },
    {
      "inputs": [],
      "name": "getCurrentFees",
      "outputs": [
        {
          "internalType": "uint256",
          "name": "fee0",
          "type": "uint256"
        },
        {
          "internalType": "uint256",
          "name": "fee1",
          "type": "uint256"
        }
      ],
      "stateMutability": "view",
      "type": "function"
    },
    {
      "inputs": [],
      "name": "getPositionID",
      "outputs": [
        {
          "internalType": "bytes32",
          "name": "positionID",
          "type": "bytes32"
        }
      ],
      "stateMutability": "view",
      "type": "function"
    },
    {
      "inputs": [
        {
          "internalType": "uint256",
          "name": "shares",
          "type": "uint256"
        }
      ],
      "name": "getUnderlyingBalanceByShare",
      "outputs": [
        {
          "internalType": "uint256",
          "name": "amount",
          "type": "uint256"
        }
      ],
      "stateMutability": "view",
      "type": "function"
    },
    {
      "inputs": [],
      "name": "getUnderlyingBalancesFromAave",
      "outputs": [
        {
          "internalType": "uint256",
          "name": "",
          "type": "uint256"
        },
        {
          "internalType": "uint256",
          "name": "",
          "type": "uint256"
        }
      ],
      "stateMutability": "view",
      "type": "function"
    },
    {
      "inputs": [],
      "name": "getUnderlyingBalancesFromPool",
      "outputs": [
        {
          "internalType": "uint256",
          "name": "",
          "type": "uint256"
        },
        {
          "internalType": "uint256",
          "name": "",
          "type": "uint256"
        }
      ],
      "stateMutability": "view",
      "type": "function"
    },
    {
      "inputs": [
        {
          "internalType": "uint256",
          "name": "fromIdx",
          "type": "uint256"
        },
        {
          "internalType": "uint256",
          "name": "toIdx",
          "type": "uint256"
        }
      ],
      "name": "getUserVaults",
      "outputs": [
        {
          "components": [
            {
              "internalType": "address",
              "name": "user",
              "type": "address"
            },
            {
              "internalType": "uint256",
              "name": "token",
              "type": "uint256"
            }
          ],
          "internalType": "struct DataTypesLib.UserVaultInfo[]",
          "name": "",
          "type": "tuple[]"
        }
      ],
      "stateMutability": "view",
      "type": "function"
    },
    {
      "inputs": [],
      "name": "gho",
      "outputs": [
        {
          "internalType": "address",
          "name": "",
          "type": "address"
        }
      ],
      "stateMutability": "view",
      "type": "function"
    },
    {
      "inputs": [],
      "name": "inThePosition",
      "outputs": [
        {
          "internalType": "bool",
          "name": "",
          "type": "bool"
        }
      ],
      "stateMutability": "view",
      "type": "function"
    },
    {
      "inputs": [
        {
          "internalType": "address",
          "name": "spender",
          "type": "address"
        },
        {
          "internalType": "uint256",
          "name": "addedValue",
          "type": "uint256"
        }
      ],
      "name": "increaseAllowance",
      "outputs": [
        {
          "internalType": "bool",
          "name": "",
          "type": "bool"
        }
      ],
      "stateMutability": "nonpayable",
      "type": "function"
    },
    {
      "inputs": [
        {
          "internalType": "address",
          "name": "_pool",
          "type": "address"
        },
        {
          "internalType": "int24",
          "name": "_tickSpacing",
          "type": "int24"
        },
        {
          "internalType": "bytes",
          "name": "data",
          "type": "bytes"
        }
      ],
      "name": "initialize",
      "outputs": [],
      "stateMutability": "nonpayable",
      "type": "function"
    },
    {
      "inputs": [],
      "name": "lowerTick",
      "outputs": [
        {
          "internalType": "int24",
          "name": "",
          "type": "int24"
        }
      ],
      "stateMutability": "view",
      "type": "function"
    },
    {
      "inputs": [],
      "name": "manager",
      "outputs": [
        {
          "internalType": "address",
          "name": "",
          "type": "address"
        }
      ],
      "stateMutability": "view",
      "type": "function"
    },
    {
      "inputs": [],
      "name": "managerBalance",
      "outputs": [
        {
          "internalType": "uint256",
          "name": "",
          "type": "uint256"
        }
      ],
      "stateMutability": "view",
      "type": "function"
    },
    {
      "inputs": [],
      "name": "managingFee",
      "outputs": [
        {
          "internalType": "uint16",
          "name": "",
          "type": "uint16"
        }
      ],
      "stateMutability": "view",
      "type": "function"
    },
    {
      "inputs": [
        {
          "internalType": "uint256",
          "name": "amount",
          "type": "uint256"
        },
        {
          "internalType": "uint256",
          "name": "minShares",
          "type": "uint256"
        }
      ],
      "name": "mint",
      "outputs": [
        {
          "internalType": "uint256",
          "name": "shares",
          "type": "uint256"
        }
      ],
      "stateMutability": "nonpayable",
      "type": "function"
    },
    {
      "inputs": [
        {
          "internalType": "uint256",
          "name": "mintAmount",
          "type": "uint256"
        }
      ],
      "name": "mintGHO",
      "outputs": [],
      "stateMutability": "nonpayable",
      "type": "function"
    },
    {
      "inputs": [
        {
          "internalType": "address",
          "name": "to",
          "type": "address"
        },
        {
          "internalType": "uint256",
          "name": "shares",
          "type": "uint256"
        }
      ],
      "name": "mintShares",
      "outputs": [],
      "stateMutability": "nonpayable",
      "type": "function"
    },
    {
      "inputs": [],
      "name": "name",
      "outputs": [
        {
          "internalType": "string",
          "name": "",
          "type": "string"
        }
      ],
      "stateMutability": "view",
      "type": "function"
    },
    {
      "inputs": [],
      "name": "pause",
      "outputs": [],
      "stateMutability": "nonpayable",
      "type": "function"
    },
    {
      "inputs": [],
      "name": "paused",
      "outputs": [
        {
          "internalType": "bool",
          "name": "",
          "type": "bool"
        }
      ],
      "stateMutability": "view",
      "type": "function"
    },
    {
      "inputs": [],
      "name": "performanceFee",
      "outputs": [
        {
          "internalType": "uint16",
          "name": "",
          "type": "uint16"
        }
      ],
      "stateMutability": "view",
      "type": "function"
    },
    {
      "inputs": [],
      "name": "pool",
      "outputs": [
        {
          "internalType": "contract IUniswapV3Pool",
          "name": "",
          "type": "address"
        }
      ],
      "stateMutability": "view",
      "type": "function"
    },
    {
      "inputs": [],
      "name": "poolAddressesProvider",
      "outputs": [
        {
          "internalType": "address",
          "name": "",
          "type": "address"
        }
      ],
      "stateMutability": "view",
      "type": "function"
    },
    {
      "inputs": [],
      "name": "proxiableUUID",
      "outputs": [
        {
          "internalType": "bytes32",
          "name": "",
          "type": "bytes32"
        }
      ],
      "stateMutability": "view",
      "type": "function"
    },
    {
      "inputs": [],
      "name": "pullFeeFromPool",
      "outputs": [],
      "stateMutability": "nonpayable",
      "type": "function"
    },
    {
      "inputs": [
        {
          "internalType": "uint256[2]",
          "name": "minAmounts",
          "type": "uint256[2]"
        }
      ],
      "name": "removeLiquidity",
      "outputs": [],
      "stateMutability": "nonpayable",
      "type": "function"
    },
    {
      "inputs": [],
      "name": "renounceOwnership",
      "outputs": [],
      "stateMutability": "nonpayable",
      "type": "function"
    },
    {
      "inputs": [
        {
          "internalType": "bytes[]",
          "name": "calldatas",
          "type": "bytes[]"
        }
      ],
      "name": "repegPool",
      "outputs": [
        {
          "internalType": "bytes[]",
          "name": "returndatas",
          "type": "bytes[]"
        }
      ],
      "stateMutability": "nonpayable",
      "type": "function"
    },
    {
      "inputs": [
        {
          "internalType": "uint256",
          "name": "supplyAmount",
          "type": "uint256"
        }
      ],
      "name": "supplyCollateral",
      "outputs": [],
      "stateMutability": "nonpayable",
      "type": "function"
    },
    {
      "inputs": [
        {
          "internalType": "bool",
          "name": "zeroForOne",
          "type": "bool"
        },
        {
          "internalType": "int256",
          "name": "swapAmount",
          "type": "int256"
        },
        {
          "internalType": "uint160",
          "name": "sqrtPriceLimitX96",
          "type": "uint160"
        },
        {
          "internalType": "uint256",
          "name": "minAmountIn",
          "type": "uint256"
        }
      ],
      "name": "swap",
      "outputs": [
        {
          "internalType": "int256",
          "name": "amount0",
          "type": "int256"
        },
        {
          "internalType": "int256",
          "name": "amount1",
          "type": "int256"
        }
      ],
      "stateMutability": "nonpayable",
      "type": "function"
    },
    {
      "inputs": [],
      "name": "symbol",
      "outputs": [
        {
          "internalType": "string",
          "name": "",
          "type": "string"
        }
      ],
      "stateMutability": "view",
      "type": "function"
    },
    {
      "inputs": [],
      "name": "tickSpacing",
      "outputs": [
        {
          "internalType": "int24",
          "name": "",
          "type": "int24"
        }
      ],
      "stateMutability": "view",
      "type": "function"
    },
    {
      "inputs": [],
      "name": "token0",
      "outputs": [
        {
          "internalType": "contract IERC20Upgradeable",
          "name": "",
          "type": "address"
        }
      ],
      "stateMutability": "view",
      "type": "function"
    },
    {
      "inputs": [],
      "name": "token1",
      "outputs": [
        {
          "internalType": "contract IERC20Upgradeable",
          "name": "",
          "type": "address"
        }
      ],
      "stateMutability": "view",
      "type": "function"
    },
    {
      "inputs": [],
      "name": "totalSupply",
      "outputs": [
        {
          "internalType": "uint256",
          "name": "",
          "type": "uint256"
        }
      ],
      "stateMutability": "view",
      "type": "function"
    },
    {
      "inputs": [
        {
          "internalType": "address",
          "name": "to",
          "type": "address"
        },
        {
          "internalType": "uint256",
          "name": "amount",
          "type": "uint256"
        }
      ],
      "name": "transfer",
      "outputs": [
        {
          "internalType": "bool",
          "name": "",
          "type": "bool"
        }
      ],
      "stateMutability": "nonpayable",
      "type": "function"
    },
    {
      "inputs": [
        {
          "internalType": "address",
          "name": "from",
          "type": "address"
        },
        {
          "internalType": "address",
          "name": "to",
          "type": "address"
        },
        {
          "internalType": "uint256",
          "name": "amount",
          "type": "uint256"
        }
      ],
      "name": "transferFrom",
      "outputs": [
        {
          "internalType": "bool",
          "name": "",
          "type": "bool"
        }
      ],
      "stateMutability": "nonpayable",
      "type": "function"
    },
    {
      "inputs": [
        {
          "internalType": "address",
          "name": "newManager",
          "type": "address"
        }
      ],
      "name": "transferOwnership",
      "outputs": [],
      "stateMutability": "nonpayable",
      "type": "function"
    },
    {
      "inputs": [
        {
          "internalType": "uint256",
          "name": "amount0Owed",
          "type": "uint256"
        },
        {
          "internalType": "uint256",
          "name": "amount1Owed",
          "type": "uint256"
        },
        {
          "internalType": "bytes",
          "name": "",
          "type": "bytes"
        }
      ],
      "name": "uniswapV3MintCallback",
      "outputs": [],
      "stateMutability": "nonpayable",
      "type": "function"
    },
    {
      "inputs": [
        {
          "internalType": "int256",
          "name": "amount0Delta",
          "type": "int256"
        },
        {
          "internalType": "int256",
          "name": "amount1Delta",
          "type": "int256"
        },
        {
          "internalType": "bytes",
          "name": "",
          "type": "bytes"
        }
      ],
      "name": "uniswapV3SwapCallback",
      "outputs": [],
      "stateMutability": "nonpayable",
      "type": "function"
    },
    {
      "inputs": [],
      "name": "unpause",
      "outputs": [],
      "stateMutability": "nonpayable",
      "type": "function"
    },
    {
      "inputs": [
        {
          "internalType": "uint16",
          "name": "newManagingFee",
          "type": "uint16"
        },
        {
          "internalType": "uint16",
          "name": "newPerformanceFee",
          "type": "uint16"
        }
      ],
      "name": "updateFees",
      "outputs": [],
      "stateMutability": "nonpayable",
      "type": "function"
    },
    {
      "inputs": [
        {
          "internalType": "uint256",
          "name": "collateralOracleHBDuration",
          "type": "uint256"
        },
        {
          "internalType": "uint256",
          "name": "ghoOracleHBDuration",
          "type": "uint256"
        }
      ],
      "name": "updatePriceOracleHeartbeatsDuration",
      "outputs": [],
      "stateMutability": "nonpayable",
      "type": "function"
    },
    {
      "inputs": [
        {
          "internalType": "address",
          "name": "newImplementation",
          "type": "address"
        }
      ],
      "name": "upgradeTo",
      "outputs": [],
      "stateMutability": "nonpayable",
      "type": "function"
    },
    {
      "inputs": [
        {
          "internalType": "address",
          "name": "newImplementation",
          "type": "address"
        },
        {
          "internalType": "bytes",
          "name": "data",
          "type": "bytes"
        }
      ],
      "name": "upgradeToAndCall",
      "outputs": [],
      "stateMutability": "payable",
      "type": "function"
    },
    {
      "inputs": [],
      "name": "upperTick",
      "outputs": [
        {
          "internalType": "int24",
          "name": "",
          "type": "int24"
        }
      ],
      "stateMutability": "view",
      "type": "function"
    },
    {
      "inputs": [],
      "name": "userCount",
      "outputs": [
        {
          "internalType": "uint256",
          "name": "",
          "type": "uint256"
        }
      ],
      "stateMutability": "view",
      "type": "function"
    },
    {
      "inputs": [
        {
          "internalType": "address",
          "name": "user",
          "type": "address"
        }
      ],
      "name": "userVaults",
      "outputs": [
        {
          "components": [
            {
              "internalType": "bool",
              "name": "exists",
              "type": "bool"
            },
            {
              "internalType": "uint256",
              "name": "token",
              "type": "uint256"
            }
          ],
          "internalType": "struct DataTypesLib.UserVault",
          "name": "",
          "type": "tuple"
        }
      ],
      "stateMutability": "view",
      "type": "function"
    },
    {
      "inputs": [
        {
          "internalType": "uint256",
          "name": "index",
          "type": "uint256"
        }
      ],
      "name": "users",
      "outputs": [
        {
          "internalType": "address",
          "name": "",
          "type": "address"
        }
      ],
      "stateMutability": "view",
      "type": "function"
    },
    {
      "inputs": [
        {
          "internalType": "uint256",
          "name": "withdrawAmount",
          "type": "uint256"
        }
      ],
      "name": "withdrawCollateral",
      "outputs": [],
      "stateMutability": "nonpayable",
      "type": "function"
    }
  ],
  "bytecode": "0x60a06040523060601b6080523480156200001857600080fd5b506200002362000029565b620000eb565b600054610100900460ff1615620000965760405162461bcd60e51b815260206004820152602760248201527f496e697469616c697a61626c653a20636f6e747261637420697320696e697469604482015266616c697a696e6760c81b606482015260840160405180910390fd5b60005460ff9081161015620000e9576000805460ff191660ff9081179091556040519081527f7f26b83ff96e1f2b6a682f133852f6798a09c465da95921460cefb38474024989060200160405180910390a15b565b60805160601c613dfa6200012660003960008181610e3b01528181610e840152818161169c015281816116dc01526117ca0152613dfa6000f3fe6080604052600436106103435760003560e01c806371908a03116101b2578063d0c93a7c116100ed578063e059c66011610090578063e059c66014610a92578063ee7a7c0414610ab2578063eebc359a14610ad2578063f26f87ad14610ae7578063f2fde38b14610afd578063f313179314610b1d578063f3d2350e14610b32578063fa461e3314610b5257600080fd5b8063d0c93a7c146109db578063d1af1ca9146103c3578063d21220a714610930578063d3487997146109fb578063d7e458b514610a1b578063dd62ed3e14610a30578063de79e37414610a50578063df28408a14610a7d57600080fd5b80639cd643cc116101555780639cd643cc146108d0578063a457c2d7146108f0578063a9059cbb14610910578063b2016bd414610930578063b390c0ab1461094f578063c45a01551461096f578063c4f2e7af1461098e578063c653089f146109ae57600080fd5b806371908a03146107ed578063727dd2281461080257806380e17d87146108315780638456cb591461085057806387788782146108655780639403c1ae1461088657806395d89b411461089b5780639b1344ac146108b057600080fd5b80633d048c271161028257806352d1902d1161022557806352d1902d146106e65780635c975abb146106fb578063601b48a4146107145780636112fe2e14610742578063628ec4db1461076257806363e968361461078257806370a08231146107a2578063715018a6146107d857600080fd5b80633d048c27146106005780633f4ba83a146106205780634043f5ca14610635578063481c6a75146106555780634a0997f4146106735780634f1ef2861461069357806351da5b17146106a6578063528c198a146106c657600080fd5b806323b872dd116102ea57806323b872dd146104745780632958d03114610494578063313ce56714610519578063349e078f1461053c5780633659cfe61461057e578063365b98b2146105a0578063367febea146105c057806339509351146105e057600080fd5b806306fdde031461034857806307973ccf14610373578063095ea7b3146103935780630dfe1681146103c3578063122b6d55146103f657806316f0115b1461042057806318160ddd1461043f5780631b2ef1ca14610454575b600080fd5b34801561035457600080fd5b5061035d610b72565b60405161036a9190613a63565b60405180910390f35b34801561037f57600080fd5b5061016b545b60405190815260200161036a565b34801561039f57600080fd5b506103b36103ae366004613523565b610c04565b604051901515815260200161036a565b3480156103cf57600080fd5b50610161546001600160a01b03165b6040516001600160a01b03909116815260200161036a565b34801561040257600080fd5b5061040b610c1e565b6040805192835260208301919091520161036a565b34801561042c57600080fd5b50610160546001600160a01b03166103de565b34801561044b57600080fd5b5060fd54610385565b34801561046057600080fd5b5061038561046f3660046138de565b610cb2565b34801561048057600080fd5b506103b361048f366004613437565b610d63565b3480156104a057600080fd5b506104fc6104af3660046132fb565b6040805180820190915260008082526020820152506001600160a01b0316600090815261016a60209081526040918290208251808401909352805460ff1615158352600101549082015290565b60408051825115158152602092830151928101929092520161036a565b34801561052557600080fd5b506101635460405160ff909116815260200161036a565b34801561054857600080fd5b50610551610d89565b604080519687526020870195909552938501929092526060840152608083015260a082015260c00161036a565b34801561058a57600080fd5b5061059e6105993660046132fb565b610e30565b005b3480156105ac57600080fd5b506103de6105bb3660046138c6565b610f02565b3480156105cc57600080fd5b5061059e6105db3660046138c6565b610f44565b3480156105ec57600080fd5b506103b36105fb366004613523565b610fbb565b34801561060c57600080fd5b5061059e61061b3660046134c4565b610fdd565b34801561062c57600080fd5b5061059e611637565b34801561064157600080fd5b5061016254600160e81b900460ff166103b3565b34801561066157600080fd5b5060c9546001600160a01b03166103de565b34801561067f57600080fd5b5061059e61068e3660046138c6565b611649565b61059e6106a1366004613477565b611691565b3480156106b257600080fd5b5061059e6106c13660046138c6565b61174b565b3480156106d257600080fd5b5061059e6106e1366004613523565b611793565b3480156106f257600080fd5b506103856117bd565b34801561070757600080fd5b5061012d5460ff166103b3565b34801561072057600080fd5b5061016354610100900461ffff165b60405161ffff909116815260200161036a565b34801561074e57600080fd5b5061059e61075d3660046138c6565b61186b565b34801561076e57600080fd5b5061038561077d3660046138c6565b6118b3565b34801561078e57600080fd5b5061040b61079d366004613734565b611941565b3480156107ae57600080fd5b506103856107bd3660046132fb565b6001600160a01b0316600090815260fb602052604090205490565b3480156107e457600080fd5b5061059e6119ec565b3480156107f957600080fd5b5061040b6119fe565b34801561080e57600080fd5b5061016254600160b81b900460020b5b60405160029190910b815260200161036a565b34801561083d57600080fd5b50610165546001600160a01b03166103de565b34801561085c57600080fd5b5061059e611a3c565b34801561087157600080fd5b50610163546301000000900461ffff1661072f565b34801561089257600080fd5b5061059e611a4c565b3480156108a757600080fd5b5061035d611add565b3480156108bc57600080fd5b5061016254600160a01b900460020b61081e565b3480156108dc57600080fd5b5061059e6108eb3660046136ba565b611aec565b3480156108fc57600080fd5b506103b361090b366004613523565b611b2f565b34801561091c57600080fd5b506103b361092b366004613523565b611bb5565b34801561093c57600080fd5b50610162546001600160a01b03166103de565b34801561095b57600080fd5b5061038561096a3660046138de565b611bc3565b34801561097b57600080fd5b5061015f546001600160a01b03166103de565b34801561099a57600080fd5b5061059e6109a93660046138de565b611c1b565b3480156109ba57600080fd5b506109ce6109c93660046138de565b611c9a565b60405161036a9190613a0b565b3480156109e757600080fd5b5061016254600160d01b900460020b61081e565b348015610a0757600080fd5b5061059e610a163660046137b2565b611d33565b348015610a2757600080fd5b5061059e611dac565b348015610a3c57600080fd5b50610385610a4b3660046133ff565b611ded565b348015610a5c57600080fd5b50610a70610a6b36600461354e565b611e18565b60405161036a91906139aa565b348015610a8957600080fd5b50610385611faf565b348015610a9e57600080fd5b5061040b610aad3660046136d5565b61203c565b348015610abe57600080fd5b5061059e610acd366004613523565b6120fc565b348015610ade57600080fd5b50610385612126565b348015610af357600080fd5b5061016454610385565b348015610b0957600080fd5b5061059e610b183660046132fb565b612162565b348015610b2957600080fd5b5061040b6121da565b348015610b3e57600080fd5b5061059e610b4d366004613899565b612316565b348015610b5e57600080fd5b5061059e610b6d3660046137b2565b612369565b606060fe8054610b8190613c99565b80601f0160208091040260200160405190810160405280929190818152602001828054610bad90613c99565b8015610bfa5780601f10610bcf57610100808354040283529160200191610bfa565b820191906000526020600020905b815481529060010190602001808311610bdd57829003601f168201915b5050505050905090565b600033610c128185856123b0565b60019150505b92915050565b6040516001620adc9960e31b0319815261015f6004820152600090819073__$f4ff6c4bcb16d28a0e12b061661b52637f$__9063ffa91b38906024015b604080518083038186803b158015610c7257600080fd5b505af4158015610c86573d6000803e3d6000fd5b505050506040513d601f19601f82011682018060405250810190610caa919061378f565b915091509091565b6000610cbc6124d4565b610cc461252e565b60405163d1ee9bfd60e01b815261015f6004820152602481018490526044810183905273__$f4ff6c4bcb16d28a0e12b061661b52637f$__9063d1ee9bfd906064015b60206040518083038186803b158015610d1f57600080fd5b505af4158015610d33573d6000803e3d6000fd5b505050506040513d601f19601f82011682018060405250810190610d57919061371c565b9050610c186001606555565b600033610d7185828561257c565b610d7c8585856125f0565b60019150505b9392505050565b60008060008060008073__$f4ff6c4bcb16d28a0e12b061661b52637f$__63feaadfd361015f6040518263ffffffff1660e01b8152600401610dcd91815260200190565b60c06040518083038186803b158015610de557600080fd5b505af4158015610df9573d6000803e3d6000fd5b505050506040513d601f19601f82011682018060405250810190610e1d91906138ff565b949b939a50919850965094509092509050565b306001600160a01b037f0000000000000000000000000000000000000000000000000000000000000000161415610e825760405162461bcd60e51b8152600401610e7990613a76565b60405180910390fd5b7f00000000000000000000000000000000000000000000000000000000000000006001600160a01b0316610eb4612794565b6001600160a01b031614610eda5760405162461bcd60e51b8152600401610e7990613ac2565b610ee3816127b0565b60408051600080825260208201909252610eff918391906127dc565b50565b600061015f600c018281548110610f2957634e487b7160e01b600052603260045260246000fd5b6000918252602090912001546001600160a01b031692915050565b610f4c61295b565b604051630decace760e01b815261015f60048201526024810182905273__$f4ff6c4bcb16d28a0e12b061661b52637f$__90630decace7906044015b60006040518083038186803b158015610fa057600080fd5b505af4158015610fb4573d6000803e3d6000fd5b5050505050565b600033610c12818585610fce8383611ded565b610fd89190613c55565b6123b0565b600054610100900460ff1615808015610ffd5750600054600160ff909116105b806110175750303b158015611017575060005460ff166001145b61107a5760405162461bcd60e51b815260206004820152602e60248201527f496e697469616c697a61626c653a20636f6e747261637420697320616c72656160448201526d191e481a5b9a5d1a585b1a5e995960921b6064820152608401610e79565b6000805460ff19166001179055801561109d576000805461ff0019166101001790555b60008060008060008060008060008a8060200190518101906110bf9190613333565b9850985098509850985098509850985098506110d96129c0565b6110e16129e7565b6110e9612a16565b6110f38888612a45565b6110fb612a76565b61110489612aa5565b6001600160a01b03891661112b57604051636ba0d85d60e11b815260040160405180910390fd5b856001600160a01b03168d6001600160a01b0316630dfe16816040518163ffffffff1660e01b815260040160206040518083038186803b15801561116e57600080fd5b505afa158015611182573d6000803e3d6000fd5b505050506040513d601f19601f820116820180604052508101906111a69190613317565b6001600160a01b0316146111cd5760405163e402fd1560e01b815260040160405180910390fd5b61016080546001600160a01b0319166001600160a01b038f1690811790915560408051630dfe168160e01b8152905160009291630dfe1681916004808301926020929190829003018186803b15801561122557600080fd5b505afa158015611239573d6000803e3d6000fd5b505050506040513d601f19601f8201168201806040525081019061125d9190613317565b9050600061015f60010160009054906101000a90046001600160a01b03166001600160a01b031663d21220a76040518163ffffffff1660e01b815260040160206040518083038186803b1580156112b357600080fd5b505afa1580156112c7573d6000803e3d6000fd5b505050506040513d601f19601f820116820180604052508101906112eb9190613317565b90508161015f60020160006101000a8154816001600160a01b0302191690836001600160a01b031602179055508061015f60030160006101000a8154816001600160a01b0302191690836001600160a01b031602179055508d61015f600301601a6101000a81548162ffffff021916908360020b62ffffff1602179055503361015f60000160006101000a8154816001600160a01b0302191690836001600160a01b031602179055506000826001600160a01b031663313ce5676040518163ffffffff1660e01b815260040160206040518083038186803b1580156113cf57600080fd5b505afa1580156113e3573d6000803e3d6000fd5b505050506040513d601f19601f820116820180604052508101906114079190613948565b90506000826001600160a01b031663313ce5676040518163ffffffff1660e01b815260040160206040518083038186803b15801561144457600080fd5b505afa158015611458573d6000803e3d6000fd5b505050506040513d601f19601f8201168201806040525081019061147c9190613948565b610162805460ff808416600160f81b026001600160f81b03918716600160f01b02919091166001600160f01b039092169190911717905561016580546001600160a01b03808d166001600160a01b0319928316179092556040805180820182528c841680825260209182018d90526101668054851690911790556101678c905581518083019092528a841680835291018990526101688054909216179055610169879055909150848116908b161461154457610163805460ff191660ff841617905581611556565b610163805460ff191660ff8316179055805b610163805460ff191660ff92909216919091179055604051631262ee9360e01b815261015f6004820152600a60248201526103e8604482015273__$f4ff6c4bcb16d28a0e12b061661b52637f$__90631262ee939060640160006040518083038186803b1580156115c657600080fd5b505af41580156115da573d6000803e3d6000fd5b50505050505050505050505050505050508015611631576000805461ff0019169055604051600181527f7f26b83ff96e1f2b6a682f133852f6798a09c465da95921460cefb38474024989060200160405180910390a15b50505050565b61163f61295b565b611647612af7565b565b61165161295b565b60405163aa14b15360e01b815261015f60048201526024810182905273__$f4ff6c4bcb16d28a0e12b061661b52637f$__9063aa14b15390604401610f88565b306001600160a01b037f00000000000000000000000000000000000000000000000000000000000000001614156116da5760405162461bcd60e51b8152600401610e7990613a76565b7f00000000000000000000000000000000000000000000000000000000000000006001600160a01b031661170c612794565b6001600160a01b0316146117325760405162461bcd60e51b8152600401610e7990613ac2565b61173b826127b0565b611747828260016127dc565b5050565b61175361295b565b60405163388bfeed60e21b815261015f60048201526024810182905273__$f4ff6c4bcb16d28a0e12b061661b52637f$__9063e22ffbb490604401610f88565b3330146117b357604051631628c08760e31b815260040160405180910390fd5b6117478282612b4a565b6000306001600160a01b037f000000000000000000000000000000000000000000000000000000000000000016146118585760405162461bcd60e51b815260206004820152603860248201527f555550535570677261646561626c653a206d757374206e6f742062652063616c6044820152771b1959081d1a1c9bdd59da0819195b1959d85d1958d85b1b60421b6064820152608401610e79565b50600080516020613d5e83398151915290565b61187361295b565b604051637fec8ad360e01b815261015f60048201526024810182905273__$f4ff6c4bcb16d28a0e12b061661b52637f$__90637fec8ad390604401610f88565b6040516356d9182d60e11b815261015f60048201526024810182905260009073__$f4ff6c4bcb16d28a0e12b061661b52637f$__9063adb2305a9060440160206040518083038186803b15801561190957600080fd5b505af415801561191d573d6000803e3d6000fd5b505050506040513d601f19601f82011682018060405250810190610c18919061371c565b60008061194c61295b565b604051631b63a06d60e21b815273__$f4ff6c4bcb16d28a0e12b061661b52637f$__90636d8e81b49061198f9061015f908b908b908b908b908b90600401613b73565b604080518083038186803b1580156119a657600080fd5b505af41580156119ba573d6000803e3d6000fd5b505050506040513d601f19601f820116820180604052508101906119de919061378f565b915091509550959350505050565b6119f461295b565b6116476000612aa5565b60405163812c13f360e01b815261015f6004820152600090819073__$f4ff6c4bcb16d28a0e12b061661b52637f$__9063812c13f390602401610c5b565b611a4461295b565b611647612c05565b611a5461295b565b73__$f4ff6c4bcb16d28a0e12b061661b52637f$__63a4dc445d61015f611a8360c9546001600160a01b031690565b6040516001600160e01b031960e085901b16815260048101929092526001600160a01b031660248201526044015b60006040518083038186803b158015611ac957600080fd5b505af4158015611631573d6000803e3d6000fd5b606060ff8054610b8190613c99565b611af461295b565b60405163c8ce5eb760e01b815273__$f4ff6c4bcb16d28a0e12b061661b52637f$__9063c8ce5eb790610f889061015f908590600401613b59565b60003381611b3d8286611ded565b905083811015611b9d5760405162461bcd60e51b815260206004820152602560248201527f45524332303a2064656372656173656420616c6c6f77616e63652062656c6f77604482015264207a65726f60d81b6064820152608401610e79565b611baa82868684036123b0565b506001949350505050565b600033610c128185856125f0565b6000611bcd6124d4565b611bd561252e565b6040516293442f60e11b815261015f6004820152602481018490526044810183905273__$f4ff6c4bcb16d28a0e12b061661b52637f$__90630126885e90606401610d07565b611c2361295b565b6040516331038ee160e21b815261015f6004820152602481018390526044810182905273__$f4ff6c4bcb16d28a0e12b061661b52637f$__9063c40e3b84906064015b60006040518083038186803b158015611c7e57600080fd5b505af4158015611c92573d6000803e3d6000fd5b505050505050565b604051637db1f66560e11b815261015f6004820152602481018390526044810182905260609073__$f4ff6c4bcb16d28a0e12b061661b52637f$__9063fb63ecca9060640160006040518083038186803b158015611cf757600080fd5b505af4158015611d0b573d6000803e3d6000fd5b505050506040513d6000823e601f3d908101601f19168201604052610d8291908101906135fe565b604051635692f48560e01b815261015f6004820152602481018590526044810184905273__$f4ff6c4bcb16d28a0e12b061661b52637f$__90635692f485906064015b60006040518083038186803b158015611d8e57600080fd5b505af4158015611da2573d6000803e3d6000fd5b5050505050505050565b611db461295b565b604051637436b83560e01b815261015f600482015273__$f4ff6c4bcb16d28a0e12b061661b52637f$__90637436b83590602401611ab1565b6001600160a01b03918216600090815260fc6020908152604080832093909416825291909152205490565b6060611e2261295b565b81516001600160401b03811115611e4957634e487b7160e01b600052604160045260246000fd5b604051908082528060200260200182016040528015611e7c57816020015b6060815260200190600190039081611e675790505b50905060005b8251811015611f8057600080306001600160a01b0316858481518110611eb857634e487b7160e01b600052603260045260246000fd5b6020026020010151604051611ecd919061398e565b600060405180830381855af49150503d8060008114611f08576040519150601f19603f3d011682016040523d82523d6000602084013e611f0d565b606091505b509150915081611f3f57805115611f2657805181602001fd5b604051637c83e73360e11b815260040160405180910390fd5b80848481518110611f6057634e487b7160e01b600052603260045260246000fd5b602002602001018190525050508080611f7890613cd4565b915050611e82565b506040517ff1441a081a033a01c1623ac6a2ca24f2cc88f9b4a47b112e006f4838f9c4e52e90600090a1919050565b604051633081559960e11b815261015f600482015260009073__$f4ff6c4bcb16d28a0e12b061661b52637f$__90636102ab32906024015b60206040518083038186803b158015611fff57600080fd5b505af4158015612013573d6000803e3d6000fd5b505050506040513d601f19601f82011682018060405250810190612037919061371c565b905090565b60008061204761295b565b60405163646bd58560e01b815261015f60048201528615156024820152604481018690526001600160a01b03851660648201526084810184905273__$f4ff6c4bcb16d28a0e12b061661b52637f$__9063646bd5859060a401604080518083038186803b1580156120b757600080fd5b505af41580156120cb573d6000803e3d6000fd5b505050506040513d601f19601f820116820180604052508101906120ef919061378f565b9150915094509492505050565b33301461211c57604051631628c08760e31b815260040160405180910390fd5b6117478282612c43565b60405163fea8519360e01b815261015f600482015260009073__$f4ff6c4bcb16d28a0e12b061661b52637f$__9063fea8519390602401611fe7565b61216a61295b565b6001600160a01b0381166121d15760405162461bcd60e51b815260206004820152602860248201527f4f776e61626c653a206e6577206d616e6167657220697320746865207a65726f604482015267206164647265737360c01b6064820152608401610e79565b610eff81612aa5565b6101605460408051633850c7bd60e01b815290516000928392839283926001600160a01b031691633850c7bd9160048083019260e0929190829003018186803b15801561222657600080fd5b505afa15801561223a573d6000803e3d6000fd5b505050506040513d601f19601f8201168201806040525081019061225e9190613802565b505060405163add9d74d60e01b815261015f60048201526001600160a01b0386166024820152600285900b604482015294965092945073__$f4ff6c4bcb16d28a0e12b061661b52637f$__9363add9d74d935060640191506122bd9050565b604080518083038186803b1580156122d457600080fd5b505af41580156122e8573d6000803e3d6000fd5b505050506040513d601f19601f8201168201806040525081019061230c919061378f565b9350935050509091565b61231e61295b565b604051631262ee9360e01b815261015f600482015261ffff80841660248301528216604482015273__$f4ff6c4bcb16d28a0e12b061661b52637f$__90631262ee9390606401611c66565b604051632fa1b90960e11b815261015f6004820152602481018590526044810184905273__$f4ff6c4bcb16d28a0e12b061661b52637f$__90635f43721290606401611d76565b6001600160a01b0383166124125760405162461bcd60e51b8152602060048201526024808201527f45524332303a20617070726f76652066726f6d20746865207a65726f206164646044820152637265737360e01b6064820152608401610e79565b6001600160a01b0382166124735760405162461bcd60e51b815260206004820152602260248201527f45524332303a20617070726f766520746f20746865207a65726f206164647265604482015261737360f01b6064820152608401610e79565b6001600160a01b03838116600081815260fc602090815260408083209487168084529482529182902085905590518481527f8c5be1e5ebec7d5bd14f71427d1e84f3dd0314c0f7b2291e5b200ac8c7c3b925910160405180910390a3505050565b600260655414156125275760405162461bcd60e51b815260206004820152601f60248201527f5265656e7472616e637947756172643a207265656e7472616e742063616c6c006044820152606401610e79565b6002606555565b61012d5460ff16156116475760405162461bcd60e51b815260206004820152601060248201526f14185d5cd8589b194e881c185d5cd95960821b6044820152606401610e79565b6001606555565b60006125888484611ded565b9050600019811461163157818110156125e35760405162461bcd60e51b815260206004820152601d60248201527f45524332303a20696e73756666696369656e7420616c6c6f77616e63650000006044820152606401610e79565b61163184848484036123b0565b6001600160a01b0383166126545760405162461bcd60e51b815260206004820152602560248201527f45524332303a207472616e736665722066726f6d20746865207a65726f206164604482015264647265737360d81b6064820152608401610e79565b6001600160a01b0382166126b65760405162461bcd60e51b815260206004820152602360248201527f45524332303a207472616e7366657220746f20746865207a65726f206164647260448201526265737360e81b6064820152608401610e79565b6126c1838383612d71565b6001600160a01b038316600090815260fb6020526040902054818110156127395760405162461bcd60e51b815260206004820152602660248201527f45524332303a207472616e7366657220616d6f756e7420657863656564732062604482015265616c616e636560d01b6064820152608401610e79565b6001600160a01b03808516600081815260fb60205260408082208686039055928616808252908390208054860190559151600080516020613da5833981519152906127879086815260200190565b60405180910390a3611631565b600080516020613d5e833981519152546001600160a01b031690565b61015f546001600160a01b03163314610eff57604051631b1319e560e01b815260040160405180910390fd5b7f4910fdfa16fed3260ed0e7147f7cc6da11a60208b5b9406d12a635614ffd91435460ff16156128145761280f83612df8565b505050565b826001600160a01b03166352d1902d6040518163ffffffff1660e01b815260040160206040518083038186803b15801561284d57600080fd5b505afa92505050801561287d575060408051601f3d908101601f1916820190925261287a9181019061371c565b60015b6128e05760405162461bcd60e51b815260206004820152602e60248201527f45524331393637557067726164653a206e657720696d706c656d656e7461746960448201526d6f6e206973206e6f74205555505360901b6064820152608401610e79565b600080516020613d5e833981519152811461294f5760405162461bcd60e51b815260206004820152602960248201527f45524331393637557067726164653a20756e737570706f727465642070726f786044820152681a58589b195555525160ba1b6064820152608401610e79565b5061280f838383612e94565b60c9546001600160a01b031633146116475760405162461bcd60e51b815260206004820152602260248201527f4f776e61626c653a2063616c6c6572206973206e6f7420746865206d616e616760448201526132b960f11b6064820152608401610e79565b600054610100900460ff166116475760405162461bcd60e51b8152600401610e7990613b0e565b600054610100900460ff16612a0e5760405162461bcd60e51b8152600401610e7990613b0e565b611647612eb9565b600054610100900460ff16612a3d5760405162461bcd60e51b8152600401610e7990613b0e565b611647612ee0565b600054610100900460ff16612a6c5760405162461bcd60e51b8152600401610e7990613b0e565b6117478282612f10565b600054610100900460ff16612a9d5760405162461bcd60e51b8152600401610e7990613b0e565b611647612f5e565b60c980546001600160a01b038381166001600160a01b0319831681179093556040519116919082907f8be0079c531659141344cd1fd0a4f28419497f9722a3daafe3b4186f6b6457e090600090a35050565b612aff612f92565b61012d805460ff191690557f5db9ee0a495bf2e6ff9c91a7834c1ba4fdd244a5e8aa4e537bd38aeae4b073aa335b6040516001600160a01b03909116815260200160405180910390a1565b6001600160a01b038216612ba05760405162461bcd60e51b815260206004820152601f60248201527f45524332303a206d696e7420746f20746865207a65726f2061646472657373006044820152606401610e79565b612bac60008383612d71565b8060fd6000828254612bbe9190613c55565b90915550506001600160a01b038216600081815260fb6020908152604080832080548601905551848152600080516020613da5833981519152910160405180910390a35050565b612c0d61252e565b61012d805460ff191660011790557f62e78cea01bee320cd4e420270b5ea74000d11b0c9f74754ebdbfc544b05a258612b2d3390565b6001600160a01b038216612ca35760405162461bcd60e51b815260206004820152602160248201527f45524332303a206275726e2066726f6d20746865207a65726f206164647265736044820152607360f81b6064820152608401610e79565b612caf82600083612d71565b6001600160a01b038216600090815260fb602052604090205481811015612d235760405162461bcd60e51b815260206004820152602260248201527f45524332303a206275726e20616d6f756e7420657863656564732062616c616e604482015261636560f01b6064820152608401610e79565b6001600160a01b038316600081815260fb60209081526040808320868603905560fd8054879003905551858152919291600080516020613da5833981519152910160405180910390a3505050565b60405163f7c2522960e01b815261015f60048201526001600160a01b038085166024830152831660448201526064810182905273__$f4ff6c4bcb16d28a0e12b061661b52637f$__9063f7c252299060840160006040518083038186803b158015612ddb57600080fd5b505af4158015612def573d6000803e3d6000fd5b50505050505050565b6001600160a01b0381163b612e655760405162461bcd60e51b815260206004820152602d60248201527f455243313936373a206e657720696d706c656d656e746174696f6e206973206e60448201526c1bdd08184818dbdb9d1c9858dd609a1b6064820152608401610e79565b600080516020613d5e83398151915280546001600160a01b0319166001600160a01b0392909216919091179055565b612e9d83612fdc565b600082511180612eaa5750805b1561280f57611631838361301c565b600054610100900460ff166125755760405162461bcd60e51b8152600401610e7990613b0e565b600054610100900460ff16612f075760405162461bcd60e51b8152600401610e7990613b0e565b61164733612aa5565b600054610100900460ff16612f375760405162461bcd60e51b8152600401610e7990613b0e565b8151612f4a9060fe90602085019061314e565b50805161280f9060ff90602084019061314e565b600054610100900460ff16612f855760405162461bcd60e51b8152600401610e7990613b0e565b61012d805460ff19169055565b61012d5460ff166116475760405162461bcd60e51b815260206004820152601460248201527314185d5cd8589b194e881b9bdd081c185d5cd95960621b6044820152606401610e79565b612fe581612df8565b6040516001600160a01b038216907fbc7cd75a20ee27fd9adebab32041f755214dbc6bffa90cc0225b39da2e5c2d3b90600090a250565b60606001600160a01b0383163b6130845760405162461bcd60e51b815260206004820152602660248201527f416464726573733a2064656c65676174652063616c6c20746f206e6f6e2d636f6044820152651b9d1c9858dd60d21b6064820152608401610e79565b600080846001600160a01b03168460405161309f919061398e565b600060405180830381855af49150503d80600081146130da576040519150601f19603f3d011682016040523d82523d6000602084013e6130df565b606091505b50915091506131078282604051806060016040528060278152602001613d7e60279139613110565b95945050505050565b6060831561311f575081610d82565b610d8283838151156131345781518083602001fd5b8060405162461bcd60e51b8152600401610e799190613a63565b82805461315a90613c99565b90600052602060002090601f01602090048101928261317c57600085556131c2565b82601f1061319557805160ff19168380011785556131c2565b828001600101855582156131c2579182015b828111156131c25782518255916020019190600101906131a7565b506131ce9291506131d2565b5090565b5b808211156131ce57600081556001016131d3565b80516131f281613d1b565b919050565b8060408101831015610c1857600080fd5b60008083601f840112613219578182fd5b5081356001600160401b0381111561322f578182fd5b60208301915083602082850101111561324757600080fd5b9250929050565b600082601f83011261325e578081fd5b813561327161326c82613c2e565b613bdb565b818152846020838601011115613285578283fd5b816020850160208301379081016020019190915292915050565b600082601f8301126132af578081fd5b81516132bd61326c82613c2e565b8181528460208386010111156132d1578283fd5b6132e2826020830160208701613c6d565b949350505050565b805160ff811681146131f257600080fd5b60006020828403121561330c578081fd5b8135610d8281613d1b565b600060208284031215613328578081fd5b8151610d8281613d1b565b60008060008060008060008060006101208a8c031215613351578485fd5b895161335c81613d1b565b60208b01519099506001600160401b0380821115613378578687fd5b6133848d838e0161329f565b995060408c0151915080821115613399578687fd5b506133a68c828d0161329f565b97505060608a01516133b781613d1b565b95506133c560808b016131e7565b94506133d360a08b016131e7565b935060c08a015192506133e860e08b016131e7565b91506101008a015190509295985092959850929598565b60008060408385031215613411578182fd5b823561341c81613d1b565b9150602083013561342c81613d1b565b809150509250929050565b60008060006060848603121561344b578081fd5b833561345681613d1b565b9250602084013561346681613d1b565b929592945050506040919091013590565b60008060408385031215613489578182fd5b823561349481613d1b565b915060208301356001600160401b038111156134ae578182fd5b6134ba8582860161324e565b9150509250929050565b6000806000606084860312156134d8578081fd5b83356134e381613d1b565b925060208401356134f381613d3e565b915060408401356001600160401b0381111561350d578182fd5b6135198682870161324e565b9150509250925092565b60008060408385031215613535578182fd5b823561354081613d1b565b946020939093013593505050565b60006020808385031215613560578182fd5b82356001600160401b0380821115613576578384fd5b818501915085601f830112613589578384fd5b813561359761326c82613c0b565b80828252858201915085850189878560051b88010111156135b6578788fd5b875b848110156135ef578135868111156135ce57898afd5b6135dc8c8a838b010161324e565b85525092870192908701906001016135b8565b50909998505050505050505050565b60006020808385031215613610578182fd5b82516001600160401b03811115613625578283fd5b8301601f81018513613635578283fd5b805161364361326c82613c0b565b80828252848201915084840188868560061b8701011115613662578687fd5b8694505b838510156136ae57604080828b03121561367e578788fd5b613686613bb3565b825161369181613d1b565b815282880151888201528452600195909501949286019201613666565b50979650505050505050565b6000604082840312156136cb578081fd5b610d8283836131f7565b600080600080608085870312156136ea578182fd5b84356136f581613d30565b935060208501359250604085013561370c81613d1b565b9396929550929360600135925050565b60006020828403121561372d578081fd5b5051919050565b600080600080600060c0868803121561374b578283fd5b853561375681613d3e565b9450602086013561376681613d3e565b9350604086013592506060860135915061378387608088016131f7565b90509295509295909350565b600080604083850312156137a1578182fd5b505080516020909101519092909150565b600080600080606085870312156137c7578182fd5b843593506020850135925060408501356001600160401b038111156137ea578283fd5b6137f687828801613208565b95989497509550505050565b600080600080600080600060e0888a03121561381c578081fd5b875161382781613d1b565b602089015190975061383881613d3e565b604089015190965061384981613d4d565b606089015190955061385a81613d4d565b608089015190945061386b81613d4d565b925061387960a089016132ea565b915060c088015161388981613d30565b8091505092959891949750929550565b600080604083850312156138ab578182fd5b82356138b681613d4d565b9150602083013561342c81613d4d565b6000602082840312156138d7578081fd5b5035919050565b600080604083850312156138f0578182fd5b50508035926020909101359150565b60008060008060008060c08789031215613917578384fd5b865195506020870151945060408701519350606087015192506080870151915060a087015190509295509295509295565b600060208284031215613959578081fd5b610d82826132ea565b6000815180845261397a816020860160208601613c6d565b601f01601f19169290920160200192915050565b600082516139a0818460208701613c6d565b9190910192915050565b6000602080830181845280855180835260408601915060408160051b8701019250838701855b828110156139fe57603f198886030184526139ec858351613962565b945092850192908501906001016139d0565b5092979650505050505050565b602080825282518282018190526000919060409081850190868401855b82811015613a5657815180516001600160a01b03168552860151868501529284019290850190600101613a28565b5091979650505050505050565b602081526000610d826020830184613962565b6020808252602c908201527f46756e6374696f6e206d7573742062652063616c6c6564207468726f7567682060408201526b19195b1959d85d1958d85b1b60a21b606082015260800190565b6020808252602c908201527f46756e6374696f6e206d7573742062652063616c6c6564207468726f7567682060408201526b6163746976652070726f787960a01b606082015260800190565b6020808252602b908201527f496e697469616c697a61626c653a20636f6e7472616374206973206e6f74206960408201526a6e697469616c697a696e6760a81b606082015260800190565b828152606081016040836020840137600081529392505050565b600060e0820190508782528660020b60208301528560020b604083015284606083015283608083015260408360a084013760008152979650505050505050565b604080519081016001600160401b0381118282101715613bd557613bd5613d05565b60405290565b604051601f8201601f191681016001600160401b0381118282101715613c0357613c03613d05565b604052919050565b60006001600160401b03821115613c2457613c24613d05565b5060051b60200190565b60006001600160401b03821115613c4757613c47613d05565b50601f01601f191660200190565b60008219821115613c6857613c68613cef565b500190565b60005b83811015613c88578181015183820152602001613c70565b838111156116315750506000910152565b600181811c90821680613cad57607f821691505b60208210811415613cce57634e487b7160e01b600052602260045260246000fd5b50919050565b6000600019821415613ce857613ce8613cef565b5060010190565b634e487b7160e01b600052601160045260246000fd5b634e487b7160e01b600052604160045260246000fd5b6001600160a01b0381168114610eff57600080fd5b8015158114610eff57600080fd5b8060020b8114610eff57600080fd5b61ffff81168114610eff57600080fdfe360894a13ba1a3210667c828492db98dca3e2076cc3735a920a3ca505d382bbc416464726573733a206c6f772d6c6576656c2064656c65676174652063616c6c206661696c6564ddf252ad1be2c89b69c2b068fc378daa952ba7f163c4a11628f55a4df523b3efa2646970667358221220e761de97fda7f3f00d16795c2212b9c04ddacf5e88b9195e4c6ca7c538a35ca164736f6c63430008040033",
  "linkReferences": {
    "contracts/libraries/LogicLib.sol": {
      "LogicLib": [
        {
          "length": 20,
          "start": 3427
        },
        {
          "length": 20,
          "start": 3599
        },
        {
          "length": 20,
          "start": 3770
        },
        {
          "length": 20,
          "start": 4240
        },
        {
          "length": 20,
          "start": 5815
        },
        {
          "length": 20,
          "start": 6037
        },
        {
          "length": 20,
          "start": 6295
        },
        {
          "length": 20,
          "start": 6583
        },
        {
          "length": 20,
          "start": 6650
        },
        {
          "length": 20,
          "start": 6785
        },
        {
          "length": 20,
          "start": 6976
        },
        {
          "length": 20,
          "start": 7036
        },
        {
          "length": 20,
          "start": 7209
        },
        {
          "length": 20,
          "start": 7455
        },
        {
          "length": 20,
          "start": 7534
        },
        {
          "length": 20,
          "start": 7656
        },
        {
          "length": 20,
          "start": 7806
        },
        {
          "length": 20,
          "start": 7921
        },
        {
          "length": 20,
          "start": 8431
        },
        {
          "length": 20,
          "start": 8617
        },
        {
          "length": 20,
          "start": 8806
        },
        {
          "length": 20,
          "start": 9148
        },
        {
          "length": 20,
          "start": 9325
        },
        {
          "length": 20,
          "start": 9396
        },
        {
          "length": 20,
          "start": 11980
        }
      ]
    }
  },
  "deployedLinkReferences": {
    "contracts/libraries/LogicLib.sol": {
      "LogicLib": [
        {
          "length": 20,
          "start": 3133
        },
        {
          "length": 20,
          "start": 3305
        },
        {
          "length": 20,
          "start": 3476
        },
        {
          "length": 20,
          "start": 3946
        },
        {
          "length": 20,
          "start": 5521
        },
        {
          "length": 20,
          "start": 5743
        },
        {
          "length": 20,
          "start": 6001
        },
        {
          "length": 20,
          "start": 6289
        },
        {
          "length": 20,
          "start": 6356
        },
        {
          "length": 20,
          "start": 6491
        },
        {
          "length": 20,
          "start": 6682
        },
        {
          "length": 20,
          "start": 6742
        },
        {
          "length": 20,
          "start": 6915
        },
        {
          "length": 20,
          "start": 7161
        },
        {
          "length": 20,
          "start": 7240
        },
        {
          "length": 20,
          "start": 7362
        },
        {
          "length": 20,
          "start": 7512
        },
        {
          "length": 20,
          "start": 7627
        },
        {
          "length": 20,
          "start": 8137
        },
        {
          "length": 20,
          "start": 8323
        },
        {
          "length": 20,
          "start": 8512
        },
        {
          "length": 20,
          "start": 8854
        },
        {
          "length": 20,
          "start": 9031
        },
        {
          "length": 20,
          "start": 9102
        },
        {
          "length": 20,
          "start": 11686
        }
      ]
    }
  }
}